:020000040800F2
:1000000068E0002031020008390200083B020008C5
:100010003D0200083F020008410200080000000005
:10002000000000000000000000000000990100082E
:100030004502000800000000DD010008E567000837
:100040004B0200084B0200084B0200084B0200085C
:100050004B0200084B0200084B020008090D000883
:100060004B020008210D00084B0200084B0200085B
:100070004B0200084B0200084B0200084B0200082C
:100080004B0200084B0200084B0200084B0200081C
:100090004B0200084B0200084B020008450D000807
:1000A0004B0200084B0200084B0200084B020008FC
:1000B0004B0200084B0200084B0200084B020008EC
:1000C0004B0200084B0200084B0200084B020008DC
:1000D0004B020008396D00084B0200084B02000873
:1000E000A90C00084B0200084B0200084B02000854
:1000F0004B0200084B0200084B0200084B020008AC
:100100004B0200084B0200084B0200084B0200089B
:100110004B0200084B0200084B0200084B0200088B
:100120004B0200084B0200084B0200084B0200087B
:100130004B0200084B0200084B0200084B0200086B
:100140004B0200084B0200084B0200084B0200085B
:100150004B0200084B0200084B020008496D0008E2
:100160004B0200084B0200084B0200084B0200083B
:100170004B0200084B0200084B0200084B0200082B
:100180004B020008DFF80CD000F0D8F80048004718
:10019000F9E5000868E00020224B19680868B0E81B
:1001A000F00F80F30988BFF36F8F4FF0000080F3EA
:1001B00011884EF00D0E70470000000006480068E0
:1001C000006880F3088862B661B6BFF34F8FBFF353
:1001D0006F8F00DF00BF00BF08ED00E0EFF3098084
:1001E000BFF36F8F0F4B1A6820E9F00F106008B54E
:1001F0004FF0100080F31188BFF34F8FBFF36F8F64
:100200000FF0EEF94FF0000080F31188BDE80840D0
:1002100019680868B0E8F00F80F30988BFF36F8FA2
:10022000704700BF24000020EFF3058070470000F6
:100230000648804706480047FEE7FEE7FEE7FEE780
:10024000FEE7FEE7FEE7FEE7FEE7FEE719680008C7
:100250008501000810B5431A934209D28318881803
:1002600003E010F8011D03F8011D521EF9D210BD64
:1002700040EA01039B0703D009E008C9121F08C028
:10028000042AFAD203E011F8013B00F8013B521EA8
:10029000F9D210BDD2B201E000F8012B491EFBD209
:1002A00070470022F6E710B513460A460446194681
:1002B000FFF7F0FF204610BD421C10F8011B00297B
:1002C000FBD1801A7047034611F8012B00F8012B6F
:1002D000002AF9D1184670472DE9F05F0546002045
:1002E00092469B4688460646814640241BE02846A7
:1002F00041464746224600F042F853465A46C01A45
:10030000914110D311461846224600F029F82D1AC3
:1003100067EB01084F4622460120002100F020F83B
:1003200017EB00094E41201EA4F10104DFDC484612
:1003300031462A464346BDE8F09F0000064C074D73
:1003400006E0E06840F0010394E8070098471034A5
:10035000AC42F6D3FFF71AFFA0210108C021010823
:10036000202A04DB203A00FA02F100207047914075
:10037000C2F1200320FA03F3194390407047202A6A
:1003800004DB203A21FA02F00021704721FA02F33F
:10039000D040C2F12002914008431946704770B521
:1003A0008C1810F8015B15F0070301D110F8013B20
:1003B0002A1106D110F8012B03E010F8016B01F8A7
:1003C000016B5B1EF9D12B0705D40023521E0DD4FF
:1003D00001F8013BFAE710F8013BCB1A921C03E04D
:1003E00013F8015B01F8015B521EF9D5A142D8D385
:1003F000002070BD21B1826842F00102826003E0FA
:10040000826822F001028260704700000021084AE1
:100410001168084A1140D0E900231A4383681A433F
:10042000C3681A431143044AC2F80413704700001A
:1004300004230140E030FCFF0020014021B182682C
:1004400042F48072826003E0826822F480728260EB
:10045000704721B1826842F40072826003E08268D2
:1004600022F400728260704730B5024600200023FB
:100470005068104C20400D790C6844EA0524204354
:10048000506090680C4C2040D1E903542C438D6897
:100490002C434D7944EA450420439060D06A20F40F
:1004A00070000C7D641EE4B2234340EA0350D06226
:1004B00030BD0000FFFEFFFCFDF7FFC0F0B50446B5
:1004C0000D4600200021092D11DDE068A5F10A0686
:1004D00006EB4607072606FA07F18843A5F10A0648
:1004E00006EB460603FA06F10843E0600CE02069DB
:1004F00005EB4507072606FA07F1884305EB450695
:1005000003FA06F108432061072A0FDA606B561ED2
:1005100006EB86071F2606FA07F18843561E06EBF0
:10052000860605FA06F10843606322E00D2A0FDA19
:10053000206BD61F06EB86071F2606FA07F18843B5
:10054000D61F06EB860605FA06F10843206310E085
:10055000E06AA2F10D0606EB86071F2606FA07F1F0
:100560008843A2F10D0606EB860605FA06F108435C
:10057000E062F0BD816841F0804181607047000019
:1005800038B10849096841F40001074AC2F8041368
:1005900006E00449096821F40001034AC2F8041383
:1005A00070470000042301400020014010B50120E5
:1005B0000FF000FA0149086010BD0000A000002003
:1005C0001CB50020012103468A02CDE9001018A1C4
:1005D0001A480FF04DFC1A48022100230A02CDE907
:1005E000001018A11B480FF043FC1B4805210023F5
:1005F0004FF40072CDE9001018A11B480FF038FC31
:100600001A48052100234FF40072CDE9001018A10B
:100610001B480FF02DFC0020052103464FF400720B
:10062000CDE9001017A11A480FF022FC1CBD0000F4
:10063000765461736B47554900000000C1F1000812
:1006400094000020765461736B557365724B657925
:1006500049460000ADF6000898000020765461730A
:100660006B537461727400001DF500089C0000203B
:10067000765461736B41646350726F6300000000D5
:1006800059F10008765461736B546573740000006F
:10069000F9F80008014609B90B487047012901D152
:1006A0000020FAE7022901D10020F6E7032901D151
:1006B0000020F2E7042901D10020EEE7052901D14D
:1006C0000248EAE70020E8E7F0C8002018D100203F
:1006D00008B525208DF8000000208DF802000120CB
:1006E0008DF80300684604F017FF47208DF80000DE
:1006F00005208DF8020001208DF80300684604F003
:100700000BFF08BD7CB507F0A7F905460020009057
:100710002B46044A0D210190034801F027F80446B6
:1007200020467CBDA1CD0008DC02010821B1026891
:1007300042F00102026003E0026822F0010202605E
:100740007047000010B500220268134B1A40CC68B5
:100750000B6823434C6923438C692343CC692343AF
:100760000C6A23434C6A23438C6A23434C6B234318
:100770008C6B23431A430260426922F00702D1E9DD
:100780000B3423431A4342610B6943604B68836017
:100790008B68C36010BD00003F801CF02DE9FC4752
:1007A0000E465FEA00097FD001F0D4FC484600F015
:1007B00099FE009090F85470D0F85880456BC46C46
:1007C000684600F0EBFEB8F1000F04D03146484611
:1007D0004246904761E0122E18D006DC082E43D026
:1007E000102E3CD0112E06D112E0132E21D01D2E3A
:1007F00043D01E2E3DD0202E4FDB17B1484608F0C7
:10080000C6FCB1B248460AF0B5FF60B3611C27E0F0
:100810004DB3284600F066FE05462146019002F0E1
:1008200061FB4419204602F00BFB014623460122DE
:1008300010E0C5B1284600F055FE0546214601905E
:1008400002F050FB4419204602F0FAFA0146234612
:100850004FF0FF32484608F00BFB01A81BE0611E79
:10086000484600F0F7F918E0BCB1611E484600F0B8
:10087000F1F9484608F08BFC0FE0484600F032FEE4
:100880000090012F12D0012180F8541021464846D3
:1008900000F0E0F9684600F081FE484607F022FAD1
:1008A00000E001E002F030FCBDE8FC87002180F8A8
:1008B0005410EFE77CB545680446284607F02EFF44
:1008C00006462146284606F005FC002844D020684C
:1008D0000F283DD004DC0B283FD00E2860D147E024
:1008E000A0F58070133804D0A0F580702D3857D152
:1008F0001DE0284607F036FB284600F0F3FD009087
:1009000010F8561F81F004010170684600F046FEA1
:10091000002128460BF0F2F8284600F0E3FD009095
:10092000D0F88400002107F003FB68461DE0E06872
:1009300060B1017A29B10168284600F0AFF80121C1
:1009400000E00221284607F051FA29E00321F9E7E7
:10095000012128460BF0D2F87CBD284600F0C2FDEC
:100960000190343000F022FD01A800F017FE17E0DE
:10097000B6B1E0684168002912DD01681B290FD07B
:1009800006DC09290CD00A290AD00D2904D107E078
:10099000212905D0222903D02846FFF7FFFE7CBD80
:1009A000204606F01DFF7CBDF0B587B004460DF172
:1009B000080CD4E90567B0F90850408A8CE8E100DA
:1009C0000020CDE90010B4F90C00B4F91060C11892
:1009D000B4F90A00B4F90E50104433462A4600F028
:1009E00009F8050002D0618A00F01FF907B0284617
:1009F000F0BD00002DE9F04F85B01F46DDE912542F
:100A0000DDE90E6A90468946834601F0A3FB0DF1AD
:100A1000040C4AF480501F49603400968CE813009F
:100A20003B4642464946584606F022FE04002AD07C
:100A300000F058FD10220490119906F0CFFC0498A4
:100A4000242215496030FFF705FC049A012082F842
:100A50005500681C00D0012082F88800002D00DCC1
:100A600008252DB2158700205087506304A86D1CFF
:100A700000F094FD294620460AF05BFD18B9204697
:100A800006F0E6FE002402F03FFB05B02046BDE87C
:100A9000F08F0000B5080008600200202DE9F04149
:100AA00086B00C46060055D001F054FB304600F0ED
:100AB00019FD0090406B98B300F014FD039000986E
:100AC000806E02F0A5F88046304607F03AF80746F7
:100AD000039801F07CFA0546009890F8601001F048
:100AE0000301012916D002290DD0416EC06A0068A9
:100AF0000844241A641E039803F012F80146002CDF
:100B00000FDA002115E0781B401C00EBD070A4EB3D
:100B10006004F0E7406E791B081A241A641CEAE7A7
:100B200013E0AC4205DC02462146039802F098FF30
:100B30000146304600F08EF803A800F02FFD404635
:100B400002F066F8304607F0CDF8684600F026FD62
:100B500002F0DAFA06B0BDE8F0812DE9FC478846DC
:100B60005FEA00094FF0000652D001F0F3FA484660
:100B700000F0B8FC0090B0F93850446B684600F0C3
:100B80000DFD0027B8F1000F44D04CB1204600F015
:100B9000A9FC0190FFF790FB461C01A800F0FEFCA9
:100BA000404602F0BDFF0446A84200DD2C46214627
:100BB000404602F097F9451CA91B48460AF076FE0C
:100BC00008B3484600F08EFC0090406B00F08AFCB1
:100BD0002A4641460190FFF73DFB0198284400F862
:100BE000017C0098C464B0F938108C4205D190F8AB
:100BF0005410012901D1641EC46401A800F0CEFC88
:100C0000684600F0CBFC484607F06CF802F07CFA2E
:100C1000BDE8FC87484600F065FC0090343000F0E9
:100C2000C5FB00984787C764EAE738B50C4605005E
:100C30000FD001F08FFA284600F054FC009018B154
:100C40000466284607F04EF8684600F0A7FC02F05C
:100C50005BFA38BD1CB50C4600F044FC0090406BBC
:100C6000F0B100F03FFC019002F05AFF009991F8BA
:100C7000542002B10122002C00DA0024844200DD5D
:100C80000446B1F93800801AA04200DA0446C86C64
:100C9000A04200D0CC640020086501A800F07EFCD2
:100CA000684600F07BFC1CBD10B54FF4006000F0FE
:100CB0006FF840B11348006820F4006011490860E3
:100CC000C81400F05FF84FF4005000F061F840B134
:100CD0000C48006820F400500A490860481400F0ED
:100CE00051F84FF4004000F053F848B1054800684F
:100CF00020F40040034908604FF4004000F042F83F
:100D000010BD0000003C014010B5022000F040F88A
:100D100020B10DF00DFA022000F034F810BD0000F3
:100D200010B5082000F034F840B10548006820F004
:100D3000080003490860082000F024F810BD0000F6
:100D4000003C014010B5802000F022F840B10C4872
:100D5000006820F080000A490860802000F012F846
:100D60004FF4807000F014F840B10548006820F49A
:100D7000807003490860881500F004F810BD000079
:100D8000003C01400149086070470000143C0140EC
:100D9000014600200022074B1B6803EA0102054BB5
:100DA00014331B680B4013B10AB1012000E000208E
:100DB00070470000003C0140002123498279002A4D
:100DC0003AD00A46126803689A430B461A600A1D15
:100DD000126803689A430B1D1A60027911440A686D
:100DE00003681A430A60184A0832126803689A4373
:100DF000154B08331A601A1D126803689A43124B88
:100E00000C331A604279102A0ED11A1F1268036837
:100E10001A430D4B08331A601A1D126803681A43EF
:100E2000094B0C331A600DE00749427911440A68F6
:100E300003681A430A6005E0027911440A680368EE
:100E40009A430A6070470000003C014010B5002042
:100E500001F0B6FE6FF07F4001F0BDFE012001F011
:100E600015FF002001F020FF002001F02DFF0020E1
:100E700001F0C2FE0448006801F0CAFEBDE810405F
:100E8000002001F0D5BE000008020020F0B50A469F
:100E900000210023002400BF3DE0012505FA01F3F5
:100EA000156805EA03049C4234D105684F00032607
:100EB000BE40B543056015794E00B5400668354320
:100EC00005601579012D02D01579022D16D185689E
:100ED0004F000326BE40B543856055794E00B540AE
:100EE000866835438560456801268E40B543456078
:100EF000456896798E40B6B235434560C5684F0067
:100F00000326BE40B543C560D5794E00B540C668DE
:100F10003543C560491C1029BFD3F0BDF0B500238F
:100F200000244D07ED0E02FA05F3CE1000F1200566
:100F300055F826504E07F70E0F26BE40B543CF108A
:100F400000F1200646F82750CE1000F1200555F894
:100F5000265045EA0304CE1000F1200545F826404E
:100F6000F0BD0146086980B270470246002013694F
:100F70000B400BB1012000E0002070474183704717
:100F800001837047416170470AB1018300E04183EA
:100F9000704700002DE9F04FDFF828B191B04FF015
:100FA000FF35DBF80030B3F922100691DE69B3F9A2
:100FB00024A0F469A189814206D8E289824203D340
:100FC000471AD4F8008012E0D4E90181002970D0DA
:100FD0000A8882426DD84D8885426AD3801A82B2CF
:100FE000486800EB8200B0F90070B0F90250781C3C
:100FF0005FD0307EA27C014600FB02F9207CCDE967
:101000000710B3F92A60304604F0B0F8C0B20E9071
:10101000DBF8001007FB0980A37C8A6B0127CDE970
:101020000402CDE90273C869089AC17E807ECDE9C9
:101030000001DDE90603514603F0D0FB681C18D01F
:1010400046F0020004F092F8DBF80000A37C05FBF8
:101050000981826BCDE90273CDE90412C069089A57
:10106000C17E807ECDE90001DDE90603514603F033
:10107000B5FBDBF800005D46C069417E007E814221
:1010800014D9022E12D086F0040004F06FF82868FC
:10109000C069027EC37E857E02FB03A1437E089A5F
:1010A0000698534402FB050203F04EFD0E9804F02F
:1010B0005DF8DBF80000627C418C1144418411B082
:1010C000BDE8F08F0C02002004480068C069C069C8
:1010D00009B1027C0A60407C704700000C020020CD
:1010E000022008807047C06982898A4202D8C2897A
:1010F0008A4210D2806880B102888A420DD8438823
:101100008B420AD3406800EB8100A0EB8200B0F96B
:101110000000002801DB012070470020704700001C
:101120002DE9F0432F4C034687B020681946B0F9EB
:101130002A80C069C06900F082F800284ED041685A
:101140000088181A01EBC0054046AE7804F00EF88E
:10115000814620686A680123816BCDE90236CDE9BA
:101160000421C169CB7E8A7ECDE900230B7EB0F9D4
:1011700024102A78B0F9220003F030FB2068C069FF
:10118000477E067EB7421DD9C07E47434643B8F12D
:10119000020F17D000F0EAFE804600F0B5FE01F025
:1011A0001AFD21682A78CB69B1F92200B1F924101F
:1011B000DB7E02FB0302CB19314403F0C5FC404641
:1011C00001F009FD484603F0D1FF20686A78C36941
:1011D000B0F922109B7E02FB0311418407B0BDE8E9
:1011E000F08300000C02002030B50E4C05460B4683
:1011F00020682946C069C06900F021F8002810D095
:101200004168008824682A1A0120E46900EBC200C2
:10121000085CA47E6043002B03D011F832106143B8
:10122000196030BD0C02002001200880704700B515
:10123000C06900F004F8002800D0012000BD06E0DD
:1012400002888A4202D842888A4202D280680028F4
:10125000F6D170472DE9F0410025154E154C18E0E8
:101260002069C5EB051700EBC7007022001D31682F
:10127000FEF7F0FF2069002140F8371000EBC700AF
:1012800000F10C018161011D0A1DC0E90F126D1CE6
:101290004164A0688542E3DB0AF0DAF82169C0EB1B
:1012A000001001EBC000001D3060BDE8F0810000BF
:1012B0000C0200204803002070B50F490D4808605B
:1012C000084602F071FD0C4C143CA068C0EB001005
:1012D000C500284600F078F82A460021206102F077
:1012E000DCFD4FF0FF30206001F050FFBDE87040A2
:1012F0000AF0AEB8ADBA00085C03002010B50400D7
:1013000009D000F027FF204607F078FC044601F0E2
:10131000FBFE204610BD002010BD38B5054600F08C
:1013200019FF2846FFF7EAFF040009D000F0DAF8B9
:101330002A460021009002F0B0FD684600F02EF928
:1013400001F0E2FE204638BD024A106021F00300A1
:101350005060704734DB002010B5040016D000F058
:10136000F9FE0B48406B10F8341059B1022909D22C
:10137000042101EBC4014158486807F0F7FB2046FF
:101380000AF0FCFDBDE8104001F0BEBE10BD00003B
:1013900074DA0020002805D0034AD16B016001B146
:1013A0004860D0637047000074DA002010B504462E
:1013B00000F0D0FE2068FFF7CFFF00202060BDE8DE
:1013C000104001F0A1BE00002DE9F04104460AF0F2
:1013D0007DF92848E41C24F00305016C2D1DA94269
:1013E00000D90D46C46B13E054F8042CAA420ED168
:1013F00084B1216809B162684A60616809B12268F4
:101400000A60C26BA24231D12168C1632EE0246818
:10141000002CE9D18046816BC0680F1857F8040C86
:101420003E1A306838B100200AF004FE57F8040C68
:101430003E1A3068D0B97068A84217DB3044441BAC
:101440003046241D0AF0AEFDD8F80C10491BC8F830
:101450000C10D8F814102944C8F814107068401BF8
:1014600002D0314607F082FB44F8045C2046BDE818
:10147000F081000074DA002010B500240AF026F98B
:101480000C490F2001EBC002526C1AB101EBC000F5
:10149000406C08E0401EF5D508E04168A14200D943
:1014A0000C46806810B180680028F6D1A4F10C00C9
:1014B00010BD000074DA0020002138B10449042274
:1014C00002EBC000496B085841680C390846704768
:1014D00074DA002002488169491C8161704700006C
:1014E00074DA00200549CA69521CCA61496B01EBD4
:1014F000C0010A78521C0A7000F068B874DA002043
:101500007CB506460C460846FFF7F8FE050020D0DD
:10151000FEB13046FFF7D0FFA04200DA044600F0EB
:1015200019FE2846FFF7DEFF00903046FFF7DAFF8E
:101530000146019022460098FEF78CFE684600F0B6
:101540002DF801A800F02AF83046FFF705FF01F05A
:10155000DBFD28467CBD000010B500F0FBFDFFF769
:101560008BFF64220849B0F5800F04D990FBF2F498
:10157000086A444303E0096A4143B1FBF2F401F015
:10158000C3FD204610BD000074DA002002488169C6
:10159000491E81617047000074DA00200A49026820
:1015A0004B6B52F8082C03EBC2021378022B03D3C7
:1015B000CB690BB15B1ECB611178491E1170002104
:1015C000016008467047000074DA0020002806D049
:1015D0000349042202EBC000496B085808307047E9
:1015E00074DA002070B50C46054600F0E9FDC1B282
:1015F00023462846BDE87040002200F001B80000F4
:10160000F0B52D271C68B0F1004F08D00026002847
:101610000DDA651C1D6027704042012408E0651C3E
:1016200001261D606FF000402770491E01E0002474
:10163000091BC9B22AB3491EC9B222E00C46491E91
:10164000C9B2944205D1124C27781C68651C1D60F4
:101650002770104C54F8215090FBF5F4E4B20A2C9A
:1016600011D804FB150011B90EB1641CE4B20A2CA8
:1016700002D10124491CC9B21D686F1C30341F609F
:101680002C700029DAD1196800200870F0BD000024
:1016900000020020540E010810B5C2B2CBB2D21A1B
:1016A00000D5524293B25B43C0F30722C1F3072433
:1016B000121B00D55242000C92B2A0EB114002FB6B
:1016C000023200B2002801DA404200B280B200FBD0
:1016D000002010BD10B50021084600F0B3FC43F611
:1016E000FF725042BDE8104013460146AFF3008040
:1016F0002DE9FC411C4615460E46074600F02AFD22
:10170000042003F033FD80461248C068C16C006DB0
:101710000F4406440D440444ADF80070ADF8045085
:10172000ADF80260ADF80640684606F083FE07E0BB
:1017300023462A463146384603F006FA06F03CFEB8
:101740000028F5D1404603F011FD01F0DDFCBDE8B5
:10175000FC81000000020020B0F90630B0F904203E
:10176000B0F90210B0F90000FFF7C2BF2DE9F8434D
:101770001C00DDE9089816460F46054602D106F022
:101780006BF9044600962E6843464A462146284691
:10179000B047061E39D006F054F98146698A3046B2
:1017A00005F02CFD304606F0FBFC484606F0F8FC40
:1017B0004FF000080CE000BFCDF8008055F81CCFBA
:1017C00000231A4649462846E04700B306F0E8FCE5
:1017D0007F1E002FF0DC1D21484606F0F4FB601C44
:1017E00012D000F0B7FC06F061F930B1FFF7EEFE61
:1017F0008469B44201D02000F8D1B44202D030460E
:1018000006F068FC01F080FC3046BDE8F883304605
:1018100006F01EF80020F8E72DE9F0411C461646B8
:101820000D460746022B02DB0020BDE8F0811C209C
:10183000FFF7CAFD0028F8D00DB105610AE0094A9A
:1018400052F8241009B905E011460A68002AFBD1B4
:101850000969016184618682002101604160C0E9FB
:101860000217E2E72402002070B51D46FFF7D4FFFF
:10187000040009D000F00EF8E068006820B90348C1
:10188000006800EB85008465204670BD0C020020D6
:10189000FFF780BD70B590B38269022A30DA1E4C22
:1018A00054F8221019B944F8220032E019464B6866
:1018B000002BFBD106E0CB68C5681B682D68AB42E6
:1018C00003DD09680029F6D11AE0C1B1CB68C6680A
:1018D0001B683668B3420CD1838A012B05D008E01F
:1018E0001946DB681B68AB4203DB0B68002BF7D1A2
:1018F00029B14B6833B118604A68426004E0FFE7E1
:10190000012070BD44F822004860884200D10021C7
:101910000160002070BD00002402002010B503E02B
:101920000468FFF7B7FF20460028F9D110BD00007A
:101930000A4A816952F82130834202D1036842F891
:101940002130416809B102680A60016809B1426842
:101950004A600021016041607047000024020020BD
:1019600000207047022801DB00207047054951F82C
:10197000200004E0C16809680029F6D0006800284A
:10198000F8D17047240200202DE9F041044601F00F
:10199000F8FB06191EE000BF00F05EFA052F00DD1F
:1019A000052700F0D7FB11480568FFF793FD2C00D1
:1019B00017D000BF01F0A8FB641EFBD1384601F030
:1019C000D1FB1DB100F0C6FB6D1EFBD1FFF7DEFDA4
:1019D00001F09AFB01F0D5FB371A002FDCDCBDE8E3
:1019E000F081384601F0BEFBF0E700005403002010
:1019F0002DE9FC4706005FD000F0ACFB00F0C2FA16
:101A00003C4C81462068B0F9228000F0EDFA216854
:101A100007468A8CD01B888441E000BF47F6FF71DF
:101A2000304602F061F882460146304602F032F854
:101A30002168054691F82C0000F00300012841D0F0
:101A400002283BD000204A8C101A4884ADF80000D0
:101A50006A1E1044ADF80400888CADF80200A9F1AC
:101A600001010844ADF806006A465146304601F0CF
:101A7000BFFD2168BDF8020088845146304601F060
:101A800031FA064430780A281ED00D281CD0BDF843
:101A90000000216828444884307818B1761C3078DA
:101AA0000028BBD12068818C39448184818D21F04C
:101AB0000301818501F028FBBDE8FC8705EBD570AB
:101AC0004010C0E72846BEE7206890F82C1001F0CF
:101AD000030101290BD0022909D0018C41843178FE
:101AE0000A29D9D1828C02EB09018184D4E7A0F8BC
:101AF0002280F4E70C02002070B514460D4606461D
:101B000000F028FB05480068458484843046FFF7D0
:101B10006FFFBDE8704001F0F7BA00000C02002032
:101B20002DE9FF4F87B09046894607007DD000F031
:101B300011FBD9F80040D9F8045021B228B2401A5C
:101B4000401C029000F01EFA064618F00C0F1ED042
:101B500038460A9A029901F0E1FA08F00C010429CA
:101B600004D0082902D00C2911D104E0291400FB6B
:101B70001610401C09E02114C1EB254200FB162081
:101B8000401C00EBD07001EB600060F31F4448463E
:101B900006F0F6FA5FEA000B09D00246494604A8AF
:101BA000CDE9044502F001F804A806F0E9FAA6F12F
:101BB000010A38460A9A029902F03EF903900AEBAC
:101BC000244060F31F45CDE900453846039901F0F4
:101BD00061FF18F003010ED001292CD002290ED18B
:101BE000B9F90420B9F90010521A101A00EBD0709C
:101BF00001EB600001E0B9F80000ADF800006A46B2
:101C00003846039901F0F4FC38460A9A029902F02A
:101C100009F9074406EB244060F31F443878002894
:101C2000C7D1584606F0ACFA00E001E001F06CFACA
:101C30000BB0BDE8F08FB9F80410081A401CDCE7BF
:101C40002DE9F04F87B09B46DDE9109892460C468F
:101C5000054600F07FFA16480168C86C096D4719FF
:101C60000E1900EB0A0501EB0B04ADF81070ADF88E
:101C70001450ADF81260ADF8164004A806F0DAFB77
:101C800088B1DFF830B04FF0000ACDE90098CDE917
:101C900002BA2B4622463946304608F0D7FC06F0F9
:101CA0008BFB0028F1D101F02FFA07B0BDE8F08FCF
:101CB0000C020020A14A00082DE9F04F87B09B4696
:101CC000DDE9109892460C46054600F043FA1648A6
:101CD0000168C86C096D47190E1900EB0A0501EB84
:101CE0000B04ADF81070ADF81450ADF81260ADF8FB
:101CF000164004A806F09EFB88B1DFF830B04FF024
:101D0000010ACDE90098CDE902BA23462A463146B8
:101D1000384608F09BFC06F04FFB0028F1D101F09B
:101D2000F3F907B0BDE8F08F0C020020E14900088C
:101D30002DE9FC4114460D46064600F00BFA114F02
:101D40003968C86C096D054404440E44ADF8005070
:101D5000ADF80440ADF80260ADF80660684606F0E4
:101D600069FB08E0386822463146406E0368284621
:101D7000984706F021FB0028F4D101F0C5F9BDE831
:101D8000FC8100000C0200202DE9FC411C46164697
:101D90000D46074600F0DEF91A480168087ECA6C55
:101DA000096D17440D440C44401E391A1644ADF811
:101DB00000103118ADF80410291A2044ADF80600BF
:101DC000ADF80210684606F035FB15E032462946AC
:101DD000384602F005FE32462146384602F000FE43
:101DE000621E691C384602F05BFE621E691C3046AA
:101DF00002F056FE06F0E0FA0028E7D101F084F97F
:101E0000BDE8FC810C0200207CB514460D46064658
:101E100000F0A0F90F480068C16C006D0E44054445
:101E20000444ADF80060ADF80460ADF80250ADF8C0
:101E30000640684606F0FEFA06E02246294630468D
:101E400002F02EFE06F0B8FA0028F6D101F05CF997
:101E50007CBD00000C02002010B5002400E001242D
:101E600000F004F80028FAD1204610BD094810B54A
:101E70000068002410B1804700B1012405F060FD26
:101E800000B101240448006810B1804700B101246A
:101E9000204610BD300200202C0200202DE9FC411C
:101EA0001C4615460E46074600F054F910480068D7
:101EB000C16C006D0F4406440D440444ADF800703D
:101EC000ADF80450ADF80260ADF80640684606F083
:101ED000B1FA07E023462A463146384602F034FE7E
:101EE00006F06AFA0028F5D101F00EF9BDE8FC8190
:101EF0000C020020034951F82000C1688A6A0821B9
:101F0000104700002402002010B500F023F902F071
:101F10005DFE02F037FF044601F0F6F8204610BDE2
:101F200010B5044600F016F9054800210068C069A4
:101F3000426820469047044601F0E6F8204610BD6E
:101F40000C02002070B50C46054600F003F9064867
:101F500021460068C069426828469047044601F05F
:101F6000D3F8204670BD00000C02002010B500F030
:101F7000F1F802F033FE02F005FF044601F0C4F868
:101F8000204610BD10B500F0E5F804480068C069AF
:101F9000447E01F0B9F8204610BD00000C0200207C
:101FA00010B500F0D7F801F06BFD044601F0ACF875
:101FB000204610BD70B50C46054600F0CBF8214612
:101FC000284601F0BBFDBDE8704001F09DB810B59A
:101FD000044601F0A5FD01462046BDE8104001F091
:101FE00059BD01F0CEB8000010B5002400F0B2F8E1
:101FF0000B48006890F82C1001F00C01042904D063
:10200000082906D00C2907D103E0C069047E641EAC
:1020100002E0C069007E440801F076F8204610BD59
:102020000C020020024951F8200000690068704746
:1020300024020020024951F82000006940687047DE
:102040002402002070B50D46044600F083F82046B7
:1020500009F04EFA0446284609F052FA044301F00A
:1020600053F8204670BD00002DE9F0411948016881
:1020700021F00101016018480125856017490160C0
:1020800000681749884200D0FEE701F0E1F9154EDB
:102090002E20307001F079F8134809F0C7FA0CF0DF
:1020A00091F9074602F0F6FD10B102F007FE38B9CB
:1020B00002F00DFE044602F0F6FD214603F050F852
:1020C0000021084600F0C2FD05F062FD757038463B
:1020D000BDE8F081002000E000300240C2A507F416
:1020E000CDB5E8B50002002040DB00202DE9FC4121
:1020F0001C4615460E46074600F02CF8012000F05D
:102100007BFD804612480068C16C006D0F44064498
:102110000D440444ADF80070ADF80450ADF8026011
:10212000ADF80640684606F085F907E023462A46E2
:102130003146384602F008FD06F03EF90028F5D198
:10214000404600F059FD00F0DFFFBDE8FC810000D3
:102150000C02002070B5184CE06820B101F00DF8B9
:102160006168884204D001F051F801F006F860601F
:10217000E068401CE06001281CD109F069F90546BF
:102180002068854216D0002813DBFFF7E9FB0146E3
:102190002068C0EB0012206900EBC2025167C5EB5A
:1021A0000511064A00EBC100011D1160406FFFF7E9
:1021B000B5FB256070BD0000480300200C02002024
:1021C00010B5011E01DD024600E04A42064B012027
:1021D00053F82040944202D8401C0A28F8DB00291A
:1021E00000DA401C10BD0000540E01081CB50400AC
:1021F00004D10E480068046E002C16D0FFF7AAFF29
:102200002046FFF76FF9009044696846FFF7C6F96A
:102210004CB12046FFF766F90190816889688847CC
:1022200001A8FFF7BBF900F06FFF1CBD0C020020F6
:1022300001490A4600F002B801F0FFFF2DE9F04322
:1022400087B015460C465FEA000846D0FFF782FFCC
:10225000002000F0D1FC814621480068066E40460F
:10226000FFF740F900900068806900F08DFC074698
:1022700040F6FF70C44204D10098B0F90440B0F9B0
:1022800006500098611E0289ADF804401144ADF873
:1022900008104189681E0844ADF80650ADF80A00E0
:1022A00005F08EF96846FFF779F901A806F0C2F843
:1022B00006E02A462146404600F088FB06F07CF8FE
:1022C0000028F6D1384600F05FFC304600F090F967
:1022D000484600F091FC00F017FF07B0BDE8F0831E
:1022E0000C0200202DE9FE4F984691468A4683460F
:1022F00000270C9EFFF72EFF184819490068407C04
:1023000051F82040E1680968042903D02468002CB2
:10231000F8D100E01CB9FFF725FB041E1BD0E068D4
:102320000121C26A20469047050011D02469A068A7
:102330008047401C02D10B4C46F001060096CDE9C7
:10234000015443464A465146584600F0E5F90746CF
:1023500000F0DAFE3846BDE8FE8F00000C020020D7
:10236000240200204418010838B504001CD0FFF7EF
:10237000F1FE0E480068006EA04201D100F0F6FBAD
:102380002046FFF7AFF80090406908B100F0A5FEC5
:1023900000980068FFF77CFA6846FFF7FFF82046D0
:1023A000FEF7DAFF00F0B0FE38BD00000C0200209E
:1023B0002DE9FF4F83B09A468B460746FFF7CAFECA
:1023C000DFF83891D9F80000447C4D4800570128C7
:1023D000204606DD02F064FC0546204602F074FC4F
:1023E00005E002F03FFC0546204602F041FC0446B1
:1023F0001FB302A901A8FFF7DDFDB7F9000000280F
:1024000000DA0020B7F902608046002E00DA0026CC
:1024100001984119B7F90400491E09F0B2FA0546BE
:1024200002980119B7F90600491E09F0AAFAA5EBAE
:102430000802841B521C641C03E04FF0000846464F
:102440002A46BAF1000F01D1C4F1000A002A51DD79
:10245000002C4FDD10980090534631464046FFF760
:1024600041FF5FEA000A10D000F07CF80746A04266
:1024700006D0D9F80000806C10B1322106F0EEFAD7
:10248000504600F0B5F8002523E0594605988847E6
:1024900000F03AFE012007B0BDE8F08F611BB942A1
:1024A00002DA504600F088F83DB1721941465046B4
:1024B00000F0C6F85046FFF799FE59460598884740
:1024C0001048016809B1002088475046FFF7B0FE68
:1024D0003D44A542E2DB5046FFF746FF002000F0F6
:1024E00087F8A74206D0D9F80000806C10B13321DC
:1024F00006F0B4FA00F008FE0020CCE70C02002041
:10250000440200208403002038B505004FF0000489
:1025100011D0FFF71FFE2846FEF7E4FF0090006889
:1025200000698068804702F0DDFF04466846FFF7D7
:1025300035F800F0E9FD204638BD38B504000ED06E
:10254000FFF708FE2046FEF7CDFF00F118040090CB
:102550006846FFF723F800F0D7FD204638BD00207D
:1025600038BD000038B504460025FFF7F3FD1CB95F
:1025700008480068046E44B12046FEF7B3FF00909F
:10258000B0F90A506846FFF709F800F0BDFD28468B
:1025900038BD00000C02002070B505460024284616
:1025A00006F048FD641C18B1BDE8704000F07AB830
:1025B000052CF4DB70BD000038B50C46050004D1D5
:1025C0000A480068056E002D0FD0FFF7C3FD2846AE
:1025D000FEF788FF0090B0F90A10A14200DD4481A7
:1025E0006846FEF7DBFF00F08FFD38BD0C020020CF
:1025F000F8B50546FFF7AEFD104E3068046ECDB15C
:102600000CB100F0B3FA05F0DBF82846FEF76AFFDC
:10261000009031680D660068FFF73CF96846FEF7E8
:10262000BDFF02F0FBFD02F071FD00BF00F06CFD8C
:102630002046F8BD00F09AFAF8E700000C020020EE
:102640007CB515460E46040004D115480068046E9A
:10265000002C24D0FFF77EFD2046FEF743FF2DB26D
:102660000090C58034B2848002F050FD009840692B
:1026700080B1FEF737FF009A0190B2F9081081800F
:10268000B2F90A20C28011B10AB10480458001A8C4
:10269000FEF784FF6846FEF781FF00F035FD7CBD44
:1026A0000C02002001490A4600F002B801F0FFFFC9
:1026B0007FB515460C4606002DD0FFF74BFD304682
:1026C000FEF710FF40F6FF710190CC4203D1B0F944
:1026D0000440B0F906500289611E1144ADF808406B
:1026E000ADF80C104189681E0844ADF80E00ADF835
:1026F0000A5001A8FEF752FF02A805F09BFE06E073
:102700002A462146304600F049F905F055FE0028DA
:10271000F6D100F0F9FC7FBD2DE9FF4FDFF8E8B0FE
:1027200083B01C46DBF80010DDE9106092464FF0E4
:1027300000084B7C42461299FFF76EF8050060D006
:1027400028698068804702F0CDFE81460AFB09F1C6
:10275000C91DCF08FEF700FFF10705D1C11700EB37
:102760009170801000EB4000002C09DC1FB118387C
:10277000B0FBF7F000E000206442A04200DC044619
:10278000F00707D10090DDE903012346524600F02F
:1027900029FC8046002C03DC2846FFF779F830E05E
:1027A00004FB07F01830F10702D0FEF7A7FD01E0A7
:1027B000FEF7B3FD06001CD0FEF794FE0190056005
:1027C000039981800499C180A0F808A04481C0F8D1
:1027D0001480C0E9037901A8FEF7E0FE1298AE600C
:1027E0002861DBF80000407CA861304607B0BDE8F6
:1027F000F08F2846FFF74CF8B8F1000001D0FEF743
:10280000ABFD0020F2E700000C0200202DE9F74F9D
:102810008EB0144689460E98FEF764FE0990B0F912
:1028200008B0B0F90A600068006940680C9009A817
:10283000FEF7B4FE564D574F2868407C57F82000ED
:10284000C1688A6A082190470790182801D3202080
:1028500007902868407C57F820000069069003C85C
:102860000B904D48814201D0012000E000200A90E9
:10287000002000F0E7FC00287DD1286809EB0B015F
:10288000B0F90C20891A491E002902DDABEB0105C5
:1028900000E05D46B0F90810494505DDA1EB0901EE
:1028A00089446D1A089101E000210891002D6BDD2B
:1028B000B0F90E20A119891A491E002902DDA6EBE4
:1028C000010800E0B046B0F90A00A04204DD061B92
:1028D0003444A8EB060800E00026B8F1000F53DDF1
:1028E000089801900DA95F46DDF830A00E98009180
:1028F000FFF723FE774300EB870101982B4601EB9E
:10290000800200994846CDE900A1214600F0C8FEAA
:102910000090002838D00A98E8B1DDE9063229464F
:10292000009800F08FFDB0B90698009FDA46D0F805
:1029300010C0BCF1000F05D004235A463946384672
:10294000E04708E00B993868884701C7AAF1010001
:102950005FEA000AF6D100990020079ACDE9030149
:10296000059001200090CDE9010221460346641C38
:102970002A46484600E007E001F030FFA8F10100D8
:10298000761C5FEA0008ABD111B0BDE8F08F000003
:102990000C02002024020020A34D0008F8B51546C3
:1029A0000E460746FEF79EFD009000681621C0689F
:1029B000426A0020904704466846FEF7EFFD002C6F
:1029C00003D02A4631463846A047F8BDF8B516462A
:1029D0000F46050012D0FEF785FD00904469684659
:1029E000FEF7DCFD2846FFF78FFD0346082800DDD3
:1029F0002CB132463946284609F08AFDF8BD3246E8
:102A00003946284609F024FFF8BD10B5002821D02A
:102A100009B30AB3B1F90040B2F900309C4200DAC0
:102A200023460380B1F90240B2F902309C4200DA39
:102A300023464380B1F90440B2F904309C4200DDE2
:102A400023468380B1F90610B2F90620914200DCDA
:102A50001146C18010BD11460A6802604968416094
:102A600010BD00280BD003880B44038083881944D1
:102A70008180418811444180C1881144C1807047E0
:102A800070B50025FFF766FB094CD4E900208242AF
:102A90000AD0D2E90056104608F048FD20603146C1
:102AA000284605F0ABF9012500F02EFB284670BD45
:102AB000380300202DE9FC41154DDDE908742D682F
:102AC000B5F90860864200DD3046B5F90C609642E3
:102AD00000DA3246824219DBB5F90A608E4200DD27
:102AE0003146B5F90E509D4200DA2B468B420DDB84
:102AF00000E02C46E5682D6825B1042D02D025683C
:102B0000002DF6D1CDE9007402F0E0F9BDE8FC81BA
:102B10000C020020B0F90220B1F906309A4213DC11
:102B2000B1F90220B0F906309A420DDCB0F900206C
:102B3000B1F904309A4207DCB1F90010B0F9040091
:102B4000814201DC012070470020704701460248A5
:102B500070220068FDF77EBB0C0200200249702243
:102B60000968FDF777BB00000C02002010B5FFF7E5
:102B7000F1FA02F077FA02F051FB04F021FDBDE812
:102B8000104000F0C1BA000070B50B4D0446286833
:102B9000467CFFF7DFFA022C09D22046FEF7E2FE60
:102BA00028B128684474FFF7E1FF0448046000F08E
:102BB000ABFA304670BD00000C020020B0020020CD
:102BC00010B50446FFF7C6FA204602F075FABDE8D4
:102BD000104000F099BA10B50446FFF7BBFA204642
:102BE00002F0A2FABDE8104000F08EBA01498860F8
:102BF000704700000002002010B50446FFF7AAFA53
:102C0000204602F0B3FA044600F07EFA204610BDDA
:102C100070B50446FFF79EFA04480068C56904B120
:102C2000C46100F071FA284670BD00000C0200205B
:102C300070B50546FFF78EFA03480068847E8576F6
:102C400000F062FA204670BD0C02002070B50C4600
:102C50000546FFF77FFA09482246058008480480A8
:102C600008480068417C084850F82100C1680B6A98
:102C700029469847BDE8704000F046BA4C02002053
:102C80004E0200200C0200202402002070B50546F0
:102C9000FFF760FA03480068047E057600F034FA16
:102CA000204670BD0C02002070B50446FFF752FAB2
:102CB00004480068B0F92C50848500F025FA2846B5
:102CC00070BD00000C02002070B50446FFF742FA08
:102CD00004480068B0F92A50448500F015FA2846E7
:102CE00070BD00000C02002002480068002800D0DF
:102CF000004770476403002002498A6802B988606F
:102D0000FFF7F2BF3803002010B504000ED0FFF724
:102D100021FA204609F060F9204609F0B5FB20466B
:102D2000FEF71AFBBDE8104000F0EEB910BD38B553
:102D30000C46050011D0FFF70DFA2846FEF7D2FB2E
:102D400000908089204201D0012400E000246846E0
:102D5000FEF724FC00F0D8F900E00124204638BD3D
:102D600038B5040017D0FFF7F5F92046FEF7BAFB97
:102D70000090FFF736F901460098826911444161DD
:102D80006846FEF70BFC204609F07EFB204608F063
:102D9000B3FD00F0B9F938BD38B50C4605000BD0CD
:102DA000FFF7D8F92846FEF79DFB0090846168463E
:102DB000FEF7F4FB00F0A8F938BD000038B5054671
:102DC000002028600648046844B12046FEF78AFBCC
:102DD0000090006928606846FEF7E0FB204638BD99
:102DE0000004002038B504004FF000000D460860D4
:102DF00011D02046FEF776FB0090846844B1684607
:102E0000FEF7CCFB2046FEF76DFB009000692860C2
:102E10006846FEF7C3FB204638BD000070B50C467F
:102E20000546FFF797F9054821460068C26828461D
:102E30009047044600F068F9204670BD100200205B
:102E400010B50446FFF786F904480068016820467B
:102E50008847044600F058F9204610BD10020020B3
:102E600010B50446FFF776F904480068416820462B
:102E70008847044600F048F9204610BD10020020A3
:102E80000149096889680847100200202DE9F041CE
:102E9000084E04460568306801682846884707469A
:102EA0003068416828468847284420603846BDE895
:102EB000F0810000100200202DE9F04100250E46AF
:102EC00080462C46064F06E0396808EB0400496846
:102ED000884704446D1CA642F6DC2846BDE8F08114
:102EE000100200202DE9F0410C4606460025064F51
:102EF00005E0386841683046884706440544641E4A
:102F0000F7D22846BDE8F081100200202DE9F041FB
:102F10001E46069C1746884605463A46A8687F1C0A
:102F20003346D0F804C041462846E047641EF4D139
:102F3000BDE8F08170B5B0F90040091BB0F904405C
:102F40008C422CDD00F11404B0F902500069521BD0
:102F500002FB0040CA1800EBE104521ED010B0EB97
:102F6000E10501F007034FF0FF0102F0070221FA2B
:102F700003F0C2F1070201FA02F1CEB221780FD0BC
:102F800001436D1E04F8011B002D05DDFF222946BB
:102F90002046FDF77FF92C4420783043207070BD27
:102FA00030400143217070BD10B5B0F90030B0F968
:102FB0000240C91A00F114030069121B02FB003021
:102FC00000EBE10001F0070302788021D9400A43B9
:102FD000027010BDB0F90610026951431430FDF7BC
:102FE00060B900002DE9F843804602F10F0000119E
:102FF000470003FB07F01C46154689461430FEF7D0
:103000008CF9060018D0FFF7A5F83046FEF76AFAEB
:103010000090A0F80080A0F802908580C480074945
:1030200081600121818107616846FEF7B7FA00F0EF
:103030006BF83046BDE8F8830020FBE7D02001089C
:1030400070B5B0F90660B0F904400B6800F11405E2
:1030500096421BDD0069A34202FB005000EBE30235
:1030600014DA641EE010A0EBE30512F8010B03F084
:103070000704A040C4B206E045B1083312F8014B82
:1030800023F007036D1E002CF6D004E0002070BD75
:103090006006040E5B1C2006FAD5FF2C07D01846EC
:1030A00002E06406240E401C6606FAD400E0D81D37
:1030B000C443640705D006E012F8014BFF2C09D188
:1030C00008306D1EF8D5C01A401C0B6070BD62063A
:1030D000140E401C2206FAD4F5E738B50546FFF772
:1030E00039F82846FEF7FEF900908189491E0CB296
:1030F00084816846FEF752FA14B92846FEF72CF987
:1031000000F002F838BD00000348C168491EC160E4
:1031100001D100F08BB87047480300202DE9F04141
:1031200016460F4605460024FFF714F83246394686
:10313000284600F077FE054408B1641CF6E7FFF767
:10314000E3FF2046BDE8F08110B54FF4004103488D
:10315000FEF7FAF80248FFF749FD10BDF0480020DD
:103160005C0B010810B5044620460BF0FBFF10BDB8
:1031700010B51E200BF0F6FF10BD10B50CF0A8FE28
:1031800010BD10B50CF0AAFE10BD704710B501209F
:103190000CF010FC1B4908600846006808B10120CB
:1031A00000E0002050B900BF102080F31188BFF369
:1031B0004F8FBFF36F8F00BF00BFFEE703220021D8
:1031C00001200CF008FC104908600846006830B186
:1031D00000231A4619460C4800680CF043FD0A48C3
:1031E000006808B1012000E0002050B900BF1020A5
:1031F00080F31188BFF34F8FBFF36F8F00BF00BF05
:10320000FEE710BD8C0000209000002010B506489D
:10321000006808B9FFF7BAFF00235A1E1946024892
:1032200000680CF005FC10BD8C00002010B50023D8
:103230001A461946024800680CF014FD10BD000043
:103240008C0000200EB508B102AA00E00022002385
:1032500001A9684600F0AEFB0EBD0000074910B59D
:103260000C7818B101200870801E03E0002008705F
:103270006FF07F4001F066FA204610BD4602002044
:103280002DE9F041984616460C4688B3FEF79FFE9E
:10329000074608F00300012825D0022817D0B4F90A
:1032A000005000BFFEF76EFE014608F00C00042837
:1032B0002BD00C281DD0B4F9020035807080EA199B
:1032C000521E0844B280401EF080BDE8F081B4F97F
:1032D0000400B4F90010401AC01B401C00EBD07071
:1032E00001EB6005DEE7B4F90400C51B6D1CD9E7EE
:1032F00010E0B4F90600B4F90220801A401A401C0C
:1033000000EBD07002EB6000D7E7B4F90600401A7A
:10331000401CD2E72068306060687060D5E700002C
:1033200010B5082A0EDC0346012A18D0022A56D00E
:10333000042A76D010F8042B03F8012B491EF9D18A
:10334000012010BD102A08DC4FEA000230F8043BCF
:1033500022F8023B491EF9D1F2E7002010BD10F817
:10336000042BD207120E491E34D010F8044B491E0C
:1033700004F0010442EA84122CD010F8044B491ED8
:1033800004F0010442EA441224D010F8044B491E10
:1033900004F0010442EA04121CD010F8044B491E48
:1033A00004F0010442EAC40214D010F8044B491E90
:1033B00004F0010442EA84020CD010F8044B491EC8
:1033C00004F0010442EA440204D010F8044B04F073
:1033D0000104224303F8012B0029C0D1B0E710F803
:1033E000042B9207120E491E15D010F8044B491EEB
:1033F00004F0030442EA04120DD010F8044B491EF5
:1034000004F0030442EA840205D010F8044B04F0EF
:1034100003042243491E03F8012B0029DFD18FE763
:10342000FFE710F8042B1207120E491E05D010F802
:10343000044B04F00F042243491E03F8012B00291A
:10344000EFD17DE738B50024009400F01DF838BDB9
:103450000B4810B58169002910D101218161FFF766
:1034600073FEFDF729FF01F0EBFE054905481C310D
:103470000860BDE81040084600F096BC10BD000092
:10348000000200204DBA00082DE9F0410D460699D2
:10349000044601B901461F68082A09DC0E46012AC4
:1034A0001AD0022A5BD0042A7DD0082A13D18DE0DD
:1034B000102A07DCD3F810C00E46BCF1000F04D070
:1034C000022389E00020BDE8F08101CCB84726F84E
:1034D000020B6D1EF9D189E001CCB847C0074FEA55
:1034E00010686D1E36D001CCB84748EA801000F055
:1034F000FF086D1E2ED001CCB84748EA401000F0FE
:10350000FF086D1E26D001CCB84748EA001000F035
:10351000FF086D1E1ED001CCB84748EAC00000F07D
:10352000FF086D1E16D001CCB84748EA800000F0B5
:10353000FF086D1E0ED001CCB84748EA400000F0ED
:10354000FF086D1E06D001CCB84740EA080000F025
:10355000FF086D1E06F8018B002DBDD146E001CCA1
:10356000B84780074FEA10686D1E16D001CCB847E7
:1035700048EA001000F0FF086D1E0ED001CCB847DD
:1035800048EA800000F0FF086D1E06D001CCB84765
:1035900040EA080000F0FF086D1E06F8018B002DC0
:1035A000DDD123E0FFE701CCB84700074FEA106800
:1035B0006D1E06D001CCB84740EA080000F0FF08B5
:1035C0006D1E06F8018B002DEDD10FE0D3F810C071
:1035D000BCF1000F04D001232A462046E04705E055
:1035E00001CCB84706F8010B6D1EF9D101206AE73E
:1035F0007CB5064628480D46006868B1002004F0F6
:1036000019FF06E06A462946304605F001FE04F03F
:10361000D3FE0028F6D17CBD106800901F4C506886
:1036200001902268BDF8000032F84C1F0844ADF844
:103630000000BDF8020091880844ADF80200BDF812
:10364000040011880844ADF80400BDF80600918814
:103650000844ADF80600684604F0ECFE0EE000BF3A
:103660002068BDF800106A464184BDF802108184CC
:103670002946304605F0CCFD04F09EFE0028EFD12F
:10368000206830F8221F428D891A01804188C28D3E
:10369000891A41807CBD0000480200200C020020F5
:1036A0002DE9FF4F8DB00020DDF86CA0164600908C
:1036B0001D4604460246CAF8000008AB03A902A84A
:1036C00000F078F918B1002011B0BDE8F08F08982B
:1036D000854200DD0546614F0B9561493868407CA5
:1036E00051F82010049109690691FEF703FC05903A
:1036F0003868407CFEF79EFC5A498146884204D0D7
:103700005949894501D0012000E000200A9001CEEE
:103710001A9988478346000E079077D0009870BBAF
:103720000D9800EB04084D480068B0F908004045CA
:1037300003DDA0EB0807804600E00027029804990B
:1037400000EB840000EB8700CDE900010B990D9898
:10375000421809920E9B40461946521EFFF7AAF9DD
:1037600001200090059818280ADA0298DDE905235F
:1037700000EB840000EB8700E91B00F079F812E011
:103780000A9880B1029800EB840000EB8707099843
:10379000A0EB080849463868884701C7A8F101002E
:1037A0005FEA0008F6D13148C06980B3DDE902075D
:1037B00000EB840007EB8402CDE902022B4C361F9C
:1037C0003046E4692B460299A047FF213068B1EBEF
:1037D000106F02D10298006804E0029A1268B1EBFF
:1037E000126F01D1039A1060029806F10406001DC1
:1037F00002900398001D03906D1EE7D10397DAF83D
:10380000000040F00101CAF8001020E021E0FFE7CD
:103810000798FF2811D0C0F1FF02029850F8241039
:10382000584600F05DFA039941F82400DAF80000E8
:1038300040F00101CAF8001005E00298039950F821
:10384000240041F82400641C6D1E7FF460AF0398CF
:103850003AE7039941F824B0E8E700000C020020A1
:1038600024020020A34D0008A14D0008D803002029
:103870002DE9F05F0C1E16DD5E68014600EB840545
:10388000082A12DC611E012A26D0022A47D0042A07
:103890006AD0082A07D1071917F8010DB04745F873
:1038A000040D641EF8D1BDE8F09F102AFBDC5F69AF
:1038B0003FB12246BC46BDE8F04F02235DF804EB61
:1038C000604701EB440700BF37F8020DB04745F8E9
:1038D000040D641EF8D1E6E700EBE10001F00707F4
:1038E00010F801A98146802020FA07F8B5F10405F7
:1038F0000AEA0800C7F10701C840B04745F80409C3
:103900003FB14FEA48604FEA10687F1E641EEFD156
:10391000C9E719F801A907274FF00108F6E700EBFE
:10392000A10001F0030710F801A981467900C02029
:1039300020FA01F84FF0060BB5F104050AEA080079
:10394000ABEB4701C840B04745F804093FB14FEA27
:1039500088604FEA10687F1E641EEFD1A3E703273B
:1039600019F801A9B846F7E700EB6100012710F844
:1039700001A9A7438146B900F02020FA01F84FF0D1
:10398000040B2D1F0AEA0800ABEB8701C840B047C3
:1039900045F804093FB14FEA08704FEA10687F1EEE
:1039A000641EEFD17FE719F801A901274FF00F0836
:1039B000F6E700002DE9F047224C06461F46A069B5
:1039C00090468946002540B90120A06104F12001FC
:1039D0001D480860084600F0E7F9606930B91B48E7
:1039E0000068606110B901F040F9606107B13860AA
:1039F0004EB1A06830B960698000FDF7E5FCA060B9
:103A000000B901253060B9F1000F0AD0E06830B983
:103A100060698000FDF7D8FCE06000B90125C9F8B5
:103A20000000B8F1000F0AD0206930B96069800049
:103A3000FDF7CAFC206100B90125C8F8000028463E
:103A4000BDE8F087D8030020D5BA00083C0200206A
:103A500030B4024CA468A44630BC60471003002078
:103A600013460A461946014B5B68184710030020AD
:103A700013460A461946014B1B68184710030020DD
:103A800003480068C169087EC97E4843704700004A
:103A90000C02002073B5124A01A9009812689047E1
:103AA00000240090C8B10F4900250968C969496917
:103AB00059B10A684AB1019990477CBD6846FFF741
:103AC000E5F90546FEF72CFA04440198401E0190E2
:103AD000F4D5284600F040F8044420467CBD0000A0
:103AE000340300200C02002073B50D46009800241A
:103AF00090B10A490968C969496959B14A684AB126
:103B0000294690477CBD6846FFF7C0F920B10A28D6
:103B100002D0641CAC42F6DB20467CBD0C020020C7
:103B200031B50024009808B905E0641C6846FFF729
:103B3000ADF90028F9D1204638BD0000044AB2F999
:103B4000002002600348B0F90000086070470000E0
:103B50004C0200204E02002038B500246946009433
:103B6000FEF7F0F90099814200DD0C1A204638BDBD
:103B7000B0F90030B1F90020934200DA0280B0F9C8
:103B80000230B1F90220934200DA4280B0F90430E9
:103B9000B1F90420934200DD8280B0F90620B1F92A
:103BA00006108A4200DDC180704770B5B1F900404F
:103BB000B2F900309C4200DD23460380B1F9025087
:103BC000B2F90240A54200DD2C464480B1F9046000
:103BD000B2F90450AE4200DA35468580B1F90610DC
:103BE000B2F90620914200DB1146C1809D4201DB03
:103BF000A14201DA002070BD012070BD01460248DB
:103C00000068407C00F002B80C0200202DE9F84367
:103C100001268946044602285DDA304F7A6802B1EF
:103C200090472E4D5FEA090005F1100532D00128BA
:103C300003D0B9F1020F4ED118E055F8240088B92D
:103C40002046FDF78FFE009018B3C0680D21426A30
:103C50006846904702003ED049460098904755F884
:103C600024000026401C45F8240034E02046FDF7DF
:103C700079FE009068B1C0680D21426A684690479D
:103C8000040028D0386800B1804749460098A04712
:103C9000002620E055F82400A846012812D120462D
:103CA000FDF760FE009068B1C0680D21426A684669
:103CB0009047050006D0386800B180474946009813
:103CC000A847002658F8241009B1012200E000227C
:103CD000891A48F824103046BDE8F8831C030020F8
:103CE00070B5FF23B3EB116F29D0C3B200F47F4549
:103CF00000F47F04060E5343554354435643C2F128
:103D0000FF00CAB202FB003201F47F4303FB005301
:103D100001F47F0505FB0044090E01FB0065C2F3B9
:103D200007204FF47F4101EA1322090201EA14211E
:103D30004FF07F43104303EA05430843184370BD27
:103D40002DE9F04F0646DDE90CB915460C4600207A
:103D50008046584519D20B9F4FF0FF0A01CE08CC80
:103D6000AAEB106202FB09F2B2FBFAF1CAB21946E1
:103D7000FFF7B6FF20F07F4001C57F1EEED1099806
:103D800004EB800408F10100E2E7BDE8F08F0B8846
:103D9000134403808B889B1A83804B881344438091
:103DA000C988891AC180704702494A6942604861DE
:103DB00070470000000200202DE9F843076806461E
:103DC00088460025384600F0BFF840B3404600F072
:103DD000CBF8441C3846FDF76FFB84420CD1F4B19C
:103DE0003846FDF77FFB224641460090FCF732FA49
:103DF0006846FDF7D3FB11E02046FDF77FFA04008B
:103E00000DD0FDF76FFB41460090FCF75CFA684669
:103E1000FDF7C4FB3046FDF7C9FA3460012528469A
:103E2000BDE8F88310B5044600F009F801462046C5
:103E3000BDE81040FFF756B8002308F04DBB77B53A
:103E400081B015460E466B46019808F045FB0446C6
:103E500001460198FFF746F801990844019001A82E
:103E6000FFF714F80A2802D0012D02D012E0641CDA
:103E700010E020280ED1FEF753F8054607E028444D
:103E8000009001A8641CFFF701F8202802D10098D7
:103E90008642F4DA04B0204670BD10B502E000F8A6
:103EA000011B521E0AB18307F9D1930818D001EB08
:103EB000014402F0030204EB042406E010C01B1FBF
:103EC00010C040F8084B40F8044C042BF6DA01E02F
:103ED00010C05B1E002BFBD102E000F8011B521E3C
:103EE000002AFAD110BD10B5830702D520F8021BB5
:103EF000521E530811D001EB0144042B09DB10C002
:103F00001B1F10C0042B40F8084B40F8044CF6DA95
:103F100001E010C05B1E002BFBD1D20700D0018056
:103F200010BD000000B907A021B906A102E03AB116
:103F3000401C491C02780B789A42F8D00120704747
:103F4000002070470000000038B50D46012448B13C
:103F5000FDF7C8FA29460090FFF7E4FF04466846DB
:103F6000FDF71CFB204638BD4FF0FF3128B100BFE4
:103F700010F8012B491C002AFAD1084670470000AE
:103F80008AB04FF000080020089009901822F7A18D
:103F900002A8FCF75FF9C14600250026002700248F
:103FA000FEF762F8FDF796FB042004F02DF8A24618
:103FB00037E22820FDF7E8FC504603F0FCFE20B96C
:103FC0004FF00008FCF79EFB8246504603F039FD97
:103FD000834640F60A01584603F04AFD019008F175
:103FE0000100642190FBF1F201FB1208052200217F
:103FF00008A80AF00FFB0A2098FBF0F03030C0B29E
:104000008DF820000A2098FBF0F100FB1180303081
:10401000C0B28DF8210008A9019801F0ABFB414620
:10402000019801F0FEFB40F60901584603F020FD1F
:10403000009009F0EFFDD34800884FF47A7190FBAF
:10404000F1F03030C0B28DF80800CE48008864210D
:1040500090FBF1F00A2190FBF1F201FB12003030ED
:10406000C0B28DF80900C748008890FBF1F090FBC2
:10407000F1F201FB12003030C0B28DF80A00C148E5
:10408000008890FBF1F201FB12003030C0B28DF8D5
:104090000B00BC48807890FBF1F03030C0B28DF856
:1040A0000D00B848807890FBF1F201FB120030302F
:1040B000C0B28DF80E00B348C07890FBF1F03030FC
:1040C000C0B28DF81000AF48C07890FBF1F201FB50
:1040D00012003030C0B28DF81100AA48C0793030DB
:1040E000C0B28DF81D00A748007990FBF1F0303088
:1040F000C0B28DF81300A348007990FBF1F201FBE8
:1041000012003030C0B28DF814009E48407990FB08
:10411000F1F03030C0B28DF816009A48407990FB2B
:10412000F1F201FB12003030C0B28DF81700954853
:10413000807990FBF1F03030C0B28DF819009148D1
:10414000807990FBF1F201FB12003030C0B28DF8A3
:104150001A0002A90098FCF700FDB9F1140F11DA5A
:1041600009F1010000F0FF090AF07AF905440AF0AC
:10417000BDF9304486B20AF0CFF907440AF02EFAAE
:1041800004444DE140F60301584603F071FC0090F1
:10419000142095FBF0F50522002108A80AF03AFA50
:1041A000002D13DA2D208DF820000A2095FBF0F069
:1041B0003030C0B28DF821000A2095FBF0F100FBF1
:1041C00011503030C0B28DF822002EE0642D12DA8A
:1041D000002D10DB0A2095FBF0F03030C0B28DF8D6
:1041E00020000A2095FBF0F100FB11503030C0B2E6
:1041F0008DF8210019E0642095FBF0F03030C0B25A
:104200008DF820000A2095FBF0F00A2190FBF1F0D8
:104210003030C0B28DF821000A2095FBF0F100FB90
:1042200011503030C0B28DF8220008A90098FCF778
:1042300094FC40F60C01584603F01AFC0090142040
:1042400096FBF0F086B20522002108A80AF0E2F9F8
:10425000642E10DA0A2096FBF0F03030C0B28DF8F0
:1042600020000A2096FBF0F100FB11603030C0B254
:104270008DF8210019E0642096FBF0F03030C0B2D8
:104280008DF820000A2096FBF0F00A2190FBF1F057
:104290003030C0B28DF821000A2096FBF0F100FB0F
:1042A00011603030C0B28DF8220008A90098FCF7E8
:1042B00054FC40F60501584603F0DAFB0090142048
:1042C000B7FBF0F70522002108A80AF0A3F9642F34
:1042D0000FD20A20B7FBF0F03030C0B28DF82000CA
:1042E0000A20B7FBF0F100FB117030308DF821008F
:1042F00018E06420B7FBF0F03030C0B28DF8200039
:104300000A20B7FBF0F00A21B0FBF1F03030C0B268
:104310008DF821000A20B7FBF0F100FB117030305E
:104320008DF8220008A90098FCF717FC40F6070159
:10433000584603F09DFB00901420B4FBF0F40522D6
:10434000002108A80AF066F9642C1DD20A20B4FBEB
:10435000F0F03030C0B28DF820000A20B4FBF0F14C
:1043600000FB114030308DF821004FE0323030300A
:104370002D30312D30312030383A30303A30302045
:1043800057370000B2000020B4F57A7F19D26420BC
:10439000B4FBF0F03030C0B28DF820000A20B4FB3E
:1043A000F0F00A21B0FBF1F03030C0B28DF82100FE
:1043B0000A20B4FBF0F100FB114030308DF82200F0
:1043C00024E04FF47A70B4FBF0F03030C0B28DF8D6
:1043D00020006420B4FBF0F00A21B0FBF1F201FBF5
:1043E000120030308DF821000A20B4FBF0F0B0FB51
:1043F000F1F201FB120030308DF822000A20B4FBEC
:10440000F0F100FB114030308DF8240008A900982D
:10441000FCF7A3FB4FF0000900250026002700242D
:1044200000BFC6E500B587B00121084601F00EFBCC
:104430000121102001F02AFB072209214948FCF73D
:104440006DFD07220A214748FCF768FD00208DF822
:104450001A0001208DF81B0002208DF818000002C0
:10446000059002208DF8190005A93E48FCF70EFDC5
:1044700002208DF818004002059005A93948FCF784
:1044800005FD4FF4E13001900020ADF80800ADF8D3
:104490000A00ADF80C00ADF810000C20ADF80E00CD
:1044A00001A9314802F0BCFC012240F225512E48FE
:1044B00002F091FC01212C4802F057FC40212A48CF
:1044C00002F04AFC0121042001F0C0FA0121202061
:1044D00001F0DCFA082206212448FCF71FFD08221F
:1044E00007212248FCF71AFD00208DF81A00012050
:1044F0008DF81B0002208DF8180040200590022046
:104500008DF8190005A91948FCF7C0FC02208DF8A8
:1045100018008020059005A91448FCF7B7FC4FF45B
:10452000E13001900020ADF80800ADF80A00ADF8C8
:104530000C00ADF810000C20ADF80E0001A90C48DD
:1045400002F06EFC012240F22551094802F043FCC2
:104550000121074802F009FC4021054802F0FCFB5C
:1045600007B000BD000002400010014000080240FA
:104570000014014010B5112002F036F8782008F040
:1045800063FF362002F030F8002002F03DF83A20B8
:1045900002F02AF8552002F037F8B22002F024F891
:1045A0000C2002F031F80C2002F02EF8002002F06E
:1045B0002BF8332002F028F8332002F025F8B7203A
:1045C00002F012F8352002F01FF8BB2002F00CF8C0
:1045D0002B2002F019F8C32002F006F8172002F091
:1045E00013F8C42002F000F8202002F00DF8C620D5
:1045F00001F0FAFF052002F007F8D02001F0F4FFE7
:10460000A42002F001F8A22001F0FEFF01F090FFCB
:10461000132001F0E9FF202001F0E6FF01F0E6FDA4
:1046200004480388044802880021084601F050FF2E
:1046300010BD0000AC000020AA00002010B5002032
:1046400001F01AFC00F0010008B1012010BD0020AB
:10465000FCE710B5002001F00FFC00F0020008B1EB
:10466000012010BD0020FCE710B500F055F820B186
:1046700000F05DF808B1012010BD0020FCE710B586
:1046800000F034F820B100F03CF808B1012010BD72
:104690000020FCE710B5002001F0EEFB00F0040064
:1046A00008B1012010BD0020FCE710B5002001F08A
:1046B000E3FB00F0080008B1012010BD0020FCE77A
:1046C00010B5002001F0D8FB00F0100008B1012067
:1046D00010BD0020FCE710B5002001F0CDFB00F07C
:1046E000200008B1012010BD0020FCE710B500201B
:1046F00001F0C2FB00F0400008B1012010BD002015
:10470000FCE710B5002001F0B7FB00F0800008B115
:10471000012010BD0020FCE710B5002001F0ACFB2B
:1047200000F4807008B1012010BD0020FCE710B536
:10473000002001F0A1FB00F4007008B1012010BDC1
:104740000020FCE702490A68086010467047000034
:104750002004002010B50446204601F0F9FC10BDED
:104760000449054A0968497C52F821100969096819
:10477000084700000C020020240200201CB5012183
:10478000022001F063F903208DF8050001208DF867
:10479000040000208DF8060001208DF8070040F687
:1047A000FF70009069460C48FCF770FB4FF4807175
:1047B0000948FCF7E5FB4FF400710748FCF7E0FB04
:1047C0004FF480610448FCF7DBFB4FF400610248C2
:1047D000FCF7D6FB1CBD0000000402402DE9F04FA1
:1047E00005468DB07B48DDF860901A9C00681E4637
:1047F00017464FF0000A78B11B9B199ACDF8089024
:104800000593CDE90324DDE91623CDE900230468EF
:1048100033463A46284680E0DDE9160201EB0608F9
:1048200005EB070C1043A8F10108ACF1010C0128BD
:1048300006D0C9F108000590002002910990C6E059
:1048400065480268B2F90A30581A002806DD361A9F
:10485000002E63DD1946199B00FB0344B2F90E00DC
:10486000A8EB0000002802DD361A002E56DDB2F952
:104870000C00ACEB0000002800DD3F1AB2F9083054
:104880000020AB4235DD581B3F1A4B46B9F1080FEB
:1048900026D006DC012B0BD0022B11D0042B28D103
:1048A00016E0102B1ED0182B1FD0202B21D11CE07E
:1048B00020F0070304EBE0041D4400F0070018E0BB
:1048C00020F0030304EBA0041D4400F0030010E0FB
:1048D00020F0010304EB60041D4400F0010008E037
:1048E000044404E004EB400401E004EB80040544CC
:1048F0000020002F12DD1B9BDDF864C0CDE904030E
:10490000CDE90069CDE902C4527C34483B4650F8F9
:104910002200C26854680A462946A0470DB0BDE887
:10492000F08F1799029808440C902B49401E009074
:104930000A68B2F90A30834241DCB2F90E100298DB
:1049400081423CDB4FF0000BD84603950A9434E0DB
:10495000BBF1000F05D10A984FF0080B10F801AB1E
:104960000A900599ABEB090B3AFA01F00AFA09F142
:1049700001F0FF0A04D118490968097C890716D497
:1049800015490968C96B0A680B921B9A0AB152F85B
:104990002000086016990398009B4218521E029945
:1049A00000F0D2F80C490B980968C96B08600399AC
:1049B000169808F1010808440390B845C8DB099827
:1049C000401C09900C980290199804440998B04230
:1049D000A7DBA3E7480200200C02002024020020ED
:1049E000F0B40C4612490968B1F90A30A3421CDC44
:1049F000B1F90E30A34218DBB1F90830834200DD73
:104A00001846B1F90C30934200DA1A4682420CDBA8
:104A10004B7C084951F8235013462246E9688E68BA
:104A200001462846B446F0BC6047F0BC7047000021
:104A30000C020020240200200A46174930B40968FD
:104A4000B1F90A30934225DCB1F90E30934221DBF3
:104A5000B1F9083083421DDCB1F90C30834219DB17
:104A60000B7C0E4CDB0709D0497C54F82130D96807
:104A7000CC690146A44630BC18466047CB6B497CE4
:104A80001B6854F82140E1688D6901462046AC4618
:104A900030BC604730BC70470C020020240200206C
:104AA000124B30B41B68B3F9084084421CDCB3F9E4
:104AB0000C40844218DBB3F90A408C4200DD2146E9
:104AC000B3F90E40944200DA22468A420CDB5C7C49
:104AD000074B53F82440E368DD6813460A46014655
:104AE0002046AC4630BC604730BC70470C0200200A
:104AF000240200202DE9F04104460D4616461F46CB
:104B00003B4632462946204601F075FBBDE8F08160
:104B10002DE9F04104460D4616461F463B463246F7
:104B20002946204601F086FBBDE8F0812DE9F041E1
:104B300004460D4616461F463B4632462946204649
:104B400001F099FBBDE8F08138B5134C2468B4F945
:104B50000850854200DD2846B4F90C50954200DA31
:104B60002A46824217DBB4F90A508D4200DD2946FD
:104B7000B4F90E509D4200DA2B468B420BDB0093BA
:104B8000647C064B53F82440E3681D6913460A46CB
:104B900001462046A84738BD0C0200202402002010
:104BA0002DE9F84304460D4616461F46DDF82080E1
:104BB0003B46324629462046CDF8008001F06EFB88
:104BC000BDE8F883082106F043BB000002480068F6
:104BD000806B0068704700000C02002002480068EB
:104BE000C06B0068704700000C020020014800887C
:104BF00070470000AA000020024809210068407C9C
:104C000006F026BB0C020020092106F021BB70B57E
:104C100000252C462046FCF7A5FE00B16D1C641C47
:104C2000022CF7DB284670BD02480068407C00F08B
:104C300003B800000C02002010B5FCF793FE00281A
:104C400005D0C168CA6ABDE810400221104710BDF6
:104C500070B504460D462946204601F03EFB064647
:104C6000304670BD032106F0F3BA032006F05CBBAA
:104C7000042106F0EDBA00000148008870470000EA
:104C8000AC000020024801210068407C06F0E0BA38
:104C90000C02002001480068704700005802002004
:104CA000012106F0D5BA012006F03EBB02480221E0
:104CB0000068407C06F0CCBA0C0200200148406835
:104CC0007047000058020020022106F0C1BA0220FD
:104CD00006F02ABBAFF300802DE9F041002809D08F
:104CE000876837B10D4E716819B10468B4F5807FDB
:104CF00002DD0020BDE8F0813068844200DD04461A
:104D0000002507E057F82500FFF72AFD716841F8F4
:104D100025006D1CA542F5DB7068EBE774030020ED
:104D20001CB50121042000F091FE4FF4805000904A
:104D300001208DF8040003208DF8050000208DF877
:104D400006008DF8070069460D48FCF79FF84FF400
:104D500080510B48FCF714F9012008F075FB4FF463
:104D600080510748FCF70AF90A2008F06DFB4FF460
:104D700080510348FCF704F9782008F065FB1CBD5E
:104D8000000802400449054A0968497C52F821108C
:104D900009694968084700000C020020240200202D
:104DA0007047704710B500F01F01074A074BC0F36A
:104DB0004514C0F3C4201B5D105C515C00EB032064
:104DC00000EB014010BD0000F40B0108140C0108B9
:104DD00010B50A4C606860B920688000FCF7F4FAEE
:104DE000606040B104F10801054808600846FEF71C
:104DF000DBFF002010BD012010BD00007403002067
:104E0000C1BA000810B5FFF7B9FCFFF789FF01F040
:104E10007BFA094908800846008847F28971884270
:104E200008D1022000F092F90020FFF793FC322015
:104E300000F038F910BD0000A80000202DE9F0476F
:104E4000FFF7E5FE07460024DFF860802AE02046F1
:104E5000FCF788FD28B3D8F8000090F8119044744E
:104E60002046FFF7AFFE082817DC1148114950F81B
:104E700024000069884210D02046FFF7C5FE064690
:104E8000002508E0E8B2FFF77DFF0246E9B22046C0
:104E900000F072F96D1CB542F4DBD8F8001081F80F
:104EA0001190641CBC42D2DBBDE8F0870C020020EC
:104EB000240200202C18010870B504460D46164641
:104EC00032462946204601F039FA70BD2DE9FF4FE0
:104ED00083B01646DDE910408B46C0684769426AD8
:104EE0007AB1012111A8904705000AD00698CDE9B2
:104EF000000433465A4603991198A84707B0BDE805
:104F0000F08F57480068407CFCF7F4FF8246082881
:104F100001DC012005E0BAF1100F01DC022000E005
:104F200004208046002596E04046B8F1010F05D0E8
:104F3000022871D0B8F1040F25D17CE0BAF1090F35
:104F400021D2DFE80AF08605213F3F59595959001F
:104F5000039815E001465A461198B847C5F1070174
:104F600088404FF67F722178EA40114001436D1C62
:104F7000217004EBE50425F00700054109F101006B
:104F80008146B042E6DD64E0039817E001465A46E8
:104F90001198B8470621A1EB450188406B004FF6F8
:104FA0003F722178DA40114001436D1C217004EBFF
:104FB000A50425F00300054109F101008146B04236
:104FC000E4DD46E0039813E001465A461198B847DD
:104FD0000421A1EB850188402178AB000F229A4083
:104FE0001140014321702C4485F0010509F10100B5
:104FF0008146B042E8DD2CE0DDF80C9007E0014688
:105000005A461198B847207009F1010944444846AE
:10501000B145F4DD1DE0FFE7DDF80C9007E0014647
:105020005A461198B847208009F10109444448467E
:10503000B145F4DD0DE0DDF80C9007E001465A467D
:105040001198B847206009F1010944444846B14528
:10505000F4DD0BF1010B06998B457FF765AF4DE74A
:105060000C02002010B50D4C0D492068407C51F811
:10507000200048B1C16811B10968042901D0006855
:10508000F7E708B1FCF754FC20680021016600F145
:1050900008014161BDE8104000F038B80C02002062
:1050A0002402002010B5044602480470204600F097
:1050B00079F810BDAE000020014909684968084729
:1050C00070030020044909680A7C520701D5C96BA6
:1050D00000E0896B086070470C0200207CB5094C29
:1050E00005462068417C084850F82100C1680A6BD9
:1050F0006946904720686A4629460830FEF755FD04
:105100007CBD00000C02002024020020044801683D
:1051100004484A7C083150F82200C268126B1047DC
:105120000C02002024020020014909680968084790
:1051300070030020044909680A7C520701D5896B75
:1051400000E0C96B086070470C02002010B50446EF
:1051500002480470204601F07FF910BDAF00002026
:10516000014AC2E90001704758020020014909685C
:105170008968084770030020F8B515460E460124DB
:10518000FCF7F0FB009058B1C0681021426A6846F5
:105190009047030004D02A463146009898470024DF
:1051A0002046F8BD1CB504464FF4FA60032382067E
:1051B0000421CDE90004024808F0B4FE1CBD000043
:1051C00000000240F8B515460E460124FCF7CAFB64
:1051D000009058B1C0680B21426A684690470300AE
:1051E00004D02A4631460098984700242046F8BD4E
:1051F000F8B515460E460124FCF7B4FB009058B1F3
:10520000C0680A21426A68469047030004D02A46D3
:1052100031460098984700242046F8BD10B5074C49
:105220002068006BFFF79CFAFFF784FF2068406B53
:10523000FFF796FABDE81040FFF744BF0C020020CC
:1052400070B500231A460D490D48FCF70DFBFFF71A
:10525000CDFC0446FFF710FD0546224629460020F6
:10526000FFF7B0FFFFF7C2FC0446FFF705FD054658
:10527000224629460020FFF7BBFF70BD50040108FD
:10528000A802010810B503461446042916D006DC0E
:1052900001290BD002290BD0032915D10AE00529D9
:1052A0000ED006290ED00E290ED105E0002010BD2B
:1052B0000020FCE70020FAE70020F8E70020F6E7EE
:1052C0000020F4E70020F2E74FF0FF3200BF00BFFC
:1052D0001046ECE72DE9FF4F8DB01746674ADDF821
:1052E00070901E9E209812681D4600248AB11D9B56
:1052F0001F98CDE90293CDE90460DDE91A03CDE9F9
:10530000000314682B463A460D98A04711B0BDE83B
:10531000F08F0D9A01EB050802EB070CDDE91A236B
:105320001A43A8F10108ACF1010C012A06D0C9F119
:1053300008004FF0000B029105909CE0504A126863
:10534000B2F90A40631A002B06DDED1A002DDDDDEF
:1053500021461D9C03FB0466B2F90E30A8EB030343
:10536000002B02DDED1A002DD0DDB2F90C30ACEBD4
:105370000303002B00DDFF1A0D9B1C1AB2F9083045
:10538000A3420DDDA3EB040C0CEB0003181A20F074
:1053900007000444A7EB0C0706EBE30603F0070045
:1053A000002FB3DDDDF874C01F9BCDE902C6CDE947
:1053B0000403CDE90059527C32483B4650F82200A4
:1053C000C26855680A462146A8479FE71B9902987C
:1053D00008440C902A49401E00900A68B2F90A302D
:1053E000834242DCB2F90E10029881423DDB4FF05D
:1053F000000A0D980A96D046039034E0BAF1000FE7
:1054000005D10A984FF0080A10F8014B0A90059947
:10541000AAEB090A34FA01F004FA09F4E4B204D15F
:1054200017490968097C890717D415490968C96BA8
:105430000A680B921F9A0AB152F82000086003997B
:105440001A98009B0A18DDE90210521EFFF77CFB38
:105450000B490B980968C96B086003991A9808F101
:10546000010808440390B845C8DB0C9802901D98C9
:105470000BF1010B0644AB45A8DB47E748020020CF
:105480000C02002024020020002818D0410817D068
:10549000810817D0C10817D0010917D0410917D0CA
:1054A000010A17D0410A17D0010B15D0C10B13D038
:1054B000010C11D0810C11D0000E11D020207047AA
:1054C0000120704702207047032070470420704776
:1054D0000520704708207047102070471220704741
:1054E0001820704700B50022FFF7CEFF012804D036
:1054F000811E062903D808220BE0012209E0A0F151
:105500000901072901D8102203E011380F2800D81B
:105510002022104600BD000070B5002100230F229C
:10552000C4781CB3174C246804F4E064C4F5E06448
:10553000C4F30721C1F10404E3B20A4144789C405A
:10554000E1B28478144021430C07210E0E4C0578FB
:105550006155047804F01F050124AC4005786D11F5
:10556000AD0005F1E025C5F8004109E0047804F03C
:105570001F050124AC40054D0678761145F82640FC
:1055800070BD00000CED00E000E400E080E100E010
:1055900002490143024A1160704700000000FA0509
:1055A0000CED00E038B5446805460146204601F0A0
:1055B00091FD002811D028680B280FD00F2817D193
:1055C0002046FBF78FFF0090406E05686846FBF7AA
:1055D000E5FF002D01D02046A84738BD2046FBF747
:1055E00081FF00903830FBF7E1FE6846FBF7D6FFFD
:1055F0002846BDE8384002F0F3B8F0B585B0B0F900
:105600000850468A84690296CDE903540027CDE903
:105610000017B0F90C10B0F91050B0F90E40B0F905
:105620000A00194410442B46224600F003F805B046
:10563000F0BD00002DE9FF5F9846DDE90E5691466A
:105640008A468346109F129CFCF784FD254840340F
:10565000CDE90204CDE9005643464A465146584634
:1056600002F006F8050037D00520FBF756FE0400CF
:1056700032D02846FBF736FF00220090119901F046
:10568000ADFE1949284601F0D2FD184E00981822A7
:1056900031684166311D4C30FAF7DCFD009802217B
:1056A000A0F84010642181640021416480F8687092
:1056B00084632046FBF716FF014601900022009804
:1056C00006F056FE01A8FBF769FF6846FBF766FF88
:1056D0003068416828468847FDF716FD04B0284623
:1056E000BDE8F09FA55500081018010884020020AD
:1056F00070B50446006A6268052A22D01C490B2A4C
:1057000002D0122A31D121E00868006AFDF763FA5D
:10571000D4E90410A269FCF70BFBD4E90620216947
:10572000FCF706FBD4E90401E269491C521EFCF7B0
:105730006BFBD4E90510E269491C521EFCF764FBBF
:1057400013E00168204603F09DFD0EE0026862B997
:1057500085680868406AFDF73EFA0220FDF7B4FA52
:10576000D4E904122846FCF7C7F9002070BD0000F8
:105770000C18010870B588B00C46050041D0FCF744
:10578000E9FC2846FBF7AEFE0090816B0191C06CEE
:10579000FDF73EFA0646009800F0E8F8024602904F
:1057A00003A9009800F0E5F802A8FBF7F7FE54B350
:1057B0006846FBF7F3FE214601A8FEF7FDFAD8B1D3
:1057C0002846FBF78FFE00900199816390F86810DE
:1057D000224641F0020180F8681005A900F0C9F8DE
:1057E0006846FBF7DBFE03A905AA0846FDF70DF99D
:1057F00003A9284602F036FA3046FDF709FAFDF70C
:1058000083FC08B070BD009810F8681F21F00201F9
:10581000017003A9284602F025FA6846FBF7BEFE90
:10582000EAE7F0B587B00C4607007ED0FCF792FCA3
:105830003846FBF757FE0090416CA14200DD0C4654
:10584000816CA14200DA0C46416BA1426ED090F807
:10585000681040F6FF76C907416B4FF0000519D07C
:10586000A14207DD214600F0C3F8ADF80E00009814
:10587000416B05E000F0BCF8ADF80E002146009841
:1058800000F0B6F8ADF80A00ADF80850ADF80C60BD
:1058900000985FE0A14207DD214600F0A9F8ADF8CD
:1058A00008000098416B05E000F0A2F8ADF8080090
:1058B0002146009800F09CF8ADF80C000098ADF877
:1058C0000A50ADF80E6090F86810890742D404952C
:1058D0000595806BFBF7F0FD05280EDA0098856BC7
:1058E0006846FBF75BFE05212846FBF709FE0546E7
:1058F0003846FBF7F7FD00908563009800F036F816
:10590000019030B30098C06CFDF782F90546DDE9DF
:10591000000204A900F02DF802A904AA0846FDF728
:1059200074F8DDE90001224601E01DE017E006F011
:105930001FFDDDE9000204A900F01BF802A904AA7A
:105940000846FDF762F82846FDF762F901A8FBF763
:1059500025FE00E0446302A9384602F083F9684658
:10596000FBF71CFEFDF7D0FB07B0F0BD806BFBF72B
:10597000B9BD2DE9F04105460C46B0F90400B5F972
:105980000010471AB5F90600B5F902107F1C401A3D
:1059900000F101081046FCF71AFB0646FCF700FB75
:1059A000E96A95F84020096802F00302012A06D04E
:1059B000022A07D1B91B01EBD171491002E0BA1BD1
:1059C000511A491E2180A8EB000101EBD171491049
:1059D00061802288AB8F761E1A442280EB8F32447E
:1059E00019446180401EA2800844E080BDE8F08137
:1059F00070B590F8682012F00104C26A136804D0F0
:105A0000B0F90620B0F9025003E0B0F90420B0F973
:105A10000050551BD0E911206D1C914200DA11464F
:105A2000814200DD01465E4205EB46050CB1411A9C
:105A300000E0891A4D43801A95FBF0F0184470BDC0
:105A4000014908627047000000000E4229B1064A71
:105A500012680243044B1A6004E0034A126882434E
:105A6000014B1A60704700003038024029B1064AE5
:105A700012680243044B1A6004E0034A126882432E
:105A8000014B1A60704700004038024029B1064AB5
:105A900012680243044B1A6004E0034A126882430E
:105AA000014B1A6070470000443802400348006808
:105AB00040F080700149086070470000743802406F
:105AC000F0B5002100220024022500260223324FD7
:105AD0003F6807F00C0121B1042905D0082937D10E
