:020000040800F2
:10000000C09A002031020008390200083B020008B3
:100010003D0200083F020008410200080000000005
:10002000000000000000000000000000990100082E
:100030004502000800000000DD0100080D2E000848
:100040004B0200084B0200084B0200084B0200085C
:100050004B0200084B0200084B020008D1140008B4
:100060004B020008E91400084B0200084B0200088C
:100070004B0200084B0200084B0200084B0200082C
:100080004B0200084B0200084B0200084B0200081C
:100090004B0200084B0200084B0200080D15000837
:1000A0004B0200084B0200084B0200084B020008FC
:1000B0004B0200084B0200084B0200084B020008EC
:1000C0004B0200084B0200084B0200084B020008DC
:1000D0004B020008853200084B0200084B02000862
:1000E000711400084B0200084B0200084B02000884
:1000F0004B0200084B0200084B0200084B020008AC
:100100004B0200084B0200084B0200084B0200089B
:100110004B0200084B0200084B0200084B0200088B
:100120004B0200084B0200084B0200084B0200087B
:100130004B0200084B0200084B0200084B0200086B
:100140004B0200084B0200084B0200084B0200085B
:100150004B0200084B0200084B02000895320008D1
:100160004B0200084B0200084B0200084B0200083B
:100170004B0200084B0200084B0200084B0200082B
:100180004B020008DFF80CD000F0E4F8004800470C
:1001900071780008C09A0020224B19680868B0E8FE
:1001A000F00F80F30988BFF36F8F4FF0000080F3EA
:1001B00011884EF00D0E70470000000006480068E0
:1001C000006880F3088862B661B6BFF34F8FBFF353
:1001D0006F8F00DF00BF00BF08ED00E0EFF3098084
:1001E000BFF36F8F0F4B1A6820E9F00F106008B54E
:1001F0004FF0100080F31188BFF34F8FBFF36F8F64
:1002000009F0BAF84FF0000080F31188BDE808400B
:1002100019680868B0E8F00F80F30988BFF36F8FA2
:10022000704700BF24000020EFF3058070470000F6
:100230000648804706480047FEE7FEE7FEE7FEE780
:10024000FEE7FEE7FEE7FEE7FEE7FEE7412E0008D9
:100250008501000810B5431A934209D28318881803
:1002600003E010F8011D03F8011D521EF9D210BD64
:1002700040EA01039B0703D009E008C9121F08C028
:10028000042AFAD203E011F8013B00F8013B521EA8
:10029000F9D210BDD2B201E000F8012B491EFBD209
:1002A00070470022F6E710B513460A460446194681
:1002B000FFF7F0FF204610BD421C10F8011B00297B
:1002C000FBD1801A704730B504460020034600E099
:1002D0005B1C934203D2E05CCD5C401BF8D030BD88
:1002E000034611F8012B00F8012B002AF9D118461A
:1002F00070472DE9F05F0546002092469B468846F0
:100300000646814640241BE0284641464746224691
:1003100000F041F853465A46C01A914110D3114695
:100320001846224600F028F82D1A67EB01084F46C0
:1003300022460120002100F01FF817EB00094E4172
:10034000201EA4F10104DFDC484631462A4643461C
:10035000BDE8F09F064C074D06E0E06840F0010361
:1003600094E8070098471034AC42F6D3FFF70EFF2D
:100370003CA700085CA70008202A04DB203A00FA0A
:1003800002F1002070479140C2F1200320FA03F3EC
:10039000194390407047202A04DB203A21FA02F0EA
:1003A0000021704721FA02F3D040C2F120029140AF
:1003B00008431946704770B58C1810F8015B15F0AA
:1003C000070301D110F8013B2A1106D110F8012BC7
:1003D00003E010F8016B01F8016B5B1EF9D12B07EC
:1003E00005D40023521E0DD401F8013BFAE710F8A2
:1003F000013BCB1A921C03E013F8015B01F8015B8F
:10040000521EF9D5A142D8D3002070BD21B1826817
:1004100042F00102826003E0826822F00102826001
:10042000704700000021084A1168084A1140D0E9CD
:1004300000231A4383681A43C3681A431143044ACA
:10044000C2F804137047000004230140E030FCFFB1
:100450000020014021B1826842F48072826003E092
:10046000826822F480728260704721B1826842F40F
:100470000072826003E0826822F40072826070473A
:1004800030B50246002000235068104C20400D7902
:100490000C6844EA05242043506090680C4C2040CE
:1004A000D1E903542C438D682C434D7944EA45042B
:1004B00020439060D06A20F470000C7D641EE4B28A
:1004C000234340EA0350D06230BD0000FFFEFFFC32
:1004D000FDF7FFC0F0B504460D4600200021092DB0
:1004E00011DDE068A5F10A0606EB4607072606FAC5
:1004F00007F18843A5F10A0606EB460603FA06F162
:100500000843E0600CE0206905EB4507072606FA82
:1005100007F1884305EB450603FA06F1084320611D
:10052000072A0FDA606B561E06EB86071F2606FAAF
:1005300007F18843561E06EB860605FA06F10843C6
:10054000606322E00D2A0FDA206BD61F06EB8607C8
:100550001F2606FA07F18843D61F06EB860605FA22
:1005600006F10843206310E0E06AA2F10D0606EBF5
:1005700086071F2606FA07F18843A2F10D0606EB4F
:10058000860605FA06F10843E062F0BD816841F095
:10059000804181607047000038B10849096841F422
:1005A0000001074AC2F8041306E00449096821F46F
:1005B0000001034AC2F804137047000004230140FD
:1005C0000020014010B5012009F058F901490860E8
:1005D00010BD0000A80000201CB50020012103462A
:1005E0008A02CDE9001018A11A4809F0D7FA1A4872
:1005F000022100230A02CDE9001018A11B4809F0CE
:10060000CDFA1B48052100234FF40072CDE90010FC
:1006100018A11B4809F0C2FA1A48052100234FF41B
:100620000072CDE9001018A11B4809F0B7FA0020AC
:10063000052103464FF48062CDE9001017A11A4846
:1006400009F0ACFA1CBD0000765461736B47554944
:1006500000000000C18F00089800002076546173EC
:100660006B557365724B65794946000045940008E7
:10067000A0000020765461736B53746172740000A3
:1006800091920008A4000020765461736B4164636A
:1006900050726F6300000000358F0008765461735C
:1006A0006B5465737400000069970008F0B5054647
:1006B0000E460024AF1905E015F8011BA0B202F0A8
:1006C000D1FF0446BD42F7D3A0B2002102F0CAFF19
:1006D00004462046002102F0C5FF04462046F0BD36
:1006E000014609B90B487047012901D10020FAE7FA
:1006F000022901D10020F6E7032901D10020F2E709
:10070000042901D10020EEE7052901D10248EAE7DA
:100710000020E8E720750020487D002008B525204E
:100720008DF8000000208DF8020001208DF80300F4
:10073000684601F037FB47208DF8000005208DF852
:10074000020001208DF80300684601F02BFB08BD74
:1007500010B5ADF5825D002103A801F0F5FA29A0DE
:1007600005F0F0FB04461CB928A003F011FA11E0D3
:10077000082C06D12A4850F824102AA003F008FAC1
:1007800008E0274850F824102CA003F001FA0DF5DA
:10079000825D10BD30A005F0D5FB04461CB930A029
:1007A00003F0F6F90FE0082C06D11D4850F824108C
:1007B00030A003F0EDF906E0194850F8241033A0FA
:1007C00003F0E6F9E3E738A005F0BCFB04461CB9EA
:1007D00039A003F0DDF90FE0082C06D1104850F8DD
:1007E00024103BA003F0D4F906E00D4850F8241083
:1007F0003EA003F0CDF9CAE70021084601F0A4FAB3
:1008000000BFC4E72F44697231000000665F6D6B62
:100810006469722044697231204F6B0D0A00000038
:10082000B00000204469723120C4BFC2BCD2D1BE26
:10083000ADB4E6D4DA282573290D0A00665F6D6B26
:10084000646972204469723120CAA7B0DC2028256F
:1008500073290D0A000000002F4469723200000065
:10086000665F6D6B6469722044697232204F6B0D54
:100870000A0000004469723220C4BFC2BCD2D1BE9B
:10088000ADB4E6D4DA282573290D0A00665F6D6BD6
:10089000646972204469723220CAA7B0DC2028251E
:1008A00073290D0A000000002F446972312F44693A
:1008B00072315F3100000000665F6D6B6469722009
:1008C000446972315F3120B3C9B9A60D0A00000036
:1008D000446972315F3120C4BFC2BCD2D1BEADB455
:1008E000E6D4DA20282573290D0A0000665F6D6BB7
:1008F00064697220446972315F3120CAA7B0DC207C
:10090000282573290D0A000010B5ADF5035D0021FF
:1009100041F28C00684401F017FA16A110A805F006
:10092000EDFF044644B1144850F8241013A003F01E
:100930002FF90DF5035D10BD0A2216A119A805F0C7
:1009400027FF04460FAB222215A119A806F0F0F9E3
:1009500004461CB91CA003F01BF902E021A003F01F
:1009600017F919A805F05CFA0021084601F0ECF926
:1009700000BFDEE7303A2F00B0000020B4F2BFAA7B
:10098000B8F9C4BFC2BCCAA7B0DC20282573290DA2
:100990000A00000061726D666C792E747874000034
:1009A00046617446532057726974652044656D6FC3
:1009B000200D0A207777772E61726D666C792E6331
:1009C0006F6D200D0A00000061726D666C792E74E7
:1009D000787420CEC4BCFED0B4C8EBB3C9B9A60DA0
:1009E0000A00000061726D666C792E74787420CEF6
:1009F000C4BCFED0B4C8EBCAA7B0DC0D0A0000002E
:100A000021B1026842F00102026003E0026822F0B4
:100A1000010202607047000010B500220268134B0B
:100A20001A40CC680B6823434C6923438C692343E9
:100A3000CC6923430C6A23434C6A23438C6A2343C7
:100A40004C6B23438C6B23431A430260426922F0B0
:100A50000702D1E90B3423431A4342610B69436017
:100A60004B6883608B68C36010BD00003F801CF042
:100A700070B5ADF5845D002113A801F065F94CA0B7
:100A800006F0F2F804461CB94BA003F081F80CE024
:100A9000042C04D146A14DA003F07AF805E0524899
:100AA00050F8241051A003F073F85DA006F0DCF8B4
:100AB00004461CB95EA003F06BF80EE0042C01D0D4
:100AC000052C04D156A141A003F062F805E0464888
:100AD00050F824105EA003F05BF835A006F0C4F8CF
:100AE00004461CB934A003F053F80CE0042C04D1E4
:100AF0002FA136A003F04CF805E03B4850F8241035
:100B00003AA003F045F862A006F0AEF804461CB91E
:100B100061A003F03DF80CE0042C04D15CA12BA0F3
:100B200003F036F805E0304850F8241060A003F0D8
:100B30002FF86CA006F098F804461CB96CA003F0DE
:100B400027F80CE0042C04D166A120A003F020F8C3
:100B500005E0254850F824106CA003F019F8002592
:100B60001CE02A4677A10FA803F022F80FA806F090
:100B70007BF8044624B90FA976A003F009F80BE02E
:100B8000042C04D10FA978A003F002F804E0224657
:100B90000FA97AA002F0FCFF681CC5B2142DE0DB9F
:100BA0000021084601F0D0F80DF5845D70BD00000D
:100BB0002F44697231000000C9BEB3FDC4BFC2BC7E
:100BC00044697231B3C9B9A60D0A0000C3BBD3D0C2
:100BD000B7A2CFD6CEC4BCFEBBF2C4BFC2BC203AC3
:100BE00025730D0A00000000B0000020C9BEB3FD4F
:100BF00044697231CAA7B0DC28B4EDCEF3B4FAC2AE
:100C0000EB203D2025732920CEC4BCFED6BBB6C147
:100C1000BBF2C4BFC2BCB7C7BFD50D0A00000000FD
:100C20002F446972312F446972315F310000000036
:100C3000C9BEB3FDD7D3C4BFC2BC2F446972312F24
:100C4000446972315F31B3C9B9A60D0A00000000D2
:100C5000C9BEB3FDD7D3C4BFC2BC2F446972312F04
:100C6000446972315F31CAA7B0DC28B4EDCEF3B469
:100C7000FAC2EB203D2025732920CEC4BCFED6BB92
:100C8000B6C1BBF2C4BFC2BCB7C7BFD50D0A000016
:100C90002F44697232000000C9BEB3FDC4BFC2BC9C
:100CA000204469723220B3C9B9A60D0A00000000C1
:100CB000C9BEB3FD4469723220CAA7B0DC28B4EDC6
:100CC000CEF3B4FAC2EB203D2025732920CEC4BC5C
:100CD000FED6BBB6C1BBF2C4BFC2BCB7C7BFD50D41
:100CE0000A00000061726D666C792E7478740000E1
:100CF000C9BEB3FDCEC4BCFE2061726D666C792E98
:100D000074787420B3C9B9A60D0A0000C9BEB3FD3A
:100D100061726D666C792E747874CAA7B0DC28B4E1
:100D2000EDCEF3B4FAC2EB203D2025732920CEC4CA
:100D3000BCFED6BBB6C1BBF2C4BFC2BCB7C7BFD531
:100D40000D0A00005370656564253032642E747896
:100D500074000000C9BEB3FDCEC4BCFE2573B3C988
:100D6000B9A60D0A00000000C3BBD3D0B7A2CFD6EE
:100D7000CEC4BCFE3A25730D0A000000C9BEB3FD07
:100D80002573CEC4BCFECAA7B0DC28B4EDCEF3B444
:100D9000FAC2EB203D2025642920CEC4BCFED6BB80
:100DA000B6C1BBF2C4BFC2BCB7C7BFD50D0A0000F5
:100DB00008B500F0E3F85EE003F046FB642008F0BD
:100DC000D1F86946002004F0CFFA002853D02AA0B9
:100DD00002F0DEFE9DF8000030380A2847D2DFE836
:100DE00000F0050B111C22282E343A4023A002F0FB
:100DF000CFFE00F00FFC3DE026A002F0C9FE02F09D
:100E0000AFFC37E029A002F0C3FEFFF77DFD2DA067
:100E100002F0BEFE01F094FB2CE030A002F0B8FE20
:100E2000FFF796FC26E032A002F0B2FEFFF720FEAC
:100E300020E035A002F0ACFE02F02EFD1AE037A053
:100E400002F0A6FE00F0D2FC14E039A002F0A0FEF1
:100E500000F08AF90EE03CA002F09AFE02F04EFC8F
:100E600008E03FA002F094FE02F016FC02E000F061
:100E700085F800BF00BF9FE70D0A0000A1BE30202B
:100E80002D2046696C65466F726D6174A1BF0D0AB5
:100E900000000000A1BE31202D2056696577526FF9
:100EA0006F74446972A1BF0D0A000000A1BE322018
:100EB0002D204372656174654E657746696C65A146
:100EC000BF0D0A00A1BE32202D2052656164466923
:100ED0006C6544617461A1BF0D0A0000A1BE33209E
:100EE0002D20437265617465446972A1BF0D0A00CB
:100EF000A1BE34202D2044656C657465446972463A
:100F0000696C65A1BF0D0A00A1BE35202D20546576
:100F100073745370656564A1BF0D0A00A1BE3620CD
:100F20002D204469736B496E666FA1BF0D0A0000E6
:100F3000A1BE37202D20446F776E6C6F6164204610
:100F4000696C65A1BF0D0A00A1BE38202D20557027
:100F50006F61642046696C65A1BF0D0A0000000046
:100F6000A1BE39202D2055706461746520466972D8
:100F70006D77617265A1BF0D0A00000010B514A065
:100F800002F006FE20A002F003FE2AA002F000FEFE
:100F90002DA002F0FDFD35A002F0FAFD3BA002F00D
:100FA000F7FD44A002F0F4FD46A002F0F1FD4BA0D5
:100FB00002F0EEFD4FA002F0EBFD53A002F0E8FDC1
:100FC00059A002F0E5FD60A002F0E2FD10BD0000B6
:100FD0000D0A2D2D2D2D2D2D2D2D2D2D2D2D2D2D84
:100FE0002D2D2D2D2D2D2D2D2D2D2D2D2D2D2D2D31
:100FF0002D2D2D2D2D2D2D2D2D2D2D2D2D2D2D2D21
:101000002D2D0D0A00000000B5DAD2BBB4CECAB94E
:10101000D3C3C7EBD1A1D4F1C3FCC1EE30BDF8D02E
:10102000D053504920466C617368B8F1CABDBBAF5C
:101030000D0A0000C7EBD1A1D4F1B2D9D7F7C3FC98
:10104000C1EE3A0D0A00000030202D20B6D45350D6
:10105000495F466C617368BDF8D0D0CEC4BCFECF8A
:10106000B5CDB3B8F1CABDBBAF0D0A0031202D20FC
:10107000CFD4CABEB8F9C4BFC2BCCFC2B5C4CEC4F7
:10108000BCFEC1D0B1ED0D0A0000000032202D20C1
:10109000B4B4BDA861726D666C792E7478742CB28C
:1010A000A2B6C1B3F6CEC4BCFEB5C4C4DAC8DD0D69
:1010B0000A00000033202D20B4B4BDA8C4BFC2BCB8
:1010C0000D0A000034202D20C9BEB3FDCEC4BCFEE5
:1010D000BACDC4BFC2BC0D0A0000000035202D20CF
:1010E000B6C1D0B4CEC4BCFECBD9B6C8B2E2CAD465
:1010F0000D0A000036202D20BBF1C8A1B4C5C5CC17
:10110000D0C5CFA20D0A000037202D20CAB9D3C305
:10111000596D6F64656DD0ADD2E9CFC2D4D8CEC45D
:10112000BCFE0D0A0000000038202D20CAB9D3C330
:10113000596D6F64656DD0ADD2E9C9CFB4ABCEC483
:10114000BCFE0D0A0000000039202D20C9FDBCB6F0
:101150004669726D77617265B5BDD6B8B6A8B5C47B
:10116000B5D8D6B70D0A00002DE9F04FADF2B44D59
:1011700000240026A0460020CDF8B004002500275A
:101180008146824680210DF58660FFF78AF80020AF
:10119000CDF82C0483462022AD490DF20C40FFF718
:1011A00059F84FF4816101A8FFF77BF84FE1B8F1DE
:1011B000000F06D0B8F1010F7CD0B8F1040F78D140
:1011C000E1E04321504601F0D7FC4FF080720DF56D
:1011D0009661504601F038FA002868D19DF8B004B5
:1011E000012864D102060DF59661504601F02CFAF3
:1011F0009DF8B00418B10DF2B44DBDE8F08F4FF07A
:1012000080720DF59661504601F01EFA9DF8B0040B
:10121000FF2800D0EFE7002408E001A801194FF0F3
:101220008072504601F010FA601C84B2802CF4DB0E
:101230004FF080720DF59661504601F005FA4FF0BF
:1012400080720DF59661504601F0FEF90621504678
:1012500001F092FC4FF00108002405E000200DF59C
:1012600086610855601C84B2802CF7DB002406E000
:1012700001A8005D0DF586610855601C84B2802CC4
:1012800003DA01A8005D0028F2D101A92144481C1D
:101290000DF22C4101F038FD0DF586616DA0DDF8F1
:1012A0002C2402F075FC4321504601F065FCCCE093
:1012B00000E0C9E04FF080720DF59661504601F0F4
:1012C000C3F99DF8B00404280AD004DC01280ED02C
:1012D000022813D10DE041280ED061280ED10CE078
:1012E0004FF004080621504601F046FCAFE080278D
:1012F00005E04FF4806702E07DE77CE77BE700BF15
:101300004FF080720DF59661504601F09DF94FF057
:1013100080720DF59661504601F096F9002408E0C0
:1013200001A801194FF08072504601F08DF9601C40
:1013300084B2BC42F4DB4FF080720DF596615046EA
:1013400001F082F99DF8B0542D024FF080720DF536
:101350009661504601F078F99DF8B004054339468E
:1013600001A8FFF7A3F9A84201D0701CC6B22EB99C
:101370000621504601F000FCB94403E01521504617
:1013800001F0FAFB61E04321504601F0F5FB4FF01C
:1013900080720DF59661504601F056F99DF8B00443
:1013A000012850D102060DF59661504601F04CF926
:1013B0009DF8B00400B11EE74FF080720DF5966104
:1013C000504601F041F99DF8B004FF2800D012E723
:1013D000002408E001A801194FF08072504601F086
:1013E00033F9601C84B2802CF4DB4FF080720DF571
:1013F0009661504601F028F99DF8B0542D024FF047
:1014000080720DF59661504601F01EF99DF8B0040A
:101410000543802101A8FFF749F9A84201D0701CBB
:10142000C6B226B90621504601F0A6FBE3E6152117
:10143000504601F0A1FB9DF8040018B90621504662
:1014400001F09AFB01E000BFD5E600BF00BFAEE6A9
:10145000C4A3000846696C654E616D653A2573202A
:1014600046696C6553697A653A2564200D0A000067
:1014700010B54FF4006000F06FF840B113480068F9
:1014800020F4006011490860C81400F05FF84FF4C0
:10149000005000F061F840B10C48006820F40050A2
:1014A0000A490860481400F051F84FF4004000F079
:1014B00053F848B10548006820F40040034908602B
:1014C0004FF4004000F042F810BD0000003C014025
:1014D00010B5022000F040F820B103F0FDFC02201E
:1014E00000F034F810BD000010B5082000F034F80A
:1014F00040B10548006820F0080003490860082052
:1015000000F024F810BD0000003C014010B5802020
:1015100000F022F840B10C48006820F080000A4931
:101520000860802000F012F84FF4807000F014F88A
:1015300040B10548006820F48070034908608815B0
:1015400000F004F810BD0000003C014001490860B3
:1015500070470000143C0140014600200022074B68
:101560001B6803EA0102054B14331B680B4013B1DF
:101570000AB1012000E0002070470000003C01405B
:10158000002123498279002A3AD00A46126803686A
:101590009A430B461A600A1D126803689A430B1D92
:1015A0001A60027911440A6803681A430A60184AEB
:1015B0000832126803689A43154B08331A601A1DE3
:1015C000126803689A43124B0C331A604279102A4E
:1015D0000ED11A1F126803681A430D4B08331A60A4
:1015E0001A1D126803681A43094B0C331A600DE088
:1015F0000749427911440A6803681A430A6005E002
:10160000027911440A6803689A430A60704700002F
:10161000003C014010B5ADF5825D002103A800F04B
:1016200093FB002211460CA004F046FD044634B1A1
:101630000A4850F824100AA002F0AAFA05E0074868
:1016400050F824100BA002F0A3FA0021084600F085
:101650007BFB0DF5825D10BD303A0000B00000202C
:10166000B8F1CABDBBAFCAA7B0DC20282573290DCD
:101670000A000000B8F1CABDBBAFB3C9B9A62028A3
:101680002573290D0A0000002DE9F84306464FEAAC
:101690002628F5B27F2D09DAA8F18100C0EB4011B0
:1016A00001EB801005EB4000403884B2802D09DD4D
:1016B000A8F18100C0EB401101EB801005EB400068
:1016C000413884B24FF6FF7000EA44040448211800
:1016D0000222684606F0FEFF6F463888BDE8F883B0
:1016E00000F0FD01F0B50A4600210023002400BFF0
:1016F0003DE0012505FA01F3156805EA03049C4263
:1017000034D105684F000326BE40B5430560157906
:101710004E00B5400668354305601579012D02D0AD
:101720001579022D16D185684F000326BE40B543BA
:10173000856055794E00B5408668354385604568BB
:1017400001268E40B5434560456896798E40B6B215
:1017500035434560C5684F000326BE40B543C560AC
:10176000D5794E00B540C6683543C560491C10297F
:10177000BFD3F0BDF0B5002300244D07ED0E02FAF3
:1017800005F3CE1000F1200555F826504E07F70E50
:101790000F26BE40B543CF1000F1200646F8275073
:1017A000CE1000F1200555F8265045EA0304CE106E
:1017B00000F1200545F82640F0BD0146086980B2D9
:1017C00070470246002013690B400BB1012000E076
:1017D0000020704741837047018370474161704723
:1017E0000AB1018300E041837047000070B58CB0FE
:1017F00000210B9800F0A8FA0BAA0AA922A004F075
:101800001FFB04462CB1214850F8241020A002F000
:10181000BFF90B988069801E0B99897800FB01F64F
:101820000B9880780A9900FB01F50B98C06A0B9918
:10183000896A0B9A526A0B9B1B6ACDE90632CDE985
:1018400008100B98C16900690B9AD2680B9B5B89E1
:10185000CDE90232CDE904010B98C0880B99C97813
:10186000CDE900100B988378427801780E4802F099
:101870008FF96A0871080DA002F08AF90021084664
:1018800000F062FA0CB070BD303A0000B0000020E9
:10189000BBF1C8A1B4C5C5CCD0C5CFA2CAA7B0DC26
:1018A000282573290D0A0000E4A300082531306CB7
:1018B00075204B694220546F74616C2E0D0A2531DE
:1018C000306C75204B694220417661696C61626CB5
:1018D000652E0D0A0000000000B587B00121084602
:1018E00000F0ACFA0121102000F0C8FA072209210B
:1018F0004948FFF73FFF07220A214748FFF73AFF11
:1019000000208DF81A0001208DF81B0002208DF8B0
:1019100018000002059002208DF8190005A93E4824
:10192000FFF7E0FE02208DF818004002059005A99F
:101930003948FFF7D7FE4FF4E13001900020ADF8B1
:101940000800ADF80A00ADF80C00ADF810000C204E
:10195000ADF80E0001A9314801F008FD012240F266
:1019600025512E4801F0DDFC01212C4801F0A3FC9B
:1019700040212A4801F096FC0121042000F05EFA83
:101980000121202000F07AFA082206212448FFF7DE
:10199000F1FE082207212248FFF7ECFE00208DF817
:1019A0001A0001208DF81B0002208DF8180040203D
:1019B000059002208DF8190005A91948FFF792FE3D
:1019C00002208DF818008020059005A91448FFF723
:1019D00089FE4FF4E13001900020ADF80800ADF829
:1019E0000A00ADF80C00ADF810000C20ADF80E00A8
:1019F00001A90C4801F0BAFC012240F22551094826
:101A000001F08FFC0121074801F055FC40210548F9
:101A100001F048FC07B000BD00000240001001408A
:101A2000000802400014014010B5112001F064F8D4
:101A3000782002F09BFB362001F05EF8002001F0D8
:101A40006BF83A2001F058F8552001F065F8B22003
:101A500001F052F80C2001F05FF80C2001F05CF866
:101A6000002001F059F8332001F056F8332001F03E
:101A700053F8B72001F040F8352001F04DF8BB20B5
:101A800001F03AF82B2001F047F8C32001F034F8B8
:101A9000172001F041F8C42001F02EF8202001F0B9
:101AA0003BF8C62001F028F8052001F035F8D020D9
:101AB00001F022F8A42001F02FF8A22001F02CF868
:101AC00000F0BEFF132001F017F8202001F014F8F9
:101AD00000F0D0FE0448038804480288002108462C
:101AE00000F07EFF10BD0000060100200401002070
:101AF00010B5002000F0B8FB00F0010008B1012093
:101B000010BD0020FCE710B5002000F0ADFB00F098
:101B1000020008B1012010BD0020FCE710B500F064
:101B200055F820B100F05DF808B1012010BD00208B
:101B3000FCE710B500F034F820B100F03CF808B133
:101B4000012010BD0020FCE710B5002000F08CFB48
:101B500000F0040008B1012010BD0020FCE710B522
:101B6000002000F081FB00F0080008B1012010BD4A
:101B70000020FCE710B5002000F076FB00F010001C
:101B800008B1012010BD0020FCE710B5002000F0D6
:101B90006BFB00F0200008B1012010BD0020FCE725
:101BA00010B5002000F060FB00F0400008B10120FB
:101BB00010BD0020FCE710B5002000F055FB00F040
:101BC000800008B1012010BD0020FCE710B5002006
:101BD00000F04AFB00F4807008B1012010BD002025
:101BE000FCE710B5002000F03FFB00F4007008B1E6
:101BF000012010BD0020FCE710B50446204600F08F
:101C0000EBFD10BD1CB50121022000F017F90320E7
:101C10008DF8050001208DF8040000208DF80600E5
:101C200001208DF8070040F6FF70009069460C48CF
:101C3000FFF758FD4FF480710948FFF7CDFD4FF4D1
:101C400000710748FFF7C8FD4FF480610448FFF7B3
:101C5000C3FD4FF400610248FFF7BEFD1CBD00004C
:101C6000000402401CB50121042000F0E7F84FF405
:101C70008050009001208DF8040003208DF80500AD
:101C800000208DF806008DF8070069460D48FFF723
:101C900029FD4FF480510B48FFF79EFD012002F013
:101CA00065FA4FF480510748FFF794FD0A2002F0CF
:101CB0005DFA4FF480510348FFF78EFD782002F063
:101CC00055FA1CBD0008024010B5FFF79BFFFFF757
:101CD000C9FF00F0D5FD094908800846008847F291
:101CE0008971884208D1022000F014F80020FFF723
:101CF00083FF322000F004F810BD00000201002034
:101D000010B5044602480470204600F00DF810BDDE
:101D10000801002010B5044602480470204600F077
:101D200023FE10BD090100201CB504464FF4FA60E3
:101D3000032382060421CDE90004024802F0C6FF15
:101D40001CBD00000000024070B504460D462A4646
:101D500008A1204604F0EEFC064656B1064850F8AD
:101D600026200CB105A000E006A0014607A001F066
:101D70000FFF70BD303A0000B0000020B9D2D4D8B7
:101D800000000000D0B6D4D8000000002573CEC4F7
:101D9000BCFECFB5CDB3CAA7B0DC20282573290D72
:101DA0000A00000070B5002100230F22C4781CB384
:101DB000174C246804F4E064C4F5E064C4F307211C
:101DC000C1F10404E3B20A4144789C40E1B2847852
:101DD000144021430C07210E0E4C05786155047800
:101DE00004F01F050124AC4005786D11AD0005F12C
:101DF000E025C5F8004109E0047804F01F0501243E
:101E0000AC40054D0678761145F8264070BD0000BF
:101E10000CED00E000E400E080E100E00249014355
:101E2000024A1160704700000000FA050CED00E066
:101E3000014908627047000000000E4229B1064ABD
:101E400012680243044B1A6004E0034A126882439A
:101E5000014B1A60704700003038024029B1064A31
:101E600012680243044B1A6004E0034A126882437A
:101E7000014B1A60704700004038024029B1064A01
:101E800012680243044B1A6004E0034A126882435A
:101E9000014B1A6070470000443802400348006854
:101EA00040F08070014908607047000074380240BB
:101EB000F0B5002100220024022500260223324F23
:101EC0003F6807F00C0121B1042905D0082937D15A
:101ED00005E02E4F076036E02D4F076033E02A4FB4
:101EE0003F1F3F68C7F38056274F3F1F3F6807F0EB
:101EF0003F036EB1264FB7FBF3F7DFF88CC0ACF1B0
:101F0000040CDCF800C0CCF3881C07FB0CF40CE0DC
:101F10001E4FB7FBF3F7DFF870C0ACF1040CDCF830
:101F200000C0CCF3881C07FB0CF4174F3F1F3F6821
:101F3000C7F301477F1C7D00B4FBF5F7076002E0A3
:101F4000124F076000BF00BF0F4F3F6807F0F0015E
:101F50000909104F7A5C0768D74047600A4F3F680D
:101F600007F4E051890A0B4F7A5C4768D7408760D5
:101F7000054F3F6807F46041490B064F7A5C47689C
:101F8000D740C760F0BD0000083802400024F400CC
:101F900040787D011400002010B501460022002386
:101FA00000204A11012A02D10A4C236808E0022AC3
:101FB00003D1084C7034236802E0064C7434236863
:101FC00001F01F02012494401C400CB1012000E0EC
:101FD000002010BD003802400021094A1170117024
:101FE000012802D0042808D103E00121044A11701D
:101FF00004E00521024A117000E000BF00BF7047F5
:102000007038024001490860704700003C0E4742AA
:10201000002100F44072B2F5407F08D1094A1168EE
:1020200021F4F811084A02401143064A1160054A9A
:1020300068321268C0F30B031A43024B68331A600C
:102040007047000008380240FFFCFF0F014600BF48
:10205000080900EB8000420001F00F001044C0B2FC
:1020600070470146002204E0501CC2B2A1F10A00F0
:10207000C1B20A29F8DA100741EA1060704700007F
:10208000002101098AB242F08002044B1B6803F070
:10209000800363EA0202014B1A6070470C2800407B
:1020A00008B50022009200200021104A126802F0B8
:1020B0004002CAB9421E0D4B1A6000BF0B4A12689B
:1020C00002F04001009A521C0092009AB2F5803F43
:1020D00001D00029F2D0054A126802F040020AB18C
:1020E000012002E0002000E0012008BD0C28004093
:1020F0000348006820F08000014908607047000034
:102100000C28004070B506460C4600250E480068B5
:102110000E4900EA0105280CE070C5F30420607048
:1021200005F03F00A070C5F3423020705EB9E07842
:10213000FFF78CFFE0706078FFF788FF6070A07891
:10214000FFF784FFA07070BD042800403FFFFF0030
:1021500070B506460C4600250F4800680F4900EA96
:102160000105C5F305402070C5F30620607005F039
:102170007F00A07005F48000000CE0705EB920784C
:10218000FFF764FF20706078FFF760FF6070A07851
:10219000FFF75CFFA07070BD002800407F7F7F00CC
:1021A000CA22174B1A6053221A6091B1144A1C3A82
:1021B000126820F004031A43114B1C3B1A60104AAA
:1021C0001C32126800F004031A430D4B1C331A60D2
:1021D00011E00B4A1C3A126820F004039A43084BA2
:1021E0001C3B1A60064A1C32126800F004039A4332
:1021F000034B1C331A60FF22014B1A60704700002A
:102200002428004030B504460025CA20154908603E
:1022100053200860FFF744FF00B91DE011481C3847
:10222000006820F040000F491C390860084600682B
:10223000216808430B491C3908600A491439A06811
:10224000086008460068A18840EA01400549143941
:102250000860FFF74DFF0125FF200249086028466E
:1022600030BD00002428004008B501460020009041
:1022700004480090009800EB8100009000980068EE
:1022800008BD0000502800402DE9F04105460C46ED
:10229000002600274DB9607800F01000102804D106
:1022A000607820F010000A30607005B908E06078AE
:1022B000FFF7CCFE0646A078FFF7C8FE064600BF33
:1022C00055B1E0780004617840EA0120A178084324
:1022D000217840EA413611E0E078FFF7C2FE4FEA8C
:1022E00000486078FFF7BDFE48EA0028A078FFF7B5
:1022F000B8FE48EA0008207848EA4036CA200E496D
:10230000086053200860FFF7CBFE08B900270CE0F7
:102310000A483040084920390860FFF7E9FE00F01C
:102320007DF808B9002700E00127FF200249086076
:102330003846BDE8F0810000242800403FFFFF0040
:102340002DE9F04105460C46002600274DB92A48E4
:10235000006800F0400000B102E00020E07000BF23
:102360000DE02548006800F0400020B12078FFF71C
:102370006DFE064602E00020E07000BF00BF55B1D0
:1023800020780004617840EA0120A1780843E178D0
:1023900040EA014611E02078FFF763FE4FEA00486B
:1023A0006078FFF75EFE48EA0028A078FFF759FE44
:1023B00048EA0008E07848EA0046CA200E491C3185
:1023C000086053200860FFF76BFE08B900270CE097
:1023D0000A483040084908390860FFF789FE00F0D4
:1023E0001DF808B9002700E00127FF2002491C3131
:1023F00008603846BDE8F081082800407F7F7F00F4
:10240000CA21054A1160532111600349103908603F
:10241000FF211160704700002428004008B5002209
:10242000009200200021CA22134B1A6053221A6026
:10243000114A183A126822F0A0020F4B183B1A609A
:1024400000BF0D4A183A126802F02001009A521C8F
:102450000092009AB2F5004F01D00029F1D0064A4F
:10246000183A126802F020020AB1012000E00020B0
:10247000FF22014B1A6008BD24280040CA210A4AE5
:1024800011605321116008491C39096821F00701C6
:10249000054A1C3A11601146096801431160FF2189
:1024A000014A1160704700002428004018B5014619
:1024B0000023009300220020CA23194C23605323D9
:1024C000236049B1164B1C3B1B6843F48063144CDA
:1024D0001C3C236001201FE0114B1C3B1B6823F4B4
:1024E00080630F4C1C3C236000BF0D4B183B1B68E6
:1024F00003F00402009B5B1C0093009BB3F5803F3C
:1025000001D0002AF1D0064B183B1B6803F00403EE
:102510000BB9002000E00120FF23014C236018BD0F
:102520002428004008B500220092044A0092009A34
:1025300002EB80020092009A116008BD5028004012
:1025400010B5ADF5055D002141F20C106844FFF7B0
:10255000FBFB1BA130A804F0D1F9044644B1194893
:1025600050F8241018A001F013FB0DF5055D10BD07
:1025700001221BA139A804F00BF904461CB11BA0D1
:1025800001F006FBF1E72FAB7F220FA939A804F079
:10259000F1F904462F9838B100200FA92F9A8854DA
:1025A0001AA001F0F5FA02E020A001F0F1FA39A832
:1025B00003F036FC00210846FFF7C6FB00BFD4E756
:1025C0002F000000B0000020B4F2BFAAB8F9C4BFC9
:1025D000C2BCCAA7B0DC282573290D0A0000000080
:1025E00061726D666C792E7478740000446F6E278A
:1025F000742046696E642046696C65203A206172D9
:102600006D666C792E7478740D0A00000D0A617283
:102610006D666C792E74787420CEC4BCFEC4DAC8A2
:10262000DD203A200D0A25730D0A00000D0A6172A3
:102630006D666C792E74787420CEC4BCFEC4DAC882
:10264000DD203A200D0A000070B505460E461446FE
:1026500007E03146284602F087FE012801D100201C
:1026600070BD201EA4F10104F3D1401EF8E721B192
:10267000028842F04002028004E002884FF6BF73F5
:102680001A40028070470246002013890B400BB1AC
:10269000012000E000207047014688897047818151
:1026A000704710B50022028802F441520B884C8812
:1026B00023438C882343CC8823430C8923434C89B0
:1026C00023438C892343CC8923431A430280838B81
:1026D0004FF2FF74234083830B8A038210BD0000F6
:1026E00010B51848807E08B1002010BD02F0B0F887
:1026F00001F0B8FC06F04EF810211348FFF76AF815
:10270000042006F0C3F810210F48FFF765F806F023
:10271000D9F8002006F0B8F90A4800680B49884249
:102720000AD110210848FFF755F8B72006F0AEF897
:1027300010210548FFF750F8012002498876002053
:10274000D3E7000070850020000002401920C2007D
:102750000246052A18D2DFE802F0030A0513150025
:10276000002070470948008B08800020F9E70748DF
:102770004069064B1B8BB0FBF3F008600020F0E7CC
:102780000020EEE70020ECE70020EAE7708500205B
:1027900070B506460C4615462A032103304605F05F
:1027A00099FF002070BD0020704700002DE9F04126
:1027B00007460C461546002607E00648028B210313
:1027C000384606F097F8701CC6B2AE42F5D300202A
:1027D000BDE8F0817085002070B504462348038869
:1027E000234802880021084600F0FAF82C2000F067
:1027F00083F91F4800881D4909884843C6100025F1
:1028000030E0201200F088F9E0B200F085F92012E3
:1028100000F082F9E0B200F07FF9201200F07CF9BC
:10282000E0B200F079F9201200F076F9E0B200F0A1
:1028300073F9201200F070F9E0B200F06DF9201287
:1028400000F06AF9E0B200F067F9201200F064F9D4
:10285000E0B200F061F9201200F05EF9E0B200F0A1
:102860005BF96D1CB542CCD370BD000006010020A1
:102870000401002010B5292000F03EF910BD000031
:1028800010B500F05BF804460748844209D1FFF711
:10289000CBF800200549087047F289700449088088
:1028A00010BD4EF6EE60FBE7528585000A01002060
:1028B000020100207CB505460E46002401210220BD
:1028C000FFF7BCFA03208DF8050000208DF8040006
:1028D0008DF806008DF80700FF2000906946164825
:1028E000FEF700FF4FF480711348FEF773FF00BF3F
:1028F0000FE04FF480611048FEF76CFF4FF48061E9
:102900000D48FEF769FF0C48FEF757FF2855601C7D
:10291000C4B2B442EDDB4FF480710748FEF75CFFB0
:1029200001208DF804008DF80700FF200090694613
:102930000148FEF7D7FE7CBD0004024008B5002028
:102940000090042000F0D8F804216846FFF7B2FF99
:102950009DF8010000049DF8021000EB01209DF895
:102960000310084408BD000010B50446362000F0EE
:10297000C3F854B9A02000F0CFF8F0201649088021
:102980004FF4A0701549088025E0012C0AD1602081
:1029900000F0C2F8F020104908804FF4A0700F49F1
:1029A000088018E0022C0AD1C02000F0B5F84FF4DE
:1029B000A07009490880F020084908800BE0032C2A
:1029C00009D1002000F0A8F84FF4A0700249088057
:1029D000F0200249088010BD0401002006010020FB
:1029E0002DE9F04104460D4616461F462A2000F008
:1029F00083F8200A00F090F8E0B200F08DF8E119B9
:102A0000491EC1F3072000F087F8E119491EC8B23A
:102A100000F082F82B2000F06FF8280A00F07CF814
:102A2000E8B200F079F8A919491EC1F3072000F0B7
:102A300073F8A919491EC8B200F06EF8BDE8F0811C
:102A400010B5E02000F058F8F02000F065F8002004
:102A500000F062F80A2000F05FF8102000F05CF847
:102A6000122000F059F81B2000F056F8392000F031
:102A700053F8442000F050F8472000F04DF828208B
:102A800000F04AF8122000F047F8102000F044F857
:102A9000162000F041F81B2000F03EF8E12000F085
:102AA0002BF8F02000F038F8002000F035F80A206C
:102AB00000F032F8102000F02FF8112000F02CF870
:102AC0001A2000F029F83B2000F026F8342000F00E
:102AD00023F84E2000F020F83A2000F01DF81720CF
:102AE00000F01AF8162000F017F8212000F014F872
:102AF000222000F011F810BD10B5044644F47441D2
:102B00000448FEF76BFE44F47F410248FEF766FE80
:102B100010BD00000004024010B5044644F47641A4
:102B20000448FEF75BFE44F47F410248FEF756FE80
:102B300010BD00000004024030B500228B071C0FBE
:102B40000F2303FA04F20B4B8C1053F824309343F9
:102B5000084C8D1044F8253023468C1053F824304F
:102B60008C07240F00FA04F42343024C8D1044F820
:102B7000253030BD0838014070B504460D46294661
:102B8000204602F017FC002070BD00000EB50020AA
:102B90000290019000905848006840F480305649F7
:102BA000086000BF5448006800F4003001900298AB
:102BB000401C0290019818B90298B0F5A06FF1D1AD
:102BC0004D48006800F4003010B10120019001E090
:102BD000002001900198012839D147480830006849
:102BE0004549083108600846006840F40040086024
:102BF0000846006840F4A05008604048091F08607B
:102C0000081F006840F08070091F086000BF3A4844
:102C1000006800F000700028F9D040F203703849D5
:102C2000086035480830006820F003003249083158
:102C300008600846006840F00200086000BF2E48A7
:102C40000830006800F00C000828F8D152E02A484B
:102C5000006820F480302849086000BF26480068DA
:102C600000F0020000900298401C0290009818B9F1
:102C70000298B0F5A06FF1D11F48083000681E49D6
:102C8000083108600846006840F4004008600846C3
:102C9000006840F4A05008601A48091F0860084600
:102CA000006820F480000860081F006840F0807011
:102CB000091F086000BF1048006800F0007000287D
:102CC000F9D040F203700E4908600B4808300068E4
:102CD00020F003000849083108600846006840F009
:102CE0000200086000BF04480830006800F00C00D3
:102CF0000828F8D10EBD000000380240193C4005FC
:102D0000003C0240103C000570B502460C46002114
:102D1000002500231078302843D15078782802D03D
:102D2000507858283DD1907808B9002070BD022114
:102D300030E0505C10B9236001252DE0505C412843
:102D400002DB505C46280BDD505C612802DB505CE6
:102D5000662805DD505C302819DB505C392816DC0C
:102D6000505C302805DB505C392802DC505C303880
:102D70000AE0505C412805DB505C462802DC505CD0
:102D8000373801E0505C573800EB031301E00025B1
:102D900002E0491C0B29CCD300BF0B2934D30025FA
:102DA00032E000212AE0505C10B92360012527E0C1
:102DB000505C6B2802D0505C4B2804D119B19B02A7
:102DC000236001251CE0505C6D2802D0505C4D282A
:102DD00004D119B11B052360012511E0505C302896
:102DE00009DB505C392806DC505C303803EB830685
:102DF00000EB460301E0002502E0491C0B29D2D379
:102E000000BF0B2900D3002528468FE710B500BF6F
:102E1000102080F31188BFF34F8FBFF36F8F00BF77
:102E200006F0FCFE18B14FF080500449086000BF66
:102E3000002080F3118800BF10BD000004ED00E009
:102E400010B51248006840F00100104908600020E9
:102E50000E49083108600D4800680D4908400B49CB
:102E600008600C48091D0860081F006820F48020D5
:102E7000091F0860002005490C310860FFF786FE35
:102E80004FF000600449086010BD000000380240A7
:102E9000FFFFF6FE1030002408ED00E021B10288AB
:102EA00042F08002028004E002884FF67F731A40ED
:102EB0000280704721B1028842F00102028004E0E2
:102EC00002884FF6FE731A400280704731B1B0F8A5
:102ED000442042F40042A0F8442005E0B0F8442029
:102EE000C2F30E02A0F844207047000070B5002421
:102EF00000220023058C4FF6FE7635400584028CB7
:102F00008388048B4FF68F752C40B51E2C400D889E
:102F10002C43751E2A408D892A434D882A43104D23
:102F2000A84202D00F4DA84213D14FF6F7752A40A0
:102F3000CD892A434FF6FB752A408D882A434FF6E8
:102F4000FF652B404FF6FF552B400D8A2B434D8AD2
:102F50002B43838004838D684563028470BD000029
:102F600000000140000401400A460021018B4FF699
:102F7000F7731940114301837047000070B50024B6
:102F800000220023058C4FF6EF7635400584028C35
:102F90008388048B48F6FF752C404FF6FF452C4084
:102FA0000D884FF6FF7606EA05252C434FF6DF75B0
:102FB0002A408D8906EA05152A434D8806EA05153B
:102FC0002A43154DA84202D0144DA8421DD14FF6F8
:102FD0007F752A40CD894FF6FF7606EA05152A430C
:102FE0004FF6BF752A408D8806EA05152A434FF62D
:102FF000FF352B404FF2FF752B400D8A06EA850501
:103000002B434D8A06EA85052B43838004838D6814
:103010008563028470BD000000000140000401408F
:103020000A460021018B4FF2FF7319404FF6FF73E0
:1030300003EA0223194301837047000070B500249E
:1030400000220023058C4FF6FF6635400584028C74
:103050008388848B4FF68F752C404FF6FC752C407F
:103060000D882C434FF6FF552A408D894FF6FF7689
:1030700006EA05252A434D8806EA05252A43154D0B
:10308000A84202D0144DA8421DD14FF2FF752A402C
:10309000CD894FF6FF7606EA05252A434FF6FF3520
:1030A0002A408D8806EA05252A434EF6FF752B40F7
:1030B0004DF6FF752B400D8A06EA05152B434D8A08
:1030C00006EA05152B43838084838D68C5630284DB
:1030D00070BD000000000140000401400A460021CC
:1030E000818B4FF6F77319401143818370470000BD
:1030F00070B5002200230024058C4EF6FF76354083
:103100000584038C8488828B48F6FF752A404FF62D
:10311000FF452A400D884FF6FF7606EA05252A432B
:103120004DF6FF752B408D8906EA05352B434D88FA
:1031300006EA05352B430A4DA84202D0094DA842A4
:1031400008D14BF6FF752C400D8A4FF6FF7606EA44
:1031500085152C43848082838D680564038470BD4B
:1031600000000140000401400A460021818B4FF21B
:10317000FF7319404FF6FF7303EA0223194381835B
:103180007047002101804180818081608181C181FF
:10319000018241827047000000220288184B984249
:1031A0000ED0184B98420BD0B0F1804F08D0164B80
:1031B000984205D0154B984202D0154B984204D145
:1031C0004FF68F731A404B881A43124B984207D020
:1031D000114B984204D04FF6FF431A400B891A4313
:1031E00002804B68C3620B880385054B984202D06E
:1031F000044B984201D18B7A038601238382704766
:1032000000000140000401400004004000080040AC
:10321000000C00400010004000140040F8B50446C7
:1032200049F6A570844202DCA4F59C4514E049F6F9
:10323000A570844210DDB4F57F4F03DD4FF6617059
:10324000844201DD0020F8BD4FF60170201A49F6D6
:10325000A6710844A0F59C45094800EB45010222EF
:10326000684605F037FA9DF800604FF6FF7000EAF7
:1032700006269DF80100304486B23046E3E70000A0
:1032800000F0FB0110B5024800F004F910BD000089
:103290002075002010B5024800F0FCF810BD0000B9
:1032A000487D002001F40072B2F5007F00D100BF1C
:1032B000CA430280704721B1828942F40052828160
:1032C00004E082894DF6FF731A408281704770B521
:1032D0000246002400230025002040F66A16B14271
:1032E00000D100BFC1F3421501F01F03012606FA09
:1032F00003F3012D02D19689334006E0022D02D15D
:10330000168A334001E0968A33400C12012606FAF1
:1033100004F41688344013B10CB1012000E0002001
:1033200070BDF0B50346002400260025002040F6BD
:103330006A17B94200D100BF1846C1F3421401F028
:103340001F06012707FA06F5012C01D10C3004E015
:10335000022C01D1103000E014301AB107682F435D
:10336000076002E00768AF430760F0BD2DE9FF4743
:1033700005460E460024A14600BFA046B08900B114
:1033800000BF2C8A24F44054F08804432C82AC897A
:1033900041F20C608443B088318908437189084345
:1033A0000443AC81AC8A24F44074B0890443AC82F9
:1033B0006846FEF77DFD2048854202D01F488542C1
:1033C00002D1DDF80C9001E0DDF80890A88900F446
:1033D000004040B109EBC90000EB09103168490019
:1033E000B0FBF1F707E009EBC90000EB0910316809
:1033F0008900B0FBF1F76420B7FBF0F0040120096D
:10340000642101FB1078A88900F4004040B132200B
:1034100000EBC800B0FBF1F000F00700044308E047
:10342000322000EB08106421B0FBF1F000F00F0037
:1034300004432C81BDE8FF870010014000140140C7
:1034400001468888C0F308007047C1F308028280F3
:10345000704770B504460D4605F094FC668B05F088
:10346000BBFC0EB9002070BD218BA068405C2870A9
:1034700005F088FC208B401C80B22083E1898842C3
:1034800001DB00202083608B401E608305F0A4FCDC
:103490000120E8E770B5044640F225512068FFF7A7
:1034A00016FFF8B12068FFF7CBFFC5B2E18AA0682C
:1034B0004554E08A401C80B2E082E189884201DB09
:1034C0000020E082608BE189884202DA608B401C38
:1034D0006083608B012804D1606A10B12846616A5C
:1034E000884700BF40F227712068FFF7F0FE08B35D
:1034F000A08A60B9002240F227712068FFF711FF0F
:10350000012240F226612068FFF70BFF37E0638A53
:103510006268D15C2068FFF798FF608A401C80B227
:103520006082A189884201DB00206082A08A401E5F
:10353000A08224E040F226612068FFF7C8FEF0B1C7
:10354000A08A50B9002240F226612068FFF7E9FE08
:10355000206AA0B1206A804711E0638A6268D15C6A
:103560002068FFF772FF608A401C80B26082A189E8
:10357000884201DB00206082A08A401EA08270BDCC
:10358000F8B504460E461746002525E00CE005F088
:10359000F9FBA08A009005F01FFCA089BDF800107F
:1035A000884200DD01E000BFF1E700BF705D228AC4
:1035B0006168885405F0E6FB208A401C80B22082B6
:1035C000A189884201DB00202082A08A401CA082C1
:1035D00005F002FC681C85B2BD42D7DB012240F237
:1035E00027712068FFF79DFEF8BD000015481649B9
:1035F000086016484860164888604FF480608881EB
:10360000C881002008824882C88208834883888253
:10361000C861086248620F480F4908600F48486057
:103620000F4888604FF480608881C881002008823C
:103630004882C882088348838882C86108624862D9
:1036400070470000001001402075002048750020E0
:103650004879002000140140487D0020707D002042
:103660007081002010B503460C46194644F4807260
:1036700000BF4900520002F4807000B1491C01F4FF
:10368000803010B141F22100414002F48030002826
:10369000EFD088B210BD000010B5ADF5825D0021FD
:1036A00003A8FEF751FB05A000F072FA00210846BE
:1036B000FEF74AFB0DF5825D10BD00000D0A576153
:1036C0006974696E6720666F722074686520666928
:1036D0006C6520746F2062652073656E74202E2ED9
:1036E0002E202870726573732027612720746F2045
:1036F00061626F7274290A0D0000000010B5ADF50B
:10370000825D002103A8FEF71FFB05A000F040FA30
:1037100000210846FEF718FB0DF5825D10BD000084
:103720000D0A57616974696E6720666F722074684C
:10373000652066696C6520746F2062652073656E14
:1037400074202E2E2E202870726573732027612717
:1037500020746F2061626F7274290A0D00000000EE
:1037600070B5ADF58C5D0025002153A8FEF7ECFA8D
:1037700027A14AA803F0C2F8044644B1254850F8EE
:10378000241025A000F004FA0DF58C5D70BD02A98F
:1037900048914FF48071499125A000F0F9F9002576
:1037A00000BF42A94AA803F0D7F9044614B99DF80E
:1037B000110100B924E09DF811012E2800D11DE06F
:1037C0009DF8100100F0100028B19DF8101124A000
:1037D00000F0DEF904E09DF8101125A000F0D8F902
:1037E00027A0429900F0D4F90DF2111126A000F0A3
:1037F000CFF927A0489900F0CBF900BF6D1CD0E7A6
:1038000000BF00210846FEF79FFA00BFBCE700009A
:10381000303A2F00B0000020B4F2BFAAB8F9C4BFFC
:10382000C2BCCAA7B0DC20282573290D0A000000FD
:10383000CAF4D0D420202020202020207C2020CE9C
:10384000C4BCFEB4F3D0A1207C20B6CCCEC4BCFE58
:10385000C3FB207C20B3A4CEC4BCFEC3FB0D0A0076
:103860002830782530326429C4BFC2BC2020000033
:103870002830782530326429CEC4BCFE20200000D8
:10388000202531306400000020202573207C0000BA
:10389000202025730D0A00002DE9F05FADF5035DD2
:1038A0004FF0000A002405E0302000EB54206A4964
:1038B0000855641CB4F5805FF6D3002141F28C00FA
:1038C0006844FEF741FA65A110A803F017F8054611
:1038D0004DB1634850F8251062A000F059F90DF57C
:1038E000035DBDE8F09F654802780078401C634B9B
:1038F000187063A10BA800F05BF90A220BA919A8A4
:1039000002F046FF05464FF400620BA960A000F0EC
:103910003FF900F095FD8046002418E00FAB4FF40E
:1039200080524D4919A803F003FA05463DB9601CC1
:1039300000F0070050B95CA000F02AF906E04FF053
:10394000010A0BA959A000F023F903E0641CB4F5A7
:10395000007FE3D300BF00F073FD8146BAF1000F92
:103960000FD1A9EB08064FF4FA10B0FBF6FB80026A
:10397000B0FBF6F15B460A460A9131464FA000F0D3
:1039800007F919A802F04CFA01220BA919A802F0B4
:10399000FFFE054625B10BA955A000F0F9F89EE7FA
:1039A0004FF4006157A000F0F3F800F049FD8046A5
:1039B00000242EE00FAB4FF48052274919A802F0E3
:1039C000D9FF0546F5B9601C00F0070010B936A014
:1039D00000F0DEF800270DE01F48C05D302101EB4C
:1039E0005721884205D04FF0010A4CA000F0D0F8D2
:1039F00003E07F1CB7F5805FEED300BFBAF1010F83
:103A000006D109E04FF0010A4EA000F0C1F803E032
:103A1000641CB4F5007FCDD300BF00F011FD8146DA
:103A2000BAF1000F0FD1A9EB08064FF4FA10B0FB62
:103A3000F6FB8002B0FBF6F15B460A460A9131467E
:103A400046A000F0A5F819A802F0EAF900210846FE
:103A5000FEF77AF900BF42E7206500202F00000042
:103A6000B0000020B4F2BFAAB8F9C4BFC2BCCAA754
:103A7000B0DC20282573290D0A0000000001002079
:103A80005370656564253032642E747874000000CC
:103A9000BFAACABCD0B4CEC4BCFE25732025644BDB
:103AA00042202E2E2E0D0A002E0000002573CEC4BB
:103AB000BCFED0B4CAA7B0DC0D0A00000D0A20205D
:103AC000D0B4BAC4CAB1203A2025646D7320202036
:103AD000C6BDBEF9D0B4CBD9B6C8203A20256442C1
:103AE0002F53202825644B422F53290D0A00000034
:103AF000C3BBD3D0D5D2B5BDCEC4BCFE3A2025734E
:103B00000D0A0000BFAACABCB6C1CEC4BCFE2025A7
:103B1000644B42202E2E2E0D0A0000005370656566
:103B200064312E74787420CEC4BCFEB6C1B3C9B95A
:103B3000A6A3ACB5ABCAC7CAFDBEDDB3F6B4ED0DE6
:103B40000A0000005370656564312E74787420CECD
:103B5000C4BCFEB6C1CAA7B0DC0D0A000D0A202005
:103B6000B6C1BAC4CAB1203A2025646D73202020A2
:103B7000C6BDBEF9B6C1CBD9B6C8203A202564422D
:103B80002F53202825644B422F53290D0A00000093
:103B90000FB4054B10B503A9044A029800F02CF8A5
:103BA00010BC5DF814FB0000A7740008540200204C
:103BB0000FB4084B10B504A902AA039800F01CF832
:103BC000044602A9002000F048FA204610BC5DF827
:103BD00014FB00005B40000802E008C8121F08C187
:103BE000002AFAD170477047002001E001C1121F7E
:103BF000002AFBD1704700002DE9FF4F8DB00F4622
:103C00000546002606E025280BD0DDE90F12904777
:103C10006D1C761C28780028F5D111B03046BDE81F
:103C2000F08F0024A246A1460122EC4900E00443A3
:103C300015F8013F203B02FA03F00842F7D128783B
:103C40002A2810D06FF02F022878A0F1300109291E
:103C500014D80AEB8A0102EB410144F0020400EBA4
:103C6000010A6D1CF0E701CF5FEA000A03D544F4B6
:103C70000054CAF1000A44F002046D1C28782E2872
:103C800017D115F8010F44F004042A280ED06FF064
:103C90002F022878A0F1300109290AD809EB8901FF
:103CA00002EB410100EB01096D1CF2E757F8049BA0
:103CB0006D1C28786C280FD006DC4C2817D068289B
:103CC0000DD06A2814D104E0742810D07A280FD1BE
:103CD0000DE044F400140AE044F4801401E044F4DC
:103CE00040146978814202D104F580146D1C6D1C6A
:103CF0002A786E2A1FD00CDC632A31D004DC002A1B
:103D00008BD0582A11D1A3E0642A68D0692A0CD13B
:103D100065E0732A2ED004DC6F2A73D0702A04D198
:103D20009BE0752A6FD0782A6ED01046DDE90F121D
:103D30009047761C50E1C4F30250022806D00328B5
:103D400009D0042801CF09D0066045E101CFF11761
:103D5000C0E9006140E101CF06803DE106703BE132
:103D600017F8040B8DF8000000208DF80100EB46D9
:103D7000012003E057F804BB4FF0FF3061074FF01C
:103D8000000102D40DE008F10101884649450FDA2F
:103D90008045F8DB1BF808100029F4D108E008F191
:103DA000010188468142FADB1BF808100029F6D190
:103DB000DDE90F23AAEB08008146214600F036F921
:103DC000304400EB080604E0DDE90F121BF8010B9C
:103DD0009047B8F10108F7D221464846F7E00A219A
:103DE000C4F302534FF0000B0891022B04D001CF13
:103DF000C117032B09D00AE0FF1D27F00707F7E8DA
:103E0000020108E032E01FE020E000B2C117042BFD
:103E100001D140B2C117031E71F1000307DA4FF060
:103E2000000CD0EB0C006CEB01012D2302E023050C
:103E300004D52B238DF82430012303E0E30701D0C0
:103E40002023F7E7984658E00A2110E010210EE001
:103E500010204FF0000B08900CE010214FF0000BE9
:103E600044F004044FF00809089103E008214FF0E2
:103E7000000B0891C4F30253022B04D001CF0021A0
:103E8000032B06D006E0FF1D27F00707F7E8020125
:103E900003E080B2042B00D1C0B24FF0000823072A
:103EA0002BD5702A07D0DDF820C08CF0100C5CEA0E
:103EB0000B0C05D00EE040238DF82430012308E0E0
:103EC00050EA010306D030238DF824308DF82520E8
:103ED00002239846DDF820C08CF0080C5CEA0B0C3D
:103EE0000BD150EA010301D1630706D530238DF8C9
:103EF00024304FF00108A9F10109582A04D038A252
:103F00000B9208AA0A920BE03AA2F9E75B46089ADC
:103F1000FCF7EFF90B9B9B5C0A9A521E0A921370F6
:103F200050EA0102F2D10A98ADEB000000F1200B3B
:103F3000600702D524F4803401E04FF00109D9452F
:103F400002DDA9EB0B0000E0002000EB0B01414477
:103F50000890AAEB010AE00306D4DDE90F2321460D
:103F6000504600F063F806444FF0000908E009A944
:103F700011F80900DDE90F12904709F10109761CDB
:103F8000C145F4DBE0030CD5DDE90F2321465046A3
:103F900000F04CF8064404E0DDE90F1230209047B1
:103FA000761C0899481E08900029F5DC08E00A985C
:103FB0000A990078491C0A91DDE90F129047761C96
:103FC000BBF10001ABF1010BF1DC21465046DDE90C
:103FD0000F2300F019F806446D1C1BE609280100A8
:103FE000303132333435363738396162636465666F
:103FF0000000000030313233343536373839414231
:1040000043444546000000002DE9F04104460025E8
:104010001E461746880404D405E039462020B047E0
:104020006D1C641EF9D52846BDE8F0812DE9F041EC
:10403000044600251E469046C80301D5302700E0FF
:104040002027880404D505E041463846B0476D1C5A
:10405000641EF9D52846BDE8F0810A68531C0B6040
:104060001070704700B585B001210803FDF706FF09
:104070000020ADF800004FF48270ADF8020000207F
:10408000ADF804000220ADF806000120ADF80800EC
:104090004002ADF80A000820ADF80C000020ADF891
:1040A0000E000720ADF8100069460648FEF7F9FA41
:1040B00000210448FEF7DBFA01210248FEF7D7FA97
:1040C00005B000BD003001407CB505460C462846D1
:1040D00000F01CF906460121FDF7B0FE0094012016
:1040E0008DF8040000208DF8060002208DF80500F0
:1040F00069462846FDF7F6FA7CBD00002DE9FC472D
:1041000006460D4614469946304600F0FFF807462D
:104110000121FDF793FE009502208DF80400002098
:104120008DF8060002208DF8050001208DF80700AB
:1041300069463046FDF7D6FA0A48844202D10A4859
:1041400084420CD0204600F033F80746284600F0A1
:1041500097F880463A4641463046FDF70BFBBDE8EE
:10416000FC870000001000400014004010B5044619
:104170004FF47A7104FB01F000F002F810BD00006A
:1041800030B5084C63680021074C2468074DB4FB28
:10419000F5F404FB00F202E0024C6468E11A91427B
:1041A000FAD330BD001000E00000002040420F00B4
:1041B00001461C48814201D101207047B1F1804F76
:1041C00001D10120F9E71848814201D10220F4E72A
:1041D0001648814201D10220EFE71548814201D102
:1041E0000220EAE71348814201D10320E5E71248A3
:1041F000814201D10320E0E71048814201D1032030
:10420000DBE70F48814201D10320D6E70D48814208
:1042100001D10920D1E70C48814201D10920CCE726
:104220000920CAE7000001400004004000080040E7
:10423000000C0040000401400040014000440140E7
:104240000048014000180040001C004000210B48BD
:10425000007C0A4A527C904201D1002070470748F6
:10426000007C064A115C1046007C401CC0B21074F1
:10427000102801DB002010740846EFE7AC96002000
:104280000146012901D100207047022901D10120F6
:10429000FAE7042901D10220F6E7082901D1032019
:1042A000F2E7102901D10420EEE7202901D10520F1
:1042B000EAE7402901D10620E6E7802901D107205D
:1042C000E2E7B1F5807F01D10820DDE7B1F5007F9D
:1042D00001D10920D8E7B1F5806F01D10A20D3E7D9
:1042E000B1F5006F01D10B20CEE7B1F5805F01D1B0
:1042F0000C20C9E7B1F5005F01D10D20C4E7B1F58D
:10430000804F01D10E20BFE70F20BDE701460020FE
:10431000114A914201D101201CE0104A914201D181
:10432000022017E00E4A914201D1042012E00D4A0A
:10433000914201D108200DE00B4A914201D1102099
:1043400008E00A4A914201D1202003E0084A914244
:1043500000D14020704700000000024000040240ED
:1043600000080240000C024000100240001402400D
:104370000018024001460020244A914201D1012048
:1043800042E0234A914201D102203DE0214A91427C
:1043900002D14FF4803037E01F4A914202D14FF4EE
:1043A000003031E01D4A914202D14FF480202BE0D1
:1043B000B1F1804F01D1012026E0194A914201D18B
:1043C000022021E0174A914201D104201CE0164A44
:1043D000914201D1082017E0144A914201D11020E6
:1043E00012E0134A914201D120200DE0114A91427E
:1043F00001D1402008E0104A914201D1802003E021
:104400000E4A914200D1881570470000000001401B
:1044100000040140004001400044014000480140C8
:104420000004004000080040000C00400010004064
:104430000014004000180040001C00400020004014
:1044400010B505F0DBFB10BD704710B50121080366
:10445000FDF7F4FC4FF44070FDF7E0FC00F0A2F82B
:10446000462000F01BFB00F0B1F800F02FFA00F03E
:1044700089F900F003F8FDF727FC10BD00B59BB0EB
:1044800001214348FDF7DAFC01210802FDF7F6FCA3
:104490000B20009003208DF8040000208DF8070009
:1044A00069463C48FDF71EF9002002903A48039007
:1044B0003A480490002005900420069000200790C0
:1044C0004FF4806008904000099080000A904011ED
:1044D0000B9040020C9000200D9001200E900020C7
:1044E0000F90109002A92E48FCF796FA01212C4853
:1044F000FCF786FA0020119012901390149011A8E6
:10450000FBF790FF0020159001208DF858008DF8E2
:10451000590000201790199004208DF8680015A903
:104520001D484C38FBF7ACFF01211B484C38FBF70A
:1045300091FF07230122102117484C38FBF7CAFFCF
:1045400007230222012114484C38FBF7C3FF002344
:104550000322194610484C38FBF7BCFF07230422FE
:1045600003210D484C38FBF7B5FF0120FCF714F888
:10457000012109484C38FBF778FF012106484C38E7
:10458000FBF744FF04484C38FCF700F81BB000BDB3
:1045900001004000000002404C20014014010020B6
:1045A000106402400748006840F0807005490860C8
:1045B0000020054948600846006840F00100086096
:1045C00070470000FCED00E0001000E010B500F0C6
:1045D0005DF800F02DF800F001F810BD0EB50121D6
:1045E0008803FDF74BFC01210220FEF7A5FA02200B
:1045F000019000208DF808000C208DF809000120A2
:104600008DF80A0001A8FCF7BBFF4FF44070FDF7DE
:1046100005FC07208DF8000003208DF801008DF8BF
:10462000020001208DF803006846FDF7BBFB0EBDBC
:104630001CB501210420FDF701FC00208DF80400C9
:104640008DF8070002208DF8050000208DF8040089
:104650000420009069460C48FDF744F802200090C1
:1046600069460948FDF73EF801208DF804008DF8F1
:1046700007000820009069460348FDF733F8082139
:104680000148FDF7A9F81CBD0008024010B5002044
:104690002E49087448748874002435E005F0AEFA99
:1046A00004EB44012A4A02EBC101486004EB4400D8
:1046B000114601EBC000406804EB440102EBC1016C
:1046C00088604FF47A7004EB440102EBC1018881E9
:1046D00040F6B83004EB440102EBC101C881002070
:1046E00004EB440102EBC10108744FF4FA7004EBCF
:1046F000440102EBC1014882002004EB440102EBBB
:10470000C1010875601CC4B20C2CC7DB11481049EC
:10471000086011488861114808631148886411488D
:104720000866114888671148C1F890001048C1F820
:10473000A8001048C1F8C0000F48C1F8D8000F48C1
:10474000C1F8F0000E48C1F8080110BDAC96002079
:104750008C950020F11A0008071B0008491B00086F
:104760005F1B0008751B00088B1B0008A11B0008BD
:10477000B71B0008CD1B0008E31B00081D1B000829
:10478000331B00083EB5002401213048FDF766FBCD
:104790000120FDF74DFB0120FDF766FD4AF2A55112
:1047A000884239D07F200190FF20029000200090A5
:1047B0006846FDF727FD0120FDF70EFC00BF4120F4
:1047C000FDF7EAFB0028FAD04FF48070FDF720FCDB
:1047D0000120FDF717FCFDF721FE0122114640F2F2
:1047E000E17000F00FF900223A21082000F038F9BA
:1047F0000020FDF743FE40F2FF70FDF701FE0121AE
:104800008803FDF7CDFC0120FDF750FE4AF2A551CB
:104810000120FDF787FE18E000BF2046611C8CB226
:1048200041F288318842F8DBFDF7F8FD4FF4804013
:10483000FDF726FC7B20FDF7AFFB10B97A20FDF7D2
:10484000ABFBFDF72BFBFDF7E9FD3EBD00000410BF
:104850001CB501210846FDF7F1FA052211461A4858
:10486000FCF788FF052206211748FCF783FF052285
:1048700007211548FCF77EFF02208DF804008DF813
:10488000050000208DF8060002208DF80700E020CA
:10489000009069460C48FCF725FF1020009001208D
:1048A0008DF8040000208DF8060002208DF8050028
:1048B00000208DF8070069460348FCF713FF10211C
:1048C0000148FCF789FF1CBD0000024010B5FEF74F
:1048D0008DFEFDF701F8FBF721FF10BD0649497C6D
:1048E000054A50541146497C491CC9B251741029DB
:1048F00001DB002151747047AC9600202DE9F04F88
:1049000004460D461646032D0CDBAC46642094FB92
:10491000F0F800FB1840C2B2642094FBF0F0C3B280
:10492000374610E005F10C0000F0FF0C601E4FF060
:10493000640890FBF8F908FB1900C2B2601E90FBF6
:10494000F8F0C3B237460CF101094FF01A0A09FB1F
:104950000AF94FF00A0A99FBFAF94FEAE27A02EBF8
:104960009A7A02EBAA0A4FEAE37B03EB9B7B0AEB02
:10497000AB0A4FF0020B0BFB13AAD144B944A9F1C7
:1049800001090FFA89F109B9072111E000290ADAB2
:1049900048424FF0070890FBF8F908FB1900C0F1F6
:1049A000070001B204E0072091FBF0F800FB1811AA
:1049B00011B90720BDE8F08FC8B2FBE71CB501A90B
:1049C0000020FDF79FFB69460020FDF7C1FB9DF825
:1049D000070000F5FA600A4908809DF80500887014
:1049E0009DF80600C8709DF80400C8719DF800008D
:1049F00008719DF8010048719DF8020088711CBD86
:104A00000C010020F8B504460D461646A4F5FA60E0
:104A1000632800DC00E01020C0B28DF80300012DF7
:104A200003DB0C2D01DC284600E001208DF801009D
:104A3000012E03DB1F2E01DC304600E001208DF843
:104A400002009DF802209DF801109DF80300FFF779
:104A500055FF8DF8000069460020FDF715FCF8BDF4
:104A6000F8B506460C461546172E01DC304600E028
:104A700008208DF800003B2C01DC204600E00020DF
:104A80008DF801003B2D01DC284600E000208DF868
:104A9000020069460020FDF753FCF8BD1CB5044632
:104AA0004FF4FA600423044A5115CDE90004034889
:104AB00000F006F81CBD00000004014000080240A0
:104AC0002DE9F04F8BB082468B4614461D46DDE93A
:104AD000146900200290B9F1000F02D0B9F1640FFF
:104AE00015D100212046FEF7E5F959465046FFF75B
:104AF000EBFAB9F1000F01D0012000E000200246DE
:104B000059465046FCF76CFE0BB0BDE8F08F2B46C3
:104B1000224659465046FFF7F1FA664884420BD0C8
:104B20006548844208D06548844205D06448844280
:104B300002D06448844207D12046FFF71BFC0121C4
:104B40000190FDF79BF906E02046FFF713FC0121D9
:104B50000190FDF783F9574884420BD056488442B0
:104B600008D05648844205D05548844202D0554862
:104B7000844203D15448D0F8008003E052480068D2
:104B80004FEA5008642E0AD242F20F700290401C85
:104B9000B8FBF0F0B0FBF6F0401E87B213E040F631
:104BA000B830864209D2632002906420B8FBF0F04E
:104BB000B0FBF6F0401E87B205E000200290B8FB83
:104BC000F6F0401E87B209970298ADF82000002049
:104BD000ADF82800ADF822003648844202D03648AD
:104BE000844202D100208DF82A0008A92046FEF751
:104BF000D3FA03A8FEF7C5FA6020ADF80C00012037
:104C0000ADF80E0009FB07F06421B0FBF1F0059050
:104C10000220ADF818002748844202D0264884427A
:104C200009D10420ADF810000020ADF81A00ADF84D
:104C30001C00ADF81E00012D08D103A92046FEF787
:104C400055F908212046FEF78FF91FE0022D08D103
:104C500003A92046FEF792F908212046FEF7E0F965
:104C600014E0032D08D103A92046FEF7E7F9082137
:104C70002046FEF733FA09E0042D07D103A92046A8
:104C8000FEF736FA08212046FEF76EFA012120468B
:104C9000FEF704F901212046FEF70CF9054884428D
:104CA00002D00548844203D101212046FEF70EF9C7
:104CB00000BF29E70000014000040140004001401E
:104CC0000044014000480140000000202DE9F04F61
:104CD0008BB082468B4614461D46DDE914690020E0
:104CE0000290B9F1000F02D0B9F1640F15D1002183
:104CF0002046FEF7DFF859465046FFF7E5F9B9F1CF
:104D0000000F01D1012000E0002002465946504624
:104D1000FCF766FD0BB0BDE8F08F2B4622465946E6
:104D20005046FFF7EBF9664884420BD06548844251
:104D300008D06548844205D06448844202D0644863
:104D4000844207D12046FFF715FB01210190FDF7B2
:104D500095F806E02046FFF70DFB01210190FDF7D5
:104D60007DF8574884420BD05648844208D05648B4
:104D7000844205D05548844202D05548844203D12C
:104D80005448D0F8008003E0524800684FEA5008C9
:104D9000642E0AD242F20F700290401CB8FBF0F071
:104DA000B0FBF6F0401E87B213E040F6B830864202
:104DB00009D2632002906420B8FBF0F0B0FBF6F05B
:104DC000401E87B205E000200290B8FBF6F0401EBE
:104DD00087B209970298ADF820000020ADF82800AE
:104DE000ADF822003648844202D03648844202D1CF
:104DF00000208DF82A0008A92046FEF7CDF903A867
:104E0000FEF7BFF96020ADF80C000120ADF80E00F0
:104E100009FB07F06421B0FBF1F005900220ADF82A
:104E200018002748844202D02648844209D1042031
:104E3000ADF810000020ADF81A00ADF81C00ADF878
:104E40001E00012D08D103A92046FEF74FF80821C6
:104E50002046FEF789F81FE0022D08D103A920465D
:104E6000FEF78CF808212046FEF7DAF814E0032D4F
:104E700008D103A92046FEF7E1F808212046FEF7F5
:104E80002DF909E0042D07D103A92046FEF730F9DA
:104E900008212046FEF768F901212046FDF7FEFFB4
:104EA00001212046FEF706F80548844202D0054855
:104EB000844203D101212046FEF708F800BF29E70C
:104EC0000000014000040140004001400044014056
:104ED00000480140000000202DE9F0410025002796
:104EE00000240120B949087004F08EFE074608210D
:104EF000B748FCF771FC0821B548FCF76BFC0821AA
:104F0000B348FCF769FC00BF27E005EB4500B14959
:104F100001EBC0060821AE48FCF75CFC3220FFF72D
:104F20002FF90821AA48FCF757FC0421A848FCF7F0
:104F300048FC30B10120A840844300203074B760A1
:104F400006E00120A840204384B20120307477603D
:104F50003220FFF715F9681CC5B20A2DD5DB002CED
:104F600060D100209C4908809C480088002858D0C7
:104F70009A480088402808D0802818D0B0F5807F53
:104F800027D0B0F5007F48D135E09248D0F898108E
:104F9000D0F89400081A40F6B831884203D20320B2
:104FA000FFF79CFC02E00420FFF798FC35E08948FD
:104FB000D0F8B010D0F8AC00081A40F6B8318842EA
:104FC00003D20520FFF78AFC02E00620FFF786FCEB
:104FD00023E08048D0F8C810D0F8C400081A40F682
:104FE000B831884203D20720FFF778FC02E008209E
:104FF000FFF774FC11E07748D0F8E010D0F8DC003F
:10500000081A40F6B831884203D20920FFF766FC3F
:1050100002E00A20FFF762FC00BF00BF00206F49DA
:105020000880CDE0002C53DD402C51DA6A4800881E
:10503000012801D1022C1DD067480088022801D127
:10504000042C17D064480088042801D1082C11D002
:1050500061480088082801D1102C0BD05E480088D8
:10506000102801D1202C05D05B480088202805D1CC
:10507000012C03D10120FFF731FC26E056480088BF
:10508000012801D1202C1DD053480088022801D1CD
:10509000012C17D050480088042801D1022C11D0CF
:1050A0004D480088082801D1042C0BD04A480088BC
:1050B000102801D1082C05D047480088202804D1A9
:1050C000102C02D10220FFF709FC4348048077E04E
:1050D0004248008810B94148048071E03F48008888
:1050E000402801D1802C05D03C48008880282BD155
:1050F000402C29D13748D0F8B010D0F8AC0081420C
:1051000009D93448D0F8B010D0F8AC00081A40F6ED
:10511000B831884210D32F48D0F89810D0F89400B6
:1051200081420DD92B48D0F89810D0F89400081A75
:1051300040F6B831884203D20D20FFF7CFFB3CE0A8
:105140000E20FFF7CBFB38E024480088B0F5807FC5
:1051500002D1B4F5007F07D020480088B0F5007F69
:105160002BD1B4F5807F28D11A48D0F8E010D0F8C0
:10517000DC00814209D91748D0F8E010D0F8DC00F3
:10518000081A40F6B831884210D31248D0F8C81037
:10519000D0F8C40081420DD90E48D0F8C810D0F81C
:1051A000C400081A40F6B831884203D20B20FFF73A
:1051B00095FB02E00C20FFF791FB002007490880D7
:1051C00021460020FDF7AEF9BDE8F0815002002035
:1051D000000802408C9500204C0200204E02002066
:1051E00070B504460D4600202071401E20632946FC
:1051F000204602F075FB08B1032070BD94F832120E
:1052000094F8330241EA00204AF65521884201D041
:105210000220F2E794F86D00010694F86C0041EA70
:10522000004194F86B0041EA002094F86A100843AA
:1052300020F07F400D49884201D10020DDE794F83D
:105240008900010694F8880041EA004194F887003B
:1052500041EA002094F88610084320F07F4003497B
:10526000884201D10020C8E70120C6E7464154002A
:10527000024600E0521C107810B110788842F9D133
:105280001078704770B502460D46506A031D1068CD
:105290004089B5FBF0F01668B678B0FBF6F400BFB5
:1052A00002CB09B9002070BD8C4200D202E0641A22
:1052B0001B1DF5E700BF18682044F4E70246891E6D
:1052C0009069801E884201D8002070479378D06A88
:1052D00001FB0300F9E700002DE9F04705460C4605
:1052E000207820F04000401E00EB800101EBC0065A
:1052F00000274FF0010800BF1A48C05D205C194923
:10530000C95D2144497840EA0129B8F1000F10D065
:10531000484601F02FFE8046FF2E07D23146761C0C
:1053200035F8110001F026FE404508D00020BDE808
:10533000F0874FF6FF70814501D00020F7E7781C19
:1053400007460D28D8D3207800F0400038B1B8F1D6
:10535000000F04D035F8160008B10020E7E701205F
:10536000E5E70000C89F000870B505460E462846D0
:10537000FBF7B6F904460CB9002070BD3146204653
:10538000FEF767F8F9E72DE9F04105460E461746A6
:105390002846FBF7A5F904460CB9BDE8F081E069A1
:1053A00008B1E06980473A4631462046FEF7E8F802
:1053B00000BFF2E713B50446012201A92046FFF71A
:1053C000E2FF1CBD2DE9F04704468946B9F1000F04
:1053D00006D1E76817B1A069B84215D8012713E0D4
:1053E0004946204602F0CCF80646022E02D20120A1
:1053F000BDE8F087701C08B93046F9E7A069B042F3
:1054000001D93046F4E74F463D4600BF6D1CA06908
:10541000A84204D80225BD4201D90020E8E7294668
:10542000204602F0ADF8064606B909E0701C08B146
:10543000012E01D13046DBE7BD42E7D10020D7E79E
:1054400000BF6FF070422946204602F0D5FD80462D
:10545000B8F1000F08D1B9F1000F05D02A4649462E
:10546000204602F0C9FD8046B8F1000F0BD1E5607F
:105470002069401C78B12069401E2061607940F0AD
:105480000100607107E0B8F1010F02D14FF0FF3069
:1054900000E0012005462846AAE700002DE9F34F69
:1054A00083B0834604980068019002E00198401C94
:1054B0000190019800782F28F8D0019800785C2896
:1054C000F4D0DBF81C900025A84600BF404608F148
:1054D000010801990C5C202C03DB2F2C01D05C2CE3
:1054E00000D133E0FF2D03D3062005B0BDE8F08FD7
:1054F000E4B2812C14DBE0B2FE2811DC404608F156
:10550000010801990E5C06EB042084B2402E01DBF9
:105510007E2E05DD802E01DBFE2E01DD0620E4E778
:105520000121204601F012FD04460CB90620DCE7FB
:10553000802C06DA21468AA0FFF79AFE08B10620E1
:10554000D3E728466D1C29F81040BFE700BF01983B
:1055500000EB080104980160202C01DA042000E02F
:1055600000200746012D04D1681E39F810002E28AE
:105570000BD0022D24D1681E39F810002E281FD11F
:10558000A81E39F810002E281AD1002029F815007D
:1055900082460AE0AA4501D22E2000E02020DBF856
:1055A000181001F80A000AF1010ABAF10B0FF1D341
:1055B00047F02000DBF8181001F80A00002094E7FB
:1055C00008E0681E39F81040202C02D02E2C00D0A4
:1055D00002E06D1E002DF4D100BF0DB9062084E756
:1055E000002029F815000B222021DBF8180002F01A
:1055F0006DF94FF0000801E008F1010839F81800D2
:105600002028F9D039F818002E28F5D0B8F1000F6D
:1056100001D047F0030700E06D1E25B1681E39F880
:1056200010002E28F8D14FF0000A564608200290AC
:1056300000BF404608F1010839F8104004B962E0A3
:10564000202C03D02E2C04D1A84502D047F003070C
:10565000EFE70298824501D2A84514D102980B28A1
:1056600002D147F003074EE0A84501D047F00307F9
:10567000A84500D947E0A8464FF0080A0B20029041
:10568000B006060ED5E7802C09DB204601F072FC3F
:105690000021009001F05AFC044647F00207FF2C5D
:1056A00010DD0298401E504504D847F00307DDF88E
:1056B00008A0BEE7221250460AF1010ADBF81830B2
:1056C0001A5419E024B1214628A0FFF7D1FD18B1E2
:1056D0005F2447F003070FE0412C04DB5A2C02DC67
:1056E00046F0020608E0612C06DB7A2C04DC46F06A
:1056F0000106A4F1200084B250460AF1010ADBF849
:1057000018301C5495E700BFDBF818000078E52836
:1057100003D10520DBF8181008700298082801D181
:10572000B006060E06F00C000C2803D006F00300AD
:10573000032801D147F0020707F0020058B906F02C
:105740000300012801D147F0100706F00C000428DF
:1057500001D147F00807DBF81800C7720020C4E643
:10576000222A3A3C3E3F7C7F000000002B2C3B3D30
:105770005B5D00002DE9F04104460E460021204605
:1057800000F06AFA0546EDB9002700BF21692068DC
:1057900002F0A6F8054605B113E060690078E52837
:1057A00002D06069007820B9781C0746B04201D168
:1057B00007E000270121204600F07FF80546002D74
:1057C000E4D000BF042D00D107252846BDE8F081B4
:1057D0002DE9F04704460021204600F03DFA074637
:1057E00017B13846BDE8F0874FF0FF09CA464FF6BB
:1057F000FF70208400BF2169206802F071F807461D
:1058000007B157E065692E780EB9042752E0E87AAF
:1058100000F03F08E52E05D008F0080040B1B8F1CF
:105820000F0F05D04FF0FF094FF6FF7020843AE0CC
:10583000B8F10F0F1CD1E06978B306F0400030B129
:1058400095F80DA026F04006B146E08820844E452C
:105850000AD1687B504507D12946E069FFF73CFD36
:1058600010B1A9F1010000E0FF2000F0FF091AE0EB
:10587000B9F1000F05D1284603F044F9504500D195
:1058800018E0A069C07A00F0010038B90B22284660
:10589000A16901F0FBFF08B90CE004E04FF0FF093B
:1058A0004FF6FF7020840021204600F006F80746DE
:1058B000002FA0D000BF384694E72DE9F041044600
:1058C0008846E088461CB0B208B1206910B90420AF
:1058D000BDE8F08121684889C11700EBD161491109
:1058E000B6FBF1F201FB1261002972D12069401C64
:1058F0002061E06828B920680089B04269D8042096
:10590000E6E721684889C11700EBD1614911B6FB70
:10591000F1F122689278521E1140002959D1E168B4
:10592000206801F02DFE0546012D01D80220CFE7A9
:10593000681C08B90120CBE720688069A84242D8DA
:10594000B8F1000F01D10420C2E7E1682068FFF739
:1059500039FD05460DB90720BAE7012D01D1022016
:10596000B6E7681C08B90120B2E7206803F03EF9E9
:1059700008B10120ACE721684A8901F13400002117
:1059800001F0A4FF29462068FFF798FC216808630E
:1059900000270EE0012021680871206803F026F935
:1059A00008B1012094E72068006B401C216808635F
:1059B0007F1C20688078B842ECD82068006BC01B40
:1059C0002168086300BFE56029462068FFF776FC80
:1059D0002061E68021684889C11700EBD161491137
:1059E000B6FBF1F201FB12612268343202EB411185
:1059F000616100206CE72DE9F05F04468A464FF0B4
:105A0000FF09CB4604274DE02169206801F068FFBB
:105A1000074607B149E065692E780EB9042744E0CE
:105A2000E87A00F03F08E52E08D000BFB8F1080F73
:105A300001D1012000E00020504502D04FF0FF09C5
:105A400029E0B8F10F0F1AD106F0400030B195F8F7
:105A50000DB026F04006B146E08820844E450AD1BC
:105A6000687B584507D12946E06901F053FF10B122
:105A7000A9F1010000E0FF2000F0FF090BE0B9F1FF
:105A8000000F04D1284603F03DF8584502D04FF6E8
:105A9000FF70208409E000212046FFF70EFF074633
:105AA00007B102E020690028AED100BF0FB100208D
:105AB00020613846BDE8F09F2DE9FE4F0446D4F83A
:105AC0001880D4F81C900C224146684601F0F1FE83
:105AD0009DF80B0000F0200010B10620BDE8FE8FFD
