:020000040800F2
:10000000F8530020B9020008C1020008C30200082A
:10001000C5020008C7020008C9020008000000006D
:1000200000000000000000000000000021020008A5
:10003000CD0200080000000065020008DD0F000886
:10004000D3020008D3020008D3020008D30200083C
:10005000D3020008D3020008D3020008D30200082C
:10006000D3020008D3020008D3020008D30200081C
:10007000D3020008D3020008D3020008D30200080C
:10008000D3020008D3020008D3020008D3020008FC
:10009000D3020008D3020008D3020008D3020008EC
:1000A000D3020008D3020008D3020008D3020008DC
:1000B000D3020008D3020008D3020008D3020008CC
:1000C000D3020008D3020008D3020008D3020008BC
:1000D000D3020008FD130008D3020008D302000871
:1000E000D3020008D3020008D3020008D30200089C
:1000F000D3020008D3020008D3020008D30200088C
:10010000D3020008D3020008D3020008D30200087B
:10011000D3020008D3020008D3020008D30200086B
:10012000D3020008D3020008D3020008D30200085B
:10013000D3020008D3020008D3020008D30200084B
:10014000D3020008D3020008D3020008D30200083B
:10015000D3020008D3020008D3020008D30200082B
:10016000D3020008D3020008D3020008D30200081B
:10017000D3020008D3020008D3020008D30200080B
:10018000D302000800F002F800F03AF80AA090E864
:10019000000C82448344AAF10107DA4501D100F042
:1001A0002FF8AFF2090EBAE80F0013F0010F18BFD5
:1001B000FB1A43F001031847F42F0000143000002D
:1001C000103A24BF78C878C1FAD8520724BF30C883
:1001D00030C144BF04680C60704700000023002455
:1001E00000250026103A28BF78C1FBD8520728BF47
:1001F00030C148BF0B6070471FB51FBD10B510BDA3
:1002000000F045F91146FFF7F7FF01F02FFE00F06F
:1002100063F903B4FFF7F2FF03BC00F06BF90000D1
:10022000224B19680868B0E8F00F80F30988BFF323
:100230006F8F4FF0000080F311884EF00D0E704765
:100240000000000006480068006880F3088862B675
:1002500061B6BFF34F8FBFF36F8F00DF00BF00BFEA
:1002600008ED00E0EFF30980BFF36F8F0F4B1A68C2
:1002700020E9F00F106008B54FF0100080F31188EE
:10028000BFF34F8FBFF36F8F02F044FB4FF00000BE
:1002900080F31188BDE8084019680868B0E8F00FDD
:1002A00080F30988BFF36F8F704700BF3C000020C8
:1002B000EFF3058070470000094880470948004770
:1002C000FEE7FEE7FEE7FEE7FEE7FEE7FEE7FEE706
:1002D000FEE7FEE704480549054A064B7047000063
:1002E0001110000885010008F84D0020F853002087
:1002F000F84F0020F84F0020032A40F2308010F021
:10030000030C00F0158011F8013BBCF1020F6244B0
:1003100098BF11F801CB00F8013B38BF11F8013B41
:10032000A2F1040298BF00F801CB38BF00F8013BEE
:1003300011F0030300F03080083AC0F0088051F853
:10034000043B083A51F804CBA0E80810F5E7121D69
:100350005CBF51F8043B40F8043BAFF30080D20788
:1003600024BF11F8013B11F801CB48BF11F8012B54
:1003700024BF00F8013B00F801CB48BF00F8012B77
:10038000704702F0FF0343EA032242EA024200F010
:1003900037B870477047704710B5203AC0F00B80EF
:1003A000B1E81850203AA0E81850B1E81850A0E879
:1003B0001850BFF4F5AF5FEA027C24BFB1E81850D3
:1003C000A0E8185044BF18C918C0BDE810405FEA43
:1003D000827C24BF51F8043B40F8043B08BF7047BF
:1003E000D20728BF31F8023B48BF11F8012B28BFC4
:1003F00020F8023B48BF00F8012B70474FF0000285
:100400000429C0F0128010F0030C00F01B80CCF126
:10041000040CBCF1020F18BF00F8012BA8BF20F894
:10042000022BA1EB0C0100F00DB85FEAC17C24BFE8
:1004300000F8012B00F8012B48BF00F8012B704792
:100440004FF0000200B5134694469646203922BF6D
:10045000A0E80C50A0E80C50B1F12001BFF4F7AFB8
:10046000090728BFA0E80C5048BF0CC05DF804EB9A
:10047000890028BF40F8042B08BF704748BF20F808
:10048000022B11F0804F18BF00F8012B7047754602
:1004900000F02CF8AE4605006946534620F00700F0
:1004A000854618B020B5FFF715FFBDE820404FF096
:1004B00000064FF000074FF000084FF0000B21F04E
:1004C0000701AC46ACE8C009ACE8C009ACE8C0091B
:1004D000ACE8C0098D46704710B50446AFF3008004
:1004E0002046BDE81040FFF794BE0000004870476A
:1004F000944D002001491820ABBEFEE72600020003
:100500007047000010B5012002F0BAFA01490860F6
:1005100010BD0000040000201CB506480521002382
:100520004FF40072CDE9001003A1074802F038FC37
:100530001CBD000000000020765461736B416463B1
:1005400050726F63000000009927000808B525204D
:100550008DF8000001208DF8010000208DF80200C8
:1005600001208DF80300684600F03EFA08BDF0B5A2
:100570000A4600210023002400BF3DE0012505FAC2
:1005800001F3156805EA03049C4234D105684F0065
:100590000326BE40B543056015794E00B540066898
:1005A000354305601579012D02D01579022D16D13C
:1005B00085684F000326BE40B543856055794E00DF
:1005C000B540866835438560456801268E40B54351
:1005D0004560456896798E40B6B235434560C5683A
:1005E0004F000326BE40B543C560D5794E00B540E7
:1005F000C6683543C560491C1029BFD3F0BDF0B5AE
:10060000002300244D07ED0E02FA05F3CE1000F191
:10061000200555F826504E07F70E0F26BE40B5436D
:10062000CF1000F1200646F82750CE1000F120052B
:1006300055F8265045EA0304CE1000F1200545F890
:100640002640F0BD41837047018370470AB10183A2
:1006500000E041837047000000B587B0012102200F
:1006600000F028FA0121102000F024FA4FF4007065
:10067000059001208DF8180000208DF81A00022046
:100680008DF8190005A91848FFF771FF4FF4806035
:10069000059000208DF8180005A91348FFF767FFA3
:1006A0004FF4E13001900020ADF80800ADF80A00E9
:1006B000ADF80C00ADF810000C20ADF80E0001A94B
:1006C0000A4800F007FF012240F22551074800F0D8
:1006D000DCFE0121054800F0A2FE4021034800F0A5
:1006E00095FE07B000BD0000000002400010014070
:1006F00010B5F72000F0ACFBA92000F0ADFB5120B5
:1007000000F0AAFB2C2000F0A7FB822000F0A4FB45
:10071000C02000F09DFB112000F09EFB092000F09E
:100720009BFBC12000F094FB412000F095FBC5200D
:1007300000F08EFB002000F08FFB0A2000F08CFB05
:10074000802000F089FBB12000F082FBB02000F097
:1007500083FB112000F080FBB42000F079FB022025
:1007600000F07AFBB62000F073FB022000F074FB6F
:10077000222000F071FBB72000F06AFBC62000F0D9
:100780006BFBBE2000F064FB002000F065FB042042
:1007900000F062FBE92000F05BFB002000F05CFB56
:1007A000002000F0E5FA3A2000F052FB552000F05E
:1007B00053FBE02000F04CFB002000F04DFB072035
:1007C00000F04AFB102000F047FB092000F044FB3A
:1007D000172000F041FB0B2000F03EFB412000F011
:1007E0003BFB892000F038FB4B2000F035FB0A2052
:1007F00000F032FB0C2000F02FFB0E2000F02CFB51
:10080000182000F029FB1B2000F026FB0F2000F031
:1008100023FBE12000F01CFB002000F01DFB172053
:1008200000F01AFB1A2000F017FB042000F014FB64
:100830000E2000F011FB062000F00EFB2F2000F030
:100840000BFB452000F008FB432000F005FB0220D5
:1008500000F002FB0A2000F0FFFA092000F0FCFA89
:10086000322000F0F9FA362000F0F6FA0F2000F0FE
:10087000F3FA112000F0ECFA782000F081FF292033
:1008800000F0E6FA0448038804480288002108467C
:1008900000F0AEFA10BD0000100000200E00002095
:1008A00010B50446204600F089F910BD1CB50121A1
:1008B000062000F0DFF803208DF8050001208DF8F8
:1008C000040000208DF806008DF80700FF2000903E
:1008D00069460548FFF74BFE4FF47070009069467B
:1008E0000248FFF744FE1CBD00040240000802401D
:1008F0001CB50121084600F0BDF84FF4807000904F
:1009000001208DF8040003208DF8050000208DF8EB
:1009100006008DF8070069460D48FFF728FE4FF4E2
:1009200080710B48FFF790FE012000F029FF4FF483
:1009300080710748FFF786FE0A2000F021FF4FF480
:1009400080710348FFF780FE782000F019FF1CBD7E
:100950000000024010B5FFF7A9FFFFF7C9FF142000
:1009600000F00EFF00F0BDF904460948844205D1AD
:1009700047F289700749088000F06CF9002000F008
:1009800015F80020FFF78CFFC82000F005F810BD17
:10099000528585000C00002010B504460248047002
:1009A000204600F00DF810BD1200002010B50446DE
:1009B00002480470204600F0DBF910BD130000204F
:1009C0007CB5044642F210706043FF2190FBF1F5C4
:1009D0006420032302070421CDE90005014801F04A
:1009E0004BF87CBD0000024070B5002100230F22AF
:1009F000C4781CB3174C246804F4E064C4F5E064C4
:100A0000C4F30721C1F10404E3B20A4144789C40D5
:100A1000E1B28478144021430C07210E0E4C057876
:100A20006155047804F01F050124AC4005786D1170
:100A3000AD0005F1E025C5F8004109E0047804F0B7
:100A40001F050124AC40054D0678761145F8264077
:100A500070BD00000CED00E000E400E080E100E08B
:100A600002490143024A1160704700000000FA0584
:100A70000CED00E029B1064A12680243044B1A60EB
:100A800004E0034A12688243014B1A607047000079
:100A90003038024029B1064A12680243044B1A60FA
:100AA00004E0034A12688243014B1A607047000059
:100AB0004038024029B1064A12680243044B1A60CA
:100AC00004E0034A12688243014B1A607047000039
:100AD00044380240F0B500210022002402250026FF
:100AE0000223324F3F6807F00C0121B1042905D0E1
:100AF000082937D105E02E4F076036E02D4F0760FB
:100B000033E02A4F3F1F3F68C7F38056274F3F1FF0
:100B10003F6807F03F036EB1264FB7FBF3F7DFF8EE
:100B20008CC0ACF1040CDCF800C0CCF3881C07FBD3
:100B30000CF40CE01E4FB7FBF3F7DFF870C0ACF11C
:100B4000040CDCF800C0CCF3881C07FB0CF4174F36
:100B50003F1F3F68C7F301477F1C7D00B4FBF5F7DB
:100B6000076002E0124F076000BF00BF0F4F3F68F1
:100B700007F0F0010909104F7A5C0768D740476019
:100B80000A4F3F6807F4E051890A0B4F7A5C4768C7
:100B9000D7408760054F3F6807F46041490B064F17
:100BA0007A5C4768D740C760F0BD00000838024053
:100BB0000024F40040787D011500002070B5044643
:100BC00012480388124802880021084600F010F9F4
:100BD0002C204FF0D84108800D4909880B4A128813
:100BE00001FB02F0C11700EB5171CE1000250AE0A5
:100BF0004FF0D84044804480448044804480448006
:100C0000448044806D1CB542F2D370BD10000020BA
:100C10000E0000202DE9F04104460D460026B046A6
:100C200000272946204600F080F82E204FF0D841BA
:100C300008800846468846884788B0F80280F01247
:100C4000C0024FEAA82140EA411040EAE720BDE88F
:100C5000F081000010B500F044F8044616488442C4
:100C600028D1FFF745FD0020144908701222012108
:100C7000084600F027F801210846FFF7CBFF10498E
:100C8000088034220121084600F01CF801210846A2
:100C9000FFF7C0FF0A49088056220121084600F0EC
:100CA00011F801210846FFF7B5FF0549088047F212
:100CB0008970088010BD0000668054001400002078
:100CC0000C00002070B505460E46144631462846F5
:100CD00000F02BF82C204FF0D841088008464480C3
:100CE00070BD08B504204FF0D84108800846408800
:100CF000C0B28DF8000008464088C0B28DF80100EF
:100D000008464088C0B28DF8020008464088C0B24C
:100D10008DF803009DF8010000049DF8021000EB1F
:100D200001209DF80310084408BD70B504460D4627
:100D30002A2000F08DF8201200F08EF8E0B200F0CA
:100D40008BF8201200F088F8E0B200F085F82B2034
:100D500000F07EF8281200F07FF8E8B200F07CF88E
:100D6000281200F079F8E8B200F076F870BD0000C3
:100D700010B50446362000F06BF85CB9A82000F0EE
:100D80006BF84FF4A070184908804FF4F0701749C1
:100D9000088028E0012C0BD1682000F05DF84FF4AA
:100DA000A070114908804FF4F070104908801AE0D3
:100DB000022C0BD1C82000F04FF84FF4F0700A4914
:100DC00008804FF4A070094908800CE0032C0AD178
:100DD000082000F041F84FF4F070034908804FF408
:100DE000A0700249088010BD0E00002010000020F5
:100DF0002DE9F04104460D4616461F462A2000F014
:100E000027F8201200F028F8E0B200F025F8E119E8
:100E1000491EC1F3072000F01FF8E119491EC8B2AE
:100E200000F01AF82B2000F013F8281200F014F844
:100E3000E8B200F011F8A919491EC1F3072000F02B
:100E40000BF8A919491EC8B200F006F8BDE8F081F8
:100E50004FF0D841088070474FF0D8414880704724
:100E60000EB500200290019000905848006840F4B0
:100E700080305649086000BF5448006800F40030D4
:100E800001900298401C0290019818B90298B0F5A0
:100E9000A06FF1D14D48006800F4003010B101207E
:100EA000019001E0002001900198012839D14748C4
:100EB000083000684549083108600846006840F479
:100EC000004008600846006840F4A05008604048B0
:100ED000091F0860081F006840F08070091F086043
:100EE00000BF3A48006800F000700028F9D040F2D6
:100EF00003703849086035480830006820F0030066
:100F00003249083108600846006840F00200086075
:100F100000BF2E480830006800F00C000828F8D107
:100F200052E02A48006820F480302849086000BF59
:100F30002648006800F0020000900298401C0290D1
:100F4000009818B90298B0F5A06FF1D11F48083089
:100F500000681E49083108600846006840F40040F7
:100F600008600846006840F4A05008601A48091F4D
:100F700008600846006820F480000860081F0068C8
:100F800040F08070091F086000BF1048006800F042
:100F900000700028F9D040F203700E4908600B4839
:100FA0000830006820F0030008490831086008464E
:100FB000006840F00200086000BF04480830006884
:100FC00000F00C000828F8D10EBD000000380240E7
:100FD000193C4005003C0240103C000510B500BF24
:100FE000102080F31188BFF34F8FBFF36F8F00BFC6
:100FF00001F006FF18B14FF080500449086000BFAF
:10100000002080F3118800BF10BD000004ED00E057
:1010100010B51248006840F0010010490860002037
:101020000E49083108600D4800680D4908400B4919
:1010300008600C48091D0860081F006820F4802023
:10104000091F0860002005490C310860FFF708FF00
:101050004FF000600449086010BD000000380240F5
:10106000FFFFF6FE1030002408ED00E021B10288F9
:1010700042F08002028004E002884FF67F731A403B
:101080000280704721B1028842F00102028004E030
:1010900002884FF6FE731A400280704731B1B0F8F3
:1010A000442042F40042A0F8442005E0B0F8442077
:1010B000C2F30E02A0F8442070471AB183890B4393
:1010C000838102E083898B438381704770B500245C
:1010D00000220023058C4FF6FE7635400584028CF5
:1010E0008388048B4FF68F752C40B51E2C400D88DD
:1010F0002C43751E2A408D892A434D882A43104D62
:10110000A84202D00F4DA84213D14FF6F7752A40DE
:10111000CD892A434FF6FB752A408D882A434FF626
:10112000FF652B404FF6FF552B400D8A2B434D8A10
:101130002B43838004838D684563028470BD000067
:1011400000000140000401400A460021018B4FF6D7
:10115000F7731940114301837047000070B50024F4
:1011600000220023058C4FF6EF7635400584028C73
:101170008388048B48F6FF752C404FF6FF452C40C2
:101180000D884FF6FF7606EA05252C434FF6DF75EE
:101190002A408D8906EA05152A434D8806EA051579
:1011A0002A43154DA84202D0144DA8421DD14FF636
:1011B0007F752A40CD894FF6FF7606EA05152A434A
:1011C0004FF6BF752A408D8806EA05152A434FF66B
:1011D000FF352B404FF2FF752B400D8A06EA85053F
:1011E0002B434D8A06EA85052B43838004838D6853
:1011F0008563028470BD00000000014000040140CE
:101200000A460021018B4FF2FF7319404FF6FF731E
:1012100003EA0223194301837047000070B50024DC
:1012200000220023058C4FF6FF6635400584028CB2
:101230008388848B4FF68F752C404FF6FC752C40BD
:101240000D882C434FF6FF552A408D894FF6FF76C7
:1012500006EA05252A434D8806EA05252A43154D49
:10126000A84202D0144DA8421DD14FF2FF752A406A
:10127000CD894FF6FF7606EA05252A434FF6FF355E
:101280002A408D8806EA05252A434EF6FF752B4035
:101290004DF6FF752B400D8A06EA05152B434D8A46
:1012A00006EA05152B43838084838D68C563028419
:1012B00070BD000000000140000401400A4600210A
:1012C000818B4FF6F77319401143818370470000FB
:1012D00070B5002200230024058C4EF6FF763540C1
:1012E0000584038C8488828B48F6FF752A404FF66C
:1012F000FF452A400D884FF6FF7606EA05252A436A
:101300004DF6FF752B408D8906EA05352B434D8838
:1013100006EA05352B430A4DA84202D0094DA842E2
:1013200008D14BF6FF752C400D8A4FF6FF7606EA82
:1013300085152C43848082838D680564038470BD89
:1013400000000140000401400A460021818B4FF259
:10135000FF7319404FF6FF7303EA02231943818399
:101360007047002101804180818081608181C1813D
:10137000018241827047000000220288184B984287
:101380000ED0184B98420BD0B0F1804F08D0164BBE
:10139000984205D0154B984202D0154B984204D183
:1013A0004FF68F731A404B881A43124B984207D05E
:1013B000114B984204D04FF6FF431A400B891A4351
:1013C00002804B68C3620B880385054B984202D0AC
:1013D000044B984201D18B7A0386012383827047A4
:1013E00000000140000401400004004000080040EB
:1013F000000C0040001000400014004010B50248EE
:1014000000F0DBF810BD0000A400002001F4007221
:10141000B2F5007F00D100BFCA430280704721B1FE
:10142000828942F40052828104E082894DF6FF7382
:101430001A408281704770B50246002400230025BF
:10144000002040F66A16B14200D100BFC1F3421538
:1014500001F01F03012606FA03F3012D02D196893C
:10146000334006E0022D02D1168A334001E0968A0D
:1014700033400C12012606FA04F41688344013B1E6
:101480000CB1012000E0002070BDF0B5034600243F
:1014900000260025002040F66A17B94200D100BF9F
:1014A0001846C1F3421401F01F06012707FA06F59A
:1014B000012C01D10C3004E0022C01D1103000E0ED
:1014C00014301AB107682F43076002E00768AF4382
:1014D0000760F0BD2DE9FF4705460E460024A146F2
:1014E00000BFA046B08900B100BF2C8A24F440544C
:1014F000F08804432C82AC8941F20C608443B088AC
:1015000031890843718908430443AC81AC8A24F4CF
:101510004074B0890443AC826846FFF7DBFA204888
:10152000854202D01F48854202D1DDF80C9001E0CF
:10153000DDF80890A88900F4004040B109EBC9002B
:1015400000EB091031684900B0FBF1F707E009EB47
:10155000C90000EB091031688900B0FBF1F7642085
:10156000B7FBF0F004012009642101FB1078A88981
:1015700000F4004040B1322000EBC800B0FBF1F0B5
:1015800000F00700044308E0322000EB081064215B
:10159000B0FBF1F000F00F0004432C81BDE8FF87A1
:1015A000001001400014014001468888C0F3080083
:1015B0007047C1F308028280704770B5044640F25C
:1015C00025512068FFF737FFE0B12068FFF7ECFFF7
:1015D000C5B2E18AA0684554E08A401C80B2E0822E
:1015E000E189884201DB0020E082608BE18988424A
:1015F00002DA608B401C6083606A10B12846616A21
:10160000884700BF40F227712068FFF714FF08B336
:10161000A08A60B9002240F227712068FFF735FFE9
:10162000012240F226612068FFF72FFF37E0638A2E
:101630006268D15C2068FFF7BCFF608A401C80B202
:101640006082A189884201DB00206082A08A401E5E
:10165000A08224E040F226612068FFF7ECFEF0B1A2
:10166000A08A50B9002240F226612068FFF70DFFE2
:10167000206AA0B1206A804711E0638A6268D15C69
:101680002068FFF796FF608A401C80B26082A189C3
:10169000884201DB00206082A08A401EA08270BDCB
:1016A0000A480B4908600B4848600B4888604FF4B3
:1016B00080608881C881002008824882C8820883AF
:1016C00048838882C8610862486270470010014000
:1016D000A4000020CC000020CC0400207CB50546EE
:1016E0000C46284600F002F906460121FFF7C2F930
:1016F000009401208DF8040000208DF806000220DF
:101700008DF8050069462846FEF731FF7CBD0000D4
:101710002DE9FC4706460D4614469946304600F032
:10172000E5F807460121FFF7A5F9009502208DF89D
:10173000040000208DF8060002208DF8050000202E
:101740008DF8070069463046FEF711FF0A488442CB
:1017500002D10A4884420DD0204600F033F8C7B2C7
:10176000284600F07DF81FFA80F83A464146304698
:10177000FEF745FFBDE8FC87001000400014004064
:1017800010B504464FF47A7104FB01F000F002F842
:1017900010BD000030B5084C63680021074C246878
:1017A000074DB4FBF5F404FB00F202E0024C646860
:1017B000E11A9142FAD330BD001000E02800002069
:1017C00040420F0001461C48814201D10120704770
:1017D000B1F1804F01D10120F9E71848814201D1D0
:1017E0000220F4E71648814201D10220EFE71548B4
:1017F000814201D10220EAE71348814201D103204E
:10180000E5E71248814201D10320E0E71048814218
:1018100001D10320DBE70F48814201D10320D6E745
:101820000D48814201D10920D1E70C48814201D104
:101830000920CCE70920CAE700000140000400406D
:1018400000080040000C004000040140004001403E
:10185000004401400048014000180040001C0040C6
:101860000146012901D100207047022901D1012040
:10187000FAE7042901D10220F6E7082901D1032063
:10188000F2E7102901D10420EEE7202901D105203B
:10189000EAE7402901D10620E6E7802901D10720A7
:1018A000E2E7B1F5807F01D10820DDE7B1F5007FE7
:1018B00001D10920D8E7B1F5806F01D10A20D3E723
:1018C000B1F5006F01D10B20CEE7B1F5805F01D1FA
:1018D0000C20C9E7B1F5005F01D10D20C4E7B1F5D7
:1018E000804F01D10E20BFE70F20BDE70146002049
:1018F000114A914201D101201CE0104A914201D1CC
:10190000022017E00E4A914201D1042012E00D4A54
:10191000914201D108200DE00B4A914201D11020E3
:1019200008E00A4A914201D1202003E0084A91428E
:1019300000D1402070470000000002400004024037
:1019400000080240000C0240001002400014024057
:101950000018024001460020244A914201D1012092
:1019600042E0234A914201D102203DE0214A9142C6
:1019700002D14FF4803037E01F4A914202D14FF438
:10198000003031E01D4A914202D14FF480202BE01B
:10199000B1F1804F01D1012026E0194A914201D1D5
:1019A000022021E0174A914201D104201CE0164A8E
:1019B000914201D1082017E0144A914201D1102030
:1019C00012E0134A914201D120200DE0114A9142C8
:1019D00001D1402008E0104A914201D1802003E06B
:1019E0000E4A914200D18815704700000000014066
:1019F0000004014000400140004401400048014013
:101A00000004004000080040000C004000100040AE
:101A10000014004000180040001C0040002000405E
:101A200010B501210803FFF725F84FF44070FFF7C8
:101A300017F800F005F800F017F8FEF78BFF10BD5F
:101A40000748006840F0807005490860002005499B
:101A500048600846006840F00100086070470000D8
:101A6000FCED00E0001000E010B5FFF719FEFEF7F6
:101A7000F3FDFEF76BFD10BD2DE9FF4F89B08346E6
:101A800014461D46DDE91669B9F1000F03D042F294
:101A90001070814515D100212046FFF7F3FA584612
:101AA0000A99FFF71BFEB9F1000F01D1012000E0F8
:101AB0000020024658460A99FEF7C8FD0DB0BDE861
:101AC000F08F2B46224658460A99FFF721FE5F48C1
:101AD00084420BD05E48844208D05E48844205D0E0
:101AE0005D48844202D05D48844207D12046FFF71A
:101AF00031FF01210090FEF7DDFF06E02046FFF7F1
:101B000029FF01210090FEF7C5FF504884420BD009
:101B10004F48844208D04F48844205D04E48844202
:101B200002D04E48844203D14D48D0F8008002E0F4
:101B30004B48D0F80080642E0AD242F20F7A42F26B
:101B40001070B8FBF0F0B0FBF6F0401E87B213E067
:101B500040F6B830864209D24FF0630A6420B8FBE1
:101B6000F0F0B0FBF6F0401E87B205E04FF0000A3F
:101B7000B8FBF6F0401E87B20797ADF818A000201A
:101B8000ADF82000ADF81A008DF8220006A9204615
:101B9000FFF7F2FB01A8FFF7E4FB6020ADF80400BB
:101BA0000020ADF8060009FB07F042F21071B0FB0F
:101BB000F1F003900020ADF810000420ADF808000B
:101BC0000020ADF81200ADF81400ADF81600012D9C
:101BD00008D101A92046FFF779FA08212046FFF72E
:101BE000B3FA1FE0022D08D101A92046FFF7B6FA8B
:101BF00008212046FFF704FB14E0032D08D101A9BA
:101C00002046FFF70BFB08212046FFF757FB09E0B2
:101C1000042D07D101A92046FFF75AFB08212046D1
:101C2000FFF792FB01212046FFF720FA0121204611
:101C3000FFF728FA0548844202D00548844203D1C0
:101C400001212046FFF72AFA00BF37E700000140D4
:101C500000040140004001400044014000480140B0
:101C6000280000202DE9FF5F04460D4691469A4664
:101C70007348844202D07348844207D12046FFF75C
:101C800069FE83460121FEF715FF06E02046FFF7B7
:101C900061FE83460121FEF7FDFE002D41D10021AA
:101CA0002046FFF7EFF9AB466548844202D14FF07A
:101CB000190B28E0B4F1804F02D14FF01C0B22E049
:101CC0006148844202D14FF01D0B1CE05F48844202
:101CD00002D14FF01E0B16E05D48844202D14FF056
:101CE000320B10E05B48844202D14FF0360B0AE021
:101CF0005948844202D14FF0370B04E051488442E6
:101D000001D14FF02C0B8DF800B08DF801908DF8BB
:101D100002A000208DF803006846FEF765FEBDE8CE
:101D2000FF9F474884420BD04648844208D04B4826
:101D3000844205D04A48844202D04A48844202D1B3
:101D40004948066801E048480668642D0AD242F214
:101D50000F7842F21070B6FBF0F0B0FBF5F0401EC9
:101D600087B213E040F6B830854209D24FF06308DD
:101D70006420B6FBF0F0B0FBF5F0401E87B205E042
:101D80004FF00008B6FBF5F0401E87B20297ADF8A1
:101D900004800020ADF80C00ADF806008DF80E00B0
:101DA00001A92046FFF7E8FA01212046FFF75EF976
:101DB000012211462046FFF780F901212046FFF756
:101DC00061F94FF0000B1E48844202D14FF0190B0D
:101DD00028E0B4F1804F02D14FF01C0B22E01A48EA
:101DE000844202D14FF01D0B1CE01848844202D1FE
:101DF0004FF01E0B16E01648844202D14FF0320B12
:101E000010E01448844202D14FF0360B0AE0124829
:101E1000844202D14FF0370B04E00A48844201D1DA
:101E20004FF02C0B8DF800B08DF801908DF802A0CA
:101E300001208DF803006846FEF7D6FD00BF6EE76F
:101E40000000014000040140000400400008004080
:101E5000000C004000100040001400400040014011
:101E6000004401400048014028000020012080F388
:101E7000108800BFFFF7D4FD00F082FCFEF74CFB9A
:101E8000FEF740FB00F0F6FC00BFFEE72DE9F04155
:101E900005460E461C4807681C480068001D00F0F7
:101EA00089FB50B91948006890F82C10012088402F
:101EB00017490968814316480160681C38B936B172
:101EC00012480168091D134800F0B2FB1AE07C19A2
:101ED0000E4800684460BC4207D20C480168091DE6
:101EE0000D48006800F08AFB0CE008480168091DF5
:101EF0000A48006800F082FB09480068844201D269
:101F000007480460BDE8F081500000203C0000203C
:101F100054000020800900204400002040000020E0
:101F20006C00002010B5044600F08EFB24480068C9
:101F3000401C234908602348006840B921480460D8
:101F40000846006801280DD100F092F90AE01E4809
:101F5000006838B91B480068C06AE16A884201D845
:101F60001848046019480068401C18490860084671
:101F70000068606494F82C100120884014490968B6
:101F8000084313490860E16A01EB8101114A02EB41
:101F90008100211D00F04CFB00F080FB0A48006826
:101FA00068B108480068C06AE16A884207D24FF009
:101FB000805009490860BFF34F8FBFF36F8F10BD8A
:101FC0004C0000203C000020580000206800002049
:101FD00054000020CC08002004ED00E070B523E0A0
:101FE00000F090FC1348006808B9012000E00020D0
:101FF000054601F059F8BDB900F026FB0D48C06850
:10200000C468201D00F0D6FA0B480068401E0A493B
:1020100008600A480068401E0849086000F03EFB5E
:10202000204600F04BF800BF044800680028D7D1D4
:1020300070BD00006C0900204C000020480000200A
:102040002DE9F04104460F4615464FF00008A66BF7
:10205000206C40B9206860BB606800F075FF804666
:102060000020606025E07DB93946226CA068FEF74B
:1020700043F9216CA0680844A060D4E901108842AB
:1020800017D32068A06014E03946226CE068FEF7A0
:1020900033F9216CE068401AE0602168E06888420A
:1020A00003D2216C6068401AE060022D01D106B1B4
:1020B000761E701CA0634046BDE8F08110B5044652
:1020C000206B00F009FB204600F006FB10BD00006D
:1020D00030B54FF48843174800F007042CB1C01DF9
:1020E00020F00700134C041B1B1B0246124C2260FD
:1020F0000024114D6C60D018083820F007000F4CF8
:10210000206000240D4D2D686C600C4D2D682C60F6
:102110001146441A4C60094C24680C60084D4C6808
:102120002C60084D4C682C604FF00044064D2C602C
:1021300030BD0000940900208000002088000020AD
:10214000900000208C0000209400002000BFFFF7CA
:1021500045FF064800680128F9D94FF0805004492E
:102160000860BFF34F8FBFF36F8FF0E7CC080020FC
:1021700004ED00E010B504464CB100206060206022
:10218000E06000231A461946204600F003FD10BD0A
:102190002DE9F04106460D4617469846069C0DB9B6
:1021A000246000E02760E66325640121204600F0FA
:1021B000A5FC84F84C80BDE8F0812DE9F05F8246F3
:1021C0000F4690469B460A9E0C9C4FEA8801A5222A
:1021D000206BFEF7D6F8A8F10100216B01EB800916
:1021E00029F0070909F0070008B9012000E00020E4
:1021F00050B900BF102080F31188BFF34F8FBFF399
:102200006F8F00BF00BFFEE7002507E0795D04F196
:1022100034004155785D00B902E06D1C102DF5D3F6
:1022200000BF002143200155052E00D30426E6629D
:10223000E66400202065201D00F0DDF904F118009F
:1022400000F0D9F92461C6F10500A06164620020A4
:102250006065A06584F85C005A465146484600F027
:1022600097F920600B9808B10B980460BDE8F09FC7
:1022700010B5002407E004EB84010F4A02EB810053
:1022800000F0ACF9641C052CF5D30C4800F0A6F95D
:102290000B4800F0A3F90B4800F0A0F90A4800F041
:1022A0009DF90A4800F09AF9044809490860044871
:1022B0000849086010BD0000CC080020300900204B
:1022C00044090020580900206C09002080090020E2
:1022D000400000204400002010B50146164800E0F0
:1022E000006803688B42FBD30246436813448B4269
:1022F00004D143684C682344436001460A464B6856
:1023000013440468A34211D10C4C03682468A3420F
:1023100008D04B680468646823444B6003681B68FA
:102320000B6005E0054B1B680B6001E003680B6068
:10233000884200D0016010BD80000020880000208D
:1023400070B5054600F080F9A86BE96B884201D1B1
:10235000012400E0002400F0A1F9204670BD000037
:102360000A490968096809B9012100E0002121B181
:102370004FF0FF31064A116006E004490968C96858
:10238000C868034A4168116070470000400000209F
:102390006C0000200E480068401C08B9012000E0D5
:1023A000002050B900BF102080F31188BFF34F8F79
:1023B000BFF36F8F00BF00BFFEE700BF102080F3A8
:1023C0001188BFF34F8FBFF36F8F00BF00BFFEE7D1
:1023D0009800002070B5044600F036F994F9455095
:1023E00010E0606A08B9012000E0002038B904F16B
:1023F000240000F00DFE18B100F002FA00E003E046
:10240000681E45B2002DECDC00BFFF2084F84500BB
:1024100000F044F900F018F994F9445010E02069F4
:1024200008B9012000E0002048B904F1100000F0D4
:10243000EFFD08B100F0E4F9681E45B200E001E0EC
:10244000002DECDC00BFFF2084F8440000F026F9EA
:1024500070BD00002DE9F04104464FF0000800F087
:1024600051FA4648006808B9FFF732FE4448006850
:10247000204000286BD1D4B1083404F00700B0B17B
:1024800004F00700C0F10800044404F0070008B994
:10249000012000E0002050B900BF102080F3118817
:1024A000BFF34F8FBFF36F8F00BF00BFFEE7002C5D
:1024B0004DD034480068844249D8334E30460568D0
:1024C00001E02E462D686868A04202D228680028E4
:1024D000F7D12A480068854239D0306800F10808F1
:1024E000286830606868001B102819D92F1907F078
:1024F000070008B9012000E0002050B900BF1020FB
:1025000080F31188BFF34F8FBFF36F8F00BF00BF01
:10251000FEE76868001B78606C603846FFF7DCFEF9
:10252000184968680968081A16490860084600686A
:1025300016490968884203D21248006813490860A6
:102540000F4968680968084368600020286000F047
:10255000ABFD08F0070008B9012000E0002050B9E9
:1025600000BF102080F31188BFF34F8FBFF36F8F30
:1025700000BF00BFFEE74046BDE8F08188000020B4
:10258000940000208C00002080000020900000209B
:10259000001F4FF080730360001F21F001030360F0
:1025A000001F034B0360143802602038704700009E
:1025B0009523000801460A69D1E901309860D1E904
:1025C000010358605068884201D18868506000203B
:1025D00008611068401E10601068704700F1080123
:1025E00041604FF0FF31816000F10801C16001617D
:1025F00000210160704700210161704710B502465B
:102600000B685C1C0CB9106907E002F1080000E0DF
:102610004068446824689C42FAD944684C604C681D
:10262000A160886041600A611468641C146010BD78
:1026300042684A6093688B60936859609160086152
:1026400003685B1C0360704700BF102080F3118893
:10265000BFF34F8FBFF36F8F00BF0E480068401C61
:102660000C49086008460068012812D10A48006831
:10267000C0B208B9012000E0002050B900BF10200E
:1026800080F31188BFF34F8FBFF36F8F00BF00BF80
:10269000FEE770479800002004ED00E00D48006858
:1026A00050B900BF102080F31188BFF34F8FBFF3E4
:1026B0006F8F00BF00BFFEE706480068401E054957
:1026C00008600846006820B9002080F3118800BF28
:1026D00000BF70479800002070B506463546002EB2
:1026E0003FD0083D2C461F4960680968084008B182
:1026F000012000E0002050B900BF102080F31188B5
:10270000BFF34F8FBFF36F8F00BF00BFFEE720689E
:1027100008B9012000E0002050B900BF102080F36C
:102720001188BFF34F8FBFF36F8F00BF00BFFEE76D
:102730000C4960680968084098B1206888B909495F
:10274000606809688843606000F0DCF806496068EA
:1027500009680844044908602046FFF7BDFD00F001
:10276000A3FC70BD940000208C00002003484FF0B3
:10277000E02148610720086170470000BFD40100D4
:1027800010B50023012244F620610248FFF76AFADF
:1027900010BD00000010004003E04FF47A7000F01C
:1027A00001F8FAE770B504460025D4B11248006874
:1027B00008B9012000E0002050B900BF102080F3CC
:1027C0001188BFF34F8FBFF36F8F00BF00BFFEE7CD
:1027D00000F098F800212046FFF758FB00F064FC59
:1027E00005463DB94FF0805004490860BFF34F8F54
:1027F000BFF36F8F70BD00007400002004ED00E097
:1028000001200149086070476000002070B504464F
:102810000D4654B900BF102080F31188BFF34F8FCD
:10282000BFF36F8F00BF00BFFEE705480168183196
:102830002046FFF7E3FE01212846FFF727FB70BD86
:102840003C00002050B900BF102181F31188BFF374
:102850004F8FBFF36F8F00BF00BFFEE703490968CA
:10286000016003490968416070470000640000206E
:10287000500000201CB51B4800210B468022CDE9EA
:10288000001019A11A4800F08BFA0446012C17D148
:1028900000BF102080F31188BFF34F8FBFF36F8FFD
:1028A00000BF4FF0FF301349086001201249086053
:1028B0000020124908601249086000F091F810E009
:1028C000601C08B1012000E0002050B900BF1020BA
:1028D00080F31188BFF34F8FBFF36F8F00BF00BF2E
:1028E000FEE71CBD7000002049444C45000000007C
:1028F0004D2100086C0000205800002050000020EE
:102900000800002002480068401C01490860704728
:10291000740000202A48006818B101202949086085
:102920004CE00020274908602748006827490860D4
:10293000084600682649096888420BD92549096874
:1029400001F15400496D214A1268214B1B68D21ACB
:10295000114401601D4800681D4908601E48006858
:10296000B0FA80F0C0F11F0101EB81001B4A52F860
:10297000200008B1012000E0002050B900BF102065
:1029800080F31188BFF34F8FBFF36F8F00BF00BF7D
:10299000FEE701EB8102114B03EB820042685268B3
:1029A000426000F108024368934202D142685268D3
:1029B00042604268D268074B1A6000BF704700004F
:1029C0007400002060000020080000207C0000202F
:1029D000780000203C00002054000020CC0800209B
:1029E0001CB52248014609780191FF210246117069
:1029F0000146097800919DF8001001F010011C4A71
:102A0000117007211B4A116009E01A490968491E23
:102A1000184A11609DF800104906090E00919DF8B2
:102A2000001001F080018029EFD0124909680902E5
:102A3000104A11601146098801F4E06111600B4AE7
:102A4000019911700C48006840F470000A49086050
:102A50000846006840F070400860FFF787FE0020DD
:102A600006490860FDF7EEFB00201CBD00E400E015
:102A70009C000020A000002020ED00E09800002035
:102A80002DE9F041044601260027224600210120BD
:102A900000F007F805462846FFF76CFB2846BDE81E
:102AA000F0812DE9F84305460E4690460DB1012010
:102AB00000E0002050B900BF102080F31188BFF360
:102AC0004F8FBFF36F8F00BF00BFFEE70EB9002727
:102AD00001E005FB06F707F15000FFF7BBFC0446D9
:102AE00044B104F1500943464A4631462846009411
:102AF000FFF74EFB2046BDE8F883000070B50546A1
:102B00000E462C4654B900BF102080F31188BFF345
:102B10004F8FBFF36F8F00BF00BFFEE7FFF794FD3D
:102B2000D4E90F12206801FB020060600020A0635E
:102B30002068A060E06B401E226C216800FB021040
:102B4000E060FF2084F8440084F845009EB92069C5
:102B500008B9012000E00020A8B904F1100000F03D
:102B600057FA80B14FF0805009490860BFF34F8F8A
:102B7000BFF36F8F07E004F11000FFF72FFD04F1A2
:102B80002400FFF72BFDFFF789FD012070BD000039
:102B900004ED00E02DE9FF4383B0064688461D465C
:102BA0004FF00009344654B900BF102080F311885B
:102BB000BFF34F8FBFF36F8F00BF00BFFEE7B8F1C9
:102BC000000F01D1206C08B9012000E0002050B9AD
:102BD00000BF102080F31188BFF34F8FBFF36F8FBA
:102BE00000BF00BFFEE7022D02D1E06B012801D13A
:102BF000012000E0002050B900BF102080F31188B0
:102C0000BFF34F8FBFF36F8F00BF00BFFEE700BF62
:102C1000FFF71AFDA06BE16B884201D3022D28D18A
:102C20002A4641462046FFF70BFA0746606A08B974
:102C3000012000E0002068B904F1240000F0E8F968
:102C400088B14FF0805032490860BFF34F8FBFF317
:102C50006F8F08E03FB14FF080502D490860BFF3FF
:102C60004F8FBFF36F8FFFF719FD012007B0BDE84D
:102C7000F083059818B9FFF711FD0020F6E7B9F1C8
:102C8000000F04D101A8FFF7DDFD4FF00109FFF7A8
:102C900005FDFFF737FEFFF7D7FC94F94400401C11
:102CA00010B9002084F8440094F94500401C10B984
:102CB000002084F84500FFF7F1FC05A901A800F009
:102CC00029F8F0B92046FFF73BFBA0B104F1100052
:102CD0000599FFF79BFD2046FFF77CFB00F0E4F928
:102CE000002895D14FF0805009490860BFF34F8FFD
:102CF000BFF36F8F8CE72046FFF76CFB00F0D4F931
:102D000086E72046FFF766FB00F0CEF90020ADE72E
:102D100004ED00E070B504460D4654B900BF102024
:102D200080F31188BFF34F8FBFF36F8F00BF00BFD9
:102D3000FEE755B900BF102080F31188BFF34F8F15
:102D4000BFF36F8F00BF00BFFEE7FFF77DFC1248A7
:102D500003682868401C08B9002619E00F4920685C
:102D60000968884204D06068984201D801260FE0C3
:102D70006068181A2968884209D228686168591A57
:102D8000401A28602046FFF75DFD002600E001267E
:102D9000FFF784FC304670BD500000206400002026
:102DA0002DE9FF4F85B0804689461746DDE912AB15
:102DB000B800FFF74FFB064656B16020FFF74AFB0D
:102DC00004460CB1266304E03046FFF785FC00E0C2
:102DD00000247CB10020CDE900ABCDE902403A46A9
:102DE00049464046089BFFF7E8F92046FFF79AF866
:102DF000012501E04FF0FF35284609B0BDE8F08F0E
:102E00002DE9F0414FF0000844480068002877D1D0
:102E100043480068451C4248056015BB41480068AE
:102E2000006808B9012000E0002050B900BF102060
:102E300080F31188BFF34F8FBFF36F8F00BF00BFC8
:102E4000FEE7384807683848006836490860364861
:102E5000076036480068401C34490860FFF780FA74
:102E600000BF3348006885423CD300BF2D4800684E
:102E7000006808B9012000E0002020B14FF0FF30C9
:102E80002B4908602DE027480068C068C468666860
:102E9000B54202D22648066023E0201DFFF78AFBD8
:102EA000A06A18B104F11800FFF784FB94F82C1005
:102EB000012088401F49096808431E490860E16AEB
:102EC00001EB81011C4A02EB8100211DFFF7B0FBE1
:102ED0001A49E06A0968C96A8842C7D34FF00108F5
:102EE000C4E700BF15480068C06A00EB80001249C3
:102EF00051F82000012801D94FF0010805E0FFE753
:102F00000F480068401C0E4908600E48006808B170
:102F10004FF001084046BDE8F08100007400002039
:102F200050000020400000204400002064000020E9
:102F30006C00002054000020CC0800203C00002041
:102F40005C0000206000002070B505462C4600267D
:102F5000002D55D02B480068844201D1012000E0AB
:102F6000002050B900BF102080F31188BFF34F8FAD
:102F7000BFF36F8F00BF00BFFEE7206D50B900BFE9
:102F8000102080F31188BFF34F8FBFF36F8F00BF06
:102F900000BFFEE7206D401E2065E16CE06A8842BC
:102FA0002ED0206D60BB201DFFF704FB78B9E06ACE
:102FB00000EB8000144951F8200040B994F82C101F
:102FC0000120884011490968814310480160E06C84
:102FD000E062E06AC0F10500A06194F82C100120C5
:102FE00088400A490968084308490860E16A01EB1A
:102FF0008101054A02EB8100211DFFF719FB012623
:10300000304670BD3C000020CC0800205400002059
:1030100070B50646F068C46854B900BF102080F34C
:103020001188BFF34F8FBFF36F8F00BF00BFFEE764
:1030300004F11800FFF7BEFA15480068A8B9201D72
:10304000FFF7B8FA94F82C1001208840114909685C
:10305000084310490860E16A01EB81010E4A02EB66
:103060008100211DFFF7E4FA04E004F118010B4888
:10307000FFF7DEFA0A49E06A0968C96A884204D99A
:10308000012501200749086000E00025284670BDA1
:103090007400002054000020CC08002058090020B3
:1030A0003C0000206000002070B500240026364857
:1030B000006850B900BF102080F31188BFF34F8F14
:1030C000BFF36F8F00BF00BFFEE7FFF7BDFA2E48CA
:1030D0000068401E2C4908600846006800284FD14F
:1030E0002A48006800284BD024E02948C068C468FA
:1030F00004F11800FFF75EFA201DFFF75BFA94F861
:103100002C100120884023490968084321490860A0
:10311000E16A01EB8101204A02EB8100211DFFF7EA
:1031200087FA1E49E06A0968C96A884202D3012009
:103130001B4908601648006808B9012000E000201B
:103140000028D2D00CB1FFF70BF91648056865B11D
:1031500000BFFFF755FE10B10120114908606D1E38
:10316000002DF6D100200F4908600D48006838B1E5
:10317000012630070C490860BFF34F8FBFF36F8FF4
:10318000FFF78CFA304670BD740000204C00002020
:103190005809002054000020CC0800203C000020EA
:1031A000600000205C00002004ED00E0CC3100084D
:1031B00000000020A4000000C001000870320008D8
:1031C000A400002054530000DC01000800000000AF
:1031D00000000000000000000140F000400100007D
:1031E00000000000000102030401020304060708B6
:1031F00009000000000E270700000000000000008A
:103200000102030406070809000000000000000096
:1032100000000000000000000000000000000000AE
:10322000000000000000000000000000000000009E
:10323000000000000000000000000000000000008E
:10324000000000000000000000000000000000007E
:10325000000000000000000000000000000000006E
:1032600000000000AAAAAAAA0000000000000000B6
:040000050800018569
:00000001FF
