:020000040800F2
:10000000A04B0020B9020008C1020008C30200088A
:10001000C5020008C7020008C9020008000000006D
:1000200000000000000000000000000021020008A5
:10003000CD02000800000000650200081906000853
:10004000D3020008D3020008D3020008D30200083C
:10005000D3020008D3020008D3020008D30200082C
:10006000D3020008D3020008D3020008D30200081C
:10007000D3020008D3020008D3020008D30200080C
:10008000D3020008D3020008D3020008D3020008FC
:10009000D3020008D3020008D3020008D3020008EC
:1000A000D3020008D3020008D3020008D3020008DC
:1000B000D3020008D3020008D3020008D3020008CC
:1000C000D3020008D3020008D3020008D3020008BC
:1000D000D3020008D3020008D3020008D3020008AC
:1000E000D3020008D3020008D3020008D30200089C
:1000F000D3020008D3020008D3020008D30200088C
:10010000D3020008D3020008D3020008D30200087B
:10011000D3020008D3020008D3020008D30200086B
:10012000D3020008D3020008D3020008D30200085B
:10013000D3020008D3020008D3020008D30200084B
:10014000D3020008D3020008D3020008D30200083B
:10015000D3020008D3020008D3020008D30200082B
:10016000D3020008D3020008D3020008D30200081B
:10017000D3020008D3020008D3020008D30200080B
:10018000D302000800F002F800F03AF80AA090E864
:10019000000C82448344AAF10107DA4501D100F042
:1001A0002FF8AFF2090EBAE80F0013F0010F18BFD5
:1001B000FB1A43F001031847181800003818000014
:1001C000103A24BF78C878C1FAD8520724BF30C883
:1001D00030C144BF04680C60704700000023002455
:1001E00000250026103A28BF78C1FBD8520728BF47
:1001F00030C148BF0B6070471FB51FBD10B510BDA3
:1002000000F045F91146FFF7F7FF00F04DFA00F056
:1002100063F903B4FFF7F2FF03BC00F06BF90000D1
:10022000224B19680868B0E8F00F80F30988BFF323
:100230006F8F4FF0000080F311884EF00D0E704765
:100240000000000006480068006880F3088862B675
:1002500061B6BFF34F8FBFF36F8F00DF00BF00BFEA
:1002600008ED00E0EFF30980BFF36F8F0F4B1A68C2
:1002700020E9F00F106008B54FF0100080F31188EE
:10028000BFF34F8FBFF36F8F00F056FF4FF00000AA
:1002900080F31188BDE8084019680868B0E8F00FDD
:1002A00080F30988BFF36F8F704700BF0C000020F8
:1002B000EFF3058070470000094880470948004770
:1002C000FEE7FEE7FEE7FEE7FEE7FEE7FEE7FEE706
:1002D000FEE7FEE704480549054A064B7047000063
:1002E0004D06000885010008A0450020A04B002015
:1002F000A0470020A0470020032A40F2308010F0E1
:10030000030C00F0158011F8013BBCF1020F6244B0
:1003100098BF11F801CB00F8013B38BF11F8013B41
:10032000A2F1040298BF00F801CB38BF00F8013BEE
:1003300011F0030300F03080083AC0F0088051F853
:10034000043B083A51F804CBA0E80810F5E7121D69
:100350005CBF51F8043B40F8043BAFF30080D20788
:1003600024BF11F8013B11F801CB48BF11F8012B54
:1003700024BF00F8013B00F801CB48BF00F8012B77
:10038000704702F0FF0343EA032242EA024200F010
:1003900037B870477047704710B5203AC0F00B80EF
:1003A000B1E81850203AA0E81850B1E81850A0E879
:1003B0001850BFF4F5AF5FEA027C24BFB1E81850D3
:1003C000A0E8185044BF18C918C0BDE810405FEA43
:1003D000827C24BF51F8043B40F8043B08BF7047BF
:1003E000D20728BF31F8023B48BF11F8012B28BFC4
:1003F00020F8023B48BF00F8012B70474FF0000285
:100400000429C0F0128010F0030C00F01B80CCF126
:10041000040CBCF1020F18BF00F8012BA8BF20F894
:10042000022BA1EB0C0100F00DB85FEAC17C24BFE8
:1004300000F8012B00F8012B48BF00F8012B704792
:100440004FF0000200B5134694469646203922BF6D
:10045000A0E80C50A0E80C50B1F12001BFF4F7AFB8
:10046000090728BFA0E80C5048BF0CC05DF804EB9A
:10047000890028BF40F8042B08BF704748BF20F808
:10048000022B11F0804F18BF00F8012B7047754602
:1004900000F02CF8AE4605006946534620F00700F0
:1004A000854618B020B5FFF715FFBDE820404FF096
:1004B00000064FF000074FF000084FF0000B21F04E
:1004C0000701AC46ACE8C009ACE8C009ACE8C0091B
:1004D000ACE8C0098D46704710B50446AFF3008004
:1004E0002046BDE81040FFF794BE0000004870476A
:1004F0003C45002001491820ABBEFEE72600020063
:100500007047000010B5012000F0CCFE01490860E2
:1005100010BD0000040000201CB506480521002382
:100520004FF40072CDE9001003A1074801F04AF82A
:100530001CBD000000000020765461736B416463B1
:1005400050726F6300000000BB0F00080CB5002064
:10055000019000902D48006840F480302B490860DD
:1005600000BF2A48006800F4003000900198401C49
:100570000190009818B90198B0F5A06FF1D1234807
:10058000006800F4003010B10120009001E000206C
:1005900000900098012838D11C48083000681B4999
:1005A000083108600846006840F4004008600846CA
:1005B000006840F4A05008601548091F0860081F33
:1005C000006840F08070091F086000BF0F48006895
:1005D00000F000700028F9D040F203700D49086067
:1005E0000A480830006820F0030008490831086014
:1005F0000846006840F00200086000BF0348083069
:10060000006800F00C000828F8D10CBD003802404A
:10061000193C4005003C024010B500BF102080F39B
:100620001188BFF34F8FBFF36F8F00BF00F0FAFF49
:1006300018B14FF080500449086000BF002080F3DB
:10064000118800BF10BD000004ED00E010B5124895
:10065000006840F001001049086000200E49083190
:1006600008600D4800680D4908400B4908600C48B7
:10067000091D0860081F006820F48020091F086019
:10068000002005490C310860FFF760FF4FF0006063
:100690000449086010BD000000380240FFFFF6FE6C
:1006A0001030002408ED00E0012080F3108800BF26
:1006B00000F082FCFFF730FFFFF724FF00F0ECFCB6
:1006C00000BFFEE72DE9F04105460E461C480768CD
:1006D0001C480068001D00F089FB50B919480068EB
:1006E00090F82C100120884017490968814316486A
:1006F0000160681C38B936B112480168091D1348F9
:1007000000F0B2FB1AE07C190E4800684460BC425D
:1007100007D20C480168091D0D48006800F08AFBEB
:100720000CE008480168091D0A48006800F082FBD7
:1007300009480068844201D207480460BDE8F0819E
:10074000200000200C0000202400002028010020B0
:1007500014000020100000203C00002010B50446CA
:1007600000F08EFB24480068401C234908602348A1
:10077000006840B9214804600846006801280DD18E
:1007800000F092F90AE01E48006838B91B4800687A
:10079000C06AE16A884201D81848046019480068B4
:1007A000401C1849086008460068606494F82C10E2
:1007B0000120884014490968084313490860E16A28
:1007C00001EB8101114A02EB8100211D00F04CFB7D
:1007D00000F080FB0A48006868B108480068C06AF9
:1007E000E16A884207D24FF0805009490860BFF3A0
:1007F0004F8FBFF36F8F10BD1C0000200C00002036
:100800002800002038000020240000207400002070
:1008100004ED00E070B523E000F086FC13480068AA
:1008200008B9012000E00020054601F04FF8BDB9ED
:1008300000F026FB0D48C068C468201D00F0D6FA01
:100840000B480068401E0A4908600A480068401EBC
:100850000849086000F03EFB204600F04BF800BF5E
:10086000044800680028D7D170BD000014010020A2
:100870001C000020180000202DE9F04104460F461E
:1008800015464FF00008A66B206C40B9206860BB8D
:10089000606800F06BFF80460020606025E07DB955
:1008A0003946226CA068FFF727FD216CA068084438
:1008B000A060D4E90110884217D32068A06014E03A
:1008C0003946226CE068FFF717FD216CE068401A9A
:1008D000E0602168E068884203D2216C6068401AB9
:1008E000E060022D01D106B1761E701CA063404667
:1008F000BDE8F08110B50446206B00F009FB2046EE
:1009000000F006FB10BD000030B54FF488431748D7
:1009100000F007042CB1C01D20F00700134C041B8D
:100920001B1B0246124C22600024114D6C60D01833
:10093000083820F007000F4C206000240D4D2D6872
:100940006C600C4D2D682C601146441A4C60094CAB
:1009500024680C60084D4C682C60084D4C682C6075
:100960004FF00044064D2C6030BD00003C010020DB
:100970005000002058000020600000205C00002093
:100980006400002000BFFFF745FF0648006801280B
:10099000F9D94FF0805004490860BFF34F8FBFF37F
:1009A0006F8FF0E77400002004ED00E010B50446FE
:1009B0004CB1002060602060E06000231A461946B8
:1009C000204600F0F9FC10BD2DE9F04106460D4629
:1009D00017469846069C0DB9246000E02760E66340
:1009E00025640121204600F09BFC84F84C80BDE882
:1009F000F0812DE9F05F82460F4690469B460A9EA5
:100A00000C9C4FEA8801A522206BFFF7BAFCA8F1E5
:100A10000100216B01EB800929F0070909F00700AB
:100A200008B9012000E0002050B900BF102080F379
:100A30001188BFF34F8FBFF36F8F00BF00BFFEE77A
:100A4000002507E0795D04F134004155785D00B977
:100A500002E06D1C102DF5D300BF0021432001558D
:100A6000052E00D30426E662E66400202065201DE2
:100A700000F0DDF904F1180000F0D9F92461C6F1A5
:100A80000500A061646200206065A06584F85C00D8
:100A90005A465146484600F097F920600B9808B135
:100AA0000B980460BDE8F09F10B5002407E004EB4C
:100AB00084010F4A02EB810000F0ACF9641C052CA4
:100AC000F5D30C4800F0A6F90B4800F0A3F90B4849
:100AD00000F0A0F90A4800F09DF90A4800F09AF9E0
:100AE00004480949086004480849086010BD00002E
:100AF00074000020D8000020EC000020000100203D
:100B00001401002028010020100000201400002003
:100B100010B50146164800E0006803688B42FBD31D
:100B20000246436813448B4204D143684C68234413
:100B3000436001460A464B6813440468A34211D13E
:100B40000C4C03682468A34208D04B6804686468AE
:100B500023444B6003681B680B6005E0054B1B6872
:100B60000B6001E003680B60884200D0016010BD9B
:100B7000500000205800002070B5054600F080F9B4
:100B8000A86BE96B884201D1012400E0002400F049
:100B9000A1F9204670BD00000A490968096809B931
:100BA000012100E0002121B14FF0FF31064A116020
:100BB00006E004490968C968C868034A41681160C9
:100BC00070470000100000203C0000200E48006824
:100BD000401C08B9012000E0002050B900BF1020DF
:100BE00080F31188BFF34F8FBFF36F8F00BF00BF3B
:100BF000FEE700BF102080F31188BFF34F8FBFF3D3
:100C00006F8F00BF00BFFEE76800002070B504468C
:100C100000F036F994F9455010E0606A08B90120F7
:100C200000E0002038B904F1240000F003FE18B100
:100C300000F0F8F900E003E0681E45B2002DECDC9E
:100C400000BFFF2084F8450000F044F900F018F9D7
:100C500094F9445010E0206908B9012000E0002018
:100C600048B904F1100000F0E5FD08B100F0DAF930
:100C7000681E45B200E001E0002DECDC00BFFF2063
:100C800084F8440000F026F970BD00002DE9F04121
:100C900004464FF0000800F047FA4648006808B9DB
:100CA000FFF732FE44480068204000286BD1D4B1E1
:100CB000083404F00700B0B104F00700C0F10800E8
:100CC000044404F0070008B9012000E0002050B9F6
:100CD00000BF102080F31188BFF34F8FBFF36F8FD9
:100CE00000BF00BFFEE7002C4DD0344800688442AE
:100CF00049D8334E3046056801E02E462D686868B5
:100D0000A04202D228680028F7D12A48006885420C
:100D100039D0306800F10808286830606868001B26
:100D2000102819D92F1907F0070008B9012000E091
:100D3000002050B900BF102080F31188BFF34F8FFF
:100D4000BFF36F8F00BF00BFFEE76868001B7860CD
:100D50006C603846FFF7DCFE184968680968081AB5
:100D6000164908600846006816490968884203D297
:100D700012480068134908600F4968680968084309
:100D800068600020286000F0A1FD08F0070008B9A5
:100D9000012000E0002050B900BF102080F311882E
:100DA000BFF34F8FBFF36F8F00BF00BFFEE740461A
:100DB000BDE8F08158000020640000205C000020A5
:100DC0005000002060000020001F4FF0807303607F
:100DD000001F21F001030360001F034B0360143860
:100DE0000260203870470000CD0B000801460A69F8
:100DF000D1E901309860D1E9010358605068884218
:100E000001D188685060002008611068401E1060A1
:100E10001068704700F1080141604FF0FF318160B8
:100E200000F10801C16001610021016070470021EB
:100E30000161704710B502460B685C1C0CB9106963
:100E400007E002F1080000E04068446824689C4222
:100E5000FAD944684C604C68A160886041600A61BE
:100E60001468641C146010BD42684A6093688B600B
:100E7000936859609160086103685B1C0360704768
:100E800000BF102080F31188BFF34F8FBFF36F8F27
:100E900000BF0E480068401C0C4908600846006806
:100EA000012812D10A480068C0B208B9012000E048
:100EB000002050B900BF102080F31188BFF34F8F7E
:100EC000BFF36F8F00BF00BFFEE7704768000020D0
:100ED00004ED00E00D48006850B900BF102080F319
:100EE0001188BFF34F8FBFF36F8F00BF00BFFEE7C6
:100EF00006480068401E054908600846006820B999
:100F0000002080F3118800BF00BF704768000020F8
:100F100070B506463546002E3FD0083D2C461F4989
:100F200060680968084008B1012000E0002050B95D
:100F300000BF102080F31188BFF34F8FBFF36F8F76
:100F400000BF00BFFEE7206808B9012000E00020D4
:100F500050B900BF102080F31188BFF34F8FBFF34B
:100F60006F8F00BF00BFFEE70C496068096808404A
:100F700098B1206888B90949606809688843606049
:100F800000F0D2F80649606809680844044908601E
:100F90002046FFF7BDFD00F099FC70BD6400002005
:100FA0005C00002003484FF0E02148610720086101
:100FB00070470000BFD40100704703E04FF47A701F
:100FC00000F002F8FAE7000070B504460025D4B13D
:100FD0001248006808B9012000E0002050B900BFA5
:100FE000102080F31188BFF34F8FBFF36F8F00BFC6
:100FF00000BFFEE700F098F800212046FFF762FBF3
:1010000000F064FC05463DB94FF08050044908608B
:10101000BFF34F8FBFF36F8F70BD000044000020FF
:1010200004ED00E001200149086070473000002015
:1010300070B504460D4654B900BF102080F31188E6
:10104000BFF34F8FBFF36F8F00BF00BFFEE70548B0
:10105000016818312046FFF7EDFE01212846FFF711
:1010600031FB70BD0C00002050B900BF102181F38E
:101070001188BFF34F8FBFF36F8F00BF00BFFEE734
:10108000034909680160034909684160704700002D
:1010900034000020200000201CB51B4800210B4616
:1010A0008022CDE9001019A11A4800F08BFA0446FD
:1010B000012C17D100BF102080F31188BFF34F8F90
:1010C000BFF36F8F00BF4FF0FF301349086001205E
:1010D000124908600020124908601249086000F0B7
:1010E00091F810E0601C08B1012000E0002050B928
:1010F00000BF102080F31188BFF34F8FBFF36F8FB5
:1011000000BF00BFFEE71CBD4000002049444C4525
:1011100000000000850900083C0000202800002095
:10112000200000200800002002480068401C0149FF
:1011300008607047440000202A48006818B1012068
:10114000294908604CE000202749086027480068CA
:1011500027490860084600682649096888420BD973
:101160002549096801F15400496D214A1268214B53
:101170001B68D21A114401601D4800681D490860AF
:101180001E480068B0FA80F0C0F11F0101EB810039
:101190001B4A52F8200008B1012000E0002050B99D
:1011A00000BF102080F31188BFF34F8FBFF36F8F04
:1011B00000BF00BFFEE701EB8102114B03EB820091
:1011C00042685268426000F108024368934202D1CB
:1011D0004268526842604268D268074B1A6000BF9A
:1011E000704700004400002030000020080000206C
:1011F0004C000020480000200C00002024000020AB
:10120000740000201CB52248014609780191FF2195
:10121000024611700146097800919DF8001001F016
:1012200010011C4A117007211B4A116009E01A497C
:101230000968491E184A11609DF800104906090EF8
:1012400000919DF8001001F080018029EFD0124933
:1012500009680902104A11601146098801F4E06129
:1012600011600B4A019911700C48006840F470003D
:101270000A4908600846006840F070400860FFF7BF
:1012800091FE002006490860FEF7DCFF00201CBD2F
:1012900000E400E06C0000207000002020ED00E081
:1012A000680000202DE9F04104460126002722466F
:1012B0000021012000F007F805462846FFF776FBDD
:1012C0002846BDE8F0812DE9F84305460E469046D4
:1012D0000DB1012000E0002050B900BF102080F3C4
:1012E0001188BFF34F8FBFF36F8F00BF00BFFEE7C2
:1012F0000EB9002701E005FB06F707F15000FFF7E4
:10130000C5FC044644B104F1500943464A463146FF
:1013100028460094FFF758FB2046BDE8F8830000FC
:1013200070B505460E462C4654B900BF102080F318
:101330001188BFF34F8FBFF36F8F00BF00BFFEE771
:10134000FFF79EFDD4E90F12206801FB02006060E8
:101350000020A0632068A060E06B401E226C216822
:1013600000FB0210E060FF2084F8440084F8450090
:101370009EB9206908B9012000E00020A8B904F155
:10138000100000F057FA80B14FF080500949086012
:10139000BFF34F8FBFF36F8F07E004F11000FFF72B
:1013A00039FD04F12400FFF735FDFFF793FD01201F
:1013B00070BD000004ED00E02DE9FF4383B0064658
:1013C00088461D464FF00009344654B900BF10202E
:1013D00080F31188BFF34F8FBFF36F8F00BF00BF43
:1013E000FEE7B8F1000F01D1206C08B9012000E040
:1013F000002050B900BF102080F31188BFF34F8F39
:10140000BFF36F8F00BF00BFFEE7022D02D1E06B7C
:10141000012801D1012000E0002050B900BF1020B8
:1014200080F31188BFF34F8FBFF36F8F00BF00BFF2
:10143000FEE700BFFFF724FDA06BE16B884201D3FC
:10144000022D28D12A4641462046FFF715FA0746C5
:10145000606A08B9012000E0002068B904F12400A6
:1014600000F0E8F988B14FF0805032490860BFF3CE
:101470004F8FBFF36F8F08E03FB14FF080502D4981
:101480000860BFF34F8FBFF36F8FFFF723FD01207D
:1014900007B0BDE8F083059818B9FFF71BFD0020E1
:1014A000F6E7B9F1000F04D101A8FFF7DDFD4FF019
:1014B0000109FFF70FFDFFF737FEFFF7E1FC94F995
:1014C0004400401C10B9002084F8440094F9450001
:1014D000401C10B9002084F84500FFF7FBFC05A96B
:1014E00001A800F029F8F0B92046FFF745FBA0B1AC
:1014F00004F110000599FFF79BFD2046FFF786FBDE
:1015000000F0E4F9002895D14FF0805009490860B7
:10151000BFF34F8FBFF36F8F8CE72046FFF776FB4B
:1015200000F0D4F986E72046FFF770FB00F0CEF913
:101530000020ADE704ED00E070B504460D4654B957
:1015400000BF102080F31188BFF34F8FBFF36F8F60
:1015500000BF00BFFEE755B900BF102080F311881F
:10156000BFF34F8FBFF36F8F00BF00BFFEE7FFF7E2
:1015700087FC124803682868401C08B9002619E057
:101580000F4920680968884204D06068984201D8F1
:1015900001260FE06068181A2968884209D2286875
:1015A0006168591A401A28602046FFF75DFD002641
:1015B00000E00126FFF78EFC304670BD20000020C1
:1015C000340000202DE9FF4F85B08046894617463C
:1015D000DDE912ABB800FFF759FB064656B16020B3
:1015E000FFF754FB04460CB1266304E03046FFF7D6
:1015F0008FFC00E000247CB10020CDE900ABCDE9F8
:1016000002403A4649464046089BFFF7F2F9204619
:10161000FFF7A4F8012501E04FF0FF35284609B097
:10162000BDE8F08F2DE9F0414FF000084448006814
:10163000002877D143480068451C4248056015BB27
:1016400041480068006808B9012000E0002050B956
:1016500000BF102080F31188BFF34F8FBFF36F8F4F
:1016600000BF00BFFEE738480768384800683649C1
:1016700008603648076036480068401C34490860F6
:10168000FFF78AFA00BF3348006885423CD300BFA9
:101690002D480068006808B9012000E0002020B152
:1016A0004FF0FF302B4908602DE027480068C068E4
:1016B000C4686668B54202D22648066023E0201D51
:1016C000FFF794FBA06A18B104F11800FFF78EFB36
:1016D00094F82C10012088401F49096808431E49CE
:1016E0000860E16A01EB81011C4A02EB8100211DC7
:1016F000FFF7BAFB1A49E06A0968C96A8842C7D38A
:101700004FF00108C4E700BF15480068C06A00EB4D
:101710008000124951F82000012801D94FF001083A
:1017200005E0FFE70F480068401C0E4908600E48BE
:10173000006808B14FF001084046BDE8F0810000A4
:101740004400002020000020100000201400002091
:10175000340000203C000020240000207400002001
:101760000C0000202C0000203000002070B5054641
:101770002C460026002D55D02B480068844201D10C
:10178000012000E0002050B900BF102080F3118834
:10179000BFF34F8FBFF36F8F00BF00BFFEE7206D19
:1017A00050B900BF102080F31188BFF34F8FBFF3F3
:1017B0006F8F00BF00BFFEE7206D401E2065E16C0B
:1017C000E06A88422ED0206D60BB201DFFF70EFB23
:1017D00078B9E06A00EB8000144951F8200040B964
:1017E00094F82C1001208840114909688143104861
:1017F0000160E06CE062E06AC0F10500A06194F86D
:101800002C10012088400A490968084308490860EB
:10181000E16A01EB8101054A02EB8100211DFFF71E
:1018200023FB0126304670BD0C0000207400002010
:101830002400002070B50646F068C46854B900BFA3
:10184000102080F31188BFF34F8FBFF36F8F00BF5D
:1018500000BFFEE704F11800FFF7C8FA154800685A
:10186000A8B9201DFFF7C2FA94F82C100120884077
:1018700011490968084310490860E16A01EB8101D8
:101880000E4A02EB8100211DFFF7EEFA04E004F19D
:1018900018010B48FFF7E8FA0A49E06A0968C96AC3
:1018A000884204D9012501200749086000E000258D
:1018B000284670BD44000020240000207400002051
:1018C000000100200C0000203000002070B5002432
:1018D00000263648006850B900BF102080F31188F8
:1018E000BFF34F8FBFF36F8F00BF00BFFEE7FFF75F
:1018F000C7FA2E480068401E2C4908600846006858
:1019000000284FD12A48006800284BD024E02948FD
:10191000C068C46804F11800FFF768FA201DFFF7DB
:1019200065FA94F82C10012088402349096808437F
:1019300021490860E16A01EB8101204A02EB810044
:10194000211DFFF791FA1E49E06A0968C96A8842B9
:1019500002D301201B4908601648006808B901201D
:1019600000E000200028D2D00CB1FFF715F916488E
:10197000056865B100BFFFF755FE10B101201149A0
:1019800008606D1E002DF6D100200F4908600D483B
:10199000006838B1012630070C490860BFF34F8F4B
:1019A000BFF36F8FFFF796FA304670BD44000020FA
:1019B0001C000020000100202400002074000020F2
:1019C0000C000020300000202C00002004ED00E07E
:1019D000F01900080000002074000000C001000899
:1019E000641A0008740000202C4B0000DC01000881
:1019F00000000000000000000000000000000000E7
:101A000000000000000000000000000000000000D6
:101A100000000000000000000000000000000000C6
:101A200000000000000000000000000000000000B6
:101A300000000000000000000000000000000000A6
:101A40000000000000000000000000000000000096
:101A50000000000000000000AAAAAAAA00000000DE
:041A60000000000082
:040000050800018569
:00000001FF
