:020000040800F2
:10000000D8E1002031020008390200083B02000854
:100010003D0200083F020008410200080000000005
:10002000000000000000000000000000990100082E
:100030004502000800000000DD0100088D6E000888
:100040004B0200084B0200084B0200084B0200085C
:100050004B0200084B0200084B020008150C000878
:100060004B0200082D0C00084B0200084B02000850
:100070004B0200084B0200084B0200084B0200082C
:100080004B0200084B0200084B0200084B0200081C
:100090004B0200084B0200084B020008510C0008FC
:1000A0004B0200084B0200084B0200084B020008FC
:1000B0004B0200084B0200084B0200084B020008EC
:1000C0004B0200084B0200084B0200084B020008DC
:1000D0004B020008617400084B0200084B02000844
:1000E000B50B00084B0200084B0200084B02000849
:1000F0004B0200084B0200084B0200084B020008AC
:100100004B0200084B0200084B0200084B0200089B
:100110004B0200084B0200084B0200084B0200088B
:100120004B0200084B0200084B0200084B0200087B
:100130004B0200084B0200084B0200084B0200086B
:100140004B0200084B0200084B0200084B0200085B
:100150004B0200084B0200084B02000871740008B3
:100160004B0200084B0200084B0200084B0200083B
:100170004B0200084B0200084B0200084B0200082B
:100180004B020008DFF80CD000F0D8F80048004718
:100190003DEE0008D8E10020224B19680868B0E85D
:1001A000F00F80F30988BFF36F8F4FF0000080F3EA
:1001B00011884EF00D0E70470000000006480068E0
:1001C000006880F3088862B661B6BFF34F8FBFF353
:1001D0006F8F00DF00BF00BF08ED00E0EFF3098084
:1001E000BFF36F8F0F4B1A6820E9F00F106008B54E
:1001F0004FF0100080F31188BFF34F8FBFF36F8F64
:100200000FF008FE4FF0000080F31188BDE80840B1
:1002100019680868B0E8F00F80F30988BFF36F8FA2
:10022000704700BF24000020EFF3058070470000F6
:100230000648804706480047FEE7FEE7FEE7FEE780
:10024000FEE7FEE7FEE7FEE7FEE7FEE7C16E000819
:100250008501000810B5431A934209D28318881803
:1002600003E010F8011D03F8011D521EF9D210BD64
:1002700040EA01039B0703D009E008C9121F08C028
:10028000042AFAD203E011F8013B00F8013B521EA8
:10029000F9D210BDD2B201E000F8012B491EFBD209
:1002A00070470022F6E710B513460A460446194681
:1002B000FFF7F0FF204610BD421C10F8011B00297B
:1002C000FBD1801A7047034611F8012B00F8012B6F
:1002D000002AF9D1184670472DE9F05F0546002045
:1002E00092469B4688460646814640241BE02846A7
:1002F00041464746224600F042F853465A46C01A45
:10030000914110D311461846224600F029F82D1AC3
:1003100067EB01084F4622460120002100F020F83B
:1003200017EB00094E41201EA4F10104DFDC484612
:1003300031462A464346BDE8F09F0000064C074D73
:1003400006E0E06840F0010394E8070098471034A5
:10035000AC42F6D3FFF71AFF5097010870970108D7
:10036000202A04DB203A00FA02F100207047914075
:10037000C2F1200320FA03F3194390407047202A6A
:1003800004DB203A21FA02F00021704721FA02F33F
:10039000D040C2F12002914008431946704770B521
:1003A0008C1810F8015B15F0070301D110F8013B20
:1003B0002A1106D110F8012B03E010F8016B01F8A7
:1003C000016B5B1EF9D12B0705D40023521E0DD4FF
:1003D00001F8013BFAE710F8013BCB1A921C03E04D
:1003E00013F8015B01F8015B521EF9D5A142D8D385
:1003F000002070BD21B1826842F00102826003E0FA
:10040000826822F001028260704700000021084AE1
:100410001168084A1140D0E900231A4383681A433F
:10042000C3681A431143044AC2F80413704700001A
:1004300004230140E030FCFF0020014021B182682C
:1004400042F48072826003E0826822F480728260EB
:10045000704721B1826842F40072826003E08268D2
:1004600022F400728260704730B5024600200023FB
:100470005068104C20400D790C6844EA0524204354
:10048000506090680C4C2040D1E903542C438D6897
:100490002C434D7944EA450420439060D06A20F40F
:1004A00070000C7D641EE4B2234340EA0350D06226
:1004B00030BD0000FFFEFFFCFDF7FFC0F0B50446B5
:1004C0000D4600200021092D11DDE068A5F10A0686
:1004D00006EB4607072606FA07F18843A5F10A0648
:1004E00006EB460603FA06F10843E0600CE02069DB
:1004F00005EB4507072606FA07F1884305EB450695
:1005000003FA06F108432061072A0FDA606B561ED2
:1005100006EB86071F2606FA07F18843561E06EBF0
:10052000860605FA06F10843606322E00D2A0FDA19
:10053000206BD61F06EB86071F2606FA07F18843B5
:10054000D61F06EB860605FA06F10843206310E085
:10055000E06AA2F10D0606EB86071F2606FA07F1F0
:100560008843A2F10D0606EB860605FA06F108435C
:10057000E062F0BD816841F0804181607047000019
:1005800038B10849096841F40001074AC2F8041368
:1005900006E00449096821F40001034AC2F8041383
:1005A00070470000042301400020014010B50120E5
:1005B0000FF06EFE0149086010BD0000A40000208D
:1005C0001CB50020012103468A02CDE9001018A1C4
:1005D0001A4810F0BBF81A48022100230A02CDE99C
:1005E000001018A11B4810F0B1F81B48052100238A
:1005F0004FF40072CDE9001018A11B4810F0A6F8C6
:100600001A48052100234FF40072CDE9001018A10B
:100610001B4810F09BF80020052103464FF40072A0
:10062000CDE9001017A11A4810F090F81CBD000089
:10063000765461736B47554900000000F1F90008DA
:1006400094000020765461736B557365724B657925
:1006500049460000E1FE00089C00002076546173CA
:100660006B5374617274000051FD0008A0000020FB
:10067000765461736B41646350726F6300000000D5
:1006800089F90008765461736B5465737400000037
:10069000D901010838B5456804460146284607F0E7
:1006A000C6F800282BD02068304A11280DD006DC6F
:1006B0000B2825D00E2833D00F2852D112E028283D
:1006C00049D0B0F5107F4CD108E09268002A16D0CE
:1006D0002146284601B0BDE8304010472146284653
:1006E0005268F7E7284601F079FB0090406E0468F5
:1006F000684601F0CFFB002C01D02846A04738BD4A
:10070000284601F06BFB0090683001F0BDFA0098BC
:1007100003216C3001F0C6FA684601F0BBFB20E013
:10072000E168486809680D2902D0202913D105E045
:10073000002810DD28460BF0E9FC06E0002804DD67
:100740002846BDE838400BF0E1BC2846BDE83840FB
:1007500002210BF0F1BCE06818B90021284600F036
:1007600083F92046BDE8384007F04ABA88030020E4
:10077000F0B5044685B08069B4F90850668A002750
:10078000CDE90265CDE900170490B4F90C00B4F985
:100790001060C118B4F90A00B4F90E501044334681
:1007A0002A4600F007F80546616800F066F905B0D2
:1007B0002846F0BD2DE9F04F85B01F46DDE911B4A4
:1007C000DDE90E5690468946824602F05DFA1648EB
:1007D0004C34CDE90204CDE900563B464246494639
:1007E000504607F055F9040018D001F0F7FA10222E
:1007F0005946049007F0ECF8049830220B49343045
:10080000FFF728FD094D04990C3D2868486604A8A7
:1008100001F040FB286841682046884703F07CF9D6
:1008200005B02046BDE8F08F95060008940300202F
:10083000F0B5044680688B4989B051F82050606853
:1008400000287DD0052804D006287AD0122879D136
:10085000AEE0E86900284FD095E80E008DE80F0063
:1008600004F110010FC903F097FD002655F826008A
:1008700002F035FFA169E8690A1A2169014460693B
:10088000304401F0BBFFA169E8690A1A21690144FB
:10089000E069801B01F0B2FFE169E8690A1A616949
:1008A00001442069304402F03BF8E169E8690A1A22
:1008B00061690144A069801B02F032F8761C022EA7
:1008C000D4DBA86802F00BFFE069E9696669431AA6
:1008D000206942183144801C521E02F07DF8E16903
:1008E000E869A2690B1A61690144101A401C921E42
:1008F00002F072F8EE6913E05FF0000655F826008A
:1009000002F0EDFEE069831BA069821B606981191A
:100910002069304401F0C4FF761C022EEEDB022673
:10092000D5E90301CDE900016169E069084443109C
:10093000A069891C821B2069304401F023FF02E07A
:1009400089E012E08AE0D5E90501CDE90001E3691B
:1009500060690121184401EB6001A0699B1E821BA4
:100960002069304401F00EFF78E0206801F036FA8B
:100970000490206808F016FA40B1A06808B1002081
:1009800008E00498006F28B1012003E00498406F4C
:1009900000B10220049901EB8000C56E04A801F0AB
:1009A00079FA00231A462846216801F0DFFC55E059
:1009B000206801F013FA0490866EEEB3B0F95C7013
:1009C000A168D1B3032942D05FF0000100EB81019F
:1009D000406D0C6C02F0A0FE204602F080FE05A8DF
:1009E00002F06CF8BDF81410A88B0144ADF8141097
:1009F000BDF81810081AADF81800BDF81600801CD4
:100A0000ADF81600BDF81A00801EADF81A00049863
:100A1000B0F96020B0F95E1005A802F0A6FD04A8A8
:100A200001F038FA022002F0D3FE304601F0D6F988
:100A30003A4605A9079001E00BE006E001F092FDBF
:100A40000DF11C0001F026FA08E00121BEE70221A9
:100A5000BCE704A8F6E7206807F056FE09B00020BE
:100A6000F0BD0000749601084FF480720029114611
:100A700001D006F070BF06F0C1BE2DE9FF410E4661
:100A800005004FF0010421D002F0FEF8284601F0E5
:100A9000A5F90190876E01A8009701F0FBF9314696
:100AA000684603F077FF78B100980024B84208D078
:100AB000284601F093F901900099816601A801F0A0
:100AC000E9F9284607F086FB03F026F804B0204633
:100AD000BDE8F081014609B90B487047012901D1F1
:100AE0000020FAE7022901D10020F6E7032901D10D
:100AF0000020F2E7042901D10020EEE7052901D109
:100B00000248EAE70020E8E75CCA002084D200201F
:100B100008B525208DF8000000208DF80200012086
:100B20008DF80300684605F0EFF847208DF80000C7
:100B300005208DF8020001208DF80300684605F0BD
:100B4000E3F808BD21B1026842F00102026003E04F
:100B5000026822F0010202607047000010B5002216
:100B60000268134B1A40CC680B6823434C6923433B
:100B70008C692343CC6923430C6A23434C6A234387
:100B80008C6A23434C6B23438C6B23431A430260D0
:100B9000426922F00702D1E90B3423431A43426130
:100BA0000B6943604B6883608B68C36010BD0000B5
:100BB0003F801CF010B54FF4006000F06FF840B1BA
:100BC0001348006820F4006011490860C81400F060
:100BD0005FF84FF4005000F061F840B10C48006835
:100BE00020F400500A490860481400F051F84FF40E
:100BF000004000F053F848B10548006820F4004078
:100C0000034908604FF4004000F042F810BD0000B6
:100C1000003C014010B5022000F040F820B10DF07A
:100C20003DFF022000F034F810BD000010B5082090
:100C300000F034F840B10548006820F0080003498E
:100C40000860082000F024F810BD0000003C0140BE
:100C500010B5802000F022F840B10C48006820F068
:100C600080000A490860802000F012F84FF480707C
:100C700000F014F840B10548006820F48070034982
:100C80000860881500F004F810BD0000003C014029
:100C90000149086070470000143C014001460020F3
:100CA0000022074B1B6803EA0102054B14331B6843
:100CB0000B4013B10AB1012000E000207047000092
:100CC000003C0140002123498279002A3AD00A469B
:100CD000126803689A430B461A600A1D126803687B
:100CE0009A430B1D1A60027911440A6803681A437B
:100CF0000A60184A0832126803689A43154B083391
:100D00001A601A1D126803689A43124B0C331A605A
:100D10004279102A0ED11A1F126803681A430D4B2C
:100D200008331A601A1D126803681A43094B0C3302
:100D30001A600DE00749427911440A6803681A43B2
:100D40000A6005E0027911440A6803689A430A6060
:100D500070470000003C01402DE9F0470446406820
:100D60008EB00027804601F039F80090B0F87CA0E2
:100D7000D0F86890D0F88060D0F88850C06D00B18D
:100D80000768684601F086F805E0696820468847EC
:100D9000002843D12D68002DF7D12068172853D0A3
:100DA0000CDC0F283DD004DC0B2877D00D2825D192
:100DB0008BE0112810D0142820D13BE0262846D003
:100DC00004DC1E2851D0202818D18AE02A2816D009
:100DD000B0F5107F12D128E04046E56800F0FEFF34
:100DE0000290697A39B9297A012904D130F87C1F37
:100DF00041F48071018002A801F04CF875E0404692
:100E000000F0ECFF0090E16811B1C0F8841002E03E
:100E1000D0F88400E060684601F03CF80EB0BDE810
:100E2000F087D7B34046B8475FE0214640460BF015
:100E300087FAF3E705A9404600F00BFBE068069946
:100E4000016007994160E9E7C4F80C90E6E7E068C3
:100E50000228E3D1CDF83080E0680D9027200A9079
:100E60000AA9A06808F02CF9D8E7E068012804D0A6
:100E70000021404600F0BBFAD0E7304607F013FAF5
:100E800068B1304607F0BAFB304607F0E9F898B190
:100E90000121304606F05FFD0EE026E02FE04846D7
:100EA00007F000FC0646404600F098FF0090C0F8AE
:100EB0008060684600F0EEFF0121404600F097FA9E
:100EC000002EABD10020E060A8E75FEA0A700CD4E6
:100ED000E068C06848B1007A38B1404607F08EFB40
:100EE00003E0214640460BF044F92146404606F017
:100EF0009EFC002892D0204606F082FE8EE74046F7
:100F000000F06CFF0090703000F0BEFE684673E7A2
:100F1000F0B587B0B0F908400DF10C0C0C9E876954
:100F200045688CE8F000448A0025CDE9001502945C
:100F3000B0F90C10B0F91050B0F90E40B0F90A0039
:100F4000194410442B46224600F002F807B0F0BDC9
:100F50002DE9F04F8BB09846DDE9155691468A464B
:100F60008346149F1A9C01F08FFE3348603445F489
:100F70008055CDE90204CDE9007543464A46514605
:100F8000584606F085FD04004FD000F027FF3022C0
:100F90000490179906F01CFD049828222749343044
:100FA000FFF758F904981999244F4166A0F87C601E
:100FB0000026C0F88060C666083FC0F8886079687F
:100FC000C16504A800F066FF05A9204600F041FABB
:100FD0001B4841F2827103960094CDE90110BDF9DE
:100FE0001E00BDF91A10BDF91C20431ABDF91800E6
:100FF0005B1C121A521C06F04BFD064678684168CD
:1010000020468847204600F0E9FE0490866604A842
:1010100000F040FF42F20400054202D1204606F0F3
:101020009FFE2046189900F0F1F902F075FD0BB013
:101030002046BDE8F08F0000590D0008CC030020C9
:101040000B1600082DE9F041044694B0006800F04A
:10105000B7F908B1D94D01E0D84D2C356068152895
:101060001ED00CDC0B281FD004DC00287ED0052805
:101070007DD12FE10E287BD01228F9D141E116282D
:1010800006D0172808D0182808D01C28F0D109E06D
:10109000E86914B0BDE8F081286AFAE7686AF8E701
:1010A000A86AF6E76869F4E720680B901C200C90AA
:1010B000206800F093FE0390016D0BA88847064658
:1010C00003A800F0E7FE022E0FDB95E807008DE88D
:1010D0000700D4E904023346A16903F023F920692B
:1010E0008719A069A0EB06082CE0286802F0F7FA3F
:1010F0002169E8690A18521E606901F07FFBA26944
:10110000E869111A491C606901F078FBD4E9040709
:101110007F1C394601F09EFB3946A06901F09AFB1D
:10112000686802F0DCFA20693946401C01F092FB45
:10113000A0693946401E01F08DFBA0692769A0F126
:101140000208BF1C286802F0CAFA424639466069A4
:1011500001F054FB686802F0C2FA60694246394601
:10116000401C01F04BFB686A022802E015E1B0E088
:1011700000E10BDDA86802F0B2FA61696A6A881CB6
:101180008B180146424638465B1E27E0296AB14269
:1011900026DD6069022E074600F1020801DB3744B4
:1011A00001E007F10207206901DB304401E000F1B2
:1011B000020022693B460A444146A2F1010201F0C5
:1011C0000BFC022E02DBA069821B01E0A269921EC9
:1011D000A069E9693B46401A4146401C01F0FCFB0E
:1011E000022E02DB6069064401E06669B61CE7690D
:1011F00028687F1E02F073FA3A463146206901F0F2
:101200008FFB3A463146A06901F08AFBE7696868BE
:10121000BF1E02F064FA20693A463146401C01F0D4
:101220007FFBA0693A463146401E01F079FBE86930
:10123000022802DC286A022823DDA86A022802DDCF
:10124000E1690F1A01E0E769BF1EA86802F047FADA
:10125000E969022909DD20693B46421800F1020CC8
:1012600031466046521E01F0B7FB286A022808DDAD
:10127000A269E8693B46101A3146401C921E01F0F3
:10128000ABFB286802F02BFAD4E90620216901F0B3
:10129000B5FA686802F023FAD4E906202169401EF5
:1012A000491C521E01F0AAFAA86A022811DDA169A0
:1012B0002669E469A1F10208271AA41EB61C7F1C46
:1012C000A86802F00CFA234642463946304601F03F
:1012D00083FB71E0208A00B2ADF81400A18A09B244
:1012E000ADF81610228B12B2ADF81820A38B1BB2EA
:1012F000ADF81A302C69ED68CDE9005401F042FADE
:101300005AE0208A298B0844ADF81400A08AADF871
:101310001600208B298B401AADF81800A08BADF871
:101320001A00206800F05AFD0390006FF0B102200F
:1013300002F04EFA039890F87C10C1F3C00100EB64
:101340008100006C02F0CBF90398406B02F0E4F9E5
:101350000398006F00F042FD03990990B1F95A20FB
:1013600005A901F0FFF809A800F094FD03A800F01A
:1013700091FD21E0208AADF81400A08AADF8160096
:10138000208BADF81800A08BADF81A00A86802F009
:10139000A6F905A801F04CFB0EE0206800F01EFD48
:1013A000039030F85A1F41F00C01018003A800F0AF
:1013B00071FD206807F0A8F900206AE624050020E6
:1013C00038B505004FF000040FD001F05DFC284651
:1013D00000F004FD009090F87C00000700D5012487
:1013E000684600F057FD02F097FB204638BD70B507
:1013F0000D46040009D001F047FC294620460BF0B9
:1014000043FBBDE8704002F087BB70BD7CB50D4664
:1014100004001DD001F038FC204600F0DFFC0090F5
:10142000006F0190684600F035FD294601A803F0E1
:10143000B1FA58B1204600F0D1FC00900199016743
:10144000684600F027FD204606F0C4FE02F064FB6B
:101450007CBD2DE9F34F85B000270C46B8460598B2
:1014600000F0BCFC0090C06D0121856805982A68D9
:10147000904782462A6803210598904704902A687D
:1014800002210598904703902A680021059890470B
:101490000646009807F004FB8346009807F007FB18
:1014A0008146009890F83210890601D5B0F958802D
:1014B00000F036F805460098C06E10B106F0A9FDA0
:1014C000074625806780A4F804A0049AABEB0200CD
:1014D00006EB0802401E2A4420813A44E280039B26
:1014E000A9EB0302521E6281A4F80CA0208270199D
:1014F000E681401E6082684600F0CCFCB4F90C0026
:101500000190B4F91000029002AA01A9059800F018
:1015100039F80198A0810298208207B0BDE8F08FC9
:1015200010B50146002091F83220920607D5B1F996
:101530005400002803D1486B01F03EFB801C10BD15
:1015400070B58AB00C46054600F048FC0990C06DA5
:10155000866809A800F09EFC009534B1012C06D0E5
:10156000022C0BD0032C04D10AE0182000E0162036
:1015700001907168684688470AB070BD1520F7E78A
:101580001720F5E72DE9FC4117468846044600F090
:1015900025FC0090C16D056868468E6800F07AFCF5
:1015A00032680021204690470646204606F0A1FCFE
:1015B00027E000BF00F012FC0190B0F900102AB241
:1015C000B0F90430891A9A1AB0F90230A3EB254316
:1015D000B34210D190F82800000605D5386888423B
:1015E00009DB491E396006E0D8F80000904202DCB1
:1015F000521CC8F8002001A800F04CFC204606F060
:10160000B3FC0400D6D1BDE8FC812DE9F0430446CB
:10161000406889B0054606F0B4FC814600F0DEFB68
:101620000290D0F84880D0F88070466E02A800F092
:1016300031FC2068172853D008DC0E283AD00F2838
:1016400011D014284CD015283DD149E01E281ED0B9
:101650001F282AD0222840D0312834D10020E06031
:1016600009B0BDE8F0836FF070414046884503D073
:1016700004F0CAF800F029FD002EF1D0D4E90212DE
:101680002068CDE90405CDE9061204A81FE0E06852
:101690000028E5D02FB1AF4203D0384606F0AEFFA8
:1016A000DEE7284606F0FEFFDAE72146484606F068
:1016B000BEF8D5E7E0684168002904DD0068092824
:1016C000EFD00A2805D05EB12046C4F80490B04798
:1016D000C6E7284606F0F5FFC2E7C4F80C80BFE76E
:1016E000204606F08DFABBE710B5002001F0ECFFB4
:1016F0006FF07F4001F0F3FF012002F04BF8002073
:1017000002F056F8002002F063F8002001F0F8FF24
:101710000448006802F000F8BDE81040002002F024
:101720000BB800002C020020F0B50A46002100236F
:10173000002400BF3DE0012505FA01F3156805EA24
:1017400003049C4234D105684F000326BE40B543D4
:10175000056015794E00B54006683543056015797A
:10176000012D02D01579022D16D185684F00032670
:10177000BE40B543856055794E00B5408668354317
:101780008560456801268E40B54345604568967979
:101790008E40B6B235434560C5684F000326BE4053
:1017A000B543C560D5794E00B540C6683543C560C0
:1017B000491C1029BFD3F0BDF0B5002300244D070C
:1017C000ED0E02FA05F3CE1000F1200555F8265073
:1017D0004E07F70E0F26BE40B543CF1000F120068E
:1017E00046F82750CE1000F1200555F8265045EA5E
:1017F0000304CE1000F1200545F82640F0BD014657
:10180000086980B270470246002013690B400BB193
:10181000012000E00020704741837047018370473A
:10182000416170470AB1018300E0418370470000C5
:101830002DE9F04FDFF828B191B04FF0FF35DBF81C
:101840000030B3F922100691DE69B3F924A0F469DF
:10185000A189814206D8E289824203D3471AD4F88B
:10186000008012E0D4E90181002970D00A88824208
:101870006DD84D8885426AD3801A82B2486800EBE1
:101880008200B0F90070B0F90250781C5FD0307E51
:10189000A27C014600FB02F9207CCDE90710B3F9D8
:1018A0002A60304604F00AF8C0B20E90DBF800104F
:1018B00007FB0980A37C8A6B0127CDE90402CDE9EF
:1018C0000273C869089AC17E807ECDE90001DDE916
:1018D0000603514603F02AFB681C18D046F00200AC
:1018E00003F0ECFFDBF80000A37C05FB0981826BB1
:1018F000CDE90273CDE90412C069089AC17E807EE9
:10190000CDE90001DDE90603514603F00FFBDBF8EA
:1019100000005D46C069417E007E814214D9022EDE
:1019200012D086F0040003F0C9FF2868C069027E67
:10193000C37E857E02FB03A1437E089A069853442A
:1019400002FB050203F0A8FC0E9803F0B7FFDBF8DA
:101950000000627C418C1144418411B0BDE8F08FDD
:101960003002002004480068C069C06909B1027CE7
:101970000A60407C7047000030020020022008808E
:101980007047C06982898A4202D8C2898A4210D2CD
:10199000806880B102888A420DD843888B420AD37E
:1019A000406800EB8100A0EB8200B0F90000002845
:1019B00001DB012070470020704700002DE9F04353
:1019C0002F4C034687B020681946B0F92A80C069B9
:1019D000C06900F082F800284ED041680088181ACB
:1019E00001EBC0054046AE7803F068FF81462068F1
:1019F0006A680123816BCDE90236CDE90421C16912
:101A0000CB7E8A7ECDE900230B7EB0F924102A78A4
:101A1000B0F9220003F08AFA2068C069477E067E8A
:101A2000B7421DD9C07E47434643B8F1020F17D0D5
:101A300001F049F8804601F00FF801F050FE2168EE
:101A40002A78CB69B1F92200B1F92410DB7E02FBC0
:101A50000302CB19314403F01FFC404601F03FFE66
:101A6000484603F02BFF20686A78C369B0F922105A
:101A70009B7E02FB0311418407B0BDE8F0830000A8
:101A80003002002030B50E4C05460B462068294632
:101A9000C069C06900F021F8002810D041680088B2
:101AA00024682A1A0120E46900EBC200085CA47EC5
:101AB0006043002B03D011F832106143196030BD30
:101AC0003002002001200880704700B5C06900F096
:101AD00004F8002800D0012000BD06E002888A42F8
:101AE00002D842888A4202D280680028F6D1704724
:101AF0002DE9F0410025154E154C18E02069C5EB85
:101B0000051700EBC7007022001D3168FEF7A2FB2D
:101B10002069002140F8371000EBC70000F10C01EC
:101B20008161011D0A1DC0E90F126D1C4164A0688E
:101B30008542E3DB0AF092F82169C0EB001001EB6B
:101B4000C000001D3060BDE8F081000030020020C0
:101B50004403002070B50F490D480860084602F0A4
:101B600011FF0C4C143CA068C0EB0010C5002846C7
:101B700000F0A6F82A460021206102F07CFF4FF019
:101B8000FF30206002F00AF8BDE870400AF066B845
:101B900065C2000858030020F8B50C0005460FD0B8
:101BA00001F072F8204600F017F8060010D000F09F
:101BB00015F9224600902DB12946FEF74BFB04E0B3
:101BC0000020F8BD002102F056FF684600F062F9DF
:101BD00001F0A2FF3046F8BD10B5040009D001F0B5
:101BE00053F8204607F05AFB044601F095FF2046C3
:101BF00010BD002010BD38B5054601F045F8284657
:101C0000FFF7EAFF040009D000F0E8F82A460021B7
:101C1000009002F030FF684600F03CF901F07CFFD4
:101C2000204638BD024A106021F003005060704722
:101C3000A0DC002010B5040016D001F025F80B48F8
:101C4000406B10F8341059B1022909D2042101EB7C
:101C5000C4014158486807F0D9FA20460AF068FEE6
:101C6000BDE8104001F058BF10BD0000E0DB0020CF
:101C7000002805D0034AD16B016001B14860D063F0
:101C800070470000E0DB002010B5044600F0FCFFC8
:101C90002068FFF7CFFF00202060BDE8104001F072
:101CA0003BBF000070B50D460646002405E000BFAE
:101CB00006EB8400FFF7E8FF641CAC42F8DB70BD64
:101CC0002DE9F04104460AF041F92848E41C24F0CB
:101CD0000305016C2D1DA94200D90D46C46B13E00C
:101CE00054F8042CAA420ED184B1216809B162686B
:101CF0004A60616809B122680A60C26BA24231D1B0
:101D00002168C1632EE02468002CE9D18046816BF4
:101D1000C0680F1857F8040C3E1A306838B100201C
:101D20000AF062FE57F8040C3E1A3068D0B97068A9
:101D3000A84217DB3044441B3046241D0AF00CFE39
:101D4000D8F80C10491BC8F80C10D8F81410294406
:101D5000C8F814107068401B02D0314607F056FADC
:101D600044F8045C2046BDE8F0810000E0DB002080
:101D700010B500240AF0EAF80C490F2001EBC0026C
:101D8000526C1AB101EBC000406C08E0401EF5D562
:101D900008E04168A14200D90C46806810B1806813
:101DA0000028F6D1A4F10C0010BD0000E0DB0020FB
:101DB000002138B10449042202EBC000496B0858E5
:101DC00041680C3908467047E0DB00200248816911
:101DD000491C816170470000E0DB00200549CA69A9
:101DE000521CCA61496B01EBC0010A78521C0A708F
:101DF00000F068B8E0DB00207CB506460C460846DB
:101E0000FFF7EAFE050020D0FEB13046FFF7D0FF15
:101E1000A04200DA044600F037FF2846FFF7DEFF55
:101E200000903046FFF7DAFF014601902246009805
:101E3000FEF710FA684600F02DF801A800F02AF825
:101E40003046FFF7F7FE01F067FE28467CBD000034
:101E500010B500F019FFFFF78BFF64220849B0F5B9
:101E6000800F04D990FBF2F4086A444303E0096A46
:101E70004143B1FBF2F401F04FFE204610BD0000DB
:101E8000E0DB002002488169491E81617047000043
:101E9000E0DB00200A4902684B6B52F8082C03EB88
:101EA000C2021378022B03D3CB690BB15B1ECB614B
:101EB0001178491E1170002101600846704700002A
:101EC000E0DB0020002806D00349042202EBC0001A
:101ED000496B085808307047E0DB00202DE9FC41D1
:101EE0004FF000060B465FEA000834462BD032B1B3
:101EF00011461846FFF750FE060000D10124404667
:101F0000FFF76CFF0090078845686846FFF7C2FF3F
:101F1000CCB9B9002846091DFFF76EFF050015D0A2
:101F2000FFF75CFF019040F8276001A8FFF7B2FFC0
:101F30004046FFF753FF009045600188491C01802F
:101F40006846FFF7A7FF2046BDE8FC813046FFF753
:101F500071FE0124F7E70820FFF74DBE7CB50500B0
:101F600023D0FFF73BFF00904068C0B1FFF736FF7A
:101F70000024019005E0019800EB8400FFF784FE47
:101F8000641C00980088A042F5DC01A8FFF782FFDE
:101F90000098001DFFF778FE009900200880684631
:101FA000FFF778FF2846FFF745FE7CBD38B50D46A4
:101FB000002448B1FFF712FF2946009000F05DF8B9
:101FC00004466846FFF766FF204638BD2DE9FE430C
:101FD000984691460D460024D0B3FFF7FFFE0190CE
:101FE0000788466801A8FFF755FFBD4230D27EB38F
:101FF0003046FFF7F3FE009050F825406846FFF7A3
:1020000049FF24B12046FFF7D3FE404511D040469A
:10201000FFF7F1FD04000CD03046FFF7DFFE00EBC8
:10202000850500902846FFF72FFE68462C60FFF7D5
:1020300031FFB9F1000F0BD054B12046FFF7CEFEAF
:10204000424649460290FEF705F902A8FFF722FF33
:102050002046BDE8FE8338B50D4601880024A9421C
:1020600009D9406838B1FFF7B9FE009050F8254013
:102070006846FFF70FFF204638BD10B50024FFF774
:10208000EAFF10B1FFF7AAFE0446204610BD10B5C6
:10209000C2B2CBB2D21A00D5524293B25B43C0F364
:1020A0000722C1F30724121B00D55242000C92B242
:1020B000A0EB114002FB023200B2002801DA4042DC
:1020C00000B280B200FB002010BD10B50021084610
:1020D00000F086FD43F6FF725042BDE81040134603
:1020E000014600F001B800002DE9FC411C461546F0
:1020F0000E46074600F0C8FD042003F0DFFB8046D3
:102100001248C068C16C006D0F4406440D4404447D
:10211000ADF80070ADF80450ADF80260ADF80640BF
:10212000684606F0CBFC07E023462A46314638468F
:1021300003F0B2F806F076FC0028F5D1404603F033
:10214000BDFB01F0E9FCBDE8FC8100002402002099
:102150002DE9F8431C00DDE9089816460F460546B0
:1021600002D105F0A9FE044600962E6843464A4671
:1021700021462846B047061E39D005F092FE81461A
:10218000698A304605F0E7FB304606F015FB484605
:1021900006F012FB4FF000080CE000BFCDF8008005
:1021A00055F81CCF00231A4649462846E04700B39D
:1021B00006F002FB7F1E002FF0DC1D21484606F0D2
:1021C00060F9601C12D000F05FFD05F09FFE30B199
:1021D000FFF778FE8469B44201D02000F8D1B44200
:1021E00002D0304606F05EFA01F096FC3046BDE8BB
:1021F000F883304605F03CFD0020F8E72DE9F0417A
:102200001C4616460D460746022B02DB0020BDE8A1
:10221000F0811C20FFF754FD0028F8D00DB10561B6
:102220000AE0094A52F8241009B905E011460A6883
:10223000002AFBD109690161846186820021016065
:102240004160C0E90217E2E74802002070B51D4670
:10225000FFF7D4FF040009D000F00EF8E068006832
:1022600020B90348006800EB85008465204670BDF6
:1022700030020020FFF7FCBC70B590B38269022ADF
:1022800030DA1E4C54F8221019B944F8220032E01A
:1022900019464B68002BFBD106E0CB68C5681B686C
:1022A0002D68AB4203DD09680029F6D11AE0C1B1FF
:1022B000CB68C6681B683668B3420CD1838A012B91
:1022C00005D008E01946DB681B68AB4203DB0B68EE
:1022D000002BF7D129B14B6833B118604A684260CE
:1022E00004E0FFE7012070BD44F822004860884206
:1022F00000D100210160002070BD000048020020D4
:1023000010B503E00468FFF7B7FF20460028F9D1B5
:1023100010BD00000A4A816952F82130834202D17F
:10232000036842F82130416809B102680A60016817
:1023300009B142684A6000210160416070470000B5
:102340004802002000207047022801DB002070476F
:10235000054951F8200004E0C16809680029F6D059
:1023600000680028F8D17047480200202DE9F843A2
:102370001D461646884604000CD0FFF72FFD00903E
:10238000006807686846FFF785FD2B4632464146E0
:102390002046B847BDE8F8832DE9F041044601F036
:1023A000F8FB06191EE000BF00F0F4FA052F00DD6F
:1023B000052700F069FC11480568FFF707FD2C00B0
:1023C00017D000BF01F0A8FB641EFBD1384601F016
:1023D000D1FB1DB100F058FC6D1EFBD1FFF752FD83
:1023E00001F09AFB01F0D5FB371A002FDCDCBDE8C9
:1023F000F081384601F0BEFBF0E7000050030020FA
:102400002DE9FC4706005FD000F03EFC00F074FBB5
:102410003C4C81462068B0F9228000F0AFFB216877
:1024200007468A8CD01B888441E000BF47F6FF71C5
:10243000304602F03BF982460146304602F00CF984
:102440002168054691F82C0000F00300012841D0D6
:1024500002283BD000204A8C101A4884ADF80000B6
:102460006A1E1044ADF80400888CADF80200A9F192
:1024700001010844ADF806006A465146304601F0B5
:102480006FFD2168BDF8020088845146304601F096
:1024900031FA064430780A281ED00D281CD0BDF829
:1024A0000000216828444884307818B1761C3078C0
:1024B0000028BBD12068818C39448184818D21F032
:1024C0000301818501F028FBBDE8FC8705EBD57091
:1024D0004010C0E72846BEE7206890F82C1001F0B5
:1024E000030101290BD0022909D0018C41843178E4
:1024F0000A29D9D1828C02EB09018184D4E7A0F8A2
:102500002280F4E73002002070B514460D460646DE
:1025100000F0BAFB05480068458484843046FFF724
:102520006FFFBDE8704001F0F7BA000030020020F4
:102530002DE9F04107460A4815460E460068B0F9F5
:102540002C0040F0020001F033F904462A463146DF
:102550003846FFF7D9FF2046BDE8F04101F028B921
:102560003002002047F6FF73AFF300802DE9FC41F5
:102570001F4690460D4606004FF000041AD000F0AA
:1025800083FB65B1284606F007F9040007D0024630
:102590002946684602F0F7F8684606F0FDF83B4623
:1025A00042462946304601F033FD204606F0F4F855
:1025B00001F0B2FABDE8FC812DE9FF4F87B09046EB
:1025C000894607007DD000F05FFBD9F80040D9F8BC
:1025D000045021B228B2401A401C029000F08CFA3C
:1025E000064618F00C0F1ED038460A9A029901F0E0
:1025F0009DFA08F00C01042904D0082902D00C2906
:1026000011D104E0291400FB1610401C09E021142C
:10261000C1EB254200FB1620401C00EBD07001EB03
:10262000600060F31F44484606F0B6F85FEA000B0E
:1026300009D00246494604A8CDE9044502F0A3F8B2
:1026400004A806F0A9F8A6F1010A38460A9A0299E8
:1026500002F0E0F903900AEB244060F31F45CDE956
:1026600000453846039901F0F7FF18F003010ED03A
:1026700001292CD002290ED1B9F90420B9F9001092
:10268000521A101A00EBD07001EB600001E0B9F8AB
:102690000000ADF800006A463846039901F060FC7E
:1026A00038460A9A029902F0ABF9074406EB244037
:1026B00060F31F4438780028C7D1584606F06CF8FC
:1026C00000E001E001F028FA0BB0BDE8F08FB9F8A6
:1026D0000410081A401CDCE71CB50A46014668468F
:1026E00002F043F900F0D0FA2548BDF80010006868
:1026F00030F84C2F1144ADF80010BDF8021082885C
:102700001144ADF80210BDF8041002881144ADF870
:102710000410BDF8061080880844ADF8060068462D
:1027200006F0CCF927E000BFBDF900400BE000BF88
:10273000BDF90210204602F027FDBDF90610204623
:1027400002F022FDA41CBDF90400A042F0DABDF99C
:1027500002400AE0BDF90000214602F015FDBDF976
:102760000400214602F010FDA41CBDF90600A042A1
:10277000F0DA06F057F90028D6D101F0CDF91CBDEA
:10278000300200202DE9F04F87B09B46DDE910981C
:1027900092460C46054600F077FA16480168C86C68
:1027A000096D47190E1900EB0A0501EB0B04ADF892
:1027B0001070ADF81450ADF81260ADF8164004A8D2
:1027C00006F07CF988B1DFF830B04FF0010ACDE9AE
:1027D0000098CDE902BA23462A463146384608F029
:1027E00031F906F01FF90028F1D101F095F907B091
:1027F000BDE8F08F30020020315100082DE9FC4186
:1028000014460D46064600F03FFA114F3968C86C71
:10281000096D054404440E44ADF80050ADF8044081
:10282000ADF80260ADF80660684606F047F908E0CA
:10283000386822463146406E03682846984706F0BD
:10284000F1F80028F4D101F067F9BDE8FC8100003F
:10285000300200207CB50C46064600F015FA0F4DFC
:102860002868C16C006D0E440444ADF80460ADF8F6
:102870000060ADF80640ADF80240684606F01EF96B
:1028800007E028682146406E42683046904706F0CF
:10289000C9F80028F5D101F03FF97CBD30020020D5
:1028A0002DE9FC411C4616460D46074600F0ECF9A2
:1028B0001A480168087ECA6C096D17440D440C441F
:1028C000401E391A1644ADF800103118ADF8041046
:1028D000291A2044ADF80600ADF80210684606F04B
:1028E000EDF815E032462946384602F021FC324622
:1028F0002146384602F01CFC621E691C384602F074
:1029000077FC621E691C304602F072FC06F08AF801
:102910000028E7D101F000F9BDE8FC813002002079
:102920007CB514460D46064600F0AEF90F48006827
:10293000C16C006D0E4405440444ADF80060ADF870
:102940000460ADF80250ADF80640684606F0B6F8EF
:1029500006E022462946304602F04AFC06F062F8BC
:102960000028F6D101F0D8F87CBD0000300200202C
:1029700070B50C46054600F0B2F810B10121C0E96F
:10298000001400F081F9284605F0CEFFBDE8704044
:1029900001F0C2B810B5002400E0012400F004F8F2
:1029A0000028FAD1204610BD094810B5006800245F
:1029B00010B1804700B1012405F0E4F900B1012411
:1029C0000448006810B1804700B10124204610BDC2
:1029D00054020020500200202DE9FC411C461546FF
:1029E0000E46074600F050F910480068C16C006DB3
:1029F0000F4406440D440444ADF80070ADF8045093
:102A0000ADF80260ADF80640684606F057F807E0FA
:102A100023462A463146384602F03EFC06F002F8CC
:102A20000028F5D101F078F8BDE8FC8130020020E3
:102A3000B0F90630B0F90420B0F90210B0F9000086
:102A4000FFF7CABF034951F82000C1688A6A08210C
:102A5000104700004802002010B500F015F902F000
:102A60005DFC02F037FD044601F056F8204610BD2B
:102A700010B5044600F008F9054800210068C06957
:102A8000426820469047044601F046F8204610BDB3
:102A90003002002070B50C46054600F0F5F80648F7
:102AA00021460068C069426828469047044601F004
:102AB00033F8204670BD000030020020002801D00D
:102AC00005F0CCB9704710B500F0DEF802F02EFC2E
:102AD00002F000FD044601F01FF8204610BD1FB5AE
:102AE00000210191029103912A210091694605F08C
:102AF000B9FC039804B010BD10B500F0C5F8044847
:102B00000068C069447E01F007F8204610BD00004F
:102B10003002002070B50D46044600F0B5F814B937
:102B200009480068C469294694F82000A87094F800
:102B30002200287194F82100E870A268204690478E
:102B4000BDE8704000F0E8BF3002002070B50C46D0
:102B5000054600F099F82146284601F0D1FDBDE870
:102B6000704000F0D9BF10B5044601F0BBFD01462E
:102B70002046BDE8104001F06FBD000010B50024F4
:102B800000F082F80B48006890F82C1001F00C015E
:102B9000042904D0082906D00C2907D103E0C06914
:102BA000047E641E02E0C069007E440800F0B4FFA9
:102BB000204610BD30020020017EC07E4843704791
:102BC000024951F82000006900687047480200205F
:102BD000024951F82000006940687047480200200F
:102BE00070B50D46044600F04FF8204609F0EAF8AB
:102BF0000446284609F0EEF8044300F08DFF204615
:102C000070BD00002DE9F0411948016821F0010173
:102C1000016018480125856017490160006817495F
:102C2000884200D0FEE701F0CBF8154E2E20307020
:102C300000F0B3FF134809F039F90CF0B1F807467A
:102C400002F0D0FB10B102F0E1FB38B902F0E7FB73
:102C5000044602F0D0FB214602F02AFE002108467D
:102C600000F078FD05F00CFA75703846BDE8F0818B
:102C7000002000E000300240C2A507F4CDB5E8B561
:102C800024020020ACDC002070B5184CE06820B1B4
:102C900000F07BFF6168884204D000F0BFFF00F0C5
:102CA00074FF6060E068401CE06001281CD108F0FF
:102CB000D5FF05462068854216D0002813DBFFF7B4
:102CC00041FB01462068C0EB0012206900EBC20204
:102CD0005167C5EB0511064A00EBC100011D1160EB
:102CE000406FFFF70DFB256070BD0000440300201E
:102CF000300200201CB5040004D10E480068046EA8
:102D0000002C16D0FFF7C0FF2046FFF767F80090B1
:102D100044696846FFF7BEF84CB12046FFF75EF8FD
:102D2000019081688968884701A8FFF7B3F800F02F
:102D3000F3FE1CBD3002002001490A4600F002B833
:102D400001F0FFFF2DE9F04387B015460C465FEA1E
:102D5000000846D0FFF798FF002000F0D1FC814624
:102D600021480068066E4046FFF738F8009000687A
:102D7000806900F08DFC074640F6FF70C44204D124
:102D80000098B0F90440B0F906500098611E02891D
:102D9000ADF804401144ADF808104189681E08449C
:102DA000ADF80650ADF80A0004F01AFE6846FFF7C9
:102DB00071F801A805F082FE06E02A462146404649
:102DC00000F088FB05F02EFE0028F6D1384600F012
:102DD0005FFC304600F090F9484600F091FC00F0AE
:102DE0009BFE07B0BDE8F083300200202DE9FE4FC6
:102DF000984691468A46834600270C9EFFF744FF7B
:102E0000184819490068407C51F82040E168096879
:102E1000042903D02468002CF8D100E01CB9FFF786
:102E200093FA041E1BD0E0680121C26A2046904735
:102E3000050011D02469A0688047401C02D10B4CCA
:102E400046F001060096CDE9015443464A465146F4
:102E5000584600F0E5F9074600F05EFE3846BDE84A
:102E6000FE8F00003002002048020020D08D0108B3
:102E700038B504001CD0FFF707FF0E480068006E4D
:102E8000A04201D100F0F6FB2046FEF7A7FF00901C
:102E9000406908B100F029FE00980068FFF7EAF9E0
:102EA0006846FEF7F7FF2046FEF7C4FE00F034FE4A
:102EB00038BD0000300200202DE9FF4F83B09A4654
:102EC0008B460746FFF7E0FEDFF83891D9F800009F
:102ED000447C4D4800570128204606DD02F088FA60
:102EE0000546204602F098FA05E002F063FA05462E
:102EF000204602F065FA04461FB302A901A8FFF7B5
:102F000025FEB7F90000002800DA0020B7F90260BA
:102F10008046002E00DA002601984119B7F9040016
:102F2000491E09F0A8F8054602980119B7F90600EC
:102F3000491E09F0A0F8A5EB0802841B521C641C72
:102F400003E04FF0000846462A46BAF1000F01D1CF
:102F5000C4F1000A002A51DD002C4FDD10980090CA
:102F6000534631464046FFF741FF5FEA000A10D062
:102F700000F07CF80746A04206D0D9F80000806C2B
:102F800010B1322106F0BAF8504600F0B5F800252D
:102F900023E059460598884700F0BEFD012007B0A0
:102FA000BDE8F08F611BB94202DA504600F088F8A4
:102FB0003DB172194146504600F0C6F85046FFF741
:102FC00099FE5946059888471048016809B10020C4
:102FD00088475046FFF7B0FE3D44A542E2DB50462D
:102FE000FFF746FF002000F087F8A74206D0D9F887
:102FF0000000806C10B1332106F080F800F08CFDE9
:103000000020CCE73002002068020020800300206E
:1030100038B505004FF0000411D0FFF735FE284603
:10302000FEF7DCFE0090006800698068804702F0CF
:1030300001FE04466846FEF72DFF00F06DFD2046B8
:1030400038BD38B504000ED0FFF71EFE2046FEF74F
:10305000C5FE00F1180400906846FEF71BFF00F063
:103060005BFD204638BD002038BD000038B5044661
:103070000025FFF709FE1CB908480068046E44B13A
:103080002046FEF7ABFE0090B0F90A506846FEF706
:1030900001FF00F041FD284638BD0000300200204D
:1030A00070B505460024284606F076FA641C18B16F
:1030B000BDE8704000F07AB8052CF4DB70BD00006C
:1030C00038B50C46050004D10A480068056E002D8D
:1030D0000FD0FFF7D9FD2846FEF780FE0090B0F92B
:1030E0000A10A14200DD44816846FEF7D3FE00F0DD
:1030F00013FD38BD30020020F8B50546FFF7C4FDCA
:10310000104E3068046ECDB10CB100F0B3FA04F08B
:1031100067FD2846FEF762FE009031680D66006884
:10312000FFF7AAF86846FEF7B5FE02F01FFC02F0B2
:1031300095FB00BF00F0F0FC2046F8BD00F09AFAC5
:10314000F8E70000300200207CB515460E4604006A
:1031500004D115480068046E002C24D0FFF794FDBC
:103160002046FEF73BFE2DB20090C58034B284802D
:1031700002F074FB0098406980B1FEF72FFE009AC0
:103180000190B2F908108180B2F90A20C28011B111
:103190000AB10480458001A8FEF77CFE6846FEF770
:1031A00079FE00F0B9FC7CBD3002002001490A46DE
:1031B00000F002B801F0FFFF7FB515460C4606008F
:1031C0002DD0FFF761FD3046FEF708FE40F6FF7197
:1031D0000190CC4203D1B0F90440B0F90650028905
:1031E000611E1144ADF80840ADF80C104189681E0D
:1031F0000844ADF80E00ADF80A5001A8FEF74AFEEB
:1032000002A805F05BFC06E02A462146304600F0A5
:1032100049F905F007FC0028F6D100F07DFC7FBDE0
:103220002DE9FF4FDFF8E8B083B01C46DBF8001053
:10323000DDE9106092464FF000084B7C424612993F
:10324000FEF7DCFF050060D028698068804702F047
:10325000F1FC81460AFB09F1C91DCF08FEF7F8FD14
:10326000F10705D1C11700EB9170801000EB400011
:10327000002C09DC1FB11838B0FBF7F000E000208B
:103280006442A04200DC0446F00707D10090DDE96B
:1032900003012346524600F0ADFB8046002C03DCC0
:1032A0002846FEF7E7FF30E004FB07F01830F1078F
:1032B00002D0FEF791FC01E0FEF79DFC06001CD059
:1032C000FEF78CFD01900560039981800499C1800F
:1032D000A0F808A04481C0F81480C0E9037901A8CF
:1032E000FEF7D8FD1298AE602861DBF80000407C44
:1032F000A861304607B0BDE8F08F2846FEF7BAFF58
:10330000B8F1000001D0FEF795FC0020F2E70000C4
:10331000300200202DE9F74F8EB0144689460E98F2
:10332000FEF75CFD0990B0F908B0B0F90A600068DA
:10333000006940680C9009A8FEF7ACFD564D574F48
:103340002868407C57F82000C1688A6A08219047A5
:103350000790182801D3202007902868407C57F850
:1033600020000069069003C80B904D48814201D0AF
:10337000012000E000200A90002000F06BFC0028F3
:103380007DD1286809EB0B01B0F90C20891A491E80
:10339000002902DDABEB010500E05D46B0F9081045
:1033A000494505DDA1EB090189446D1A089101E049
:1033B00000210891002D6BDDB0F90E20A119891AAA
:1033C000491E002902DDA6EB010800E0B046B0F975
:1033D0000A00A04204DD061B3444A8EB060800E006
:1033E0000026B8F1000F53DD089801900DA95F4643
:1033F000DDF830A00E980091FFF723FE774300EB35
:10340000870101982B4601EB800200994846CDE9DF
:1034100000A1214600F09EFE0090002838D00A98B6
:10342000E8B1DDE906322946009800F0C3FCB0B9E6
:103430000698009FDA46D0F810C0BCF1000F05D006
:1034400004235A4639463846E04708E00B99386865
:10345000884701C7AAF101005FEA000AF6D1009986
:103460000020079ACDE90301059001200090CDE9E5
:10347000010221460346641C2A46484600E007E054
:1034800001F054FDA8F10100761C5FEA0008ABD101
:1034900011B0BDE8F08F000030020020480200208B
:1034A000F3540008F8B515460E460746FEF796FC9D
:1034B000009000681621C068426A002090470446C8
:1034C0006846FEF7E7FC002C03D02A463146384612
:1034D000A047F8BDF8B516460F46050012D0FEF716
:1034E0007DFC009044696846FEF7D4FC2846FFF74F
:1034F0008FFD0346082800DD2CB1324639462846A8
:1035000009F004FDF8BD32463946284609F09EFE12
:10351000F8BD10B5002821D009B30AB3B1F90040B5
:10352000B2F900309C4200DA23460380B1F9024030
:10353000B2F902309C4200DA23464380B1F90440DC
:10354000B2F904309C4200DD23468380B1F90610B5
:10355000B2F90620914200DC1146C18010BD11462F
:103560000A6802604968416010BD00280BD00388DA
:103570000B44038083881944818041881144418031
:10358000C1881144C180704770B50025FFF77CFBEE
:10359000094CD4E9002082420AD0D2E900561046F4
:1035A00008F02EFC20603146284604F09FFE0125DD
:1035B00000F0B2FA284670BD340300202DE9FC412A
:1035C000154DDDE908742D68B5F90860864200DD07
:1035D0003046B5F90C60964200DA3246824219DB79
:1035E000B5F90A608E4200DD3146B5F90E509D42B4
:1035F00000DA2B468B420DDB00E02C46E5682D6897
:1036000025B1042D02D02568002DF6D1CDE9007436
:1036100002F004F8BDE8FC8130020020B0F902207D
:10362000B1F906309A4213DCB1F90220B0F9063044
:103630009A420DDCB0F90020B1F904309A4207DC5F
:10364000B1F90010B0F90400814201DC012070479B
:10365000002070470146024870220068FCF7FABD5E
:1036600030020020024970220968FCF7F3BD000017
:103670003002002010B5FFF707FB02F09BF802F0C4
:1036800075F904F0ADF9BDE8104000F045BA00004E
:1036900070B50B4D04462868467CFFF7F5FA022CFE
:1036A00009D22046FEF750FE28B128684474FFF77F
:1036B000E1FF0448046000F02FFA304670BD0000BE
:1036C00030020020BC02002010B50446FFF7DCFAEF
:1036D000204602F099F8BDE8104000F01DBA10B580
:1036E0000446FFF7D1FA204602F0C6F8BDE81040C4
:1036F00000F012BA014988607047000024020020DF
:1037000010B50446FFF7C0FA204602F0D7F8044689
:1037100000F002FA204610BD70B50446FFF7B4FA77
:1037200004480068C56904B1C46100F0F5F9284691
:1037300070BD00003002002070B50546FFF7A4FA06
:1037400003480068847E857600F0E6F9204670BD67
:103750003002002070B50C460546FFF795FA09487F
:10376000224605800848048008480068417C0848D3
:1037700050F82100C1680B6A29469847BDE870409F
:1037800000F0CAB97002002072020020300200204E
:103790004802002070B50546FFF776FA0348006836
:1037A000047E057600F0B8F9204670BD3002002096
:1037B00070B50446FFF768FA04480068B0F92C5069
:1037C000848500F0A9F9284670BD00003002002071
:1037D00070B50446FFF758FA04480068B0F92A505B
:1037E000448500F099F9284670BD000030020020A1
:1037F00002480068002800D000477047600300209E
:1038000002498A6802B98860FFF7F2BF34030020DA
:1038100010B504000ED0FFF737FA204609F0B6F8CD
:10382000204609F02FFB2046FEF704FABDE81040C1
:1038300000F072B910BD38B50C46050011D0FFF785
:1038400023FA2846FEF7CAFA00908089204201D068
:10385000012400E000246846FEF71CFB00F05CF940
:1038600000E00124204638BD38B505460020286018
:103870000648046844B12046FEF7B0FA009000699B
:1038800028606846FEF706FB204638BD700400201D
:1038900038B504004FF000000D46086011D02046F6
:1038A000FEF79CFA0090846844B16846FEF7F2FA8D
:1038B0002046FEF793FA0090006928606846FEF7FC
:1038C000E9FA204638BD00002DE9F041084E0446D3
:1038D00005683068016828468847074630684168AF
:1038E00028468847284420603846BDE8F08100001B
:1038F000340200202DE9F0410C4606460025064F13
:1039000005E0386841683046884706440544641E2F
:10391000F7D22846BDE8F081340200202DE9F041BD
:103920001E46069C1746884605463A46A8687F1CF0
:103930003346D0F804C041462846E047641EF4D11F
:10394000BDE8F08170B5B0F90040091BB0F9044042
:103950008C422CDD00F11404B0F902500069521BB6
:1039600002FB0040CA1800EBE104521ED010B0EB7D
:10397000E10501F007034FF0FF0102F0070221FA11
:1039800003F0C2F1070201FA02F1CEB221780FD0A2
:1039900001436D1E04F8011B002D05DDFF222946A1
:1039A0002046FCF777FC2C4420783043207070BD13
:1039B00030400143217070BD10B5B0F90030B0F94E
:1039C0000240C91A00F114030069121B02FB003007
:1039D00000EBE10001F0070302788021D9400A439F
:1039E000027010BDB0F90610026951431430FCF7A3
:1039F00058BC00002DE9F843804602F10F00001189
:103A0000470003FB07F01C46154689461430FEF7B5
:103A1000F2F8060018D0FFF737F93046FEF7DEF966
:103A20000090A0F80080A0F802908580C48007492B
:103A300081600121818107616846FEF72BFA00F061
:103A40006BF83046BDE8F8830020FBE75C96010880
:103A500070B5B0F90660B0F904400B6800F11405C8
:103A600096421BDD0069A34202FB005000EBE3021B
:103A700014DA641EE010A0EBE30512F8010B03F06A
:103A80000704A040C4B206E045B1083312F8014B68
:103A900023F007036D1E002CF6D004E0002070BD5B
:103AA0006006040E5B1C2006FAD5FF2C07D01846D2
:103AB00002E06406240E401C6606FAD400E0D81D1D
:103AC000C443640705D006E012F8014BFF2C09D16E
:103AD00008306D1EF8D5C01A401C0B6070BD620620
:103AE000140E401C2206FAD4F5E738B50546FFF758
:103AF000CBF82846FEF772F900908189491E0CB276
:103B000084816846FEF7C6F914B92846FEF792F894
:103B100000F002F838BD00000348C168491EC160CA
:103B200001D100F08BB87047440300202DE9F0412B
:103B300016460F4605460024FFF7A6F832463946DA
:103B4000284600F05DFF054408B1641CF6E7FFF766
:103B5000E3FF2046BDE8F08110B54FF40041034873
:103B6000FEF760F80248FFF7C5FD10BD5C4A002073
:103B70005813010810B5044620460BF00BFF10BD8A
:103B800010B51E200BF006FF10BD10B50CF00EFE98
:103B900010BD10B50CF010FE10BD704710B501201F
:103BA0000CF076FB1B4908600846006808B101204C
:103BB00000E0002050B900BF102080F31188BFF34F
:103BC0004F8FBFF36F8F00BF00BFFEE703220021BE
:103BD00001200CF06EFB104908600846006830B107
:103BE00000231A4619460C4800680CF0A9FC0A4844
:103BF000006808B1012000E0002050B900BF10208B
:103C000080F31188BFF34F8FBFF36F8F00BF00BFEA
:103C1000FEE710BD8C0000209000002010B5064883
:103C2000006808B9FFF7BAFF00235A1E1946024878
:103C300000680CF06BFB10BD8C00002010B5002359
:103C40001A461946024800680CF07AFC10BD0000C4
:103C50008C0000200EB508B102AA00E0002200236B
:103C600001A9684600F0AAFC0EBD0000074910B586
:103C70000C7818B101200870801E03E00020087045
:103C80006FF07F4001F006F9204610BD6A02002067
:103C900010B5082A0EDC0346012A18D0022A56D095
:103CA000042A76D010F8042B03F8012B491EF9D111
:103CB000012010BD102A08DC4FEA000230F8043B56
:103CC00022F8023B491EF9D1F2E7002010BD10F89E
:103CD000042BD207120E491E34D010F8044B491E93
:103CE00004F0010442EA84122CD010F8044B491E5F
:103CF00004F0010442EA441224D010F8044B491E97
:103D000004F0010442EA04121CD010F8044B491ECE
:103D100004F0010442EAC40214D010F8044B491E16
:103D200004F0010442EA84020CD010F8044B491E4E
:103D300004F0010442EA440204D010F8044B04F0F9
:103D40000104224303F8012B0029C0D1B0E710F889
:103D5000042B9207120E491E15D010F8044B491E71
:103D600004F0030442EA04120DD010F8044B491E7B
:103D700004F0030442EA840205D010F8044B04F076
:103D800003042243491E03F8012B0029DFD18FE7EA
:103D9000FFE710F8042B1207120E491E05D010F889
:103DA000044B04F00F042243491E03F8012B0029A1
:103DB000EFD17DE738B50024009400F01DF838BD40
:103DC0000B4810B58169002910D101218161FFF7ED
:103DD000C3FEFDF7BFFE01F0DBFD054905481C31C0
:103DE0000860BDE81040084600F0CCBD10BD0000E2
:103DF0002402002005C200082DE9F0410D46069975
:103E0000044601B901461F68082A09DC0E46012A4A
:103E10001AD0022A5BD0042A7DD0082A13D18DE063
:103E2000102A07DCD3F810C00E46BCF1000F04D0F6
:103E3000022389E00020BDE8F08101CCB84726F8D4
:103E4000020B6D1EF9D189E001CCB847C0074FEADB
:103E500010686D1E36D001CCB84748EA801000F0DB
:103E6000FF086D1E2ED001CCB84748EA401000F084
:103E7000FF086D1E26D001CCB84748EA001000F0BC
:103E8000FF086D1E1ED001CCB84748EAC00000F004
:103E9000FF086D1E16D001CCB84748EA800000F03C
:103EA000FF086D1E0ED001CCB84748EA400000F074
:103EB000FF086D1E06D001CCB84740EA080000F0AC
:103EC000FF086D1E06F8018B002DBDD146E001CC28
:103ED000B84780074FEA10686D1E16D001CCB8476E
:103EE00048EA001000F0FF086D1E0ED001CCB84764
:103EF00048EA800000F0FF086D1E06D001CCB847EC
:103F000040EA080000F0FF086D1E06F8018B002D46
:103F1000DDD123E0FFE701CCB84700074FEA106886
:103F20006D1E06D001CCB84740EA080000F0FF083B
:103F30006D1E06F8018B002DEDD10FE0D3F810C0F7
:103F4000BCF1000F04D001232A462046E04705E0DB
:103F500001CCB84706F8010B6D1EF9D101206AE7C4
:103F60007CB5064628480D46006868B1002004F07C
:103F7000A5FD06E06A462946304605F0CBFB04F075
:103F800051FD0028F6D17CBD106800901F4C506890
:103F900001902268BDF8000032F84C1F0844ADF8CB
:103FA0000000BDF8020091880844ADF80200BDF899
:103FB000040011880844ADF80400BDF8060091889B
:103FC0000844ADF80600684604F078FD0EE000BF36
:103FD0002068BDF800106A464184BDF80210818453
:103FE0002946304605F096FB04F01CFD0028EFD171
:103FF000206830F8221F428D891A01804188C28DC5
:10400000891A41807CBD00006C0200203002002033
:104010002DE9FF4F85B09A4690460D46FEF76CFDA0
:104020004FF00009DDF814B006464C4625B128686B
:1040300000906868019002E06846FEF73FFD18F0C6
:104040000C0F02D05546002713E0BDF902402DE0C9
:1040500029467F1C059800F029FB01466D1A05983A
:10406000FFF748FC05990844059005A800F062FB9D
:1040700008B9002DECD108F00C00042804D0082861
:1040800002D00C2812D105E0BDF9060007FB16048A
:10409000641C0BE0BDF90600BDF90210401A07FBD5
:1040A0001600401C00EBD07001EB60045546CDF8C3
:1040B00014B043E02946059800F0F8FA0746014697
:1040C000ED1B059800F0C8FA18F003010ED0012985
:1040D00039D002290DD1BDF90410BDF90020891A8B
:1040E000091A01EBD17102EB610101E0BDF9001089
:1040F0008946174A401E484412683946A2F8229061
:104100009484ADF80C00A019401EADF80890ADF8ED
:104110000E00ADF80A4002AA0598FFF721FF3946C4
:104120000598FFF7E7FB059908440590FEF7E4FCC6
:10413000044405A800F0FEFA002801D1002DB9D1F1
:1041400009B0BDE8F08FBDF90410091A491CCFE78A
:10415000300200202DE9FF4F8DB00020DDF86CA06B
:10416000164600901D4604460246CAF8000008ABF9
:1041700003A902A800F022FA18B1002011B0BDE88E
:10418000F08F0898854200DD0546614F0B95614927
:104190003868407C51F82010049109690691FEF7B7
:1041A00051FC05903868407CFEF712FD5A49814663
:1041B000884204D05949894501D0012000E00020FF
:1041C0000A9001CE1A9988478346000E079077D04F
:1041D000009870BB0D9800EB04084D480068B0F9DA
:1041E0000800404503DDA0EB0807804600E00027FB
:1041F0000298049900EB840000EB8700CDE90001F0
:104200000B990D98421809920E9B40461946521E72
:10421000FFF7D4F901200090059818280ADA0298CF
:10422000DDE9052300EB840000EB8700E91B00F0CB
:10423000E9F812E00A9880B1029800EB840000EBE4
:1042400087070998A0EB080849463868884701C7DE
:10425000A8F101005FEA0008F6D13148C06980B3D7
:10426000DDE9020700EB840007EB8402CDE90202DE
:104270002B4C361F3046E4692B460299A047FF219C
:104280003068B1EB106F02D10298006804E0029A26
:104290001268B1EB126F01D1039A1060029806F117
:1042A0000406001D02900398001D03906D1EE7D1C7
:1042B0000397DAF8000040F00101CAF8001020E08E
:1042C00021E0FFE70798FF2811D0C0F1FF02029814
:1042D00050F82410584600F0F1FA039941F82400F0
:1042E000DAF8000040F00101CAF8001005E0029879
:1042F000039950F8240041F82400641C6D1E7FF4DB
:1043000060AF03983AE7039941F824B0E8E700006A
:104310003002002048020020F3540008F154000845
:10432000480400202DE9F04F85B09B46DDE90F875A
:1043300092460C460546DDF83890FEF7A5FC154878
:104340000068C16C4E190D19016DABF1010001EB54
:104350000A04ADF810502044ADF80C60ADF812001E
:10436000ADF80E4003A804F0A9FB0BE0CDF80090D7
:10437000CDE901875B4622462946304606F07EFCA1
:1043800004F050FB0028F1D1FFF7C6FB05B0BDE8F3
:10439000F08F0000300200202DE9FF4F87B00C465F
:1043A000DDE91698DDE914BA0546FEF76DFC144800
:1043B000099A0168C86C096D471985180E190A9881
:1043C000ADF810700C18ADF81450ADF81260ADF8DF
:1043D000164004A804F072FB0BE0CDE90298CDE989
:1043E00000BA23462A463146384606F0CBFC04F094
:1043F00019FB0028F1D1FFF78FFB0BB0BDE8F08F60
:10440000300200202DE9F05F0C1E16DD5E680146CB
:1044100000EB8405082A12DC611E012A26D0022A3C
:1044200047D0042A6AD0082A07D1071917F8010DC6
:10443000B04745F8040D641EF8D1BDE8F09F102A7E
:10444000FBDC5F693FB12246BC46BDE8F04F02236A
:104450005DF804EB604701EB440700BF37F8020D3D
:10446000B04745F8040D641EF8D1E6E700EBE10023
:1044700001F0070710F801A98146802020FA07F80B
:10448000B5F104050AEA0800C7F10701C840B047C2
:1044900045F804093FB14FEA48604FEA10687F1EB3
:1044A000641EEFD1C9E719F801A907274FF00108E9
:1044B000F6E700EBA10001F0030710F801A981461F
:1044C0007900C02020FA01F84FF0060BB5F1040581
:1044D0000AEA0800ABEB4701C840B04745F80409B9
:1044E0003FB14FEA88604FEA10687F1E641EEFD12B
:1044F000A3E7032719F801A9B846F7E700EB610025
:10450000012710F801A9A7438146B900F02020FA3D
:1045100001F84FF0040B2D1F0AEA0800ABEB8701EE
:10452000C840B04745F804093FB14FEA08704FEA68
:1045300010687F1E641EEFD17FE719F801A90127DB
:104540004FF00F08F6E700002DE9F04F85B09B46CD
:10455000DDE90F8716468A460446DDF83890FEF7F7
:1045600093FB15480068C16C0D19016DA81901EB8A
:104570000A04401EADF81000A019401EADF80C5002
:10458000ADF81200ADF80E4003A804F097FA0BE066
:10459000CDF80090CDE901875B463246214628469A
:1045A00006F012FF04F03EFA0028F1D1FFF7B4FA4A
:1045B00005B0BDE8F08F0000300200202DE9F04783
:1045C000224C06461F46A06990468946002540B900
:1045D0000120A06104F120011D480860084600F098
:1045E000D1F9606930B91B480068606110B900F00A
:1045F000E4FE606107B138604EB1A06830B960690F
:104600008000FDF75DFBA06000B901253060B9F1C5
:10461000000F0AD0E06830B960698000FDF750FBF8
:10462000E06000B90125C9F80000B8F1000F0AD018
:10463000206930B960698000FDF742FB206100B954
:104640000125C8F800002846BDE8F087480400208E
:104650008DC200086002002073B5124A01A90098BB
:104660001268904700240090C8B10F4900250968DE
:10467000C969496959B10A684AB1019990477CBD35
:104680006846FFF721F90546FEF7F2F90444019860
:10469000401E0190F4D5284600F040F8044420461E
:1046A0007CBD0000300300203002002073B50D46B1
:1046B0000098002490B10A490968C969496959B14B
:1046C0004A684AB1294690477CBD6846FFF7FCF826
:1046D00020B10A2802D0641CAC42F6DB20467CBD27
:1046E0003002002031B50024009808B905E0641CB0
:1046F0006846FFF7E9F80028F9D1204638BD0000E8
:10470000044AB2F9002002600348B0F900000860D2
:1047100070470000700200207202002038B50024AB
:1047200069460094FEF7B6F90099814200DD0C1A43
:10473000204638BD016811F8012B12B10A2A02D0B7
:1047400002E001207047016000207047B0F900309E
:10475000B1F90020934200DA0280B0F90230B1F9D9
:104760000220934200DA4280B0F90430B1F904200B
:10477000934200DD8280B0F90620B1F906108A422A
:1047800000DDC180704770B5B1F90040B2F900306A
:104790009C4200DD23460380B1F90250B2F9024089
:1047A000A54200DD2C464480B1F90460B2F9045002
:1047B000AE4200DA35468580B1F90610B2F906201E
:1047C000914200DB1146C1809D4201DBA14201DA2A
:1047D000002070BD012070BD014602480068407C89
:1047E00000F002B8300200202DE9F8430126894686
:1047F000044602285DDA304F7A6802B190472E4DA8
:104800005FEA090005F1100532D0012803D0B9F1A3
:10481000020F4ED118E055F8240088B92046FDF764
:1048200093FD009018B3C0680D21426A6846904716
:1048300002003ED049460098904755F824000026D3
:10484000401C45F8240034E02046FDF77DFD009033
:1048500068B1C0680D21426A68469047040028D0BC
:10486000386800B1804749460098A047002620E0FC
:1048700055F82400A846012812D12046FDF764FD12
:10488000009068B1C0680D21426A684690470500F3
:1048900006D0386800B1804749460098A8470026EE
:1048A00058F8241009B1012200E00022891A48F8C2
:1048B00024103046BDE8F8831803002070B5FF23AC
:1048C000B3EB116F29D0C3B200F47F4500F47F042D
:1048D000060E5343554354435643C2F1FF00CAB238
:1048E00002FB003201F47F4303FB005301F47F0518
:1048F00005FB0044090E01FB0065C2F307204FF4DD
:104900007F4101EA1322090201EA14214FF07F439B
:10491000104303EA05430843184370BD2DE9F04FE7
:104920000646DDE90CB915460C4600208046584580
:1049300019D20B9F4FF0FF0A01CE08CCAAEB1062F0
:1049400002FB09F2B2FBFAF1CAB21946FFF7B6FF51
:1049500020F07F4001C57F1EEED1099804EB800452
:1049600008F10100E2E7BDE8F08F0B8813440380F3
:104970008B889B1A83804B8813444380C988891A8B
:10498000C180704702494A6942604861704700002F
:10499000240200202DE9F8430768064688460025D2
:1049A000384600F0CBF840B3404600F0D7F8441C3E
:1049B0003846FDF7FDF984420CD1F4B13846FDF7D5
:1049C0000DFA224641460090FBF744FC6846FDF78D
:1049D00061FA11E02046FDF7FFF804000DD0FDF765
:1049E000FDF941460090FBF76EFC6846FDF752FA70
:1049F0003046FDF749F9346001252846BDE8F883C3
:104A000010B5044600F009F801462046BDE8104004
:104A1000FEF770BF002308F05DBA77B581B0154688
:104A20000E466B46019808F055FA04460146019877
:104A3000FEF760FF01990844019001A8FEF744FFCA
:104A40000A2802D0012D02D012E0641C10E02028B8
:104A50000ED1FEF70DF8054607E02844009001A8A6
:104A6000641CFEF731FF202802D100988642F4DA58
:104A700004B0204670BD10B502E000F8011B521EC4
:104A80000AB18307F9D1930818D001EB014402F071
:104A9000030204EB042406E010C01B1F10C040F802
:104AA000084B40F8044C042BF6DA01E010C05B1E02
:104AB000002BFBD102E000F8011B521E002AFAD1A4
:104AC00010BD10B5830702D520F8021B521E5308F3
:104AD00011D001EB0144042B09DB10C01B1F10C0D7
:104AE000042B40F8084B40F8044CF6DA01E010C003
:104AF0005B1E002BFBD1D20700D0018010BD024607
:104B000000204FF080414318934201D8D21A581820
:104B100040088908F7D1704700B907A021B906A15C
:104B200002E03AB1401C491C02780B789A42F8D056
:104B300001207047002070470000000038B50D4686
:104B4000012448B1FDF74AF929460090FFF7E4FF38
:104B500004466846FDF79EF9204638BD4FF0FF3108
:104B600028B100BF10F8012B491C002AFAD10846D1
:104B70007047000000B587B00121084601F008FB2E
:104B80000121102001F024FB072209214948FCF7EC
:104B900013FE07220A214748FCF70EFE00208DF87D
:104BA0001A0001208DF81B0002208DF81800000269
:104BB000059002208DF8190005A93E48FCF7B4FDC8
:104BC00002208DF818004002059005A93948FCF72D
:104BD000ABFD4FF4E13001900020ADF80800ADF8D6
:104BE0000A00ADF80C00ADF810000C20ADF80E0076
:104BF00001A9314802F0A8FC012240F225512E48BB
:104C000002F07DFC01212C4802F043FC40212A489F
:104C100002F036FC0121042001F0BAFA0121202023
:104C200001F0D6FA082206212448FCF7C5FD082227
:104C300007212248FCF7C0FD00208DF81A00012052
:104C40008DF81B0002208DF81800402005900220EE
:104C50008DF8190005A91948FCF766FD02208DF8AA
:104C600018008020059005A91448FCF75DFD4FF45D
:104C7000E13001900020ADF80800ADF80A00ADF871
:104C80000C00ADF810000C20ADF80E0001A90C4886
:104C900002F05AFC012240F22551094802F02FFC93
:104CA0000121074802F0F5FB4021054802F0E8FB2E
:104CB00007B000BD000002400010014000080240A3
:104CC0000014014010B5112001F0E2FF782009F036
:104CD00095F8362001F0DCFF002001F0E9FF3A20D2
:104CE00001F0D6FF552001F0E3FFB22001F0D0FF24
:104CF0000C2001F0DDFF0C2001F0DAFF002001F0B4
:104D0000D7FF332001F0D4FF332001F0D1FFB720CB
:104D100001F0BEFF352001F0CBFFBB2001F0B8FF52
:104D20002B2001F0C5FFC32001F0B2FF172001F0D6
:104D3000BFFFC42001F0ACFF202001F0B9FFC62066
:104D400001F0A6FF052001F0B3FFD02001F0A0FF85
:104D5000A42001F0ADFFA22001F0AAFF01F03CFF6A
:104D6000132001F095FF202001F092FF01F092FD49
:104D700004480388044802880021084601F0FCFE2C
:104D800010BD0000B0000020AE00002010B50020D3
:104D900001F0C6FB00F0010008B1012010BD0020A9
:104DA000FCE710B5002001F0BBFB00F0020008B1E9
:104DB000012010BD0020FCE710B500F055F820B12F
:104DC00000F05DF808B1012010BD0020FCE710B52F
:104DD00000F034F820B100F03CF808B1012010BD1B
:104DE0000020FCE710B5002001F09AFB00F0040061
:104DF00008B1012010BD0020FCE710B5002001F033
:104E00008FFB00F0080008B1012010BD0020FCE776
:104E100010B5002001F084FB00F0100008B1012063
:104E200010BD0020FCE710B5002001F079FB00F078
:104E3000200008B1012010BD0020FCE710B50020C3
:104E400001F06EFB00F0400008B1012010BD002011
:104E5000FCE710B5002001F063FB00F0800008B112
:104E6000012010BD0020FCE710B5002001F058FB28
:104E700000F4807008B1012010BD0020FCE710B5DF
:104E8000002001F04DFB00F4007008B1012010BDBE
:104E90000020FCE702490A680860104670470000DD
:104EA0008C05002010B50446204601F0A5FC10BD7D
:104EB0000449054A0968497C52F8211009690968C2
:104EC0000847000030020020480200201CB50121E4
:104ED000022001F05DF903208DF8050001208DF816
:104EE000040000208DF8060001208DF8070040F630
:104EF000FF70009069460C48FCF716FC4FF4807177
:104F00000948FCF78BFC4FF400710748FCF786FC5E
:104F10004FF480610448FCF781FC4FF400610248C3
:104F2000FCF77CFC1CBD0000000402402DE9F04FA2
:104F300005468DB07B48DDF860901A9C00681E46DF
:104F400017464FF0000A78B11B9B199ACDF80890CC
:104F50000593CDE90324DDE91623CDE90023046898
:104F600033463A46284680E0DDE9160201EB0608A2
:104F700005EB070C1043A8F10108ACF1010C012866
:104F800006D0C9F108000590002002910990C6E002
:104F900065480268B2F90A30581A002806DD361A48
:104FA000002E63DD1946199B00FB0344B2F90E0085
:104FB000A8EB0000002802DD361A002E56DDB2F9FB
:104FC0000C00ACEB0000002800DD3F1AB2F90830FD
:104FD0000020AB4235DD581B3F1A4B46B9F1080F94
:104FE00026D006DC012B0BD0022B11D0042B28D1AC
:104FF00016E0102B1ED0182B1FD0202B21D11CE027
:1050000020F0070304EBE0041D4400F0070018E063
:1050100020F0030304EBA0041D4400F0030010E0A3
:1050200020F0010304EB60041D4400F0010008E0DF
:10503000044404E004EB400401E004EB8004054474
:105040000020002F12DD1B9BDDF864C0CDE90403B6
:10505000CDE90069CDE902C4527C34483B4650F8A2
:105060002200C26854680A462946A0470DB0BDE830
:10507000F08F1799029808440C902B49401E00901D
:105080000A68B2F90A30834241DCB2F90E10029884
:1050900081423CDB4FF0000BD84603950A9434E084
:1050A000BBF1000F05D10A984FF0080B10F801ABC7
:1050B0000A900599ABEB090B3AFA01F00AFA09F1EB
:1050C00001F0FF0A04D118490968097C890716D440
:1050D00015490968C96B0A680B921B9A0AB152F804
:1050E0002000086016990398009B4218521E0299EE
:1050F00000F0D2F80C490B980968C96B0860039955
:10510000169808F1010808440390B845C8DB0998CF
:10511000401C09900C980290199804440998B042D8
:10512000A7DBA3E76C020020300200204802002029
:10513000F0B40C4612490968B1F90A30A3421CDCEC
:10514000B1F90E30A34218DBB1F90830834200DD1B
:105150001846B1F90C30934200DA1A4682420CDB51
:105160004B7C084951F8235013462246E9688E6863
:1051700001462846B446F0BC6047F0BC70470000CA
:1051800030020020480200200A46174930B409685E
:10519000B1F90A30934225DCB1F90E30934221DB9C
:1051A000B1F9083083421DDCB1F90C30834219DBC0
:1051B0000B7C0E4CDB0709D0497C54F82130D968B0
:1051C000CC690146A44630BC18466047CB6B497C8D
:1051D0001B6854F82140E1688D6901462046AC46C1
:1051E00030BC604730BC70473002002048020020CD
:1051F000124B30B41B68B3F9084084421CDCB3F98D
:105200000C40844218DBB3F90A408C4200DD214691
:10521000B3F90E40944200DA22468A420CDB5C7CF1
:10522000074B53F82440E368DD6813460A460146FD
:105230002046AC4630BC604730BC7047300200208E
:10524000480200202DE9F04104460D4616461F464F
:105250003B4632462946204601F021FBBDE8F0815D
:105260002DE9F04104460D4616461F463B463246A0
:105270002946204601F032FBBDE8F0812DE9F041DE
:1052800004460D4616461F463B46324629462046F2
:1052900001F045FBBDE8F08138B5134C2468B4F942
:1052A0000850854200DD2846B4F90C50954200DADA
:1052B0002A46824217DBB4F90A508D4200DD2946A6
:1052C000B4F90E509D4200DA2B468B420BDB009363
:1052D000647C064B53F82440E3681D6913460A4674
:1052E00001462046A84738BD300200204802002071
:1052F0002DE9F84304460D4616461F46DDF820808A
:105300003B46324629462046CDF8008001F01AFB84
:10531000BDE8F883082106F0A1BB00000248006840
:10532000806B00687047000030020020024800686F
:10533000C06B006870470000300200200148008800
:1053400070470000AE000020024809210068407C40
:1053500006F084BB30020020092106F07FBB70B547
:1053600000252C462046FCF7EFFF00B16D1C641CA5
:10537000022CF7DB284670BD02480068407C00F034
:1053800003B800003002002010B5FCF7DDFF002854
:1053900005D0C168CA6ABDE810400221104710BD9F
:1053A00070B504460D462946204601F0EAFA064645
:1053B000304670BD032106F051BB032006F0BABB96
:1053C000042106F04BBB0000014800887047000034
:1053D000B0000020024801210068407C06F03EBB7E
:1053E0003002002001480068704700007C02002065
:1053F000012106F033BB012006F09CBB02480221CC
:105400000068407C06F02ABB30020020014840685A
:10541000704700007C020020022106F01FBB022022
:1054200006F088BBAFF300802DE9F041002809D0D9
:10543000876837B10D4E716819B10468B4F5807F83
:1054400002DD0020BDE8F0813068844200DD0446C2
:10545000002507E057F82500FFF72AFD716841F89D
:1054600025006D1CA542F5DB7068EBE7700300209A
:105470001CB50121042000F08BFE4FF480500090F9
:1054800001208DF8040003208DF8050000208DF820
:1054900006008DF8070069460D48FCF745F94FF402
:1054A00080510B48FCF7BAF9012008F0A7FC4FF433
:1054B00080510748FCF7B0F90A2008F09FFC4FF430
:1054C00080510348FCF7AAF9782008F097FC1CBD2E
:1054D000000802400449054A0968497C52F8211035
:1054E000096949680847000030020020480200208E
:1054F0007047704710B500F01F01074A074BC0F313
:105500004514C0F3C4201B5D105C515C00EB03200C
:1055100000EB014010BD000018810108388101082E
:1055200010B50A4C606860B920688000FCF7C8FBC1
:10553000606040B104F10801054808600846FFF7C3
:1055400021FA002010BD012010BD000070030020D2
:1055500079C2000810B5FFF7B9FCFFF789FF01F029
:1055600027FA094908800846008847F2897188426D
:1055700008D1022000F092F90020FFF793FC3220BE
:1055800000F038F910BD0000AC0000202DE9F04714
:10559000FFF7E5FE07460024DFF860802AE020469A
:1055A000FCF7D2FE28B3D8F8000090F811904474AC
:1055B0002046FFF7AFFE082817DC1148114950F8C4
:1055C00024000069884210D02046FFF7C5FE064639
:1055D000002508E0E8B2FFF77DFF0246E9B2204669
:1055E00000F072F96D1CB542F4DBD8F8001081F8B8
:1055F0001190641CBC42D2DBBDE8F0873002002071
:1056000048020020B88D010870B504460D461646C4
:1056100032462946204601F0E5F970BD2DE9FF4FDD
:1056200083B01646DDE910408B46C0684769426A80
:105630007AB1012111A8904705000AD00698CDE95A
:10564000000433465A4603991198A84707B0BDE8AD
:10565000F08F57480068407CFDF7F4F9824608282F
:1056600001DC012005E0BAF1100F01DC022000E0AE
:1056700004208046002596E04046B8F1010F05D091
:10568000022871D0B8F1040F25D17CE0BAF1090FDE
:1056900021D2DFE80AF08605213F3F5959595900C8
:1056A000039815E001465A461198B847C5F107011D
:1056B00088404FF67F722178EA40114001436D1C0B
:1056C000217004EBE50425F00700054109F1010014
:1056D0008146B042E6DD64E0039817E001465A4691
:1056E0001198B8470621A1EB450188406B004FF6A1
:1056F0003F722178DA40114001436D1C217004EBA8
:10570000A50425F00300054109F101008146B042DE
:10571000E4DD46E0039813E001465A461198B84785
:105720000421A1EB850188402178AB000F229A402B
:105730001140014321702C4485F0010509F101005D
:105740008146B042E8DD2CE0DDF80C9007E0014630
:105750005A461198B847207009F101094444484657
:10576000B145F4DD1DE0FFE7DDF80C9007E00146F0
:105770005A461198B847208009F101094444484627
:10578000B145F4DD0DE0DDF80C9007E001465A4626
:105790001198B847206009F1010944444846B145D1
:1057A000F4DD0BF1010B06998B457FF765AF4DE7F3
:1057B0003002002010B50D4C0D492068407C51F896
:1057C000200048B1C16811B10968042901D00068FE
:1057D000F7E708B1FCF79EFD20680021016600F1A3
:1057E00008014161BDE8104000F038B830020020E7
:1057F0004802002010B5044602480470204600F01C
:1058000079F810BDB20000200149096849680847CD
:105810006C030020044909680A7C520701D5C96B52
:1058200000E0896B08607047300200207CB5094CAD
:1058300005462068417C084850F82100C1680A6B81
:105840006946904720686A4629460830FEF79BFF64
:105850007CBD00003002002048020020044801689E
:1058600004484A7C083150F82200C268126B104785
:1058700030020020480200200149096809680847F1
:105880006C030020044909680A7C520701D5896B22
:1058900000E0C96B086070473002002010B5044674
:1058A00002480470204601F02BF910BDB30000201F
:1058B000014AC2E9000170477C02002001490968E1
:1058C000896808476C030020F8B515460E46012488
:1058D000FCF73AFD009058B1C0681021426A684652
:1058E0009047030004D02A46314600989847002488
:1058F0002046F8BD1CB504464FF4FA600323820627
:105900000421CDE90004024808F0C2FF1CBD0000DC
:1059100000000240F8B515460E460124FCF714FDC0
:10592000009058B1C0680B21426A68469047030056
:1059300004D02A4631460098984700242046F8BDF6
:10594000F8B515460E460124FCF7FEFC009058B150
:10595000C0680A21426A68469047030004D02A467C
:1059600031460098984700242046F8BD10B5074CF2
:105970002068006BFFF79CFAFFF784FF2068406BFC
:10598000FFF796FABDE81040FFF744BF3002002051
:1059900070B500231A460D490D48FCF757FCFFF778
:1059A000CDFC0446FFF710FD05462246294600209F
:1059B000FFF7B0FFFFF7C2FC0446FFF705FD054601
:1059C000224629460020FFF7BBFF70BD4C0C0108A2
:1059D000840B010810B503461446042916D006DCD2
:1059E00001290BD002290BD0032915D10AE0052982
:1059F0000ED006290ED00E290ED105E0002010BDD4
:105A00000020FCE70020FAE70020F8E70020F6E796
:105A10000020F4E70020F2E74FF0FF3200BF00BFA4
:105A20001046ECE72DE9FF4F8DB01746674ADDF8C9
:105A300070901E9E209812681D4600248AB11D9BFE
:105A40001F98CDE90293CDE90460DDE91A03CDE9A1
:105A5000000314682B463A460D98A04711B0BDE8E4
:105A6000F08F0D9A01EB050802EB070CDDE91A2314
:105A70001A43A8F10108ACF1010C012A06D0C9F1C2
:105A800008004FF0000B029105909CE0504A12680C
:105A9000B2F90A40631A002B06DDED1A002DDDDD98
:105AA00021461D9C03FB0466B2F90E30A8EB0303EC
:105AB000002B02DDED1A002DD0DDB2F90C30ACEB7D
:105AC0000303002B00DDFF1A0D9B1C1AB2F90830EE
:105AD000A3420DDDA3EB040C0CEB0003181A20F01D
