:020000040800F2
:1000000040AA012031020008390200083B02000822
:100010003D0200083F020008410200080000000005
:10002000000000000000000000000000990100082E
:100030004502000800000000DD010008557C0008B2
:100040004B0200084B0200084B0200084B0200085C
:100050004B0200084B0200084B020008C5150008BF
:100060004B020008E11500084B0200084B02000893
:100070004B0200084B0200084B0200084B0200082C
:100080004B0200084B0200084B0200084B0200081C
:100090004B0200084B0200084B020008091600083A
:1000A0004B0200084B0200084B0200084B020008FC
:1000B0004B0200084B0200084B0200084B020008EC
:1000C0004B0200084B0200084B0200084B020008DC
:1000D0004B0200081D8200084B0200084B0200087A
:1000E000651500084B0200084B0200084B0200088F
:1000F0004B0200084B0200084B0200084B020008AC
:100100004B0200084B0200084B0200084B0200089B
:100110004B0200084B0200084B0200084B0200088B
:100120004B0200084B0200084B0200084B0200087B
:100130004B0200084B0200084B0200084B0200086B
:100140004B0200084B0200084B0200084B0200085B
:100150004B0200084B0200084B02000829820008ED
:100160004B0200084B0200084B0200084B0200083B
:100170004B0200084B0200084B0200084B0200082B
:100180004B020008DFF80CD000F0E4F8004800470C
:100190001138010840AA0120224B19680868B0E80C
:1001A000F00F80F30988BFF36F8F4FF0000080F3EA
:1001B00011884EF00D0E70470000000006480068E0
:1001C000006880F3088862B661B6BFF34F8FBFF353
:1001D0006F8F00DF00BF00BF08ED00E0EFF3098084
:1001E000BFF36F8F0F4B1A6820E9F00F106008B54E
:1001F0004FF0100080F31188BFF34F8FBFF36F8F64
:1002000014F078FE4FF0000080F31188BDE808403C
:1002100019680868B0E8F00F80F30988BFF36F8FA2
:10022000704700BF24000020EFF3058070470000F6
:100230000648804706480047FEE7FEE7FEE7FEE780
:10024000FEE7FEE7FEE7FEE7FEE7FEE7817C00084B
:100250008501000810B5431A934209D28318881803
:1002600003E010F8011D03F8011D521EF9D210BD64
:1002700040EA01039B0703D009E008C9121F08C028
:10028000042AFAD203E011F8013B00F8013B521EA8
:10029000F9D210BDD2B201E000F8012B491EFBD209
:1002A00070470022F6E710B513460A460446194681
:1002B000FFF7F0FF204610BD421C10F8011B00297B
:1002C000FBD1801A704730B504460020034600E099
:1002D0005B1C934203D2E05CCD5C401BF8D030BD88
:1002E000034611F8012B00F8012B002AF9D118461A
:1002F00070472DE9F05F0546002092469B468846F0
:100300000646814640241BE0284641464746224691
:1003100000F041F853465A46C01A914110D3114695
:100320001846224600F028F82D1A67EB01084F46C0
:1003300022460120002100F01FF817EB00094E4172
:10034000201EA4F10104DFDC484631462A4643461C
:10035000BDE8F09F064C074D06E0E06840F0010361
:1003600094E8070098471034AC42F6D3FFF70EFF2D
:1003700034BC010854BC0108202A04DB203A00FAEE
:1003800002F1002070479140C2F1200320FA03F3EC
:10039000194390407047202A04DB203A21FA02F0EA
:1003A0000021704721FA02F3D040C2F120029140AF
:1003B00008431946704770B58C1810F8015B15F0AA
:1003C000070301D110F8013B2A1106D110F8012BC7
:1003D00003E010F8016B01F8016B5B1EF9D12B07EC
:1003E00005D40023521E0DD401F8013BFAE710F8A2
:1003F000013BCB1A921C03E013F8015B01F8015B8F
:10040000521EF9D5A142D8D3002070BD00298168C1
:1004100002D041F0010101E021F00101816070474B
:10042000084B10B5D3F8042307490A40D0E900145B
:100430002143D0E90240044321431143C3F804138C
:1004400010BD000000200140E030FCFF0029816861
:1004500002D041F4807101E021F480718160704725
:100460000029816802D041F4007101E021F400719B
:100470008160704730B542680F4B0C791A400B68A9
:1004800042EA04221343436082680C4B4D791A40C0
:10049000D1E9034323438C6844EA450423431343CF
:1004A0008360C26A097D22F47002491EC9B242EA21
:1004B0000151C16230BD0000FFFEFFFCFDF7FFC02F
:1004C00070B5072609290AD9C568A1F10A0404EB09
:1004D0004404A640B543A3401D43C56007E0056939
:1004E00001EB4104A640B543A3401D4305611F2312
:1004F000072A09D2446B521E02EB820293409C43AE
:1005000091400C43446370BD0D2A09D2046BD21F85
:1005100002EB820293409C4391400C43046370BD04
:10052000C46A0D3A02EB820293409C4391400C4313
:10053000C46270BD816841F08041816070470000F5
:1005400006490028D1F8040302D040F4000001E07D
:1005500020F40000C1F804037047000000200140AF
:100560007CB500250120CDE90005C2022B461CA167
:100570001E4815F019F902201D490602CDE90001B7
:10058000002332461BA11F4815F00EF9184903201D
:10059000091DCDE900010023F2001BA11E4815F042
:1005A00003F9134804240830CDE900400023324603
:1005B0001AA11D4815F0F8F80D4800230C30CDE9BC
:1005C0000040324619A11D4815F0EEF800233246CE
:1005D0001BA11E48CDE9004515F0E6F87CBD0000E2
:1005E000765461736B47554900000000294B0108A0
:1005F000A0000020765461736B557365724B65796A
:10060000494600006D4F0108765461736B46734490
:100610006562756700000000F94A0108765461734D
:100620006B53746172740000294E01087654617333
:100630006B41646350726F63000000007D4A0108E3
:10064000765461736B54657374000000BD520108E9
:1006500010B58CB044680AA9002006F0D9FC09A99D
:10066000002006F0AFFC9DF82A309DF8282010A14C
:1006700001A80FF0BDF940F60201204608F088FB02
:1006800001A907F0EAFB9DF8260000909DF82530AF
:100690009DF8272009A101A80FF0AAF940F60D0145
:1006A000204608F075FB01A907F0D7FB0CB010BD80
:1006B00025302E32643A25302E3264003230253017
:1006C0002E32642F25302E32642F25302E326400D6
:1006D00030B504460020651803E014F8011B07F04C
:1006E000E7FEAC42F9D3002107F0E2FEBDE830405E
:1006F000002107F0DDBE000058B1012807D0022814
:1007000005D0032803D0042801D0052803D00020F9
:10071000704702487047024870470000EC370120DC
:100720001440012010B5ADF5825D0021684606F049
:10073000D3FA20A011F0B0FD204C28B1082807D032
:1007400054F820101EA022E024A00FF041F903E08D
:1007500027A0216A0FF03CF92BA011F09DFD28B1D4
:10076000082807D054F8201029A010E02FA00FF07F
:100770002FF903E032A0216A0FF02AF936A011F018
:100780008BFD48B108280BD054F8201036A00FF08C
:100790001FF90DF5825D10BD3AA00FF019F903E0C5
:1007A0003EA0216A0FF014F90021084606F094FAE1
:1007B000EFE700002F44697231000000BC00002008
:1007C000665F6D6B646972204469723120CAA7B09C
:1007D000DC20282573290D0A00000000665F6D6B80
:1007E0006469722044697231204F6B0D0A00000069
:1007F0004469723120C4BFC2BCD2D1BEADB4E6D40C
:10080000DA282573290D0A002F446972320000008E
:10081000665F6D6B646972204469723220CAA7B04A
:10082000DC20282573290D0A00000000665F6D6B2F
:100830006469722044697232204F6B0D0A00000017
:100840004469723220C4BFC2BCD2D1BEADB4E6D4BA
:10085000DA282573290D0A002F446972312F446963
:1008600072315F3100000000665F6D6B6469722059
:10087000446972315F3120CAA7B0DC202825732972
:100880000D0A0000665F6D6B646972204469723105
:100890005F3120B3C9B9A60D0A0000004469723166
:1008A0005F3120C4BFC2BCD2D1BEADB4E6D4DA2021
:1008B000282573290D0A000010B5ADF5035D002150
:1008C000684606F009FA42F2680016A1684412F080
:1008D00059F940B1144951F8201014A00FF078F8DC
:1008E0000DF5035D10BD41F23C046C440A2215A1D4
:1008F000204612F067F842F298036B44222214A1BA
:10090000204612F02BFB50B11BA00FF061F82046DF
:1009100011F03BFB0021084606F0DEF9E0E71DA0E0
:10092000F3E70000303A2F00BC000020B4F2BFAA69
:10093000B8F9C4BFC2BCCAA7B0DC20282573290DF2
:100940000A00000061726D666C792E747874000084
:1009500046617446532057726974652044656D6F13
:10096000200D0A207777772E61726D666C792E6381
:100970006F6D200D0A00000061726D666C792E7437
:10098000787420CEC4BCFED0B4C8EBCAA7B0DC0DCE
:100990000A00000061726D666C792E74787420CE46
:1009A000C4BCFED0B4C8EBB3C9B9A60D0A000000A0
:1009B00030B587B000210591029103910491009117
:1009C00003460A46019112210F4802F0ABF8044693
:1009D00008F04CFE0D49204608F007FD204608F0BF
:1009E000C0F9054608F042FE0949284608F0FDFC1A
:1009F000084908601D20029002A9284608F0C6FC9C
:100A000007B0204630BD0000546E010895FB000879
:100A100029FC0008740200200029016802D041F07E
:100A2000010101E021F001010160704730B5036868
:100A3000124ACC6813400A682243D1E905452C4389
:100A40002243CC6922430C6A22434C6A22438C6ABB
:100A500022434C6B22438C6B22431A43026042694F
:100A600022F00703D1E90B2422431A4342610A69A9
:100A700042604A6882608968C16030BD3F801CF076
:100A800070B5ADF5845D0021684606F025F944A0F7
:100A900012F015FA444C002857D0042859D054F8C5
:100AA000201042A00EF094FF4DA012F008FA00288A
:100AB00052D0042854D0052852D054F820104CA00D
:100AC0000EF086FF36A012F0FAF900284BD0042869
:100AD0004DD054F8201035A00EF07AFF54A012F03B
:100AE000EEF9002846D0042848D054F8201052A02F
:100AF0000EF06EFF5DA012F0E2F9002841D004284C
:100B000043D054F820105CA00EF062FF41F23C0587
:100B100000246D44224666A128460EF069FF28464F
:100B200012F0CDF9020033D0042A294633D064A054
:100B30000EF04EFF641CE4B2142CEBD300210846E7
:100B400006F0CAF80DF5845D70BD6AA00EF040FF96
:100B5000AAE713A16CA0A5E772A00EF039FFB1E7D8
:100B60001FA169A0ACE763A00EF032FFB6E70CA1AD
:100B700065A0B1E773A00EF02BFFBBE72CA162A02C
:100B8000B6E776A00EF024FFC0E738A15EA0BBE771
:100B9000294679A000E07DA00EF01AFFCAE7000008
:100BA0002F44697231000000BC000020C9BEB3FDB3
:100BB00044697231CAA7B0DC28B4EDCEF3B4FAC2EE
:100BC000EB203D2025732920CEC4BCFED6BBB6C188
:100BD000BBF2C4BFC2BCB7C7BFD50D0A000000003E
:100BE0002F446972312F446972315F310000000077
:100BF000C9BEB3FDD7D3C4BFC2BC2F446972312F65
:100C0000446972315F31CAA7B0DC28B4EDCEF3B4C9
:100C1000FAC2EB203D2025732920CEC4BCFED6BBF2
:100C2000B6C1BBF2C4BFC2BCB7C7BFD50D0A000076
:100C30002F44697232000000C9BEB3FD44697232AC
:100C400020CAA7B0DC28B4EDCEF3B4FAC2EB203D45
:100C50002025732920CEC4BCFED6BBB6C1BBF2C4CE
:100C6000BFC2BCB7C7BFD50D0A00000061726D6678
:100C70006C792E7478740000C9BEB3FD61726D6624
:100C80006C792E747874CAA7B0DC28B4EDCEF3B4B6
:100C9000FAC2EB203D2025732920CEC4BCFED6BB72
:100CA000B6C1BBF2C4BFC2BCB7C7BFD50D0A0000F6
:100CB0005370656564253032642E747874000000CA
:100CC000C9BEB3FD2573CEC4BCFECAA7B0DC28B430
:100CD000EDCEF3B4FAC2EB203D2025642920CEC42A
:100CE000BCFED6BBB6C1BBF2C4BFC2BCB7C7BFD582
:100CF0000D0A0000C9BEB3FDC4BFC2BC4469723155
:100D0000B3C9B9A60D0A0000C3BBD3D0B7A2CFD6D2
:100D1000CEC4BCFEBBF2C4BFC2BC203A25730D0AD0
:100D200000000000C9BEB3FDD7D3C4BFC2BC2F446E
:100D30006972312F446972315F31B3C9B9A60D0AA6
:100D400000000000C9BEB3FDC4BFC2BC204469722C
:100D50003220B3C9B9A60D0A00000000C9BEB3FD18
:100D6000CEC4BCFE2061726D666C792E74787420DE
:100D7000B3C9B9A60D0A0000C9BEB3FDCEC4BCFEFE
:100D80002573B3C9B9A60D0A00000000C3BBD3D0B8
:100D9000B7A2CFD6CEC4BCFE3A25730D0A00000020
:100DA00008B500F0E9F80FF03FFD642013F07EFE77
:100DB0006946002010F096FB0028F4D02DA00EF01C
:100DC00007FE9DF80000342830D016DC31281CD0F6
:100DD00009DC0D28E5D03028E5D127A00EF0F8FD7C
:100DE00001F060F9DFE7322815D03328DBD128A0E5
:100DF0000EF0EEFDFFF796FCD5E735380528D2D288
:100E0000DFE800F01A20262C320026A00EF0E0FDCC
:100E100007F0C2FBC7E729A00EF0DAFDFFF74CFD93
:100E20002CA00EF0D5FD06F07BFABCE72FA00EF04B
:100E3000CFFDFFF725FEB6E732A00EF0C9FD09F0A1
:100E40007DF9B0E734A00EF0C3FD04F0A5FCAAE7DD
:100E500036A00EF0BDFD00F085F9A4E739A00EF034
:100E6000B7FD07F067FB9EE73CA00EF0B1FD07F071
:100E70002FFB98E70D0A0000A1BE30202D20466907
:100E80006C65466F726D6174A1BF0D0A00000000B1
:100E9000A1BE33202D20437265617465446972A13F
:100EA000BF0D0A00A1BE31202D2056696577526F13
:100EB0006F74446972A1BF0D0A000000A1BE322008
:100EC0002D204372656174654E657746696C65A136
:100ED000BF0D0A00A1BE32202D2052656164466913
:100EE0006C6544617461A1BF0D0A0000A1BE34208D
:100EF0002D2044656C65746544697246696C65A112
:100F0000BF0D0A00A1BE35202D20546573745370A7
:100F1000656564A1BF0D0A00A1BE36202D2044697D
:100F2000736B496E666FA1BF0D0A0000A1BE37202A
:100F30002D20446F776E6C6F61642046696C65A1EB
:100F4000BF0D0A00A1BE38202D2055706F616420AE
:100F500046696C65A1BF0D0A00000000A1BE3920E2
:100F60002D20557064617465204669726D776172D9
:100F700065A1BF0D0A00000010B514A00EF028FDF9
:100F800020A00EF025FD2AA00EF022FD2DA00EF0CF
:100F90001FFD35A00EF01CFD3BA00EF019FD44A076
:100FA0000EF016FD46A00EF013FD4BA00EF010FD46
:100FB0004FA00EF00DFD53A00EF00AFD59A00EF04B
:100FC00007FDBDE810405FA00EF002BD0D0A2D2DFB
:100FD0002D2D2D2D2D2D2D2D2D2D2D2D2D2D2D2D41
:100FE0002D2D2D2D2D2D2D2D2D2D2D2D2D2D2D2D31
:100FF0002D2D2D2D2D2D2D2D2D2D2D2D2D2D0D0A64
:1010000000000000B5DAD2BBB4CECAB9D3C3C7EB77
:10101000D1A1D4F1C3FCC1EE30BDF8D0D0535049BA
:1010200020466C617368B8F1CABDBBAF0D0A000001
:10103000C7EBD1A1D4F1B2D9D7F7C3FCC1EE3A0DB9
:101040000A00000030202D20B6D45350495F466C72
:10105000617368BDF8D0D0CEC4BCFECFB5CDB3B8F7
:10106000F1CABDBBAF0D0A0031202D20CFD4CABEBE
:10107000B8F9C4BFC2BCCFC2B5C4CEC4BCFEC1D0D7
:10108000B1ED0D0A0000000032202D20B4B4BDA83F
:1010900061726D666C792E7478742CB2A2B6C1B38D
:1010A000F6CEC4BCFEB5C4C4DAC8DD0D0A0000002B
:1010B00033202D20B4B4BDA8C4BFC2BC0D0A0000AB
:1010C00034202D20C9BEB3FDCEC4BCFEBACDC4BFF2
:1010D000C2BC0D0A0000000035202D20B6C1D0B4DE
:1010E000CEC4BCFECBD9B6C8B2E2CAD40D0A000049
:1010F00036202D20BBF1C8A1B4C5C5CCD0C5CFA228
:101100000D0A000037202D20CAB9D3C3596D6F6472
:10111000656DD0ADD2E9CFC2D4D8CEC4BCFE0D0A25
:101120000000000038202D20CAB9D3C3596D6F6468
:10113000656DD0ADD2E9C9CFB4ABCEC4BCFE0D0A4B
:101140000000000039202D20C9FDBCB64669726D33
:1011500077617265B5BDD6B8B6A8B5C4B5D8D6B7EF
:101160000D0A00002DE9F05F0025ADF5165D42F295
:101170007C40A946A8462C468DF80450802168443E
:101180000095FFF78EF842F22C5602946E4400242C
:101190002022C1493046FFF75DF8A6F5976A4FF463
:1011A00081615046FFF77DF841F238000021684424
:1011B00005F092FD3146A6F1300011F0E3FC48B194
:1011C000B64951F82010B6A00EF002FC0DF5165DE0
:1011D000BDE8F09F4FF4801B32200FF0DDF974B1B1
:1011E000B5A00EF0F5FB42F27C416944B9A0029A29
:1011F0000EF0EEFB0021084605F06EFDE6E75FEA23
:10120000090006D0012863D0B9F1020F72D0012481
:10121000E2E74321009806F039FC01AF5E465A46EA
:101220003946009806F0FCF80028D5D19DF8040056
:101230000128D1D132463946009806F0F1F89DF8E0
:10124000040008B10324C7E7B346324601A9009859
:1012500006F0E6F89DF80400FF28F3D10027564673
:10126000D846F1194246009806F0DAF87F1CBFB262
:10127000802FF6D3474642460DF1040841460098B8
:1012800006F0CEF83A464146009806F0C9F8062125
:10129000009806F0FBFB42F27C474FF0010900206A
:1012A0006F4404E03954401C80B2802802D2315C83
:1012B0000029F7D1304402A9401C06F073FC0B2230
:1012C000394603A811F07EFB4FF00108432186E068
:1012D0005E465A4601A9009806F0A2F89DF804104F
:1012E000182925D007DC012911D0022911D00429A1
:1012F00005D109E077E041291AD0612918D042468A
:101300007BA00EF065FB67E74FF0020966E08027DF
:1013100001E04FF48067B3465A4601A9009806F0F1
:101320007FF8324601A9009806F07AF8002619E005
:101330001821009806F0AAFB1821009806F0A6FBD9
:1013400042F27C40684411F0BAFD72A00EF040FBFE
:10135000022441E70AEB06015A46009806F060F8BD
:10136000761CB6B2BE42F5DB5A4601A9009806F0DB
:1013700057F89DF804005A46060201A9009806F0A5
:101380004FF89DF80400394606435046FFF7A0F990
:10139000B0420BD06D1CEDB239465046FFF798F9BC
:1013A00002463B46314663A00EF012FB55B11521B3
:1013B000009806F06BFB294667A00EF009FB6D1E36
:1013C000EDB209E742F24C536B443A46514603A84A
:1013D00011F0C4FD08F101001FFA80F80621009801
:1013E00006F054FBF8E64321009806F04FFB01ACF1
:1013F0005F465A462146009806F012F89DF8040010
:1014000001283AD13A462146009806F009F89DF89D
:10141000040000287FF416AF3A4601A9009805F0B1
:10142000FFFF9DF80400FF28F4D10024564631192F
:101430003A46009805F0F4FF641CA4B2802CF6D361
:101440003A4601A9009805F0EBFF9DF804003A46E2
:10145000040201A9009805F0E3FF9DF80400802133
:1014600004433046FFF734F9A04201D06D1CEDB2C1
:101470002DB11521009806F009FB0424ACE603AC5D
:101480002046029910F0F7FD204611F0C7FC2046D7
:1014900010F07BFD0621EDE7CC5D0108BC000020CB
:1014A000B4F2BFAAB8F9C4BFC2BCCAA7B0DC202836
:1014B0002573290D0A0000000D0A446F776E6C6FCA
:1014C00061642066696C652053756363657373217D
:1014D000200D0A0046696C654E616D653A202573E2
:1014E0002046696C6553697A653A2564200D0A00C7
:1014F000556E6B6E6F77205374617274436F6465C1
:101500003A202564207061636B5365713A2025642D
:101510000D0A0000557365722063616E63656C206F
:101520007472616E736665722064617461200D0A65
:101530000000000043726356616C75653A202564B3
:10154000204352433A2564207061636B73697A6566
:101550003A2025640D0A0000457272282564290D81
:101560000A00000070B54FF40065284600F072F8DC
:10157000134C30B1206820F400602060284600F051
:1015800063F84FF40055284600F064F830B1206845
:1015900020F400502060284600F056F84FF4004533
:1015A000284600F057F8002808D0206820F40040B2
:1015B00020602846BDE8704000F046B870BD0000CD
:1015C000003C014010B5022000F044F8002806D08D
:1015D0000FF0D4FDBDE81040022000F035B810BD7A
:1015E00010B5082000F036F8002809D00548016839
:1015F00021F008010160BDE81040082000F024B887
:1016000010BD0000003C014070B5802000F022F8C1
:101610000C4C30B1206820F080002060802000F069
:1016200013F84FF48075284600F014F8002808D00D
:10163000206820F4807020602846BDE8704000F0EB
:1016400003B870BD003C01400149086070470000CC
:10165000143C0140064A014600201268044B0A402F
:1016600014331B680B4202D0002A00D001207047BF
:10167000003C014030B51A4A8379016853B31368BE
:101680008B431360111D0B680468A3430B60017941
:1016900011440B68046823430B60114B083319682D
:1016A0000468A14319601C1D21680568A9432160D5
:1016B0004179102905D011440A68006802430A6084
:1016C00030BD196802681143196021680068014340
:1016D000216030BD0079104402688A43026030BD49
:1016E000003C01402DE9F047044640688EB00027D9
:1016F000804601F06BF80090B0F87CA0D0F86890BC
:10170000D0F88060D0F88850C06D00B10768684696
:1017100001F08CF805E0696820468847002843D12D
:101720002D68002DF7D12068172853D00CDC0F2826
:101730003DD004DC0B2877D00D2825D18BE0112873
:1017400010D0142820D13BE0262846D004DC1E28E7
:1017500051D0202818D18AE02A2816D0B0F5107F61
:1017600012D128E04046E56801F030F80290697A2D
:1017700039B9297A012904D130F87C1F41F48071EC
:10178000018002A801F052F875E0404601F01EF811
:101790000090E16811B1C0F8841002E0D0F8840034
:1017A000E060684601F042F80EB0BDE8F087D7B3BC
:1017B0004046B8475FE0214640460CF0AFFFF3E7F4
:1017C00005A9404600F023FBE068069901600799EF
:1017D0004160E9E7C4F80C90E6E7E0680228E3D14D
:1017E000CDF83080E0680D9027200A900AA9A06803
:1017F00008F0FEFBD8E7E068012804D0002140464D
:1018000000F0BBFAD0E7304607F0C7FC68B13046BD
:1018100007F0A6FE304607F083FB98B10121304661
:1018200006F0CAFF0EE026E02FE0484607F0ECFE87
:101830000646404600F0CAFF0090C0F88060684647
:1018400000F0F4FF0121404600F097FA002EABD1E2
:101850000020E060A8E75FEA0A700CD4E068C06886
:1018600048B1007A38B1404607F07AFE03E02146DD
:1018700040460CF08DFE2146404606F009FF002848
:1018800092D0204607F02AF98EE7404600F09EFFEE
:101890000090703000F0F4FE684673E7F0B587B052
:1018A000B0F908400DF10C0C0C9E876945688CE876
:1018B000F000448A0025CDE900150294B0F90C101F
:1018C000B0F91050B0F90E40B0F90A0019441044B4
:1018D0002B46224600F002F807B0F0BD2DE9F04F8C
:1018E0008BB09846DDE9155691468A468346149F8B
:1018F0001A9C01F0D7FD3348603445F48055CDE99A
:101900000204CDE9007543464A465146584607F061
:101910002DF804004FD000F059FF302204901799A1
:1019200006F086FF0498282227493430FEF792FCFF
:1019300004981999244F4166A0F87C600026C0F8ED
:101940008060C666083FC0F888607968C16504A8F1
:1019500000F06CFF05A9204600F059FA1B4841F23F
:10196000827103960094CDE90110BDF91E00BDF906
:101970001A10BDF91C20431ABDF918005B1C121A7D
:10198000521C06F0F3FF06467868416820468847F7
:10199000204600F01BFF0490866604A800F046FF76
:1019A00042F20400054202D1204607F047F92046E2
:1019B000189900F009FA02F0D7FE0BB02046BDE8F6
:1019C000F08F0000E516000850030020C71F000834
:1019D0002DE9F041044694B0006800F0B7F908B171
:1019E000D94D01E0D84D2C35606815281ED00CDC8F
:1019F0000B281FD004DC00287ED005287DD12FE1E4
:101A00000E287BD01228F9D141E1162806D01728DC
:101A100008D0182808D01C28F0D109E0E86914B0D3
:101A2000BDE8F081286AFAE7686AF8E7A86AF6E78D
:101A30006869F4E720680B901C200C90206800F087
:101A4000C5FE0390016D0BA88847064603A800F069
:101A5000EDFE022E0FDB95E807008DE80700D4E9C4
:101A600004023346A16903F067FA20698719A06967
:101A7000A0EB06082CE0286802F07FFB2169E869EA
:101A80000A18521E606901F097FAA269E869111AF2
:101A9000491C606901F090FAD4E904077F1C3946BB
:101AA00001F0B6FA3946A06901F0B2FA686802F0AE
:101AB00064FB20693946401C01F0AAFAA069394646
:101AC000401E01F0A5FAA0692769A0F10208BF1C19
:101AD000286802F052FB42463946606901F06CFA10
:101AE000686802F04AFB606942463946401C01F0D2
:101AF00063FA686A022802E015E1B0E000E10BDD5C
:101B0000A86802F03AFB61696A6A881C8B18014672
:101B1000424638465B1E27E0296AB14226DD6069ED
:101B2000022E074600F1020801DB374401E007F10D
:101B30000207206901DB304401E000F10200226964
:101B40003B460A444146A2F1010201F021FB022E6C
:101B500002DBA069821B01E0A269921EA069E9690B
:101B60003B46401A4146401C01F012FB022E02DBAC
:101B70006069064401E06669B61CE76928687F1E53
:101B800002F0FBFA3A463146206901F0A7FA3A46DC
:101B90003146A06901F0A2FAE7696868BF1E02F049
:101BA000ECFA20693A463146401C01F097FAA069E8
:101BB0003A463146401E01F091FAE869022802DCFB
:101BC000286A022823DDA86A022802DDE1690F1ACB
:101BD00001E0E769BF1EA86802F0CFFAE9690229AF
:101BE00009DD20693B46421800F1020C314660468F
:101BF000521E01F0CDFA286A022808DDA269E869C0
:101C00003B46101A3146401C921E01F0C1FA28686A
:101C100002F0B3FAD4E90620216901F0CDF9686831
:101C200002F0ABFAD4E906202169401E491C521E7D
:101C300001F0C2F9A86A022811DDA1692669E469E8
:101C4000A1F10208271AA41EB61C7F1CA86802F086
:101C500094FA234642463946304601F099FA71E03B
:101C6000208A00B2ADF81400A18A09B2ADF81610AE
:101C7000228B12B2ADF81820A38B1BB2ADF81A302C
:101C80002C69ED68CDE9005401F05AF95AE0208A38
:101C9000298B0844ADF81400A08AADF81600208BFB
:101CA000298B401AADF81800A08BADF81A002068F7
:101CB00000F08CFD0390006FF0B1022002F0D6FA24
:101CC000039890F87C10C1F3C00100EB8100006C18
:101CD00002F053FA0398406B02F06CFA0398006F1D
:101CE00000F074FD03990990B1F95A2005A901F09B
:101CF0006DF809A800F09AFD03A800F097FD21E017
:101D0000208AADF81400A08AADF81600208BADF83B
:101D10001800A08BADF81A00A86802F02EFA05A8EA
:101D200001F062FA0EE0206800F050FD039030F8F8
:101D30005A1F41F00C01018003A800F077FD2068D4
:101D400007F094FC00206AE69C04002038B50500EA
:101D50004FF000040FD001F0A5FB284600F036FD3F
:101D6000009090F87C00000700D50124684600F040
:101D70005DFD02F0F9FC204638BD70B50D4604004B
:101D800009D001F08FFB294620460CF0EBFFBDE89F
:101D9000704002F0E9BC70BD022803D2024A02EB97
:101DA0008000416070470000500300200149086036
:101DB0007047000050030020024AB2F92610D08478
:101DC00008467047500300207CB50D4604001DD026
:101DD00001F068FB204600F0F9FC0090006F0190D4
:101DE000684600F023FD294601A803F0E5FB58B141
:101DF000204600F0EBFC009001990167684600F076
:101E000015FD204607F060F902F0AEFC7CBD2DE91F
:101E1000F34F85B000270C46B846059800F0D6FC75
:101E20000090C06D0121856805982A689047824618
:101E30002A6803210598904704902A680221059892
:101E4000904703902A68002105989047064600981D
:101E500007F0CAFD8346009807F0CDFD8146009843
:101E600090F83210890601D5B0F9588000F036F8A4
:101E700005460098C06E10B107F02BF80746258084
:101E80006780A4F804A0049AABEB020006EB0802FA
:101E9000401E2A4420813A44E280039BA9EB0302BE
:101EA000521E6281A4F80CA020827019E681401EA7
:101EB0006082684600F0BAFCB4F90C000190B4F9F5
:101EC0001000029002AA01A9059800F039F80198C3
:101ED000A0810298208207B0BDE8F08F10B50146BE
:101EE000002091F83220920607D5B1F9540000285D
:101EF00003D1486B01F0EDF9801C10BD70B58AB0BC
:101F00000C46054600F062FC0990C06D866809A881
:101F100000F08CFC009534B1012C06D0022C0BD0C3
:101F2000032C04D10AE0182000E01620019071680B
:101F3000684688470AB070BD1520F7E71720F5E717
:101F40002DE9FC4117468846044600F03FFC00900E
:101F5000C16D056868468E6800F068FC3268002133
:101F6000204690470646204606F023FF27E000BFA4
:101F700000F02CFC0190B0F900102AB2B0F9043046
:101F8000891A9A1AB0F90230A3EB2543B34210D153
:101F900090F82800000605D53868884209DB491EFC
:101FA000396006E0D8F80000904202DC521CC8F804
:101FB000002001A800F03AFC204606F035FF04009E
:101FC000D6D1BDE8FC812DE9F0430446406889B0D4
:101FD000054606F036FF814600F0F8FB0290D0F887
:101FE0004880D0F88070466E02A800F01FFC206880
:101FF000172853D008DC0E283AD00F2811D0142807
:102000004CD015283DD149E01E281ED01F282AD0CB
:10201000222840D0312834D10020E06009B0BDE84A
:10202000F0836FF070414046884503D004F0BAFB5E
:1020300000F036FD002EF1D0D4E902122068CDE97F
:102040000405CDE9061204A81FE0E0680028E5D0E9
:102050002FB1AF4203D0384607F082FADEE72846B8
:1020600007F0D2FADAE72146484606F011FBD5E739
:10207000E0684168002904DD00680928EFD00A28DB
:1020800005D05EB12046C4F80490B047C6E72846A4
:1020900007F0C9FAC2E7C4F80C80BFE7204606F093
:1020A0001DFDBBE700B591B0ADF5005D002101A8B5
:1020B00004F012FE4FF4805000900DF58253002280
:1020C00007210AA010F09AF9094918B151F8201017
:1020D00008A001E009680CA00DF07AFC0021084678
:1020E00004F0FAFD11B00DF5005D00BD303A0000BE
:1020F000BC000020B8F1CABDBBAFCAA7B0DC202825
:102100002573290D0A000000B8F1CABDBBAFB3C9E1
:10211000B9A620282573290D0A00000038B5020A47
:10212000813AC3B2C2EB421404EB8212C0B200EB9C
:1021300042007F2B02D2A0F1400189B2802B01D94D
:10214000413881B24FF6FF7000EA41000449022293
:102150000144684612F036F9BDF8000038BD0000B1
:1021600000F0FD0110B5002001F0FCFF6FF07F4092
:1021700002F003F8012002F05BF8002002F066F89C
:10218000002002F073F8002002F008F8044800680C
:1021900002F010F8BDE81040002002F01BB800006B
:1021A0009C020020F0B5002201274FF0030C0B68C1
:1021B00007FA02F52B40AB422CD1066853000CFA0B
:1021C00003F4A64306600E79D0F800E09E4046EA8C
:1021D0000E0606600E79012E01D0022E12D18668FD
:1021E000A64386604E79D0F808E09E4046EA0E0687
:1021F00086604668AE43466045688E799640B6B2C2
:1022000035434560C568A543C560CC799C40C3682B
:102210001C43C460521C102AC9D3F0BD4B07DB0E0F
:102220009A40C90810B500EB8100016A0F249C4058
:10223000A1430162016A1143016210BD006980B2CD
:1022400070470246002012690A4200D00120704700
:102250004183704701837047416170470AB1018330
:1022600070474183704700002DE9F04FDFF828B137
:1022700091B04FF0FF35DBF80030B3F92210069132
:10228000DE69B3F924A0F469A189814206D8E28904
:10229000824203D3471AD4F8008012E0D4E90181C6
:1022A000002970D00A8882426DD84D8885426AD351
:1022B000801A82B2486800EB8200B0F90070B0F971
:1022C0000250781C5FD0307EA27C014600FB02F9F0
:1022D000207CCDE90710B3F92A60304604F0B8FA43
:1022E000C0B20E90DBF8001007FB0980A37C8A6B5C
:1022F0000127CDE90402CDE90273C869089AC17EBD
:10230000807ECDE90001DDE90603514603F0E6FDDC
:10231000681C18D046F0020004F09AFADBF80000BE
:10232000A37C05FB0981826BCDE90273CDE9041220
:10233000C069089AC17E807ECDE90001DDE906030F
:10234000514603F0CBFDDBF800005D46C069417EDD
:10235000007E814214D9022E12D086F0040004F0CF
:1023600077FA2868C069027EC37E857E02FB03A1DE
:10237000437E089A0698534402FB050203F040FF8F
:102380000E9804F065FADBF80000627C418C114481
:10239000418411B0BDE8F08FA0020020044800681D
:1023A000C069C06909B1027C0A60407C70470000C6
:1023B000A0020020022008807047C06982898A42FA
:1023C00002D8C2898A4210D2806880B102888A42CB
:1023D0000DD843888B420AD3406800EB8100A0EB04
:1023E0008200B0F90000002801DB012070470020C6
:1023F000704700002DE9F0432F4C034687B020685A
:102400001946B0F92A80C069C06900F082F8002836
:102410004ED041680088181A01EBC0054046AE78DE
:1024200004F016FA814620686A680123816BCDE9C1
:102430000236CDE90421C169CB7E8A7ECDE9002335
:102440000B7EB0F924102A78B0F9220003F046FD83
:102450002068C069477E067EB7421DD9C07E4743CB
:102460004643B8F1020F17D000F009FF804600F094
:10247000CFFE01F082FE21682A78CB69B1F92200F3
:10248000B1F92410DB7E02FB0302CB19314403F0C7
:10249000B7FE404601F071FE484604F0D9F92068C5
:1024A0006A78C369B0F922109B7E02FB0311418454
:1024B00007B0BDE8F0830000A002002030B50E4C4C
:1024C00005460B4620682946C069C06900F021F81E
:1024D000002810D04168008824682A1A0120E46985
:1024E00000EBC200085CA47E6043002B03D011F80F
:1024F00032106143196030BDA00200200120088025
:10250000704700B5C06900F004F8002800D0012031
:1025100000BD06E002888A4202D842888A4202D27E
:1025200080680028F6D170472DE9F0410025154E4E
:10253000154C18E02069C5EB051700EBC7007022A9
:10254000001D3168FDF786FE2069002140F8371034
:1025500000EBC70000F10C018161011D0A1DC0E9FB
:102560000F126D1C4164A0688542E3DB0BF096FB03
:102570002169C0EB001001EBC000001D3060BDE818
:10258000F0810000A00200202C04002070B50F494B
:102590000D480860084603F007F80C4C143CA0688E
:1025A000C0EB0010C500284600F078F82A4600214C
:1025B000206103F072F84FF0FF30206002F010F954
:1025C000BDE870400BF06ABBE5E60008400400205F
:1025D00010B5040009D000F065FF204607F058FF51
:1025E000044602F0C1F8204610BD002010BD38B5E9
:1025F000054600F057FF2846FFF7EAFF040009D020
:1026000000F0E4F82A460021009003F046F86846FE
:1026100000F00CF902F0A8F8204638BD024A10601C
:1026200021F0030050607047B498012010B50400F9
:1026300016D000F037FF0B48406B10F8341059B13A
:10264000022909D2042101EBC4014158486807F06E
:10265000D7FE20460CF090FABDE8104002F084B896
:1026600010BD0000F4970120002805D0034AD16B6B
:10267000016001B14860D06370470000F497012009
:1026800010B5044600F00EFF2068FFF7CFFF0020D2
:102690002060BDE8104002F067B800002DE9F0416D
:1026A00004460BF017FD2848E41C24F00305016CD8
:1026B0002D1DA94200D90D46C46B13E054F8042C1B
:1026C000AA420ED184B1216809B162684A6061688A
:1026D00009B122680A60C26BA24231D12168C1638C
:1026E0002EE02468002CE9D18046816BC0680F1869
:1026F00057F8040C3E1A306838B100200CF0E2FAAA
:1027000057F8040C3E1A3068D0B97068A84217DB3D
:102710003044441B3046241D0CF08CFAD8F80C10C1
:10272000491BC8F80C10D8F814102944C8F8141024
:102730007068401B02D0314607F062FE44F8045C2A
:102740002046BDE8F0810000F497012010B5002478
:102750000BF0C0FC0C490F2001EBC002526C1AB107
:1027600001EBC000406C08E0401EF5D508E0416870
:10277000A14200D90C46806810B180680028F6D1CB
:10278000A4F10C0010BD0000F4970120034800687C
:102790000C38002800DC002070470000F49701206E
:1027A000002138B10449042202EBC000496B0858EB
:1027B00041680C3908467047F49701200248816946
:1027C000491C816170470000F49701200549CA69DE
:1027D000521CCA61496B01EBC0010A78521C0A7095
:1027E00000F03CB8F497012010B500F05BFEFFF755
:1027F000ADFF64220849B0F5800F04D990FBF2F4D4
:10280000086A444303E0096A4143B1FBF2F401F072
:10281000ABFF204610BD0000F497012002488169FB
:10282000491E816170470000F49701200A4902683F
:102830004B6B52F8082C03EBC2021378022B03D324
:10284000CB690BB15B1ECB611178491E1170002161
:102850000160084670470000F4970120002806D068
:102860000349042202EBC000496B08580830704746
:10287000F497012008B513460A46009069460248BD
:1028800000F004F808BD00001F2900083EB51446FA
:10289000029100906A461946204608F0AFF83EBD06
:1028A00008B569460090024800F004F808BD000031
:1028B0001F2900081FB50123039101906A461A21C0
:1028C00001A800F093F810B1012004B010BD0098E9
:1028D00012300090684602F048FEF6E708B56946F7
:1028E0000090024800F004F808BD00001F2900080D
:1028F0001FB50123039101906A461A2101A800F037
:1029000075F810B1012004B010BD00981630009089
:10291000684602F02AFE0028F5DA4042F3E7006834
:1029200018440860104670472DE9F8431D46DDE95C
:1029300008461746884601236A46362100F056F8B5
:1029400098BB684602F007FE814600981030009060
:10295000684602F00AFEC8F80000684602F005FE6C
:1029600038600098801C0090684602F0F4FD2880D2
:10297000684602F0FAFD306000980C30009068461E
:1029800002F0F3FD2A884FF48071082A13D005DC89
:102990005AB1012A0AD0042A1ED109E0102A1ED0F9
:1029A000182A1CD0202A17D119E015E0022200E0D5
:1029B0001022226000E02160A0B1206088420BDC80
:1029C000A9F59A41423907D1306868B101280BD086
:1029D000022809D0032807D00120BDE8F883002091
:1029E0002060EDE72068E9E70020F6E72DE9F041F7
:1029F00017460D4604460BB100206060D4E9013053
:102A00000A4626683946B047A84202D00120BDE8F0
:102A1000F0816068284460600020F8E7F8B50D4652
:102A2000074600240E4E16E000236A46042138466D
:102A3000FFF7DCFF08B10120F8BD0098027841786B
:102A40008378100440EA0120184303F039FA316812
:102A500041F82400641CAC42E6DB0020F8BD000015
:102A60007404002010B5C2B2CBB2D21A00D55242C3
:102A700093B25B43C0F30722C1F30724121B00D5B6
:102A80005242000C92B2A0EB114002FB023200B2A3
:102A9000002801DA404200B280B200FB002010BDE5
:102AA00010B50021084600F029FC43F6FF725042A1
:102AB000BDE8104013460146AFF300802DE9FC410C
:102AC0001C4615460E46074600F0ECFC042003F0B9
:102AD000BFFE80461248C068C16C006D0F440644BA
:102AE0000D440444ADF80070ADF80450ADF8026038
:102AF000ADF80640684606F085FF07E023462A4603
:102B00003146384603F07CFB06F030FF0028F5D153
:102B1000404603F09DFE01F027FEBDE8FC81000069
:102B2000940200202DE9F8431C00DDE908981646C0
:102B30000F46054602D106F01FF9044600962E689E
:102B400043464A4621462846B047061E39D006F07D
:102B500008F98146698A304605F02EFE304606F0B7
:102B6000DDFD484606F0DAFD4FF000080CE000BF3E
:102B7000CDF8008055F81CCF00231A464946284658
:102B8000E04700B306F0CAFD7F1E002FF0DC1D21D8
:102B9000484606F00AFC601C12D000F083FC06F0E8
:102BA00015F930B1FFF75AFE8469B44201D0200014
:102BB000F8D1B44202D0304606F026FD01F0D4FD33
:102BC0003046BDE8F883304605F0C0FF0020F8E746
:102BD0002DE9F0411C4616460D460746022B02DB46
:102BE0000020BDE8F0811C20FFF758FD0028F8D038
:102BF0000DB105610AE0094A52F8241009B905E04F
:102C000011460A68002AFBD1096901618461868244
:102C1000002101604160C0E90217E2E7B80200202C
:102C200070B51D46FFF7D4FF040009D000F00EF880
:102C3000E068006820B90348006800EB85008465FF
:102C4000204670BDA0020020FFF70EBD70B590B306
:102C50008269022A30DA1E4C54F8221019B944F85D
:102C6000220032E019464B68002BFBD106E0CB680E
:102C7000C5681B682D68AB4203DD09680029F6D1E1
:102C80001AE0C1B1CB68C6681B683668B3420CD184
:102C9000838A012B05D008E01946DB681B68AB422C
:102CA00003DB0B68002BF7D129B14B6833B11860F7
:102CB0004A68426004E0FFE7012070BD44F822004A
:102CC0004860884200D100210160002070BD0000F2
:102CD000B802002010B503E00468FFF7B7FF2046F4
:102CE0000028F9D110BD00000A4A816952F821304C
:102CF000834202D1036842F82130416809B1026879
:102D00000A60016809B142684A60002101604160BF
:102D100070470000B802002000207047022801DB45
:102D200000207047054A52F8200004E0C26812688B
:102D30008A42F6D000680028F8D17047B802002017
:102D4000022801DB00207047054951F8200004E00B
:102D5000C16809680029F6D000680028F8D17047DA
:102D6000B80200202DE9F041044601F035FD0619B6
:102D70001EE000BF00F0EAF9052F00DD052700F096
:102D800091FB11480568FFF719FD2C0017D000BF13
:102D900001F0EAFC641EFBD1384601F015FD1DB1BF
:102DA00000F080FB6D1EFBD1FFF738FD01F0DCFC6D
:102DB00001F012FD371A002FDCDCBDE8F081384647
:102DC00001F002FDF0E700003804002047F6FF7331
:102DD000AFF300802DE9FC411F4690460D460600EA
:102DE0004FF000041AD000F05DFB65B1284606F0F4
:102DF00085FC040007D002462946684602F0B9FA6D
:102E0000684606F07BFC3B4642462946304601F0C8
:102E100009FF204606F072FC01F0A6FCBDE8FC812B
:102E20002DE9FF4F87B09046894607007DD000F01E
:102E300039FBD9F80040D9F8045021B228B2401A21
:102E4000401C029000F028FA064618F00C0F1ED025
:102E500038460A9A029901F091FC08F00C01042905
:102E600004D0082902D00C2911D104E0291400FB58
:102E70001610401C09E02114C1EB254200FB16206E
:102E8000401C00EBD07001EB600060F31F4448462B
:102E900006F034FC5FEA000B09D00246494604A85C
:102EA000CDE9044502F065FA04A806F027FCA6F176
:102EB000010A38460A9A029902F0BEFB03900AEB17
:102EC000244060F31F45CDE900453846039902F0E0
:102ED000C7F918F003010ED001292CD002290ED118
:102EE000B9F90420B9F90010521A101A00EBD07089
:102EF00001EB600001E0B9F80000ADF800006A469F
:102F00003846039901F036FE38460A9A029902F0D3
:102F100089FB074406EB244060F31F4438780028FF
:102F2000C7D1584606F0EAFB00E001E001F01CFCC6
:102F30000BB0BDE8F08FB9F80410081A401CDCE7AC
:102F40002DE9F04F87B09B46DDE9109892460C467C
:102F5000054600F0A7FA16480168C86C096D4719C4
:102F60000E1900EB0A0501EB0B04ADF81070ADF87B
:102F70001450ADF81260ADF8164004A806F042FDFA
:102F800088B1DFF830B04FF0010ACDE90098CDE903
:102F900002BA23462A463146384609F0ABFC06F011
:102FA000E5FC0028F1D101F0DFFB07B0BDE8F08FB0
:102FB000A0020020E16000082DE9FC4114460D4606
:102FC000064600F06FFA114F3968C86C096D054468
:102FD00004440E44ADF80050ADF80440ADF8026072
:102FE000ADF80660684606F00DFD08E03868224638
:102FF0003146406E03682846984706F0B7FC002823
:10300000F4D101F0B1FBBDE8FC810000A00200207A
:103010007CB50C46064600F045FA0F4D2868C16C99
:10302000006D0E440444ADF80460ADF80060ADF8E6
:103030000640ADF80240684606F0E4FC07E0286868
:103040002146406E42683046904706F08FFC0028CB
:10305000F5D101F089FB7CBDA00200202DE9FC41E7
:103060001C4616460D46074600F01CFA1A48016831
:10307000087ECA6C096D17440D440C44401E391A71
:103080001644ADF800103118ADF80410291A204488
:10309000ADF80600ADF80210684606F0B3FC15E086
:1030A00032462946384603F01BF832462146384658
:1030B00003F016F8621E691C384603F071F8621EB0
:1030C000691C304603F06CF806F050FC0028E7D18C
:1030D00001F04AFBBDE8FC81A00200207CB514464B
:1030E0000D46064600F0DEF90F480068C16C006D21
:1030F0000E4405440444ADF80060ADF80460ADF83A
:103100000250ADF80640684606F07CFC06E0224618
:103110002946304603F044F806F028FC0028F6D192
:1031200001F022FB7CBD0000A002002010B5044687
:1031300001F04CFB04490968002903D02046BDE892
:103140001040084710BD0000E402002010B5002424
:1031500000E0012400F004F80028FAD1204610BD58
:10316000094810B50068002410B1804700B101245F
:1031700005F076FD00B101240448006810B18047D5
:1031800000B10124204610BDC4020020C00200206E
:103190002DE9FC411C4615460E46074600F082F913
:1031A00010480068C16C006D0F4406440D4404448F
:1031B000ADF80070ADF80450ADF80260ADF806400F
:1031C000684606F01FFC07E023462A46314638468B
:1031D00003F016F806F0CAFB0028F5D101F0C4FA96
:1031E000BDE8FC81A0020020B0F90630B0F904204F
:1031F000B0F90210B0F90000FFF7CABF034951F857
:103200002000C1688A6A082110470000B802002027
:1032100010B500F047F903F029F803F0D1F804469F
:1032200001F0A2FA204610BD10B5044600F03AF9AC
:10323000054800210068C06942682046904704465E
:1032400001F092FA204610BDA002002070B50C4695
:10325000054600F027F9064821460068C069426823
:1032600028469047044601F07FFA204670BD0000D2
:10327000A0020020002801D005F050BD704710B515
:1032800000F010F902F0FAFF03F09AF8044601F09A
:103290006BFA204610BD000010B500F003F9044899
:1032A0000068C069447E01F05FFA204610BD00004E
:1032B000A002002070B50C46054600F0F3F8214648
:1032C000284602F013F8BDE8704001F04DBA01F055
:1032D00083BA017EC07E484370470000024951F81E
:1032E0002000006900687047B8020020024951F8C8
:1032F0002000006940687047B802002070B50D4694
:10330000044600F0CFF820460AF042FD0446284665
:103310000AF046FD044301F027FA204670BD000084
:103320002DE9F0411948016821F0010101601848B8
:10333000012585601749016000681749884200D05F
:10334000FEE701F047FB154E2E20307001F046FAE3
:1033500013480AF06FFE0EF0D3FD074602F0E2FFBD
:1033600010B102F0F3FF38B902F0F9FF044602F0A1
:10337000E2FF214603F066FA0021084600F038FF1C
:1033800005F0F8FD75703846BDE8F081002000E0DA
:1033900000300240C2A507F4CDB5E8B59402002084
:1033A0001499012010B500682A3807283BD2DFE8BD
:1033B00000F0043A3A1E263A2F0040F23D221A4904
:1033C0001AA00CF005FB1EA00CF002FB20480178AF
:1033D00031B100210170C068BDE8104005F0B0BDFA
:1033E00001210170C068BDE8104006F097B940F2B5
:1033F00055220D490DA00CF0EBFA16A00FE04FF48A
:103400001672094909A00CF0E3FA19A00CF0E0FAD1
:1034100040F25A22044905A00CF0DAFA1AA0BDE8DD
:1034200010400CF0D5BA10BDEC5D01085B4445427C
:1034300055475D5B25733A2025645D200000000040
:103440004755495F4B45595F4D656E75200D0A0024
:103450005C0200204755495F4B45595F506C6179CC
:1034600050617573655F4C6F6E67200D0A00000038
:103470004755495F4B45595F446972656374696F8D
:103480006E5F5570200D0A004755495F4B45595FE7
:10349000446972656374696F6E5F446F776E200D67
:1034A0000A00000070B5184CE06820B101F092F9F4
:1034B0006168884204D001F0BDF901F08BF96060C9
:1034C000E068401CE06001281CD10AF0E7FB0546DB
:1034D0002068854216D0002813DBFFF71DFC01464B
:1034E0002068C0EB0012206900EBC2025167C5EBF7
:1034F0000511064A00EBC100011D1160406FFFF786
:10350000E9FB256070BD00002C040020A002002013
:103510001CB5040004D10E480068046E002C16D0BF
:10352000FFF7C0FF2046FFF751F900904469684655
:10353000FFF77CF94CB12046FFF748F9019081680C
:103540008968884701A8FFF771F901F00DF91CBDE2
:10355000A002002001490A4600F002B801F0FFFF76
:103560002DE9F04387B015460C465FEA000846D0C7
:10357000FFF798FF002000F011FE81462148006807
:10358000066E4046FFF722F900900068806900F05F
:1035900083FD074640F6FF70C44204D10098B0F99D
:1035A0000440B0F906500098611E0289ADF804404D
:1035B0001144ADF808104189681E0844ADF8065062
:1035C000ADF80A0005F03CF96846FFF72FF901A8AD
:1035D00006F018FA06E02A462146404600F0FEFBB7
:1035E00006F0C4F90028F6D1384600F055FD304603
:1035F00000F000FA484600F0D1FD01F0B5F807B040
:10360000BDE8F083A002002038B50024009400F04B
:1036100001F838BD2DE9FE4F984691468A4683460B
:1036200000270C9EFFF73EFF184819490068407CB0
:1036300051F82040E1680968042903D02468002C6F
:10364000F8D100E01CB9FFF77BFB041E1BD0E0683B
:103650000121C26A20469047050011D02469A06864
:103660008047401C02D10B4C46F001060096CDE984
:10367000015443464A465146584600F04FFA074621
:1036800001F072F83846BDE8FE8F0000A00200206D
:10369000B802002054A501082DE9FE4F9846DDE947
:1036A0000D650C9F91468A46834600246DB1FFF755
:1036B000F9FE0097CDE9016543464A465146584612
:1036C00000F02CFA044601F04FF82046BDE8FE8FCA
:1036D00038B504001CD0FFF7E5FE0E480068006E08
:1036E000A04201D100F0CAFC2046FFF76FF800901D
:1036F000406908B101F021F800980068FFF7A4FACA
:103700006846FFF793F82046FEF790FF01F02CF88B
:1037100038BD0000A00200202DE9FF4F83B09A467B
:103720008B460746FFF7BEFEDFF83891D9F8000058
:10373000447C4D4800570128204606DD02F0F8FD84
:103740000546204602F008FE05E002F0D3FD0546DE
:10375000204602F0D5FD04461FB302A901A8FFF7D9
:10376000A9FDB7F90000002800DA0020B7F90260CF
:103770008046002E00DA002601984119B7F90400AE
:10378000491E0AF0B5FD054602980119B7F9060071
:10379000491E0AF0ADFDA5EB0802841B521C641CF7
:1037A00003E04FF0000846462A46BAF1000F01D167
:1037B000C4F1000A002A51DD002C4FDD1098009062
:1037C000534631464046FFF725FF5FEA000A10D016
:1037D00000F0CAF80746A04206D0D9F80000806C75
:1037E00010B1322106F022FC504600F003F900250A
:1037F00023E059460598884700F0B6FF012007B03E
:10380000BDE8F08F611BB94202DA504600F0D6F8ED
:103810003DB172194146504600F014F95046FFF789
:1038200077FE5946059888471048016809B100207D
:1038300088475046FFF78EFE3D44A542E2DB5046E6
:10384000FFF746FF002000F0D5F8A74206D0D9F8D0
:103850000000806C10B1332106F0E8FB00F084FF1B
:103860000020CCE7A0020020D80200208004002025
:1038700038B505004FF0000411D0FFF713FE2846BD
:10388000FEF7A4FF0090006800698068804703F09D
:1038900087F904466846FEF7C9FF00F065FF204639
:1038A00038BD38B504000ED0FFF7FCFD2046FEF70A
:1038B0008DFF00F1180400906846FEF7B7FF00F096
:1038C00053FF204638BD002038BD000038B50446FF
:1038D0000025FFF7E7FD1CB908480068046E44B1F5
:1038E0002046FEF773FF0090B0F904506846FEF7DB
:1038F0009DFF00F039FF284638BD0000A0020020DF
:1039000038B504460025FFF7CDFD1CB9084800680E
:10391000046E44B12046FEF759FF0090B0F90850FC
:103920006846FEF783FF00F01FFF284638BD000001
:10393000A002002038B504460025FFF7B3FD1CB9EE
:1039400008480068046E44B12046FEF73FFF00902F
:10395000B0F906506846FEF769FF00F005FF2846FB
:1039600038BD0000A002002038B504460025FFF74E
:1039700099FD1CB908480068046E44B12046FEF762
:1039800025FF0090B0F90A506846FEF74FFF00F09F
:10399000EBFE284638BD0000A002002070B50546A9
:1039A0000024284606F032FF641C18B1BDE87040C0
:1039B00000F07AB8052CF4DB70BD000038B50C4679
:1039C000050004D10A480068056E002D0FD0FFF7EE
:1039D00069FD2846FEF7FAFE0090B0F90A10A142F0
:1039E00000DD44816846FEF721FF00F0BDFE38BDD2
:1039F000A0020020F8B50546FFF754FD104E3068D0
:103A0000046ECDB10CB100F039FB05F057F8284633
:103A1000FEF7DCFE009031680D660068FFF716F9CE
:103A20006846FEF703FF02F069FF02F0E5FE00BF03
:103A300000F09AFE2046F8BD00F020FBF8E70000F9
:103A4000A00200207CB515460E46040004D115489E
:103A50000068046E002C24D0FFF724FD2046FEF7FA
:103A6000B5FE2DB20090C58034B2848002F0C4FE51
:103A70000098406980B1FEF7A9FE009A0190B2F962
:103A800008108180B2F90A20C28011B10AB1048005
:103A9000458001A8FEF7CAFE6846FEF7C7FE00F0A3
:103AA00063FE7CBDA002002001490A4600F002B876
:103AB00001F0FFFF7FB515460C4606002DD0FFF73D
:103AC000F1FC3046FEF782FE40F6FF710190CC42D9
:103AD00003D1B0F90440B0F906500289611E1144C7
:103AE000ADF80840ADF80C104189681E0844ADF8E7
:103AF0000E00ADF80A5001A8FEF798FE02A805F0E6
:103B000081FF06E02A462146304600F04FF905F0D5
:103B10002DFF0028F6D100F027FE7FBD2DE9FF4FD5
:103B2000DFF8E8B083B01C46DBF80010DDE9106078
:103B300092464FF000084B7C42461299FFF748F836
:103B4000050060D028698068804703F029F8814625
:103B50000AFB09F1C91DCF08FEF746FEF10705D1A2
:103B6000C11700EB9170801000EB4000002C09DCC5
:103B70001FB11838B0FBF7F000E000206442A0420B
:103B800000DC0446F00707D10090DDE9030123467D
:103B9000524600F057FD8046002C03DC2846FFF714
:103BA00053F830E004FB07F01830F10702D0FEF7BD
:103BB0000FFD01E0FEF71BFD06001CD0FEF706FE20
:103BC00001900560039981800499C180A0F808A044
:103BD0004481C0F81480C0E9037901A8FEF726FEED
:103BE0001298AE602861DBF80000407CA861304686
:103BF00007B0BDE8F08F2846FFF726F8B8F10000BF
:103C000001D0FEF713FD0020F2E70000A002002023
:103C10000149086070470000800400202DE9F74F3B
:103C20008EB0144689460E98FEF7D0FD0990B0F983
:103C300008B0B0F90A600068006940680C9009A8F3
:103C4000FEF7F4FD564D574F2868407C57F820008A
:103C5000C1688A6A082190470790182801D320205C
:103C600007902868407C57F820000069069003C838
:103C70000B904D48814201D0012000E000200A90C5
:103C8000002000F0F1FD00287DD1286809EB0B0130
:103C9000B0F90C20891A491E002902DDABEB0105A1
:103CA00000E05D46B0F90810494505DDA1EB0901CA
:103CB00089446D1A089101E000210891002D6BDD07
:103CC000B0F90E20A119891A491E002902DDA6EBC0
:103CD000010800E0B046B0F90A00A04204DD061B6E
:103CE0003444A8EB060800E00026B8F1000F53DDCD
:103CF000089801900DA95F46DDF830A00E9800915C
:103D0000FFF7CFFD774300EB870101982B4601EBCE
:103D1000800200994846CDE900A1214601F024F82F
:103D20000090002838D00A98E8B1DDE9063229462B
:103D3000009800F049FEB0B90698009FDA46D0F826
:103D400010C0BCF1000F05D004235A46394638464E
:103D5000E04708E00B993868884701C7AAF10100DD
:103D60005FEA000AF6D100990020079ACDE9030125
:103D7000059001200090CDE9010221460346641C14
:103D80002A46484600E007E002F0A8F8A8F1010042
:103D9000761C5FEA0008ABD111B0BDE8F08F0000DF
:103DA000A0020020B8020020DF630008F8B5154625
:103DB0000E460746FEF70AFD009000681621C0680F
:103DC000426A0020904704466846FEF72FFD002C0B
:103DD00003D02A4631463846A047F8BDF8B5164606
:103DE0000F46050012D0FEF7F1FC009044696846CA
:103DF000FEF71CFD2846FFF73BFD0346082800DDC3
:103E00002CB13246394628460BF0E4F9F8BD32466B
:103E1000394628460BF07EFBF8BD000002480068DA
:103E2000407C00F003B80000A0020020F8B51D4956
:103E3000096809B1002200E002461B498D56012D98
:103E40002EDD1849143151F822305B1C41F8223024
:103E5000012B25D1A1F108030026103953F8224087
:103E600051F8221053F822707F1C43F82270AF42A1
:103E700001D143F8226053F822708F42F2D03D46C0
:103E8000FEF75EFF009000280AD0C0682121426A38
:103E900068469047030003D02A4621460098984779
:103EA000F8BD0000E8020020D802002002480068A7
:103EB000407C00F003B80000A002002038B514498F
:103EC000096809B1002200E0024612498956012919
:103ED0001CDD0F49143151F822305B1E41F82230AD
:103EE00014D1083951F82240103141F82240FEF730
:103EF00027FF0090002809D0C0682221426A684646
:103F00009047020002D021460098904738BD00003B
:103F1000E8020020D802002010B5002821D009B303
:103F20000AB3B1F90040B2F900309C4200DA2346EE
:103F30000380B1F90240B2F902309C4200DA234614
:103F40004380B1F90440B2F904309C4200DD2346BD
:103F50008380B1F90610B2F90620914200DC1146C7
:103F6000C18010BD11460A6802604968416010BDF9
:103F700000280BD003880B44038083881944818078
:103F8000418811444180C1881144C18070470000BC
:103F900070B50025FFF786FA094CD4E9002082426B
:103FA0000AD0D2E90056104609F010FF20603146D1
:103FB000284605F015F9012500F0D6FB284670BD0E
:103FC0000C0300202DE9FC41154DDDE908742D6836
:103FD000B5F90860864200DD3046B5F90C609642BE
:103FE00000DA3246824219DBB5F90A608E4200DD02
:103FF0003146B5F90E509D4200DA2B468B420DDB5F
:1040000000E02C46E5682D6825B1042D02D0256816
:10401000002DF6D1CDE9007402F0D2FABDE8FC81A2
:10402000A0020020B0F90220B1F906309A4213DC58
:10403000B1F90220B0F906309A420DDCB0F9002047
:10404000B1F904309A4207DCB1F90010B0F904006C
:10405000814201DC01207047002070470146024880
:1040600070220068FCF7F6B8A00200200249702216
:104070000968FCF7EFB80000A002002010B5FFF7B8
:1040800011FA02F069FB02F039FC04F0D9FBBDE83B
:10409000104000F069BB000070B50B4D0446286865
:1040A000467CFFF7FFF9022C09D22046FEF748FEB6
:1040B00028B128684474FFF7E1FF0448046000F069
:1040C00053FB304670BD0000A0020020900300208A
:1040D00070B50C46054605F083F8002805D1214649
:1040E0002846BDE8704000F0E1B870BD2DE9F04110
:1040F000194E050019493068194F407C51F82010BD
:104100008C6917F8048003D009F048FF60B11FE004
:104110000521FEF703FE06001AD00020FFF778FD08
:104120003046FEF7E1FD12E030680521407CFEF7E5
:10413000F5FD60B9AFF24B00FFF76AFD3068084942
:10414000407C143151F8200008B1FEF77FFD3D5549
:104150004046BDE8F0810000A0020020B802002027
:104160001C03002010B50446FFF79CF9204602F01E
:1041700019FBBDE8104000F0F7BA10B50446FFF790
:1041800091F9204602F046FBBDE8104000F0ECBA81
:1041900001498860704700009402002010B5044671
:1041A000FFF780F9204602F053FB044600F0DCFAEA
:1041B000204610BD70B50446FFF774F90448006846
:1041C000C56904B1C46100F0CFFA284670BD000093
:1041D000A002002070B50546FFF764F903480068A7
:1041E000847E857600F0C0FA204670BDA0020020D3
:1041F00070B50C460546FFF755F90948224605807B
:104200000848048008480068417C084850F82100AC
:10421000C1680B6A29469847BDE8704000F0A4BA0F
:10422000E0020020E2020020A0020020B8020020EC
:1042300070B50546FFF736F903480068047E057639
:1042400000F092FA204670BDA002002070B504462E
:10425000FFF728F904480068B0F92C50848500F075
:1042600083FA284670BD0000A002002070B5044605
:10427000FFF718F904480068B0F92A50448500F0A7
:1042800073FA284670BD0000A002002002480068B2
:10429000002800D0004770475C04002002498A686B
:1042A00002B98860FFF7F2BF0C0300207CB50A4C0E
:1042B0000546CDE900016068019A6E46C0E90052EA
:1042C000216809F075FD6060E16809B130468847F2
:1042D000A560FFF7DBFF7CBD0C0300202DE9FC414E
:1042E000984616460D460746FFF7DCF81C20FEF7F9
:1042F0007EF904002DD01C491A4808602046FEF7BC
:1043000065FA009015B9FEF7E2FF054600980760D0
:10431000C0E90465A0F80C806846FEF787FA2046DD
:1043200009F06CFF114DA86840B90120A86005F1A3
:104330000C010F480860084601F036F92046FEF7E8
:1043400045FA0190296849B181602C6001A8FEF707
:104350006DFA00F009FA2046BDE8FC8100212C60CE
:104360008160F3E79D430008C40200204804002058
:10437000F9E6000810B504000ED0FFF793F82046C8
:104380000AF072FC20460AF0E1FE2046FEF74EF9E4
:10439000BDE8104000F0E8B910BD00002DE9F04183
:1043A00088B00025FFF77EF8184C676825E000BF4D
:1043B000FEF78DFF06466068FEF708FA0190416936
:1043C000891B002915DC616802960491016903913B
:1043D00046686660D0F8008001A8FEF727FA02A8B8
:1043E0004146884766B160680125B84205D100257D
:1043F00006E001A8FEF71AFA02E060680028D7D1AB
:1044000000F0B2F908B02846BDE8F0814804002069
:1044100038B50C46050011D0FFF744F82846FEF7E2
:10442000D5F900908089204201D0012400E00024C9
:104430006846FEF7FBF900F097F900E001242046FA
:1044400038BD38B5040017D0FFF72CF82046FEF72A
:10445000BDF90090FEF73BFF0146009882691144C8
:1044600041616846FEF7E2F920460AF06FFE2046F9
:1044700009F0C4FE00F078F938BD38B50C460500E7
:104480000BD0FFF70FF82846FEF7A0F900908461E3
:104490006846FEF7CBF900F067F938BD38B5054638
:1044A000002028600648046844B12046FEF78EF9D3
:1044B0000090006928606846FEF7B8F9204638BDCC
:1044C0004804002038B504004FF000000D46086095
:1044D00011D02046FEF77AF90090846844B168460E
:1044E000FEF7A4F92046FEF771F9009000692860F4
:1044F0006846FEF79BF9204638BD000010B5FEF770
:10450000D1FF044902480860BDE8104000F02CB912
:10451000C0700108A40200202DE9F041084E0446B5
:104520000568306801682846884707463068416852
:1045300028468847284420603846BDE8F0810000BE
:10454000A40200202DE9F0410C4606460025064F46
:1045500005E0386841683046884706440544641ED3
:10456000F7D22846BDE8F081A40200202DE9F041F1
:104570001E46069C1746884605463A46A8687F1C94
:104580003346D0F804C041462846E047641EF4D1C3
:10459000BDE8F08170B5B0F90040091BB0F90440E6
:1045A0008C422CDD00F11404B0F902500069521B5A
:1045B00002FB0040CA1800EBE104521ED010B0EB21
:1045C000E10501F007034FF0FF0102F0070221FAB5
:1045D00003F0C2F1070201FA02F1CEB221780FD046
:1045E00001436D1E04F8011B002D05DDFF22294645
:1045F0002046FBF74FFE2C4420783043207070BDDE
:1046000030400143217070BD10B5B0F90030B0F9F1
:104610000240C91A00F114030069121B02FB0030AA
:1046200000EBE10001F0070302788021D9400A4342
:10463000027010BDB0F90610026951431430FBF747
:1046400030BE00002DE9F843804602F10F00001152
:10465000470003FB07F01C46154689461430FDF75A
:10466000C6FF060018D0FEF71DFF3046FEF7AEF875
:104670000090A0F80080A0F802908580C4800749CF
:1046800081600121818107616846FEF7CFF800F063
:104690006BF83046BDE8F8830020FBE778B70108E7
:1046A00070B5B0F90660B0F904400B6800F114056C
:1046B00096421BDD0069A34202FB005000EBE302BF
:1046C00014DA641EE010A0EBE30512F8010B03F00E
:1046D0000704A040C4B206E045B1083312F8014B0C
:1046E00023F007036D1E002CF6D004E0002070BDFF
:1046F0006006040E5B1C2006FAD5FF2C07D0184676
:1047000002E06406240E401C6606FAD400E0D81DC0
:10471000C443640705D006E012F8014BFF2C09D111
:1047200008306D1EF8D5C01A401C0B6070BD6206C3
:10473000140E401C2206FAD4F5E738B50546FEF7FC
:10474000B1FE2846FEF742F800908189491E0CB25E
:1047500084816846FEF76AF814B92846FDF766FFBB
:1047600000F002F838BD00000348C168491EC1606E
:1047700001D100F06FB870472C0400202DE9F04102
:1047800016460F4605460024FEF78CFE3246394693
:10479000284600F047FF054408B1641CF6E7FFF720
:1047A000E3FF2046BDE8F08110B54FF440410448D6
:1047B000FDF734FFBDE810400248FFF7E9BC0000F8
:1047C000EC670020DC77010810F070B970471E20FC
:1047D00010F06CB911F014B811F018B8704700005F
:1047E00010B5012010F0DCFD114C2060B0B10322A7
:1047F0000021012010F0E6FD606038B100231A4668
:10480000194610F0F7FE606800280FD1102080F3E1
:104810001188BFF34F8FBFF36F8FFEE7102080F337
:104820001188BFF34F8FBFF36F8FFEE710BD0000FD
:104830009800002010B5064C206808B9FFF7D0FF9B
:1048400000232068BDE810405A1E194610F0E4BD50
:1048500098000020034800231A461946006810F00B
:10486000C9BE0000980000200EB508B102AA00E001
:104870000022002301A9684600F0A4FC0EBD000040
:10488000074910B50C7818B101200870801E03E0AC
:10489000002008706FF07F4001F00AFB204610BD39
:1048A000DA02002010B5082A0EDC0346012A18D0CF
:1048B000022A56D0042A76D010F8042B03F8012BD4
:1048C000491EF9D1012010BD102A08DC4FEA000270
:1048D00030F8043B22F8023B491EF9D1F2E70020F0
:1048E00010BD10F8042BD207120E491E34D010F858
:1048F000044B491E04F0010442EA84122CD010F843
:10490000044B491E04F0010442EA441224D010F87A
:10491000044B491E04F0010442EA04121CD010F8B2
:10492000044B491E04F0010442EAC40214D010F8FA
:10493000044B491E04F0010442EA84020CD010F832
:10494000044B491E04F0010442EA440204D010F86A
:10495000044B04F00104224303F8012B0029C0D1C9
:10496000B0E710F8042B9207120E491E15D010F86C
:10497000044B491E04F0030442EA04120DD010F85F
:10498000044B491E04F0030442EA840205D010F8E7
:10499000044B04F003042243491E03F8012B0029B1
:1049A000DFD18FE7FFE710F8042B1207120E491E24
:1049B00005D010F8044B04F00F042243491E03F8FD
:1049C000012B0029EFD17DE738B50024009400F0D9
:1049D0001DF838BD0B4810B58169002910D101219F
:1049E0008161FFF7E1FEFDF7D1FD01F099FF054977
:1049F00005481C310860BDE81040084600F0D4BDF1
:104A000010BD00009402002025E600082DE9F041C9
:104A10000D460699044601B901461F68082A09DCBB
:104A20000E46012A1AD0022A5BD0042A7DD0082A19
:104A300013D18DE0102A07DCD3F810C00E46BCF16C
:104A4000000F04D0022389E00020BDE8F08101CCF2
:104A5000B84726F8020B6D1EF9D189E001CCB847A2
:104A6000C0074FEA10686D1E36D001CCB84748EA3F
:104A7000801000F0FF086D1E2ED001CCB84748EA28
:104A8000401000F0FF086D1E26D001CCB84748EA60
:104A9000001000F0FF086D1E1ED001CCB84748EA98
:104AA000C00000F0FF086D1E16D001CCB84748EAE0
:104AB000800000F0FF086D1E0ED001CCB84748EA18
:104AC000400000F0FF086D1E06D001CCB84740EA58
:104AD000080000F0FF086D1E06F8018B002DBDD107
:104AE00046E001CCB84780074FEA10686D1E16D02B
:104AF00001CCB84748EA001000F0FF086D1E0ED048
:104B000001CCB84748EA800000F0FF086D1E06D0CF
:104B100001CCB84740EA080000F0FF086D1E06F817
:104B2000018B002DDDD123E0FFE701CCB847000762
:104B30004FEA10686D1E06D001CCB84740EA080065
:104B400000F0FF086D1E06F8018B002DEDD10FE07F
:104B5000D3F810C0BCF1000F04D001232A46204630
:104B6000E04705E001CCB84706F8010B6D1EF9D10E
:104B700001206AE77CB5064628480D46006868B102
:104B8000002004F03FFF06E06A462946304605F063
:104B9000FBFE04F0EBFE0028F6D17CBD106800900F
:104BA0001F4C506801902268BDF8000032F84C1F7D
:104BB0000844ADF80000BDF8020091880844ADF843
:104BC0000200BDF8040011880844ADF80400BDF8E7
:104BD000060091880844ADF80600684604F012FF0C
:104BE0000EE000BF2068BDF800106A464184BDF8A1
:104BF000021081842946304605F0C6FE04F0B6FE58
:104C00000028EFD1206830F8221F428D891A0180D8
:104C10004188C28D891A41807CBD0000DC020020E1
:104C2000A00200202DE9FF4F85B09A4690460D4620
:104C3000FEF732FB4FF00009DDF814B006464C4693
:104C400025B1286800906868019002E06846FEF788
:104C500011FB18F00C0F02D05546002713E0BDF9E8
:104C600002402DE029467F1C059800F023FB0146F9
:104C70006D1A0598FFF766FC05990844059005A88C
:104C800000F04EFB08B9002DECD108F00C00042810
:104C900004D0082802D00C2812D105E0BDF9060086
:104CA00007FB1604641C0BE0BDF90600BDF90210F9
:104CB000401A07FB1600401C00EBD07001EB6004AB
:104CC0005546CDF814B043E02946059800F0F2FAB5
:104CD00007460146ED1B059800F0C2FA18F00301E3
:104CE0000ED0012939D002290DD1BDF90410BDF92A
:104CF0000020891A091A01EBD17102EB610101E070
:104D0000BDF900108946174A401E484412683946CA
:104D1000A2F822909484ADF80C00A019401EADF8C2
:104D20000890ADF80E00ADF80A4002AA0598FFF70A
:104D300021FF39460598FFF705FC059908440590C1
:104D4000FEF7AAFA044405A800F0EAFA002801D107
:104D5000002DB9D109B0BDE8F08FBDF90410091AD2
:104D6000491CCFE7A00200202DE9FF4F8DB00020A5
:104D7000DDF86CA0164600901D4604460246CAF8AF
:104D8000000008AB03A902A800F01CFA18B100202B
:104D900011B0BDE8F08F0898854200DD0546614FEF
:104DA0000B9561493868407C51F8201004910969DD
:104DB0000691FEF723FA05903868407CFEF796FAD4
:104DC0005A498146884204D05949894501D0012079
:104DD00000E000200A9001CE1A9988478346000E11
:104DE000079077D0009870BB0D9800EB04084D48F1
:104DF0000068B0F90800404503DDA0EB08078046D5
:104E000000E000270298049900EB840000EB870083
:104E1000CDE900010B990D98421809920E9B40466E
:104E20001946521EFFF7CEF8012000900598182869
:104E30000ADA0298DDE9052300EB840000EB870025
:104E4000E91B00F01DF912E00A9880B1029800EB0E
:104E5000840000EB87070998A0EB080849463868EA
:104E6000884701C7A8F101005FEA0008F6D1314880
:104E7000C06980B3DDE9020700EB840007EB840220
:104E8000CDE902022B4C361F3046E4692B460299CD
:104E9000A047FF213068B1EB106F02D10298006883
:104EA00004E0029A1268B1EB126F01D1039A10600C
:104EB000029806F10406001D02900398001D03905D
:104EC0006D1EE7D10397DAF8000040F00101CAF83F
:104ED000001020E021E0FFE70798FF2811D0C0F183
:104EE000FF02029850F82410584600F0DDFA0399AA
:104EF00041F82400DAF8000040F00101CAF800107F
:104F000005E00298039950F8240041F82400641C3D
:104F10006D1E7FF460AF03983AE7039941F824B01F
:104F2000E8E70000A0020020B8020020DF630008CC
:104F3000DD630008EC0300202DE9F04F85B09B46AF
:104F4000DDE90F8792460C460546DDF83890FEF7FE
:104F5000A9FA15480068C16C4E190D19016DABF125
:104F6000010001EB0A04ADF810502044ADF80C60CC
:104F7000ADF81200ADF80E4003A804F043FD0BE0BD
:104F8000CDF80090CDE901875B46224629463046A0
:104F900007F052FE04F0EAFC0028F1D1FFF7E4FB31
:104FA00005B0BDE8F08F0000A0020020F0B500EBD6
:104FB0008103082A0ADC01254C1E092A10D2DFE8E9
:104FC00002F00F10263E3E5555555500102A07DCBD
:104FD00000EB4100491E30F8022D43F8042DF9D1B1
:104FE000F0BD04F00702C2F1070200EBE40005FA8D
:104FF00002F604783440D440521C43F8044DA0EB30
:10500000E20022F007042241491EF0D1F0BD04F075
:10501000030200EBA400C2F103020324057856004A
:1050200004FA06F73D40F540521C43F8045DA0EB3E
:10503000A20022F003052A41491EEFD1F0BD8D43A5
:1050400000EB6400C5F101020F240578960004FA14
:1050500006F73D40F540521C43F8045DA0EB6200AA
:1050600022F001052A41491EEFD1F0BD00EB0100FD
:10507000491E10F8012D43F8042DF9D1F0BD0000B0
:105080002DE9F05F0C1E16DD5E68014600EB84051D
:10509000082A12DC611E012A26D0022A47D0042ADF
:1050A0006AD0082A07D1071917F8010DB04745F84B
:1050B000040D641EF8D1BDE8F09F102AFBDC5F6987
:1050C0003FB12246BC46BDE8F04F02235DF804EB39
:1050D000604701EB440700BF37F8020DB04745F8C1
:1050E000040D641EF8D1E6E700EBE10001F00707CC
:1050F00010F801A98146802020FA07F8B5F10405CF
:105100000AEA0800C7F10701C840B04745F804099A
:105110003FB14FEA48604FEA10687F1E641EEFD12E
:10512000C9E719F801A907274FF00108F6E700EBD6
:10513000A10001F0030710F801A981467900C02001
:1051400020FA01F84FF0060BB5F104050AEA080051
:10515000ABEB4701C840B04745F804093FB14FEAFF
:1051600088604FEA10687F1E641EEFD1A3E7032713
:1051700019F801A9B846F7E700EB6100012710F81C
:1051800001A9A7438146B900F02020FA01F84FF0A9
:10519000040B2D1F0AEA0800ABEB8701C840B0479B
:1051A00045F804093FB14FEA08704FEA10687F1EC6
:1051B000641EEFD17FE719F801A901274FF00F080E
:1051C000F6E700002DE9F047224C06461F46A0698D
:1051D00090468946002540B90120A06104F12001D4
:1051E0001D480860084600F0DFF9606930B91B48C7
:1051F0000068606110B901F080F8606107B1386043
:105200004EB1A06830B960698000FDF747FAA06030
:1052100000B901253060B9F1000F0AD0E06830B95B
:1052200060698000FDF73AFAE06000B90125C9F82D
:105230000000B8F1000F0AD0206930B96069800021
:10524000FDF72CFA206100B90125C8F800002846B6
:10525000BDE8F087EC030020BDE60008D002002086
:1052600073B5124A01A90098126890470024009073
:10527000C8B10F4900250968C969496959B10A6867
:105280004AB1019990477CBD6846FFF745F905464C
:10529000FDF7CAFF04440198401E0190F4D528464A
:1052A00000F032F8044420467CBD000010050020C8
:1052B000A002002073B50D460098002490B10A4961
:1052C0000968C969496959B14A684AB1294690478C
:1052D0007CBD6846FFF720F920B10A2802D0641C83
:1052E000AC42F6DB20467CBDA0020020044AB2F9A5
:1052F000002002600348B0F9000008607047000019
:10530000E0020020E202002038B500246946009443
:10531000FDF79CFF0099814200DD0C1A204638BD44
:10532000016811F8012B12B10A2A02D002E0012013
:105330007047016000207047B0F90030B1F90020DB
:10534000934200DA0280B0F90230B1F902209342B0
:1053500000DA4280B0F90430B1F90420934200DD54
:105360008280B0F90620B1F906108A4200DDC180C2
:10537000704770B5B1F90040B2F900309C4200DDD1
:1053800023460380B1F90250B2F90240A54200DD84
:105390002C464480B1F90460B2F90450AE4200DA00
:1053A00035468580B1F90610B2F90620914200DB3E
:1053B0001146C1809D4201DBA14201DA002070BD8F
:1053C000012070BD014602480068407C00F002B830
:1053D000A00200202DE9F843012689460446022850
:1053E0005DDA304F7A6802B190472E4D5FEA0900CE
:1053F00005F1100532D0012803D0B9F1020F4ED1CA
:1054000018E055F8240088B92046FDF799FC009073
:1054100018B3C0680D21426A6846904702003ED02A
:1054200049460098904755F824000026401C45F84E
:10543000240034E02046FDF783FC009068B1C0688A
:105440000D21426A68469047040028D0386800B1B0
:10545000804749460098A047002620E055F82400E0
:10546000A846012812D12046FDF76AFC009068B1D9
:10547000C0680D21426A68469047050006D038682A
:1054800000B1804749460098A847002658F82410E4
:1054900009B1012200E00022891A48F824103046A0
:1054A000BDE8F8831404002070B5FF23B3EB116F3F
:1054B00029D0C3B200F47F4500F47F04060E5343A5
:1054C000554354435643C2F1FF00CAB202FB0032B7
:1054D00001F47F4303FB005301F47F0505FB004407
:1054E000090E01FB0065C2F307204FF47F4101EA7A
:1054F0001322090201EA14214FF07F43104303EA0B
:1055000005430843184370BD2DE9F04F0646DDE919
:105510000CB915460C4600208046584519D20B9F01
:105520004FF0FF0A01CE08CCAAEB106202FB09F291
:10553000B2FBFAF1CAB21946FFF7B6FF20F07F407E
:1055400001C57F1EEED1099804EB800408F101002B
:10555000E2E7BDE8F08F016811F8012B11F8013B7B
:10556000016042EA032210467047016811F8012BDE
:1055700011F8013B42EA032211F8023B42EA0342DE
:1055800011F8013C016042EA0362104670470B8843
:10559000134403808B889B1A83804B881344438079
:1055A000C988891AC180704702494A6942604861C6
:1055B00070470000940200202DE9F8430768064672
:1055C00088460025384600F0CBF840B3404600F04E
:1055D000D7F8441C3846FDF7E3F884420CD1F4B107
:1055E0003846FDF7F3F8224641460090FAF732FEBE
:1055F0006846FDF71BF911E02046FCF7E9FF0400BF
:105600000DD0FDF7E3F841460090FAF769FE6846D1
:10561000FDF70CF93046FDF733F8346001252846D4
:10562000BDE8F88310B5044600F009F801462046AD
:10563000BDE81040FEF786BF002309F0AFBD77B587
:1056400081B015460E466B46019809F0A7FD044649
:1056500001460198FEF776FF01990844019001A8E0
:10566000FEF75AFF0A2802D0012D02D012E0641C76
:1056700010E020280ED1FDF7D7FD054607E02844AD
:10568000009001A8641CFEF747FF202802D1009873
:105690008642F4DA04B0204670BD10B502E000F88E
:1056A000011B521E0AB18307F9D1930818D001EBF0
:1056B000014402F0030204EB042406E010C01B1FA7
:1056C00010C040F8084B40F8044C042BF6DA01E017
:1056D00010C05B1E002BFBD102E000F8011B521E24
:1056E000002AFAD110BD10B5830702D520F8021B9D
:1056F000521E530811D001EB0144042B09DB10C0EA
:105700001B1F10C0042B40F8084B40F8044CF6DA7D
:1057100001E010C05B1E002BFBD1D20700D001803E
:1057200010BD024600204FF080414318934201D83B
:10573000D21A581840088908F7D1704700B907A055
:1057400021B906A102E03AB1401C491C02780B784D
:105750009A42F8D0012070470020704700000000F6
:1057600038B50D46012448B1FDF730F829460090C0
:10577000FFF7E4FF04466846FDF758F8204638BDB9
:105780004FF0FF3128B100BF10F8012B491C002A4F
:10579000FAD1084670470000F0B58DB000210A9894
:1057A00001F09AFA0AAA0BA91AA00CF0FDFB28B185
:1057B000194951F8201019A00AF00AF90A980B9912
:1057C0000DF1180C4389056A03FB01F400F128016F
:1057D000AD1EC6C98CE8C600D0E9052681890DF149
:1057E000080C476A8CE8C600C2888178CDE90012AF
:1057F000427801785D430F480AF0EAF862086908C8
:105800000DA00AF0E5F80021084601F065FA0DB098
:10581000F0BD0000303A0000BC000020BBF1C8A180
:10582000B4C5C5CCD0C5CFA2CAA7B0DC2825732982
:105830000D0A0000ACB701082531306C75204B69AA
:105840004220546F74616C2E0D0A2531306C752026
:105850004B694220417661696C61626C652E0D0A6C
:10586000000000002DE9FF5F074640688246FCF714
:10587000ADFF0390D0E90045D0F88490D0F8408087
:10588000466B03A8FCF7D2FF3946504602F000FFF2
:10589000002855D038680B286FD004DC032808D0C6
:1058A00005284AD132E00F284CD0B0F5107F44D102
:1058B00037E0B9F1000F40D04F4ED7F80C80706838
:1058C00008B1B06828B900F025FD706000F036FD21
:1058D000B060D8F80010002902DD20B2401A15D4BB
:1058E000D8F80400002803DDC0EB2442002A0DD4C0
:1058F000002904DA2AB2511A7268914206DC0028A3
:1059000009DAB168C0EB2540884204DD0121504628
:1059100000F01AF911E0221421B24846FEF792F87D
:105920000BE0F86828B1007A08B1012102E00221F9
:1059300000E00321504603F04BFC384603F0CEF85C
:10594000BDE8FF9FB9F1000003D000BFFEF7ACF83F
:10595000F6E7F00749D0700710D5284A28490120FA
:105960008DE8070021142AB220B2C1EB2543121A98
:10597000521C5B1CFDF790FE0AE03AE021142AB2AB
:1059800020B2C1EB2543121A521C5B1CFDF73CFEF2
:1059900004002AD05046FCF719FF0390C0F8844059
:1059A00003A8FCF743FFDFF85C90D9F80000D0E9CA
:1059B00002572046FEF71EF88346700706D54FF0C3
:1059C0007F40FEF7CFFBFDF76BF802E02046FDF7C6
:1059D0009FFD5046414688475846FEF70BF8D9F8D8
:1059E0000000C0E902572046B0E7504641468847CC
:1059F000A6E700218BE700007803002054A50108EA
:105A000024AF0108A0020020F0B51446D0E90562D9
:105A100085B0B0F90850478A0296CDE90352CDE926
:105A20000017B0F90C10B0F91050B0F90E20B0F911
:105A30000A00194420442B4600F002F805B0F0BDDE
:105A40002DE9F04F87B08146DDE911061C46154669
:105A5000884640F00107DDF840B0DDF850A0FDF7C2
:105A600021FD300715D505A9584603F06DF9BDF99C
:105A70001800BDF914104FF00008451ABDF91A00BE
:105A8000BDF91610C146441A641C47F4F0676D1C3A
:105A900003E005B9012504B901240AF15C00124AAA
:105AA000CDE90220CDE900B723462A4641464846C3
:105AB00002F05CFF040011D0FCF788FE0490002285
:105AC000139902F0B5FE0499B0074E6301D507485B
:105AD00000E00748086404A8FCF7A8FEFEF744FEAF
