:020000040800F2
:1000000068DD012031020008390200083B020008C7
:100010003D0200083F020008410200080000000005
:10002000000000000000000000000000990100082E
:100030004502000800000000DD01000855A400088A
:100040004B0200084B0200084B0200084B0200085C
:100050004B0200084B0200084B020008951D0008E7
:100060004B020008B11D00084B0200084B020008BB
:100070004B0200084B0200084B0200084B0200082C
:100080004B0200084B0200084B0200084B0200081C
:100090004B0200084B0200084B020008D91D000863
:1000A0004B0200084B0200084B0200084B020008FC
:1000B0004B0200084B0200084B0200084B020008EC
:1000C0004B0200084B0200084B0200084B020008DC
:1000D0004B0200083DAA00084B0200084B02000832
:1000E000351D00084B0200084B0200084B020008B7
:1000F0004B0200084B0200084B0200084B020008AC
:100100004B0200084B0200084B0200084B0200089B
:100110004B0200084B0200084B0200084B0200088B
:100120004B0200084B0200084B0200084B0200087B
:100130004B0200084B0200084B0200084B0200086B
:100140004B0200084B0200084B0200084B0200085B
:100150004B0200084B0200084B02000849AA0008A5
:100160004B0200084B0200084B0200084B0200083B
:100170004B0200084B0200084B0200084B0200082B
:100180004B020008DFF80CD000F0E4F8004800470C
:1001900075A5010868DD0120224B19680868B0E8E0
:1001A000F00F80F30988BFF36F8F4FF0000080F3EA
:1001B00011884EF00D0E70470000000006480068E0
:1001C000006880F3088862B661B6BFF34F8FBFF353
:1001D0006F8F00DF00BF00BF08ED00E0EFF3098084
:1001E000BFF36F8F0F4B1A6820E9F00F106008B54E
:1001F0004FF0100080F31188BFF34F8FBFF36F8F64
:100200001BF02CFD4FF0000080F31188BDE8084082
:1002100019680868B0E8F00F80F30988BFF36F8FA2
:10022000704700BF24000020EFF3058070470000F6
:100230000648804706480047FEE7FEE7FEE7FEE780
:10024000FEE7FEE7FEE7FEE7FEE7FEE781A4000823
:100250008501000810B5431A934209D28318881803
:1002600003E010F8011D03F8011D521EF9D210BD64
:1002700040EA01039B0703D009E008C9121F08C028
:10028000042AFAD203E011F8013B00F8013B521EA8
:10029000F9D210BDD2B201E000F8012B491EFBD209
:1002A00070470022F6E710B513460A460446194681
:1002B000FFF7F0FF204610BD421C10F8011B00297B
:1002C000FBD1801A704730B504460020034600E099
:1002D0005B1C934203D2E05CCD5C401BF8D030BD88
:1002E000034611F8012B00F8012B002AF9D118461A
:1002F00070472DE9F05F0546002092469B468846F0
:100300000646814640241BE0284641464746224691
:1003100000F041F853465A46C01A914110D3114695
:100320001846224600F028F82D1A67EB01084F46C0
:1003300022460120002100F01FF817EB00094E4172
:10034000201EA4F10104DFDC484631462A4643461C
:10035000BDE8F09F064C074D06E0E06840F0010361
:1003600094E8070098471034AC42F6D3FFF70EFF2D
:10037000A42C0408C42C0408202A04DB203A00FA28
:1003800002F1002070479140C2F1200320FA03F3EC
:10039000194390407047202A04DB203A21FA02F0EA
:1003A0000021704721FA02F3D040C2F120029140AF
:1003B00008431946704770B58C1810F8015B15F0AA
:1003C000070301D110F8013B2A1106D110F8012BC7
:1003D00003E010F8016B01F8016B5B1EF9D12B07EC
:1003E00005D40023521E0DD401F8013BFAE710F8A2
:1003F000013BCB1A921C03E013F8015B01F8015B8F
:10040000521EF9D5A142D8D3002070BD00298168C1
:1004100002D041F0010101E021F00101816070474B
:10042000084B10B5D3F8042307490A40D0E900145B
:100430002143D0E90240044321431143C3F804138C
:1004400010BD000000200140E030FCFF0029816861
:1004500002D041F4807101E021F480718160704725
:100460000029816802D041F4007101E021F400719B
:100470008160704730B542680F4B0C791A400B68A9
:1004800042EA04221343436082680C4B4D791A40C0
:10049000D1E9034323438C6844EA450423431343CF
:1004A0008360C26A097D22F47002491EC9B242EA21
:1004B0000151C16230BD0000FFFEFFFCFDF7FFC02F
:1004C00070B5072609290AD9C568A1F10A0404EB09
:1004D0004404A640B543A3401D43C56007E0056939
:1004E00001EB4104A640B543A3401D4305611F2312
:1004F000072A09D2446B521E02EB820293409C43AE
:1005000091400C43446370BD0D2A09D2046BD21F85
:1005100002EB820293409C4391400C43046370BD04
:10052000C46A0D3A02EB820293409C4391400C4313
:10053000C46270BD816841F08041816070470000F5
:1005400006490028D1F8040302D040F4000001E07D
:1005500020F40000C1F804037047000000200140AF
:10056000002800DC404270477CB500240120CDE922
:100570000004820223461DA11F481BF0C9FF022070
:100580001E490502CDE9000100232A461CA120488E
:100590001BF0BEFF19490320091DCDE9000100230E
:1005A000EA001CA11F481BF0B3FF144904200831C6
:1005B000CDE9000100232A461BA11E481BF0A8FF1D
:1005C0000E4905200C31CDE9000100232A461AA16D
:1005D0001D481BF09DFF0620CDE9000400232A469C
:1005E0001AA11D481BF094FF7CBD00007654617376
:1005F0006B475549000000008DB80108A00000209D
:10060000765461736B557365724B6579494600008A
:10061000D5BC0108765461736B4673446562756797
:10062000000000005DB80108765461736B5374617B
:10063000727400008DBB0108765461736B41646372
:1006400050726F6300000000E1B7010876546173D7
:100650006B5465737400000025C001081CB50021AF
:10066000009103460191044A0A21044802F0BCFEAD
:10067000034908601CBD0000196601089061030869
:10068000940200201CB50021009103460191044A08
:100690000521044802F0A8FE034908601CBD0000C3
:1006A00009640108C0620308980200201CB50021FB
:1006B000009103460191044A0721044802F094FE88
:1006C000034908601CBD0000716401084C63030805
:1006D0009C0200201CB50021009103460191054AAF
:1006E0001221054802F080FE04490860BDE81C4064
:1006F0000BF0DCBD5D680108F0740308A80200205F
:100700001CB50021009103460191044A04210448CC
:1007100002F06AFE034908601CBD00003163010855
:1007200054CB01085C0200201CB500210091034657
:100730000191044A0321044802F056FE034908606F
:100740001CBD00005565010810640308A0020020CC
:100750001CB50021009103460191044A032104487D
:1007600002F042FE034908601CBD0000B7650108A5
:1007700064640308A402002038B5456804460146B5
:1007800028460AF0AEFB00282BD02068304A1128FA
:100790000DD006DC0B2825D00E2833D00F2852D1DF
:1007A00012E0282849D0B0F5107F4CD108E09268BB
:1007B000002A16D02146284601B0BDE83040104737
:1007C000214628465268F7E7284602F021FB0090B0
:1007D000406E0468684602F077FB002C01D0284682
:1007E000A04738BD284602F013FB0090683002F0A5
:1007F00065FA009803216C3002F06EFA684602F048
:1008000063FB20E0E168486809680D2902D02029CF
:1008100013D105E0002810DD284612F0B6FF06E0EF
:10082000002804DD2846BDE8384012F0AEBF284657
:10083000BDE83840022112F0BEBFE06818B90021BF
:10084000284600F083F92046BDE838400AF006BF8C
:1008500088050020F0B5044685B08069B4F90850D9
:10086000668A0027CDE90265CDE900170490B4F946
:100870000C00B4F91060C118B4F90A00B4F90E50B4
:10088000104433462A4600F007F80546616800F038
:1008900066F905B02846F0BD2DE9F04F85B01F463A
:1008A000DDE911B4DDE90E5690468946824603F033
:1008B000CDFB16484C34CDE90204CDE900563B4649
:1008C0004246494650460AF011FE040018D002F094
:1008D0009FFA1022594604900AF06EFC04983022C8
:1008E0000B493430FFF7B6FC094D04990C3D2868DC
:1008F000486604A802F0E8FA28684168204688475C
:1009000004F01CFD05B02046BDE8F08F7907000813
:1009100094050020F0B5044680688B4989B051F8F1
:100920002050606800287DD0052804D006287AD0A1
:10093000122879D1AEE0E86900284FD095E80E0082
:100940008DE80F0004F110010FC905F069F90026C8
:1009500055F8260004F0FBF9A169E8690A1A216933
:1009600001446069304403F0F5F8A169E8690A1AA6
:1009700021690144E069801B03F0ECF8E169E86952
:100980000A1A616901442069304403F0B9F9E16948
:10099000E8690A1A61690144A069801B03F0B0F993
:1009A000761C022ED4DBA86804F0D1F9E069E9696D
:1009B0006669431A206942183144801C521E03F0B4
:1009C000FBF9E169E869A2690B1A61690144101A2F
:1009D000401C921E03F0F0F9EE6913E05FF0000690
:1009E00055F8260004F0B3F9E069831BA069821B67
:1009F000606981192069304403F022F9761C022EC7
:100A0000EEDB0226D5E90301CDE900016169E06969
:100A100008444310A069891C821B2069304403F0FC
:100A20005DF802E089E012E08AE0D5E90501CDE950
:100A30000001E36960690121184401EB6001A069CC
:100A40009B1E821B2069304403F048F878E0206840
:100A500002F0DEF9049020680BF0F2FF40B1A068CC
:100A600008B1002008E00498006F28B1012003E0DD
:100A70000498406F00B10220049901EB8000C56E1C
:100A800004A802F021FA00231A462846216802F041
:100A9000CBFD55E0206802F0BBF90490866EEEB302
:100AA000B0F95C70A168D1B3032942D05FF00001B6
:100AB00000EB8101406D0C6C04F066F9204604F0F7
:100AC00046F905A803F0EAF9BDF81410A88B014413
:100AD000ADF81410BDF81810081AADF81800BDF8DC
:100AE0001600801CADF81600BDF81A00801EADF887
:100AF0001A000498B0F96020B0F95E1005A804F05F
:100B000021F804A802F0E0F9022004F099F9304637
:100B100002F07EF93A4605A9079001E00BE006E0F5
:100B200002F064FE0DF11C0002F0CEF908E0012194
:100B3000BEE70221BCE704A8F6E720680BF0B6FB8D
:100B400009B00020F0BD0000F82504084FF48072C1
:100B50000029114601D00AF058BA0AF0A9B92DE9C6
:100B6000FF410E4605004FF0010421D003F06EFA5C
:100B7000284602F04DF90190876E01A8009702F017
:100B8000A3F93146684605F0C3FB78B1009800240C
:100B9000B84208D0284602F03BF9019000998166DE
:100BA00001A802F091F928460BF0E8F804F0C6FB22
:100BB00004B02046BDE8F081F8B54468054601461A
:100BC00020460AF08EF9002836D028680B2839D044
:100BD0000E2805D00F2821D0B0F5107F3CD12CE095
:100BE000204602F015F9009010F8746F47786846B7
:100BF00002F06AF920460BF023FF10B3E868416861
:100C0000002929DD0068202826D17F1CB7FBF6F0DB
:100C100006FB1071204600F01BF91DE0254620461A
:100C200002F0F6F80090006F0468684602F04CF994
:100C3000002C01D02846A047F8BD2946204613F0D5
:100C40006FF809E0204602F0E3F80090783002F0F7
:100C500035F8684602F038F92846BDE8F8400AF051
:100C6000FDBCF0B585B0B0F90850468A846902969B
:100C7000CDE903540027CDE90017B0F90C10B0F905
:100C80001050B0F90E40B0F90A00194410442B4638
:100C9000224600F003F805B0F0BD00002DE9F04F4A
:100CA00085B01D46DDE90E9716468A468346DDF877
:100CB000488003F0CBF9254C0EB135B10AE020682D
:100CC0008068006880470646F7E72068806800680B
:100CD000804705461D486FF07041001DC06888427E
:100CE00001D147F0010708F15400194ACDE902206B
:100CF000CDE900972B463246514658460AF0F6FB9E
:100D000005001CD002F084F81022049011990AF01A
:100D100053FA0E4904983C22091D3430FFF79AFA21
:100D2000049821680167022180F874100F21C167BF
:100D300004A802F0C9F8206841682846884704F0F2
:100D4000FDFA05B02846BDE8F08F0000C40500207C
:100D5000B90B00082DE9FF470446006810B10BF0FD
:100D60006FFE68B10022314850F8221060680A28EE
:100D700041D007DCF0B306280DD0072854D106E097
:100D80000122F0E712280AD019284DD137E0204679
:100D90000DF07EF948E020460EF016FF44E0206892
:100DA00002F036F80290B0F9548090F85650476C33
:100DB000466B02A802F088F8206800F039F88146F6
:100DC00068460AF059FDBDF8001009EB050008441B
:100DD000ADF80000246A304603F0D6FF022004F08C
:100DE0002FF8384603F0B3FF42466946204602F02A
:100DF000FDFC19E007E020460FF0EBFA14E08869EB
:100E000004B0BDE8F08720680BF050FA206801F0CC
:100E1000FFFF0390B0F90610B0F90220891A491CAF
:100E2000C16703A802F050F80020E9E77026040823
:100E300038B5044603F00AF9204601F0E9FF0090B6
:100E4000C46F684602F040F804F078FA204638BDD6
:100E500038B50C4605001BD003F0F8F8284601F021
:100E6000D7FF009090F87410A1420CD980F875401B
:100E7000684602F029F828460AF080FF0521284636
:100E80000BF032F802E0684602F01EF804F056FA61
:100E900038BDFEB50D46040022D0002D20D003F051
:100EA000D5F8204601F0B4FF0190866F01A80096A6
:100EB00002F00AF82946684605F02AFA70B100984F
:100EC000B04208D0204601F0A3FF0190009981674D
:100ED00001A801F0F9FF20460AF050FF04F02EFAB5
:100EE000FEBD000000B589B024216846FFF7D9F99E
:100EF0001920019003480068806841686846884767
:100F000009B000BDC405002030B5044600206518B6
:100F100003E014F8011B09F0DBFEAC42F9D3002119
:100F200009F0D6FEBDE83040002109F0D1BE000036
:100F300058B1012807D0022805D0032803D004287F
:100F400001D0052803D000207047024870470248AE
:100F500070470000305B01205863012010B5ADF5EB
:100F6000825D0021684607F011FD20A018F046F8C8
:100F7000204C28B1082807D054F820101EA022E0E9
:100F800024A014F0D3FD03E027A0216A14F0CEFDC5
:100F90002BA018F033F828B1082807D054F82010F7
:100FA00029A010E02FA014F0C1FD03E032A0216AB7
:100FB00014F0BCFD36A018F021F848B108280BD079
:100FC00054F8201036A014F0B1FD0DF5825D10BD6F
:100FD0003AA014F0ABFD03E03EA0216A14F0A6FD98
:100FE0000021084607F0D2FCEFE700002F446972A9
:100FF00031000000BC000020665F6D6B64697220E8
:101000004469723120CAA7B0DC20282573290D0A53
:1010100000000000665F6D6B646972204469723184
:10102000204F6B0D0A0000004469723120C4BFC21A
:10103000BCD2D1BEADB4E6D4DA282573290D0A009E
:101040002F44697232000000665F6D6B6469722024
:101050004469723220CAA7B0DC20282573290D0A02
:1010600000000000665F6D6B646972204469723233
:10107000204F6B0D0A0000004469723220C4BFC2C9
:10108000BCD2D1BEADB4E6D4DA282573290D0A004E
:101090002F446972312F446972315F3100000000C2
:1010A000665F6D6B64697220446972315F3120CA7A
:1010B000A7B0DC20282573290D0A0000665F6D6B40
:1010C00064697220446972315F3120B3C9B9A60DD9
:1010D0000A000000446972315F3120C4BFC2BCD233
:1010E000D1BEADB4E6D4DA20282573290D0A00005C
:1010F00010B5ADF5035D0021684607F047FC42F2EC
:10110000680016A1684418F0EFFB40B1144951F88B
:10111000201014A014F00AFD0DF5035D10BD41F27E
:101120003C046C440A2215A1204618F0FDFA42F254
:1011300098036B44222214A1204618F0C1FD50B13F
:101140001BA014F0F3FC204617F0D1FD0021084647
:1011500007F01CFCE0E71DA0F3E70000303A2F0089
:10116000BC000020B4F2BFAAB8F9C4BFC2BCCAA771
:10117000B0DC20282573290D0A00000061726D661D
:101180006C792E747874000046617446532057724F
:101190006974652044656D6F200D0A207777772E7E
:1011A00061726D666C792E636F6D200D0A00000010
:1011B00061726D666C792E74787420CEC4BCFED0DA
:1011C000B4C8EBCAA7B0DC0D0A00000061726D66FE
:1011D0006C792E74787420CEC4BCFED0B4C8EBB346
:1011E000C9B9A60D0A0000000029016802D041F02B
:1011F000010101E021F001010160704730B5036891
:10120000124ACC6813400A682243D1E905452C43B1
:101210002243CC6922430C6A22434C6A22438C6AE3
:1012200022434C6B22438C6B22431A430260426977
:1012300022F00703D1E90B2422431A4342610A69D1
:1012400042604A6882608968C16030BD3F801CF09E
:1012500070B5ADF5845D0021684607F097FB44A0AA
:1012600018F0DFFC444C002857D0042859D054F81B
:10127000201042A014F05AFC4DA018F0D2FC002817
:1012800052D0042854D0052852D054F820104CA035
:1012900014F04CFC36A018F0C4FC00284BD00428F5
:1012A0004DD054F8201035A014F040FC54A018F094
:1012B000B8FC002846D0042848D054F8201052A08A
:1012C00014F034FC5DA018F0ACFC002841D00428D8
:1012D00043D054F820105CA014F028FC41F23C05E7
:1012E00000246D44224666A1284614F02FFC2846AF
:1012F00018F097FC020033D0042A294633D064A0AA
:1013000014F014FC641CE4B2142CEBD30021084646
:1013100007F03CFB0DF5845D70BD6AA014F006FC7F
:10132000AAE713A16CA0A5E772A014F0FFFBB1E738
:101330001FA169A0ACE763A014F0F8FBB6E70CA10D
:1013400065A0B1E773A014F0F1FBBBE72CA162A08C
:10135000B6E776A014F0EAFBC0E738A15EA0BBE7D1
:10136000294679A000E07DA014F0E0FBCAE7000068
:101370002F44697231000000BC000020C9BEB3FDDB
:1013800044697231CAA7B0DC28B4EDCEF3B4FAC216
:10139000EB203D2025732920CEC4BCFED6BBB6C1B0
:1013A000BBF2C4BFC2BCB7C7BFD50D0A0000000066
:1013B0002F446972312F446972315F31000000009F
:1013C000C9BEB3FDD7D3C4BFC2BC2F446972312F8D
:1013D000446972315F31CAA7B0DC28B4EDCEF3B4F2
:1013E000FAC2EB203D2025732920CEC4BCFED6BB1B
:1013F000B6C1BBF2C4BFC2BCB7C7BFD50D0A00009F
:101400002F44697232000000C9BEB3FD44697232D4
:1014100020CAA7B0DC28B4EDCEF3B4FAC2EB203D6D
:101420002025732920CEC4BCFED6BBB6C1BBF2C4F6
:10143000BFC2BCB7C7BFD50D0A00000061726D66A0
:101440006C792E7478740000C9BEB3FD61726D664C
:101450006C792E747874CAA7B0DC28B4EDCEF3B4DE
:10146000FAC2EB203D2025732920CEC4BCFED6BB9A
:10147000B6C1BBF2C4BFC2BCB7C7BFD50D0A00001E
:101480005370656564253032642E747874000000F2
:10149000C9BEB3FD2573CEC4BCFECAA7B0DC28B458
:1014A000EDCEF3B4FAC2EB203D2025642920CEC452
:1014B000BCFED6BBB6C1BBF2C4BFC2BCB7C7BFD5AA
:1014C0000D0A0000C9BEB3FDC4BFC2BC446972317D
:1014D000B3C9B9A60D0A0000C3BBD3D0B7A2CFD6FB
:1014E000CEC4BCFEBBF2C4BFC2BC203A25730D0AF9
:1014F00000000000C9BEB3FDD7D3C4BFC2BC2F4497
:101500006972312F446972315F31B3C9B9A60D0ACE
:1015100000000000C9BEB3FDC4BFC2BC2044697254
:101520003220B3C9B9A60D0A00000000C9BEB3FD40
:10153000CEC4BCFE2061726D666C792E7478742006
:10154000B3C9B9A60D0A0000C9BEB3FDCEC4BCFE26
:101550002573B3C9B9A60D0A00000000C3BBD3D0E0
:10156000B7A2CFD6CEC4BCFE3A25730D0A00000048
:1015700008B500F0E9F816F009F864201AF048F907
:101580006946002016F060FE0028F4D02DA014F06B
:10159000CDFA9DF80000342830D016DC31281CD05C
:1015A00009DC0D28E5D03028E5D127A014F0BEFADB
:1015B00000F080FCDFE7322815D03328DBD128A0EB
:1015C00014F0B4FAFFF7CAFCD5E735380528D2D2B3
:1015D000DFE800F01A20262C320026A014F0A6FA2C
:1015E00009F0EAFBC7E729A014F0A0FAFFF780FD95
:1015F0002CA014F09BFA07F03FFEBCE72FA014F0DC
:1016000095FAFFF725FEB6E732A014F08FFA0BF03B
:1016100091FCB0E734A014F089FA04F099FFAAE72E
:1016200036A014F083FA00F085F9A4E739A014F08D
:101630007DFA09F08FFB9EE73CA014F077FA09F0E1
:1016400057FB98E70D0A0000A1BE30202D20466907
:101650006C65466F726D6174A1BF0D0A00000000D9
:10166000A1BE33202D20437265617465446972A167
:10167000BF0D0A00A1BE31202D2056696577526F3B
:101680006F74446972A1BF0D0A000000A1BE322030
:101690002D204372656174654E657746696C65A15E
:1016A000BF0D0A00A1BE32202D205265616446693B
:1016B0006C6544617461A1BF0D0A0000A1BE3420B5
:1016C0002D2044656C65746544697246696C65A13A
:1016D000BF0D0A00A1BE35202D20546573745370D0
:1016E000656564A1BF0D0A00A1BE36202D204469A6
:1016F000736B496E666FA1BF0D0A0000A1BE372053
:101700002D20446F776E6C6F61642046696C65A113
:10171000BF0D0A00A1BE38202D2055706F616420D6
:1017200046696C65A1BF0D0A00000000A1BE39200A
:101730002D20557064617465204669726D77617201
:1017400065A1BF0D0A00000010B514A014F0EEF959
:1017500020A014F0EBF92AA014F0E8F92DA014F061
:10176000E5F935A014F0E2F93BA014F0DFF944A04C
:1017700014F0DCF946A014F0D9F94BA014F0D6F916
:101780004FA014F0D3F953A014F0D0F959A014F0DD
:10179000CDF9BDE810405FA014F0C8B90D0A2D2D99
:1017A0002D2D2D2D2D2D2D2D2D2D2D2D2D2D2D2D69
:1017B0002D2D2D2D2D2D2D2D2D2D2D2D2D2D2D2D59
:1017C0002D2D2D2D2D2D2D2D2D2D2D2D2D2D0D0A8C
:1017D00000000000B5DAD2BBB4CECAB9D3C3C7EBA0
:1017E000D1A1D4F1C3FCC1EE30BDF8D0D0535049E3
:1017F00020466C617368B8F1CABDBBAF0D0A00002A
:10180000C7EBD1A1D4F1B2D9D7F7C3FCC1EE3A0DE1
:101810000A00000030202D20B6D45350495F466C9A
:10182000617368BDF8D0D0CEC4BCFECFB5CDB3B81F
:10183000F1CABDBBAF0D0A0031202D20CFD4CABEE6
:10184000B8F9C4BFC2BCCFC2B5C4CEC4BCFEC1D0FF
:10185000B1ED0D0A0000000032202D20B4B4BDA867
:1018600061726D666C792E7478742CB2A2B6C1B3B5
:10187000F6CEC4BCFEB5C4C4DAC8DD0D0A00000053
:1018800033202D20B4B4BDA8C4BFC2BC0D0A0000D3
:1018900034202D20C9BEB3FDCEC4BCFEBACDC4BF1A
:1018A000C2BC0D0A0000000035202D20B6C1D0B406
:1018B000CEC4BCFECBD9B6C8B2E2CAD40D0A000071
:1018C00036202D20BBF1C8A1B4C5C5CCD0C5CFA250
:1018D0000D0A000037202D20CAB9D3C3596D6F649B
:1018E000656DD0ADD2E9CFC2D4D8CEC4BCFE0D0A4E
:1018F0000000000038202D20CAB9D3C3596D6F6491
:10190000656DD0ADD2E9C9CFB4ABCEC4BCFE0D0A73
:101910000000000039202D20C9FDBCB64669726D5B
:1019200077617265B5BDD6B8B6A8B5C4B5D8D6B717
:101930000D0A00002DE9F05F0025ADF5165D42F2BD
:101940007C40A946A8462C468DF804508021684466
:101950000095FEF7A6FC42F22C5602946E44002439
:101960002022C1493046FEF775FCA6F5976A4FF470
:1019700081615046FEF795FC41F238000021684431
:1019800007F004F83146A6F1300017F0ADFF48B17A
:10199000B64951F82010B6A014F0C8F80DF5165D40
:1019A000BDE8F09F4FF4801B322015F0A7FC74B106
:1019B000B5A014F0BBF842F27C416944B9A0029A88
:1019C00014F0B4F80021084606F0E0FFE6E75FEA0D
:1019D000090006D0012863D0B9F1020F72D00124AA
:1019E000E2E74321009808F051FC01AF5E465A46F9
:1019F0003946009807F0C0FC0028D5D19DF80400B6
:101A00000128D1D132463946009807F0B5FC9DF83F
:101A1000040008B10324C7E7B346324601A9009881
:101A200007F0AAFC9DF80400FF28F3D100275646D2
:101A3000D846F1194246009807F09EFC7F1CBFB2C1
:101A4000802FF6D3474642460DF1040841460098E0
:101A500007F092FC3A464146009807F08DFC0621BB
:101A6000009808F013FC42F27C474FF00109002077
:101A70006F4404E03954401C80B2802802D2315CAB
:101A80000029F7D1304402A9401C08F08BFC0B223E
:101A9000394603A817F048FE4FF00108432186E0BD
:101AA0005E465A4601A9009807F066FC9DF80410AE
:101AB000182925D007DC012911D0022911D00429C9
:101AC00005D109E077E041291AD0612918D04246B2
:101AD0007BA014F02BF867E74FF0020966E080273F
:101AE00001E04FF48067B3465A4601A9009807F019
:101AF00043FC324601A9009807F03EFC002619E09D
:101B00001821009808F0C2FB1821009808F0BEFBCD
:101B100042F27C40684418F084F872A014F006F891
:101B2000022441E70AEB06015A46009807F024FC1C
:101B3000761CB6B2BE42F5DB5A4601A9009807F002
:101B40001BFC9DF804005A46060201A9009807F004
:101B500013FC9DF80400394606435046FFF7D4F9BC
:101B6000B0420BD06D1CEDB239465046FFF7CCF9B0
:101B700002463B46314663A013F0D8FF55B115210C
:101B8000009808F083FB294667A013F0CFFF6D1E75
:101B9000EDB209E742F24C536B443A46514603A872
:101BA00018F08EF808F101001FFA80F8062100985D
:101BB00008F06CFBF8E64321009808F067FB01ACE5
:101BC0005F465A462146009807F0D6FB9DF8040070
:101BD00001283AD13A462146009807F0CDFB9DF8FE
:101BE000040000287FF416AF3A4601A9009807F0D8
:101BF000C3FB9DF80400FF28F4D100245646311998
:101C00003A46009807F0B8FB641CA4B2802CF6D3C7
:101C10003A4601A9009807F0AFFB9DF804003A4648
:101C2000040201A9009807F0A7FB9DF80400802199
:101C300004433046FFF768F9A04201D06D1CEDB2B5
:101C40002DB11521009808F021FB0424ACE603AC6B
:101C50002046029917F0C1F8204617F091FF204660
:101C600017F045F80621EDE734CB0108BC00002051
:101C7000B4F2BFAAB8F9C4BFC2BCCAA7B0DC20285E
:101C80002573290D0A0000000D0A446F776E6C6FF2
:101C900061642066696C65205375636365737321A5
:101CA000200D0A0046696C654E616D653A2025730A
:101CB0002046696C6553697A653A2564200D0A00EF
:101CC000556E6B6E6F77205374617274436F6465E9
:101CD0003A202564207061636B5365713A20256456
:101CE0000D0A0000557365722063616E63656C2098
:101CF0007472616E736665722064617461200D0A8E
:101D00000000000043726356616C75653A202564DB
:101D1000204352433A2564207061636B73697A658E
:101D20003A2025640D0A0000457272282564290DA9
:101D30000A00000070B54FF40065284600F072F804
:101D4000134C30B1206820F400602060284600F079
:101D500063F84FF40055284600F064F830B120686D
:101D600020F400502060284600F056F84FF400455B
:101D7000284600F057F8002808D0206820F40040DA
:101D800020602846BDE8704000F046B870BD0000F5
:101D9000003C014010B5022000F044F8002806D0B5
:101DA00016F09EF8BDE81040022000F035B810BDD6
:101DB00010B5082000F036F8002809D00548016861
:101DC00021F008010160BDE81040082000F024B8AF
:101DD00010BD0000003C014070B5802000F022F8EA
:101DE0000C4C30B1206820F080002060802000F092
:101DF00013F84FF48075284600F014F8002808D036
:101E0000206820F4807020602846BDE8704000F013
:101E100003B870BD003C01400149086070470000F4
:101E2000143C0140064A014600201268044B0A4057
:101E300014331B680B4202D0002A00D001207047E7
:101E4000003C014030B51A4A8379016853B31368E6
:101E50008B431360111D0B680468A3430B60017969
:101E600011440B68046823430B60114B0833196855
:101E70000468A14319601C1D21680568A9432160FD
:101E80004179102905D011440A68006802430A60AC
:101E900030BD196802681143196021680068014368
:101EA000216030BD0079104402688A43026030BD71
:101EB000003C014000B591B0ADF5005D002101A8E6
:101EC00006F064FD4FF4805000900DF5825300221F
:101ED00007210AA017F044F9094918B151F8201058
:101EE00008A001E009680CA013F020FE00210846BC
:101EF00006F04CFD11B00DF5005D00BD303A00005C
:101F0000BC000020B8F1CABDBBAFCAA7B0DC202816
:101F10002573290D0A000000B8F1CABDBBAFB3C9D3
:101F2000B9A620282573290D0A00000038B5020A39
:101F3000813AC3B2C2EB421404EB8212C0B200EB8E
:101F400042007F2B02D2A0F1400189B2802B01D93F
:101F5000413881B24FF6FF7000EA41000449022285
:101F60000144684619F0E0F8BDF8000038BD0000F3
:101F700000F0FD012DE9F0430446C56887B09046A6
:101F80008946002002F0F4FE064625B1287910B1FA
:101F900046F0020001E026F0020002F0E9FE2069AE
:101FA000012558B1D4E902128DE826000395638813
:101FB0002288046841464846A0471EE0124F134B52
:101FC000214638681B68427CE068984730B9E08851
:101FD000012801D0002001E03868806BA288E388E6
:101FE000A1680095CDE90410CDE90232019563881E
:101FF00022884146484605F0CFF807B03046BDE894
:10200000F04302F0B5BE00002803002020030020AA
:102010001CB50024019401AC009400F0E7F81CBD4D
:102020002DE9FF4F83B0814606988A46A0EB0A0847
:10203000109E00200090A2EB09043568934654EAF4
:10204000080018D02046FEF78BFA07464046FEF7F8
:1020500087FA87420BDA2046444680464846D146F6
:1020600082465846DDF818B0069001200090002CFA
:1020700007DD204606E007B04846BDE8F04F00F017
:102080003BB96042A0420AD04846D9466442C8F1F2
:10209000000883464FF0FF37DDF818A000E0012765
:1020A0005148B8F1000F11D004EBD4714FEA610B25
:1020B00001DACBF1000B4C480068807E88B3002F1A
:1020C00002DA30682044306000257BE00099002966
:1020D000016821D0897E11B10027804615E007B044
:1020E0005A4649465046BDE8F04F05F0B7B9284674
:1020F0006D1C12F0D9FD38B9D8F8000009EB0701C2
:10210000406E4268504690477F1CA742EFDD6D1E2F
:10211000356007B0BDE8F08F8A7E1AB1002780468F
:1021200017E019E0486E5A465146036807B0484622
:10213000BDE8F04F184728466D1C12F0B5FD38B9C0
:10214000D8F8001009EB0700496E4A6851469047DD
:102150007F1CA742EFDDDAE700250FE008FB05B0A2
:1021600090FBF4F101EB0A00009951B11E4A09EB12
:1021700005011268526E526890476D1CA542EDDD54
:10218000C7E7194909EB05030968496E4A68014622
:102190001846F1E708FB05B090FBF4F101EB0A00EB
:1021A000019030683844306012F07EFD48B90098E4
:1021B00090B10D4809EB05010068406E4268019836
:1021C00090476D1CA542E5DD3068002F01DA204400
:1021D0003060C01B30609CE7034909EB05000968CB
:1021E000496E4A680199EBE7280300202DE9FF4773
:1021F0000F4640491646804609680C981D460A7EDF
:10220000012A1CD0A8EB0600791B50EA01031CD060
:10221000A2F1010913F0BEFC00F58060824604F0D3
:1022200066F900FB09F4504604F066F900FB09F179
:10223000002C0CDAC4F50070801240420AE00090D5
:10224000324639464046FFF7EBFEBDE8FF8704F50E
:102250000074A012002904DAC1F5007189124C4201
:1022600002E001F500718C12002804DD411C01EB35
:10227000D171491003E000EBD0714910401E00EB12
:10228000D0704210002C04DD601C00EBD0704010B8
:1022900003E004EBD4704010641E04EBD47308EB2D
:1022A0000104ADF800403C18ADF80240A8EB020470
:1022B0005B10B21AADF80440ADF808203144FC1AA6
:1022C000EA1AADF80C102844ADF80A20ADF80E005B
:1022D0000023ADF806401A460421684600F07AF85B
:1022E000394640460EF0F0FA294630460EF0ECFA38
:1022F000ABE7000028030020064A13681A7E012A73
:1023000005D0521E02EBD272521000F005B85A6E80
:1023100052681047280300202DE9F05F06468846E2
:1023200040F2C32002FB00F14FF47A7091FBF0F70A
:1023300002FB02F102EBD27001EB600B1446B11804
:10234000234A301B7F1C1268526E13680A464146AE
:102350009847012538E000BF05FB05F004FB0401A8
:1023600059451CDDBC4219DD194B06EB050AA6EBED
:1023700005091B68AAF1010208EB04015B6E09F173
:1023800001001B689847124BAAF10102A8EB040157
:102390001B6809F101005B6E1B689847641E0C4BBB
:1023A0003219301B1B68924608EB05015B6E8146B3
:1023B0001B689847064B5246A8EB05011B68484628
:1023C0005B6E1B6898476D1CBD42C5DDBDE8F09F84
:1023D000280300202DE9FF4F43F6FF740F466642A5
:1023E00083B09B46814600210BE000BF09EB8100D2
:1023F000B0F90200A04200DA0446B04200DD064611
:10240000491CB942F2DB67480068406900280DD0DA
:10241000B0F906101A46A1EB0B01B14200DA0E46E4
:10242000B0F90200801AA04200DD0446B4E0DFF8F3
:1024300078A100200546CAF8000088E0781E854291
:1024400001DA6B1C00E0002309EB850C09EB830229
:10245000BCF90200B2F90210A04244D1A14215D148
:1024600039F92330059A39F9251003EB020C4D4A4E
:1024700005981268084404EB0B01526E604513681E
:1024800001DA62462AE00246604627E02846A44672
:102490004FF000087A1E0BE008B1401E00E0781EE5
:1024A00009EB8003B3F90230634504D108F1010858
:1024B0009045F1DB2346A34248D01A1B39F9250089
:1024C000A1EB040C059B92EA0C0F09D4354A184481
:1024D00004EB0B011268526E13680246984735E010
:1024E0000AF08AFE32E0A14230D001DBA04203DDD7
:1024F000A0422BDBA14229DCE04688420ADC0346ED
:10250000A04223DC0846A14220DBB8F900C0B2F9A2
:10251000001008E00B46A14218DCA04216DBB2F91D
:1025200000C0B8F90010E21AA1EB0C0151430029D8
:10253000A0EB030202DD01EB620102E0A1EB62010C
:10254000491CC01A91FBF0F06044C9E76D1CBD4204
:10255000FFF674AF0598009004EB0B00019000208B
:102560008046054613E01149B8F1000F31F915A076
:1025700009D0009901EB0A0208440A490968496E2A
:102580000B680199984788F0010850466D1C064970
:1025900009688D42E7DB641CB4427FF748AF07B09F
:1025A000BDE8F08F28030020600800204CCD0120FA
:1025B00010B5002002F0C0FB6FF07F4002F0C7FBB7
:1025C000012002F01FFC002002F02AFC002002F093
:1025D00037FC002002F0CCFB0448006802F0D4FB7A
:1025E000BDE81040002002F0DFBB00002403002003
:1025F000F0B5002201274FF0030C0B6807FA02F533
:102600002B40AB422CD1066853000CFA03F4A643CE
:1026100006600E79D0F800E09E4046EA0E0606609D
:102620000E79012E01D0022E12D18668A643866053
:102630004E79D0F808E09E4046EA0E06866046686D
:10264000AE43466045688E799640B6B235434560E4
:10265000C568A543C560CC799C40C3681C43C46071
:10266000521C102AC9D3F0BD4B07DB0E9A40C90893
:1026700010B500EB8100016A0F249C40A143016268
:10268000016A1143016210BD006980B270470246C1
:10269000002012690A4200D0012070474183704730
:1026A00001837047416170470AB1018370474183DC
:1026B000704700002DE9F04FDFF828B191B04FF0DE
:1026C000FF35DBF80030B3F922100691DE69B3F96B
:1026D00024A0F469A189814206D8E289824203D309
:1026E000471AD4F8008012E0D4E90181002970D0A3
:1026F0000A8882426DD84D8885426AD3801A82B298
:10270000486800EB8200B0F90070B0F90250781C04
:102710005FD0307EA27C014600FB02F9207CCDE92F
:102720000710B3F92A60304605F028FAC0B20E90BF
:10273000DBF8001007FB0980A37C8A6B0127CDE939
:102740000402CDE90273C869089AC17E807ECDE992
:102750000001DDE90603514604F01EFD681C18D097
:1027600046F0020005F00AFADBF80000A37C05FB46
:102770000981826BCDE90273CDE90412C069089A20
:10278000C17E807ECDE90001DDE90603514604F0FB
:1027900003FDDBF800005D46C069417E007E81429A
:1027A00014D9022E12D086F0040005F0E7F928684B
:1027B000C069027EC37E857E02FB03A1437E089A28
:1027C0000698534402FB050204F078FE0E9805F0CB
:1027D000D5F9DBF80000627C418C1144418411B0D2
:1027E000BDE8F08F2803002004480068C069C06974
:1027F00009B1027C0A60407C704700002803002079
:10280000022008807047C06982898A4202D8C28942
:102810008A4210D2806880B102888A420DD84388EB
:102820008B420AD3406800EB8100A0EB8200B0F934
:102830000000002801DB01207047002070470000E5
:10284000F0B5254C054687B020682946B0F92A60C6
:10285000C069C06900F045F900283AD04168008895
:10286000281A01EBC0053046AF7805F087F9064617
:102870001A48D0F800C0BCF1000F15D000216868DC
:10288000CDE904010422012001A9009081E885001E
:102890002068DCF800702A78C1690B7EB0F924103A
:1028A000B0F92200B8470CE06868CDE900702068F4
:1028B0002A78C1690B7EB0F92410B0F9220000F02B
:1028C0006FF9304605F05AF920686A78418C114456
:1028D000418407B0F0BD00002803002064030020FD
:1028E00070B505460B480C4629460068C069C069AA
:1028F00000F0F7F800280BD0416800882A1A012060
:1029000000EBC200002C085C02D011F832102160EC
:1029100070BD00002803002011200880704710B50A
:10292000C06900F0DEF8002800D0012010BD0000D2
:102930002DE9F0432F4C034687B020681946B0F9C3
:102940002A80C069C06900F0CCF800284ED04168E8
:102950000088181A01EBC0054046AE7805F00EF964
:10296000814620686A680123816BCDE90236CDE992
:102970000421C169CB7E8A7ECDE900230B7EB0F9AC
:1029800024102A78B0F9220004F006FC2068C069FF
:10299000477E067EB7421DD9C07E47434643B8F105
:1029A000020F17D001F07FFA804601F045FA02F0DD
:1029B000CEF921682A78CB69B1F92200B1F9241047
:1029C000DB7E02FB0302CB19314404F077FD404665
:1029D00002F0BDF9484605F0D1F820686A78C3696D
:1029E000B0F922109B7E02FB0311418407B0BDE8C1
:1029F000F0830000280300202DE9F3411B4E0F4611
:102A0000002530682C46C069417EC07E01FB00F87D
:102A10001CE0684602F06AFB054630682946C0693A
:102A2000C06900F027F888B141680088281A00EBD7
:102A3000400001EB800090F90210007908443168F1
:102A4000C969897E4843002800DD04447F1EE0D523
:102A50001DB1284603F0E0FA0444414620460AF03E
:102A6000A7FE034901200870BDE8FC81280300206F
:102A70000805002006E002888A4202D842888A427D
:102A800002D280680028F6D17047000030B50E4CA5
:102A900005460B4620682946C069C06900F021F848
:102AA000002810D04168008824682A1A0120E469AF
:102AB00000EBC200085CA47E6043002B03D011F839
:102AC00032106143196030BD2803002001200880C6
:102AD000704700B5C06900F004F8002800D001205C
:102AE00000BD06E002888A4202D842888A4202D2A9
:102AF00080680028F6D170472DE9F0410025154E79
:102B0000154C18E02069C5EB051700EBC7007022D3
:102B1000001D3168FDF79EFB2069002140F8371049
:102B200000EBC70000F10C018161011D0A1DC0E925
:102B30000F126D1C4164A0688542E3DB0FF09AFF21
:102B40002169C0EB001001EBC000001D3060BDE842
:102B5000F0810000280300202C05002070B50F49EB
:102B60000D480860084603F0CBFB0C4C143CA068F1
:102B7000C0EB0010C500284600F0BCF82A46002132
:102B8000206103F036FC4FF0FF30206002F010FCB3
:102B9000BDE870400FF06EBFE53801084005002029
:102BA0007CB5084EDDE906543668367CCDE9005424
:102BB000B60702D40DF022FB7CBD034C2468A0476D
:102BC0007CBD000028030020D0020020F8B50C00D6
:102BD00005460FD001F03AFA204600F017F806003B
:102BE00010D000F015F9224600902DB12946FDF7CE
:102BF00031FB04E00020F8BD002103F0FAFB684639
:102C000000F062F902F09AFB3046F8BD10B50400FE
:102C100009D001F01BFA20460AF06CFC044602F0D1
:102C20008DFB204610BD002010BD38B5054601F0D3
:102C30000DFA2846FFF7EAFF040009D000F0E8F893
:102C40002A460021009003F0D4FB684600F03CF9CE
:102C500002F074FB204638BD024A106021F00300E8
:102C60005060704738CB012010B5040016D001F039
:102C7000EDF90B48406B10F8341059B1022909D214
:102C8000042101EBC401415848680AF0D1FA2046FA
:102C900011F0FAFDBDE8104002F050BB10BD00007D
:102CA00078CA0120002805D0034AD16B016001B128
:102CB0004860D0637047000078CA012010B5044610
:102CC00001F0C4F92068FFF7CFFF00202060BDE8C5
:102CD000104002F033BB000070B50D4606460024DC
:102CE00005E000BF06EB8400FFF7E8FF641CAC4280
:102CF000F8DB70BD2DE9F041044610F0FDF82848DE
:102D0000E41C24F00305016C2D1DA94200D90D46D9
:102D1000C46B13E054F8042CAA420ED184B121688C
:102D200009B162684A60616809B122680A60C26BD1
:102D3000A24231D12168C1632EE02468002CE9D180
:102D40008046816BC0680F1857F8040C3E1A306833
:102D500038B1002011F04AFE57F8040C3E1A3068D2
:102D6000D0B97068A84217DB3044441B3046241D9C
:102D700011F0F4FDD8F80C10491BC8F80C10D8F865
:102D800014102944C8F814107068401B02D0314652
:102D90000AF04EFA44F8045C2046BDE8F0810000D9
:102DA00078CA012010B5002410F0A6F80C490F20B5
:102DB00001EBC002526C1AB101EBC000406C08E09C
:102DC000401EF5D508E04168A14200D90C46806854
:102DD00010B180680028F6D1A4F10C0010BD0000ED
:102DE00078CA0120002138B10449042202EBC00056
:102DF000496B085841680C390846704778CA012069
:102E000002488169491C81617047000078CA01202D
:102E10000549CA69521CCA61496B01EBC0010A78B5
:102E2000521C0A7000F068B878CA01207CB50646CA
:102E30000C460846FFF7EAFE050020D0FEB13046FA
:102E4000FFF7D0FFA04200DA044601F0FFF8284661
:102E5000FFF7DEFF00903046FFF7DAFF01460190F2
:102E600022460098FDF7F6F9684600F02DF801A813
:102E700000F02AF83046FFF7F7FE02F05FFA284626
:102E80007CBD000010B501F0E1F8FFF78BFF642274
:102E90000849B0F5800F04D990FBF2F4086A444366
:102EA00003E0096A4143B1FBF2F402F047FA20461D
:102EB00010BD000078CA012002488169491E816165
:102EC0007047000078CA01200A4902684B6B52F82B
:102ED000082C03EBC2021378022B03D3CB690BB18E
:102EE0005B1ECB611178491E1170002101600846FC
:102EF0007047000078CA0120002806D00349042248
:102F000002EBC000496B08580830704778CA0120AE
:102F10002DE9FC414FF000060B465FEA00083446FD
:102F20002BD032B111461846FFF750FE060000D1F3
:102F300001244046FFF76CFF00900788456868460B
:102F4000FFF7C2FFCCB9B9002846091DFFF76EFF95
:102F5000050015D0FFF75CFF019040F8276001A83D
:102F6000FFF7B2FF4046FFF753FF0090456001882E
:102F7000491C01806846FFF7A7FF2046BDE8FC8199
:102F80003046FFF771FE0124F7E70820FFF74DBE3A
:102F90007CB5050023D0FFF73BFF00904068C0B12F
:102FA000FFF736FF0024019005E0019800EB840054
:102FB000FFF784FE641C00980088A042F5DC01A89D
:102FC000FFF782FF0098001DFFF778FE00990020B0
:102FD00008806846FFF778FF2846FFF745FE7CBD6E
:102FE00038B5002430B1FFF713FF0090048868461D
:102FF000FFF76AFF204638BD38B50D46002448B1BA
:10300000FFF706FF2946009000F016F804466846D0
:10301000FFF75AFF204638BD38B50D46002448B1A9
:10302000FFF7F6FE2946009000F018F804466846BF
:10303000FFF74AFF204638BD38B50D460188002409
:10304000A94209D9406838B1FFF7E2FE009050F874
:1030500025406846FFF738FF204638BD10B50024EC
:10306000FFF7EAFF10B1FFF7D3FE0446204610BD7C
:1030700070B50C46054601F01FF8C1B2234628463C
:10308000BDE87040002200F001B80000F0B52D2727
:103090001C68B0F1004F08D0002600280DDA651C2E
:1030A0001D6027704042012408E0651C01261D6058
:1030B0006FF000402770491E01E00024091BC9B2CF
:1030C0002AB3491EC9B222E00C46491EC9B2944235
:1030D00005D1124C27781C68651C1D602770104CA8
:1030E00054F8215090FBF5F4E4B20A2C11D804FBFB
:1030F000150011B90EB1641CE4B20A2C02D10124EE
:10310000491CC9B21D686F1C30341F602C70002927
:10311000DAD1196800200870F0BD00001C030020FF
:103120009826040808B513460A46009069460248E6
:1031300000F004F808BD0000CF3100083EB5144689
:10314000029100906A46194620460AF073FE3EBD81
:1031500008B569460090024800F004F808BD000078
:10316000CF3100081FB50123039101906A461A214F
:1031700001A800F093F810B1012004B010BD009830
:1031800012300090684603F078F8F6E708B5694613
:103190000090024800F004F808BD0000CF3100089C
:1031A0001FB50123039101906A461A2101A800F07E
:1031B00075F810B1012004B010BD009816300090D1
:1031C000684603F05AF80028F5DA4042F3E7006851
:1031D00018440860104670472DE9F8431D46DDE9A4
:1031E00008461746884601236A46362100F056F8FD
:1031F00098BB684603F037F881460098103000907D
:10320000684603F03AF8C8F80000684603F035F85D
:1032100038600098801C0090684603F024F82880ED
:10322000684603F02AF8306000980C300090684639
:1032300003F023F82A884FF48071082A13D005DCA4
:103240005AB1012A0AD0042A1ED109E0102A1ED040
:10325000182A1CD0202A17D119E015E0022200E01C
:103260001022226000E02160A0B1206088420BDCC7
:10327000A9F59A41423907D1306868B101280BD0CD
:10328000022809D0032807D00120BDE8F8830020D8
:103290002060EDE72068E9E70020F6E72DE9F0413E
:1032A00017460D4604460BB100206060D4E901309A
:1032B0000A4626683946B047A84202D00120BDE838
:1032C000F0816068284460600020F8E7F8B50D469A
:1032D000074600240E4E16E000236A4604213846B5
:1032E000FFF7DCFF08B10120F8BD009802784178B3
:1032F0008378100440EA0120184303F03FFF31684F
:1033000041F82400641CAC42E6DB0020F8BD00005C
:103310007405002010B5C2B2CBB2D21A00D5524209
:1033200093B25B43C0F30722C1F30724121B00D5FD
:103330005242000C92B2A0EB114002FB023200B2EA
:10334000002801DA404200B280B200FB002010BD2C
:1033500010B50021084600F025FE43F6FF725042EA
:10336000BDE8104013460146AFF300802DE9FC4153
:103370001C4615460E46074600F068FE042004F081
:10338000FDFB80461248C068C16C006D0F440644C6
:103390000D440444ADF80070ADF80450ADF802607F
:1033A000ADF80640684609F0D7F907E023462A46FB
:1033B0003146384604F082F809F082F90028F5D148
:1033C000404604F0DBFB01F0B9FFBDE8FC810000E2
:1033D0001C030020B0F90630B0F90420B0F9021047
:1033E000B0F90000FFF7C2BF2DE9F8431C00DDE98A
:1033F000089816460F46054602D108F06BFA0446B7
:1034000000962E6843464A4621462846B047061E87
:1034100039D008F054FA8146698A304607F0F5FD44
:10342000304609F017F8484609F014F84FF0000844
:103430000CE000BFCDF8008055F81CCF00231A46E1
:1034400049462846E04700B309F004F87F1E002FE4
:10345000F0DC1D21484608F042FE601C12D000F04E
:10346000F5FD08F07BFA30B1FFF746FD8469B44200
:1034700001D02000F8D1B44202D0304608F0E4FE7A
:1034800001F05CFF3046BDE8F883304608F01EF9D5
:103490000020F8E72DE9F0411C4616460D46074688
:1034A000022B02DB0020BDE8F0811C20FFF722FC8C
:1034B0000028F8D00DB105610AE0094A52F824103D
:1034C00009B905E011460A68002AFBD109690161C2
:1034D00084618682002101604160C0E90217E2E751
:1034E0004003002070B51D46FFF7D4FF040009D04B
:1034F00000F00EF8E068006820B90348006800EBAF
:1035000085008465204670BD28030020FFF7CABBF4
:1035100070B590B38269022A30DA1E4C54F822103A
:1035200019B944F8220032E019464B68002BFBD150
:1035300006E0CB68C5681B682D68AB4203DD0968EF
:103540000029F6D11AE0C1B1CB68C6681B6836689D
:10355000B3420CD1838A012B05D008E01946DB6801
:103560001B68AB4203DB0B68002BF7D129B14B681A
:1035700033B118604A68426004E0FFE7012070BD83
:1035800044F822004860884200D1002101600020F8
:1035900070BD00004003002010B503E00468FFF791
:1035A000B7FF20460028F9D110BD00000A4A816902
:1035B00052F82130834202D1036842F82130416839
:1035C00009B102680A60016809B142684A600021D5
:1035D00001604160704700004003002000207047F8
:1035E000022801DB00207047054A52F8200004E061
:1035F000C26812688A42F6D000680028F8D1704785
:1036000040030020022801DB00207047054951F8E3
:10361000200004E0C16809680029F6D0006800288D
:10362000F8D17047400300202DE9F8431D461646A7
:10363000884604000CD0FFF7EBFB00900068076899
:103640006846FFF741FC2B46324641462046B847C4
:10365000BDE8F8832DE9F041044601F0A6FE061905
:103660001EE000BF00F086FB052F00DD052700F0FF
:10367000EDFC11480568FFF7C3FB2C0017D000BF15
:1036800001F05CFE641EFBD1384601F087FE1DB1DF
:1036900000F0DCFC6D1EFBD1FFF70EFC01F04EFECE
:1036A00001F083FE371A002FDCDCBDE8F0813846DC
:1036B00001F074FEF0E70000380500202DE9FC471A
:1036C00006005FD000F0C2FC00F006FC3C4C8146D6
:1036D0002068B0F9228000F031FC216807468A8C0E
:1036E000D01B888441E000BF47F6FF71304602F0EE
:1036F0005BFC82460146304602F02CFC2168054600
:1037000091F82C0000F00300012841D002283BD0A2
:1037100000204A8C101A4884ADF800006A1E10443C
:10372000ADF80400888CADF80200A9F1010108444D
:10373000ADF806006A465146304602F081F821682D
:10374000BDF8020088845146304601F0E5FC06448D
:1037500030780A281ED00D281CD0BDF80000216842
:1037600028444884307818B1761C30780028BBD1C2
:103770002068818C39448184818D21F00301818509
:1037800001F0DCFDBDE8FC8705EBD5704010C0E71B
:103790002846BEE7206890F82C1001F003010129AB
:1037A0000BD0022909D0018C418431780A29D9D162
:1037B000828C02EB09018184D4E7A0F82280F4E72F
:1037C0002803002070B514460D46064600F03EFC66
:1037D00005480068458484843046FFF76FFFBDE8E4
:1037E000704001F0ABBD00002803002047F6FF73D6
:1037F000AFF300802DE9FC411F4690460D460600C0
:103800004FF000041AD000F021FC65B1284608F002
:10381000C7FD040007D002462946684602F031FC85
:10382000684608F0BDFD3B4642462946304602F058
:103830005FF8204608F0B4FD01F080FDBDE8FC8192
:103840002DE9FF4F87B09046894607007DD000F0F4
:10385000FDFBD9F80040D9F8045021B228B2401A33
:10386000401C029000F038FB064618F00C0F1ED0EA
:1038700038460A9A029901F06BFD08F00C01042900
:1038800004D0082902D00C2911D104E0291400FB2E
:103890001610401C09E02114C1EB254200FB162044
:1038A000401C00EBD07001EB600060F31F44484601
:1038B00008F076FD5FEA000B09D00246494604A8ED
:1038C000CDE9044502F0DDFB04A808F069FDA6F18E
:1038D000010A38460A9A029902F05AFD03900AEB4F
:1038E000244060F31F45CDE900453846039902F0B6
:1038F00031FB18F003010ED001292CD002290ED182
:10390000B9F90420B9F90010521A101A00EBD0705E
:1039100001EB600001E0B9F80000ADF800006A4674
:103920003846039901F08CFF38460A9A029902F052
:1039300025FD074406EB244060F31F443878002837
:10394000C7D1584608F02CFD00E001E001F0F6FC7C
:103950000BB0BDE8F08FB9F80410081A401CDCE782
:103960007CB514460D46064600F070FB1148006811
:10397000C16C006D0D4404443188681E0844ADF8E4
:103980000400ADF800507188601E0844ADF80600D0
:10399000ADF80240684608F0DFFE06E02246294600
:1039A0003046FEF7E7FA08F08BFE0028F6D101F06A
:1039B000C5FC7CBD280300201CB50A4601466846AC
:1039C00002F090FC00F042FB2548BDF800100068B2
:1039D00030F84C2F1144ADF80010BDF80210828869
:1039E0001144ADF80210BDF8041002881144ADF87E
:1039F0000410BDF8061080880844ADF8060068463B
:103A000008F0AAFE27E000BFBDF900400BE000BFB0
:103A1000BDF90210204603F0EDFCBDF9061020466A
:103A200003F0E8FCA41CBDF90400A042F0DABDF9E3
:103A300002400AE0BDF90000214603F0DBFCBDF9BD
:103A40000400214603F0D6FCA41CBDF90600A042E8
:103A5000F0DA08F035FE0028D6D101F06FFC1CBD6D
:103A6000280300202DE9F04F87B09B46DDE9109830
:103A700092460C46054600F0E9FA16480168C86C03
:103A8000096D47190E1900EB0A0501EB0B04ADF89F
:103A90001070ADF81450ADF81260ADF8164004A8DF
:103AA00008F05AFE88B1DFF830B04FF0000ACDE9D7
:103AB0000098CDE902BA2B462246394630460CF032
:103AC0006BFD08F0FDFD0028F1D101F037FC07B0D7
:103AD000BDE8F08F280300205D7400082DE9F04F49
:103AE00087B09B46DDE9109892460C46054600F0EB
:103AF000ADFA16480168C86C096D47190E1900EB3C
:103B00000A0501EB0B04ADF81070ADF81450ADF8D8
:103B10001260ADF8164004A808F01EFE88B1DFF868
:103B200030B04FF0010ACDE90098CDE902BA234642
:103B30002A46314638460CF02FFD08F0C1FD00281A
:103B4000F1D101F0FBFB07B0BDE8F08F28030020A6
:103B50009D7300082DE9FC4114460D46064600F011
:103B600075FA114F3968C86C096D054404440E4458
:103B7000ADF80050ADF80440ADF80260ADF8066055
:103B8000684608F0E9FD08E0386822463146406E94
:103B900003682846984708F093FD0028F4D101F007
:103BA000CDFBBDE8FC810000280300202DE9F04199
:103BB0001C4615460E46074600F048FA0C480168B8
:103BC000C86C096D074405440E440C44002008F0FD
:103BD000C3FD07E023462A4631463846FEF718FA69
:103BE00008F06EFD0028F5D1BDE8F04101F0A6BB5C
:103BF000280300207CB50C46064600F027FA0F4D3E
:103C00002868C16C006D0E440444ADF80460ADF842
:103C10000060ADF80640ADF80240684608F09CFD33
:103C200007E028682146406E42683046904708F019
:103C300047FD0028F5D101F081FB7CBD2803002061
:103C40002DE9FC411C4616460D46074600F0FEF9DC
:103C50001A480168087ECA6C096D17440D440C446B
:103C6000401E391A1644ADF800103118ADF8041092
:103C7000291A2044ADF80600ADF80210684608F095
:103C80006BFD15E032462946384603F087FB324685
:103C90002146384603F082FB621E691C384603F059
:103CA000DDFB621E691C304603F0D8FB08F008FDFE
:103CB0000028E7D101F042FBBDE8FC812803002089
:103CC00070B58EB015460E46044600F0BFF9214689
:103CD00006A802F0E4FABDF81A30642B0CD10020DB
:103CE00000900AAB01AA214606A801F08BFD2A46E6
:103CF000314601A8FFF734FE01F020FB0EB070BD85
:103D00007CB514460D46064600F0A0F90F48006841
:103D1000C16C006D0E4405440444ADF80060ADF87C
:103D20000460ADF80250ADF80640684608F014FD96
:103D300006E022462946304603F090FB08F0C0FC1E
:103D40000028F6D101F0FAFA7CBD0000280300201B
:103D500070B50C46054600F0B2F810B10121C0E97B
:103D6000001400F073F9284608F02CFCBDE8704000
:103D700001F0E4BA10B5002400E0012400F004F8DA
:103D80000028FAD1204610BD094810B5006800246B
:103D900010B1804700B1012407F010FD00B10124EB
:103DA0000448006810B1804700B10124204610BDCE
:103DB0004C030020480300202DE9FC411C46154619
:103DC0000E46074600F042F910480068C16C006DCD
:103DD0000F4406440D440444ADF80070ADF804509F
:103DE000ADF80260ADF80640684608F0B5FC07E0A3
:103DF00023462A463146384603F060FB08F060FC53
:103E00000028F5D101F09AFABDE8FC8128030020D2
:103E1000B0F90630B0F90420B0F90210B0F9000092
:103E2000FFF7CABF034951F82000C1688A6A082118
:103E3000104700004003002010B500F007F903F020
:103E400073FB03F053FC044601F078FA204610BDE2
:103E500010B5044600F0FAF8054800210068C06972
:103E6000426820469047044601F068FA204610BD9B
:103E70002803002070B50C46054600F0E7F8064818
:103E800021460068C069426828469047044601F010
:103E900055FA204670BD000028030020002801D0FC
:103EA00007F0EABC704710B500F0D0F803F044FB0F
:103EB00003F01CFC044601F041FA204610BD1FB57A
:103EC00000210191029103912A210091694608F095
:103ED000F7F8039804B010BD10B500F0B7F8044827
:103EE0000068C069447E01F029FA204610BD000038
:103EF0002803002010B500F0A9F802F021F80446CC
:103F000001F01CFA204610BD70B50C46054600F0C5
:103F10009DF82146284602F071F8BDE8704001F096
:103F20000DBA10B5044602F05BF801462046BDE824
:103F3000104002F00FB801F038BA000010B50024AC
:103F400000F084F80B48006890F82C1001F00C0188
:103F5000042904D0082906D00C2907D103E0C06940
:103F6000047E641E02E0C069007E440801F0E6F9A8
:103F7000204610BD28030020407E7047017EC07E91
:103F800048437047024951F82000006900687047B3
:103F900040030020024951F8200000694068704742
:103FA0004003002070B50D46044600F04FF820464F
:103FB0000EF000FE044628460EF004FE044301F015
:103FC000BDF9204670BD00002DE9F0411948016897
:103FD00021F0010101601848012585601749016041
:103FE00000681749884200D0FEE701F03BFB154E00
:103FF0002E20307001F0DBF913480EF02DFF14F085
:1040000031FE074603F024FB10B103F035FB38B94D
:1040100003F03BFB044603F024FB214603F0A8FD1C
:104020000021084600F0CEFE07F0FEFD7570384610
:10403000BDE8F081002000E000300240C2A507F496
:10404000CDB5E8B51C03002098CB012070B5184C05
:10405000E06820B101F0A7F96168884204D001F05E
:10406000D1F901F0A0F96060E068401CE06001282F
:104070001CD10EF0FFFC05462068854216D00028B2
:1040800013DBFFF7ABFA01462068C0EB0012206992
:1040900000EBC2025167C5EB0511064A00EBC100F7
:1040A000011D1160406FFFF777FA256070BD0000B9
:1040B0002C0500202803002010B5011E01DD02465A
:1040C00000E04A42064B012053F82040944202D8B7
:1040D000401C0A28F8DB002900DA401C10BD000053
:1040E000982604081CB5040004D10E480068046E2C
:1040F000002C16D0FFF7AAFF2046FEF789FE00909D
:1041000044696846FEF7E0FE4CB12046FEF780FEAB
:10411000019081688968884701A8FEF7D5FE01F003
:104120000DF91CBD2803002001490A4600F002B821
:1041300001F0FFFF2DE9F04387B015460C465FEA1A
:10414000000846D0FFF782FF002000F011FE8146F4
:1041500021480068066E4046FEF75AFE009000684F
:10416000806900F083FD074640F6FF70C44204D129
:104170000098B0F90440B0F906500098611E028919
:10418000ADF804401144ADF808104189681E084498
:10419000ADF80650ADF80A0007F014F96846FEF7CE
:1041A00093FE01A808F0D8FA06E02A4621464046C8
:1041B00000F0FEFB08F084FA0028F6D1384600F043
:1041C00055FD304600F000FA484600F0D1FD01F000
:1041D000B5F807B0BDE8F0832803002038B5002407
:1041E000009400F001F838BD2DE9FE4F9846914645
:1041F0008A46834600270C9EFFF728FF1848194976
:104200000068407C51F82040E1680968042903D027
:104210002468002CF8D100E01CB9FFF7F3F9041E64
:104220001BD0E0680121C26A20469047050011D0EA
:104230002469A0688047401C02D10B4C46F001065F
:104240000096CDE9015443464A465146584600F08F
:104250004FFA074601F072F83846BDE8FE8F0000BD
:104260002803002040030020F4DA03082DE9FE4F64
:104270009846DDE90D650C9F91468A4683460024E9
:104280006DB1FFF7E3FE0097CDE9016543464A466D
:104290005146584600F02CFA044601F04FF82046EB
:1042A000BDE8FE8F38B504001CD0FFF7CFFE0E48E6
:1042B0000068006EA04201D100F0CAFC2046FEF763
:1042C000A7FD0090406908B101F021F8009800684E
:1042D000FFF71CF96846FEF7F7FD2046FEF7C4FC21
:1042E00001F02CF838BD0000280300202DE9FF4F15
:1042F00083B09A468B460746FFF7A8FEDFF8389151
:10430000D9F80000447C4D4800570128204606DDBE
:1043100003F0A4F90546204603F0B4F905E003F0E4
:104320007FF90546204603F081F904461FB302A930
:1043300001A8FFF7E9FDB7F90000002800DA002026
:10434000B7F902608046002E00DA00260198411974
:10435000B7F90400491E0EF02FFF05460298011917
:10436000B7F90600491E0EF027FFA5EB0802841BD3
:10437000521C641C03E04FF0000846462A46BAF17E
:10438000000F01D1C4F1000A002A51DD002C4FDDDD
:1043900010980090534631464046FFF725FF5FEAEC
:1043A000000A10D000F0CAF80746A04206D0D9F89B
:1043B0000000806C10B1322108F026FD504600F05C
:1043C00003F9002523E059460598884700F0B6FF19
:1043D000012007B0BDE8F08F611BB94202DA5046F8
:1043E00000F0D6F83DB172194146504600F014F97C
:1043F0005046FFF777FE59460598884710480168F0
:1044000009B1002088475046FFF78EFE3D44A54283
:10441000E2DB5046FFF746FF002000F0D5F8A74248
:1044200006D0D9F80000806C10B1332108F0ECFC04
:1044300000F084FF0020CCE7280300206003002068
:104440008005002038B505004FF0000411D0FFF7BB
:10445000FDFD2846FEF7DCFC0090006800698068DE
:10446000804703F077FD04466846FEF72DFD00F017
:1044700065FF204638BD38B504000ED0FFF7E6FDD5
:104480002046FEF7C5FC00F1180400906846FEF7D0
:104490001BFD00F053FF204638BD002038BD000052
:1044A00038B504460025FFF7D1FD1CB9084800685F
:1044B000046E44B12046FEF7ABFC0090B0F9045006
:1044C0006846FEF701FD00F039FF284638BD0000C0
:1044D0002803002038B504460025FFF7B7FD1CB9B6
:1044E00008480068046E44B12046FEF791FC009035
:1044F000B0F908506846FEF7E7FC00F01FFF2846B9
:1045000038BD00002803002038B504460025FFF719
:104510009DFD1CB908480068046E44B12046FEF7B2
:1045200077FC0090B0F906506846FEF7CDFC00F02D
:1045300005FF284638BD00002803002038B5044692
:104540000025FFF783FD1CB908480068046E44B1DC
:104550002046FEF75DFC0090B0F90A506846FEF771
:10456000B3FC00F0EBFE284638BD00002803002015
:1045700070B505460024284609F024FB641C18B1D8
:10458000BDE8704000F07AB8052CF4DB70BD000087
:1045900038B50C46050004D10A480068056E002DA8
:1045A0000FD0FFF753FD2846FEF732FC0090B0F91C
:1045B0000A10A14200DD44816846FEF785FC00F048
:1045C000BDFE38BD28030020F8B50546FFF73EFDC7
:1045D000104E3068046ECDB10CB100F039FB07F01D
:1045E0002DF82846FEF714FC009031680D6600682F
:1045F000FEF78EFF6846FEF767FC03F059FB03F0F9
:1046000091FA00BF00F09AFE2046F8BD00F020FBB2
:10461000F8E70000280300207CB515460E4604008C
:1046200004D115480068046E002C24D0FFF70EFD5D
:104630002046FEF7EDFB2DB20090C58034B2848099
:1046400003F070FA0098406980B1FEF7E1FB009A30
:104650000190B2F908108180B2F90A20C28011B12C
:104660000AB10480458001A8FEF72EFC6846FEF7DB
:104670002BFC00F063FE7CBD2803002001490A46A4
:1046800000F002B801F0FFFF7FB515460C460600AA
:104690002DD0FFF7DBFC3046FEF7BAFB40F6FF718A
:1046A0000190CC4203D1B0F90440B0F90650028920
:1046B000611E1144ADF80840ADF80C104189681E28
:1046C0000844ADF80E00ADF80A5001A8FEF7FCFB57
:1046D00002A808F041F806E02A462146304600F0DC
:1046E0004FF907F0EDFF0028F6D100F027FE7FBD5F
:1046F0002DE9FF4FDFF8E8B083B01C46DBF800106F
:10470000DDE9106092464FF000084B7C424612995A
:10471000FEF7C0FE050060D028698068804703F07E
:1047200019FC81460AFB09F1C91DCF08FEF7AAFB57
:10473000F10705D1C11700EB9170801000EB40002C
:10474000002C09DC1FB11838B0FBF7F000E00020A6
:104750006442A04200DC0446F00707D10090DDE986
:1047600003012346524600F057FD8046002C03DC2F
:104770002846FEF7CBFE30E004FB07F01830F107C7
:1047800002D0FEF743FA01E0FEF74FFA06001CD014
:10479000FEF73EFB01900560039981800499C1807A
:1047A000A0F808A04481C0F81480C0E9037901A8EA
:1047B000FEF78AFB1298AE602861DBF80000407CAF
:1047C000A861304607B0BDE8F08F2846FEF79EFE90
:1047D000B8F1000001D0FEF747FA0020F2E7000030
:1047E0002803002001490860704700008005002070
:1047F0002DE9F74F8EB0144689460E98FEF708FB58
:104800000990B0F908B0B0F90A6000680069406822
:104810000C9009A8FEF758FB564D574F2868407C6E
:1048200057F82000C1688A6A082190470790182825
:1048300001D3202007902868407C57F820000069A9
:10484000069003C80B904D48814201D0012000E042
:1048500000200A90002000F050FE00287DD128683A
:1048600009EB0B01B0F90C20891A491E002902DD61
:10487000ABEB010500E05D46B0F90810494505DDE8
:10488000A1EB090189446D1A089101E0002108910A
:10489000002D6BDDB0F90E20A119891A491E0029DF
:1048A00002DDA6EB010800E0B046B0F90A00A04224
:1048B00004DD061B3444A8EB060800E00026B8F12E
:1048C000000F53DD089801900DA95F46DDF830A078
:1048D0000E980091FFF7CFFD774300EB8701019819
:1048E0002B4601EB800200994846CDE900A1214604
:1048F00001F0AEF80090002838D00A98E8B1DDE960
:1049000006322946009800F0A7FEB0B90698009F2D
:10491000DA46D0F810C0BCF1000F05D004235A4687
:1049200039463846E04708E00B993868884701C7A0
:10493000AAF101005FEA000AF6D100990020079A67
:10494000CDE90301059001200090CDE90102214647
:104950000346641C2A46484600E007E002F01CFCBF
:10496000A8F10100761C5FEA0008ABD111B0BDE8E8
:10497000F08F000028030020400300200B77000880
:10498000F8B515460E460746FEF742FA0090006855
:104990001621C068426A0020904704466846FEF728
:1049A00093FA002C03D02A4631463846A047F8BD7A
:1049B000F8B516460F46050012D0FEF729FA00900A
:1049C00044696846FEF780FA2846FFF73BFD034638
:1049D000082800DD2CB132463946284610F0A8FCE4
:1049E000F8BD32463946284610F042FEF8BD0000B8
:1049F00002480068407C00F003B800002803002053
:104A0000F8B51D49096809B1002200E002461B49BA
:104A10008D56012D2EDD1849143151F822305B1CC2
:104A200041F82230012B25D1A1F1080300261039CD
:104A300053F8224051F8221053F822707F1C43F89B
:104A40002270AF4201D143F8226053F822708F42A6
:104A5000F2D03D46FEF7D6FD009000280AD0C0688F
:104A60002121426A68469047030003D02A46214626
:104A700000989847F8BD00006C03002060030020F8
:104A800002480068407C00F003B8000028030020C2
:104A900038B51449096809B1002200E002461249FC
:104AA000895601291CDD0F49143151F822305B1E53
:104AB00041F8223014D1083951F82240103141F820
:104AC0002240FEF79FFD0090002809D0C0682221F7
:104AD000426A68469047020002D0214600989047FB
:104AE00038BD00006C0300206003002010B50028D2
:104AF00021D009B30AB3B1F90040B2F900309C42A9
:104B000000DA23460380B1F90240B2F902309C4238
:104B100000DA23464380B1F90440B2F904309C42E4
:104B200000DD23468380B1F90610B2F906209142D8
:104B300000DC1146C18010BD11460A680260496858
:104B4000416010BD00280BD003880B44038083888C
:104B500019448180418811444180C1881144C18039
:104B60007047000070B50025FFF770FA094CD4E9D2
:104B7000002082420AD0D2E9005610460EF038F8E2
:104B800020603146284607F0B7F9012500F0D6FB32
:104B9000284670BD900300202DE9FC41154DDDE94C
:104BA00008742D68B5F90860864200DD3046B5F915
:104BB0000C60964200DA3246824219DBB5F90A608F
:104BC0008E4200DD3146B5F90E509D4200DA2B468B
:104BD0008B420DDB00E02C46E5682D6825B1042DE5
:104BE00002D02568002DF6D1CDE9007402F07EFEDA
:104BF000BDE8FC8128030020B0F90220B1F906309D
:104C00009A4213DCB1F90220B0F906309A420DDC69
:104C1000B0F90020B1F904309A4207DCB1F9001074
:104C2000B0F90400814201DC012070470020704788
:104C30000146024870220068FBF70CBB28030020E5
:104C4000024970220968FBF705BB00002803002019
:104C500010B5FFF7FBF902F015FF03F029F806F095
:104C6000B1FBBDE8104000F069BB000070B50B4D12
:104C700004462868467CFFF7E9F9022C09D2204651
:104C8000FEF7C0FC28B128684474FFF7E1FF044830
:104C9000046000F053FB304670BD00002803002084
:104CA0005C04002070B50C46054607F025F9002885
:104CB00005D121462846BDE8704000F0E1B870BD3E
:104CC0002DE9F041194E050019493068194F407C13
:104CD00051F820108C6917F8048003D00EF070F89A
:104CE00060B11FE00521FEF77BFC06001AD0002012
:104CF000FFF778FD3046FEF759FC12E030680521D9
:104D0000407CFEF76DFC60B9AFF24B00FFF76AFD27
:104D100030680849407C143151F8200008B1FEF792
:104D2000F7FB3D554046BDE8F08100002803002018
:104D3000400300201005002010B50446FFF786F957
:104D4000204602F0C5FEBDE8104000F0F7BA10B5ED
:104D50000446FFF77BF9204602F0F2FEBDE8104062
:104D600000F0ECBA01498860704700001C03002085
:104D700010B50446FFF76AF9204602F0FFFE04462C
:104D800000F0DCFA204610BD70B50446FFF75EF96E
:104D900004480068C56904B1C46100F0CFFA284630
:104DA00070BD00002803002070B50546FFF74EF9DE
:104DB00003480068847E857600F0C0FA204670BD06
:104DC0002803002070B50C460546FFF73FF9094857
:104DD000224605800848048008480068417C08484D
:104DE00050F82100C1680B6A29469847BDE8704019
:104DF00000F0A4BA680300206A0300202803002002
:104E00004003002070B50546FFF720F9034800680D
:104E1000047E057600F092FA204670BD280300203B
:104E200070B50446FFF712F904480068B0F92C5039
:104E3000848500F083FA284670BD00002803002016
:104E400070B50446FFF702F904480068B0F92A502B
:104E5000448500F073FA284670BD00002803002046
:104E600002480068002800D0004770475C05002019
:104E700002498A6802B98860FFF7F2BF90030020F8
:104E80007CB50A4C0546CDE900016068019A6E4682
:104E9000C0E9005221680DF09DFE6060E16809B133
:104EA00030468847A560FFF7DBFF7CBD90030020FC
:104EB0002DE9FC41984616460D460746FFF7C6F811
:104EC0001C20FDF7B2FE04002DD01C491A480860D2
:104ED0002046FDF79DFF009015B9FFF72CF8054619
:104EE00000980760C0E90465A0F80C806846FDF7EB
:104EF000EBFF20460EF094F8114DA86840B9012050
:104F0000A86005F10C010F480860084601F0F8F9A7
:104F10002046FDF77DFF0190296849B181602C6032
:104F200001A8FDF7D1FF00F009FA2046BDE8FC8199
:104F300000212C608160F3E7714F00084C030020D2
:104F400048050020F938010810B504000ED0FFF71D
:104F50007DF820460FF01CFD204610F01FF920467A
:104F6000FDF782FEBDE8104000F0E8B910BD00007A
:104F70002DE9F04188B00025FFF768F8184C676804
:104F800025E000BFFEF7D7FF06466068FDF740FF4B
:104F900001904169891B002915DC61680296049122
:104FA0000169039146686660D0F8008001A8FDF7AA
:104FB0008BFF02A84146884766B160680125B84268
:104FC00005D1002506E001A8FDF77EFF02E060683C
:104FD0000028D7D100F0B2F908B02846BDE8F0812A
:104FE0004805002038B50C46050011D0FFF72EF813
:104FF0002846FDF70DFF00908089204201D0012452
:1050000000E000246846FDF75FFF00F097F900E03C
:105010000124204638BD38B5040017D0FFF716F834
:105020002046FDF7F5FE0090FEF785FF014600984B
:105030008269114441616846FDF746FF204610F041
:10504000ADF820460DF0ECFF00F078F938BD38B52A
:105050000C4605000BD0FEF7F9FF2846FDF7D8FEF9
:10506000009084616846FDF72FFF00F067F938BDB6
:1050700038B50546002028600648046844B120463B
:10508000FDF7C6FE0090006928606846FDF71CFF2A
:10509000204638BD4805002038B504004FF0000018
:1050A0000D46086011D02046FDF7B2FE00908468DE
:1050B00044B16846FDF708FF2046FDF7A9FE0090C1
:1050C000006928606846FDF7FFFE204638BD0000F5
:1050D00010B5FEF7BBFF044902480860BDE8104068
:1050E00000F02CB9187703082C0300202DE9F041BB
:1050F000084E044605683068016828468847074618
:105100003068416828468847284420603846BDE812
:10511000F08100002C0300202DE9F0410C460646EA
:105120000025064F05E03868416830468847064448
:105130000544641EF7D22846BDE8F0812C03002008
:105140002DE9F0411E46069C1746884605463A461C
:10515000A8687F1C3346D0F804C041462846E04783
:10516000641EF4D1BDE8F08170B5B0F90040091BB0
:10517000B0F904408C422CDD00F11404B0F9025067
:105180000069521B02FB0040CA1800EBE104521EEA
:10519000D010B0EBE10501F007034FF0FF0102F082
:1051A000070221FA03F0C2F1070201FA02F1CEB2BE
:1051B00021780FD001436D1E04F8011B002D05DD81
:1051C000FF2229462046FBF765F82C44207830431F
:1051D000207070BD30400143217070BD10B5B0F932
:1051E0000030B0F90240C91A00F114030069121B23
:1051F00002FB003000EBE10001F0070302788021A0
:10520000D9400A43027010BDB0F90610026951433B
:105210001430FBF746B800002DE9F843804602F150
:105220000F000011470003FB07F01C461546894696
:105230001430FDF7FAFC060018D0FEF707FF3046E1
:10524000FDF7E6FD0090A0F80080A0F802908580B0
:10525000C480074981600121818107616846FDF7AB
:1052600033FE00F06BF83046BDE8F8830020FBE722
:10527000A41D040870B5B0F90660B0F904400B68CD
:1052800000F1140596421BDD0069A34202FB0050A9
:1052900000EBE30214DA641EE010A0EBE30512F861
:1052A000010B03F00704A040C4B206E045B1083387
:1052B00012F8014B23F007036D1E002CF6D004E01A
:1052C000002070BD6006040E5B1C2006FAD5FF2C82
:1052D00007D0184602E06406240E401C6606FAD485
:1052E00000E0D81DC443640705D006E012F8014B66
:1052F000FF2C09D108306D1EF8D5C01A401C0B6078
:1053000070BD6206140E401C2206FAD4F5E738B5CB
:105310000546FEF79BFE2846FDF77AFD0090818941
:10532000491E0CB284816846FDF7CEFD14B92846AB
:10533000FDF79AFC00F002F838BD00000348C16890
:10534000491EC16001D100F06DB870472C050020E6
:105350002DE9F04116460F4605460024FEF776FE7D
:1053600032463946284601F009F8054408B1641C64
:10537000F6E7FFF7E3FF2046BDE8F08110B54FF4F4
:1053800060410448FDF768FCBDE810400248FFF7A3
:10539000E9BC0000306B0020447E030816F038BAE8
:1053A0001E2016F035BA17F0DFB817F0E3B87047D3
:1053B00010B5012016F0A8FE114C2060B0B10322F8
:1053C0000021012016F0B2FE606038B100231A46B9
:1053D000194616F0C3FF606800280FD1102080F333
:1053E0001188BFF34F8FBFF36F8FFEE7102080F35C
:1053F0001188BFF34F8FBFF36F8FFEE710BD000022
:105400009800002010B5064C206808B9FFF7D0FFBF
:1054100000232068BDE810405A1E194616F0B0BEA1
:1054200098000020034800231A461946006816F029
:1054300095BF00009800002030B54FF480324FF047
:10544000FF31904201DC002801DA084630BD90426D
:1054500002D14FF4B40030BD00235924114A01E0B9
:10546000582B0AD0E11A03EB510100BF02EB810572
:105470006D68854203D20B46F2E75921F6E752F8F0
:105480002140844201D90C46EAE702EB810322461F
:105490005B689B1A001B0004B0FBF3F000EB0140BB
:1054A00030BD00002CD903082DE9F04190460C4690
:1054B000002802DA4042012700E00027002C02DA2F
:1054C0004C42012600E00026404304FB040000F0AB
:1054D000D4FF051E0FD02004B0FBF5F0FFF7ACFFA2
:1054E0000FB1C0F534000EB1C0F1B470B8F1000FC7
:1054F00001D0C8F80050BDE8F0810EB508B102AA8D
:1055000000E00022002301A9684600F0CBFC0EBD9C
:10551000074910B50C7818B101200870801E03E00F
:10552000002008706FF07F4001F020FE204610BD83
:105530006203002010B5082A0EDC0346012A18D0A9
:10554000022A56D0042A76D010F8042B03F8012B37
:10555000491EF9D1012010BD102A08DC4FEA0002D3
:1055600030F8043B22F8023B491EF9D1F2E7002053
:1055700010BD10F8042BD207120E491E34D010F8BB
:10558000044B491E04F0010442EA84122CD010F8A6
:10559000044B491E04F0010442EA441224D010F8DE
:1055A000044B491E04F0010442EA04121CD010F816
:1055B000044B491E04F0010442EAC40214D010F85E
:1055C000044B491E04F0010442EA84020CD010F896
:1055D000044B491E04F0010442EA440204D010F8CE
:1055E000044B04F00104224303F8012B0029C0D12D
:1055F000B0E710F8042B9207120E491E15D010F8D0
:10560000044B491E04F0030442EA04120DD010F8C2
:10561000044B491E04F0030442EA840205D010F84A
:10562000044B04F003042243491E03F8012B002914
:10563000DFD18FE7FFE710F8042B1207120E491E87
:1056400005D010F8044B04F00F042243491E03F860
:10565000012B0029EFD17DE738B50024009400F03C
:105660001DF838BD0B4810B58169002910D1012102
:105670008161FFF783FEFDF771FA02F02BFB05490C
:1056800005481C310860BDE81040084600F038BEEF
:1056900010BD00001C030020253801082DE9F04151
:1056A0000D460699044601B901461F68082A09DC1F
:1056B0000E46012A1AD0022A5BD0042A7DD0082A7D
:1056C00013D18DE0102A07DCD3F810C00E46BCF1D0
:1056D000000F04D0022389E00020BDE8F08101CC56
:1056E000B84726F8020B6D1EF9D189E001CCB84706
:1056F000C0074FEA10686D1E36D001CCB84748EAA3
:10570000801000F0FF086D1E2ED001CCB84748EA8B
:10571000401000F0FF086D1E26D001CCB84748EAC3
:10572000001000F0FF086D1E1ED001CCB84748EAFB
:10573000C00000F0FF086D1E16D001CCB84748EA43
:10574000800000F0FF086D1E0ED001CCB84748EA7B
:10575000400000F0FF086D1E06D001CCB84740EABB
:10576000080000F0FF086D1E06F8018B002DBDD16A
:1057700046E001CCB84780074FEA10686D1E16D08E
:1057800001CCB84748EA001000F0FF086D1E0ED0AB
:1057900001CCB84748EA800000F0FF086D1E06D033
:1057A00001CCB84740EA080000F0FF086D1E06F87B
:1057B000018B002DDDD123E0FFE701CCB8470007C6
:1057C0004FEA10686D1E06D001CCB84740EA0800C9
:1057D00000F0FF086D1E06F8018B002DEDD10FE0E3
:1057E000D3F810C0BCF1000F04D001232A46204694
:1057F000E04705E001CCB84706F8010B6D1EF9D172
:1058000001206AE730B54589039CD58005899580DC
:10581000858901EB85051035C2E90253858815801D
:10582000C58855801461002B08D0827B1A7180894D
:10583000186008B1103100E00021996030BD00000F
:105840007CB5064628480D46006868B1002006F081
:1058500083FF06E06A462946304608F091FA06F0D2
:105860002FFF0028F6D17CBD106800901F4C5068B7
:1058700001902268BDF8000032F84C1F0844ADF8D2
:105880000000BDF8020091880844ADF80200BDF8A0
:10589000040011880844ADF80400BDF806009188A2
:1058A0000844ADF80600684606F056FF0EE000BF5B
:1058B0002068BDF800106A464184BDF8021081845A
:1058C0002946304608F05CFA06F0FAFE0028EFD1CF
:1058D000206830F8221F428D891A01804188C28DCC
:1058E000891A41807CBD0000640300202803002049
:1058F0002DE9FF4F85B09A4690460D46FEF7ECFA2B
:105900004FF00009DDF814B006464C4625B1286872
:1059100000906868019002E06846FEF7BFFA18F050
:105920000C0F02D05546002713E0BDF902402DE0D0
:1059300029467F1C059800F037FB01466D1A059833
:10594000FFF7EAFB05990844059005A800F070FBF5
:1059500008B9002DECD108F00C00042804D0082868
:1059600002D00C2812D105E0BDF9060007FB160491
:10597000641C0BE0BDF90600BDF90210401A07FBDC
:105980001600401C00EBD07001EB60045546CDF8CA
:1059900014B043E02946059800F006FB074601468F
:1059A000ED1B059800F0D6FA18F003010ED001297E
:1059B00039D002290DD1BDF90410BDF90020891A92
:1059C000091A01EBD17102EB610101E0BDF9001090
:1059D0008946174A401E484412683946A2F8229068
:1059E0009484ADF80C00A019401EADF80890ADF8F5
:1059F0000E00ADF80A4002AA0598FFF721FF3946CC
:105A00000598FFF789FB059908440590FEF764FAAD
:105A1000044405A800F00CFB002801D1002DB9D1E9
:105A200009B0BDE8F08FBDF90410091A491CCFE791
:105A30002803002049B1002802DAA0EB610001E050
:105A400000EB610090FBF1F0704700207047000010
:105A50002DE9FF4F8DB00020DDF86CA016460090B8
:105A60001D4604460246CAF8000008AB03A902A876
:105A700000F018FA18B1002011B0BDE8F08F0898B6
:105A8000854200DD0546614F0B9561493868407CD1
:105A900051F82010049109690691FEF7C3F90590A9
:105AA0003868407CFEF776FA5A498146884204D02D
:105AB0005949894501D0012000E000200A9001CE1B
:105AC0001A9988478346000E079077D0009870BBDC
:105AD0000D9800EB04084D480068B0F908004045F7
