:020000040800F2
:10000000B0DC012031020008390200083B02000880
:100010003D0200083F020008410200080000000005
:10002000000000000000000000000000990100082E
:100030004502000800000000DD010008BD94000832
:100040004B0200084B0200084B0200084B0200085C
:100050004B0200084B0200084B020008291C000854
:100060004B020008411C00084B0200084B0200082C
:100070004B0200084B0200084B0200084B0200082C
:100080004B0200084B0200084B0200084B0200081C
:100090004B0200084B0200084B020008651C0008D8
:1000A0004B0200084B0200084B0200084B020008FC
:1000B0004B0200084B0200084B0200084B020008EC
:1000C0004B0200084B0200084B0200084B020008DC
:1000D0004B020008359900084B0200084B0200084B
:1000E000C91B00084B0200084B0200084B02000825
:1000F0004B0200084B0200084B0200084B020008AC
:100100004B0200084B0200084B0200084B0200089B
:100110004B0200084B0200084B0200084B0200088B
:100120004B0200084B0200084B0200084B0200087B
:100130004B0200084B0200084B0200084B0200086B
:100140004B0200084B0200084B0200084B0200085B
:100150004B0200084B0200084B02000845990008BA
:100160004B0200084B0200084B0200084B0200083B
:100170004B0200084B0200084B0200084B0200082B
:100180004B020008DFF80CD000F0E4F8004800470C
:100190004F840108B0DC0120224B19680868B0E8E0
:1001A000F00F80F30988BFF36F8F4FF0000080F3EA
:1001B00011884EF00D0E70470000000006480068E0
:1001C000006880F3088862B661B6BFF34F8FBFF353
:1001D0006F8F00DF00BF00BF08ED00E0EFF3098084
:1001E000BFF36F8F0F4B1A6820E9F00F106008B54E
:1001F0004FF0100080F31188BFF34F8FBFF36F8F64
:1002000019F0C2FF4FF0000080F31188BDE80840EC
:1002100019680868B0E8F00F80F30988BFF36F8FA2
:10022000704700BF24000020EFF3058070470000F6
:100230000648804706480047FEE7FEE7FEE7FEE780
:10024000FEE7FEE7FEE7FEE7FEE7FEE7F1940008C3
:100250008501000810B5431A934209D28318881803
:1002600003E010F8011D03F8011D521EF9D210BD64
:1002700040EA01039B0703D009E008C9121F08C028
:10028000042AFAD203E011F8013B00F8013B521EA8
:10029000F9D210BDD2B201E000F8012B491EFBD209
:1002A00070470022F6E710B513460A460446194681
:1002B000FFF7F0FF204610BD421C10F8011B00297B
:1002C000FBD1801A704730B504460020034600E099
:1002D0005B1C934203D2E05CCD5C401BF8D030BD88
:1002E000034611F8012B00F8012B002AF9D118461A
:1002F00070472DE9F05F0546002092469B468846F0
:100300000646814640241BE0284641464746224691
:1003100000F041F853465A46C01A914110D3114695
:100320001846224600F028F82D1A67EB01084F46C0
:1003300022460120002100F01FF817EB00094E4172
:10034000201EA4F10104DFDC484631462A4643461C
:10035000BDE8F09F064C074D06E0E06840F0010361
:1003600094E8070098471034AC42F6D3FFF70EFF2D
:10037000A06D0308C06D0308202A04DB203A00FAB0
:1003800002F1002070479140C2F1200320FA03F3EC
:10039000194390407047202A04DB203A21FA02F0EA
:1003A0000021704721FA02F3D040C2F120029140AF
:1003B00008431946704770B58C1810F8015B15F0AA
:1003C000070301D110F8013B2A1106D110F8012BC7
:1003D00003E010F8016B01F8016B5B1EF9D12B07EC
:1003E00005D40023521E0DD401F8013BFAE710F8A2
:1003F000013BCB1A921C03E013F8015B01F8015B8F
:10040000521EF9D5A142D8D3002070BD21B1826817
:1004100042F00102826003E0826822F00102826001
:10042000704700000021084A1168084A1140D0E9CD
:1004300000231A4383681A43C3681A431143044ACA
:10044000C2F804137047000004230140E030FCFFB1
:100450000020014021B1826842F48072826003E092
:10046000826822F480728260704721B1826842F40F
:100470000072826003E0826822F40072826070473A
:1004800030B50246002000235068104C20400D7902
:100490000C6844EA05242043506090680C4C2040CE
:1004A000D1E903542C438D682C434D7944EA45042B
:1004B00020439060D06A20F470000C7D641EE4B28A
:1004C000234340EA0350D06230BD0000FFFEFFFC32
:1004D000FDF7FFC0F0B504460D4600200021092DB0
:1004E00011DDE068A5F10A0606EB4607072606FAC5
:1004F00007F18843A5F10A0606EB460603FA06F162
:100500000843E0600CE0206905EB4507072606FA82
:1005100007F1884305EB450603FA06F1084320611D
:10052000072A0FDA606B561E06EB86071F2606FAAF
:1005300007F18843561E06EB860605FA06F10843C6
:10054000606322E00D2A0FDA206BD61F06EB8607C8
:100550001F2606FA07F18843D61F06EB860605FA22
:1005600006F10843206310E0E06AA2F10D0606EBF5
:1005700086071F2606FA07F18843A2F10D0606EB4F
:10058000860605FA06F10843E062F0BD816841F095
:10059000804181607047000038B10849096841F422
:1005A0000001074AC2F8041306E00449096821F46F
:1005B0000001034AC2F804137047000004230140FD
:1005C00000200140002800DC4042704710B50120A7
:1005D0001AF090F80149086010BD0000B00000203A
:1005E0001CB50020012103468A02CDE900101DA19F
:1005F0001F481AF0DDFA1F48022100230A02CDE944
:1006000000101DA120481AF0D3FA2048032100232E
:100610004FF48052CDE900101DA121481AF0C8FA0C
:10062000204804210023CA01CDE900101EA1214861
:100630001AF0BEFA2048052100234FF40072CDE9DC
:1006400000101EA121481AF0B3FA0020062103462B
:100650004FF40072CDE900101DA120481AF0A8FA4D
:100660001CBD0000765461736B47554900000000C3
:100670000D9D0108A0000020765461736B557365D1
:10068000724B65794946000055A20108A40000207C
:10069000765461736B4673446562756700000000B1
:1006A000DD9C0108A8000020765461736B537461CF
:1006B0007274000091A00108AC00002076546173B0
:1006C0006B41646350726F6300000000519C01082D
:1006D000765461736B54657374000000E1A50108E2
:1006E0001CB50446002000902346044A03210190D3
:1006F000034802F041FD034908601CBDCD3C0108E0
:10070000BC480308980200201CB504460020009055
:100710002346044A03210190034802F02DFD0349BA
:1007200008601CBD913D0108104903089C0200208F
:100730001CB50446002000902346044A0321019082
:10074000034802F019FD034908601CBD553E01082D
:1007500064490308A00200201CB504460020009054
:100760002346044A03210190034802F005FD034992
:1007700008601CBD65410108C04A0308B0020020A2
:100780001CB50446002000902346044A0321019032
:10079000034802F0F1FC034908601CBD193F010841
:1007A000B8490308A40200201CB5044600200090AC
:1007B0002346044A03210190034802F0DDFC03496B
:1007C00008601CBDDD3F01080C4A0308A802002098
:1007D0001CB50446002000902346044A03210190E2
:1007E000034802F0C9FC034908601CBDA140010890
:1007F000604A0308AC02002038B54568044601464B
:10080000284609F0B2FB00282BD02068304A112876
:100810000DD006DC0B2825D00E2833D00F2852D15E
:1008200012E0282849D0B0F5107F4CD108E092683A
:10083000002A16D02146284601B0BDE830401047B6
:10084000214628465268F7E7284602F06DFA0090E4
:10085000406E0468684602F0C3FA002C01D02846B6
:10086000A04738BD284602F05FFA0090683002F0D9
:10087000B1F9009803216C3002F0BAF9684602F031
:10088000AFFA20E0E168486809680D2902D0202904
:1008900013D105E0002810DD284611F013F906E019
:1008A000002804DD2846BDE8384011F00BB9284681
:1008B000BDE83840022111F01BB9E06818B90021E9
:1008C000284600F083F92046BDE8384009F0C4BD51
:1008D000B0030020F0B5044685B08069B4F9085033
:1008E000668A0027CDE90265CDE900170490B4F9C6
:1008F0000C00B4F91060C118B4F90A00B4F90E5034
:10090000104433462A4600F007F80546616800F0B7
:1009100066F905B02846F0BD2DE9F04F85B01F46B9
:10092000DDE911B4DDE90E5690468946824603F0B2
:1009300085F916484C34CDE90204CDE900563B4612
:1009400042464946504609F0CFFC040018D002F058
:10095000EBF910225946049009F028FC0498302243
:100960000B493430FFF776FC094D04990C3D28689B
:10097000486604A802F034FA28684168204688478F
:1009800004F0B8FA05B02046BDE8F08FF90700087A
:10099000BC030020F0B5044680688B4989B051F84B
:1009A0002050606800287DD0052804D006287AD021
:1009B000122879D1AEE0E86900284FD095E80E0002
:1009C0008DE80F0004F110010FC904F025FF002687
:1009D00055F8260003F097FFA169E8690A1A216912
:1009E00001446069304402F0E5FEA169E8690A1A31
:1009F00021690144E069801B02F0DCFEE169E869DD
:100A00000A1A616901442069304402F0A9FFE169D2
:100A1000E8690A1A61690144A069801B02F0A0FF1D
:100A2000761C022ED4DBA86803F06DFFE069E9694B
:100A30006669431A206942183144801C521E02F034
:100A4000EBFFE169E869A2690B1A61690144101AB8
:100A5000401C921E02F0E0FFEE6913E05FF000061A
:100A600055F8260003F04FFFE069831BA069821B45
:100A7000606981192069304402F012FF761C022E51
:100A8000EEDB0226D5E90301CDE900016169E069E9
:100A900008444310A069891C821B2069304402F07D
:100AA0004DFE02E089E012E08AE0D5E90501CDE9DA
:100AB0000001E36960690121184401EB6001A0694C
:100AC0009B1E821B2069304402F038FE78E02068CB
:100AD00002F02AF9049020680AF0EAFD40B1A0680B
:100AE00008B1002008E00498006F28B1012003E05D
:100AF0000498406F00B10220049901EB8000C56E9C
:100B000004A802F06DF900231A462846216802F075
:100B100053FC55E0206802F007F90490866EEEB3AE
:100B2000B0F95C70A168D1B3032942D05FF0000135
:100B300000EB8101406D0C6C03F002FF204603F0D6
:100B4000E2FE05A802F0DAFFBDF81410A88B0144FC
:100B5000ADF81410BDF81810081AADF81800BDF85B
:100B60001600801CADF81600BDF81A00801EADF806
:100B70001A000498B0F96020B0F95E1005A803F0DF
:100B8000BDFD04A802F02CF9022003F035FF304629
:100B900002F0CAF83A4605A9079001E00BE006E02A
:100BA00002F054FC0DF11C0002F01AF908E00121DA
:100BB000BEE70221BCE704A8F6E720680AF042FA83
:100BC00009B00020F0BD00003C6103084FF48072C2
:100BD0000029114601D009F05CBA09F0ADB92DE940
:100BE000FF410E4605004FF0010421D003F026F826
:100BF000284602F099F80190876E01A8009702F04C
:100C0000EFF83146684605F067F978B1009800249E
:100C1000B84208D0284602F087F801900099816612
:100C200001A802F0DDF8284609F08EFF04F062F911
:100C300004B02046BDE8F081F0B505460E4600241C
:100C4000AF1905E015F8011BA0B209F06DF80446D4
:100C5000BD42F7D3A0B2002109F066F80446204651
:100C6000002109F061F804462046F0BD014609B9AB
:100C70000B487047012901D10020FAE7022901D170
:100C80000020F6E7032901D10020F2E7042901D171
:100C90000020EEE7052901D10248EAE70020E8E755
:100CA000E43901200C42012008B525208DF8000010
:100CB0000D208DF8010000208DF8020001208DF834
:100CC0000300684606F0EEFE47208DF80000052080
:100CD0008DF8020001208DF80300684606F0E2FE60
:100CE00008BD000010B5ADF5825D002101A806F039
:100CF000ABFE29A015F03BFE04461CB928A012F05B
:100D0000C9FD11E0082C06D12A4850F824102AA069
:100D100012F0C0FD08E0274850F824102CA012F073
:100D2000B9FD0DF5825D10BD30A015F020FE044622
:100D30001CB930A012F0AEFD0FE0082C06D11D4802
:100D400050F8241030A012F0A5FD06E0194850F824
:100D5000241033A012F09EFDE3E738A015F007FE43
:100D600004461CB939A012F095FD0FE0082C06D1FD
:100D7000104850F824103BA012F08CFD06E00D48FE
:100D800050F824103EA012F085FDCAE70021084665
:100D900006F05AFE00BFC4E72F446972310000001C
:100DA000665F6D6B6469722044697231204F6B0D10
:100DB0000A000000B80000204469723120C4BFC29C
:100DC000BCD2D1BEADB4E6D4DA282573290D0A0011
:100DD000665F6D6B646972204469723120CAA7B086
:100DE000DC20282573290D0A000000002F446972B9
:100DF00032000000665F6D6B646972204469723274
:100E0000204F6B0D0A0000004469723220C4BFC23B
:100E1000BCD2D1BEADB4E6D4DA282573290D0A00C0
:100E2000665F6D6B646972204469723220CAA7B034
:100E3000DC20282573290D0A000000002F44697268
:100E4000312F446972315F3100000000665F6D6BC5
:100E500064697220446972315F3120B3C9B9A60D4B
:100E60000A000000446972315F3120C4BFC2BCD2A5
:100E7000D1BEADB4E6D4DA20282573290D0A0000CE
:100E8000665F6D6B64697220446972315F3120CA9C
:100E9000A7B0DC20282573290D0A000010B5ADF598
:100EA000035D002141F28400684406F0CDFD16A1E7
:100EB0000AA816F0B3FA044644B1144850F82410B6
:100EC00013A012F0E7FC0DF5035D10BD0A2216A178
:100ED00016A816F0A1F9044609AB222215A116A8FE
:100EE00016F0F4FC04461CB91CA012F0D3FC02E07E
:100EF00021A012F0CFFC16A815F03DFB00210846FA
:100F000006F0A2FD00BFDEE7303A2F00B800002057
:100F1000B4F2BFAAB8F9C4BFC2BCCAA7B0DC2028CB
:100F20002573290D0A00000061726D666C792E74BC
:100F300078740000466174465320577269746520C6
:100F400044656D6F200D0A207777772E61726D668C
:100F50006C792E636F6D200D0A00000061726D6662
:100F60006C792E74787420CEC4BCFED0B4C8EBB3B8
:100F7000C9B9A60D0A00000061726D666C792E7405
:100F8000787420CEC4BCFED0B4C8EBCAA7B0DC0DC8
:100F90000A00000021B1026842F00102026003E091
:100FA000026822F0010202607047000010B50022C2
:100FB0000268134B1A40CC680B6823434C692343E7
:100FC0008C692343CC6923430C6A23434C6A234333
:100FD0008C6A23434C6B23438C6B23431A4302607C
:100FE000426922F00702D1E90B3423431A434261DC
:100FF0000B6943604B6883608B68C36010BD000061
:101000003F801CF070B5ADF5845D002111A806F09D
:101010001BFD4CA016F0F9FB04461CB94BA012F0C6
:1010200039FC0CE0042C04D146A14DA012F032FC96
:1010300005E0524850F8241051A012F02BFC5DA09E
:1010400016F0E3FB04461CB95EA012F023FC0EE090
:10105000042C01D0052C04D156A141A012F01AFC99
:1010600005E0464850F824105EA012F013FC35A0AD
:1010700016F0CBFB04461CB934A012F00BFC0CE0BC
:10108000042C04D12FA136A012F004FC05E03B484B
:1010900050F824103AA012F0FDFB62A016F0B5FB48
:1010A00004461CB961A012F0F5FB0CE0042C04D13D
:1010B0005CA12BA012F0EEFB05E0304850F82410A4
:1010C00060A012F0E7FB6CA016F09FFB04461CB971
:1010D0006CA012F0DFFB0CE0042C04D166A120A070
:1010E00012F0D8FB05E0254850F824106CA012F04F
:1010F000D1FB00251CE02A4677A10DA812F0DAFBEF
:101100000DA816F082FB044624B90DA976A012F0B2
:10111000C1FB0BE0042C04D10DA978A012F0BAFB9E
:1011200004E022460DA97AA012F0B4FB681CC5B2F7
:10113000142DE0DB0021084606F086FC0DF5845DE9
:1011400070BD00002F44697231000000C9BEB3FDBC
:10115000C4BFC2BC44697231B3C9B9A60D0A00004C
:10116000C3BBD3D0B7A2CFD6CEC4BCFEBBF2C4BFE4
:10117000C2BC203A25730D0A00000000B800002010
:10118000C9BEB3FD44697231CAA7B0DC28B4EDCE44
:10119000F3B4FAC2EB203D2025732920CEC4BCFE57
:1011A000D6BBB6C1BBF2C4BFC2BCB7C7BFD50D0A60
:1011B000000000002F446972312F446972315F31A1
:1011C00000000000C9BEB3FDD7D3C4BFC2BC2F44CA
:1011D0006972312F446972315F31B3C9B9A60D0A02
:1011E00000000000C9BEB3FDD7D3C4BFC2BC2F44AA
:1011F0006972312F446972315F31CAA7B0DC28B4FB
:10120000EDCEF3B4FAC2EB203D2025732920CEC4E5
:10121000BCFED6BBB6C1BBF2C4BFC2BCB7C7BFD54C
:101220000D0A00002F44697232000000C9BEB3FDF0
:10123000C4BFC2BC204469723220B3C9B9A60D0A2A
:1012400000000000C9BEB3FD4469723220CAA7B0D5
:10125000DC28B4EDCEF3B4FAC2EB203D202573298F
:1012600020CEC4BCFED6BBB6C1BBF2C4BFC2BCB7A5
:10127000C7BFD50D0A00000061726D666C792E74CF
:1012800078740000C9BEB3FDCEC4BCFE2061726D8F
:10129000666C792E74787420B3C9B9A60D0A000063
:1012A000C9BEB3FD61726D666C792E747874CAA77D
:1012B000B0DC28B4EDCEF3B4FAC2EB203D202573A8
:1012C0002920CEC4BCFED6BBB6C1BBF2C4BFC2BCD3
:1012D000B7C7BFD50D0A000053706565642530326D
:1012E000642E747874000000C9BEB3FDCEC4BCFE89
:1012F0002573B3C9B9A60D0A00000000C3BBD3D043
:10130000B7A2CFD6CEC4BCFE3A25730D0A000000AA
:10131000C9BEB3FD2573CEC4BCFECAA7B0DC28B4D9
:10132000EDCEF3B4FAC2EB203D2025642920CEC4D3
:10133000BCFED6BBB6C1BBF2C4BFC2BCB7C7BFD52B
:101340000D0A000008B500BF00F0F2F86DE013F0E0
:10135000B5FB642018F094FC6946002014F036FBBD
:10136000002862D031A012F095FA9DF800003428D0
:1013700032D00CDC312818D004DC0D2850D03028B5
:1013800051D10CE0322816D033284CD11EE035382C
:10139000052848D2DFE800F0262C32383E0024A091
:1013A00012F078FA00F0E2FC3EE027A012F072FAA8
:1013B00008F038FD38E02AA012F06CFAFFF76EFD55
:1013C0002DA012F067FA06F03BFF2DE030A012F0DE
:1013D00061FAFFF787FC27E032A012F05BFAFFF713
:1013E00011FE21E035A012F055FA0AF0CDFB1BE00A
:1013F00037A012F04FFA04F08FFE15E039A012F07A
:1014000049FA00F08BF90FE03CA012F043FA08F023
:10141000D7FC09E03FA012F03DFA08F09FFC03E082
:1014200000F086F800E000BF00BF90E70D0A000062
:10143000A1BE30202D2046696C65466F726D6174C7
:10144000A1BF0D0A00000000A1BE31202D20566969
:101450006577526F6F74446972A1BF0D0A00000076
:10146000A1BE32202D204372656174654E657746BA
:10147000696C65A1BF0D0A00A1BE32202D20526506
:10148000616446696C6544617461A1BF0D0A000026
:10149000A1BE33202D20437265617465446972A139
:1014A000BF0D0A00A1BE34202D2044656C65746513
:1014B00044697246696C65A1BF0D0A00A1BE352062
:1014C0002D20546573745370656564A1BF0D0A00C7
:1014D000A1BE36202D204469736B496E666FA1BF93
:1014E0000D0A0000A1BE37202D20446F776E6C6F6F
:1014F00061642046696C65A1BF0D0A00A1BE382059
:101500002D2055706F61642046696C65A1BF0D0A7E
:1015100000000000A1BE39202D2055706461746563
:10152000204669726D77617265A1BF0D0A000000E7
:1015300010B514A012F0AEF920A012F0ABF92AA059
:1015400012F0A8F92DA012F0A5F935A012F0A2F919
:101550003BA012F09FF944A012F09CF946A012F0B3
:1015600099F94BA012F096F94FA012F093F953A0FD
:1015700012F090F959A012F08DF960A012F08AF9DA
:1015800010BD00000D0A2D2D2D2D2D2D2D2D2D2DB5
:101590002D2D2D2D2D2D2D2D2D2D2D2D2D2D2D2D7B
:1015A0002D2D2D2D2D2D2D2D2D2D2D2D2D2D2D2D6B
:1015B0002D2D2D2D2D2D0D0A00000000B5DAD2BBEA
:1015C000B4CECAB9D3C3C7EBD1A1D4F1C3FCC1EE29
:1015D00030BDF8D0D053504920466C617368B8F1E3
:1015E000CABDBBAF0D0A0000C7EBD1A1D4F1B2D97F
:1015F000D7F7C3FCC1EE3A0D0A00000030202D20C1
:10160000B6D45350495F466C617368BDF8D0D0CEF4
:10161000C4BCFECFB5CDB3B8F1CABDBBAF0D0A0097
:1016200031202D20CFD4CABEB8F9C4BFC2BCCFC2AE
:10163000B5C4CEC4BCFEC1D0B1ED0D0A000000009F
:1016400032202D20B4B4BDA861726D666C792E7401
:1016500078742CB2A2B6C1B3F6CEC4BCFEB5C4C475
:10166000DAC8DD0D0A00000033202D20B4B4BDA877
:10167000C4BFC2BC0D0A000034202D20C9BEB3FD7A
:10168000CEC4BCFEBACDC4BFC2BC0D0A000000006F
:1016900035202D20B6C1D0B4CEC4BCFECBD9B6C83F
:1016A000B2E2CAD40D0A000036202D20BBF1C8A139
:1016B000B4C5C5CCD0C5CFA20D0A000037202D205F
:1016C000CAB9D3C3596D6F64656DD0ADD2E9CFC2CD
:1016D000D4D8CEC4BCFE0D0A0000000038202D2056
:1016E000CAB9D3C3596D6F64656DD0ADD2E9C9CFA6
:1016F000B4ABCEC4BCFE0D0A0000000039202D2082
:10170000C9FDBCB64669726D77617265B5BDD6B864
:10171000B6A8B5C4B5D8D6B70D0A00002DE9F05F5C
:10172000ADF5165D00240026A246A1460021CDF8A5
:10173000E014002500278B4680210DF58C60FEF714
:10174000B0FD0021CDF85C14CDF858142022EB49EF
:101750000DF58760FEF77EFD4FF481610CA8FEF762
:10176000A0FD002141F24450684406F06DF90DF5EA
:1017700087610DF59D6015F051FE8046B8F1000FB0
:1017800009D0DF4850F82810DEA012F083F80DF5DC
:10179000165DBDE8F09F9FE1322013F021F8DDF8DF
:1017A000580400B199E1BAF1000F06D0BAF1010F67
:1017B00078D0BAF1020F74D115E14321584607F0F1
:1017C00033FD4FF480120DF59C61584606F0BCFDC8
:1017D000002864D19DF8E004012860D102050DF5D0
:1017E0009C61584606F0B0FD9DF8E00418B1032056
:1017F000CDF8580470E14FF480120DF59C61584605
:1018000006F0A2FD9DF8E004FF2803D00320CDF8E8
:10181000580461E1002408E00CA801194FF480127B
:10182000584606F091FD601C84B2802CF4DB4FF426
:1018300080120DF59C61584606F086FD4FF480122B
:101840000DF59C61584606F07FFD0621584607F0CD
:10185000EBFC4FF0010A002406E00CA8005D0DF53A
:101860008C610855601C84B2802C03DA0CA8005DE2
:101870000028F2D10CA92144481C0DF25C4107F06C
:101880009BFD0B220DF58C610DF5A36015F0C4FCDA
:1018900080464FF001094321584607F0C5FC19E185
:1018A00000E013E14FF480120DF59C61584606F0FC
:1018B0004BFD9DF8E00418281AD006DC012810D052
:1018C000022810D0042826D104E041280ED0612837
:1018D00021D10CE04FF0020A0621584607F0A4FC83
:1018E000FAE080271EE04FF480671BE000BF00BFD6
:1018F0001821584607F098FC1821584607F094FC28
:101900000DF58C6015F081FF84A011F0C3FF02215A
:10191000CDF85814E0E04A469DF8E01487A011F095
:10192000B9FFD9E000BF4FF480120DF59C61584615
:1019300006F00AFD4FF480120DF59C61584606F042
:1019400003FD002408E00CA801194FF4801258464A
:1019500006F0FAFC601C84B2BC42F4DB4FF4801247
:101960000DF59C61584606F0EFFC9DF8E0542D0201
:101970004FF480120DF59C61584606F0E5FC9DF889
:10198000E004054339460CA8FFF756F9A8420CD0ED
:10199000701CC6B239460CA8FFF74EF93B4602460A
:1019A00029460B906EA011F075FF8EB90DF2E4433D
:1019B0003A460CA90DF5A36015F088FF804609F1A1
:1019C00001001FFA80F90621584607F02DFC09E0B6
:1019D0001521584607F028FC31466AA011F05AFF3D
:1019E000701EC6B276E04321584607F01DFC4FF446
:1019F00080120DF59C61584606F0A6FC9DF8E004A7
:101A000001285FD102050DF59C61584606F09CFC4B
:101A10009DF8E00418B10320CDF858045CE04FF4C1
:101A200080120DF59C61584606F08EFC9DF8E0048E
:101A3000FF2803D00320CDF858044DE0002408E02F
:101A40000CA801194FF48012584606F07DFC601C6A
:101A500084B2802CF4DB4FF480120DF59C61584663
:101A600006F072FC9DF8E0542D024FF480120DF543
:101A70009C61584606F068FC9DF8E004054380210F
:101A80000CA8FFF7D9F8A84201D0701CC6B2AEB9B5
:101A90000DF5A360DDF85C1414F0FCFD0DF5A360FA
:101AA00015F05AFE0DF5A36014F065FD06215846A9
:101AB00007F0BAFB0421CDF858140DE01521584663
:101AC00007F0B2FB0420CDF8580403E00120CDF864
:101AD000580400BF00BF00BF5EE600BF2CA011F09D
:101AE000D9FE0DF58C6131A0DDF85C2411F0D2FE39
:101AF0000021084605F0A8FF00BF48E6F4B201083F
:101B0000B8000020B4F2BFAAB8F9C4BFC2BCCAA7CB
:101B1000B0DC20282573290D0A000000557365727A
:101B20002063616E63656C207472616E73666572AA
:101B30002064617461200D0A00000000556E6B6E18
:101B40006F77205374617274436F64653A20256423
:101B5000207061636B5365713A2025640D0A0000A3
:101B600043726356616C75653A2025642043524385
:101B70003A2564207061636B73697A653A20256445
:101B80000D0A0000457272282564290D0A00000024
:101B90000D0A446F776E6C6F61642066696C652016
:101BA0005375636365737321200D0A0046696C6584
:101BB0004E616D653A2025732046696C6553697ADC
:101BC000653A2564200D0A0010B54FF4006000F05E
:101BD0006FF840B11348006820F4006011490860B4
:101BE000C81400F05FF84FF4005000F061F840B105
:101BF0000C48006820F400500A490860481400F0BE
:101C000051F84FF4004000F053F848B1054800681F
:101C100020F40040034908604FF4004000F042F80F
:101C200010BD0000003C014010B5022000F040F85B
:101C300020B113F08BFC022000F034F810BD00003E
:101C400010B5082000F034F840B10548006820F0D5
:101C5000080003490860082000F024F810BD0000C7
:101C6000003C014010B5802000F022F840B10C4843
:101C7000006820F080000A490860802000F012F817
:101C80004FF4807000F014F840B10548006820F46B
:101C9000807003490860881500F004F810BD00004A
:101CA000003C01400149086070470000143C0140BD
:101CB000014600200022074B1B6803EA0102054B86
:101CC00014331B680B4013B10AB1012000E000205F
:101CD00070470000003C0140002123498279002A1E
:101CE0003AD00A46126803689A430B461A600A1DE6
:101CF000126803689A430B1D1A60027911440A683E
:101D000003681A430A60184A0832126803689A4343
:101D1000154B08331A601A1D126803689A43124B58
:101D20000C331A604279102A0ED11A1F1268036808
:101D30001A430D4B08331A601A1D126803681A43C0
:101D4000094B0C331A600DE00749427911440A68C7
:101D500003681A430A6005E0027911440A680368BF
:101D60009A430A6070470000003C014010B5ADF591
:101D7000015D002141F20400684405F065FE4FF466
:101D8000805001AB0022072100900CA014F0A8FEA7
:101D9000044634B10A4850F824100AA011F07AFD24
:101DA00005E0074850F824100BA011F073FD002146
:101DB000084605F049FE0DF5015D10BD303A000002
:101DC000B8000020B8F1CABDBBAFCAA7B0DC20285C
:101DD0002573290D0A000000B8F1CABDBBAFB3C915
:101DE000B9A620282573290D0A0000002DE9F84323
:101DF00006464FEA2628F5B27F2D09DAA8F18100C0
:101E0000C0EB401101EB801005EB4000403884B27C
:101E1000802D09DDA8F18100C0EB401101EB80109D
:101E200005EB4000413884B24FF6FF7000EA4404ED
:101E3000044821180222684617F0D6FA6F463888FF
:101E4000BDE8F88300F0FD012DE9F0430446C568C4
:101E500087B090468946002002F066FD064625B10F
:101E6000287910B146F0020001E026F0020002F0ED
:101E70005BFD2069012558B1D4E902128DE82600E6
:101E8000039563882288046841464846A0471EE0BF
:101E9000124F134B214638681B68427CE068984714
:101EA00030B9E088012801D0002001E03868806B5B
:101EB000A288E388A1680095CDE90410CDE902323B
:101EC0000195638822884146484604F0FFFD07B02B
:101ED0003046BDE8F04302F027BD000010030020AB
:101EE000080300201CB50024019401AC009400F00C
:101EF000E7F81CBD2DE9FF4F83B0814606988A465E
:101F0000A0EB0A08109E00200090A2EB090435689F
:101F1000934654EA080018D02046FEF753FB0746C4
:101F20004046FEF74FFB87420BDA20464446804688
:101F30004846D14682465846DDF818B00690012042
:101F40000090002C07DD204606E007B04846BDE8BB
:101F5000F04F00F03BB96042A0420AD04846D94653
:101F60006442C8F1000883464FF0FF37DDF818A03F
:101F700000E001275148B8F1000F11D004EBD471F3
:101F80004FEA610B01DACBF1000B4C480068807E10
:101F900088B3002F02DA30682044306000257BE0EF
:101FA00000990029016821D0897E11B1002780465F
:101FB00015E007B05A4649465046BDE8F04F04F0D8
:101FC000E7BE28466D1C10F0B3FD38B9D8F8000004
:101FD00009EB0701406E4268504690477F1CA742BC
:101FE000EFDD6D1E356007B0BDE8F08F8A7E1AB157
:101FF0000027804617E019E0486E5A4651460368AC
:1020000007B04846BDE8F04F184728466D1C10F051
:102010008FFD38B9D8F8001009EB0700496E4A68FF
:10202000514690477F1CA742EFDDDAE700250FE01D
:1020300008FB05B090FBF4F101EB0A00009951B1E7
:102040001E4A09EB05011268526E526890476D1CDA
:10205000A542EDDDC7E7194909EB05030968496E9B
:102060004A6801461846F1E708FB05B090FBF4F119
:1020700001EB0A00019030683844306010F058FDE0
:1020800048B9009890B10D4809EB05010068406E11
:102090004268019890476D1CA542E5DD3068002F2D
:1020A00001DA20443060C01B30609CE7034909EB33
:1020B00005000968496E4A680199EBE710030020A2
:1020C0002DE9FF470F4640491646804609680C989F
:1020D0001D460A7E012A1CD0A8EB0600791B50EA97
:1020E00001031CD0A2F1010911F008FC00F5806089
:1020F000824603F0E0FF00FB09F4504603F0E0FFE6
:1021000000FB09F1002C0CDAC4F50070801240428B
:102110000AE00090324639464046FFF7EBFEBDE844
:10212000FF8704F50074A012002904DAC1F50071DC
:1021300089124C4202E001F500718C12002804DD86
:10214000411C01EBD171491003E000EBD071491043
:10215000401E00EBD0704210002C04DD601C00EB30
:10216000D070401003E004EBD4704010641E04EB08
:10217000D47308EB0104ADF800403C18ADF8024000
:10218000A8EB02045B10B21AADF80440ADF80820C9
:102190003144FC1AEA1AADF80C102844ADF80A20B4
:1021A000ADF80E000023ADF806401A46042168463B
:1021B00000F07AF8394640460DF010F829463046CE
:1021C0000DF00CF8ABE7000010030020064A13687E
:1021D0001A7E012A05D0521E02EBD272521000F074
:1021E00005B85A6E52681047100300202DE9F05FC1
:1021F0000646884640F2C32002FB00F14FF47A7095
:1022000091FBF0F702FB02F102EBD27001EB600BE5
:102210001446B118234A301B7F1C1268526E136893
:102220000A4641469847012538E000BF05FB05F006
:1022300004FB040159451CDDBC4219DD194B06EBBA
:10224000050AA6EB05091B68AAF1010208EB0401C7
:102250005B6E09F101001B689847124BAAF101025D
:10226000A8EB04011B6809F101005B6E1B6898472D
:10227000641E0C4B3219301B1B68924608EB05019B
:102280005B6E81461B689847064B5246A8EB0501DA
:102290001B6848465B6E1B6898476D1CBD42C5DDD8
:1022A000BDE8F09F100300202DE9FF4F43F6FF74B7
:1022B0000F46664283B09B46814600210BE000BF7B
:1022C00009EB8100B0F90200A04200DA0446B042F6
:1022D00000DD0646491CB942F2DB674800684069E8
:1022E00000280DD0B0F906101A46A1EB0B01B1423F
:1022F00000DA0E46B0F90200801AA04200DD044662
:10230000B4E0DFF878A100200546CAF8000088E0B4
:10231000781E854201DA6B1C00E0002309EB850C76
:1023200009EB8302BCF90200B2F90210A04244D1C9
:10233000A14215D139F92330059A39F9251003EB5B
:10234000020C4D4A05981268084404EB0B01526ECA
:102350006045136801DA62462AE00246604627E0DB
:102360002846A4464FF000087A1E0BE008B1401E34
:1023700000E0781E09EB8003B3F90230634504D115
:1023800008F101089045F1DB2346A34248D01A1B0F
:1023900039F92500A1EB040C059B92EA0C0F09D436
:1023A000354A184404EB0B011268526E136802465A
:1023B000984735E009F064FD32E0A14230D001DBFE
:1023C000A04203DDA0422BDBA14229DCE04688428B
:1023D0000ADC0346A04223DC0846A14220DBB8F910
:1023E00000C0B2F9001008E00B46A14218DCA04280
:1023F00016DBB2F900C0B8F90010E21AA1EB0C012B
:1024000051430029A0EB030202DD01EB620102E06F
:10241000A1EB6201491CC01A91FBF0F06044C9E7CE
:102420006D1CBD42FFF674AF0598009004EB0B00E5
:10243000019000208046054613E01149B8F1000FD5
:1024400031F915A009D0009901EB0A0208440A49A4
:102450000968496E0B680199984788F00108504651
:102460006D1C064909688D42E7DB641CB4427FF7A6
:1024700048AF07B0BDE8F08F10030020B006002081
:1024800098CC012010B5002002F032FA6FF07F40A6
:1024900002F039FA012002F091FA002002F09CFAD1
:1024A000002002F0A9FA002002F03EFA0448006879
:1024B00002F046FABDE81040002002F051BA0000D8
:1024C0000C030020F0B50A4600210023002400BFC1
:1024D0003DE0012505FA01F3156805EA03049C4275
:1024E00034D105684F000326BE40B5430560157919
:1024F0004E00B5400668354305601579012D02D0C0
:102500001579022D16D185684F000326BE40B543CC
:10251000856055794E00B5408668354385604568CD
:1025200001268E40B5434560456896798E40B6B227
:1025300035434560C5684F000326BE40B543C560BE
:10254000D5794E00B540C6683543C560491C102991
:10255000BFD3F0BDF0B5002300244D07ED0E02FA05
:1025600005F3CE1000F1200555F826504E07F70E62
:102570000F26BE40B543CF1000F1200646F8275085
:10258000CE1000F1200555F8265045EA0304CE1080
:1025900000F1200545F82640F0BD0146086980B2EB
:1025A00070470246002013690B400BB1012000E088
:1025B0000020704741837047018370474161704735
:1025C0000AB1018300E04183704700002DE9F04F1C
:1025D000DFF828B191B04FF0FF35DBF80030B3F9E8
:1025E00022100691DE69B3F924A0F469A189814221
:1025F00006D8E289824203D3471AD4F8008012E059
:10260000D4E90181002970D00A8882426DD84D88B2
:1026100085426AD3801A82B2486800EB8200B0F922
:102620000070B0F90250781C5FD0307EA27C014669
:1026300000FB02F9207CCDE90710B3F92A6030468F
:1026400004F05EFFC0B20E90DBF8001007FB0980BB
:10265000A37C8A6B0127CDE90402CDE90273C86926
:10266000089AC17E807ECDE90001DDE9060351466E
:1026700004F02CFA681C18D046F0020004F040FF69
:10268000DBF80000A37C05FB0981826BCDE90273B6
:10269000CDE90412C069089AC17E807ECDE90001AF
:1026A000DDE90603514604F011FADBF800005D464F
:1026B000C069417E007E814214D9022E12D086F07C
:1026C000040004F01DFF2868C069027EC37E857E79
:1026D00002FB03A1437E089A0698534402FB0502BD
:1026E00004F0AAFB0E9804F00BFFDBF80000627CFC
:1026F000418C1144418411B0BDE8F08F10030020DB
:1027000004480068C069C06909B1027C0A60407C65
:102710007047000010030020022008807047C06945
:1027200082898A4202D8C2898A4210D2806880B1E6
:1027300002888A420DD843888B420AD3406800EB56
:102740008100A0EB8200B0F90000002801DB01202D
:102750007047002070470000F0B5254C054687B053
:1027600020682946B0F92A60C069C06900F045F9BF
:1027700000283AD041680088281A01EBC00530468D
:10278000AF7804F0BDFE06461A48D0F800C0BCF190
:10279000000F15D000216868CDE904010422012052
:1027A00001A9009081E885002068DCF800702A7893
:1027B000C1690B7EB0F92410B0F92200B8470CE0D3
:1027C0006868CDE9007020682A78C1690B7EB0F98D
:1027D0002410B0F9220000F06FF9304604F090FEAA
:1027E00020686A78418C1144418407B0F0BD000034
:1027F000100300204C03002070B505460B480C4622
:1028000029460068C069C06900F0F7F800280BD0BD
:10281000416800882A1A012000EBC200002C085CE5
:1028200002D011F83210216070BD000010030020AA
:1028300011200880704710B5C06900F0DEF800284C
:1028400000D0012010BD00002DE9F0432F4C0346BD
:1028500087B020681946B0F92A80C069C06900F0C5
:10286000CCF800284ED041680088181A01EBC0054A
:102870004046AE7804F044FE814620686A68012331
:10288000816BCDE90236CDE90421C169CB7E8A7E18
:10289000CDE900230B7EB0F924102A78B0F922008C
:1028A00004F014F92068C069477E067EB7421DD93E
:1028B000C07E47434643B8F1020F17D001F023F919
:1028C000804601F0E9F802F01EF821682A78CB6909
:1028D000B1F92200B1F92410DB7E02FB0302CB190F
:1028E000314404F0A9FA404602F00DF8484604F0DD
:1028F00007FE20686A78C369B0F922109B7E02FB4C
:102900000311418407B0BDE8F083000010030020EC
:102910002DE9F3411B4E0F46002530682C46C06957
:10292000417EC07E01FB00F81CE0684602F0BAF967
:10293000054630682946C069C06900F027F888B1AB
:1029400041680088281A00EB400001EB800090F9F4
:102950000210007908443168C969897E484300281B
:1029600000DD04447F1EE0D51DB1284603F038F990
:1029700004444146204609F0D5FC03490120087073
:10298000BDE8FC8110030020E404002006E002887A
:102990008A4202D842888A4202D280680028F6D150
:1029A0007047000030B50E4C05460B46206829469E
:1029B000C069C06900F021F8002810D04168008883
:1029C00024682A1A0120E46900EBC200085CA47E96
:1029D0006043002B03D011F832106143196030BD01
:1029E0001003002001200880704700B5C06900F086
:1029F00004F8002800D0012000BD06E002888A42C9
:102A000002D842888A4202D280680028F6D17047F4
:102A10002DE9F0410025154E154C18E02069C5EB55
:102A2000051700EBC7007022001D3168FDF712FC8E
:102A30002069002140F8371000EBC70000F10C01BD
:102A40008161011D0A1DC0E90F126D1C4164A0685F
:102A50008542E3DB0EF07EFA2169C0EB001001EB4A
:102A6000C000001D3060BDE8F081000010030020B0
:102A70000805002070B50F490D480860084603F0AE
:102A800023FA0C4C143CA068C0EB0010C50028468B
:102A900000F0BCF82A460021206103F08EFA4FF0C6
:102AA000FF30206002F068FABDE870400EF052BAC4
:102AB000211C01081C0500207CB5084EDDE90654E8
:102AC0003668367CCDE90054B60702D40CF096F88F
:102AD0007CBD034C2468A0477CBD0000100300208F
:102AE000B8020020F8B50C0005460FD001F0A6F89A
:102AF000204600F017F8060010D000F015F9224625
:102B000000902DB12946FDF7A5FB04E00020F8BD9B
:102B1000002103F052FA684600F062F902F0EAF987
:102B20003046F8BD10B5040009D001F087F8204602
:102B300009F0AEFA044602F0DDF9204610BD00208F
:102B400010BD38B5054601F079F82846FFF7EAFFD1
:102B5000040009D000F0E8F82A460021009003F0B4
:102B60002CFA684600F03CF902F0C4F9204638BD62
:102B7000024A106021F003005060704784CA0120AF
:102B800010B5040016D001F059F80B48406B10F84E
:102B9000341059B1022909D2042101EBC401415872
:102BA000486809F089F920460FF0BCFDBDE81040E7
:102BB00002F0A0B910BD0000C4C90120002805D052
:102BC000034AD16B016001B14860D06370470000D7
:102BD000C4C9012010B5044601F030F82068FFF7A1
:102BE000CFFF00202060BDE8104002F083B9000054
:102BF00070B50D460646002405E000BF06EB8400D4
:102C0000FFF7E8FF641CAC42F8DB70BD2DE9F04132
:102C100004460EF0D7FB2848E41C24F00305016CA1
:102C20002D1DA94200D90D46C46B13E054F8042CA5
:102C3000AA420ED184B1216809B162684A60616814
:102C400009B122680A60C26BA24231D12168C16316
:102C50002EE02468002CE9D18046816BC0680F18F3
:102C600057F8040C3E1A306838B100200FF00CFE03
:102C700057F8040C3E1A3068D0B97068A84217DBC8
:102C80003044441B3046241D0FF0B6FDD8F80C101C
:102C9000491BC8F80C10D8F814102944C8F81410AF
:102CA0007068401B02D0314609F006F944F8045C14
:102CB0002046BDE8F0810000C4C9012010B5002401
:102CC0000EF080FB0C490F2001EBC002526C1AB1D0
:102CD00001EBC000406C08E0401EF5D508E04168FB
:102CE000A14200D90C46806810B180680028F6D156
:102CF000A4F10C0010BD0000C4C90120002138B1AE
:102D00000449042202EBC000496B085841680C39A1
:102D100008467047C4C9012002488169491C816185
:102D200070470000C4C901200549CA69521CCA6124
:102D3000496B01EBC0010A78521C0A7000F068B8B8
:102D4000C4C901207CB506460C460846FFF7EAFEDA
:102D5000050020D0FEB13046FFF7D0FFA04200DAD8
:102D6000044600F06BFF2846FFF7DEFF0090304678
:102D7000FFF7DAFF0146019022460098FDF76AFA54
:102D8000684600F02DF801A800F02AF83046FFF759
:102D9000F7FE02F0AFF828467CBD000010B500F049
:102DA0004DFFFFF78BFF64220849B0F5800F04D96F
:102DB00090FBF2F4086A444303E0096A4143B1FB23
:102DC000F2F402F097F8204610BD0000C4C90120BB
:102DD00002488169491E816170470000C4C9012011
:102DE0000A4902684B6B52F8082C03EBC2021378B5
:102DF000022B03D3CB690BB15B1ECB611178491E4B
:102E0000117000210160084670470000C4C901200C
:102E1000002806D00349042202EBC000496B085881
:102E200008307047C4C901202DE9FC414FF000066D
:102E30000B465FEA000834462BD032B111461846E3
:102E4000FFF750FE060000D101244046FFF76CFF5B
:102E50000090078845686846FFF7C2FFCCB9B90003
:102E60002846091DFFF76EFF050015D0FFF75CFF30
:102E7000019040F8276001A8FFF7B2FF4046FFF736
:102E800053FF009045600188491C01806846FFF7A8
:102E9000A7FF2046BDE8FC813046FFF771FE012404
:102EA000F7E70820FFF74DBE7CB5050023D0FFF7FC
:102EB0003BFF00904068C0B1FFF736FF002401904F
:102EC00005E0019800EB8400FFF784FE641C009885
:102ED0000088A042F5DC01A8FFF782FF0098001DE2
:102EE000FFF778FE0099002008806846FFF778FF1A
:102EF0002846FFF745FE7CBD38B5002430B1FFF70A
:102F000013FF009004886846FFF76AFF204638BD2B
:102F100038B50D46002448B1FFF706FF294600905A
:102F200000F018F804466846FFF75AFF204638BDFF
:102F300038B50D4601880024A94209D9406838B146
:102F4000FFF7F2FE009050F825406846FFF748FF73
:102F5000204638BD10B50024FFF7EAFF10B1FFF797
:102F6000E3FE0446204610BD3EB514460291009093
:102F70006A461946204609F0F3FC3EBD2DE9F843A8
:102F80001D46DDE908461746884601236A46362174
:102F900000F056F898BB684602F049FF8146009859
:102FA00010300090684602F04CFFC8F800006846F8
:102FB00002F047FF38600098801C0090684602F0DD
:102FC00036FF2880684602F03CFF306000980C30E5
:102FD0000090684602F035FF2A884FF48071082A75
:102FE00013D005DC5AB1012A0AD0042A1ED109E007
:102FF000102A1ED0182A1CD0202A17D119E015E05B
:10300000022200E01022226000E02160A0B12060D6
:1030100088420BDCA9F59A41423907D1306868B182
:1030200001280BD0022809D0032807D00120BDE8D1
:10303000F88300202060EDE72068E9E70020F6E74C
:103040002DE9F04117460D4604460BB100206060A3
:10305000D4E901300A4626683946B047A84202D072
:103060000120BDE8F0816068284460600020F8E736
:10307000F8B50D46074600240E4E16E000236A46BA
:1030800004213846FFF7DCFF08B10120F8BD0098A5
:10309000027841788378100440EA0120184303F055
:1030A000D7FC316841F82400641CAC42E6DB002008
:1030B000F8BD00005005002010B5C2B2CBB2D21A44
:1030C00000D5524293B25B43C0F30722C1F30724F9
:1030D000121B00D55242000C92B2A0EB114002FB31
:1030E000023200B2002801DA404200B280B200FB96
:1030F000002010BD10B50021084600F04BFD43F63E
:10310000FF725042BDE8104013460146AFF3008005
:103110002DE9FC411C4615460E46074600F08EFD83
:10312000042004F0EDF980461248C068C16C006DBF
:103130000F4406440D440444ADF80070ADF804504B
:10314000ADF80260ADF80640684608F055F907E0B2
:1031500023462A463146384603F06EFE08F00EF943
:103160000028F5D1404604F0CBF901F0C3FEBDE8DC
:10317000FC810000040300202DE9F8431C00DDE978
:10318000089816460F46054602D107F0A1FA0446F4
:1031900000962E6843464A4621462846B047061EFA
:1031A00039D007F08AFA8146698A304606F071FF05
:1031B000304607F0B9FF484607F0B6FF4FF0000869
:1031C0000CE000BFCDF8008055F81CCF00231A4654
:1031D00049462846E04700B307F0A6FF7F1E002FB0
:1031E000F0DC1D21484607F068FE601C12D000F09C
:1031F00025FD07F0B1FA30B1FFF70AFE8469B44249
:1032000001D02000F8D1B44202D0304607F00AFFC6
:1032100001F070FE3046BDE8F883304607F054F9FF
:103220000020F8E72DE9F0411C4616460D460746FA
:10323000022B02DB0020BDE8F0811C20FFF7E6FC3A
:103240000028F8D00DB105610AE0094A52F82410AF
:1032500009B905E011460A68002AFBD10969016134
:1032600084618682002101604160C0E90217E2E7C3
:103270002803002070B51D46FFF7D4FF040009D0D5
:1032800000F00EF8E068006820B90348006800EB21
:1032900085008465204670BD10030020FFF78EBCBA
:1032A00070B590B38269022A30DA1E4C54F82210AD
:1032B00019B944F8220032E019464B68002BFBD1C3
:1032C00006E0CB68C5681B682D68AB4203DD096862
:1032D0000029F6D11AE0C1B1CB68C6681B68366810
:1032E000B3420CD1838A012B05D008E01946DB6874
:1032F0001B68AB4203DB0B68002BF7D129B14B688D
:1033000033B118604A68426004E0FFE7012070BDF5
:1033100044F822004860884200D10021016000206A
:1033200070BD00002803002010B503E00468FFF71B
:10333000B7FF20460028F9D110BD00000A4A816974
:1033400052F82130834202D1036842F821304168AB
:1033500009B102680A60016809B142684A60002147
:103360000160416070470000280300200020704782
:10337000022801DB00207047054A52F8200004E0D3
:10338000C26812688A42F6D000680028F8D17047F7
:1033900028030020022801DB00207047054951F86E
:1033A000200004E0C16809680029F6D00068002800
:1033B000F8D17047280300202DE9F8431D46164632
:1033C000884604000CD0FFF7AFFC00900068076847
:1033D0006846FFF705FD2B46324641462046B84772
:1033E000BDE8F8832DE9F041044601F0C0FD06195F
:1033F0001EE000BF00F0EEFA052F00DD052700F00B
:103400001DFC11480568FFF787FC2C0017D000BF92
:1034100001F070FD641EFBD1384601F099FD1DB12D
:1034200000F00CFC6D1EFBD1FFF7D2FC01F062FD39
:1034300001F09DFD371A002FDCDCBDE8F081384635
:1034400001F086FDF0E700001405002047F6FF7349
:10345000AFF300802DE9FC411F4690460D46060063
:103460004FF000041AD000F0E9FB65B1284607F0E0
:103470004BFE040007D002462946684602F0E5FBF1
:10348000684607F041FE3B4642462946304602F078
:103490002BF8204607F038FE01F02CFDBDE8FC813A
:1034A0002DE9FF4F87B09046894607007DD000F098
:1034B000C5FBD9F80040D9F8045021B228B2401A0F
:1034C000401C029000F038FB064618F00C0F1ED08E
:1034D00038460A9A029901F017FD08F00C010429F8
:1034E00004D0082902D00C2911D104E0291400FBD2
:1034F0001610401C09E02114C1EB254200FB1620E8
:10350000401C00EBD07001EB600060F31F444846A4
:1035100007F0FAFD5FEA000B09D00246494604A80D
:10352000CDE9044502F091FB04A807F0EDFDA6F1FA
:10353000010A38460A9A029902F00EFD03900AEB3E
:10354000244060F31F45CDE900453846039902F059
:10355000F3FA18F003010ED001292CD002290ED164
:10356000B9F90420B9F90010521A101A00EBD07002
:1035700001EB600001E0B9F80000ADF800006A4618
:103580003846039901F058FF38460A9A029902F02A
:10359000D9FC074406EB244060F31F443878002828
:1035A000C7D1584607F0B0FD00E001E001F0A2FCF1
:1035B0000BB0BDE8F08FB9F80410081A401CDCE726
:1035C0007CB514460D46064600F038FB11480068ED
:1035D000C16C006D0D4404443188681E0844ADF888
:1035E0000400ADF800507188601E0844ADF8060074
:1035F000ADF80240684607F0FFFE06E02246294685
:103600003046FEF721FC07F0B9FE0028F6D101F0A4
:1036100071FC7CBD100300201CB50A4601466846BB
:1036200002F044FC00F00AFB2548BDF800100068D9
:1036300030F84C2F1144ADF80010BDF8021082880C
:103640001144ADF80210BDF8041002881144ADF821
:103650000410BDF8061080880844ADF806006846DE
:1036600007F0CAFE27E000BFBDF900400BE000BF35
:10367000BDF90210204603F057FBBDF906102046A5
:1036800003F052FBA41CBDF90400A042F0DABDF91E
:1036900002400AE0BDF90000214603F045FBBDF9F8
:1036A0000400214603F040FBA41CBDF90600A04223
:1036B000F0DA07F063FE0028D6D101F01BFC1CBD38
:1036C000100300202DE9F04F87B09B46DDE91098EC
:1036D00092460C46054600F0B1FA16480168C86CDF
:1036E000096D47190E1900EB0A0501EB0B04ADF843
:1036F0001070ADF81450ADF81260ADF8164004A883
:1037000007F07AFE88B1DFF830B04FF0000ACDE95B
:103710000098CDE902BA2B462246394630460BF0D6
:10372000D3FB07F02BFE0028F1D101F0E3FB07B03B
:10373000BDE8F08F10030020916D00082DE9F04FD7
:1037400087B09B46DDE9109892460C46054600F08E
:1037500075FA16480168C86C096D47190E1900EB17
:103760000A0501EB0B04ADF81070ADF81450ADF87C
:103770001260ADF8164004A807F03EFE88B1DFF8ED
:1037800030B04FF0010ACDE90098CDE902BA2346E6
:103790002A46314638460BF097FB07F0EFFD00282C
:1037A000F1D101F0A7FB07B0BDE8F08F10030020B6
:1037B000D16C00082DE9FC4114460D46064600F088
:1037C0003DFA114F3968C86C096D054404440E4434
:1037D000ADF80050ADF80440ADF80260ADF80660F9
:1037E000684607F009FE08E0386822463146406E18
:1037F00003682846984707F0C1FD0028F4D101F07E
:1038000079FBBDE8FC810000100300202DE9F041A8
:103810001C4615460E46074600F010FA0C48016893
:10382000C86C096D074405440E440C44002007F0A1
:10383000E3FD07E023462A4631463846FEF752FBB1
:1038400007F09CFD0028F5D1BDE8F04101F052BB26
:10385000100300207CB50C46064600F0EFF90F4D32
:103860002868C16C006D0E440444ADF80460ADF8E6
:103870000060ADF80640ADF80240684607F0BCFDB8
:1038800007E028682146406E42683046904707F0BE
:1038900075FD0028F5D101F02DFB7CBD1003002043
:1038A0002DE9FC411C4616460D46074600F0C6F9B8
:1038B0001A480168087ECA6C096D17440D440C440F
:1038C000401E391A1644ADF800103118ADF8041036
:1038D000291A2044ADF80600ADF80210684607F03A
:1038E0008BFD15E032462946384603F0F1F93246A1
:1038F0002146384603F0ECF9621E691C384603F095
:1039000047FA621E691C304603F042FA07F036FDA2
:103910000028E7D101F0EEFABDE8FC811003002099
:1039200070B58EB015460E46044600F087F9214664
:1039300006A802F098FABDF81A30642B0CD10020CA
:1039400000900AAB01AA214606A801F057FD2A46BD
:10395000314601A8FFF734FE01F0CCFA0EB070BD7D
:103960007CB514460D46064600F068F90F4800681D
:10397000C16C006D0E4405440444ADF80060ADF820
:103980000460ADF80250ADF80640684607F034FD1B
:1039900006E022462946304603F0FAF907F0EEFC2D
:1039A0000028F6D101F0A6FA7CBD0000100300202B
:1039B00070B50C46054600F0B2F810B10121C0E91F
:1039C000001400F03BF9284607F066FCBDE87040A3
:1039D00001F090BA10B5002400E0012400F004F8D2
:1039E0000028FAD1204610BD094810B5006800240F
:1039F00010B1804700B1012406F0DEFD00B10124C2
:103A00000448006810B1804700B10124204610BD71
:103A100034030020300300202DE9FC411C461546EC
:103A20000E46074600F00AF910480068C16C006DA8
:103A30000F4406440D440444ADF80070ADF8045042
:103A4000ADF80260ADF80640684607F0D5FC07E027
:103A500023462A463146384603F0EEF907F08EFC3D
:103A60000028F5D101F046FABDE8FC8110030020E2
:103A7000B0F90630B0F90420B0F90210B0F9000036
:103A8000FFF7CABF034951F82000C1688A6A0821BC
:103A9000104700002803002010B500F0CFF803F015
:103AA0000DFA03F027FB044601F024FA204610BD6E
:103AB00010B5044600F0C2F8054800210068C0694E
:103AC000426820469047044601F014FA204610BD93
:103AD0001003002070B50C46054600F0AFF806480C
:103AE00021460068C069426828469047044601F0B4
:103AF00001FA204670BD000010030020002801D00C
:103B000006F0B8BD704710B500F098F803F0DEF984
:103B100003F0F0FA044601F0EDF9204610BD1FB5A0
:103B200000210191029103912A210091694607F039
:103B3000B5F9039804B010BD10B500F07FF8044843
:103B40000068C069447E01F0D5F9204610BD000030
:103B50001003002070B50C46054600F06FF82146B2
:103B6000284602F02FF8BDE8704001F0C3B901F01B
:103B7000FEB90000024951F8200000690068704752
:103B800028030020024951F820000069406870476E
:103B90002803002070B50D46044600F04FF820467B
:103BA0000DF06CFA044628460DF070FA044301F05B
:103BB000A1F9204670BD00002DE9F04119480168C7
:103BC00021F0010101601848012585601749016055
:103BD00000681749884200D0FEE701F03FFB154E10
:103BE0002E20307001F0C7F913480DF09BFB12F046
:103BF0007DFC074603F0FEF910B103F00FFA38B967
:103C000003F015FA044603F0FEF9214603F072FCB6
:103C10000021084600F0B2FE06F0ECFE7570384652
:103C2000BDE8F081002000E000300240C2A507F4AA
:103C3000CDB5E8B504030020E4CA012070B5184CE6
:103C4000E06820B101F08FF96168884204D001F08A
:103C5000D3F901F088F96060E068401CE060012859
:103C60001CD10DF077F905462068854216D0002852
:103C700013DBFFF77BFB01462068C0EB00122069D5
:103C800000EBC2025167C5EB0511064A00EBC1000B
:103C9000011D1160406FFFF747FB256070BD0000FC
:103CA00008050020100300201CB5040004D10E48B4
:103CB0000068046E002C16D0FFF7C0FF2046FFF707
:103CC00033F8009044696846FFF78AF84CB1204603
:103CD000FFF72AF8019081688968884701A8FFF7F3
:103CE0007FF801F007F91CBD1003002001490A46C6
:103CF00000F002B801F0FFFF2DE9F04387B0154650
:103D00000C465FEA000846D0FFF798FF002000F05D
:103D10000BFE814621480068066E4046FFF704F816
:103D200000900068806900F07DFD074640F6FF7056
:103D3000C44204D10098B0F90440B0F9065000988C
:103D4000611E0289ADF804401144ADF808104189A4
:103D5000681E0844ADF80650ADF80A0006F03EFAB9
:103D60006846FFF73DF801A807F046FB06E02A4643
:103D70002146404600F0F8FB07F000FB0028F6D192
:103D8000384600F04FFD304600F0FAF9484600F0A2
:103D9000CBFD01F0AFF807B0BDE8F08310030020C1
:103DA0002DE9FE4F984691468A46834600270C9E91
:103DB000FFF744FF184819490068407C51F820403B
:103DC000E1680968042903D02468002CF8D100E0D8
:103DD0001CB9FFF7DFFA041E1BD0E0680121C26A9C
:103DE00020469047050011D02469A0688047401CF8
:103DF00002D10B4C46F001060096CDE90154434632
:103E00004A465146584600F04FFA074601F072F80C
:103E10003846BDE8FE8F0000100300202803002074
:103E2000185703082DE9FE4F9846DDE90D650C9FF4
:103E300091468A46834600246DB1FFF7FFFE009746
:103E4000CDE9016543464A465146584600F02CFAF2
:103E5000044601F04FF82046BDE8FE8F38B5040057
:103E60001CD0FFF7EBFE0E480068006EA04201D1A7
:103E700000F0CAFC2046FEF757FF0090406908B1E9
:103E800001F021F800980068FFF708FA6846FEF78D
:103E9000A7FF2046FEF774FE01F02CF838BD0000A5
:103EA000100300202DE9FF4F83B09A468B4607464A
:103EB000FFF7C4FEDFF83891D9F80000447C4D4884
:103EC00000570128204606DD03F09AF805462046F3
:103ED00003F0AAF805E003F075F80546204603F064
:103EE00077F804461FB302A901A8FFF733FEB7F91C
:103EF0000000002800DA0020B7F902608046002E9A
:103F000000DA002601984119B7F90400491E0DF0A6
:103F100067FB054602980119B7F90600491E0DF026
:103F20005FFBA5EB0802841B521C641C03E04FF0EE
:103F3000000846462A46BAF1000F01D1C4F1000A32
:103F4000002A51DD002C4FDD109800905346314679
:103F50004046FFF725FF5FEA000A10D000F0CAF8DC
:103F60000746A04206D0D9F80000806C10B132217B
:103F700007F078FD504600F003F9002523E059468C
:103F80000598884700F0B6FF012007B0BDE8F08F24
:103F9000611BB94202DA504600F0D6F83DB1721901
:103FA0004146504600F014F95046FFF77DFE594651
:103FB000059888471048016809B100208847504695
:103FC000FFF794FE3D44A542E2DB5046FFF746FF73
:103FD000002000F0D5F8A74206D0D9F80000806C88
:103FE00010B1332107F03EFD00F084FF0020CCE744
:103FF00010030020480300205C05002038B50500B0
:104000004FF0000411D0FFF719FE2846FEF78CFE92
:104010000090006800698068804703F071FC0446E6
:104020006846FEF7DDFE00F065FF204638BD38B576
:1040300004000ED0FFF702FE2046FEF775FE00F1E9
:10404000180400906846FEF7CBFE00F053FF2046B0
:1040500038BD002038BD000038B504460025FFF704
:10406000EDFD1CB908480068046E44B12046FEF717
:104070005BFE0090B0F904506846FEF7B1FE00F018
:1040800039FF284638BD00001003002038B504462B
:104090000025FFF7D3FD1CB908480068046E44B141
:1040A0002046FEF741FE0090B0F908506846FEF742
:1040B00097FE00F01FFF284638BD000010030020C7
:1040C00038B504460025FFF7B9FD1CB9084800685B
:1040D000046E44B12046FEF727FE0090B0F906506A
:1040E0006846FEF77DFE00F005FF284638BD00005B
:1040F0001003002038B504460025FFF79FFD1CB9CA
:1041000008480068046E44B12046FEF70DFE00909A
:10411000B0F90A506846FEF763FE00F0EBFE284651
:1041200038BD00001003002070B505460024284665
:1041300008F0DEFA641C18B1BDE8704000F07AB8EF
:10414000052CF4DB70BD000038B50C46050004D129
:104150000A480068056E002D0FD0FFF76FFD284656
:10416000FEF7E2FD0090B0F90A10A14200DD4481A3
:104170006846FEF735FE00F0BDFE38BD1003002096
:10418000F8B50546FFF75AFD104E3068046ECDB104
:104190000CB100F039FB06F04FF92846FEF7C4FDDC
:1041A000009031680D660068FFF77AF86846FEF700
:1041B00017FE03F041FA03F073F900BF00F09AFE16
:1041C0002046F8BD00F020FBF8E7000010030020B7
:1041D0007CB515460E46040004D115480068046EEF
:1041E000002C24D0FFF72AFD2046FEF79DFD2DB2BE
:1041F0000090C58034B2848003F052F90098406981
:1042000080B1FEF791FD009A0190B2F9081081800B
:10421000B2F90A20C28011B10AB10480458001A818
:10422000FEF7DEFD6846FEF7DBFD00F063FE7CBDB9
:104230001003002001490A4600F002B801F0FFFF18
:104240007FB515460C4606002DD0FFF7F7FC30462B
:10425000FEF76AFD40F6FF710190CC4203D1B0F940
:104260000440B0F906500289611E1144ADF80840BF
:10427000ADF80C104189681E0844ADF80E00ADF889
:104280000A5001A8FEF7ACFD02A807F0B5F806E059
:104290002A462146304600F04FF907F06FF8002813
:1042A000F6D100F027FE7FBD2DE9FF4FDFF8E8B023
:1042B00083B01C46DBF80010DDE9106092464FF039
:1042C00000084B7C42461299FEF7ACFF050060D017
:1042D00028698068804703F013FB81460AFB09F1D7
:1042E000C91DCF08FEF75AFDF10705D1C11700EB34
:1042F0009170801000EB4000002C09DC1FB11838D1
:10430000B0FBF7F000E000206442A04200DC04466D
:10431000F00707D10090DDE903012346524600F083
:1043200057FD8046002C03DC2846FEF7B7FF30E03F
:1043300004FB07F01830F10702D0FEF7F3FB01E0B1
:10434000FEF7FFFB06001CD0FEF7EEFC01900560B7
:10435000039981800499C180A0F808A04481C0F825
:104360001480C0E9037901A8FEF73AFD1298AE6007
:104370002861DBF80000407CA861304607B0BDE84A
:10438000F08F2846FEF78AFFB8F1000001D0FEF753
:10439000F7FB0020F2E7000010030020014908604D
:1043A000704700005C0500202DE9F74F8EB01446E1
:1043B00089460E98FEF7B8FC0990B0F908B0B0F93C
:1043C0000A600068006940680C9009A8FEF708FDC3
:1043D000564D574F2868407C57F82000C1688A6ABC
:1043E000082190470790182801D3202007902868BB
:1043F000407C57F820000069069003C80B904D4898
:10440000814201D0012000E000200A90002000F04D
:1044100070FE00287DD1286809EB0B01B0F90C2053
:10442000891A491E002902DDABEB010500E05D465B
:10443000B0F90810494505DDA1EB090189446D1A61
:10444000089101E000210891002D6BDDB0F90E20EC
:10445000A119891A491E002902DDA6EB010800E016
:10446000B046B0F90A00A04204DD061B3444A8EBB4
:10447000060800E00026B8F1000F53DD089801900F
:104480000DA95F46DDF830A00E980091FFF7CFFD33
:10449000774300EB870101982B4601EB80020099DE
:1044A0004846CDE900A1214601F0CEF80090002851
:1044B00038D00A98E8B1DDE906322946009800F0C4
:1044C000C7FEB0B90698009FDA46D0F810C0BCF11C
:1044D000000F05D004235A4639463846E04708E025
:1044E0000B993868884701C7AAF101005FEA000A02
:1044F000F6D100990020079ACDE90301059001202B
:104500000090CDE9010221460346641C2A46484634
:1045100000E007E002F0DAFAA8F10100761C5FEA99
:104520000008ABD111B0BDE8F08F000010030020EF
:104530002803002013710008F8B515460E460746FB
:10454000FEF7F2FB009000681621C068426A002066
:10455000904704466846FEF743FC002C03D02A46E9
:1045600031463846A047F8BDF8B516460F46050057
:1045700012D0FEF7D9FB009044696846FEF730FC84
:104580002846FFF73BFD0346082800DD2CB13246E4
:10459000394628460EF07CFDF8BD3246394628469D
:1045A0000EF016FFF8BD000002480068407C00F0E5
:1045B00003B8000010030020F8B51D49096809B1CF
:1045C000002200E002461B498D56012D2EDD1849C0
:1045D000143151F822305B1C41F82230012B25D1D7
:1045E000A1F108030026103953F8224051F8221097
:1045F00053F822707F1C43F82270AF4201D143F878
:10460000226053F822708F42F2D03D46FEF7C2FE80
:10461000009000280AD0C0682121426A684690476D
:10462000030003D02A46214600989847F8BD0000B1
:10463000540300204803002002480068407C00F03A
:1046400003B800001003002038B51449096809B107
:10465000002200E002461249895601291CDD0F495B
:10466000143151F822305B1E41F8223014D1083940
:1046700051F82240103141F82240FEF78BFE0090A5
:10468000002809D0C0682221426A6846904702008B
:1046900002D021460098904738BD00005403002006
:1046A0004803002010B5002821D009B30AB3B1F99E
:1046B0000040B2F900309C4200DA23460380B1F991
:1046C0000240B2F902309C4200DA23464380B1F93D
:1046D0000440B2F904309C4200DD23468380B1F9E6
:1046E0000610B2F90620914200DC1146C18010BDCF
:1046F00011460A6802604968416010BD00280BD06D
:1047000003880B44038083881944818041881144C5
:104710004180C1881144C1807047000070B50025F8
:10472000FFF78CFA094CD4E9002082420AD0D2E982
:10473000005610460CF0C0FC20603146284606F0BA
:10474000C9FA012500F0D6FB284670BD7803002089
:104750002DE9FC41154DDDE908742D68B5F90860B7
:10476000864200DD3046B5F90C60964200DA3246EA
:10477000824219DBB5F90A608E4200DD3146B5F997
:104780000E509D4200DA2B468B420DDB00E02C469A
:10479000E5682D6825B1042D02D02568002DF6D1DD
:1047A000CDE9007402F05CFDBDE8FC81100300203F
:1047B000B0F90220B1F906309A4213DCB1F90220B7
:1047C000B0F906309A420DDCB0F90020B1F904309E
:1047D0009A4207DCB1F90010B0F90400814201DC13
:1047E000012070470020704701460248702200688F
:1047F000FBF730BD10030020024970220968FBF767
:1048000029BD00001003002010B5FFF717FA02F0D1
:10481000F3FD02F011FF05F0E1FCBDE8104000F0EF
:1048200069BB000070B50B4D04462868467CFFF755
:1048300005FA022C09D22046FEF7ACFD28B1286803
:104840004474FFF7E1FF0448046000F053FB304676
:1048500070BD0000100300203804002070B50C4625
:10486000054606F037FA002805D121462846BDE85E
:10487000704000F0E1B870BD2DE9F041194E05001F
:1048800019493068194F407C51F820108C6917F88D
:10489000048003D00CF0FAFC60B11FE00521FEF7A4
:1048A00067FD06001AD00020FFF778FD3046FEF7BE
:1048B00045FD12E030680521407CFEF759FD60B9E6
:1048C000AFF24B00FFF76AFD30680849407C1431B5
:1048D00051F8200008B1FEF7E3FC3D554046BDE825
:1048E000F08100001003002028030020EC040020C9
:1048F00010B50446FFF7A2F9204602F0A7FDBDE877
:10490000104000F0F7BA10B50446FFF797F92046BB
:1049100002F0D4FDBDE8104000F0ECBA0149886017
:10492000704700000403002010B50446FFF786F925
:10493000204602F0E5FD044600F0DCFA204610BDFA
:1049400070B50446FFF77AF904480068C56904B1F8
:10495000C46100F0CFFA284670BD000010030020AB
:1049600070B50546FFF76AF903480068847E8576CE
:1049700000F0C0FA204670BD1003002070B50C4650
:104980000546FFF75BF90948224605800848048080
:1049900008480068417C084850F82100C1680B6A4B
:1049A00029469847BDE8704000F0A4BA50030020A3
:1049B00052030020100300202803002070B5054694
:1049C000FFF73CF903480068047E057600F092FA90
:1049D000204670BD1003002070B50446FFF72EF985
:1049E00004480068B0F92C50848500F083FA28460A
:1049F00070BD00001003002070B50446FFF71EF9DB
:104A000004480068B0F92A50448500F073FA28463B
:104A100070BD00001003002002480068002800D08C
:104A2000004770473805002002498A6802B988604B
:104A3000FFF7F2BF780300207CB50A4C0546CDE9AC
:104A400000016068019A6E46C0E9005221680CF0CE
:104A500025FB6060E16809B130468847A560FFF733
:104A6000DBFF7CBD780300202DE9FC41984616460B
:104A70000D460746FFF7E2F81C20FEF762F8040037
:104A80002DD01C491A4808602046FEF74DF90090C9
:104A900015B9FFF76CF8054600980760C0E9046592
:104AA000A0F80C806846FEF79BF920460CF01EFD2E
:104AB000114DA86840B90120A86005F10C010F480C
:104AC0000860084601F000FA2046FEF72DF9019033
:104AD000296849B181602C6001A8FEF781F900F0D6
:104AE00009FA2046BDE8FC8100212C608160F3E7D3
:104AF000294B00083403002024050020351C010840
:104B000010B504000ED0FFF799F820460DF08EFE88
:104B100020460EF04FFA2046FEF732F8BDE810406E
:104B200000F0E8B910BD00002DE9F04188B0002583
:104B3000FFF784F8184C676825E000BFFFF717F807
:104B400006466068FEF7F0F801904169891B00296C
:104B500015DC6168029604910169039146686660FC
:104B6000D0F8008001A8FEF73BF902A8414688472B
:104B700066B160680125B84205D1002506E001A8AC
:104B8000FEF72EF902E060680028D7D100F0B2F9F4
:104B900008B02846BDE8F0812405002038B50C4651
:104BA000050011D0FFF74AF82846FEF7BDF800903F
:104BB0008089204201D0012400E000246846FEF7ED
:104BC0000FF900F097F900E00124204638BD38B510
:104BD000040017D0FFF732F82046FEF7A5F8009042
:104BE000FEF7C5FF0146009882691144416168469D
:104BF000FEF7F6F820460EF0DDF920460CF076FCC4
:104C000000F078F938BD38B50C4605000BD0FFF739
:104C100015F82846FEF788F8009084616846FEF78C
:104C2000DFF800F067F938BD38B505460020286088
:104C30000648046844B12046FEF776F80090006903
:104C400028606846FEF7CCF8204638BD24050020D1
:104C500038B504004FF000000D46086011D0204622
:104C6000FEF762F80090846844B16846FEF7B8F831
:104C70002046FEF759F80090006928606846FEF764
:104C8000AFF8204638BD000010B5FEF7D7FF044945
:104C900002480860BDE8104000F02CB92C4B030816
:104CA000140300202DE9F041084E044605683068E1
:104CB0000168284688470746306841682846884783
:104CC000284420603846BDE8F0810000140300202D
:104CD0002DE9F0410C4606460025064F05E03868F0
:104CE00041683046884706440544641EF7D228468A
:104CF000BDE8F081140300202DE9F0411E46069C1A
:104D00001746884605463A46A8687F1C3346D0F8C1
:104D100004C041462846E047641EF4D1BDE8F08156
:104D200070B5B0F90040091BB0F904408C422CDD8D
:104D300000F11404B0F902500069521B02FB00405C
:104D4000CA1800EBE104521ED010B0EBE10501F0EF
:104D500007034FF0FF0102F0070221FA03F0C2F14E
:104D6000070201FA02F1CEB221780FD001436D1E85
:104D700004F8011B002D05DDFF2229462046FBF724
:104D800089FA2C4420783043207070BD30400143B4
:104D9000217070BD10B5B0F90030B0F90240C91AE9
:104DA00000F114030069121B02FB003000EBE1006C
:104DB00001F0070302788021D9400A43027010BD38
:104DC000B0F90610026951431430FBF76ABA0000CB
:104DD0002DE9F843804602F10F000011470003FB64
:104DE00007F01C46154689461430FDF7AAFE06005A
:104DF00018D0FEF723FF3046FDF796FF0090A0F88D
:104E00000080A0F802908580C4800749816001215C
:104E1000818107616846FDF7E3FF00F06BF83046DB
:104E2000BDE8F8830020FBE71C61030870B5B0F90A
:104E30000660B0F904400B6800F1140596421BDDD2
:104E40000069A34202FB005000EBE30214DA641E87
:104E5000E010A0EBE30512F8010B03F00704A040FB
:104E6000C4B206E045B1083312F8014B23F0070342
:104E70006D1E002CF6D004E0002070BD6006040E0C
:104E80005B1C2006FAD5FF2C07D0184602E064060A
:104E9000240E401C6606FAD400E0D81DC443640703
:104EA00005D006E012F8014BFF2C09D108306D1E29
:104EB000F8D5C01A401C0B6070BD6206140E401C71
:104EC0002206FAD4F5E738B50546FEF7B7FE2846C0
:104ED000FDF72AFF00908189491E0CB28481684643
:104EE000FDF77EFF14B92846FDF74AFE00F002F8F0
:104EF00038BD00000348C168491EC16001D100F0FF
:104F00008BB87047080500202DE9F04116460F4682
:104F100005460024FEF792FE32463946284601F047
:104F200011F8054408B1641CF6E7FFF7E3FF2046DB
:104F3000BDE8F08110B54FF440410348FDF718FE7D
:104F40000248FFF7EBFC10BDE4690020585203084B
:104F500010B50446204614F093FE10BD10B51E2077
:104F600014F08EFE10BD10B515F052FE10BD10B538
:104F700015F054FE10BD704710B5012015F0BAFBB6
:104F80001B4908600846006808B1012000E00020C5
:104F900050B900BF102080F31188BFF34F8FBFF3CB
:104FA0006F8F00BF00BFFEE703220021012015F034
:104FB000B2FB104908600846006830B100231A4669
:104FC00019460C48006815F0EDFC0A48006808B165
:104FD000012000E0002050B900BF102080F31188AC
:104FE000BFF34F8FBFF36F8F00BF00BFFEE710BD51
:104FF000980000209C00002010B50648006808B901
:10500000FFF7BAFF00235A1E19460248006815F040
:10501000AFFB10BD9800002010B500231A461946BA
:105020000248006815F0BEFC10BD0000980000208A
:1050300030B54FF480324FF0FF31904201DC002850
:1050400001DA084630BD904202D14FF4B40030BDC1
:1050500000235924114A01E0582B0AD0E11A03EB2E
:10506000510100BF02EB81056D68854203D20B46FA
:10507000F2E75921F6E752F82140844201D90C4663
:10508000EAE702EB810322465B689B1A001B0004DF
:10509000B0FBF3F000EB014030BD000050550308B9
:1050A0002DE9F04190460C46002802DA40420127E3
:1050B00000E00027002C02DA4C42012600E0002626
:1050C000404304FB040000F0BCFF051E0FD0200489
:1050D000B0FBF5F0FFF7ACFF0FB1C0F534000EB137
:1050E000C0F1B470B8F1000F01D0C8F80050BDE8AD
:1050F000F0810EB508B102AA00E00022002301A948
:10510000684600F0CBFC0EBD074910B50C7818B10D
:1051100001200870801E03E0002008706FF07F40BF
:1051200001F088FC204610BD4A03002010B5082A73
:105130000EDC0346012A18D0022A56D0042A76D063
:1051400010F8042B03F8012B491EF9D1012010BDE2
:10515000102A08DC4FEA000230F8043B22F8023B38
:10516000491EF9D1F2E7002010BD10F8042BD20738
:10517000120E491E34D010F8044B491E04F00104ED
:1051800042EA84122CD010F8044B491E04F00104AA
:1051900042EA441224D010F8044B491E04F00104E2
:1051A00042EA04121CD010F8044B491E04F001041A
:1051B00042EAC40214D010F8044B491E04F0010462
:1051C00042EA84020CD010F8044B491E04F001049A
:1051D00042EA440204D010F8044B04F001042243D4
:1051E00003F8012B0029C0D1B0E710F8042B920777
:1051F000120E491E15D010F8044B491E04F003048A
:1052000042EA04120DD010F8044B491E04F00304C6
:1052100042EA840205D010F8044B04F00304224350
:10522000491E03F8012B0029DFD18FE7FFE710F8B3
:10523000042B1207120E491E05D010F8044B04F07F
:105240000F042243491E03F8012B0029EFD17DE70B
:1052500038B50024009400F01DF838BD0B4810B597
:105260008169002910D101218161FFF763FEFDF7FB
:1052700001FC02F0F3F9054905481C310860BDE85E
:105280001040084600F020BE10BD000004030020BE
:10529000611B01082DE9F0410D460699044601B94C
:1052A00001461F68082A09DC0E46012A1AD0022A84
:1052B0005BD0042A7DD0082A13D18DE0102A07DCA8
:1052C000D3F810C00E46BCF1000F04D0022389E0D1
:1052D0000020BDE8F08101CCB84726F8020B6D1E16
:1052E000F9D189E001CCB847C0074FEA10686D1EBC
:1052F00036D001CCB84748EA801000F0FF086D1E98
:105300002ED001CCB84748EA401000F0FF086D1ECF
:1053100026D001CCB84748EA001000F0FF086D1E07
:105320001ED001CCB84748EAC00000F0FF086D1E4F
:1053300016D001CCB84748EA800000F0FF086D1E87
:105340000ED001CCB84748EA400000F0FF086D1EBF
:1053500006D001CCB84740EA080000F0FF086D1EF7
:1053600006F8018B002DBDD146E001CCB84780077F
:105370004FEA10686D1E16D001CCB84748EA0010FD
:1053800000F0FF086D1E0ED001CCB84748EA80003F
:1053900000F0FF086D1E06D001CCB84740EA0800B7
:1053A00000F0FF086D1E06F8018B002DDDD123E013
:1053B000FFE701CCB84700074FEA10686D1E06D022
:1053C00001CCB84740EA080000F0FF086D1E06F85F
:1053D000018B002DEDD10FE0D3F810C0BCF1000F10
:1053E00004D001232A462046E04705E001CCB84717
:1053F00006F8010B6D1EF9D101206AE730B5458929
:10540000039CD58005899580858901EB850510353C
:10541000C2E9025385881580C58855801461002B28
:1054200008D0827B1A718089186008B1103100E0C1
:105430000021996030BD00007CB5064628480D4625
:10544000006868B1002005F0D7FF06E06A462946EB
:10545000304607F02BFA05F091FF0028F6D17CBD0D
:10546000106800901F4C506801902268BDF8000041
:1054700032F84C1F0844ADF80000BDF802009188D6
:105480000844ADF80200BDF8040011880844ADF8E6
:105490000400BDF8060091880844ADF8060068468F
:1054A00005F0AAFF0EE000BF2068BDF800106A46B4
:1054B0004184BDF8021081842946304607F0F6F990
:1054C00005F05CFF0028EFD1206830F8221F428DE4
:1054D000891A01804188C28D891A41807CBD0000F3
:1054E0004C030020100300202DE9FF4F85B09A46A1
:1054F00090460D46FEF720FB4FF00009DDF814B092
:1055000006464C4625B1286800906868019002E084
:105510006846FEF7F3FA18F00C0F02D05546002744
:1055200013E0BDF902402DE029467F1C059800F0EC
:105530002DFB01466D1A0598FFF7CAFB0599084433
:10554000059005A800F058FB08B9002DECD108F033
:105550000C00042804D0082802D00C2812D105E041
:10556000BDF9060007FB1604641C0BE0BDF906003C
:10557000BDF90210401A07FB1600401C00EBD0706A
:1055800001EB60045546CDF814B043E02946059878
:1055900000F0FCFA07460146ED1B059800F0CCFA36
:1055A00018F003010ED0012939D002290DD1BDF91F
:1055B0000410BDF90020891A091A01EBD17102EB20
:1055C000610101E0BDF900108946174A401E4844B8
:1055D00012683946A2F822909484ADF80C00A01904
:1055E000401EADF80890ADF80E00ADF80A4002AAD2
:1055F0000598FFF721FF39460598FFF769FB0599E4
:1056000008440590FEF798FA044405A800F0F4FA5F
:10561000002801D1002DB9D109B0BDE8F08FBDF946
:105620000410091A491CCFE71003002049B10028D3
:1056300002DAA0EB610001E000EB610090FBF1F009
:1056400070470020704700002DE9FF4F8DB000200B
:10565000DDF86CA0164600901D4604460246CAF8C6
:10566000000008AB03A902A800F018FA18B1002046
:1056700011B0BDE8F08F0898854200DD0546614F06
:105680000B9561493868407C51F8201004910969F4
:105690000691FEF7F7F905903868407CFEF772FA3C
:1056A0005A498146884204D05949894501D0012090
:1056B00000E000200A9001CE1A9988478346000E28
:1056C000079077D0009870BB0D9800EB04084D4808
:1056D0000068B0F90800404503DDA0EB08078046EC
:1056E00000E000270298049900EB840000EB87009B
:1056F000CDE900010B990D98421809920E9B404686
:105700001946521EFFF724F801200090059818282A
:105710000ADA0298DDE9052300EB840000EB87003C
:10572000E91B00F019F912E00A9880B1029800EB29
:10573000840000EB87070998A0EB08084946386801
:10574000884701C7A8F101005FEA0008F6D1314897
:10575000C06980B3DDE9020700EB840007EB840237
:10576000CDE902022B4C361F3046E4692B460299E4
:10577000A047FF213068B1EB106F02D1029800689A
:1057800004E0029A1268B1EB126F01D1039A106023
:10579000029806F10406001D02900398001D039074
:1057A0006D1EE7D10397DAF8000040F00101CAF856
:1057B000001020E021E0FFE70798FF2811D0C0F19A
:1057C000FF02029850F82410584600F0D9FA0399C5
:1057D00041F82400DAF8000040F00101CAF8001096
:1057E00005E00298039950F8240041F82400641C55
:1057F0006D1E7FF460AF03983AE7039941F824B037
:10580000E8E70000100300202803002013710008BF
:1058100011710008A40400202DE9FF4F87B00C4649
:10582000DDE91698DDE914BA0546FEF707FA1448D3
:10583000099A0168C86C096D471985180E190A98EC
:10584000ADF810700C18ADF81450ADF81260ADF84A
:10585000164004A805F0D0FD0BE0CDE90298CDE993
:1058600000BA23462A463146384609F09FFE05F025
:1058700085FD0028F1D1FFF73DFB0BB0BDE8F08FAF
:1058800010030020F0B500EB8103082A0ADC012593
:105890004C1E092A10D2DFE802F00F10263E3E55BA
:1058A00055555500102A07DC00EB4100491E30F821
:1058B000022D43F8042DF9D1F0BD04F00702C2F126
:1058C000070200EBE40005FA02F604783440D44005
:1058D000521C43F8044DA0EBE20022F007042241E1
:1058E000491EF0D1F0BD04F0030200EBA400C2F1A8
:1058F000030203240578560004FA06F73D40F540FC
:10590000521C43F8045DA0EBA20022F003052A41DB
:10591000491EEFD1F0BD8D4300EB6400C5F10102DB
:105920000F240578960004FA06F73D40F540521C16
:1059300043F8045DA0EB620022F001052A41491EF4
:10594000EFD1F0BD00EB0100491E10F8012D43F826
:10595000042DF9D1F0BD00002DE9F05F0C1E16DD1D
:105960005E68014600EB8405082A12DC611E012AEC
:1059700026D0022A47D0042A6AD0082A07D107195C
:1059800017F8010DB04745F8040D641EF8D1BDE8C5
:10599000F09F102AFBDC5F693FB12246BC46BDE8A0
:1059A000F04F02235DF804EB604701EB440700BFB2
:1059B00037F8020DB04745F8040D641EF8D1E6E74C
:1059C00000EBE10001F0070710F801A981468020F3
:1059D00020FA07F8B5F104050AEA0800C7F1070143
:1059E000C840B04745F804093FB14FEA48604FEA64
:1059F00010687F1E641EEFD1C9E719F801A90727B7
:105A00004FF00108F6E700EBA10001F0030710F8E2
:105A100001A981467900C02020FA01F84FF0060B59
:105A2000B5F104050AEA0800ABEB4701C840B047EE
:105A300045F804093FB14FEA88604FEA10687F1EBD
:105A4000641EEFD1A3E7032719F801A9B846F7E7C9
:105A500000EB6100012710F801A9A7438146B900B6
:105A6000F02020FA01F84FF0040B2D1F0AEA08007D
:105A7000ABEB8701C840B04745F804093FB14FEA96
:105A800008704FEA10687F1E641EEFD17FE719F897
:105A900001A901274FF00F08F6E700002DE9F047B4
:105AA000224C06461F46A06990468946002540B90B
:105AB0000120A06104F120011D480860084600F0A3
:105AC00003FA606930B91B480068606110B901F0E1
:105AD0007CFA606107B138604EB1A06830B9606986
