:020000040800F2
:10000000682E0020DDF70008C9F6000835FB00085F
:10001000CBF60008CFF60008D3F600080000000079
:10002000000000000000000000000000D7F60008FB
:10003000D9F6000800000000BFFA000847ED0008EC
:10004000F7F70008F7F70008F7F70008F7F70008D8
:10005000F7F70008F7F70008F7F70008F7F70008C8
:10006000F7F70008F7F70008F7F70008F7F70008B8
:10007000F7F70008F7F70008F7F70008F7F70008A8
:10008000F7F70008F7F70008F7F70008F7F7000898
:10009000F7F70008F7F70008F7F70008F7F7000888
:1000A000F7F70008F7F70008F7F70008F7F7000878
:1000B000F7F70008F7F70008F7F70008F7F7000868
:1000C000F7F70008F7F70008F7F70008F7F7000858
:1000D000F7F70008B3F70008F7F70008F7F700088C
:1000E000F7F70008F7F70008F7F70008F7F7000838
:1000F000F7F70008F7F70008F7F70008F7F7000828
:10010000F7F70008F7F70008F7F70008F7F7000817
:10011000F7F70008F7F70008F7F70008F7F7000807
:10012000F7F70008F7F70008F7F70008F7F70008F7
:10013000F7F70008F7F70008F7F70008F7F70008E7
:10014000F7F70008F7F70008F7F70008F7F70008D7
:10015000F7F70008F7F70008F7F70008F7F70008C7
:10016000F7F70008F7F70008F7F70008F7F70008B7
:10017000F7F70008F7F70008F7F70008F7F70008A7
:10018000F7F70008DFF80CD011F0DAFF004800475D
:1001900087020008682E002038B5044605F08CF967
:1001A00007F049FA0020034611A212A1009012A004
:1001B00006F0FAF818B911A00CF0C3FD02E016A081
:1001C0000CF0BFFD38BD1CB514200A214FF40063AC
:1001D0000022CDE90010AFF23F0118A00EF0ACF9FB
:1001E000044614B120460EF05AF900201CBD000050
:1001F000656C6D002F0000007364300046696C650B
:100200002053797374656D20696E697469616C69D6
:100210007A6564210A00000046696C652053797391
:1002200074656D20696E697469616C7A6174696F57
:100230006E206661696C6564210A0000696E6974EC
:100240000000000010B50EF086FD0CF0AAFD0AF0CB
:10025000E1FB0DF05AFD0EF0F7FC0E490E480CF0D4
:100260004FFF0DF0D1FE0EF082FEFFF7ACFF05F060
:10027000BBF80AA004F03CFC0EF0F2FC0AF0EAFD28
:100280000DF0DEFE10BD10B50FF002FCFFF7DAFF37
:10029000002010BD00000220682E002075617274DD
:1002A00031000000014600200A4601E01268401CAF
:1002B00013688B42FAD1704710B5F9A00CF041FDDC
:1002C000002010BD10B50CF06CFD002010BD2DE914
:1002D000F04106464FF0000800240DF05EFF37683D
:1002E00009E0A7F1080840460CF025FA0546A542AA
:1002F00000DD2C463F68B742F3D10DF05CFF062CC1
:1003000000DC04B906242046BDE8F0812DE9FC4755
:1003100005462846FFF7DBFF8146E6A24946E74847
:100320000CF00FFD484600F0D7FEE5A00CF009FDEB
:100330002F6846E0A7F1080494F83100234606220E
:1003400049460090EEA00CF0FCFC94F83000012827
:1003500003D1EEA00CF0F5FC15E094F83000022873
:1003600003D1EDA00CF0EDFC0DE094F8300018B9CD
:10037000ECA00CF0E6FC06E094F83000042802D172
:10038000EBA00CF0DEFC666A00E0761C30782328D7
:10039000FBD0D4E90910711A401A64214843A16ABC
:1003A000B0FBF1F8E16A606CCDE90001A369606A15
:1003B000C01AA36AC1181A464346E0A00CF0C1FC5B
:1003C0003F68AF42B6D10020BDE8FC8710B5E548D4
:1003D000FFF79CFF10BD70B5044625680CE0A5F141
:1003E00010063146E0A00CF0ACFC2868A04202D018
:1003F000DEA00CF0A6FC2D68A542F0D170BD2DE961
:10040000FC4106463046FFF762FF0746092F00DA37
:100410000927D7A23946D9A00CF093FC384600F042
:100420005BFEDDA00CF08DFC35682BE0A5F1080427
:1004300004F1100000F048FEA8B904F11000FFF725
:1004400031FF8046208B234606223946CDE900083D
:10045000D7A00CF076FC04F11000FFF7BCFF94A0CD
:100460000CF06FFC0DE004F11000FFF71BFF80465D
:10047000208B234606223946CDE90008D0A00CF097
:1004800060FC2D68B542D1D10020BDE8FC8110B5DB
:10049000B4481030FFF7B3FF10BD2DE9FC4105460D
:1004A0002846FFF714FF8046C9A24146CAA00CF0B7
:1004B00048FC404600F010FED0A00CF042FC2E6834
:1004C00025E0A6F1080404F1100000F0FDFDA8B934
:1004D00004F11000FFF7E6FE0746A0692346062256
:1004E0004146CDE90007CDA00CF02BFC04F1100033
:1004F000FFF771FF6EA00CF024FC07E0A069234613
:10050000062241460090CBA00CF01BFC3668AE42A0
:10051000D7D10020BDE8FC8110B592483030FFF7FC
:10052000BCFF10BD2DE9FF4105462846FFF7CFFE71
:100530008046C5A24146C6A00CF003FC404600F030
:10054000CBFDCCA00CF0FDFB2E6813E0A6F1080457
:1005500004F11000FFF7A6FE0746E07E0622E169DF
:100560002346CDE90207CDE900214146C9A00CF0A0
:10057000E8FB3668AE42E9D1002004B0BDE8F08166
:1005800010B578482030FFF7CDFF10BD2DE9FE4FA4
:1005900006460FF2183948460CF0CDF88046304632
:1005A000FFF795FE0746474500DA47464A46394673
:1005B000C0A00CF0C6FB384600F08EFDC6A00CF0C3
:1005C000C0FB35682FE0A5F1080404F1100000F02D
:1005D0007BFDB8B904F11000FFF764FE8246A08BE2
:1005E000E18B23460622CDE9010A00913946C1A0DC
:1005F0000CF0A7FB04F11000FFF7EDFE2CA00CF0AF
:10060000A0FB0FE004F11000FFF74CFE8246A08B28
:10061000E18B23460622CDE9010A00913946BBA0B1
:100620000CF08FFB2D68B542CDD10020BDE8FE8FC8
:1006300010B54C484030FFF7A9FF10BD2DE9FC472D
:1006400006460FF2E02948460CF075F88046304621
:10065000FFF73DFE0746474500DA47464A4639461A
:10066000B3A00CF06EFB384600F036FDB7A00CF0DE
:1006700068FB356891E1A5F1080404F1100000F071
:1006800023FD58B904F11000FFF70CFE8246208CC0
:10069000234606223946CDE9000A63E16EE10000F7
:1006A00048656C6C6F2052542D54687265616421EA
:1006B0000A0000007468726561640000AC2F0108D4
:1006C000202D2D2D20202D2D2D2D2D2D2D202D2D8E
:1006D0002D2D2D2D2D2D2D2D202D2D2D2D2D2D2D57
:1006E0002D2D2D20202D2D2D2D2D2D20202D2D2D6E
:1006F0002D2D2D2D2D2D2D202D2D2D0A000000000E
:10070000252D2A2E2A73202533642000207265614E
:1007100064792020000000002073757370656E649A
:100720000000000020696E69742020200000000095
:1007300020636C6F73652020000000002030782556
:100740003038782030782530387820202020253027
:100750003264252520202030782530387820253037
:1007600033640A00D0010020257300002F00000030
:1007700073656D6170686F7265000000252D2A2E0B
:1007800073207620202073757370656E6420746802
:10079000726561640A000000202D2D2D202D2D2D65
:1007A0002D2D2D2D2D2D2D2D2D2D2D0A0000000050
:1007B000252D2A2E2A7320253033642025643A0003
:1007C000252D2A2E2A7320253033642025640A0023
:1007D0006576656E74000000252D2A2E732020207A
:1007E0002020207365742020202073757370656E3F
:1007F00064207468726561640A00000020202D2D59
:100800002D2D2D2D2D2D2D2D202D2D2D2D2D2D2D25
:100810002D2D2D2D2D2D2D0A00000000252D2A2EE9
:100820002A73202030782530387820253033643AF8
:1008300000000000252D2A2E2A7320203078253034
:10084000387820300A0000006D757465780000006B
:10085000252D2A2E732020206F776E657220206848
:100860006F6C642073757370656E64207468726554
:1008700061640A00202D2D2D2D2D2D2D2D202D2DA7
:100880002D2D202D2D2D2D2D2D2D2D2D2D2D2D2DA5
:100890002D0A0000252D2A2E2A7320252D382E2AD8
:1008A0007320253034642025640A00006D61696C72
:1008B000626F7800252D2A2E7320656E7472792060
:1008C00073697A652073757370656E6420746872DD
:1008D0006561640A00000000202D2D2D2D20202DA3
:1008E0002D2D2D202D2D2D2D2D2D2D2D2D2D2D2D45
:1008F0002D2D0A00252D2A2E2A7320253034642020
:1009000020253034642025643A000000252D2A2E4D
:100910002A73202530346420202530346420256457
:100920000A0000006D736771756575650000000051
:10093000252D2A2E7320656E74727920737573705D
:10094000656E64207468726561640A00202D2D2D27
:100950002D20202D2D2D2D2D2D2D2D2D2D2D2D2DE1
:100960002D0A0000F2A00CF0ECF904F11000FFF7E2
:1009700032FDAFF2C4200CF0E4F90DE004F11000F8
:10098000FFF790FC8246208C234606223946CDE9AB
:10099000000AECA00CF0D5F92D68B5427FF46BAEDF
:1009A0000020BDE8FC8710B5EB48FFF747FE10BDFF
:1009B000FEB505462846FFF78AFC0746E7A23946FA
:1009C000E8A00CF0BEF9384600F086FBF1A00CF070
:1009D000B8F92E680EE0A6F10804D4E906026169B0
:1009E0002346CDE90012029006223946F4A00CF00D
:1009F000A8F93668AE42EED10020FEBD10B5D6484B
:100A00001030FFF7D5FF10BD2DE9FF410546284600
:100A1000FFF75DFC0746F1A23946F2A00CF091F910
:100A2000384600F059FBF9A00CF08BF92E6828E04D
:100A3000A6F10804206BA8B1D4E90831A269206BA3
:100A4000CDE90023CDE90210234606223946F8A05D
:100A50000CF077F904F12800FFF7BDFCD7A00CF0EB
:100A600070F90DE0D4E90831A269206BCDE90023CB
:100A7000CDE90210234606223946F4A00CF061F9B4
:100A80003668AE42D4D1002004B0BDE8F08110B584
:100A9000B1482030FFF7B8FF10BD2DE9FC410546F5
:100AA0002846FFF714FC0746EFA23946F0A00CF0E9
:100AB00048F9384600F010FBF7A00CF042F92E6818
:100AC00017E0A6F10804D4E9080123460622CDE97F
:100AD00000013946F9A00CF034F9E07900F001008A
:100AE00018B1FCA00CF02DF902E0FDA00CF029F9E2
:100AF0003668AE42E5D109F08EFF80464146FCA043
:100B00000CF01FF90020BDE8FC8110B59248403080
:100B1000FFF7C3FF10BD2DE9F04397B00646502202
:100B2000F94903A811F0A3F90FF2E03948460BF098
:100B300002FE80463046FFF7CAFB0746474500DA0B
:100B400047464A463946F3A00CF0FBF8384600F019
:100B5000C3FAFAA00CF0F5F8356814E0A5F1080422
:100B6000A17D207C132804DC207C03AA52F82000FD
:100B700000E0169823460622CDE900013946F8A088
:100B80000CF0DFF82D68B542E8D1002017B0BDE8C1
:100B9000F08310B570483030FFF7BDFF10BD70B561
:100BA000F4A00CF0CEF8F84804680DE00222F7A19A
:100BB000206811F0B6F900B905E0F5A0D4E90012FB
:100BC0000CF0BFF800BF0C34F54800688442EDD348
:100BD000F448056804E0F4A069680CF0B2F82D68E8
:100BE000002DF8D1F2A00CF0ACF8F648046805E04E
:100BF000E7A0D4E900120CF0A4F81034F248006821
:100C00008442F5D3F148066804E0E7A071680CF06F
:100C100098F83668002EF8D1002070BD024601E039
:100C2000521C491C107818B110780B789842F7D0F4
:100C3000107808B9002070474FF0FF30FBE710B57F
:100C400003461A4601E0521C491C107828B1087866
:100C500018B110780C78A042F5D0D01A10BD2DE94B
:100C6000F84F05464FF0000B002000908246814669
:100C7000C54806682DE0C5A03168FFF7CFFF00B971
:100C800026E028463168FFF7C9FF00BBBBF1000F23
:100C90000AD1CFA00CF055F8287828B1D6F80090EA
:100CA000484611F020F982460BF101001FFA80FB43
:100CB000287838B148463168FFF7C1FF04465445EB
:100CC00000DAA246B2A0D6E900120CF03AF800BF52
:100CD0000C36B34800688642CDD3B248076882E13B
:100CE00028467968FFF79AFF08BBBBF1000F0DD1CA
:100CF000B7A00CF026F8287840B1B9F1000F05D163
:100D0000D7F80490484611F0EEF882460BF1010046
:100D10001FFA80FB287838B148467968FFF78FFFC3
:100D20000446544500DAA2469FA0796858E159E18B
:100D3000252D2A2E2A732025303464202025643A5C
:100D400000000000252D2A2E2A732025303464202F
:100D50002025640A00000000200200206D656D68F7
:100D600065617000252D2A2E732020706F6F6C2016
:100D700073697A6520206D617820757365642073CE
:100D8000697A6520617661696C61626C652073695E
:100D90007A650A00202D2D2D2D2D2D2D2D2D2D2068
:100DA0002D2D2D2D2D2D2D2D2D2D2D2D2D202D2D80
:100DB0002D2D2D2D2D2D2D2D2D2D2D2D0A0000000D
:100DC000252D2A2E2A7320252D3031306420252D03
:100DD0003031336420252D3035640A006D656D7027
:100DE0006F6F6C00252D2A2E7320626C6F636B2051
:100DF000746F74616C2066726565207375737065BD
:100E00006E64207468726561640A0000202D2D2DC7
:100E10002D20202D2D2D2D20202D2D2D2D202D2D43
:100E20002D2D2D2D2D2D2D2D2D2D2D2D0A0000009C
:100E3000252D2A2E2A732025303464202025303495
:100E4000642020253034642025643A00252D2A2E84
:100E50002A73202530346420202530346420202556
:100E60003034642025640A0074696D6572000000E6
:100E7000252D2A2E732020706572696F64696320A6
:100E8000202074696D656F7574202020202020203B
:100E9000666C61670A000000202D2D2D2D2D2D2D53
:100EA0002D2D2D202D2D2D2D2D2D2D2D2D2D202D8C
:100EB0002D2D2D2D2D2D2D2D2D2D0A00252D2A2EBC
:100EC0002A732030782530387820307825303878EB
:100ED000200000006163746976617465640A000033
:100EE00064656163746976617465640A000000007A
:100EF00063757272656E74207469636B3A3078251D
:100F00003038780A00000000A42201086465766980
:100F100063650000252D2A2E73202020202020200C
:100F2000202074797065202020202020202020722D
:100F3000656620636F756E740A000000202D2D2DEC
:100F40002D2D2D2D2D2D2D2D2D2D2D2D2D2D2D2DD1
:100F50002D202D2D2D2D2D2D2D2D2D2D0A00000078
:100F6000252D2A2E2A7320252D32307320252D3849
:100F7000640A00002D2D46756E6374696F6E204CF7
:100F80006973743A0A000000680000205F5F000087
:100F9000252D313673202D2D2025730A00000000E9
:100FA0006C000020600000205B6C5D2025730A004F
:100FB0002D2D5661726961626C65204C6973743ABB
:100FC0000A0000007000002074000020540000207F
:100FD0002D2D66756E6374696F6E3A0A000000000D
:100FE0000BF0AFFE3F68002F7FF47AAE40480668F2
:100FF00029E028463168FFF711FE18BB009868B950
:101000003CA00BF09EFE287840B1B9F1000F05D14D
:10101000D6F80090484610F066FF82460098401CC3
:1010200080B20090287838B148463168FFF707FE53
:101030000446544500DAA246AFF2AC00D6E90012ED
:101040000BF07FFE10362F4800688642D1D32E4821
:10105000D0F800802BE02846D8F80410FFF7DEFD1A
:1010600018BB009868B923A00BF06BFE287840B13C
:10107000B9F1000F05D1D8F80490484610F033FFBD
:1010800082460098401C80B20090287840B14846C3
:10109000D8F80410FFF7D3FD0446544500DAA24601
:1010A0001AA0D8F804100BF04CFED8F80080B8F164
:1010B000000FD0D1B9F1000F04D05246494628465E
:1010C0000BF077FBBDE8F88F01460868884201D134
:1010D000012070470020FCE710B5044602E00DA097
:1010E0000BF02FFE201EA4F10104F8D110BD00006A
:1010F000700000202D2D7661726961626C653A0A7C
:101100000000000074000020540000205B765D2089
:1011100025730A002D00000010B50446002C01F0D4
:101120002183206910B12069FFF7F6FF20781C2881
:1011300081F00E83DFE810F00C0B1C00D901EF01E9
:10114000F0011B021A0242026A029502C002EB027F
:10115000160341036C039703C203ED031A04390419
:101160000C0BE70422065B070E09D80A0B0BC10A19
:10117000A07800F0040048B300BF2420FA490968B1
:101180000870F9480068401CF749086000BF00BFBC
:1011900000BFA068007A09680870A0680089000A8A
:1011A000F14909684870A0688068000CEE49096838
:1011B0008870A0688068000EEB490968C87000BF9D
:1011C000E9480068001DE84908608CE1A07800F05B
:1011D000020000287ED0A06800287CD0017AC91EB9
:1011E0000C293ED2DFE801F006077C3E3F7D78798E
:1011F0007E7A7B7F00BFA17801F0080151B100BF6A
:101200002421D94A12681170D7490968491CD64A65
:1012100011600AE000BF2521D34A12681170D2493B
:101220000968491CD04A116000BF00BF00BF017BA4
:10123000CD4A126811708189090ACB4A126851702F
:10124000C168090CC84A12689170C168090EC64A83
:101250001268D17000BFC4490968091DC24A1160F3
:1012600000BF77E000BFA17801F0080151B100BFD5
:101270002421BD4A12681170BB490968491CBA4A49
:1012800011600AE000BF2621B74A12681170B64902
:101290000968491CB44A116000BF00BF00BF017B50
:1012A000B14A126811708189090AAF4A12685170F7
:1012B000C168090CAC4A12689170C168090EAA4A4B
:1012C0001268D17000BFA8490968091DA64A1160BB
:1012D00000BF3FE040E03EE000BF00BF00BF00BFF6
:1012E00000BF00BF00BFA17801F0080151B100BFED
:1012F00024219D4A126811709B490968491C9A4A29
:1013000011600AE000BF2721974A126811709649C0
:101310000968491C944A116000BF00BF00BF017BEF
:10132000914A126811708189090A8F4A12685170B6
:10133000C168090C8C4A12689170C168090E8A4A0A
:101340001268D17000BF88490968091D864A11607A
:1013500000BF00BF00BFC6E0A06800287ED0417C6F
:10136000C91E0C2940D2DFE801F006078040418108
:101370007C7D827E7F8300BFA17801F0080151B19E
:1013800000BF2421784A1268117077490968491C06
:10139000754A11600AE000BF2521734A1268117076
:1013A00071490968491C704A116000BF00BF00BF45
:1013B00000F114016C4A12681170090A6A4A126835
:1013C000517000F11401090C674A1268917000F124
:1013D0001401090E644A1268D17000BF624909689D
:1013E000091D614A116000BF7BE000BFA17801F0D8
:1013F000080151B100BF24215B4A126811705A499B
:101400000968491C584A11600AE000BF2621564A63
:101410001268117054490968491C534A116000BF91
:1014200000BF00BF00F114014F4A12681170090A91
:101430004D4A1268517000F11401090C4A4A1268B1
:10144000917000F11401090E474A1268D17000BF73
:1014500045490968091D444A116000E042E000BFA7
:101460003FE000BF00BF00BF00BF00BF00BF00BF24
:10147000A17801F0080151B100BF24213A4A126855
:10148000117039490968491C374A11600AE000BFE8
:101490002721354A1268117033490968491C324ABC
:1014A000116000BF00BF00BF00F114012E4A126896
:1014B0001170090A2C4A1268517000F11401090CCC
:1014C000294A1268917000F11401090E264A126827
:1014D000D17000BF24490968091D234A116000BF6B
:1014E00000BF00BF00BF01F037B900BF22201E4976
:1014F000096808701C480068401C1B49086000BF50
:1015000000BF20790968087017480068401C164918
:10151000086000BFE7E700BF00BF24201249096848
:10152000087011480068401C0F49086000BF00BFE8
:1015300000BF207909680870A088000A0A49096874
:1015400048706068000C0849096888706068000E7F
:1015500005490968C87000BF03480068001D0249BA
:10156000086000BFBFE700000800002000BF00BF08
:101570002420FD4909680870FB480068401CFA49AE
:10158000086000BF00BF00BF207909680870A0880C
:10159000000AF549096848706068000CF24909685A
:1015A00088706068000EF0490968C87000BFEE4896
:1015B0000068001DEC49086000BF94E760780128CE
:1015C00009D100BFE84909680870E7480068401C75
:1015D000E549086019E06078022809D100BFE249B6
:1015E00009680870E0480068401CDF4908600CE0AA
:1015F0006078032809D100BFDB4909680870DA4820
:101600000068401CD849086000BF6CE7607801287A
:101610000AD100BF0420D44909680870D248006884
:10162000401CD14908601BE0607802280AD100BF45
:101630000520CD4909680870CB480068401CCA499C
:1016400008600DE0607803280AD100BF0620C64973
:1016500009680870C4480068401CC349086000BF9E
:1016600041E7607801280AD100BF0D20BE49096812
:101670000870BD480068401CBB4908601BE06078EA
:1016800002280AD100BF0E20B74909680870B64881
:101690000068401CB44908600DE0607803280AD156
:1016A00000BF0F20B04909680870AF480068401CAF
:1016B000AD49086000BF16E7607801280AD100BF75
:1016C0000720A94909680870A7480068401CA64976
:1016D00008601BE0607802280AD100BF0820A249F8
:1016E00009680870A0480068401C9F4908600DE028
:1016F000607803280AD100BF09209B490968087057
:1017000099480068401C9849086000BFEBE6607883
:1017100001280AD100BF0A2093490968087092483D
:101720000068401C904908601BE0607802280AD1DC
:1017300000BF0B208C49096808708B480068401C6A
:10174000894908600DE0607803280AD100BF0C20A9
:1017500085490968087084480068401C824908600F
:1017600000BFC0E6607801280AD100BF10207E4982
:10177000096808707C480068401C7B4908601BE0D1
:10178000607802280AD100BF1120774909680870E3
:1017900075480068401C744908600DE060780328B3
:1017A0000AD100BF12207049096808706E480068AD
:1017B000401C6D49086000BF95E6607801280AD199
:1017C00000BF132068490968087067480068401C1A
:1017D000654908601BE0607802280AD100BF142028
:1017E00061490968087060480068401C5E490860EB
:1017F0000DE0607803280AD100BF15205A49096816
:10180000087059480068401C5749086000BF6AE6E4
:10181000607801280AD100BF162053490968087072
:1018200051480068401C504908601BE0607802285D
:101830000AD100BF17204C49096808704A4800685F
:10184000401C494908600DE0607803280AD100BFB8
:10185000182045490968087043480068401C4249FF
:10186000086000BF3FE6607801280AD100BF192058
:101870003D49096808703C480068401C3A490860C6
:101880001BE0607802280AD100BF1A203649096897
:10189000087035480068401C334908600DE06078E6
:1018A00003280AD100BF1B202F49096808702E4861
:1018B0000068401C2C49086000BF14E660780128CD
:1018C0000AD100BF1C202849096808702648006812
:1018D000401C254908601BE0607802280AD100BF3F
:1018E0001D202149096808701F480068401C1E49D6
:1018F00008600DE0607803280AD100BF1E201A4955
:101900000968087018480068401C1749086000BF43
:10191000E9E5607801280AD100BF1F201249096853
:10192000087011480068401C0F4908601BE060788F
:1019300002280AD100BF20200B49096808700A4814
:101940000068401C084908600DE0607803280AD14F
:1019500000BF212004490968087003480068401C42
:101960000149086000BFBEE508000020002122698F
:10197000D2B12269D06801E0491CC0680028FBD1BF
:1019800000BF2C22FC4B1B681A70FB4A1268521CC9
:10199000F94B1A6000BF00BF1B681970F64A126845
:1019A000521CF54B1A6000BF9DE52069C0B3206949
:1019B0000078012850D120694078012804D00228FD
:1019C00018D0032843D12CE000BF2820EA49096839
:1019D0000870E9480068401CE749086000BF00BF84
:1019E0002D2009680870E4480068401CE24908603E
:1019F00000BF30E000BF2920DF4909680870DE48D9
:101A00000068401CDC49086000BF00BF2E20096848
:101A10000870D9480068401CD749086000BF1AE028
:101A20001AE000BF2A20D44909680870D24800682B
:101A3000401CD149086000BF00BF2F200968087012
:101A4000CD480068401CCC49086000BF03E003207B
:101A500000F072FF00BF55E020690078192851D1CD
:101A60002069407800F00F00012804D0022818D027
:101A7000032842D12BE000BF2820BF490968087025
:101A8000BD480068401CBC49086000BF00BF2D2055
:101A900009680870B8480068401CB749086000BF72
:101AA0002FE000BF2920B44909680870B2480068D7
:101AB000401CB149086000BF00BF2E2009680870B3
:101AC000AD480068401CAC49086000BF19E000BF89
:101AD0002A20A94909680870A7480068401CA6493F
:101AE000086000BF00BF2F2009680870A248006886
:101AF000401CA149086000BF03E0032000F01CFF68
:101B000000BF00BFEFE4206900287DD02069007885
:101B1000012879D1216988686178012904D00229D6
:101B20005DD003295AD1BDE000BF2521924A126839
:101B3000117091490968491C8F4A116000BF00BFAC
:101B400000BF00F1140112681170090A8A4A126874
:101B5000517000F11401090C874A1268917000F16C
:101B60001401090E844A1268D17000BF82490968C5
:101B7000091D814A116000BF00BF22211268117047
:101B80007D490968491C7C4A116000BF00BF0121E2
:101B90001268117078490968491C774A116000BFC2
:101BA00000BF01211268117073490968491C724A0B
:101BB000116000BF00BF2821126811706E490968CA
:101BC000491C6D4A116000BF00BF2F2112681170BF
:101BD00069490968491C684A116000BFC9E000BF33
:101BE0002621654A1268117063490968491C624AD6
:101BF000116000BF00BF00BF00F114011268117036
:101C0000090A5D4A126800E0B5E0517000F1140164
:101C1000090C594A1268917000F11401090E564AD4
:101C20001268D17000BF54490968091D524A1160F9
:101C300000BF00BF2321126811704F490968491C79
:101C40004D4A116000BF00BF00BF01211268117032
:101C50000021494A1268517000BF47490968891C30
:101C6000454A116000BF00BF02211268117042494D
:101C70000968491C404A116000BF00BF2921126851
:101C800011703D490968491C3B4A116000BF00BF03
:101C90002F211268117038490968491C364A1160B1
:101CA00000BF66E000BF2721334A12681170324935
:101CB0000968491C304A116000BF00BF00BF00F135
:101CC000140112681170090A2B4A1268517000F150
:101CD0001401090C284A1268917000F11401090ED0
:101CE000254A1268D17000BF23490968091D224A9C
:101CF000116000BF00BF2421126811701E490968DD
:101D0000491C1D4A116000BF00BF00BF01211268BD
:101D100011700021184A12685170174A12689170A8
:101D2000154A1268D17000BF13490968091D124A8B
:101D3000116000BF00BF0321126811700E490968CD
:101D4000491C0D4A116000BF00BF2A2112681170A2
:101D500009490968491C084A116000BF00BF2F21CA
:101D60001268117004490968491C034A116000BFD8
:101D700000BF00BF00BF20E4080000202069002849
:101D80007ED02069007801287AD12169886861783D
:101D9000012904D002295DD003295AD1BDE000BF3A
:101DA0002521FE4A12681170FC490968491CFB4A4A
:101DB000116000BF00BF00BF00F114011268117074
:101DC000090AF64A1268517000F11401090CF34A2D
:101DD0001268917000F11401090EF04A1268D17076
:101DE00000BFEE490968091DEC4A116000BF00BF41
:101DF000222112681170E9490968491CE74A1160FB
:101E000000BF00BF012112681170E4490968491C34
:101E1000E24A116000BF00BF042112681170DF495F
:101E20000968491CDD4A116000BF00BF2821126803
:101E30001170DA490968491CD84A116000BF00BF17
:101E40002F2112681170D5490968491CD34A1160C5
:101E500000BFC9E000BF2621D04A12681170CF49E7
:101E60000968491CCD4A116000BF00BF00BF00F1E6
:101E7000140112681170090AC84A1268517000E012
:101E8000B4E000F11401090CC44A1268917000F129
:101E90001401090EC14A1268D17000BFBF49096818
:101EA000091DBE4A116000BF00BF232112681170D6
:101EB000BA490968491CB94A116000BF00BF00BF98
:101EC0000121126811700021B44A1268517000BFDC
:101ED000B2490968891CB14A116000BF00BF0521E1
:101EE00012681170AD490968491CAC4A116000BF05
:101EF00000BF292112681170A8490968491CA74A26
:101F0000116000BF00BF2F2112681170A34909683A
:101F1000491CA24A116000BF66E000BF27219F4A0A
:101F2000126811709D490968491C9C4A116000BFE4
:101F300000BF00BF00F1140112681170090A974A2E
:101F40001268517000F11401090C944A12689170E2
:101F500000F11401090E914A1268D17000BF8F4937
:101F60000968091D8D4A116000BF00BF2421126855
:101F700011708A490968491C884A116000BF00BF76
:101F800000BF0121126811700021844A126851704B
:101F9000824A12689170814A1268D17000BF7F49ED
:101FA0000968091D7D4A116000BF00BF0621126843
:101FB00011707A490968491C784A116000BF00BF56
:101FC0002A211268117075490968491C734A116009
:101FD00000BF00BF2F211268117070490968491CA9
:101FE0006E4A116000BF00BF00BF00BFB4E32069AC
:101FF00000287DD020690078012879D1216988687E
:102000006178012904D0022973D0032972D110E12B
:1020100000BF2421614A1268117060490968491C97
:102020005E4A116000BF00BF00BF00F114011268DA
:102030001170090A594A1268517000F11401090C13
:10204000564A1268917000F11401090E534A126841
:10205000D17000BF51490968091D504A116000BF85
:1020600000BF2521126811704C490968491C4B4A70
:10207000116000BF00BF00BF00F1140112681170B1
:10208000090A464A1268517000F11401090C434ACA
:102090001268917000F11401090E404A1268D17063
:1020A00000BF3E490968091D3C4A116000BF00BFDE
:1020B00022211268117039490968491C374A116098
:1020C00000BF00BF01211268117034490968491C22
:1020D000324A116000BF00BF0121126811702F4900
:1020E0000968491C2D4A116000BF00BF282102E089
:1020F0002FE113E02BE11268117028490968491C8F
:10210000264A116000BF00BF2B21126811702349BD
:102110000968491C214A116000BF18E100BF242151
:102120001E4A126811701D490968491C1B4A11603A
:1021300000BF00BF00BF00F1140112681170090A4E
:10214000164A1268517000F11401090C134A126802
:10215000917000F11401090E104A1268D17000BF8D
:102160000E490968091D0D4A116000BF00BF2621F4
:102170001268117009490968491C084A116000BFBA
:1021800000BF00BF00F1140112681170090A034A70
:102190001268517000F11401090C01E008000020E0
:1021A000FC4A1268917000F11401090EF94A126894
:1021B000D17000BFF7490968091DF64A116000BFD8
:1021C00000BF232112681170F2490968491CF14AC5
:1021D000116000BF00BF00BF012112681170002113
:1021E000EC4A1268517000BFEA490968891CE94A43
:1021F000116000BF00BF022112681170E549096833
:10220000491CE44A116000BF00BF29211268117007
:10221000E0490968491CDF4A116000BF00BF2B215B
:1022200012681170DB490968491CDA4A116000BF65
:102230008DE000BF2421D74A12681170D549096882
:10224000491CD44A116000BF00BF00BF00F1140157
:1022500012681170090ACF4A1268517000F1140116
:10226000090CCC4A1268917000F11401090EC94A98
:102270001268D17000BFC7490968091DC54A1160BD
:1022800000BF00BF272112681170C2490968491CAC
:10229000C04A116000BF00BF00BF00F11401126806
:1022A0001170090ABB4A1268517000F11401090C3F
:1022B000B84A1268917000F11401090EB54A12680B
:1022C000D17000BFB3490968091DB24A116000BF4F
:1022D00000BF242112681170AE490968491CAD4A3B
:1022E000116000BF00BF00BF012112681170002102
:1022F000A84A12685170A74A12689170A54A1268DC
:10230000D17000BFA3490968091DA24A116000BF2E
:1023100000BF0321126811709E490968491C9D4A3B
:10232000116000BF00BF2A21126811709949096825
:10233000491C984A116000BF00BF2B211268117020
:1023400094490968491C934A116000BF00BF00BF4F
:1023500000BF01E2206900287ED0206900780128B2
:102360007AD1216988686178012904D0022974D062
:10237000032973D110E100BF2421864A126811702D
:1023800084490968491C834A116000BF00BF00BF2F
:1023900000F1140112681170090A7E4A1268517026
:1023A00000F11401090C7B4A1268917000F11401CC
:1023B000090E784A1268D17000BF76490968091D74
:1023C000744A116000BF00BF252112681170714965
:1023D0000968491C6F4A116000BF00BF00BF00F1CF
:1023E000140112681170090A6A4A1268517000F1EA
:1023F0001401090C674A1268917000F11401090E6A
:10240000644A1268D17000BF62490968091D614AB7
:10241000116000BF00BF2221126811705D49096878
:10242000491C5C4A116000BF00BF01211268117095
:1024300058490968491C574A116000BF00BF042170
:102440001268117053490968491C524A116000BF53
:1024500000BF2821126802E02EE112E02AE111708B
:102460004C490968491C4B4A116000BF00BF2B2131
:102470001268117047490968491C464A116000BF3B
:1024800018E100BF2421434A1268117041490968CC
:10249000491C404A116000BF00BF00BF00F1140199
:1024A00012681170090A3B4A1268517000F1140158
:1024B000090C384A1268917000F11401090E354A6E
:1024C0001268D17000BF33490968091D314A116093
:1024D00000BF00BF2621126811702E490968491CEF
:1024E0002C4A116000BF00BF00BF00F11401126848
:1024F0001170090A274A1268517000F11401090C81
:10250000244A1268917000F11401090E214A1268E0
:10251000D17000BF1F490968091D1E4A116000BF24
:1025200000BF2321126811701A490968491C194A11
:10253000116000BF00BF00BF0121126811700021AF
:10254000144A1268517000BF12490968891C114A67
:10255000116000BF00BF0521126811700D490968A4
:10256000491C0C4A116000BF00BF2921126811707C
:1025700008490968491C074A116000BF00BF2B21A8
:102580001268117003490968491C024A116000BFB2
:1025900090E000000800002000BF2421E04A1268FB
:1025A0001170DF490968491CDD4A116000BF00BF96
:1025B00000BF00F1140112681170090AD84A1268AC
:1025C000517000F11401090CD54A1268917000F1A4
:1025D0001401090ED24A1268D17000BFD0490968AF
:1025E000091DCF4A116000BF00BF2721126811707A
:1025F000CB490968491CCA4A116000BF00BF00BF2F
:1026000000F1140112681170090AC54A126851706C
:1026100000F11401090CC24A1268917000F1140112
:10262000090EBF4A1268D17000BFBD490968091D73
:10263000BB4A116000BF00BF242112681170B84965
:102640000968491CB64A116000BF00BF00BF0121E4
:10265000126811700021B24A12685170B04A1268B3
:102660009170AF4A1268D17000BFAD490968091D69
:10267000AB4A116000BF00BF062112681170A84963
:102680000968491CA64A116000BF00BF2A211268D0
:102690001170A3490968491CA14A116000BF00BF1D
:1026A0002B21126811709E490968491C9C4A1160CF
:1026B00000BF00BF00BF00BF4EE000BF00BF002052
:1026C00097490968087096490968487094490968EB
:1026D000887093490968C87000BF91480068001D60
:1026E0008F49086000BF37E0A07800F0080068BBA1
:1026F0006078012804D002280ED0032824D117E0E6
:1027000000BF2D2086490968087085480068401C74
:102710008349086000BF18E000BF2E208049096887
:1027200008707F480068401C7D49086000BF0CE0CD
:1027300000BF2F207A490968087079480068401C5A
:102740007749086000BF00E000BF00BF04E003E07D
:10275000082000F0F1F800BF00BFE06810B1E068A9
:10276000FEF7DAFC002010BD70B504460D46002CC3
:1027700061D02078132808D02078152805D020783B
:10278000162802D020781A2804D108212069FFF7E2
:10279000EBFF0CE02078192805D125B10021206934
:1027A000FFF7E2FF03E029462069FFF7DDFF002184
:1027B000E068FFF7D9FFA078042802D0A07828436A
:1027C000A070206920B1206940786070002070BD41
:1027D0002078012861D1A07800F0010060B3A668DC
:1027E0004EB3707C0F2821D2DFE800F020081A0BCE
:1027F0000C190F101B13141C15161D0000206070FF
:1028000018E000BF0120607014E000BF022060707B
:1028100010E000BF00BF00BF032060700AE000BFEF
:1028200000BF00BF00BF0320607003E0032000F082
:1028300083F800BF00BF44E0A07800F0020058B366
:10284000A6684EB3307A0F2821D2DFE800F02008C6
:102850001A0B0C190F101B13141C15161D00002049
:10286000607018E000BF0120607014E000BF02201B
:10287000607010E000BF00BF00BF032060700AE07E
:1028800000BF00BF00BF00BF0320607003E0032053
:1028900000F052F800BF00BF13E02078022802D1F8
:1028A000012060700DE02078032808D020780428EB
:1028B00005D02078052802D02078062801D10320F1
:1028C0006070002083E770B5064600213046FFF7B0
:1028D0004BFF802113480FF0E3FA134800210160F9
:1028E000124908600F480E490860344613E0254637
:1028F000EC680020E8602846FEF70EFC54B100BFEB
:102900002B2007490968087005480068401C0449E5
:10291000086000BF00BF002CE9D1002070BD00009E
:1029200008000020BC060020BC0500200400002098
:1029300000200849087070470146064801700020D1
:1029400070470448007870470146034850F821005A
:10295000704700000C0000201000002010B58021FE
:102960007E480FF09DFA7D487D490860782009680F
:10297000086000207A49096848607A49086010BDFB
:10298000024613680BB9116070471068884202D97B
:1029900048601160F8E7106807E043688B4200D98F
:1029A00005E0436803B902E040680028F5D100BFA4
:1029B00043680BB143684B60416000BFE4E70246E7
:1029C0001068884204D14B68136000234B60704745
:1029D000106806E043688B4202D14B68436002E016
:1029E00040680028F6D100BF00BFF0E700F10803FF
:1029F0005A180368083B5B1A136001604368536010
:102A00004260704730B503464A681C688C4201D169
:102A1000002009E0186804E044688C4200D102E01C
:102A200040680028F8D100BFE0B1046804440834CD
:102A30008C4217D172B10C680C440834944209D10D
:102A40000C6815682C44103405682C4404605468E4
:102A5000446014E005680C6808342C4404604C6839
:102A600044600CE05AB10C680C440834944206D11E
:102A70000D68146808342C440C6054684C6030BDF8
:102A800070B50446A4F1080529463648FFF797FFBC
:102A900029463348FFF774FF29463148FFF7B2FF54
:102AA00070BD70B500262F4805681EE0002411E0B7
:102AB00004EB44002C4901EBC000407C48B104EB1E
:102AC000440001EBC000416905F10800814200D1DA
:102AD00002E0641C082CEBDB00BF2E466D68082C5E
:102AE00003D106F10800FFF7CBFF002DDED170BD4A
:102AF00070B50546E81C20F003051948046800E09D
:102B0000646824B105F1080021688142F8D974B9DC
:102B1000FFF7C7FF1248046800E0646824B105F1BC
:102B2000080021688142F8D30CB9002070BD294605
:102B30002046FFF75BFF21460948FFF740FF0020D2
:102B4000606021460748FFF71BFF294604F1080093
:102B50000FF0A6F904F10800E8E700003C030020AC
:102B60004C00002050000020FC04002010B504465A
:102B7000204601F00BFB00F025F801F04FFEFFF7B7
:102B8000D7FEFFF7EBFE002010BD0D480068704730
:102B900010B50446204601F0F9FA00F013F8FFF7EB
:102BA000C7FE002010BD10B5044600F00BF801F080
:102BB00035FEFFF7BDFEFFF7D1FE002010BD00007F
:102BC000BC05002010B54FF4A0715E480FF068F905
:102BD000002010BD0246002107E001EB8100594BA7
:102BE00013F8200000B902E0491C1029F5DB00BFF2
:102BF000102901D10020704701EB8100514B03F8EF
:102C0000202001EB810003EB8000F4E72DE9F04187
:102C10000746002400260025384601F061FE0446E0
:102C20006CB9384601F098FE044634B9384601F0D4
:102C3000FDFE044624B1042602E0022600E001263F
:102C4000D4B10120FFF7C6FF05462DB90620FFF7D6
:102C500073FE0020BDE8F081012E04D0022E04D0C6
:102C6000042E06D103E0AC6003E0AC6001E0AC6090
:102C700000BF00BFAE7002E00D20FFF75DFE2846EA
:102C8000E8E770B505460220FFF7A4FF044624B923
:102C90000620FFF751FE002070BD25712046FBE79E
:102CA00070B505460320FFF795FF044624B90620BA
:102CB000FFF742FE002070BD65602046FBE770B55F
:102CC00005460420FFF786FF044624B90620FFF7D7
:102CD00033FE002070BD65602046FBE770B50546F9
:102CE0000520FFF777FF044624B90620FFF724FEEE
:102CF000002070BD28460FF0F6F8461C3046FFF75E
:102D0000F7FE606028460FF0EEF806463246294688
:102D100060680FF0DCF828460FF0E5F800226168E3
:102D20000A542046E5E770B505460620FFF752FF36
:102D3000044624B90620FFF7FFFD002070BD656042
:102D40002046FBE7BC030020704700BFF84800683E
:102D500010F8080CF649096811F8041C0844F449F5
:102D6000096801F8080CF2480068001FF049086083
:102D700000BF704700BFEE48006830F8080CEC490F
:102D8000096831F8041C084400B2E949096821F8CF
:102D9000080CE7480068001FE549086000BF70475D
:102DA00000BFE348006850F8080CE149096851F891
:102DB000041C0844DE49096841F8080CDC48006836
:102DC000001FDB49086000BF704700BFD84800689B
:102DD00010F8080CD649096811F8041C401AD449A7
:102DE000096801F8080CD2480068001FD049086043
:102DF00000BF704700BFCE48006830F8080CCC49CF
:102E0000096831F8041C401A00B2C949096821F860
:102E1000080CC7480068001FC549086000BF70471C
:102E200000BFC348006850F8080CC149096851F850
:102E3000041C401ABE49096841F8080CBC480068E7
:102E4000001FBB49086000BF704700BFB84800685A
:102E500010F8080CB649096811F8041C90FBF1F051
:102E6000B349096801F8080CB1480068001FB0496F
:102E7000086000BF704700BFAD48006830F9080C1B
:102E8000AB49096831F9041C90FBF1F000B2A84984
:102E9000096821F8080CA6480068001FA4490860CA
:102EA00000BF704700BFA248006850F8080CA04956
:102EB000096851F8041C90FBF1F09D49096841F83C
:102EC000080C9B480068001F9949086000BF7047C4
:102ED00000BF9748006810F8080C9549096811F878
:102EE000041C90FBF1F201FB12009149096801F802
:102EF000080C8F480068001F8D49086000BF7047AC
:102F000000BF8B48006830F9080C8949096831F91D
:102F1000041C90FBF1F201FB12008549096821F8BD
:102F2000080C83480068001F8149086000BF704793
:102F300000BF7F48006850F8080C7D49096851F8C7
:102F4000041C90FBF1F201FB12007949096841F879
:102F5000080C77480068001F7549086000BF70477B
:102F600000BF7348006810F8080C7149096811F82F
:102F7000041C48436E49096801F8080C6C48006855
:102F8000001F6B49086000BF704700BF68480068B9
:102F900030F8080C6649096831F8041C484300B24F
:102FA0006349096821F8080C61480068001F6049FE
:102FB000086000BF704700BF5D48006850F8080C0B
:102FC0005B49096851F8041C48435949096841F8AC
:102FD000080C57480068001F5549086000BF70473B
:102FE00000BF5348006810F8080C5149096811F8EF
:102FF000041C08404E49096801F8080C4C48006858
:10300000001F4B49086000BF704700BF4848006878
:1030100030F9080C4649096831F9041C0840444954
:10302000096821F8080C42480068001F4049086000
:1030300000BF704700BF3E48006850F8080C3C498C
:10304000096851F8041C08403949096841F8080C1E
:1030500037480068001F3649086000BF704700BF4E
:103060003348006810F8080C3149096811F8041C4D
:1030700008432F49096801F8080C2D480068001F13
:103080002B49086000BF704700BF2948006830F92D
:10309000080C2749096831F9041C084324490968C8
:1030A00021F8080C22480068001F2149086000BF71
:1030B000704700BF1E48006850F8080C1C4909689A
:1030C00051F8041C08431A49096841F8080C1848CB
:1030D0000068001F1649086000BF704700BF144811
:1030E000006810F8080C1249096811F8041C4840DF
:1030F0000F49096801F8080C0D480068001F0C49C9
:10310000086000BF704700BF0948006830F9080C2C
:103110000749096831F9041C48400549096821F844
:10312000080C03480068001F0149086000BF704791
:103130005800002000BFF948006850F8080CF74913
:10314000096851F8041C4840F449096841F8080C22
:10315000F2480068001FF149086000BF7047EF485F
:10316000006810F8040CC043EC49096801F8040C2D
:103170007047EA48006830F9040CC043E749096821
:1031800021F8040C7047E548006850F8040CC0436F
:10319000E249096841F8040C704700BFDF48006845
:1031A00010F8080CDD49096811F8041C8840DB4957
:1031B000096801F8080CD9480068001FD749086061
:1031C00000BF704700BFD548006830F8080CD349ED
:1031D000096811F8041C884000B2D049096821F838
:1031E000080CCE480068001FCC49086000BF70473B
:1031F00000BFCA48006850F8080CC849096811F8AF
:10320000041C8840C549096841F8080CC348006897
:10321000001FC249086000BF704700BFBF48006878
:1032200010F8080CBD49096811F8041C0841BB4995
:10323000096801F8080CB9480068001FB749086020
:1032400000BF704700BFB548006830F9080CB349AB
:10325000096811F8041C0841B049096821F8080CF4
:10326000AE480068001FAD49086000BF704700BF4E
:10327000AA48006850F8080CA849096811F8041C0D
:103280000841A649096841F8080CA4480068001FD5
:10329000A249086000BF7047A148006800789F49B4
:1032A000096808709D480068001D9C4908609C489A
:1032B0000068401C9A490860704799480068007887
:1032C00097490968497840EA012000B293490968A2
:1032D000088092480068001D904908609048006886
:1032E000801C8F49086070478D48006800788C49C1
:1032F0000968497840EA012089490968897840EAE3
:10330000014087490968C97840EA01608349096832
:10331000086082480068001D804908608048006895
:10332000001D7F49086070477D49096809787C4A1B
:103330001268527841EA0221794A1268927841EA89
:103340000241774A1268D27841EA02600178734AF2
:103350001268117071490968091D704A116070493D
:103360000968091D6E4A116070476C49096851F877
:10337000040C0178694A126802F8041C7047684915
:1033800009680978664A1268527841EA0221644A5B
:103390001268927841EA0241614A1268D27841EAA1
:1033A000026001885D4A126811805C490968091D44
:1033B0005A4A11605A490968091D594A11607047F3
:1033C0005649096851F8040C0188544A126822F8D9
:1033D000041C7047524909680978514A12685278AA
:1033E00041EA02214E4A1268927841EA02414C4A6F
:1033F0001268D27841EA0260484A01681268116096
:1034000046490968091D454A116045490968091D71
:10341000434A116070474149096851F8040C3F4A1A
:103420000168126842F8041C70473C48006810F8B4
:10343000040C3A49096851F8081C087037480068BC
:10344000001F3649086070473448006830F8040CA3
:103450003249096851F8081C088030480068001F8C
:103460002E49086070472D48006850F8040C2B491D
:10347000096851F8081C086028480068001F27499F
:103480000860704725480068001F2449086070479D
:1034900010B5A4B022480068007813902048006856
:1034A000401C1F490860002012901C480068001F43
:1034B0001A49086011E01948006802681398401E14
:1034C0001299401A14A941F8202014480068001FDE
:1034D000124908601298401C1290DDE912018842DE
:1034E000E9D30E480068006811901398112872D231
:1034F000DFE800F0090E18212D3B4B5D7288A0BA61
:10350000D6F8F6F5F400002011998847109078E17C
:1035100014980F9011998847109072E1580000207C
:103520005C00002015980F9014980E90119A0F9936
:103530009047109065E116980F9015980E9014988A
:103540000D90119BDDE90E129847109059E11798E4
:103550000F9016980E9015980D9014980C90119C41
:103560000DA90EC9A04710904BE11898009017982C
:103570000F9016980E9015980D9014980C90119C21
:103580000DA90EC9A04710903BE1DDE91801CDE976
:10359000000117980F9016980E9015980D9014989A
:1035A0000C90119C0DA90EC9A047109029E1DDE9EE
:1035B00019211898CDE90121009017980F901698BD
:1035C0000E9015980D9014980C90119C0DA90EC991
:1035D000A047109015E111E1DDE9193218991B9807
:1035E000CDE901320091039017980F9016980E9034
:1035F00015980D9014980C90119C0DA90EC9A04718
:103600001090FEE0DDE91923DDE91B10CDE901236F
:10361000CDE903101898009017980F9016980E9007
:1036200015980D9014980C90119C0DA90EC9A047E7
:103630001090E6E0DDE91A23DDE91C10CDE9022354
:10364000CDE90410DDE91801CDE9000117980F90CC
:1036500016980E9015980D9014980C90119C0DA929
:103660000EC9A0471090CCE0DDE91C321B991E98D2
:10367000CDE9043203910690DDE919211898CDE9CE
:103680000121009017980F9016980E9015980D90A4
:1036900014980C90119C0DA90EC9A0471090B0E091
:1036A000DDE91C23DDE91E10CDE90423CDE9061078
:1036B000DDE9193218991B98CDE901320091039088
:1036C00017980F9016980E9015980D9014980C90CE
:1036D000119C0DA90EC9A047109092E068E043E04C
:1036E00020E0FFE7DDE91E321D992098CDE9063282
:1036F00005910890DDE91923DDE91B01CDE90123DE
:10370000CDE903011898009017980F9016980E9025
:1037100015980D9014980C90119C0DA90EC9A047F6
:1037200010906EE0DDE91E13DDE92002CDE90613FD
:10373000CDE90802DDE91A23DDE91C01CDE9022308
:10374000CDE90401DDE91801CDE9000117980F90DA
:1037500016980E9015980D9014980C90119C0DA928
:103760000EC9A04710904CE0DDE92031229A1F9845
:10377000CDE908310A920790DDE91B23DDE91D013F
:10378000CDE90323CDE90501DDE919211898CDE93B
:103790000121009017980F9016980E9015980D9093
:1037A00014980C90119C0DA90EC9A047109028E008
:1037B000DDE9213220992398CDE9093208910B9057
:1037C000DDE91D321C991F98CDE90532049107905F
:1037D000DDE91823DDE91A10CDE90023CDE9021057
:1037E00017980F9016980E9015980D9014980C90AD
:1037F000119C0DA90EC9A047109002E00020109066
:1038000000BF00BF054910980968086003480068B8
:10381000001D0249086024B010BD000058000020BF
:103820002DE9F04107460C4616463846FFF7D2F917
:1038300005461CB115B12C61E66002E00E20FFF7D1
:103840007BF82846BDE8F0812DE9F0410546284681
:1038500000F009FB044614B90020BDE8F0812746BA
:10386000281D00F0C3FF06460EE0284600F0FBFAD4
:10387000E060E06808B1E46802E00520FFF75CF86A
:10388000281D00F0B3FF0646032EEED0012169711A
:103890003846E2E710B50446204600F0E4FA10BDD1
:1038A00070B504460D46201D00F0A0FF06461F2EF1
:1038B00004D00120FFF740F801216171102204F1CA
:1038C000140128460EF003FB002070BD70B586B0D1
:1038D0000446201D00F08AFF05461C2D2DD006DC75
:1038E000012D15D01A2D2CD01B2D37D121E01D2DE7
:1038F0002BD01E2D2ED01F2D30D10121617101A999
:103900002046FFF7CDFF01A8FFF780F906B070BD94
:103910002046FFF7BFFF0646201D00F067FF054663
:10392000022D04D00120FFF707F801216171304614
:10393000ECE72069FFF7B4F9E8E72069FFF7BFF982
:10394000E4E7207CFFF79DF9E0E704F11400FFF7BE
:10395000C5F9DBE70020FFF7E6F9D7E70120FEF71E
:10396000EBFF00BF00BF0020D0E72DE9F041044687
:103970002046FFF7ABFF0746201D00F037FF054646
:1039800039E0012D12D0072D02D0092D2DD106E0EE
:10399000002239461720FFF743FF074626E00022A2
:1039A00039461820FFF73CFF07461FE00026201D80
:1039B00000F01CFF0546022D10D001216171204648
:1039C000FFF742FF0646201D00F010FF0546022DBE
:1039D00004D00120FEF7B0FF012161713246394663
:1039E0001220FFF71DFF074600E000BF00BF201DAB
:1039F00000F0FCFE0546072DC3D0092DC1D0012DD6
:103A0000BFD0012161713846BDE8F0812DE9F04158
:103A10000446201D00F0EAFE0546681F0C284ED221
:103A2000DFE800F039060D17254D4D4D434D4D2F64
:103A3000204600F0C7F806463046BDE8F081204633
:103A400000F0C0F80646002231461520FFF7E8FED8
:103A5000F3E7204600F0B6F806460020FFF72FF9FE
:103A60000746324639460820FFF7DAFEE5E72046EA
:103A700000F0A8F80646002231461620FFF7D0FED7
:103A8000DBE7204600F09EF80646002231460F2074
:103A9000FFF7C6FED1E7204600F094F80646002264
:103AA00031461920FFF7BCFEC7E7204600F08AF830
:103AB0000646002231461A20FFF7B2FEBDE701217B
:103AC00061712046FFF751FFB7E770B50546002644
:103AD000281D00F08BFE0446142C07D0152C05D0B1
:103AE000162C03D0172C01D0182C14D1A4F11400DB
:103AF00005280ED2DFE800F0030507090B000126B8
:103B000008E0032606E0062604E0092602E00C266B
:103B100000E050E029E0192C26D1281D00F066FEB7
:103B20000446142C07D0152C05D0162C03D0172CC6
:103B300001D0182C12D1152C06D0162C06D0172C1B
:103B400006D0182C08D105E0042606E0072604E07C
:103B50000A2602E00D2600E02DE006E00121697151
:103B60000220FEF7E9FE00E025E0281D00F03EFE01
:103B70000446052C1BD10E2E16D2DFE806F01507E1
:103B800015090A150C0D150F1015121302260DE05C
:103B900000BF05260AE000BF082607E000BF0B268D
:103BA00004E000BF0E2601E0022600BF01E0012173
:103BB0006971304670BD012169710320FEF7BCFEBA
:103BC0003046F7E72DE9F0410446201D00F00EFED7
:103BD0000646012E17D12046FFF777FF0746201D26
:103BE00000F004FE0646022E04D00120FEF7A4FEDB
:103BF000012161712046FFF7E5FF05461DB16F7099
:103C00002846BDE8F081012161712046FFF7FEFEE4
:103C1000F7E72DE9F04104462046FFF7D3FF0746BA
:103C2000201D00F0E3FD05462DE02046FFF7CAFF0A
:103C300006461EB90520FEF77FFE20E0052D04D0C4
:103C40000A2D09D00B2D15D10DE032463946092039
:103C5000FFF7E6FD074611E0324639460A20FFF736
:103C6000DFFD07460AE0324639460B20FFF7D8FD54
:103C7000074603E00520FEF75FFE00BF00BF201DE2
:103C800000F0B4FD0546052DCFD00A2DCDD00B2D6B
:103C9000CBD0012161713846BDE8F0812DE9F041BA
:103CA00004462046FFF7B5FF0746201D00F09EFDA5
:103CB000064623E02046FFF7ACFF05461DB9052068
:103CC000FEF73AFE16E0062E08D0082E0DD12A4641
:103CD00039460820FFF7A4FD07460AE02A46394680
:103CE0000720FFF79DFD074603E00520FEF724FEB1
:103CF00000BF00BF201D00F079FD0646082ED9D078
:103D0000062ED7D0012161713846BDE8F0812DE93A
:103D1000F04104462046FFF7C1FF0746201D00F092
:103D200065FD064624E02046FFF7B8FF05461DB9AD
:103D30000520FEF701FE17E0112E02D0122E0ED143
:103D400006E02A4639461020FFF76AFD07460AE0DA
:103D50002A4639461120FFF763FD074603E0052098
:103D6000FEF7EAFD00BF00BF201D00F03FFD064644
:103D7000112ED8D0122ED6D0012161713846BDE85F
:103D8000F0812DE9F04104462046FFF7C0FF0746C9
:103D9000201D00F02BFD064612E02046FFF7B7FF7E
:103DA00005461DB90520FEF7C7FD05E02A46394640
:103DB0000C20FFF735FD0746201D00F017FD0646D5
:103DC0000D2EEAD0012161713846BDE8F0812DE960
:103DD000F04104462046FFF7D4FF0746201D00F0BF
:103DE00005FD064612E02046FFF7CBFF05461DB94C
:103DF0000520FEF7A1FD05E02A4639460E20FFF713
:103E00000FFD0746201D00F0F1FC06460F2EEAD0FC
:103E1000012161713846BDE8F0812DE9F041044689
:103E20002046FFF7D4FF0746201D00F0DFFC0646C2
:103E300012E02046FFF7CBFF05461DB90520FEF72F
:103E40007BFD05E02A4639460D20FFF7E9FC0746D1
:103E5000201D00F0CBFC06460E2EEAD00121617138
:103E60003846BDE8F0812DE9F04104462046FFF7D1
:103E7000D4FF0646201D00F0B9FC05460C2D0AD1E2
:103E80002046FFF7F0FF07463A4631461320FFF77A
:103E9000C7FCBDE8F081012161713046F9E72DE9E9
:103EA000F04786B004464FF0000800262046FFF792
:103EB0000CFE824601A92046FFF7F2FC40B95146AC
:103EC00001A800F0B2FC002802DA0420FEF734FD5D
:103ED000201D00F08BFC05462846032D04D0042845
:103EE0007ED00C287DD16AE001A92046FFF7D8FCDE
:103EF00040B9514601A800F098FC002802DA0420DD
:103F0000FEF71AFD201D00F071FC05460C2D14D1A2
:103F10002046FFF7A8FF07467FB101A8FEF776FE0F
:103F200081463A4649461320FFF77AFC0646B046DA
:103F3000201D00F05BFC054600BF33E001A92046D0
:103F4000FFF7AEFC40B9514601A800F06EFC002816
:103F500002DA0420FEF7F0FC201D00F047FC0546C5
:103F60000C2D1FD12046FFF77EFF0746D7B101A8D1
:103F7000FEF74CFE8146B8F1000F07D03A4649469D
:103F80001320FFF74DFCF060F66806E03A4649461C
:103F90001320FFF745FC0646B046201D00F026FC26
:103FA000054600BF032DC9D0042D04D00120FEF723
:103FB000C3FC01216171404606B0BDE8F087204690
:103FC000FFF751FF07468FB101A8FEF71FFE81469C
:103FD0003A4649461320FFF723FC0646B04601E067
:103FE00043E044E0201D00F001FC054632E001A959
:103FF0002046FFF755FC40B9514601A800F015FCDA
:10400000002802DA0420FEF797FC201D00F0EEFBEA
:1040100005460C2D1ED12046FFF725FF0746CFB1E0
:1040200001A8FEF7F3FD8146B8F1000F07D03A462C
:1040300049461320FFF7F4FBF060F66806E03A46C5
:1040400049461320FFF7ECFB0646B046201D00F062
:10405000CDFB0546032DCAD0042D04D00120FEF768
:104060006BFC012161714046A6E74046A4E70220AF
:10407000FEF762FC00209FE770B504460026201D75
:1040800000F0B4FB0546042D10D0012161712046DB
:10409000FFF700FC0646201D00F0A8FB0546042D96
:1040A00004D00120FEF748FC01216171304670BD4B
:1040B0002DE9F04104460F4600252760201D2168A8
:1040C00000F06CF8201D00F091FB064657E01F2E13
:1040D00013D101216171D4F8980038B12046FFF75F
:1040E000CBFFE860E86838B1ED6805E02046FFF7EF
:1040F000C3FF0546C4F8985038E0142E09D0152E99
:1041000007D0162E05D0172E03D0182E01D0192E49
:1041100013D101216171D4F8980038B12046FFF71E
:10412000BEFEE860E86800B3ED681EE02046FFF7D9
:10413000B6FE0546C4F8985017E001216171D4F825
:10414000980060B12046FFF797FFE860E86808B183
:10415000ED680AE0201D00F049FB064605E0204618
:10416000FFF78AFF0546C4F8985000BF00BFD4F897
:10417000980000B907E0201D00F038FB0646212E0C
:1041800001D0202EA3D100BFBDE8F08110B50446B8
:104190009C2120460DF084FE002010BD70B5044621
:1041A0000D46942120460DF07BFEC4F8905070BD62
:1041B000017801B17047416801B9FBE74168491EC8
:1041C000416000BFF6E710B50446207808B1002032
:1041D00010BDD4F890000DF086FE6168884205D0CD
:1041E0006168D4F89000405C0A2804D10120207056
:1041F00000206060ECE76168481C6060D4F89000C3
:10420000405CE5E72DE9FC4704460D4616464FF0B5
:10421000010827464FF0000C022E09D0082E04D0CA
:10422000102E08D14FF0040806E04FF0030803E019
:104230004FF0010800E000BF00BF002204E04FF093
:1042400000094DF82290521C022AF8DB21E017F8F1
:10425000011B612903DB662901DC573906E041298E
:1042600003DB462901DC373900E0303900220CE05D
:104270005DF8223003FA08F949EA01094DF8229065
:10428000C8F1200923FA09F1521C022AF0DB0CF1D3
:10429000010CAC45DBDB0098BDE8FC872DE9F04361
:1042A000A1B006464FF0000801AD3046FFF78BFF86
:1042B0000446302C60D13046FFF785FF0446782C49
:1042C00001D0582C17D110273046FFF77CFF044649
:1042D00005E005F8014B3046FFF775FF0446302C2A
:1042E00001DB392CF5DD44F0200061381A28F0D3C9
:1042F0000020287033E0622C01D0422C12D102271A
:104300003046FFF760FF044605E005F8014B3046F4
:10431000FFF759FF0446302CF7D0312CF5D00020A0
:1043200028701CE0302C10DB372C0EDC082705E051
:1043300005F8014B3046FFF746FF0446302C01DB01
:10434000372CF5DD0020287009E03046FFF730FFFC
:104350000020F0601B20307221B0BDE8F08301A87E
:104360000DF0C1FD81463A46494601A8FFF74AFFD4
:10437000F0601B20307212E009E0A4F1300008EB7D
:10438000880100EB41083046FFF71DFF0446302C42
:1043900001DB392CF1DDC6F80C801B2030724C2C6F
:1043A00002D06C2C03D100BF1C20307203E03046D9
:1043B000FFF7FEFE00BF00BF00BFCDE770B50646A9
:1043C00000253046FFF7FFFE04466E2C16D00CDCAD
:1043D000612C1FD004DC222C1ED0582C40D11EE0B2
:1043E000622C11D0662C3BD112E0722C0ED0742CB2
:1043F00006D0762C06D0782C32D10FE00A2545E085
:10440000092543E00B2541E008253FE00D253DE06F
:104410000C253BE0072539E0222537E000BF0025C9
:104420003046FFF7D0FE04460DE0412C02DAA4F13D
:10443000300002E044F02000573800EB051530460C
:10444000FFF7C1FE0446302C01DB392CEDDD44F0D2
:10445000200061380628E8D33046FFF7A9FE15E0B2
:10446000A4F13000082810D2002507E004EBC500B5
:10447000A0F130053046FFF7A6FE0446A4F1300057
:104480000828F3D33046FFF793FE00BF00BF28464D
:1044900070BD70B5044604F110051BE02046FFF71F
:1044A00092FE0646207820B10A20FEF745FA002049
:1044B00070BD5C2E04D12046FFF780FFC6B206E037
:1044C000222E04D10020287004F11000F0E705F836
:1044D000016B00BF04F11000281A8028DEDB0020E9
:1044E000E6E7F8B506466D463046FFF76CFE044633
:1044F0005C2C38D13046FFF766FE04466E2C0ED099
:1045000006DC272C17D05C2C13D0622C15D10CE0C4
:10451000722C0CD0742C04D0762C0ED103E00A241B
:1045200020E009241EE00B241CE008241AE00D24DE
:1045300018E05C2416E0272414E005E03046FFF77D
:1045400042FE044605F8014B302C01DB392CF5DD29
:104550003046FFF72DFE0020287028460DF000FDA4
:10456000C4B200BF00BF3046FFF72DFE272807D09A
:104570003046FFF71DFE0920FEF7DEF92046F8BDA4
:104580002046FCE770B505460E4600240EE0A24921
:1045900051F8340031460DF0ADFC30B99E4800EBC7
:1045A000C40000792872012070BD641C082CEED371
:1045B0000020F9E72DE9F04105460E46374628462A
:1045C000FFF701FE0446287818B14FF0FF30BDE830
:1045D000F08100203070302C07DB392C05DC2846B8
:1045E000FFF7E6FD4FF0FF30F1E705E007F8014B7C
:1045F0002846FFF7E8FD0446612C01DB7A2C09DD33
:10460000412C01DB5A2C05DD302C01DB392C01DD7E
:104610005F2C02D128780028E8D000202870284696
:10462000FFF7C6FD0020387000BFD0E770B5054623
:1046300000BF2846FFF7C7FD04462028F9D0092C03
:10464000F7D00D2CF5D02846FFF7B2FD70BD70B540
:1046500004462046FFF7EAFF04F110012046FFF769
:10466000A9FF207810B12120207270BD207C48B1B4
:1046700004F110012046FFF785FF002801D11F201B
:104680002072B1E02046FFF79EFD05462D2D40D05B
:104690000BDCA5F122000B2871D2DFE800F08D932E
:1046A000937A2586191C282B1F003E2D5ED008DC2E
:1046B0002F2D3DD03B2D14D03C2D48D03D2D5ED12B
:1046C00070E05E2D6BD07C2D60D07E2D7AD163E0C2
:1046D0000120207287E00220207284E003202072F3
:1046E00081E0042020727EE00D2020727BE0052016
:1046F000207278E02046FFF766FD05462B2D02D19B
:104700000720207204E02046FFF752FD06202072A9
:1047100069E02046FFF757FD05462D2D02D10920FF
:10472000207204E02046FFF743FD082020725AE083
:104730002046FFF748FD05462F2D02D1212020728B
:1047400004E02046FFF734FD0A2020724BE02046AB
:10475000FFF739FD05463C2D02D11120207204E0FF
:104760002046FFF725FD202020723CE02046FFF781
:104770002AFD05463E2D03D11220207205E021E0DE
:104780002046FFF715FD202020722CE00E2020721D
:1047900029E00B20207226E01020207223E00F2059
:1047A000207220E00C2020721DE02046FFF799FEC9
:1047B00020731A20207216E02046FFF76AFE1D20A3
:1047C000207210E0302D08DB392D06DC2046FFF783
:1047D000EFFC2046FFF762FD05E00B20FEF7ACF88A
:1047E0002020207200BF00BF00BF3EE710B5044686
:1047F000607810B10020607002E02046FFF727FFCC
:10480000207A10BD70B505460C46102205F1100146
:1048100020460DF05CFB70BDB823010810B5C02127
:1048200061480DF03DFB002010BD2DE9F04106462A
:104830000F464FF0FF35002418E004EB44015A4ABC
:1048400002EBC100102231460DF06BFB18B94FF09E
:10485000FF30BDE8F08104EB4400534901EBC00098
:10486000407C10B9681C00B92546641C082CE4DBA8
:10487000681C10B94FF0FF30EBE705EB45014A4AE1
:1048800002EBC100102231460DF021FB05EB450182
:10489000454A02EBC1014F742846DAE770B5054678
:1048A00000240BE004EB44013F4A02EBC10010225C
:1048B00029460DF036FB00B902E0641C082CF1DB40
:1048C00000BF082C02D14FF0FF3070BD04EB440153
:1048D000354A02EBC10018210DF0E2FA0020F4E79E
:1048E00070B5054600240BE004EB44012E4A02EBB0
:1048F000C100102229460DF014FB00B902E0641C2F
:10490000082CF1DB00BF082C01D1002070BD04EBA6
:104910004400254901EBC000F8E72DE9F0410746C6
:104920000D461646142008F051FC044694B10020B0
:104930002060384607F085FF6060257326611B48BC
:10494000006810B91948046004E018480068206045
:1049500016480460BDE8F0812DE9F0410646144890
:10496000056808E0314628680DF0C4FA10B92846F9
:10497000BDE8F08110350F4800688542F2D30B483E
:1049800004680CE030460DF0AEFA07463A46314670
:1049900060680DF0C6FA08B9201DE9E72468002C0C
:1049A000F0D10020E4E70000FC04002054000020C7
:1049B000700000207400002010B5304830490860B5
:1049C0003048314908600BE02F48006804782E48D1
:1049D0000068401C2C4908602C4951F8240080478D
:1049E000294800682749401A04D427480068401A1B
:1049F0008028E9DB10BD70B506460D46102008F092
:104A0000E5FB04468CB100202060304607F019FF1A
:104A10006060E5601E48006810B91D48046004E04D
:104A20001B48006820601A48046070BD2DE9F04101
:104A300006461848056808E0314628680DF05AFA1D
:104A400010B92846BDE8F0810C351348006885424E
:104A5000F2D30F4804680CE030460DF044FA0746E4
:104A60003A46314660680DF05CFA08B9201DE9E766
:104A70002468002CF0D10020E4E70000BC050020F1
:104A800058000020BC0600205C000020F422010831
:104A900060000020680000206C00002070B5FDA1BF
:104AA000FE480DF035FAFD4807F045FEC0F18004E0
:104AB000FA4807F040FEF94945182146284602F019
:104AC000A4F9F7A1F5480DF0F6F9F44870BD70B5FA
:104AD00004460D46F348006820B95722F249F3A076
:104AE00008F02FFAEF48006806F053FB002070BD75
:104AF00070B505460024EB48006820B96A22F049E9
:104B0000EAA008F01EFA284605F0B6FF044624B9CC
:104B10002946ECA008F015F970BDE2480068D0F80D
:104B2000A402A04200D1F7E740F24311204606F06C
:104B300012F848BBDB480068D0F8A40260B1D9493C
:104B40000968D1F8A40206F04AF8D6490968D1F8F4
:104B5000A402002106F0C6F85021D248006800F5F2
:104B600014700DF09DF90020CE49096881F8A0026B
:104B7000CC49096881F8A102CA480068C0F8A4427B
:104B8000D849204606F0AEF800BFC5E710B5C548C5
:104B9000006820B99122D449C4A008F0D2F9C148D4
:104BA0000068D0F8A40210BD10B50446BD480068E6
:104BB00020B9A022CD49BDA008F0C3F9B9490968C0
:104BC0004C7710BD10B5B748006820B9AD22C84970
:104BD000B6A008F0B6F9B3480068407F00F00100C5
:104BE00010BD70B50446C3A008F0ABF82046FCF732
:104BF00036F8FFF753FF054622462946BEA008F0C7
:104C0000A0F870BD2DE9F04704460F46A54800689E
:104C1000407F00F0010010B1B6A008F092F83946CC
:104C20002046FFF745FAFDF78CFE20B9D4F898002E
:104C3000FDF749FE09E0FDF784FE0646FDF784FE18
:104C400005462946A6A008F07CF8FDF77AFE28BBA9
:104C5000FFF7B2FEFDF799FFC6B2202E12DD7E2EC1
:104C600010DAFDF792FF8146FDF78FFF8246FDF7D0
:104C70008CFF00F0FF084B4652464146A0A008F0CA
:104C800060F80AE0FDF781FF8046FDF77EFF814670
:104C9000424649469FA008F054F800BF2046FDF761
:104CA00077FFBDE8F08770B504469EA008F049F88C
:104CB000FFF7F4FE054604F5147229468EA008F0AD
:104CC00040F8002070BD70B5044694F8A00200289A
:104CD00047D0208C05282ADB00250EE06A1C02EB59
:104CE000820304F1220202EB031105EB850302EBC0
:104CF000031050220DF0BBF86D1C042DEEDB05EB0C
:104D0000850204F1220101EB021050210DF0C8F8D8
:104D100094F8A02205EB850304F1220101EB0310B6
:104D200004F514710DF0A3F80520208419E0218CFE
:104D300001EB810204F1220101EB021050210DF080
:104D4000AFF894F8A022218C01EB810304F1220139
:104D500001EB031004F514710DF089F8208C401C50
:104D60002084208CE08370BD1CB501204D4909686A
:104D700048774C48006800F5DA70FDF7F7FE4948BF
:104D80000068D0F8A402F8B908F04DF84549096860
:104D9000C1F8A40243480068D0F8A40228B94FF42F
:104DA000C972624962A008F0CCF83E490968D1F89E
:104DB000A4024C4905F096FF3A490968D1F8A402CB
:104DC00040F2431105F0C7FEFFF768FE044607F006
:104DD000B8FFFEE24FF0FF313248006806F04DF9AF
:104DE00000B1F6E2E7E29DF804001B2804D101209F
:104DF0002C4909680877DEE22A480068007F01280C
:104E00000DD19DF804005B2804D1022025490968D2
:104E10000877D0E200202349096808771DE121487E
:104E20000068007F0228F9D100201E490968087730
:104E30009DF8040041282BD11A480068C08B002837
:104E400007DD18480068C08B401E16490968C883F2
:104E500004E0002013490968C883ACE211480068E7
:104E6000C08B00EB80020F480068223000EB02117B
:104E700050220C48006800F514700CF0F8FF094847
:104E8000006800F514700DF02EF8C0B2054957E027
:104E900062E0000066696E7368200000B4170020AD
:104EA0003E00000064000020F82301087368656C70
:104EB0006C20213D2052545F4E554C4C00000000A8
:104EC0000524010866696E73683A2063616E206E7E
:104ED0006F742066696E64206465766963653A2044
:104EE00025730A00CF4A0008162401082724010868
:104EF000362401080A000000257325730000000015
:104F000009272563272C2025642C2030782530386C
:104F1000780A00000925642C203078253038780A7A
:104F2000000000001B5B324B0D000000452401080F
:104F30007368656C6C2D3E6465766963650000007E
:104F4000096881F8A002F749096881F8A102F548CB
:104F50000068FFF7A8FE2EE29DF80400422842D127
:104F6000F0480068C18BEF480068008C401E814209
:104F700007DAEC480068C08B401CEA490968C8831E
:104F80000CE0E8480068008C38B1E6480068008C06
:104F9000401EE4490968C88300E00CE2E14800686B
:104FA000C08B00EB8002DF480068223000EB02116A
:104FB0005022DC48006800F514700CF058FFD94806
:104FC000006800F514700CF08EFFC0B2D549096876
:104FD00081F8A002D349096881F8A102D14800688C
:104FE000FFF761FEE7E19DF80400442811D1CD48A8
:104FF000006890F8A10258B1CBA007F0A2FEC94802
:10500000006890F8A102401EC649096881F8A10213
:10501000D1E19DF8040043281FD1C248006890F8F0
:10502000A102C049096891F8A012884214DABD486B
:10503000006890F8A122BB48006800F51470815CFC
:10504000BAA007F07EFEB748006890F8A102401CA5
:10505000B449096881F8A102ADE19DF804000D286A
:1050600017D1B049096801236A46D1F8A40200218A
:1050700005F0D7FD012809D19DF8000010B90D20D9
:10508000019005E09DF80000019001E00D200190E5
:10509000A2E09DF80400092821D1002403E0A2A089
:1050A00007F04FFE641C9F48006890F8A102A042E0
:1050B000F5DC9C48006800F51470FFF792FD9948F4
:1050C000006800F514700CF00EFFC0B29549096835
:1050D00081F8A0029349096881F8A1026BE19DF86B
:1050E00004007F2803D09DF80400082874D18D485F
:1050F000006890F8A10200B95DE18A48006890F864
:10510000A002401E8749096881F8A002854800680E
:1051100090F8A102401E8349096881F8A1028148E4
:10512000006890F8A0027F49096891F8A1128842AE
:1051300043DD7C4B1B6893F8A0327A4D2D6895F8BF
:10514000A1525A1B774B1B6893F8A1325B1C754D1B
:105150002D6805F514755919724B1B6893F8A15207
:10516000704B1B6803F51473E81807F0B0FA0021C0
:105170006C48006890F8A0226A48006800F5147036
:1051800081546848006890F8A1226648006800F5DC
:105190001470111866A007F0D4FD6248006890F8FA
:1051A000A14203E060A007F0CCFD641C5D480068EC
:1051B00090F8A002A042F5DA0CE05FA007F0C1FD74
:1051C00000215848006890F8A0225648006800F571
:1051D00014708154EFE0FFE79DF804000D2803D020
:1051E0009DF804000A283CD14E480068FFF76BFD8B
:1051F0003B214C48006890F8A0224A48006800F51E
:10520000147081544748006890F8A00248B145489E
:10521000016801F51471006800F5DA70FFF7F2FC1F
:1052200009E040480068407F00F0010018B1AFF28B
:105230003C3007F086FDFFF731FC044607F081FDA6
:1052400050213848006800F514700CF029FE002049
:105250003449096881F8A0023249096881F8A1023D
:10526000B5E03048006890F8A002502804DB002028
:105270002C49096881F8A0022A48006890F8A10228
:105280002849096891F8A012884259DA254B1B6811
:1052900093F8A032234D2D6895F8A1525A1B214B4B
:1052A0001B6893F8A1521F4B1B6803F51473E91890
:1052B0001C4B1B6893F8A1325B1C1A4D2D6805F539
:1052C0001475581907F003FA9DF804101548006882
:1052D00090F8A1221348006800F514708154114819
:1052E0000068407F00F0010058B10E48006890F857
:1052F000A1220C48006800F5147011180FA007F0E7
:1053000020FD0848006890F8A14203E006A007F0DD
:1053100018FD641C0348006890F8A002A042F5DC68
:1053200025E0000064000020080000002563000064
:1053300008257320200800000820080025730000BD
:105340009DF804104748006890F8A022454800687E
:1053500000F51470815443480068407F00F001005C
:1053600028B19DF80410AFF23C0007F0EAFC0020E1
:1053700001903C48006890F8A002401C3949096837
:1053800081F8A0023748006890F8A102401C354916
:10539000096881F8A1023348006890F8A0025028FB
:1053A00008DB00202F49096881F8A0022D4909680F
:1053B00081F8A10200BF2B490968012301AAD1F895
:1053C000A402002105F02DFC01283FF40CAD00BF24
:1053D00000BFFFE4244A1060244A11607047244A49
:1053E0001060244A116070471FB523492348FFF716
:1053F000F1FF23492348FFF7F2FF4FF42A7007F02B
:10540000E5FE184908600846006830B91EA007F09C
:1054100098FC4FF0FF3004B010BD4FF42A711148D2
:1054200000680CF03DFD00231A461DA10D480068E0
:1054300005F0A8FD0A2014214FF480521A4BCDE943
:105440000032CDE902100023AFF2E36217A1194840
:1054500008F0CDFF044614B9164809F020F80020E2
:10546000D9E7000064000020680000206C000020E4
:105470007000002074000020E0370108B4360108F5
:1054800010380108003801086E6F206D656D6F726D
:105490007920666F72207368656C6C0A00000000EA
:1054A0007368727800000000B407002074736865A8
:1054B0006C6C00003C07002010B510220021C6488B
:1054C00007F0A3F820220021C44807F09EF88022AC
:1054D0000021C34807F099F80022C2A1C34805F093
:1054E000A2FE4FF480720021C14807F08EF82F20F1
:1054F000BF490870002010BD10B54FF0FF31BB4808
:1055000005F017FF044624B15822BA49BAA007F0A3
:1055100018FD10BD10B5B54806F011F810BD70B5F6
:10552000FFF7EAFF002400E0641C042C05DAAC4815
:1055300000EB441080680028F6DC042C01D1641FC5
:1055400008E0A74800EB44150120A8604FF6FD5085
:10555000288000BFFFF7DEFF204670BD70B505460E
:10556000002D01DB042D01DB002070BDFFF7C4FF1F
:105570009B4800EB451420884FF6FD51884203D02C
:10558000FFF7C8FF0020F0E7A068401CA060FFF70D
:10559000C1FF2046E9E710B5044624B9BC2297496B
:1055A00097A007F0CEFCFFF7A7FFA068401EA06001
:1055B000A06820B920220021204607F026F8FFF736
:1055C000A9FF10BD2DE9F84F82468846B8F1000FBB
:1055D00005D14FF498728E498EA007F0B2FCBAF153
:1055E000000F01D1DFF808A298F800002F2822D080
:1055F00050460CF078FC834640460CF074FC58444E
:10560000871C384607F0E2FD064616B90020BDE8C3
:10561000F88F50460CF067FC834640460CF063FC64
:105620005844871C534680A239463046CDF8008046
:1056300007F0CAFB06E0404607F003F906460EB93C
:105640000020E4E7344625462C46A14650E0277862
:105650002E2F24D1607808B9641C20E060782F28B0
:1056600009D1A41C00E0641C20782F2802D12078E6
:105670000028F8D13CE060782E2810D1A07808B935
:10568000A41C24E0A0782F2809D1E41C00E0641CAD
:1056900020782F2802D120780028F8D117E001E0E7
:1056A00005F8017B14F8011B0F1E01D02F2FF7D135
:1056B0002F2F09D12F2005F8010B01E014F8017BF1
:1056C0002F2FFBD0641E01E007B912E010E06D1E21
:1056D0004D4504D2304607F07DFE002097E700E0FC
:1056E0006D1EA94503D215F8010C2F28F8D100BF73
:1056F000ADE700BF002028706D1EB54204D02878A9
:105700002F2801D100202870304680E72DE9F0478E
:10571000814649460020FFF755FF0546002D3CD045
:10572000284600F087FD044634B9284607F052FEAB
:105730004FF0FF30BDE8F087606800782F2804D173
:105740006068407808B9A84604E060680CF0CBFBBC
:1057500000EB0508FFF7D0FE002616E0204800EB1E
:105760004617F86800B90FE0F868A0420BD141462F
:1057700078680CF0BFFB30B9284607F02BFEFFF726
:10578000C9FE0020D6E700BF761C042EE6D3FFF743
:10579000C1FE284607F01EFE00BF4FF0FF30C9E7EC
:1057A0002DE9F04106460D4630460CF09CFB0746BD
:1057B00028460CF098FB874202D10020BDE8F0811A
:1057C00030460CF090FB441920782F2802D0AC42D0
:1057D00000D0641E2046F1E7381800204818002049
:1057E0008818002066736C6F636B000068180020D7
:1057F00078000020582401083000000061240108CE
:10580000666420213D2052545F4E554C4C000000F0
:105810006824010866696C656E616D6520213D2014
:1058200052545F4E554C4C0025732F2573000000D9
:105830002DE9F0470446884617461CB96FF015005D
:10584000BDE8F08741460020FFF7BCFE064616B9CA
:105850004FF0FF30F4E7304600F0ECFC05462DB980
:10586000304607F0B7FD6FF00100E9E7E560002082
:10587000608027616061A061A868007900F0010084
:10588000A8B931466868FFF78BFF20B9F6A006F08B
:10589000D8FF606007E031466868FFF781FF824605
:1058A00006F0CFFF6060304607F094FD00E06660D0
:1058B000A868806938B9606807F08CFD00206060D6
:1058C0006FF02500BCE7A868816920468847B0F1E1
:1058D000000906DA606807F07DFD00206060484638
:1058E000AEE7206940F08070206107F4001028B115
:1058F00002206080206940F00070206100209FE756
:1059000070B5044600254CB1E0688068C06928B1D4
:10591000E0688068C169204688470546002D01DAA5
:10592000284670BD606807F055FD0020606028467D
:10593000F7E72DE9F04104460E4617460CB16088A2
:1059400018B16FF01500BDE8F081E568A868006A3D
:1059500030B1A8683A463146036A20469847F2E7D4
:105960006FF02500EFE72DE9F04104460E4617469B
:105970004FF000081CB96FF01500BDE8F081E56834
:10598000A868406A10B96FF02500F6E7A8683A46A3
:105990003146436A20469847B0F1000803DA20698F
:1059A00040F0806020614046E7E72DE9F041044681
:1059B0000E46174614B16088022803D06FF0150018
:1059C000BDE8F081E568A868406B30B1A8683A4648
:1059D0003146436B20469847F2E76FF02500EFE72A
:1059E0002DE9F041074639460020FFF7EBFD06465A
:1059F0001EB96FF01500BDE8F081304600F01AFCCA
:105A0000041E01D1851E30E03046FFF77FFE10B93D
:105A10006FF00F0529E0A068806B18B3A0680079CB
:105A200000F00100B8B931466068FFF7B9FE30B93F
:105A3000A0688DA1826B20469047054614E0314650
:105A40006068FFF7ADFE8046A0684146826B204645
:105A50009047054608E0A0683146826B2046904793
:105A6000054601E06FF0250500BF304607F0B2FCA7
:105A70002846C0E72DE9F04104460E4617461CB9FA
:105A80006FF01500BDE8F081E568A868806A10B97C
:105A90006FF02500F6E7A8683A463146836A20464B
:105AA0009847EFE770B5044614B96FF0150070BD64
:105AB000E568A868C06A10B96FF02500F7E7A86824
:105AC000C16A20468847F2E72DE9F04104460F46B7
:105AD000E6681CB96FF01500BDE8F081E66816B9FC
