:020000040800F2
:10000000D82A012031020008390200083B0200080A
:100010003D0200083F020008410200080000000005
:10002000000000000000000000000000990100082E
:100030004502000800000000DD010008916D000885
:100040004B0200084B0200084B0200084B0200085C
:100050004B0200084B0200084B020008F116000892
:100060004B020008091700084B0200084B02000869
:100070004B0200084B0200084B0200084B0200082C
:100080004B0200084B0200084B0200084B0200081C
:100090004B0200084B0200084B0200082D17000815
:1000A0004B0200084B0200084B0200084B020008FC
:1000B0004B0200084B0200084B0200084B020008EC
:1000C0004B0200084B0200084B0200084B020008DC
:1000D0004B020008257400084B0200084B02000880
:1000E000911600084B0200084B0200084B02000862
:1000F0004B0200084B0200084B0200084B020008AC
:100100004B0200084B0200084B0200084B0200089B
:100110004B0200084B0200084B0200084B0200088B
:100120004B0200084B0200084B0200084B0200087B
:100130004B0200084B0200084B0200084B0200086B
:100140004B0200084B0200084B0200084B0200085B
:100150004B0200084B0200084B02000835740008EF
:100160004B0200084B0200084B0200084B0200083B
:100170004B0200084B0200084B0200084B0200082B
:100180004B020008DFF80CD000F0E4F8004800470C
:10019000EF1F0108D82A0120224B19680868B0E82F
:1001A000F00F80F30988BFF36F8F4FF0000080F3EA
:1001B00011884EF00D0E70470000000006480068E0
:1001C000006880F3088862B661B6BFF34F8FBFF353
:1001D0006F8F00DF00BF00BF08ED00E0EFF3098084
:1001E000BFF36F8F0F4B1A6820E9F00F106008B54E
:1001F0004FF0100080F31188BFF34F8FBFF36F8F64
:1002000013F090FD4FF0000080F31188BDE8084026
:1002100019680868B0E8F00F80F30988BFF36F8FA2
:10022000704700BF24000020EFF3058070470000F6
:100230000648804706480047FEE7FEE7FEE7FEE780
:10024000FEE7FEE7FEE7FEE7FEE7FEE7C56D000816
:100250008501000810B5431A934209D28318881803
:1002600003E010F8011D03F8011D521EF9D210BD64
:1002700040EA01039B0703D009E008C9121F08C028
:10028000042AFAD203E011F8013B00F8013B521EA8
:10029000F9D210BDD2B201E000F8012B491EFBD209
:1002A00070470022F6E710B513460A460446194681
:1002B000FFF7F0FF204610BD421C10F8011B00297B
:1002C000FBD1801A704730B504460020034600E099
:1002D0005B1C934203D2E05CCD5C401BF8D030BD88
:1002E000034611F8012B00F8012B002AF9D118461A
:1002F00070472DE9F05F0546002092469B468846F0
:100300000646814640241BE0284641464746224691
:1003100000F041F853465A46C01A914110D3114695
:100320001846224600F028F82D1A67EB01084F46C0
:1003300022460120002100F01FF817EB00094E4172
:10034000201EA4F10104DFDC484631462A4643461C
:10035000BDE8F09F064C074D06E0E06840F0010361
:1003600094E8070098471034AC42F6D3FFF70EFF2D
:10037000EC9D01080C9E0108202A04DB203A00FABB
:1003800002F1002070479140C2F1200320FA03F3EC
:10039000194390407047202A04DB203A21FA02F0EA
:1003A0000021704721FA02F3D040C2F120029140AF
:1003B00008431946704770B58C1810F8015B15F0AA
:1003C000070301D110F8013B2A1106D110F8012BC7
:1003D00003E010F8016B01F8016B5B1EF9D12B07EC
:1003E00005D40023521E0DD401F8013BFAE710F8A2
:1003F000013BCB1A921C03E013F8015B01F8015B8F
:10040000521EF9D5A142D8D3002070BD21B1826817
:1004100042F00102826003E0826822F00102826001
:10042000704700000021084A1168084A1140D0E9CD
:1004300000231A4383681A43C3681A431143044ACA
:10044000C2F804137047000004230140E030FCFFB1
:100450000020014021B1826842F48072826003E092
:10046000826822F480728260704721B1826842F40F
:100470000072826003E0826822F40072826070473A
:1004800030B50246002000235068104C20400D7902
:100490000C6844EA05242043506090680C4C2040CE
:1004A000D1E903542C438D682C434D7944EA45042B
:1004B00020439060D06A20F470000C7D641EE4B28A
:1004C000234340EA0350D06230BD0000FFFEFFFC32
:1004D000FDF7FFC0F0B504460D4600200021092DB0
:1004E00011DDE068A5F10A0606EB4607072606FAC5
:1004F00007F18843A5F10A0606EB460603FA06F162
:100500000843E0600CE0206905EB4507072606FA82
:1005100007F1884305EB450603FA06F1084320611D
:10052000072A0FDA606B561E06EB86071F2606FAAF
:1005300007F18843561E06EB860605FA06F10843C6
:10054000606322E00D2A0FDA206BD61F06EB8607C8
:100550001F2606FA07F18843D61F06EB860605FA22
:1005600006F10843206310E0E06AA2F10D0606EBF5
:1005700086071F2606FA07F18843A2F10D0606EB4F
:10058000860605FA06F10843E062F0BD816841F095
:10059000804181607047000038B10849096841F422
:1005A0000001074AC2F8041306E00449096821F46F
:1005B0000001034AC2F804137047000004230140FD
:1005C0000020014010B5012013F02EFE0149086003
:1005D00010BD0000B00000201CB500200121034622
:1005E0008A02CDE900101DA11F4814F07BF81F48B6
:1005F000022100230A02CDE900101DA1204814F0B9
:1006000071F82048032100234FF48052CDE90010F7
:100610001DA1214814F066F8204804210023CA01D6
:10062000CDE900101EA1214814F05CF820480521F6
:1006300000234FF40072CDE900101EA1214814F0F0
:1006400051F80020062103464FF40072CDE9001056
:100650001DA1204814F046F81CBD000076546173BB
:100660006B47554900000000AD380108A00000208C
:10067000765461736B557365724B6579494600001A
:10068000F13D0108A4000020765461736B46734469
:1006900065627567000000007D380108A800002031
:1006A000765461736B53746172740000313C0108BD
:1006B000AC000020765461736B41646350726F63C9
:1006C00000000000F1370108765461736B546573C4
:1006D0007400000015410108F0B505460E460024DF
:1006E000AF1905E015F8011BA0B207F095F8044614
:1006F000BD42F7D3A0B2002107F08EF80446204691
:10070000002107F089F804462046F0BD014609B9EA
:100710000B487047012901D10020FAE7022901D1D5
:100720000020F6E7032901D10020F2E7042901D1D6
:100730000020EEE7052901D10248EAE70020E8E7BA
:10074000ECF6002014FF002008B525208DF80000ED
:100750000D208DF8010000208DF8020001208DF899
:100760000300684605F024FA47208DF800000520B4
:100770008DF8020001208DF80300684605F018FA94
:1007800008BD000010B5ADF5825D002101A805F09F
:10079000E1F929A00FF0BBFE04461CB928A00DF01A
:1007A00077F911E0082C06D12A4850F824102AA025
:1007B0000DF06EF908E0274850F824102CA00DF039
:1007C00067F90DF5825D10BD30A00FF0A0FE044664
:1007D0001CB930A00DF05CF90FE0082C06D11D48C3
:1007E00050F8241030A00DF053F906E0194850F8E5
:1007F000241033A00DF04CF9E3E738A00FF087FE8A
:1008000004461CB939A00DF043F90FE0082C06D1BD
:10081000104850F824103BA00DF03AF906E00D48BE
:1008200050F824103EA00DF033F9CAE70021084625
:1008300005F090F900BFC4E72F4469723100000051
:10084000665F6D6B6469722044697231204F6B0D75
:100850000A000000B80000204469723120C4BFC201
:10086000BCD2D1BEADB4E6D4DA282573290D0A0076
:10087000665F6D6B646972204469723120CAA7B0EB
:10088000DC20282573290D0A000000002F4469721E
:1008900032000000665F6D6B6469722044697232D9
:1008A000204F6B0D0A0000004469723220C4BFC2A1
:1008B000BCD2D1BEADB4E6D4DA282573290D0A0026
:1008C000665F6D6B646972204469723220CAA7B09A
:1008D000DC20282573290D0A000000002F446972CE
:1008E000312F446972315F3100000000665F6D6B2B
:1008F00064697220446972315F3120B3C9B9A60DB1
:100900000A000000446972315F3120C4BFC2BCD20A
:10091000D1BEADB4E6D4DA20282573290D0A000033
:10092000665F6D6B64697220446972315F3120CA01
:10093000A7B0DC20282573290D0A000010B5ADF5FD
:10094000035D002141F28400684405F003F916A11B
:100950000AA810F033FB044644B1144850F82410A0
:1009600013A00DF095F80DF5035D10BD0A2216A138
:1009700016A810F021FA044609AB222215A116A8E8
:1009800010F074FD04461CB91CA00DF081F802E0C3
:1009900021A00DF07DF816A80FF0BDFB0021084640
:1009A00005F0D8F800BFDEE7303A2F00B80000208D
:1009B000B4F2BFAAB8F9C4BFC2BCCAA7B0DC202831
:1009C0002573290D0A00000061726D666C792E7422
:1009D000787400004661744653205772697465202C
:1009E00044656D6F200D0A207777772E61726D66F2
:1009F0006C792E636F6D200D0A00000061726D66C8
:100A00006C792E74787420CEC4BCFED0B4C8EBB31D
:100A1000C9B9A60D0A00000061726D666C792E746A
:100A2000787420CEC4BCFED0B4C8EBCAA7B0DC0D2D
:100A30000A0000007CB507F0F1FB0546002000909D
:100A40002B46044A12210190034801F059FC044648
:100A500020467CBD49DB0008805E010821B10268A8
:100A600042F00102026003E0026822F0010202602B
:100A70007047000010B500220268134B1A40CC6882
:100A80000B6823434C6923438C692343CC6923437C
:100A90000C6A23434C6A23438C6A23434C6B2343E5
:100AA0008C6B23431A430260426922F00702D1E9AA
:100AB0000B3423431A4342610B6943604B688360E4
:100AC0008B68C36010BD00003F801CF070B5ADF5B1
:100AD000845D002111A805F03DF84CA010F065FCE4
:100AE00004461CB94BA00CF0D3FF0CE0042C04D13D
:100AF00046A14DA00CF0CCFF05E0524850F8241060
:100B000051A00CF0C5FF5DA010F04FFC04461CB9CD
:100B10005EA00CF0BDFF0EE0042C01D0052C04D12A
:100B200056A141A00CF0B4FF05E0464850F824104F
:100B30005EA00CF0ADFF35A010F037FC04461CB9E8
:100B400034A00CF0A5FF0CE0042C04D12FA136A09A
:100B50000CF09EFF05E03B4850F824103AA00CF042
:100B600097FF62A010F021FC04461CB961A00CF0B4
:100B70008FFF0CE0042C04D15CA12BA00CF088FFAB
:100B800005E0304850F8241060A00CF081FF6CA004
:100B900010F00BFC04461CB96CA00CF079FF0CE0C3
:100BA000042C04D166A120A00CF072FF05E02548BA
:100BB00050F824106CA00CF06BFF00251CE02A46B6
:100BC00077A10DA80CF074FF0DA810F0EEFB044601
:100BD00024B90DA976A00CF05BFF0BE0042C04D126
:100BE0000DA978A00CF054FF04E022460DA97AA0CC
:100BF0000CF04EFF681CC5B2142DE0DB0021084646
:100C000004F0A8FF0DF5845D70BD00002F446972EB
:100C100031000000C9BEB3FDC4BFC2BC446972311B
:100C2000B3C9B9A60D0A0000C3BBD3D0B7A2CFD6B3
:100C3000CEC4BCFEBBF2C4BFC2BC203A25730D0AB1
:100C400000000000B8000020C9BEB3FD4469723145
:100C5000CAA7B0DC28B4EDCEF3B4FAC2EB203D2035
:100C600025732920CEC4BCFED6BBB6C1BBF2C4BF1F
:100C7000C2BCB7C7BFD50D0A000000002F4469727F
:100C8000312F446972315F3100000000C9BEB3FDED
:100C9000D7D3C4BFC2BC2F446972312F44697231AB
:100CA0005F31B3C9B9A60D0A00000000C9BEB3FD8B
:100CB000D7D3C4BFC2BC2F446972312F446972318B
:100CC0005F31CAA7B0DC28B4EDCEF3B4FAC2EB2092
:100CD0003D2025732920CEC4BCFED6BBB6C1BBF2D5
:100CE000C4BFC2BCB7C7BFD50D0A00002F4469728C
:100CF00032000000C9BEB3FDC4BFC2BC204469724B
:100D00003220B3C9B9A60D0A00000000C9BEB3FD68
:100D10004469723220CAA7B0DC28B4EDCEF3B4FA2D
:100D2000C2EB203D2025732920CEC4BCFED6BBB625
:100D3000C1BBF2C4BFC2BCB7C7BFD50D0A0000001B
:100D400061726D666C792E7478740000C9BEB3FD53
:100D5000CEC4BCFE2061726D666C792E74787420EE
:100D6000B3C9B9A60D0A0000C9BEB3FD61726D66B4
:100D70006C792E747874CAA7B0DC28B4EDCEF3B4C5
:100D8000FAC2EB203D2025732920CEC4BCFED6BB81
:100D9000B6C1BBF2C4BFC2BCB7C7BFD50D0A000005
:100DA0005370656564253032642E747874000000D9
:100DB000C9BEB3FDCEC4BCFE2573B3C9B9A60D0A26
:100DC00000000000C3BBD3D0B7A2CFD6CEC4BCFEB8
:100DD0003A25730D0A000000C9BEB3FD2573CEC4C9
:100DE000BCFECAA7B0DC28B4EDCEF3B4FAC2EB2047
:100DF0003D2025642920CEC4BCFED6BBB6C1BBF2C3
:100E0000C4BFC2BCB7C7BFD50D0A000008B500BF3C
:100E100000F0F2F86DE00DF021FC642012F000FD0E
:100E2000694600200EF0A2FB002862D031A00CF031
:100E30002FFE9DF80000342832D00CDC312818D069
:100E400004DC0D2850D0302851D10CE0322816D0C7
:100E500033284CD11EE03538052848D2DFE800F0B1
:100E6000262C32383E0024A00CF012FE00F0E2FCEA
:100E70003EE027A00CF00CFE06F04CFD38E02AA066
:100E80000CF006FEFFF75AFD2DA00CF001FE05F058
:100E90005DFA2DE030A00CF0FBFDFFF773FC27E0BE
:100EA00032A00CF0F5FDFFF711FE21E035A00CF0AB
:100EB000EFFD08F005FA1BE037A00CF0E9FD03F0A8
:100EC00091FB15E039A00CF0E3FD00F08BF90FE089
:100ED0003CA00CF0DDFD06F0EBFC09E03FA00CF0BF
:100EE000D7FD06F0B3FC03E000F086F800E000BF99
:100EF00000BF90E70D0A0000A1BE30202D204669FA
:100F00006C65466F726D6174A1BF0D0A0000000030
:100F1000A1BE31202D2056696577526F6F744469E8
:100F200072A1BF0D0A000000A1BE32202D20437225
:100F3000656174654E657746696C65A1BF0D0A00F1
:100F4000A1BE32202D205265616446696C65446102
:100F50007461A1BF0D0A0000A1BE33202D20437291
:100F600065617465446972A1BF0D0A00A1BE342099
:100F70002D2044656C65746544697246696C65A191
:100F8000BF0D0A00A1BE35202D2054657374537027
:100F9000656564A1BF0D0A00A1BE36202D204469FD
:100FA000736B496E666FA1BF0D0A0000A1BE3720AA
:100FB0002D20446F776E6C6F61642046696C65A16B
:100FC000BF0D0A00A1BE38202D2055706F6164202E
:100FD00046696C65A1BF0D0A00000000A1BE392062
:100FE0002D20557064617465204669726D77617259
:100FF00065A1BF0D0A00000010B514A00CF048FD5B
:1010000020A00CF045FD2AA00CF042FD2DA00CF014
:101010003FFD35A00CF03CFD3BA00CF039FD44A099
:101020000CF036FD46A00CF033FD4BA00CF030FD6B
:101030004FA00CF02DFD53A00CF02AFD59A00CF090
:1010400027FD60A00CF024FD10BD00000D0A2D2D21
:101050002D2D2D2D2D2D2D2D2D2D2D2D2D2D2D2DC0
:101060002D2D2D2D2D2D2D2D2D2D2D2D2D2D2D2DB0
:101070002D2D2D2D2D2D2D2D2D2D2D2D2D2D0D0AE3
:1010800000000000B5DAD2BBB4CECAB9D3C3C7EBF7
:10109000D1A1D4F1C3FCC1EE30BDF8D0D05350493A
:1010A00020466C617368B8F1CABDBBAF0D0A000081
:1010B000C7EBD1A1D4F1B2D9D7F7C3FCC1EE3A0D39
:1010C0000A00000030202D20B6D45350495F466CF2
:1010D000617368BDF8D0D0CEC4BCFECFB5CDB3B877
:1010E000F1CABDBBAF0D0A0031202D20CFD4CABE3E
:1010F000B8F9C4BFC2BCCFC2B5C4CEC4BCFEC1D057
:10110000B1ED0D0A0000000032202D20B4B4BDA8BE
:1011100061726D666C792E7478742CB2A2B6C1B30C
:10112000F6CEC4BCFEB5C4C4DAC8DD0D0A000000AA
:1011300033202D20B4B4BDA8C4BFC2BC0D0A00002A
:1011400034202D20C9BEB3FDCEC4BCFEBACDC4BF71
:10115000C2BC0D0A0000000035202D20B6C1D0B45D
:10116000CEC4BCFECBD9B6C8B2E2CAD40D0A0000C8
:1011700036202D20BBF1C8A1B4C5C5CCD0C5CFA2A7
:101180000D0A000037202D20CAB9D3C3596D6F64F2
:10119000656DD0ADD2E9CFC2D4D8CEC4BCFE0D0AA5
:1011A0000000000038202D20CAB9D3C3596D6F64E8
:1011B000656DD0ADD2E9C9CFB4ABCEC4BCFE0D0ACB
:1011C0000000000039202D20C9FDBCB64669726DB3
:1011D00077617265B5BDD6B8B6A8B5C4B5D8D6B76F
:1011E0000D0A00002DE9F05FADF5165D0024002624
:1011F000A246A1460021CDF8E014002500278B4629
:1012000080210DF58C60FFF74CF80021CDF85C14BF
:10121000CDF858142022EB490DF58760FFF71AF836
:101220004FF481610CA8FFF73CF8002141F24450D3
:10123000684404F08FFC0DF587610DF59D600FF09B
:10124000BDFE8046B8F1000F09D0DF4850F82810E5
:10125000DEA00CF01DFC0DF5165DBDE8F09F9FE1D2
:1012600032200DF08DF8DDF8580400B199E1BAF1A3
:10127000000F06D0BAF1010F78D0BAF1020F74D185
:1012800015E14321584605F039FC4FF480120DF565
:101290009C61584605F0DEF8002864D19DF8E00412
:1012A000012860D102050DF59C61584605F0D2F881
:1012B0009DF8E00418B10320CDF8580470E14FF414
:1012C00080120DF59C61584605F0C4F89DF8E004C5
:1012D000FF2803D00320CDF8580461E1002408E082
:1012E0000CA801194FF48012584605F0B3F8601CA1
:1012F00084B2802CF4DB4FF480120DF59C615846CB
:1013000005F0A8F84FF480120DF59C61584605F0E1
:10131000A1F80621584605F0F1FB4FF0010A002420
:1013200006E00CA8005D0DF58C610855601C84B2C8
:10133000802C03DA0CA8005D0028F2D10CA921440E
:10134000481C0DF25C4105F0A1FC0B220DF58C61EF
:101350000DF5A3600FF030FD80464FF001094321E9
:10136000584605F0CBFB19E100E013E14FF4801281
:101370000DF59C61584605F06DF89DF8E0041828BD
:101380001AD006DC012810D0022810D0042826D15B
:1013900004E041280ED0612821D10CE04FF0020A70
:1013A0000621584605F0AAFBFAE080271EE04FF41C
:1013B00080671BE000BF00BF1821584605F09EFB68
:1013C0001821584605F09AFB0DF58C600FF0EDFFE3
:1013D00084A00CF05DFB0221CDF85814E0E04A46F1
:1013E0009DF8E01487A00CF053FBD9E000BF4FF448
:1013F00080120DF59C61584605F02CF84FF48012D0
:101400000DF59C61584605F025F8002408E00CA86D
:1014100001194FF48012584605F01CF8601C84B284
:10142000BC42F4DB4FF480120DF59C61584605F088
:1014300011F89DF8E0542D024FF480120DF59C61D7
:10144000584605F007F89DF8E004054339460CA816
:10145000FFF742F9A8420CD0701CC6B239460CA85E
:10146000FFF73AF93B46024629460B906EA00CF076
:101470000FFB8EB90DF2E4433A460CA90DF5A360BB
:101480000FF0F4FF804609F101001FFA80F90621F0
:10149000584605F033FB09E01521584605F02EFBB0
:1014A00031466AA00CF0F4FA701EC6B276E0432111
:1014B000584605F023FB4FF480120DF59C61584609
:1014C00004F0C8FF9DF8E00401285FD102050DF586
:1014D0009C61584604F0BEFF9DF8E00418B103205B
:1014E000CDF858045CE04FF480120DF59C6158462D
:1014F00004F0B0FF9DF8E004FF2803D00320CDF8EE
:1015000058044DE0002408E00CA801194FF48012A3
:10151000584604F09FFF601C84B2802CF4DB4FF42B
:1015200080120DF59C61584604F094FF9DF8E0543C
:101530002D024FF480120DF59C61584604F08AFF8D
:101540009DF8E004054380210CA8FFF7C5F8A842E8
:1015500001D0701CC6B2AEB90DF5A360DDF85C1405
:101560000EF068FE0DF5A3600FF0C6FE0DF5A3604A
:101570000EF0D1FD0621584605F0C0FA0421CDF841
:1015800058140DE01521584605F0B8FA0420CDF89E
:10159000580403E00120CDF8580400BF00BF00BF8D
:1015A0005EE600BF2CA00CF073FA0DF58C6131A043
:1015B000DDF85C240CF06CFA0021084604F0CAFA4D
:1015C00000BF48E6284E0108B8000020B4F2BFAAC8
:1015D000B8F9C4BFC2BCCAA7B0DC20282573290D46
:1015E0000A000000557365722063616E63656C20AC
:1015F0007472616E736665722064617461200D0A95
:1016000000000000556E6B6E6F772053746172742A
:10161000436F64653A202564207061636B53657184
:101620003A2025640D0A000043726356616C7565AB
:101630003A202564204352433A2564207061636B4D
:1016400073697A653A2025640D0A00004572722894
:101650002564290D0A0000000D0A446F776E6C6F37
:1016600061642066696C65205375636365737321DB
:10167000200D0A0046696C654E616D653A20257340
:101680002046696C6553697A653A2564200D0A0025
:1016900010B54FF4006000F06FF840B113480068D7
:1016A00020F4006011490860C81400F05FF84FF49E
:1016B000005000F061F840B10C48006820F4005080
:1016C0000A490860481400F051F84FF4004000F057
:1016D00053F848B10548006820F400400349086009
:1016E0004FF4004000F042F810BD0000003C014003
:1016F00010B5022000F040F820B10DF0F7FC0220F8
:1017000000F034F810BD000010B5082000F034F8E7
:1017100040B10548006820F008000349086008202F
:1017200000F024F810BD0000003C014010B58020FE
:1017300000F022F840B10C48006820F080000A490F
:101740000860802000F012F84FF4807000F014F868
:1017500040B10548006820F480700349086088158E
:1017600000F004F810BD0000003C01400149086091
:1017700070470000143C0140014600200022074B46
:101780001B6803EA0102054B14331B680B4013B1BD
:101790000AB1012000E0002070470000003C014039
:1017A000002123498279002A3AD00A461268036848
:1017B0009A430B461A600A1D126803689A430B1D70
:1017C0001A60027911440A6803681A430A60184AC9
:1017D0000832126803689A43154B08331A601A1DC1
:1017E000126803689A43124B0C331A604279102A2C
:1017F0000ED11A1F126803681A430D4B08331A6082
:101800001A1D126803681A43094B0C331A600DE065
:101810000749427911440A6803681A430A6005E0DF
:10182000027911440A6803689A430A60704700000D
:10183000003C014010B5ADF5015D002141F204000E
:10184000684404F087F94FF4805001AB002207216F
:1018500000900CA00EF014FF044634B10A4850F872
:1018600024100AA00CF014F905E0074850F82410E1
:101870000BA00CF00DF90021084604F06BF90DF5F2
:10188000015D10BD303A0000B8000020B8F1CABDBB
:10189000BBAFCAA7B0DC20282573290D0A000000C1
:1018A000B8F1CABDBBAFB3C9B9A620282573290DAD
:1018B0000A0000002DE9F84306464FEA2628F5B253
:1018C0007F2D09DAA8F18100C0EB401101EB8010F7
:1018D00005EB4000403884B2802D09DDA8F181007D
:1018E000C0EB401101EB801005EB4000413884B2A1
:1018F0004FF6FF7000EA44040448211802226846AB
:1019000011F042FB6F463888BDE8F88300F0FD0116
:1019100010B5002001F066FD6FF07F4001F06DFD15
:10192000012001F0C5FD002001F0D0FD002001F0F4
:10193000DDFD002001F072FD0448006801F07AFD31
:10194000BDE81040002001F085BD00006C020020C1
:10195000F0B50A4600210023002400BF3DE0012528
:1019600005FA01F3156805EA03049C4234D10568C1
:101970004F000326BE40B543056015794E00B540C3
:101980000668354305601579012D02D01579022DC1
:1019900016D185684F000326BE40B5438560557952
:1019A0004E00B540866835438560456801268E4007
:1019B000B5434560456896798E40B6B2354345607B
:1019C000C5684F000326BE40B543C560D5794E00BB
:1019D000B540C6683543C560491C1029BFD3F0BD6A
:1019E000F0B5002300244D07ED0E02FA05F3CE10EA
:1019F00000F1200555F826504E07F70E0F26BE4081
:101A0000B543CF1000F1200646F82750CE1000F164
:101A1000200555F8265045EA0304CE1000F12005B4
:101A200045F82640F0BD0146086980B2704702467D
:101A3000002013690B400BB1012000E0002070472B
:101A40004183704701837047416170470AB1018348
:101A500000E04183704700002DE9F04FDFF828B126
:101A600091B04FF0FF35DBF80030B3F9221006914A
:101A7000DE69B3F924A0F469A189814206D8E2891C
:101A8000824203D3471AD4F8008012E0D4E90181DE
:101A9000002970D00A8882426DD84D8885426AD369
:101AA000801A82B2486800EB8200B0F90070B0F989
:101AB0000250781C5FD0307EA27C014600FB02F908
:101AC000207CCDE90710B3F92A60304603F060FEB0
:101AD000C0B20E90DBF8001007FB0980A37C8A6B74
:101AE0000127CDE90402CDE90273C869089AC17ED5
:101AF000807ECDE90001DDE90603514603F066F979
:101B0000681C18D046F0020003F042FEDBF800002B
:101B1000A37C05FB0981826BCDE90273CDE9041238
:101B2000C069089AC17E807ECDE90001DDE9060327
:101B3000514603F04BF9DBF800005D46C069417E79
:101B4000007E814214D9022E12D086F0040003F0E8
:101B50001FFE2868C069027EC37E857E02FB03A14A
:101B6000437E089A0698534402FB050203F0E4FA08
:101B70000E9803F00DFEDBF80000627C418C1144EE
:101B8000418411B0BDE8F08F700200200448006865
:101B9000C069C06909B1027C0A60407C70470000DE
:101BA00070020020022008807047C06982898A4242
:101BB00002D8C2898A4210D2806880B102888A42E3
:101BC0000DD843888B420AD3406800EB8100A0EB1C
:101BD0008200B0F90000002801DB012070470020DE
:101BE000704700002DE9F0432F4C034687B0206872
:101BF0001946B0F92A80C069C06900F082F800284F
:101C00004ED041680088181A01EBC0054046AE78F6
:101C100003F0BEFD814620686A680123816BCDE92F
:101C20000236CDE90421C169CB7E8A7ECDE900234D
:101C30000B7EB0F924102A78B0F9220003F0C6F820
:101C40002068C069477E067EB7421DD9C07E4743E3
:101C50004643B8F1020F17D000F0C2FD804600F0F5
:101C60008DFD01F0CAFB21682A78CB69B1F9220009
:101C7000B1F92410DB7E02FB0302CB19314403F0DF
:101C80005BFA404601F0B9FB484603F081FD20684D
:101C90006A78C369B0F922109B7E02FB031141846C
:101CA00007B0BDE8F08300007002002030B50E4C94
:101CB00005460B4620682946C069C06900F021F836
:101CC000002810D04168008824682A1A0120E4699D
:101CD00000EBC200085CA47E6043002B03D011F827
:101CE00032106143196030BD70020020012008806D
:101CF000704700B5C06900F004F8002800D001204A
:101D000000BD06E002888A4202D842888A4202D296
:101D100080680028F6D170472DE9F0410025154E66
:101D2000154C18E02069C5EB051700EBC7007022C1
:101D3000001D3168FEF78EFA2069002140F8371047
:101D400000EBC70000F10C018161011D0A1DC0E913
:101D50000F126D1C4164A0688542E3DB0AF0CEFAE5
:101D60002169C0EB001001EBC000001D3060BDE830
:101D7000F0810000700200207803002070B50F4948
:101D80000D480860084602F041FB0C4C143CA0686A
:101D9000C0EB0010C500284600F078F82A46002164
:101DA000206102F0ACFB4FF0FF30206001F084FDB9
:101DB000BDE870400AF0A2BA1DCA00088C030020DA
:101DC00010B5040009D000F097FD204607F03CFC58
:101DD000044601F02FFD204610BD002010BD38B58F
:101DE000054600F089FD2846FFF7EAFF040009D008
:101DF00000F0DAF82A460021009002F080FB6846E5
:101E000000F002F901F016FD204638BD024A1060CC
:101E100021F00300506070474C19012010B50400F8
:101E200016D000F069FD0B48406B10F8341059B122
:101E3000022909D2042101EBC4014158486807F086
:101E4000BBFB20460AF084FFBDE8104001F0F2BC65
:101E500010BD00008C180120002805D0034AD16B6A
:101E6000016001B14860D063704700008C18012008
:101E700010B5044600F040FD2068FFF7CFFF0020BA
:101E80002060BDE8104001F0D5BC00002DE9F04114
:101E900004460AF079FB2848E41C24F00305016C91
:101EA0002D1DA94200D90D46C46B13E054F8042C33
:101EB000AA420ED184B1216809B162684A606168A2
:101EC00009B122680A60C26BA24231D12168C163A4
:101ED0002EE02468002CE9D18046816BC0680F1881
:101EE00057F8040C3E1A306838B100200AF08CFF15
:101EF00057F8040C3E1A3068D0B97068A84217DB56
:101F00003044441B3046241D0AF036FFD8F80C102C
:101F1000491BC8F80C10D8F814102944C8F814103C
:101F20007068401B02D0314607F046FB44F8045C61
:101F30002046BDE8F08100008C18012010B5002477
:101F40000AF022FB0C490F2001EBC002526C1AB1BF
:101F500001EBC000406C08E0401EF5D508E0416888
:101F6000A14200D90C46806810B180680028F6D1E3
:101F7000A4F10C0010BD00008C180120002138B124
:101F80000449042202EBC000496B085841680C392F
:101F9000084670478C18012002488169491C8161FC
:101FA000704700008C1801200549CA69521CCA619B
:101FB000496B01EBC0010A78521C0A7000F03CB872
:101FC0008C18012010B500F097FCFFF7B7FF6422D2
:101FD0000849B0F5800F04D990FBF2F4086A444335
:101FE00003E0096A4143B1FBF2F401F023FC20460F
:101FF00010BD00008C18012002488169491E8161D2
:10200000704700008C1801200A4902684B6B52F897
:10201000082C03EBC2021378022B03D3CB690BB15C
:102020005B1ECB611178491E1170002101600846CA
:10203000704700008C180120002806D003490422B4
:1020400002EBC000496B0858083070478C1801201B
:1020500008B513460A4600906946024800F004F8A5
:1020600008BD0000FB2000083EB514460291009018
:102070006A461946204607F01FFD3EBD08B5694671
:102080000090024800F004F808BD0000FB200008A2
:102090001FB50123039101906A461A2101A800F09F
:1020A00093F810B1012004B010BD009812300090D8
:1020B000684602F08CF9F6E708B5694600900248D8
:1020C00000F004F808BD0000FB2000081FB5012344
:1020D000039101906A461A2101A800F075F810B129
:1020E000012004B010BD009816300090684602F040
:1020F0006EF90028F5DA4042F3E7006818440860FA
:10210000104670472DE9F8431D46DDE9084617469D
:10211000884601236A46362100F056F898BB684687
:1021200002F04BF98146009810300090684602F0AA
:102130004EF9C8F80000684602F049F93860009886
:10214000801C0090684602F038F92880684602F04A
:102150003EF9306000980C300090684602F037F984
:102160002A884FF48071082A13D005DC5AB1012A5D
:102170000AD0042A1ED109E0102A1ED0182A1CD029
:10218000202A17D119E015E0022200E01022226077
:1021900000E02160A0B1206088420BDCA9F59A41E3
:1021A000423907D1306868B101280BD0022809D024
:1021B000032807D00120BDE8F88300202060EDE768
:1021C0002068E9E70020F6E72DE9F04117460D46C3
:1021D00004460BB100206060D4E901300A4626684D
:1021E0003946B047A84202D00120BDE8F0816068BE
:1021F000284460600020F8E7F8B50D460746002443
:102200000E4E16E000236A4604213846FFF7DCFF35
:1022100008B10120F8BD0098027841788378100455
:1022200040EA0120184302F093FD316841F8240090
:10223000641CAC42E6DB0020F8BD0000BC030020BB
:1022400010B5C2B2CBB2D21A00D5524293B25B43A0
:10225000C0F30722C1F30724121B00D55242000C21
:1022600092B2A0EB114002FB023200B2002801DA68
:10227000404200B280B200FB002010BD10B500212A
:10228000084600F0E5FA43F6FF725042BDE8104000
:1022900013460146AFF300802DE9FC411C4615466C
:1022A0000E46074600F028FB042003F071FA804632
:1022B0001248C068C16C006D0F4406440D440444CC
:1022C000ADF80070ADF80450ADF80260ADF806400E
:1022D000684606F06FFC07E023462A46314638463A
:1022E00002F02AFF06F01AFC0028F5D1404603F060
:1022F0004FFA01F09FFABDE8FC8100006402002063
:102300002DE9F8431C00DDE9089816460F460546FE
:1023100002D105F083FF044600962E6843464A46E4
:1023200021462846B047061E39D005F06CFF81468D
:10233000698A304605F00CFC304606F0E3FA484660
:1023400006F0E0FA4FF000080CE000BFCDF8008086
:1023500055F81CCF00231A4649462846E04700B3EB
:1023600006F0D0FA7F1E002FF0DC1D21484606F053
:10237000DCF9601C12D000F0BFFA05F079FF30B133
:10238000FFF75AFE8469B44201D02000F8D1B4426C
:1023900002D0304606F050FA01F04CFA3046BDE863
:1023A000F883304605F03CFE0020F8E72DE9F041C7
:1023B0001C4616460D460746022B02DB0020BDE8F0
:1023C000F0811C20FFF762FD0028F8D00DB10561F7
:1023D0000AE0094A52F8241009B905E011460A68D2
:1023E000002AFBD1096901618461868200210160B4
:1023F0004160C0E90217E2E78802002070B51D467F
:10240000FFF7D4FF040009D000F00EF8E068006880
:1024100020B90348006800EB85008465204670BD44
:1024200070020020FFF718BD70B590B38269022AD0
:1024300030DA1E4C54F8221019B944F8220032E068
:1024400019464B68002BFBD106E0CB68C5681B68BA
:102450002D68AB4203DD09680029F6D11AE0C1B14D
:10246000CB68C6681B683668B3420CD1838A012BDF
:1024700005D008E01946DB681B68AB4203DB0B683C
:10248000002BF7D129B14B6833B118604A6842601C
:1024900004E0FFE7012070BD44F822004860884254
:1024A00000D100210160002070BD000088020020E2
:1024B00010B503E00468FFF7B7FF20460028F9D104
:1024C00010BD00000A4A816952F82130834202D1CE
:1024D000036842F82130416809B102680A60016866
:1024E00009B142684A600021016041607047000004
:1024F0008802002000207047022801DB002070477E
:10250000054951F8200004E0C16809680029F6D0A7
:1025100000680028F8D17047880200202DE9F041BA
:10252000044601F0C4F906191EE000BF00F0FAF8F5
:10253000052F00DD052700F0DFF911480568FFF7DA
:102540002BFD2C0017D000BF01F074F9641EFBD1E5
:10255000384601F09DF91DB100F0CEF96D1EFBD19A
:10256000FFF74AFD01F066F901F0A1F9371A002FD3
:10257000DCDCBDE8F081384601F08AF9F0E70000C4
:10258000840300202DE9FF4F87B09046894607005D
:102590007DD000F0B1F9D9F80040D9F8045021B24B
:1025A00028B2401A401C029000F026F9064618F0A6
:1025B0000C0F1ED038460A9A029901F045F908F02E
:1025C0000C01042904D0082902D00C2911D104E0FF
:1025D000291400FB1610401C09E02114C1EB254210
:1025E00000FB1620401C00EBD07001EB600060F394
:1025F0001F44484606F076F95FEA000B09D0024610
:10260000494604A8CDE9044501F0E5FD04A806F01B
:1026100069F9A6F1010A38460A9A029901F03EFFCB
:1026200003900AEB244060F31F45CDE9004538468E
:10263000039901F053FD18F003010ED001292CD0AD
:1026400002290ED1B9F90420B9F90010521A101A52
:1026500000EBD07001EB600001E0B9F80000ADF8CC
:1026600000006A463846039901F008FB38460A9A8A
:10267000029901F009FF074406EB244060F31F4470
:1026800038780028C7D1584606F02CF900E001E060
:1026900001F0D0F80BB0BDE8F08FB9F80410081ABB
:1026A000401CDCE72DE9FC411C4616460D4607465A
:1026B00000F022F91A480168087ECA6C096D1744B7
:1026C0000D440C44401E391A1644ADF80010311860
:1026D000ADF80410291A2044ADF80600ADF8021038
:1026E000684606F067FA15E032462946384602F099
:1026F0006FFC32462146384602F06AFC621E691CB5
:10270000384602F0C5FC621E691C304602F0C0FC6F
:1027100006F004FA0028E7D101F08CF8BDE8FC814E
:102720007002002010B5002400E0012400F004F83D
:102730000028FAD1204610BD094810B500680024D1
:1027400010B1804700B1012405F0E2FC00B1012482
:102750000448006810B1804700B10124204610BD34
:102760009402002090020020034951F82000C16823
:102770008A6A0821104700008802002010B500F086
:10278000BBF802F01BFD02F0FDFD044601F052F81B
:10279000204610BD10B5044600F0AEF805480021F3
:1027A0000068C069426820469047044601F042F83C
:1027B000204610BD7002002070B50C46054600F0A2
:1027C0009BF8064821460068C06942682846904741
:1027D000044601F02FF8204670BD00007002002072
:1027E00010B500F089F802F0F1FC02F0CBFD0446D0
:1027F00001F020F8204610BD10B500F07DF8044827
:102800000068C069447E01F015F8204610BD000044
:102810007002002070B50C46054600F06DF82146A8
:10282000284601F0A1FCBDE8704001F003B80000AB
:10283000024951F8200000690068704788020020B2
:10284000024951F820000069406870478802002062
:1028500070B50D46044600F04FF8204609F09EFD85
:102860000446284609F0A2FD044300F0E3FF204699
:1028700070BD00002DE9F0411948016821F0010107
:1028800001601848012585601749016000681749F3
:10289000884200D0FEE701F021F9154E2E2030705D
:1028A00001F009F8134809F01FFE0DF0EFFB074691
:1028B00002F0E8FC10B102F0F9FC38B902F0FFFCBC
:1028C000044602F0E8FC214602F05CFF00210846C5
:1028D00000F0CEFD05F028FD75703846BDE8F081AA
:1028E000002000E000300240C2A507F4CDB5E8B5F5
:1028F000640200205819012070B5184CE06820B11E
:1029000000F0D1FF6168884204D001F015F800F0B2
:10291000CAFF6060E068401CE06001281CD109F03B
:10292000EDFC05462068854216D0002813DBFFF732
:10293000E1FD01462068C0EB0012206900EBC202F5
:102940005167C5EB0511064A00EBC100011D11607E
:10295000406FFFF7ADFD256070BD000078030020DB
:10296000700200201CB5040004D10E480068046EFB
:10297000002C16D0FFF7C0FF2046FFF715FB009094
:1029800044696846FFF740FB4CB12046FFF70CFB5B
:10299000019081688968884701A8FFF735FB00F03E
:1029A00049FF1CBD7002002001490A4600F002B830
:1029B00001F0FFFF2DE9F04387B015460C465FEAB2
:1029C000000846D0FFF798FF002000F027FD814661
:1029D00021480068066E4046FFF7E6FA009000685E
:1029E000806900F0E3FC074640F6FF70C44204D162
:1029F0000098B0F90440B0F906500098611E0289B1
:102A0000ADF804401144ADF808104189681E08442F
:102A1000ADF80650ADF80A0005F0BAF96846FFF7C0
:102A2000F3FA01A806F0C6F806E02A462146404619
:102A300000F0DEFB06F072F80028F6D1384600F010
:102A4000B5FC304600F0E6F9484600F0E7FC00F03F
:102A5000F1FE07B0BDE8F0837002002038B5002415
:102A6000009400F001F838BD2DE9FE4F98469146DC
:102A70008A46834600270C9EFFF73EFF18481949F7
:102A80000068407C51F82040E1680968042903D0BF
:102A90002468002CF8D100E01CB9FFF72DFD041EBE
:102AA0001BD0E0680121C26A20469047050011D082
:102AB0002469A0688047401C02D10B4C46F00106F7
:102AC0000096CDE9015443464A465146584600F027
:102AD00035FA074600F0AEFE3846BDE8FE8F00002E
:102AE0007002002088020020108701082DE9FE4FA7
:102AF0009846DDE90D650C9F91468A468346002481
:102B00006DB1FFF7F9FE0097CDE9016543464A46EE
:102B10005146584600F012FA044600F08BFE20465B
:102B2000BDE8FE8F38B504001CD0FFF7E5FE0E4867
:102B30000068006EA04201D100F02AFC2046FFF799
:102B400033FA0090406908B100F05DFE009800681B
:102B5000FFF768FC6846FFF757FA2046FFF75EF973
:102B600000F068FE38BD0000700200202DE9FF4F24
:102B700083B09A468B460746FFF7BEFEDFF83891D2
:102B8000D9F80000447C4D4800570128204606DD56
:102B900002F07EFB0546204602F08EFB05E002F0C7
:102BA00059FB0546204602F05BFB04461FB302A911
:102BB00001A8FFF72FFEB7F90000002800DA002077
:102BC000B7F902608046002E00DA0026019841190C
:102BD000B7F90400491E09F0A1FD05460298011944
:102BE000B7F90600491E09F099FDA5EB0802841B00
:102BF000521C641C03E04FF0000846462A46BAF116
:102C0000000F01D1C4F1000A002A51DD002C4FDD74
:102C100010980090534631464046FFF725FF5FEA83
:102C2000000A10D000F0B0F80746A04206D0D9F84C
:102C30000000806C10B1322106F0BAFA504600F064
:102C4000E9F8002523E059460598884700F0F2FD91
:102C5000012007B0BDE8F08F611BB94202DA50468F
:102C600000F0BCF83DB172194146504600F0FAF848
:102C70005046FFF777FE5946059888471048016887
:102C800009B1002088475046FFF78EFE3D44A5421B
:102C9000E2DB5046FFF746FF002000F0BBF8A742FA
:102CA00006D0D9F80000806C10B1332106F080FA0C
:102CB00000F0C0FD0020CCE770020020A802002038
:102CC000C803002038B505004FF0000411D0FFF70D
:102CD00013FE2846FFF768F90090006800698068D5
:102CE000804702F011FF04466846FFF78DF900F0B7
:102CF000A1FD204638BD38B504000ED0FFF7FCFD1D
:102D00002046FFF751F900F1180400906846FFF7DC
:102D10007BF900F08FFD204638BD002038BD000053
:102D200038B504460025FFF7E7FD1CB908480068E0
:102D3000046E44B12046FFF737F90090B0F9045013
:102D40006846FFF761F900F075FD284638BD0000C0
:102D50007002002038B504460025FFF7CDFD1CB9F0
:102D600008480068046E44B12046FFF71DF9009042
:102D7000B0F906506846FFF747F900F05BFD2846BA
:102D800038BD00007002002038B504460025FFF76A
:102D9000B3FD1CB908480068046E44B12046FFF733
:102DA00003F90090B0F90A506846FFF72DF900F0DA
:102DB00041FD284638BD00007002002070B5054670
:102DC0000024284606F080FD641C18B1BDE8704060
:102DD00000F07AB8052CF4DB70BD000038B50C4665
:102DE000050004D10A480068056E002D0FD0FFF7DA
:102DF00083FD2846FFF7D8F80090B0F90A10A142E9
:102E000000DD44816846FFF7FFF800F013FD38BD90
:102E100070020020F8B50546FFF76EFD104E3068D1
:102E2000046ECDB10CB100F0B3FA05F0B1F828464C
:102E3000FFF7BAF8009031680D660068FFF7F4FA02
:102E40006846FFF7E1F802F0FBFC02F071FC00BFFE
:102E500000F0F0FC2046F8BD00F09AFAF8E7000018
:102E6000700200207CB515460E46040004D11548BA
:102E70000068046E002C24D0FFF73EFD2046FFF7CB
:102E800093F82DB20090C58034B2848002F050FCDB
:102E90000098406980B1FFF787F8009A0190B2F975
:102EA00008108180B2F90A20C28011B10AB10480F1
:102EB000458001A8FFF7A8F86846FFF7A5F800F0DD
:102EC000B9FC7CBD7002002001490A4600F002B83E
:102ED00001F0FFFF7FB515460C4606002DD0FFF729
:102EE0000BFD3046FFF760F840F6FF710190CC42D1
:102EF00003D1B0F90440B0F906500289611E1144B3
:102F0000ADF80840ADF80C104189681E0844ADF8D2
:102F10000E00ADF80A5001A8FFF776F802A805F0F8
:102F200049FE06E02A462146304600F049F905F000
:102F3000F5FD0028F6D100F07DFC7FBD2DE9FF4FA7
:102F4000DFF8E8B083B01C46DBF80010DDE9106064
:102F500092464FF000084B7C42461299FFF726FA42
:102F6000050060D028698068804702F0CDFD814669
:102F70000AFB09F1C91DCF08FFF724F8F10705D1B5
:102F8000C11700EB9170801000EB4000002C09DCB1
:102F90001FB11838B0FBF7F000E000206442A042F7
:102FA00000DC0446F00707D10090DDE90301234669
:102FB000524600F0ADFB8046002C03DC2846FFF7AC
:102FC00031FA30E004FB07F01830F10702D0FEF7C9
:102FD000F7FE01E0FEF703FF06001CD0FEF7E4FF5A
:102FE00001900560039981800499C180A0F808A030
:102FF0004481C0F81480C0E9037901A8FFF704F800
:103000001298AE602861DBF80000407CA861304671
:1030100007B0BDE8F08F2846FFF704FAB8F10000CA
:1030200001D0FEF7FBFE0020F2E700007002002056
:103030002DE9F74F8EB0144689460E98FEF7B4FF7F
:103040000990B0F908B0B0F90A60006800694068FA
:103050000C9009A8FEF7D8FF564D574F2868407CC2
:1030600057F82000C1688A6A0821904707901828FD
:1030700001D3202007902868407C57F82000006981
:10308000069003C80B904D48814201D0012000E01A
:1030900000200A90002000F06BFC00287DD12868F9
:1030A00009EB0B01B0F90C20891A491E002902DD39
:1030B000ABEB010500E05D46B0F90810494505DDC0
:1030C000A1EB090189446D1A089101E000210891E2
:1030D000002D6BDDB0F90E20A119891A491E0029B7
:1030E00002DDA6EB010800E0B046B0F90A00A042FC
:1030F00004DD061B3444A8EB060800E00026B8F106
:10310000000F53DD089801900DA95F46DDF830A04F
:103110000E980091FFF7EFFD774300EB87010198D0
:103120002B4601EB800200994846CDE900A12146DB
:1031300000F0FCFD0090002838D00A98E8B1DDE9E5
:1031400006322946009800F0C3FCB0B90698009FEB
:10315000DA46D0F810C0BCF1000F05D004235A465F
:1031600039463846E04708E00B993868884701C778
:10317000AAF101005FEA000AF6D100990020079A3F
:10318000CDE90301059001200090CDE9010221461F
:103190000346641C2A46484600E007E001F016FE9C
:1031A000A8F10100761C5FEA0008ABD111B0BDE8C0
:1031B000F08F00007002002088020020A353000856
:1031C000F8B515460E460746FEF7EEFE009000687D
:1031D0001621C068426A0020904704466846FEF700
:1031E00013FF002C03D02A4631463846A047F8BDCD
:1031F000F8B516460F46050012D0FEF7D5FE009032
:1032000044696846FEF700FF2846FFF75BFD03466A
:10321000082800DD2CB13246394628460AF04CF821
:10322000F8BD3246394628460AF0E6F9F8BD10B531
:10323000002821D009B30AB3B1F90040B2F9003037
:103240009C4200DA23460380B1F90240B2F9023011
:103250009C4200DA23464380B1F90440B2F90430BD
:103260009C4200DD23468380B1F90610B2F90620A6
:10327000914200DC1146C18010BD11460A6802600F
:103280004968416010BD00280BD003880B440380BF
:10329000838819448180418811444180C188114448
:1032A000C180704770B50025FFF726FB094CD4E9B3
:1032B000002082420AD0D2E90056104609F08CF86C
:1032C00020603146284605F065F9012500F0B2FA84
:1032D000284670BD680300202DE9FC41154DDDE94D
:1032E00008742D68B5F90860864200DD3046B5F9EE
:1032F0000C60964200DA3246824219DBB5F90A6068
:103300008E4200DD3146B5F90E509D4200DA2B4663
:103310008B420DDB00E02C46E5682D6825B1042DBD
:1033200002D02568002DF6D1CDE9007402F0E0F856
:10333000BDE8FC8170020020B0F90220B1F906302E
:103340009A4213DCB1F90220B0F906309A420DDC42
:10335000B0F90020B1F904309A4207DCB1F900104D
:10336000B0F90400814201DC012070470020704761
:103370000146024870220068FCF76CBF7002002012
:10338000024970220968FCF765BF00007002002046
:1033900010B5FFF7B1FA02F077F902F051FA04F034
:1033A000F7FCBDE8104000F045BA000070B50B4DC9
:1033B00004462868467CFFF79FFA022C09D2204673
:1033C000FFF79AF828B128684474FFF7E1FF044832
:1033D000046000F02FFA304670BD0000700200203B
:1033E000E002002010B50446FFF786FA204602F0FE
:1033F00075F9BDE8104000F01DBA10B50446FFF79E
:103400007BFA204602F0A2F9BDE8104000F012BAA3
:1034100001498860704700006402002010B504462E
:10342000FFF76AFA204602F0B3F9044600F002FA08
:10343000204610BD70B50446FFF75EFA04480068E8
:10344000C56904B1C46100F0F5F9284670BD0000FB
:103450007002002070B50546FFF74EFA0348006879
:10346000847E857600F0E6F9204670BD700200206B
:1034700070B50C460546FFF73FFA0948224605801D
:103480000848048008480068417C084850F821003A
:10349000C1680B6A29469847BDE8704000F0CAB978
:1034A000B0020020B202002070020020880200203A
:1034B00070B50546FFF720FA03480068047E0576DC
:1034C00000F0B8F9204670BD7002002070B50446C7
:1034D000FFF712FA04480068B0F92C50848500F018
:1034E000A9F9284670BD00007002002070B504469E
:1034F000FFF702FA04480068B0F92A50448500F04A
:1035000099F9284670BD000070020020024800684A
:10351000002800D000477047A803002002498A68AD
:1035200002B98860FFF7F2BF6803002010B50400FD
:103530000ED0FFF7E1F9204609F038FC204609F0EB
:1035400077FE2046FEF76AFCBDE8104000F072B935
:1035500010BD38B50C46050011D0FFF7CDF928464F
:10356000FEF722FD00908089204201D0012400E076
:1035700000246846FEF748FD00F05CF900E00124F5
:10358000204638BD38B50546002028600648046846
:1035900044B12046FEF708FD0090006928606846A7
:1035A000FEF732FD204638BD9403002038B50400F4
:1035B0004FF000000D46086011D02046FEF7F4FCE5
:1035C0000090846844B16846FEF71EFD2046FEF771
:1035D000EBFC0090006928606846FEF715FD204668
:1035E00038BD00002DE9F041084E044605683068FA
:1035F000016828468847074630684168284688475A
:10360000284420603846BDE8F081000074020020A4
:103610002DE9F0410C4606460025064F05E03868C6
:1036200041683046884706440544641EF7D2284660
:10363000BDE8F081740200202DE9F0411E46069C91
:103640001746884605463A46A8687F1C3346D0F898
:1036500004C041462846E047641EF4D1BDE8F0812D
:1036600070B5B0F90040091BB0F904408C422CDD64
:1036700000F11404B0F902500069521B02FB004033
:10368000CA1800EBE104521ED010B0EBE10501F0C6
:1036900007034FF0FF0102F0070221FA03F0C2F125
:1036A000070201FA02F1CEB221780FD001436D1E5C
:1036B00004F8011B002D05DDFF2229462046FCF7FA
:1036C000E9FD2C4420783043207070BD3040014328
:1036D000217070BD10B5B0F90030B0F90240C91AC0
:1036E00000F114030069121B02FB003000EBE10043
:1036F00001F0070302788021D9400A43027010BD0F
:10370000B0F90610026951431430FCF7CABD00003D
:103710002DE9F843804602F10F000011470003FB3A
:1037200007F01C46154689461430FEF758FB060084
:1037300018D0FFF7E1F83046FEF736FC0090A0F80D
:103740000080A0F802908580C48007498160012133
:10375000818107616846FEF757FC00F06BF8304640
:10376000BDE8F8830020FBE73499010870B5B0F993
:103770000660B0F904400B6800F1140596421BDDA9
:103780000069A34202FB005000EBE30214DA641E5E
:10379000E010A0EBE30512F8010B03F00704A040D2
:1037A000C4B206E045B1083312F8014B23F0070319
:1037B0006D1E002CF6D004E0002070BD6006040EE3
:1037C0005B1C2006FAD5FF2C07D0184602E06406E1
:1037D000240E401C6606FAD400E0D81DC4436407DA
:1037E00005D006E012F8014BFF2C09D108306D1E00
:1037F000F8D5C01A401C0B6070BD6206140E401C48
:103800002206FAD4F5E738B50546FFF775F82846DD
:10381000FEF7CAFB00908189491E0CB2848168467C
:10382000FEF7F2FB14B92846FEF7F8FA00F002F8AA
:1038300038BD00000348C168491EC16001D100F0D5
:103840008BB87047780300202DE9F04116460F46EB
:1038500005460024FFF750F832463946284600F066
:1038600013FE054408B1641CF6E7FFF7E3FF2046AA
:10387000BDE8F08110B54FF400410348FEF7C6FAE9
:103880000248FFF7C5FD10BDEC6600208C670108FB
:1038900010B5044620460FF0C3FF10BD10B51E2022
:1038A0000FF0BEFF10BD10B510F04CFF10BD10B5ED
:1038B00010F04EFF10BD704710B5012010F0B4FCA1
:1038C0001B4908600846006808B1012000E000209C
:1038D00050B900BF102080F31188BFF34F8FBFF3A2
:1038E0006F8F00BF00BFFEE703220021012010F010
:1038F000ACFC104908600846006830B100231A4645
:1039000019460C48006810F0E7FD0A48006808B145
:10391000012000E0002050B900BF102080F3118882
:10392000BFF34F8FBFF36F8F00BF00BFFEE710BD27
:10393000980000209C00002010B50648006808B9D7
:10394000FFF7BAFF00235A1E19460248006810F01C
:10395000A9FC10BD9800002010B500231A46194696
:103960000248006810F0B8FD10BD0000980000206B
:103970000EB508B102AA00E00022002301A96846A2
:1039800000F05EFB0EBD0000074910B50C7818B1C1
:1039900001200870801E03E0002008706FF07F4057
:1039A00001F0C8F9204610BDAA02002010B5082A6F
:1039B0000EDC0346012A18D0022A56D0042A76D0FB
:1039C00010F8042B03F8012B491EF9D1012010BD7A
:1039D000102A08DC4FEA000230F8043B22F8023BD0
:1039E000491EF9D1F2E7002010BD10F8042BD207D0
:1039F000120E491E34D010F8044B491E04F0010485
:103A000042EA84122CD010F8044B491E04F0010441
:103A100042EA441224D010F8044B491E04F0010479
:103A200042EA04121CD010F8044B491E04F00104B1
:103A300042EAC40214D010F8044B491E04F00104F9
:103A400042EA84020CD010F8044B491E04F0010431
:103A500042EA440204D010F8044B04F0010422436B
:103A600003F8012B0029C0D1B0E710F8042B92070E
:103A7000120E491E15D010F8044B491E04F0030421
:103A800042EA04120DD010F8044B491E04F003045E
:103A900042EA840205D010F8044B04F003042243E8
:103AA000491E03F8012B0029DFD18FE7FFE710F84B
:103AB000042B1207120E491E05D010F8044B04F017
:103AC0000F042243491E03F8012B0029EFD17DE7A3
:103AD00038B50024009400F01DF838BD0B4810B52F
:103AE0008169002910D101218161FFF7C3FEFEF732
:103AF00045F901F0B7FE054905481C310860BDE8ED
:103B00001040084600F082BC10BD00006402002096
:103B1000BDC900082DE9F0410D460699044601B9DA
:103B200001461F68082A09DC0E46012A1AD0022A1B
:103B30005BD0042A7DD0082A13D18DE0102A07DC3F
:103B4000D3F810C00E46BCF1000F04D0022389E068
:103B50000020BDE8F08101CCB84726F8020B6D1EAD
:103B6000F9D189E001CCB847C0074FEA10686D1E53
:103B700036D001CCB84748EA801000F0FF086D1E2F
:103B80002ED001CCB84748EA401000F0FF086D1E67
:103B900026D001CCB84748EA001000F0FF086D1E9F
:103BA0001ED001CCB84748EAC00000F0FF086D1EE7
:103BB00016D001CCB84748EA800000F0FF086D1E1F
:103BC0000ED001CCB84748EA400000F0FF086D1E57
:103BD00006D001CCB84740EA080000F0FF086D1E8F
:103BE00006F8018B002DBDD146E001CCB847800717
:103BF0004FEA10686D1E16D001CCB84748EA001095
:103C000000F0FF086D1E0ED001CCB84748EA8000D6
:103C100000F0FF086D1E06D001CCB84740EA08004E
:103C200000F0FF086D1E06F8018B002DDDD123E0AA
:103C3000FFE701CCB84700074FEA10686D1E06D0B9
:103C400001CCB84740EA080000F0FF086D1E06F8F6
:103C5000018B002DEDD10FE0D3F810C0BCF1000FA7
:103C600004D001232A462046E04705E001CCB847AE
:103C700006F8010B6D1EF9D101206AE77CB50646F6
:103C800028480D46006868B1002004F093FF06E064
:103C90006A462946304605F0D5FE04F03FFF00286D
:103CA000F6D17CBD106800901F4C506801902268CE
:103CB000BDF8000032F84C1F0844ADF80000BDF814
:103CC000020091880844ADF80200BDF80400118894
:103CD0000844ADF80400BDF8060091880844ADF82A
:103CE0000600684604F066FF0EE000BF2068BDF8DD
:103CF00000106A464184BDF802108184294630468E
:103D000005F0A0FE04F00AFF0028EFD1206830F88B
:103D1000221F428D891A01804188C28D891A4180F3
:103D20007CBD0000AC020020700200202DE9FF4F96
:103D30008DB00020DDF86CA0164600901D460446AC
:103D40000246CAF8000008AB03A902A800F078F9FF
:103D500018B1002011B0BDE8F08F0898854200DD51
:103D60000546614F0B9561493868407C51F8201039
:103D7000049109690691FEF7F7FC05903868407CCC
:103D8000FEF75EFD5A498146884204D0594989456B
:103D900001D0012000E000200A9001CE1A99884746
:103DA0008346000E079077D0009870BB0D9800EB0B
:103DB00004084D480068B0F90800404503DDA0EB59
:103DC0000807804600E000270298049900EB840071
:103DD00000EB8700CDE900010B990D98421809927C
:103DE0000E9B40461946521EFFF776FA01200090BE
:103DF000059818280ADA0298DDE9052300EB84000B
:103E000000EB8700E91B00F079F812E00A9880B116
:103E1000029800EB840000EB87070998A0EB0808E4
:103E200049463868884701C7A8F101005FEA0008E1
:103E3000F6D13148C06980B3DDE9020700EB8400A8
:103E400007EB8402CDE902022B4C361F3046E469B1
:103E50002B460299A047FF213068B1EB106F02D1C9
:103E60000298006804E0029A1268B1EB126F01D167
:103E7000039A1060029806F10406001D0290039850
:103E8000001D03906D1EE7D10397DAF8000040F0A3
:103E90000101CAF8001020E021E0FFE70798FF28A1
:103EA00011D0C0F1FF02029850F82410584600F0DB
:103EB0002DFA039941F82400DAF8000040F00101DE
:103EC000CAF8001005E00298039950F8240041F860
:103ED0002400641C6D1E7FF460AF03983AE70399D9
:103EE00041F824B0E8E700007002002088020020BA
:103EF000A3530008A1530008E80300202DE9F05F58
:103F00000C1E16DD5E68014600EB8405082A12DCF3
:103F1000611E012A26D0022A47D0042A6AD0082A24
:103F200007D1071917F8010DB04745F8040D641EB5
:103F3000F8D1BDE8F09F102AFBDC5F693FB1224653
:103F4000BC46BDE8F04F02235DF804EB604701EB8F
:103F5000440700BF37F8020DB04745F8040D641E52
:103F6000F8D1E6E700EBE10001F0070710F801A93E
:103F70008146802020FA07F8B5F104050AEA080016
:103F8000C7F10701C840B04745F804093FB14FEAFF
:103F900048604FEA10687F1E641EEFD1C9E719F828
:103FA00001A907274FF00108F6E700EBA10001F097
:103FB000030710F801A981467900C02020FA01F812
:103FC0004FF0060BB5F104050AEA0800ABEB470118
:103FD000C840B04745F804093FB14FEA88604FEA4E
:103FE00010687F1E641EEFD1A3E7032719F801A90B
:103FF000B846F7E700EB6100012710F801A9A743D5
:104000008146B900F02020FA01F84FF0040B2D1F73
:104010000AEA0800ABEB8701C840B04745F804093D
:104020003FB14FEA08704FEA10687F1E641EEFD15F
:104030007FE719F801A901274FF00F08F6E7000004
:104040002DE9F047224C06461F46A0699046894656
:10405000002540B90120A06104F120011D4808603D
:10406000084600F0D3F9606930B91B480068606108
:1040700010B901F0F2F8606107B138604EB1A06884
:1040800030B960698000FDF701FFA06000B901252B
:104090003060B9F1000F0AD0E06830B96069800083
:1040A000FDF7F4FEE06000B90125C9F80000B8F1A1
:1040B000000F0AD0206930B960698000FDF7E6FE84
:1040C000206100B90125C8F800002846BDE8F08746
:1040D000E803002045CA0008A002002073B5124A78
:1040E00001A900981268904700240090C8B10F49B8
:1040F00000250968C969496959B10A684AB1019935
:1041000090477CBD6846FFF76DFA0546FEF742FB17
:1041100004440198401E0190F4D5284600F032F87E
:10412000044420467CBD000064030020700200208F
:1041300073B50D460098002490B10A490968C96911
:10414000496959B14A684AB1294690477CBD6846D9
:10415000FFF748FA20B10A2802D0641CAC42F6DB13
:1041600020467CBD70020020044AB2F900200260A3
:104170000348B0F90000086070470000B00200205A
:10418000B202002038B5002469460094FEF714FB03
:104190000099814200DD0C1A204638BDB0F900308C
:1041A000B1F90020934200DA0280B0F90230B1F98F
:1041B0000220934200DA4280B0F90430B1F90420C1
:1041C000934200DD8280B0F90620B1F906108A42E0
:1041D00000DDC180704770B5B1F90040B2F9003020
:1041E0009C4200DD23460380B1F90250B2F902403F
:1041F000A54200DD2C464480B1F90460B2F90450B8
:10420000AE4200DA35468580B1F90610B2F90620D3
:10421000914200DB1146C1809D4201DBA14201DADF
:10422000002070BD012070BD014602480068407C3E
:1042300000F002B8700200202DE9F84301268946FB
:10424000044602285DDA304F7A6802B190472E4D5D
:104250005FEA090005F1100532D0012803D0B9F159
:10426000020F4ED118E055F8240088B92046FEF719
:1042700043F9009018B3C0680D21426A6846904720
:1042800002003ED049460098904755F82400002689
:10429000401C45F8240034E02046FEF72DF900903C
:1042A00068B1C0680D21426A68469047040028D072
:1042B000386800B1804749460098A047002620E0B2
:1042C00055F82400A846012812D12046FEF714F91B
:1042D000009068B1C0680D21426A684690470500A9
:1042E00006D0386800B1804749460098A8470026A4
:1042F00058F8241009B1012200E00022891A48F878
:1043000024103046BDE8F8833803002070B5FF2341
:10431000B3EB116F29D0C3B200F47F4500F47F04E2
:10432000060E5343554354435643C2F1FF00CAB2ED
:1043300002FB003201F47F4303FB005301F47F05CD
:1043400005FB0044090E01FB0065C2F307204FF492
:104350007F4101EA1322090201EA14214FF07F4351
:10436000104303EA05430843184370BD2DE9F04F9D
:104370000646DDE90CB915460C4600208046584536
:1043800019D20B9F4FF0FF0A01CE08CCAAEB1062A6
:1043900002FB09F2B2FBFAF1CAB21946FFF7B6FF07
:1043A00020F07F4001C57F1EEED1099804EB800408
:1043B00008F10100E2E7BDE8F08F016811F8012B78
:1043C00011F8013B016042EA032210467047016880
:1043D00011F8012B11F8013B42EA032211F8023BCC
:1043E00042EA034211F8013C016042EA03621046CE
:1043F00070470B88134403808B889B1A83804B88FB
:1044000013444380C988891AC180704702494A69A8
:104410004260486170470000640200202DE9F843C3
:104420000768064688460025384600F0BFF840B3C6
:10443000404600F0CBF8441C3846FDF79FFD84420F
:104440000CD1F4B13846FDF7AFFD2246414600904D
:10445000FBF700FF6846FDF7D7FD11E02046FDF7AA
:10446000AFFC04000DD0FDF79FFD41460090FBF727
:1044700037FF6846FDF7C8FD3046FDF7F9FC3460AC
:1044800001252846BDE8F88310B5044600F009F878
:1044900001462046BDE81040FFF7BAB8002308F0F7
:1044A000EFBE77B581B015460E466B46019808F011
:1044B000E7FE044601460198FFF7AAF8019908446F
:1044C000019001A8FFF78EF80A2802D0012D02D032
:1044D00012E0641C10E020280ED1FEF75BF90546BF
:1044E00007E02844009001A8641CFFF77BF820280F
:1044F00002D100988642F4DA04B0204670BD10B5AF
:1045000002E000F8011B521E0AB18307F9D193089B
:1045100018D001EB014402F0030204EB042406E08E
:1045200010C01B1F10C040F8084B40F8044C042B6F
:10453000F6DA01E010C05B1E002BFBD102E000F8B0
:10454000011B521E002AFAD110BD10B5830702D5F7
:1045500020F8021B521E530811D001EB0144042B1A
:1045600009DB10C01B1F10C0042B40F8084B40F89B
:10457000044CF6DA01E010C05B1E002BFBD1D20721
:1045800000D0018010BD000000B907A021B906A12C
:1045900002E03AB1401C491C02780B789A42F8D0EC
:1045A00001207047002070470000000038B50D461C
:1045B000012448B1FDF7F8FC29460090FFF7E4FF1D
:1045C00004466846FDF720FD204638BD4FF0FF3118
:1045D00028B100BF10F8012B491C002AFAD1084667
:1045E0007047000070B58CB000210B9801F0B2FA52
:1045F0000BAA0AA922A00BF09FFD04462CB121486A
:1046000050F8241020A009F043FA0B98006A801E8D
:104610000B99498900FB01F60B9840890A9900FB28
:1046200001F50B98406B0B99096B0B9AD26A0B9BA7
:104630009B6ACDE90632CDE908100B98416A806982
:104640000B9A52690B9B9B89CDE90232CDE904019B
:104650000B98C0880B998978CDE900100B98438995
:10466000427801780E4809F013FA6A0871080DA023
:1046700009F00EFA0021084601F06CFA0CB070BD8A
:10468000303A0000B8000020BBF1C8A1B4C5C5CCC9
:10469000D0C5CFA2CAA7B0DC282573290D0A000017
:1046A000689901082531306C75204B694220546FA0
:1046B00074616C2E0D0A2531306C75204B694220D7
:1046C000417661696C61626C652E0D0A0000000024
:1046D0002DE9FF5F074640688246FDF765FC0390C1
:1046E000D0E90045D0F88490D0F84080466B03A80C
:1046F000FDF78AFC3946504603F096F9002855D05C
:1047000038680B286FD004DC032808D005284AD16C
:1047100032E00F284CD0B0F5107F44D137E0B9F12A
:10472000000F40D04F4ED7F80C80706808B1B068C9
:1047300028B900F09FFD706000F0B0FDB060D8F8BF
:104740000010002902DD20B2401A15D4D8F8040068
:10475000002803DDC0EB2442002A0DD4002904DA2E
:104760002AB2511A7268914206DC002809DAB1684F
:10477000C0EB2540884204DD0121504600F01AF9C3
:1047800011E0221421B24846FEF76CFB0BE0F868FA
:1047900028B1007A08B1012102E0022100E00321E2
:1047A000504603F0EFFE384603F002FCBDE8FF9FE1
:1047B000B9F1000003D000BFFEF786FBF6E7F00773
:1047C00049D0700710D5284A284901208DE80700F4
:1047D00021142AB220B2C1EB2543121A521C5B1CD1
:1047E000FEF784F90AE03AE021142AB220B2C1EBC4
:1047F0002543121A521C5B1CFEF730F904002AD024
:104800005046FDF7D1FB0390C0F8844003A8FDF7A4
:10481000FBFBDFF85C90D9F80000D0E90257204696
:10482000FEF7F8FA8346700706D54FF07F40FEF793
:10483000D9FDFDF723FD02E02046FEF793F8504630
:10484000414688475846FEF7E5FAD9F80000C0E926
:1048500002572046B0E7504641468847A6E7002168
:104860008BE70000C402002010870108E0900108D7
:1048700070020020F0B51446D0E9056285B0B0F9A9
:104880000850478A0296CDE90352CDE90017B0F9E6
:104890000C10B0F91050B0F90E20B0F90A0019440C
:1048A00020442B4600F002F805B0F0BD2DE9F04F92
:1048B00087B08146DDE911061C461546884640F062
:1048C0000107DDF840B0DDF850A0FEF715F830071D
:1048D00015D505A9584603F089FCBDF91800BDF9A6
:1048E00014104FF00008451ABDF91A00BDF9161052
:1048F000C146441A641C47F4F0676D1C03E005B917
:10490000012504B901240AF15C00124ACDE9022014
:10491000CDE900B723462A464146484603F090FABF
:10492000040011D0FDF740FB04900022139903F01E
:104930004BF90499B0074E6301D5074800E00748DA
:10494000086404A8FDF760FBFEF774FF07B020467B
:10495000BDE8F08FD1460008ADCB00086DCA000855
:10496000F8B514460D4606001ED0002D1CD0002CB4
:104970001AD0FDF7C1FF3046FDF716FB00900B493A
:10498000C464C0E90E510A4941646846FDF73CFB26
:104990000021304600F00EF8304600F023F8304693
:1049A00003F06CFDFEF746FFF8BD0000BDB4000843
:1049B00051C1000838B50C46FDF7F6FA0090D0F862
:1049C0008400FEF7AFF800980025C0F884502CB999
:1049D000806D18B1FEF7AAFD009885656846FDF761
:1049E00013FB38BD7FB50546FDF7DEFA009090F861
:1049F0003460446C6846FDF707FBF00608D502AA50
:104A000001A92846A047DDE90112284603F046FF28
:104A10007FBD000000B587B00121084601F014F900
:104A20000121102001F030F9072209214948FCF743
:104A3000D7FF07220A214748FCF7D2FF00208DF854
:104A40001A0001208DF81B0002208DF818000002CA
:104A5000059002208DF8190005A93E48FCF778FF63
:104A600002208DF818004002059005A93948FCF78E
:104A70006FFF4FF4E13001900020ADF80800ADF871
:104A80000A00ADF80C00ADF810000C20ADF80E00D7
:104A900001A9314802F048FD012240F225512E487B
:104AA00002F01CFD01212C4802F0D5FC40212A48CF
:104AB00002F0C8FC0121042001F0C6F801212020E9
:104AC00001F0E2F8082206212448FCF789FF0822B9
:104AD00007212248FCF784FF00208DF81A000120EE
:104AE0008DF81B0002208DF8180040200590022050
:104AF0008DF8190005A91948FCF72AFF02208DF846
:104B000018008020059005A91448FCF721FF4FF4F8
:104B1000E13001900020ADF80800ADF80A00ADF8D2
:104B20000C00ADF810000C20ADF80E0001A90C48E7
:104B300002F0FAFC012240F22551094802F0CEFCB5
:104B40000121074802F087FC4021054802F07AFC69
:104B500007B000BD00000240001001400008024004
:104B60000014014010B5112001F088FF782009F0F1
:104B700007FC362001F082FF002001F08FFF3A2071
:104B800001F07CFF552001F089FFB22001F076FF93
:104B90000C2001F083FF0C2001F080FF002001F0C9
:104BA0007DFF332001F07AFF332001F077FFB7203B
:104BB00001F064FF352001F071FFBB2001F05EFFC2
:104BC0002B2001F06BFFC32001F058FF172001F0EC
:104BD00065FFC42001F052FF202001F05FFFC620D6
:104BE00001F04CFF052001F059FFD02001F046FFF5
:104BF000A42001F053FFA22001F050FF01F0E2FEDB
:104C0000132001F03BFF202001F038FF01F038FDB8
:104C100004480388044802880021084601F0A2FEE7
:104C200010BD00000E0100200C01002010B5002076
:104C300001F020FA00F0010008B1012010BD0020B1
:104C4000FCE710B5002001F015FA00F0020008B1F1
:104C5000012010BD0020FCE710B500F055F820B190
:104C600000F05DF808B1012010BD0020FCE710B590
:104C700000F034F820B100F03CF808B1012010BD7C
:104C80000020FCE710B5002001F0F4F900F004006A
:104C900008B1012010BD0020FCE710B5002001F094
:104CA000E9F900F0080008B1012010BD0020FCE780
:104CB00010B5002001F0DEF900F0100008B101206D
:104CC00010BD0020FCE710B5002001F0D3F900F082
:104CD000200008B1012010BD0020FCE710B5002025
:104CE00001F0C8F900F0400008B1012010BD00201B
:104CF000FCE710B5002001F0BDF900F0800008B11C
:104D0000012010BD0020FCE710B5002001F0B2F931
:104D100000F4807008B1012010BD0020FCE710B540
:104D2000002001F0A7F900F4007008B1012010BDC7
:104D30000020FCE702490A6808601046704700003E
:104D40001C04002010B50446204601F04BFC10BDA9
:104D50000449054A0968497C52F821100969096823
:104D60000847000070020020880200201CB50121C5
:104D7000022000F069FF03208DF8050001208DF866
:104D8000040000208DF8060001208DF8070040F691
:104D9000FF70009069460C48FCF7DAFD4FF4807113
:104DA0000948FCF74FFE4FF400710748FCF74AFE34
:104DB0004FF480610448FCF745FE4FF4006102485F
:104DC000FCF740FE1CBD0000000402402DE9F04F3E
:104DD00005468DB07B48DDF860901A9C00681E4641
:104DE00017464FF0000A78B11B9B199ACDF808902E
:104DF0000593CDE90324DDE91623CDE900230468FA
:104E000033463A46284680E0DDE9160201EB060803
:104E100005EB070C1043A8F10108ACF1010C0128C7
:104E200006D0C9F108000590002002910990C6E063
:104E300065480268B2F90A30581A002806DD361AA9
:104E4000002E63DD1946199B00FB0344B2F90E00E6
:104E5000A8EB0000002802DD361A002E56DDB2F95C
:104E60000C00ACEB0000002800DD3F1AB2F908305E
:104E70000020AB4235DD581B3F1A4B46B9F1080FF5
:104E800026D006DC012B0BD0022B11D0042B28D10D
:104E900016E0102B1ED0182B1FD0202B21D11CE088
:104EA00020F0070304EBE0041D4400F0070018E0C5
:104EB00020F0030304EBA0041D4400F0030010E005
:104EC00020F0010304EB60041D4400F0010008E041
:104ED000044404E004EB400401E004EB80040544D6
:104EE0000020002F12DD1B9BDDF864C0CDE9040318
:104EF000CDE90069CDE902C4527C34483B4650F804
:104F00002200C26854680A462946A0470DB0BDE891
:104F1000F08F1799029808440C902B49401E00907E
:104F20000A68B2F90A30834241DCB2F90E100298E5
:104F300081423CDB4FF0000BD84603950A9434E0E5
:104F4000BBF1000F05D10A984FF0080B10F801AB28
:104F50000A900599ABEB090B3AFA01F00AFA09F14C
:104F600001F0FF0A04D118490968097C890716D4A1
:104F700015490968C96B0A680B921B9A0AB152F865
:104F80002000086016990398009B4218521E02994F
:104F900000F0D2F80C490B980968C96B08600399B6
:104FA000169808F1010808440390B845C8DB099831
:104FB000401C09900C980290199804440998B0423A
:104FC000A7DBA3E7AC0200207002002088020020CB
:104FD000F0B40C4612490968B1F90A30A3421CDC4E
:104FE000B1F90E30A34218DBB1F90830834200DD7D
:104FF0001846B1F90C30934200DA1A4682420CDBB3
:105000004B7C084951F8235013462246E9688E68C4
:1050100001462846B446F0BC6047F0BC704700002B
:1050200070020020880200200A46174930B409683F
:10503000B1F90A30934225DCB1F90E30934221DBFD
:10504000B1F9083083421DDCB1F90C30834219DB21
:105050000B7C0E4CDB0709D0497C54F82130D96811
:10506000CC690146A44630BC18466047CB6B497CEE
:105070001B6854F82140E1688D6901462046AC4622
:1050800030BC604730BC70477002002088020020AE
:10509000124B30B41B68B3F9084084421CDCB3F9EE
:1050A0000C40844218DBB3F90A408C4200DD2146F3
:1050B000B3F90E40944200DA22468A420CDB5C7C53
:1050C000074B53F82440E368DD6813460A4601465F
:1050D0002046AC4630BC604730BC704770020020B0
:1050E000880200202DE9F04104460D4616461F4671
:1050F0003B4632462946204601F0C7FABDE8F0811A
:105100002DE9F04104460D4616461F463B46324601
:105110002946204601F0D8FABDE8F0812DE9F0419A
:1051200004460D4616461F463B4632462946204653
:1051300001F0EBFABDE8F08138B5134C2468B4F9FE
:105140000850854200DD2846B4F90C50954200DA3B
:105150002A46824217DBB4F90A508D4200DD294607
:10516000B4F90E509D4200DA2B468B420BDB0093C4
:10517000647C064B53F82440E3681D6913460A46D5
:1051800001462046A84738BD700200208802002052
:105190002DE9F84304460D4616461F46DDF82080EB
:1051A0003B46324629462046CDF8008001F0C0FA41
:1051B000BDE8F883082106F0E3BE0000024800685D
:1051C000806B006870470000700200200248006891
:1051D000C06B006870470000700200200148008822
:1051E000704700000C010020024809210068407C43
:1051F00006F0C6BE70020020092106F0C1BE70B5DF
:1052000000252C462046FDF777F900B16D1C641C83
:10521000022CF7DB284670BD02480068407C00F095
:1052200003B800007002002010B5FDF765F90028F2
:1052300005D0C168CA6ABDE810400221104710BD00
:1052400070B504460D462946204601F090FA064600
:10525000304670BD032106F093BE032006F0BABFAE
:10526000042106F08DBE0000014800887047000050
:105270000E010020024801210068407C06F080BE3B
:10528000700200200148006870470000BC02002046
:10529000012106F075BE012006F09CBF02480221E4
:1052A0000068407C06F06CBE700200200148406837
:1052B00070470000BC020020022106F061BE0220FF
:1052C00006F088BFAFF300802DE9F041002809D037
:1052D000876837B10D4E716819B10468B4F5807FE5
:1052E00002DD0020BDE8F0813068844200DD044624
:1052F000002507E057F82500FFF72AFD716841F8FF
:1053000025006D1CA542F5DB7068EBE7B8030020B3
:1053100010B5FDF7F1F8002801D00069006810BD54
:105320001CB50121042000F08FFC4FF48050009048
:1053300001208DF8040003208DF8050000208DF871
:1053400006008DF8070069460D48FCF701FB4FF495
:1053500080510B48FCF776FB012009F011F84FF45F
:1053600080510748FCF76CFB0A2009F009F84FF45C
:1053700080510348FCF766FB782009F001F81CBD5A
:10538000000802400449054A0968497C52F8211086
:10539000096949680847000070020020880200205F
:1053A00070477047074900F01F02C0F34413C0F371
:1053B0008420CB5C085C8A5C00EB032000EB02409D
:1053C000704700009884010810B500F01F01074ADB
:1053D000074BC0F34514C0F3C4201B5D105C515C47
:1053E00000EB032000EB014010BD00009884010891
:1053F000B884010810B50A4C606860B92068800064
:10540000FCF744FD606040B104F108010548086004
:105410000846FEF7FBFF002010BD012010BD000074
:10542000B803002031CA000810B5FFF79FFCFFF752
:1054300077FF01F0B3F9094908800846008847F270
:105440008971884208D1022000F092F90020FFF70C
:1054500079FC322000F038F910BD00000A0100206C
:105460002DE9F047FFF7CBFE07460024DFF8608008
:105470002AE02046FDF740F828B3D8F8000090F85D
:10548000119044742046FFF795FE082817DC114858
:10549000114950F824000069884210D02046FFF7D7
:1054A000ABFE0646002508E0E8B2FFF76BFF0246B8
:1054B000E9B2204600F072F96D1CB542F4DBD8F871
:1054C000001081F81190641CBC42D2DBBDE8F0876B
:1054D00070020020880200201C91010870B504466B
:1054E0000D46164632462946204601F071F970BD38
:1054F0002DE9FF4F83B01646DDE910408B46C068AA
:105500004769426A7AB1012111A8904705000AD083
:105510000698CDE9000433465A4603991198A847E6
:1055200007B0BDE8F08F57480068407CFDF71CF9D4
:105530008246082801DC012005E0BAF1100F01DCE9
:10554000022000E004208046002596E04046B8F1A5
:10555000010F05D0022871D0B8F1040F25D17CE0ED
:10556000BAF1090F21D2DFE80AF08605213F3F5941
:1055700059595900039815E001465A461198B84701
:10558000C5F1070188404FF67F722178EA4011404B
:1055900001436D1C217004EBE50425F00700054173
:1055A00009F101008146B042E6DD64E0039817E0AE
:1055B00001465A461198B8470621A1EB450188409B
:1055C0006B004FF63F722178DA40114001436D1CA9
:1055D000217004EBA50425F00300054109F1010049
:1055E0008146B042E4DD46E0039813E001465A46A6
:1055F0001198B8470421A1EB850188402178AB00C0
:105600000F229A401140014321702C4485F001057E
:1056100009F101008146B042E8DD2CE0DDF80C9094
:1056200007E001465A461198B847207009F1010970
:1056300044444846B145F4DD1DE0FFE7DDF80C9039
:1056400007E001465A461198B847208009F1010940
:1056500044444846B145F4DD0DE0DDF80C9007E028
:1056600001465A461198B847206009F1010944449F
:105670004846B145F4DD0BF1010B06998B457FF7E8
:1056800065AF4DE77002002010B50D4C0D49206844
:10569000407C51F8200048B1C16811B10968042963
:1056A00001D00068F7E708B1FCF70CFF2068002183
:1056B000016600F108014161BDE8104000F038B812
:1056C000700200208802002010B5044602480470D1
:1056D000204600F079F810BD10010020014909684A
:1056E00049680847B4030020044909680A7C520746
:1056F00001D5C96B00E0896B08607047700200201B
:105700007CB5094C05462068417C084850F82100CA
:10571000C1680A6B6946904720686A462946083086
:10572000FEF759FD7CBD00007002002088020020B9
:105730000448016804484A7C083150F82200C268D5
:10574000126B10477002002088020020014909688E
:1057500009680847B4030020044909680A7C520715
:1057600001D5896B00E0C96B0860704770020020AA
:1057700010B5044602480470204601F0B7F810BD89
:1057800011010020014AC2E900017047BC0200205B
:105790000149096889680847B4030020F8B515462F
:1057A0000E460124FCF7A8FE009058B1C0681021F5
:1057B000426A68469047030004D02A463146009862
:1057C000984700242046F8BD1CB504464FF4FA6003
:1057D000032382060421CDE90004024809F080FB7E
:1057E0001CBD000000000240F8B515460E4601241D
:1057F000FCF782FE009058B1C0680B21426A6846EF
:105800009047030004D02A46314600989847002468
:105810002046F8BDF8B515460E460124FCF76CFE8F
:10582000009058B1C0680A21426A68469047030058
:1058300004D02A4631460098984700242046F8BDF7
:1058400010B5074C2068006BFFF782FAFFF784FF62
:105850002068406BFFF77CFABDE81040FFF744BFBB
:105860007002002070B500231A460D490D48FCF760
:10587000C5FDFFF7B3FC0446FFF7F6FC05462246DC
:1058800029460020FFF7B0FFFFF7A8FC0446FFF70A
:10589000EBFC0546224629460020FFF7BBFF70BD02
:1058A00080600108F44D010810B503461446042930
:1058B00016D006DC01290BD002290BD0032915D103
:1058C0000AE005290ED006290ED00E290ED105E0DA
:1058D000002010BD0020FCE70020FAE70020F8E7D8
:1058E0000020F6E70020F4E70020F2E74FF0FF3257
:1058F00000BF00BF1046ECE72DE9FF4F8DB0174603
:10590000674ADDF870901E9E209812681D4600249C
:105910008AB11D9B1F98CDE90293CDE90460DDE9B2
:105920001A03CDE9000314682B463A460D98A047A8
:1059300011B0BDE8F08F0D9A01EB050802EB070CE2
:10594000DDE91A231A43A8F10108ACF1010C012A80
:1059500006D0C9F108004FF0000B029105909CE0C1
:10596000504A1268B2F90A40631A002B06DDED1A9C
:10597000002DDDDD21461D9C03FB0466B2F90E30CF
:10598000A8EB0303002B02DDED1A002DD0DDB2F9E8
:105990000C30ACEB0303002B00DDFF1A0D9B1C1A2F
:1059A000B2F90830A3420DDDA3EB040C0CEB0003AD
:1059B000181A20F007000444A7EB0C0706EBE306D7
:1059C00003F00700002FB3DDDDF874C01F9BCDE9A5
:1059D00002C6CDE90403CDE90059527C32483B466A
:1059E00050F82200C26855680A462146A8479FE73A
:1059F0001B99029808440C902A49401E00900A689E
:105A0000B2F90A30834242DCB2F90E1002988142A8
:105A10003DDB4FF0000A0D980A96D046039034E023
:105A2000BAF1000F05D10A984FF0080A10F8014B9F
:105A30000A900599AAEB090A34FA01F004FA09F46C
:105A4000E4B204D117490968097C890717D41549BC
:105A50000968C96B0A680B921F9A0AB152F82000B4
:105A6000086003991A98009B0A18DDE90210521E7B
:105A7000FFF762FB0B490B980968C96B0860039933
:105A80001A9808F1010808440390B845C8DB0C983F
:105A900002901D980BF1010B0644AB45A8DB47E7CC
:105AA000AC0200207002002088020020002818D0DC
:105AB000410817D0810817D0C10817D0010917D0A5
:105AC000410917D0010A17D0410A17D0010B15D090
:105AD000C10B13D0010C11D0810C11D0000E11D0CC
