:020000040800F2
:10000000D02D012031020008390200083B0200080F
:100010003D0200083F020008410200080000000005
:10002000000000000000000000000000990100082E
:100030004502000800000000DD010008A985000855
:100040004B0200084B0200084B0200084B0200085C
:100050004B0200084B0200084B02000881200008F8
:100060004B020008992000084B0200084B020008D0
:100070004B0200084B0200084B0200084B0200082C
:100080004B0200084B0200084B0200084B0200081C
:100090004B0200084B0200084B020008BD2000087C
:1000A0004B0200084B0200084B0200084B020008FC
:1000B0004B0200084B0200084B0200084B020008EC
:1000C0004B0200084B0200084B0200084B020008DC
:1000D0004B0200089D8B00084B0200084B020008F1
:1000E000212000084B0200084B0200084B020008C8
:1000F0004B0200084B0200084B0200084B020008AC
:100100004B0200084B0200084B0200084B0200089B
:100110004B0200084B0200084B0200084B0200088B
:100120004B0200084B0200084B0200084B0200087B
:100130004B0200084B0200084B0200084B0200086B
:100140004B0200084B0200084B0200084B0200085B
:100150004B0200084B0200084B020008AD8B000860
:100160004B0200084B0200084B0200084B0200083B
:100170004B0200084B0200084B0200084B0200082B
:100180004B020008DFF80CD000F0E4F8004800470C
:100190001F770108D02D0120224B19680868B0E8AC
:1001A000F00F80F30988BFF36F8F4FF0000080F3EA
:1001B00011884EF00D0E70470000000006480068E0
:1001C000006880F3088862B661B6BFF34F8FBFF353
:1001D0006F8F00DF00BF00BF08ED00E0EFF3098084
:1001E000BFF36F8F0F4B1A6820E9F00F106008B54E
:1001F0004FF0100080F31188BFF34F8FBFF36F8F64
:1002000019F028F94FF0000080F31188BDE808408C
:1002100019680868B0E8F00F80F30988BFF36F8FA2
:10022000704700BF24000020EFF3058070470000F6
:100230000648804706480047FEE7FEE7FEE7FEE780
:10024000FEE7FEE7FEE7FEE7FEE7FEE7DD850008E6
:100250008501000810B5431A934209D28318881803
:1002600003E010F8011D03F8011D521EF9D210BD64
:1002700040EA01039B0703D009E008C9121F08C028
:10028000042AFAD203E011F8013B00F8013B521EA8
:10029000F9D210BDD2B201E000F8012B491EFBD209
:1002A00070470022F6E710B513460A460446194681
:1002B000FFF7F0FF204610BD421C10F8011B00297B
:1002C000FBD1801A704730B504460020034600E099
:1002D0005B1C934203D2E05CCD5C401BF8D030BD88
:1002E000034611F8012B00F8012B002AF9D118461A
:1002F00070472DE9F05F0546002092469B468846F0
:100300000646814640241BE0284641464746224691
:1003100000F041F853465A46C01A914110D3114695
:100320001846224600F028F82D1A67EB01084F46C0
:1003300022460120002100F01FF817EB00094E4172
:10034000201EA4F10104DFDC484631462A4643461C
:10035000BDE8F09F064C074D06E0E06840F0010361
:1003600094E8070098471034AC42F6D3FFF70EFF2D
:1003700004F7030824F70308202A04DB203A00FAD4
:1003800002F1002070479140C2F1200320FA03F3EC
:10039000194390407047202A04DB203A21FA02F0EA
:1003A0000021704721FA02F3D040C2F120029140AF
:1003B00008431946704770B58C1810F8015B15F0AA
:1003C000070301D110F8013B2A1106D110F8012BC7
:1003D00003E010F8016B01F8016B5B1EF9D12B07EC
:1003E00005D40023521E0DD401F8013BFAE710F8A2
:1003F000013BCB1A921C03E013F8015B01F8015B8F
:10040000521EF9D5A142D8D3002070BD21B1826817
:1004100042F00102826003E0826822F00102826001
:10042000704700000021084A1168084A1140D0E9CD
:1004300000231A4383681A43C3681A431143044ACA
:10044000C2F804137047000004230140E030FCFFB1
:100450000020014021B1826842F48072826003E092
:10046000826822F480728260704721B1826842F40F
:100470000072826003E0826822F40072826070473A
:1004800030B50246002000235068104C20400D7902
:100490000C6844EA05242043506090680C4C2040CE
:1004A000D1E903542C438D682C434D7944EA45042B
:1004B00020439060D06A20F470000C7D641EE4B28A
:1004C000234340EA0350D06230BD0000FFFEFFFC32
:1004D000FDF7FFC0F0B504460D4600200021092DB0
:1004E00011DDE068A5F10A0606EB4607072606FAC5
:1004F00007F18843A5F10A0606EB460603FA06F162
:100500000843E0600CE0206905EB4507072606FA82
:1005100007F1884305EB450603FA06F1084320611D
:10052000072A0FDA606B561E06EB86071F2606FAAF
:1005300007F18843561E06EB860605FA06F10843C6
:10054000606322E00D2A0FDA206BD61F06EB8607C8
:100550001F2606FA07F18843D61F06EB860605FA22
:1005600006F10843206310E0E06AA2F10D0606EBF5
:1005700086071F2606FA07F18843A2F10D0606EB4F
:10058000860605FA06F10843E062F0BD816841F095
:10059000804181607047000038B10849096841F422
:1005A0000001074AC2F8041306E00449096821F46F
:1005B0000001034AC2F804137047000004230140FD
:1005C0000020014010B5012019F000FA014908602F
:1005D00010BD0000B00000201CB500200121034622
:1005E0008A02CDE900101DA11F4819F04DFC1F48DB
:1005F000022100230A02CDE900101DA1204819F0B4
:1006000043FC2048032100234FF48052CDE9001021
:100610001DA1214819F038FC204804210023CA01FB
:10062000CDE900101EA1214819F02EFC204805211B
:1006300000234FF40072CDE900101EA1214819F0EB
:1006400023FC0020062103464FF40072CDE9001080
:100650001DA1204819F018FC1CBD000076546173E0
:100660006B47554900000000DD8F0108A000002005
:10067000765461736B557365724B6579494600001A
:1006800021950108A4000020765461736B467344E1
:100690006562756700000000AD8F0108A8000020AA
:1006A000765461736B537461727400006193010836
:1006B000AC000020765461736B41646350726F63C9
:1006C00000000000218F0108765461736B5465733C
:1006D00074000000B998010838B545680446014621
:1006E000284608F076FD00282BD02068304A1128D3
:1006F0000DD006DC0B2825D00E2833D00F2852D180
:1007000012E0282849D0B0F5107F4CD108E092685B
:10071000002A16D02146284601B0BDE830401047D7
:10072000214628465268F7E7284602F039FA009039
:10073000406E0468684602F08FFA002C01D028460B
:10074000A04738BD284602F02BFA0090683002F02E
:100750007DF9009803216C3002F086F9684602F0BA
:100760007BFA20E0E168486809680D2902D0202959
:1007700013D105E0002810DD28460FF083FE06E0C7
:10078000002804DD2846BDE838400FF07BBE28462F
:10079000BDE8384002210FF08BBEE06818B9002197
:1007A000284600F0A4F92046BDE8384008F0ECBF28
:1007B00004040020F0B585B00DF1280C9CE8F00091
:1007C0004FF0000C8DE8F01000F002F805B0F0BD1D
:1007D0002DE9F04F85B01F46DDE911B4DDE90E5675
:1007E00090468946824603F017F916484C34CDE905
:1007F0000204CDE900563B4642464946504608F0C1
:100800000BFF040018D002F0CBF9102259460490D7
:1008100008F064FE049830220B493430FFF71AFDCB
:10082000094D04990C3D2868486604A802F014FAA2
:10083000286841682046884704F096FB05B02046AA
:10084000BDE8F08FD906000810040020F0B504467A
:1008500080688B4989B051F82050606800287DD0AD
:10086000052804D006287AD0122879D1AEE0E869AC
:1008700000284FD095E80E008DE80F0004F110011C
:100880000FC904F0C7FF002655F8260003F0F1FF5A
:10089000A169E8690A1A216901446069304402F0DB
:1008A00021FEA169E8690A1A21690144E069801BF7
:1008B00002F018FEE169E8690A1A616901442069D9
:1008C000304402F07BFEE169E8690A1A616901447B
:1008D000A069801B02F072FE761C022ED4DBA86891
:1008E00003F0C7FFE069E9696669431A20694218A5
:1008F0003144801C521E02F0BDFEE169E869A26924
:100900000B1A61690144101A401C921E02F0B2FEDB
:10091000EE6913E05FF0000655F8260003F0A9FF2A
:10092000E069831BA069821B6069811920693044DA
:1009300002F004FE761C022EEEDB0226D5E903014E
:10094000CDE900016169E06908444310A069891C90
:10095000821B2069304402F089FD02E089E012E048
:100960008AE0D5E90501CDE90001E369606901216B
:10097000184401EB6001A0699B1E821B2069304472
:1009800002F074FD78E0206802F00AF90490206813
:100990000AF0ACF840B1A06808B1002008E0049863
:1009A000006F28B1012003E00498406F00B10220DD
:1009B000049901EB8000C56E04A802F04DF90023F4
:1009C0001A462846216802F06FFB55E0206802F0C5
:1009D000E7F80490866EEEB3B0F95C70A168D1B30D
:1009E000032942D05FF0000100EB8101406D0C6CE7
:1009F00003F06EFF204603F03CFF05A802F0F2FE74
:100A0000BDF81410A88B0144ADF81410BDF81810EF
:100A1000081AADF81800BDF81600801CADF81600D5
:100A2000BDF81A00801EADF81A000498B0F96020D5
:100A3000B0F95E1005A803F0DFFC04A802F00CF981
:100A4000022003F0B1FF304602F0AAF83A4605A9A9
:100A5000079001E00BE006E002F022FC0DF11C0023
:100A600002F0FAF808E00121BEE70221BCE704A881
:100A7000F6E7206809F024FD09B00020F0BD000071
:100A800030E80308F8B515460C46060012D002F00F
:100A9000C3FF304602F084F80090032C02D200EB32
:100AA00084004563684602F0D7F8304609F0C6FA7C
:100AB00004F05AFAF8BD00294FF0100101D008F0F7
:100AC0001CBC08F06DBB38B50D4604000ED002F01A
:100AD000A3FF204602F064F800904565684602F0E6
:100AE000BBF8204609F0AAFA04F03EFA38BD4FF4EC
:100AF00080720029114601D008F0FFBB08F050BBFE
:100B00002DE9FF410E4605004FF0010421D002F00F
:100B100083FF284602F044F80190876E01A80097F1
:100B200002F09AF83146684605F050F978B100981D
:100B30000024B84208D0284602F032F8019000990B
:100B4000816601A802F088F8284609F077FA04F0D7
:100B50000BFA04B02046BDE8F081F8B515460C4606
:100B6000060012D002F058FF304602F019F800904B
:100B7000032C02D200EB84000564684602F06CF896
:100B8000304609F05BFA04F0EFF9F8BDF0B5054620
:100B90000E460024AF1905E015F8011BA0B208F0BD
:100BA000F7F90446BD42F7D3A0B2002108F0F0F9EE
:100BB00004462046002108F0EBF904462046F0BD2B
:100BC000014609B90B487047012901D10020FAE715
:100BD000022901D10020F6E7032901D10020F2E724
:100BE000042901D10020EEE7052901D10248EAE7F6
:100BF0000020E8E758F900208001012008B52520F1
:100C00008DF800000D208DF8010000208DF8020005
:100C100001208DF80300684606F0D6FB47208DF8CA
:100C2000000005208DF8020001208DF803006846C1
:100C300006F0CAFB08BD000010B5ADF5825D0021CD
:100C400001A806F093FB29A014F0F9FF04461CB993
:100C500028A011F0EDFB11E0082C06D12A4850F82D
:100C600024102AA011F0E4FB08E0274850F82410D3
:100C70002CA011F0DDFB0DF5825D10BD30A014F04D
:100C8000DEFF04461CB930A011F0D2FB0FE0082CA7
:100C900006D11D4850F8241030A011F0C9FB06E021
:100CA000194850F8241033A011F0C2FBE3E738A034
:100CB00014F0C5FF04461CB939A011F0B9FB0FE0D0
:100CC000082C06D1104850F824103BA011F0B0FBBE
:100CD00006E00D4850F824103EA011F0A9FBCAE729
:100CE0000021084606F042FB00BFC4E72F446972AA
:100CF00031000000665F6D6B646972204469723177
:100D0000204F6B0D0A000000B800002044697231CA
:100D100020C4BFC2BCD2D1BEADB4E6D4DA2825739C
:100D2000290D0A00665F6D6B646972204469723137
:100D300020CAA7B0DC20282573290D0A0000000076
:100D40002F44697232000000665F6D6B6469722027
:100D500044697232204F6B0D0A0000004469723200
:100D600020C4BFC2BCD2D1BEADB4E6D4DA2825734C
:100D7000290D0A00665F6D6B6469722044697232E6
:100D800020CAA7B0DC20282573290D0A0000000026
:100D90002F446972312F446972315F3100000000C5
:100DA000665F6D6B64697220446972315F3120B394
:100DB000C9B9A60D0A000000446972315F3120C430
:100DC000BFC2BCD2D1BEADB4E6D4DA202825732987
:100DD0000D0A0000665F6D6B6469722044697231B0
:100DE0005F3120CAA7B0DC20282573290D0A000036
:100DF00010B5ADF5035D002141F28400684406F0B2
:100E0000B5FA16A10AA815F071FC044644B11448BD
:100E100050F8241013A011F00BFB0DF5035D10BD6D
:100E20000A2216A116A815F05FFB044609AB222280
:100E300015A116A815F0B2FE04461CB91CA011F0AD
:100E4000F7FA02E021A011F0F3FA16A814F0FBFC67
:100E50000021084606F08AFA00BFDEE7303A2F008C
:100E6000B8000020B4F2BFAAB8F9C4BFC2BCCAA778
:100E7000B0DC20282573290D0A00000061726D6620
:100E80006C792E7478740000466174465320577252
:100E90006974652044656D6F200D0A207777772E81
:100EA00061726D666C792E636F6D200D0A00000013
:100EB00061726D666C792E74787420CEC4BCFED0DD
:100EC000B4C8EBB3C9B9A60D0A00000061726D6623
:100ED0006C792E74787420CEC4BCFED0B4C8EBCA32
:100EE000A7B0DC0D0A00000021B1026842F0010247
:100EF000026003E0026822F0010202607047000015
:100F000010B500220268134B1A40CC680B682343CB
:100F10004C6923438C692343CC6923430C6A2343E4
:100F20004C6A23438C6A23434C6B23438C6B2343CF
:100F30001A430260426922F00702D1E90B342343CD
:100F40001A4342610B6943604B6883608B68C360DE
:100F500010BD00003F801CF070B5ADF5845D002130
:100F600011A806F003FA4CA015F0B7FD04461CB911
:100F70004BA011F05DFA0CE0042C04D146A14DA069
:100F800011F056FA05E0524850F8241051A011F023
:100F90004FFA5DA015F0A1FD04461CB95EA011F04A
:100FA00047FA0EE0042C01D0052C04D156A141A033
:100FB00011F03EFA05E0464850F824105EA011F00A
:100FC00037FA35A015F089FD04461CB934A011F09C
:100FD0002FFA0CE0042C04D12FA136A011F028FA2E
:100FE00005E03B4850F824103AA011F021FA62A025
:100FF00015F073FD04461CB961A011F019FA0CE05C
:10100000042C04D15CA12BA011F012FA05E03048A9
:1010100050F8241060A011F00BFA6CA015F05DFDE3
:1010200004461CB96CA011F003FA0CE0042C04D1A6
:1010300066A120A011F0FCF905E0254850F8241025
:101040006CA011F0F5F900251CE02A4677A10DA847
:1010500011F0FEF90DA815F040FD044624B90DA9C4
:1010600076A011F0E5F90BE0042C04D10DA978A0CD
:1010700011F0DEF904E022460DA97AA011F0D8F9AA
:10108000681CC5B2142DE0DB0021084606F06EF99D
:101090000DF5845D70BD00002F44697231000000C1
:1010A000C9BEB3FDC4BFC2BC44697231B3C9B9A6DD
:1010B0000D0A0000C3BBD3D0B7A2CFD6CEC4BCFEAE
:1010C000BBF2C4BFC2BC203A25730D0A0000000069
:1010D000B8000020C9BEB3FD44697231CAA7B0DCB4
:1010E00028B4EDCEF3B4FAC2EB203D2025732920BD
:1010F000CEC4BCFED6BBB6C1BBF2C4BFC2BCB7C770
:10110000BFD50D0A000000002F446972312F4469D9
:1011100072315F3100000000C9BEB3FDD7D3C4BF38
:10112000C2BC2F446972312F446972315F31B3C937
:10113000B9A60D0A00000000C9BEB3FDD7D3C4BFD5
:10114000C2BC2F446972312F446972315F31CAA722
:10115000B0DC28B4EDCEF3B4FAC2EB203D20257309
:101160002920CEC4BCFED6BBB6C1BBF2C4BFC2BC34
:10117000B7C7BFD50D0A00002F44697232000000C6
:10118000C9BEB3FDC4BFC2BC204469723220B3C91A
:10119000B9A60D0A00000000C9BEB3FD4469723251
:1011A00020CAA7B0DC28B4EDCEF3B4FAC2EB203DE0
:1011B0002025732920CEC4BCFED6BBB6C1BBF2C469
:1011C000BFC2BCB7C7BFD50D0A00000061726D6613
:1011D0006C792E7478740000C9BEB3FDCEC4BCFE19
:1011E0002061726D666C792E74787420B3C9B9A6CB
:1011F0000D0A0000C9BEB3FD61726D666C792E7474
:101200007874CAA7B0DC28B4EDCEF3B4FAC2EB20F0
:101210003D2025732920CEC4BCFED6BBB6C1BBF28F
:10122000C4BFC2BCB7C7BFD50D0A00005370656507
:1012300064253032642E747874000000C9BEB3FD9A
:10124000CEC4BCFE2573B3C9B9A60D0A00000000C8
:10125000C3BBD3D0B7A2CFD6CEC4BCFE3A25730D44
:101260000A000000C9BEB3FD2573CEC4BCFECAA7E8
:10127000B0DC28B4EDCEF3B4FAC2EB203D202564F7
:101280002920CEC4BCFED6BBB6C1BBF2C4BFC2BC13
:10129000B7C7BFD50D0A000008B500BF00F0F2F8CF
:1012A0006DE012F073FD642017F052FE69460020D5
:1012B00013F0F4FC002862D031A011F0B9F89DF8C9
:1012C0000000342832D00CDC312818D004DC0D2882
:1012D00050D0302851D10CE0322816D033284CD1D0
:1012E0001EE03538052848D2DFE800F0262C3238D9
:1012F0003E0024A011F09CF800F064FF3EE027A01F
:1013000011F096F807F0C2FE38E02AA011F090F82C
:10131000FFF76EFD2DA011F08BF806F023FC2DE0F9
:1013200030A011F085F8FFF787FC27E032A011F01C
:101330007FF8FFF711FE21E035A011F079F809F0F0
:10134000BDFE1BE037A011F073F804F02FFE15E08E
:1013500039A011F06DF800F08BF90FE03CA011F00E
:1013600067F807F061FE09E03FA011F061F807F0AF
:1013700029FE03E000F086F800E000BF00BF90E720
:101380000D0A0000A1BE30202D2046696C65466F15
:10139000726D6174A1BF0D0A00000000A1BE312072
:1013A0002D2056696577526F6F74446972A1BF0D25
:1013B0000A000000A1BE32202D20437265617465D1
:1013C0004E657746696C65A1BF0D0A00A1BE32204B
:1013D0002D205265616446696C6544617461A1BFEA
:1013E0000D0A0000A1BE33202D2043726561746593
:1013F000446972A1BF0D0A00A1BE34202D204465AE
:101400006C65746544697246696C65A1BF0D0A001C
:10141000A1BE35202D20546573745370656564A199
:10142000BF0D0A00A1BE36202D204469736B496EA2
:10143000666FA1BF0D0A0000A1BE37202D20446FAA
:10144000776E6C6F61642046696C65A1BF0D0A0000
:10145000A1BE38202D2055706F61642046696C65EF
:10146000A1BF0D0A00000000A1BE39202D2055703B
:1014700064617465204669726D77617265A1BF0D04
:101480000A00000010B514A010F0D2FF20A010F048
:10149000CFFF2AA010F0CCFF2DA010F0C9FF35A07F
:1014A00010F0C6FF3BA010F0C3FF44A010F0C0FF37
:1014B00046A010F0BDFF4BA010F0BAFF4FA010F0F7
:1014C000B7FF53A010F0B4FF59A010F0B1FF60A017
:1014D00010F0AEFF10BD00000D0A2D2D2D2D2D2D6D
:1014E0002D2D2D2D2D2D2D2D2D2D2D2D2D2D2D2D2C
:1014F0002D2D2D2D2D2D2D2D2D2D2D2D2D2D2D2D1C
:101500002D2D2D2D2D2D2D2D2D2D0D0A0000000002
:10151000B5DAD2BBB4CECAB9D3C3C7EBD1A1D4F12B
:10152000C3FCC1EE30BDF8D0D053504920466C61A9
:101530007368B8F1CABDBBAF0D0A0000C7EBD1A1FB
:10154000D4F1B2D9D7F7C3FCC1EE3A0D0A000000BE
:1015500030202D20B6D45350495F466C617368BD6E
:10156000F8D0D0CEC4BCFECFB5CDB3B8F1CABDBBA8
:10157000AF0D0A0031202D20CFD4CABEB8F9C4BFA8
:10158000C2BCCFC2B5C4CEC4BCFEC1D0B1ED0D0A41
:101590000000000032202D20B4B4BDA861726D6639
:1015A0006C792E7478742CB2A2B6C1B3F6CEC4BCDA
:1015B000FEB5C4C4DAC8DD0D0A00000033202D20BA
:1015C000B4B4BDA8C4BFC2BC0D0A000034202D2095
:1015D000C9BEB3FDCEC4BCFEBACDC4BFC2BC0D0AE9
:1015E0000000000035202D20B6C1D0B4CEC4BCFE12
:1015F000CBD9B6C8B2E2CAD40D0A000036202D20DD
:10160000BBF1C8A1B4C5C5CCD0C5CFA20D0A00009E
:1016100037202D20CAB9D3C3596D6F64656DD0AD25
:10162000D2E9CFC2D4D8CEC4BCFE0D0A000000005F
:1016300038202D20CAB9D3C3596D6F64656DD0AD04
:10164000D2E9C9CFB4ABCEC4BCFE0D0A0000000085
:1016500039202D20C9FDBCB64669726D776172656F
:10166000B5BDD6B8B6A8B5C4B5D8D6B70D0A000072
:101670002DE9F05FADF5165D00240026A246A146D7
:101680000021CDF8E014002500278B4680210DF5C0
:101690008C60FEF706FE0021CDF85C14CDF85814DE
:1016A0002022EB490DF58760FEF7D4FD4FF48161F0
:1016B0000CA8FEF7F6FD002141F24450684405F005
:1016C00055FE0DF587610DF59D6015F00FF880460C
:1016D000B8F1000F09D0DF4850F82810DEA010F054
:1016E000A7FE0DF5165DBDE8F09F9FE1322012F0D8
:1016F000DFF9DDF8580400B199E1BAF1000F06D026
:10170000BAF1010F78D0BAF1020F74D115E143217B
:10171000584606F0FFFD4FF480120DF59C615846C7
:1017200006F0A4FA002864D19DF8E004012860D1F5
:1017300002050DF59C61584606F098FA9DF8E00404
:1017400018B10320CDF8580470E14FF480120DF564
:101750009C61584606F08AFA9DF8E004FF2803D001
:101760000320CDF8580461E1002408E00CA8011919
:101770004FF48012584606F079FA601C84B2802C2F
:10178000F4DB4FF480120DF59C61584606F06EFABA
:101790004FF480120DF59C61584606F067FA062159
:1017A000584606F0B7FD4FF0010A002406E00CA8E9
:1017B000005D0DF58C610855601C84B2802C03DA45
:1017C0000CA8005D0028F2D10CA92144481C0DF2A0
:1017D0005C4106F067FE0B220DF58C610DF5A360F0
:1017E00014F082FE80464FF001094321584606F06E
:1017F00091FD19E100E013E14FF480120DF59C61B9
:10180000584606F033FA9DF8E00418281AD006DC92
:10181000012810D0022810D0042826D104E0412845
:101820000ED0612821D10CE04FF0020A0621584663
:1018300006F070FDFAE080271EE04FF480671BE0A1
:1018400000BF00BF1821584606F064FD1821584615
:1018500006F060FD0DF58C6015F03FF984A010F0E6
:10186000E7FD0221CDF85814E0E04A469DF8E01467
:1018700087A010F0DDFDD9E000BF4FF480120DF518
:101880009C61584606F0F2F94FF480120DF59C6108
:10189000584606F0EBF9002408E00CA801194FF4B3
:1018A0008012584606F0E2F9601C84B2BC42F4DBB8
:1018B0004FF480120DF59C61584606F0D7F99DF85B
:1018C000E0542D024FF480120DF59C61584606F04D
:1018D000CDF99DF8E004054339460CA8FFF756F909
:1018E000A8420CD0701CC6B239460CA8FFF74EF9BE
:1018F0003B46024629460B906EA010F099FD8EB92A
:101900000DF2E4433A460CA90DF5A36015F046F933
:10191000804609F101001FFA80F90621584606F0B9
:10192000F9FC09E01521584606F0F4FC31466AA09E
:1019300010F07EFD701EC6B276E04321584606F0D8
:10194000E9FC4FF480120DF59C61584606F08EF9C3
:101950009DF8E00401285FD102050DF59C61584611
:1019600006F084F99DF8E00418B10320CDF858047E
:101970005CE04FF480120DF59C61584606F076F954
:101980009DF8E004FF2803D00320CDF858044DE073
:10199000002408E00CA801194FF48012584606F004
:1019A00065F9601C84B2802CF4DB4FF480120DF5D5
:1019B0009C61584606F05AF99DF8E0542D024FF408
:1019C00080120DF59C61584606F050F99DF8E00430
:1019D000054380210CA8FFF7D9F8A84201D0701C5C
:1019E000C6B2AEB90DF5A360DDF85C1413F0BAFF12
:1019F0000DF5A36015F018F80DF5A36013F023FFA3
:101A00000621584606F086FC0421CDF858140DE056
:101A10001521584606F07EFC0420CDF8580403E05A
:101A20000120CDF8580400BF00BF00BF5EE600BF34
:101A30002CA010F0FDFC0DF58C6131A0DDF85C24CC
:101A400010F0F6FC0021084605F090FC00BF48E6C7
:101A5000CCA50108B8000020B4F2BFAAB8F9C4BFF1
:101A6000C2BCCAA7B0DC20282573290D0A000000DB
:101A7000557365722063616E63656C207472616E6C
:101A8000736665722064617461200D0A00000000B5
:101A9000556E6B6E6F77205374617274436F64651B
:101AA0003A202564207061636B5365713A20256488
:101AB0000D0A000043726356616C75653A20256417
:101AC000204352433A2564207061636B73697A65E1
:101AD0003A2025640D0A0000457272282564290DFC
:101AE0000A0000000D0A446F776E6C6F6164206617
:101AF000696C65205375636365737321200D0A005B
:101B000046696C654E616D653A2025732046696CA7
:101B10006553697A653A2564200D0A002DE9FC4772
:101B20000E465FEA00097FD001F076FF484601F0DB
:101B300037F8009090F85470D0F85880456BC46C1A
:101B4000684601F089F8B8F1000F04D031464846E4
:101B50004246904761E0122E18D006DC082E43D092
:101B6000102E3CD0112E06D112E0132E21D01D2EA6
:101B700043D01E2E3DD0202E4FDB17B148460AF031
:101B80009AFBB1B248460EF021FB60B3611C27E01E
:101B90004DB3284601F004F805462146019003F0B4
:101BA000D1F84419204603F06DF80146234601227E
:101BB00010E0C5B1284600F0F3FF0546214601902C
:101BC00003F0C0F84419204603F05CF801462346B0
:101BD0004FF0FF32484609F079FD01A81BE0611E75
:101BE000484600F0F3F918E0BCB1611E484600F029
:101BF000EDF948460AF05FFB0FE0484600F0D0FFE1
:101C00000090012F12D0012180F85410214648463F
:101C100000F0DCF9684601F01FF8484608F00EFABB
:101C200000E001E003F0A0F9BDE8FC87002180F8A6
:101C30005410EFE77CB545680446284608F056FF87
:101C400006462146284607F0C4FA002844D02068FA
:101C50000F283DD004DC0B283FD00E2860D147E090
:101C6000A0F58070133804D0A0F580702D3857D1BE
:101C70001DE0284608F03CFB284600F091FF00904C
:101C800010F8561F81F004010170684600F0E4FF6F
:101C9000002128460EF0C4FC284600F081FF009089
:101CA000D0F88400002108F0FAFA68461DE0E068E8
:101CB00060B1017A29B10168284600F097F8012146
:101CC00000E00221284608F032FA29E00321F9E772
:101CD000012128460EF0A4FC7CBD284600F060FFE0
:101CE0000190343000F0B2FE01A800F0B5FF17E01B
:101CF000B6B1E0684168002912DD01681B290FD0E8
:101D000006DC09290CD00A290AD00D2904D107E0E4
:101D1000212905D0222903D02846FFF7FFFE7CBDEC
:101D2000204607F031FD7CBDF0B587B00DF1300ED7
:101D30009EE8F0104FF0000E8DE8F05000F002F831
:101D400007B0F0BD2DE9F04F85B01F46DDE9125414
:101D5000DDE90E6A90468946834601F05DFE0DF18D
:101D6000040C4AF480501F49603400968CE813003C
:101D70003B4642464946584607F04EFC04002AD0EE
:101D800000F00EFF10220490119907F0A7FB0498B1
:101D9000242215496030FEF75DFA049A012082F88A
:101DA0005500681C00D0012082F88800002D00DC5E
:101DB00008252DB2158700205087506304A86D1C9C
:101DC00000F04AFF294620460EF0DFF818B92046F9
:101DD00007F012FD002403F0C7F805B02046BDE867
:101DE000F08F0000351C0008400400202DE9F04170
:101DF00086B00C46060055D001F00EFE304600F0CD
:101E0000CFFE0090406B98B300F0CAFE039000989C
:101E1000806E02F05DFD8046304607F07AFE074690
:101E2000039801F037FD0546009890F8601001F026
:101E30000301012916D002290DD0416EC06A006845
:101E40000844241A641E039803F068FE0146002C1F
:101E50000FDA002115E0781B401C00EBD070A4EBDA
:101E60006004F0E7406E791B081A241A641CEAE744
:101E700013E0AC4205DC02462146039803F0F8FD6E
:101E80000146304600F0A2F803A800F0E5FE404607
:101E900002F01EFD304608F0D1F8684600F0DCFE86
:101EA00003F062F806B0BDE8F08138B50D460400D5
:101EB0000ED001F0B1FD204600F072FE0090856664
:101EC000204608F0BBF8684600F0C6FE03F04CF868
:101ED00038BD2DE9FC4788465FEA00094FF000064F
:101EE00052D001F099FD484600F05AFE0090B0F93A
:101EF0003850446B684600F0AFFE0027B8F1000F81
:101F000044D04CB1204600F04BFE0190FEF7D4F9CE
:101F1000461C01A800F0A0FE404603F0FFFD044669
:101F2000A84200DD2C462146404602F00BFF451C2E
:101F3000A91B48460EF0E6F908B3484600F030FE0B
:101F40000090406B00F02CFE2A4641460190FEF7BF
:101F500081F90198284400F8017C0098C464B0F924
:101F600038108C4205D190F85410012901D1641E1B
:101F7000C46401A800F070FE684600F06DFE48469B
:101F800008F05CF802F0F0FFBDE8FC87484600F07E
:101F900007FE0090343000F059FD00984787C76471
:101FA000EAE738B50C4605000FD001F035FD2846AC
:101FB00000F0F6FD009018B10466284608F03EF8DF
:101FC000684600F049FE02F0CFFF38BD1CB50C4654
:101FD00000F0E6FD0090406BF0B100F0E1FD0190F3
:101FE00003F09CFD009991F8542002B10122002CCD
:101FF00000DA0024844200DD0446B1F93800801A7A
:10200000A04200DA0446C86CA04200D0CC64002094
:10201000086501A800F020FE684600F01DFE1CBD0A
:1020200010B54FF4006000F06FF840B1134800683D
:1020300020F4006011490860C81400F05FF84FF404
:10204000005000F061F840B10C48006820F40050E6
:102050000A490860481400F051F84FF4004000F0BD
:1020600053F848B10548006820F40040034908606F
:102070004FF4004000F042F810BD0000003C014069
:1020800010B5022000F040F820B112F0C7FB02208A
:1020900000F034F810BD000010B5082000F034F84E
:1020A00040B10548006820F0080003490860082096
:1020B00000F024F810BD0000003C014010B5802065
:1020C00000F022F840B10C48006820F080000A4976
:1020D0000860802000F012F84FF4807000F014F8CF
:1020E00040B10548006820F48070034908608815F5
:1020F00000F004F810BD0000003C014001490860F8
:1021000070470000143C0140014600200022074BAC
:102110001B6803EA0102054B14331B680B4013B123
:102120000AB1012000E0002070470000003C01409F
:10213000002123498279002A3AD00A4612680368AE
:102140009A430B461A600A1D126803689A430B1DD6
:102150001A60027911440A6803681A430A60184A2F
:102160000832126803689A43154B08331A601A1D27
:10217000126803689A43124B0C331A604279102A92
:102180000ED11A1F126803681A430D4B08331A60E8
:102190001A1D126803681A43094B0C331A600DE0CC
:1021A0000749427911440A6803681A430A6005E046
:1021B000027911440A6803689A430A607047000074
:1021C000003C014010B5ADF5015D002141F2040075
:1021D000684405F0CBF84FF4805001AB0022072192
:1021E00000900CA013F0E4FD044634B10A4850F806
:1021F00024100AA010F01CF905E0074850F824103C
:102200000BA010F015F90021084605F0AFF80DF508
:10221000015D10BD303A0000B8000020B8F1CABD21
:10222000BBAFCAA7B0DC20282573290D0A00000027
:10223000B8F1CABDBBAFB3C9B9A620282573290D13
:102240000A0000002DE9F84306464FEA2628F5B2B9
:102250007F2D09DAA8F18100C0EB401101EB80105D
:1022600005EB4000403884B2802D09DDA8F18100E3
:10227000C0EB401101EB801005EB4000413884B207
:102280004FF6FF7000EA4404044821180222684611
:1022900016F012FA6F463888BDE8F88300F0FD01A9
:1022A0002DE9F0430446C56887B090468946002072
:1022B00002F002FB064625B1287910B146F0020073
:1022C00001E026F0020002F0F7FA2069012558B17A
:1022D000D4E902128DE826000395638822880468F9
:1022E00041464846A0471EE0124F134B214638682E
:1022F0001B68427CE068984730B9E088012801D02B
:10230000002001E03868806BA288E388A16800950E
:10231000CDE90410CDE90232019563882288414657
:10232000484604F0C7F807B03046BDE8F04302F075
:10233000C3BA00004C0300204403002010B5002065
:1023400002F08CFA6FF07F4002F093FA012002F065
:102350000DFB002002F018FB002002F025FB0020FE
:1023600002F0AAFA0448006802F0B2FABDE8104090
:10237000002002F0CDBA000048030020F0B50A4664
:1023800000210023002400BF3DE0012505FA01F3F0
:10239000156805EA03049C4234D105684F00032602
:1023A000BE40B543056015794E00B540066835431B
:1023B00005601579012D02D01579022D16D1856899
:1023C0004F000326BE40B543856055794E00B540A9
:1023D000866835438560456801268E40B543456073
:1023E000456896798E40B6B235434560C5684F0062
:1023F0000326BE40B543C560D5794E00B540C668DA
:102400003543C560491C1029BFD3F0BDF0B500238A
:1024100000244D07ED0E02FA05F3CE1000F1200561
:1024200055F826504E07F70E0F26BE40B543CF1085
:1024300000F1200646F82750CE1000F1200555F88F
:10244000265045EA0304CE1000F1200545F8264049
:10245000F0BD0146086980B270470246002013694A
:102460000B400BB1012000E0002070474183704712
:1024700001837047416170470AB1018300E04183E5
:10248000704700002DE9F04FDFF828B191B04FF010
:10249000FF35DBF80030B3F922100691DE69B3F99D
:1024A00024A0F469A189814206D8E289824203D33B
:1024B000471AD4F8008012E0D4E90181002970D0D5
:1024C0000A8882426DD84D8885426AD3801A82B2CA
:1024D000486800EB8200B0F90070B0F90250781C37
:1024E0005FD0307EA27C014600FB02F9207CCDE962
:1024F0000710B3F92A60304604F0F2FCC0B20E9027
:10250000DBF8001007FB0980A37C8A6B0127CDE96B
:102510000402CDE90273C869089AC17E807ECDE9C4
:102520000001DDE90603514603F0C4FF681C18D022
:1025300046F0020004F0D4FCDBF80000A37C05FBAD
:102540000981826BCDE90273CDE90412C069089A52
:10255000C17E807ECDE90001DDE90603514603F02E
:10256000A9FFDBF800005D46C069417E007E814224
:1025700014D9022E12D086F0040004F0B1FC2868B1
:10258000C069027EC37E857E02FB03A1437E089A5A
:102590000698534402FB050204F042F90E9804F039
:1025A0009FFCDBF80000627C418C1144418411B037
:1025B000BDE8F08F4C03002004480068C069C06982
:1025C00009B1027C0A60407C704700004C03002087
:1025D000022008807047C06982898A4202D8C28975
:1025E0008A4210D2806880B102888A420DD843881E
:1025F0008B420AD3406800EB8100A0EB8200B0F967
:102600000000002801DB0120704700207047000017
:10261000F0B5254C054687B020682946B0F92A60F8
:10262000C069C06900F045F900283AD041680088C7
:10263000281A01EBC0053046AF7804F051FC06467D
:102640001A48D0F800C0BCF1000F15D0002168680E
:10265000CDE904010422012001A9009081E8850050
:102660002068DCF800702A78C1690B7EB0F924106C
:10267000B0F92200B8470CE06868CDE90070206826
:102680002A78C1690B7EB0F92410B0F9220000F05D
:102690006FF9304604F024FC20686A78418C1144BC
:1026A000418407B0F0BD00004C03002088030020E7
:1026B00070B505460B480C4629460068C069C069DC
:1026C00000F0F7F800280BD0416800882A1A012092
:1026D00000EBC200002C085C02D011F8321021601F
:1026E00070BD00004C03002011200880704710B519
:1026F000C06900F0DEF8002800D0012010BD000005
:102700002DE9F0432F4C034687B020681946B0F9F5
:102710002A80C069C06900F0CCF800284ED041681A
:102720000088181A01EBC0054046AE7804F0D8FBCB
:10273000814620686A680123816BCDE90236CDE9C4
:102740000421C169CB7E8A7ECDE900230B7EB0F9DE
:1027500024102A78B0F9220003F0ACFE2068C0698A
:10276000477E067EB7421DD9C07E47434643B8F137
:10277000020F17D001F03BF8804601F001F802F09B
:1027800078F821682A78CB69B1F92200B1F92410D0
:10279000DB7E02FB0302CB19314404F041F84046D2
:1027A00002F067F8484604F09BFB20686A78C3692A
:1027B000B0F922109B7E02FB0311418407B0BDE8F3
:1027C000F08300004C0300202DE9F3411B4E0F461F
:1027D000002530682C46C069417EC07E01FB00F8B0
:1027E0001CE0684602F082FA054630682946C06956
:1027F000C06900F027F888B141680088281A00EB0A
:10280000400001EB800090F9021000790844316823
:10281000C969897E4843002800DD04447F1EE0D555
:102820001DB1284603F096F904444146204608F0BD
:1028300071FF034901200870BDE8FC814C030020B2
:102840004805002006E002888A4202D842888A426F
:1028500002D280680028F6D17047000030B50E4CD7
:1028600005460B4620682946C069C06900F021F87A
:10287000002810D04168008824682A1A0120E469E1
:1028800000EBC200085CA47E6043002B03D011F86B
:1028900032106143196030BD4C03002001200880D4
:1028A000704700B5C06900F004F8002800D001208E
:1028B00000BD06E002888A4202D842888A4202D2DB
:1028C00080680028F6D170472DE9F0410025154EAB
:1028D000154C18E02069C5EB051700EBC700702206
:1028E000001D3168FDF7B6FC2069002140F8371063
:1028F00000EBC70000F10C018161011D0A1DC0E958
:102900000F126D1C4164A0688542E3DB0DF098FA5C
:102910002169C0EB001001EBC000001D3060BDE874
:10292000F08100004C0300208005002070B50F49A5
:102930000D480860084603F041FA0C4C143CA068AE
:10294000C0EB0010C500284600F09CF82A46002184
:10295000206103F0ACFA4FF0FF30206002F046FB3C
:10296000BDE870400DF06CBAA9050108940500207F
:102970007CB5084EDDE906543668367CCDE9005456
:10298000B60702D40BF040FB7CBD034C2468A04783
:102990007CBD00004C0300200803002010B504009B
:1029A00009D001F039F8204608F04CFD044602F049
:1029B000DBFA204610BD002010BD38B5054601F0F9
:1029C0002BF82846FFF7EAFF040009D000F0E8F8EA
:1029D0002A460021009003F06AFA684600F03CF9AC
:1029E00002F0C2FA204638BD024A106021F003000E
:1029F00050607047F81B012010B5040016D001F09C
:102A00000BF80B48406B10F8341059B1022909D269
:102A1000042101EBC4014158486808F0CBFC204672
:102A20000EF018F8BDE8104002F09EBA10BD00008C
:102A3000381B0120002805D0034AD16B016001B189
:102A40004860D06370470000381B012010B5044671
:102A500000F0E2FF2068FFF7CFFF00202060BDE814
:102A6000104002F081BA000070B50D460646002401
:102A700005E000BF06EB8400FFF7E8FF641CAC42F2
:102A8000F8DB70BD2DE9F04104460DF04BFB284802
:102A9000E41C24F00305016C2D1DA94200D90D464C
:102AA000C46B13E054F8042CAA420ED184B12168FF
:102AB00009B162684A60616809B122680A60C26B44
:102AC000A24231D12168C1632EE02468002CE9D1F3
:102AD0008046816BC0680F1857F8040C3E1A3068A6
:102AE00038B100200EF020F857F8040C3E1A306878
:102AF000D0B97068A84217DB3044441B3046241D0F
:102B00000DF0CAFFD8F80C10491BC8F80C10D8F803
:102B100014102944C8F814107068401B02D03146C4
:102B200008F048FC44F8045C2046BDE8F081000051
:102B3000381B012010B500240DF0F4FA0C490F20C9
:102B400001EBC002526C1AB101EBC000406C08E00E
:102B5000401EF5D508E04168A14200D90C468068C6
:102B600010B180680028F6D1A4F10C0010BD00005F
:102B7000381B0120002138B10449042202EBC000B7
:102B8000496B085841680C3908467047381B0120CA
:102B900002488169491C816170470000381B01208F
:102BA0000549CA69521CCA61496B01EBC0010A7828
:102BB000521C0A7000F068B8381B01207CB506462C
:102BC0000C460846FFF7EAFE050020D0FEB130466D
:102BD000FFF7D0FFA04200DA044600F01DFF2846B0
:102BE000FFF7DEFF00903046FFF7DAFF0146019065
:102BF00022460098FDF72EFB684600F02DF801A84C
:102C000000F02AF83046FFF7F7FE02F0ADF928464B
:102C10007CBD000010B500F0FFFEFFF78BFF6422C3
:102C20000849B0F5800F04D990FBF2F4086A4443D8
:102C300003E0096A4143B1FBF2F402F095F9204642
:102C400010BD0000381B012002488169491E8161C6
:102C500070470000381B01200A4902684B6B52F88C
:102C6000082C03EBC2021378022B03D3CB690BB100
:102C70005B1ECB611178491E11700021016008466E
:102C800070470000381B0120002806D003490422A9
:102C900002EBC000496B085808307047381B012010
:102CA00013460022AFF30080F0B52D271C68B0F169
:102CB000004F08D0002600280DDA651C1D60277023
:102CC0004042012408E0651C01261D606FF00040B1
:102CD0002770491E01E00024091BC9B22AB3491E0E
:102CE000C9B222E00C46491EC9B2944205D1124C29
:102CF00027781C68651C1D602770104C54F8215003
:102D000090FBF5F4E4B20A2C11D804FB150011B9BC
:102D10000EB1641CE4B20A2C02D10124491CC9B2D0
:102D20001D686F1C30341F602C700029DAD11968BF
:102D300000200870F0BD0000400300203CDE0308C6
:102D400002490968497C00F003B800004C030020E8
:102D500070B586B00D46044600F05EFE154905EBE1
:102D6000450001EB8006206804AA03A900683060D2
:102D700060687060A068B060284600F059F808B13B
:102D800001F040FCD4E904018DE82300D4E90203FA
:102D900004990A1A60680399091A206801F0ECFB8B
:102DA0002A46314600F052F802F0DEF806B0002064
:102DB00070BD0000741C012070B514460D46064617
:102DC00000F02AFE204600F01FFD0300174804EB28
:102DD000840109D050F8210041688068711A2A1ACC
:102DE000184601F085FD1CE000EB8104A268B242A8
:102DF00001D0012200E00022E368AB4201D00123B0
:102E000000E000231A430CD0236943B150F821009D
:102E1000816840686A1A311A184601F05AFCC4E900
:102E20000265BDE8704002F09FB80000441D01201B
:102E300000EB8003044800EB830083680B60C168EB
:102E40001160006970470000441D012002EB8203FD
:102E500010B5034A02EB8304206142F8231010BD31
:102E6000441D012010B5C2B2CBB2D21A00D55242D5
:102E700093B25B43C0F30722C1F30724121B00D5B2
:102E80005242000C92B2A0EB114002FB023200B29F
:102E9000002801DA404200B280B200FB002010BDE1
:102EA00010B50021084600F02FFD43F6FF72504296
:102EB000BDE8104013460146AFF300802DE9FC4108
:102EC0001C4615460E46074600F0A6FD042004F0F9
:102ED00007F880461248C068C16C006D0F44064474
:102EE0000D440444ADF80070ADF80450ADF8026034
:102EF000ADF80640684607F08BFC07E023462A46FB
:102F00003146384603F08CFC07F044FC0028F5D12C
:102F1000404603F0E5FF02F027F8BDE8FC81000021
:102F200040030020B0F90630B0F90420B0F90210D7
:102F3000B0F90000FFF7C2BF2DE9F0411C4616466C
:102F40000D460746022B02DB0020BDE8F0811C2065
:102F5000FFF798FD0028F8D00DB105610AE0094A95
:102F600052F8241009B905E011460A68002AFBD17D
:102F70000969016184618682002101604160C0E9C4
:102F80000217E2E76403002070B51D46FFF7D4FF87
:102F9000040009D000F00EF8E068006820B903488A
:102FA000006800EB85008465204670BD4C0300205E
:102FB000FFF740BD70B590B38269022A30DA1E4C2B
:102FC00054F8221019B944F8220032E019464B682F
:102FD000002BFBD106E0CB68C5681B682D68AB42AF
:102FE00003DD09680029F6D11AE0C1B1CB68C668D3
:102FF0001B683668B3420CD1838A012B05D008E0E8
:103000001946DB681B68AB4203DB0B68002BF7D16A
:1030100029B14B6833B118604A68426004E0FFE7A9
:10302000012070BD44F822004860884200D1002190
:103030000160002070BD00006403002010B503E0B3
:103040000468FFF7B7FF20460028F9D110BD000043
:103050000A4A816952F82130834202D1036842F85A
:103060002130416809B102680A60016809B142680B
:103070004A60002101604160704700006403002045
:1030800000207047022801DB00207047054951F8F5
:10309000200004E0C16809680029F6D00068002813
:1030A000F8D17047640300202DE9F8431D46164609
:1030B000884604000CD0FFF773FD00900068076895
:1030C0006846FFF7C9FD2B46324641462046B847C1
:1030D000BDE8F8832DE9F041044601F082FF0619AE
:1030E0001EE000BF00F0A4FA052F00DD052700F068
:1030F00093FC11480568FFF74BFD2C0017D000BF6B
:1031000001F032FF641EFBD1384601F05BFF1DB1B8
:1031100000F082FC6D1EFBD1FFF796FD01F024FF4D
:1031200001F05FFF371A002FDCDCBDE8F081384684
:1031300001F048FFF0E700008C0500202DE9FC4776
:1031400006005FD000F068FC00F076FB3C4C814646
:103150002068B0F9228000F0A9FB216807468A8C1C
:10316000D01B888441E000BF47F6FF71304602F073
:10317000B9FC82460146304602F08AFC21680546C9
:1031800091F82C0000F00300012841D002283BD028
:1031900000204A8C101A4884ADF800006A1E1044C2
:1031A000ADF80400888CADF80200A9F101010844D3
:1031B000ADF806006A465146304602F049F92168EA
:1031C000BDF8020088845146304601F0BBFD06443C
:1031D00030780A281ED00D281CD0BDF800002168C8
:1031E00028444884307818B1761C30780028BBD148
:1031F0002068818C39448184818D21F0030181858F
:1032000001F0B2FEBDE8FC8705EBD5704010C0E7C9
:103210002846BEE7206890F82C1001F00301012930
:103220000BD0022909D0018C418431780A29D9D1E7
:10323000828C02EB09018184D4E7A0F82280F4E7B4
:103240004C03002070B514460D46064600F0E4FB22
:1032500005480068458484843046FFF76FFFBDE869
:10326000704001F081BE00004C0300202DE9F041C8
:1032700007460A4815460E460068B0F92C0040F093
:10328000020001F081FB04462A4631463846FFF72A
:10329000D9FF2046BDE8F04101F076BB4C03002089
:1032A00047F6FF73AFF300802DE9FC411F469046BF
:1032B0000D4606004FF000041AD000F0ADFB65B1DA
:1032C000284607F045F9040007D00246294668461B
:1032D00002F075FC684607F03BF93B46424629463A
:1032E000304602F00DF9204607F032F901F03CFEBD
:1032F000BDE8FC812DE9FF4F87B090468946070065
:103300007DD000F089FBD9F80040D9F8045021B2F3
:1033100028B2401A401C029000F08EFA064618F0BF
:103320000C0F1ED038460A9A029901F027FE08F0C9
:103330000C01042904D0082902D00C2911D104E081
:10334000291400FB1610401C09E02114C1EB254292
:1033500000FB1620401C00EBD07001EB600060F316
:103360001F44484607F0F4F85FEA000B09D0024614
:10337000494604A8CDE9044502F021FC04A807F061
:10338000E7F8A6F1010A38460A9A029902F05EFDB2
:1033900003900AEB244060F31F45CDE90045384611
:1033A000039902F075FB18F003010ED001292CD00F
:1033B00002290ED1B9F90420B9F90010521A101AD5
:1033C00000EBD07001EB600001E0B9F80000ADF84F
:1033D00000006A463846039902F03AF838460A9ADD
:1033E000029902F029FD074406EB244060F31F44D4
:1033F00038780028C7D1584607F0AAF800E001E065
:1034000001F0B2FD0BB0BDE8F08FB9F80410081A56
:10341000401CDCE77CB514460D46064600F0FCFA7D
:1034200011480068C16C006D0D4404443188681E69
:103430000844ADF80400ADF800507188601E0844DF
:10344000ADF80600ADF80240684607F0E1F906E085
:10345000224629463046FEF723FF07F09BF9002855
:10346000F6D101F081FD7CBD4C0300202DE9F04F29
:1034700087B09B46DDE9109892460C46054600F061
:10348000CBFA16480168C86C096D47190E1900EB94
:103490000A0501EB0B04ADF81070ADF81450ADF84F
:1034A0001260ADF8164004A807F0B2F988B1DFF851
:1034B00030B04FF0010ACDE90098CDE902BA2346B9
:1034C0002A46314638460AF0EBFE07F063F9002839
:1034D000F1D101F049FD07B0BDE8F08F4C030020A9
:1034E000B96600082DE9FC4114460D46064600F079
:1034F00093FA114F3968C86C096D054404440E44B1
:10350000ADF80050ADF80440ADF80260ADF80660CB
:10351000684607F07DF908E0386822463146406E7B
:1035200003682846984707F035F90028F4D101F0E0
:103530001BFDBDE8FC8100004C0300202DE9FC418F
:103540001C4616460D46074600F066FA1A48016802
:10355000087ECA6C096D17440D440C44401E391A8C
:103560001644ADF800103118ADF80410291A2044A3
:10357000ADF80600ADF80210684607F049F915E00D
:1035800032462946384603F097F8324621463846F7
:1035900003F092F8621E691C384603F0EDF8621ED3
:1035A000691C304603F0E8F807F0F4F80028E7D18A
:1035B00001F0DAFCBDE8FC814C0300207CB5144628
:1035C0000D46064600F028FA0F480068C16C006DF1
:1035D0000E4405440444ADF80060ADF80460ADF855
:1035E0000250ADF80640684607F012F906E02246A0
:1035F0002946304603F0C0F807F0CCF80028F6D191
:1036000001F0B2FC7CBD00004C03002070B50C46FC
:10361000054600F003F910B10121C0E9001400F0E3
:10362000FBF9284607F044F8BDE8704001F09CBC67
:1036300010B5002400E0012400F004F80028FAD1BD
:10364000204610BD094810B50068002410B180471D
:1036500000B1012406F05CF900B1012404480068BF
:1036600010B1804700B10124204610BD7003002036
:103670006C0300202DE9FC411C4615460E4607460A
:1036800000F0CAF910480068C16C006D0F44064490
:103690000D440444ADF80070ADF80450ADF802607C
:1036A000ADF80640684607F0B3F807E023462A461F
:1036B0003146384603F0B4F807F06CF80028F5D12D
:1036C00001F052FCBDE8FC814C03002008B50B461C
:1036D000002805D0009281888268C08800F001F837
:1036E00008BD10B50828029C30D008DC04FB01F4AA
:1036F00001280AD0022813D0042804D11CE0102885
:1037000028D020282CD0002010BD04EBD30003F0DB
:103710000701105CC1F10701C84000F0010010BDB5
:1037200004EB93000621105C01EA4301C1F106019C
:10373000C84000F0030010BD04EB5300D907105C33
:1037400002D000F00F0010BD000910BD04FB0130D5
:10375000105C10BD481004FB003032F8100010BDA2
:10376000881004FB003052F8200010BD034951F8C6
:103770002000C1688A6A0821104700006403002005
:1037800010B500F049F903F08DF803F0B5F90446DF
:1037900001F0EAFB204610BD10B5044600F03CF9EC
:1037A000054800210068C0694268204690470446E9
:1037B00001F0DAFB204610BD4C03002070B50C462A
:1037C000054600F029F9064821460068C0694268AC
:1037D00028469047044601F0C7FB204670BD000014
:1037E0004C030020002801D006F0F0B8704710B557
:1037F00000F012F903F05EF803F07EF9044601F0E0
:10380000B3FB204610BD00000021022802D202496D
:1038100051F8201008467047740500201FB500219C
:103820000191029103912A210091694606F082FDDF
:10383000039804B010BD000010B500F0EDF8044886
:103840000068C069447E01F08FFB204610BD000077
:103850004C03002070B514460D46064600F0DCF817
:1038600022462946304603F0A1F810B10020286016
:103870002060BDE8704001F077BB70B50C4605468E
:1038800000F0CAF82146284602F056F9BDE870401B
:1038900001F06ABB10B5044602F040F9014620462B
:1038A000BDE8104002F0F4B801F09BBB10B5002455
:1038B00000F0B2F80B48006890F82C1001F00C01F1
:1038C000042904D0082906D00C2907D103E0C069D7
:1038D000047E641E02E0C069007E440801F044FBDF
:1038E000204610BD4C030020024951F82000006919
:1038F0000068704764030020024951F82000006905
:10390000406870476403002070B50D46044600F01F
:1039100083F820460CF00EFB044628460CF012FB00
:10392000044301F021FB204670BD00002DE9F04169
:103930001948016821F001010160184801258560DE
:103940001749016000681749884200D0FEE701F07E
:10395000AFFC154E2E20307001F047FB13480CF0E1
:1039600091FB11F02BFF074603F04EF810B103F066
:103970005FF838B903F065F8044603F04EF82146C5
:1039800003F0A8FA0021084600F0D0FF06F0ACFAD8
:1039900075703846BDE8F081002000E0003002403C
:1039A000C2A507F4CDB5E8B540030020041C0120F2
:1039B0002DE9FC411C4615460E46074600F02CF842
:1039C000012000F079FF804612480068C16C006D4C
:1039D0000F4406440D440444ADF80070ADF80450A3
:1039E000ADF80260ADF80640684606F011FF07E04A
:1039F00023462A463146384602F012FF06F0CAFE38
:103A00000028F5D1404600F057FF01F0ADFABDE8BF
:103A1000FC8100004C03002070B5184CE06820B118
:103A200001F0DBFA6168884204D001F01FFB01F06D
:103A3000D4FA6060E068401CE06001281CD10CF002
:103A4000FFF905462068854216D0002813DBFFF7F2
:103A500017FB01462068C0EB0012206900EBC20290
:103A60005167C5EB0511064A00EBC100011D11604D
:103A7000406FFFF7E3FA256070BD0000800500206D
:103A80004C0300201CB5040004D10E480068046EED
:103A9000002C16D0FFF7C0FF2046FFF781F80090FA
:103AA00044696846FFF7D8F84CB12046FFF778F82C
:103AB000019081688968884701A8FFF7CDF801F077
:103AC00053FA1CBD4C03002001490A4600F002B81D
:103AD00001F0FFFF2DE9F04387B015460C465FEA81
:103AE000000846D0FFF798FF002000F0E5FE814671
:103AF00021480068066E4046FFF752F800900068C3
:103B0000806900F081FE074640F6FF70C44204D190
:103B10000098B0F90440B0F906500098611E02897F
:103B2000ADF804401144ADF808104189681E0844FE
:103B3000ADF80650ADF80A0005F0E8FC6846FFF75E
:103B40008BF801A806F064FE06E02A4621464046AE
:103B500000F088FB06F01EFE0028F6D1384600F083
:103B600053FE304600F090F9484600F0A5FE01F003
:103B7000FBF907B0BDE8F0834C0300202DE9FE4FB0
:103B8000984691468A46834600270C9EFFF744FFDD
:103B9000184819490068407C51F82040E1680968DC
:103BA000042903D02468002CF8D100E01CB9FFF7E9
:103BB00069FA041E1BD0E0680121C26A20469047C2
:103BC000050011D02469A0688047401C02D10B4C2D
:103BD00046F001060096CDE9015443464A46514657
:103BE000584600F0E5F9074601F0BEF93846BDE851
:103BF000FE8F00004C0300206403002058E80308F7
:103C000038B504001CD0FFF707FF0E480068006EAF
:103C1000A04201D100F0EAFD2046FEF7C1FF00906E
:103C2000406908B101F089F900980068FFF7C0F910
:103C30006846FFF711F82046FEF7DEFE01F094F922
:103C400038BD00004C0300202DE9FF4F83B09A4699
:103C50008B460746FFF7E0FEDFF83891D9F8000001
:103C6000447C4D4800570128204606DD02F0D2FE74
:103C70000546204602F0E2FE05E002F0ADFE0546F4
:103C8000204602F0AFFE04461FB302A901A8FFF7C9
:103C9000F4FDB7F90000002800DA0020B7F902604F
:103CA0008046002E00DA002601984119B7F9040079
:103CB000491E0CF09CFB054602980119B7F9060055
:103CC000491E0CF094FBA5EB0802841B521C641CDB
:103CD00003E04FF0000846462A46BAF1000F01D132
:103CE000C4F1000A002A51DD002C4FDD109800902D
:103CF000534631464046FFF741FF5FEA000A10D0C5
:103D000000F07CF80746A04206D0D9F80000806C8D
:103D100010B1322107F010F9504600F0B5F8002537
:103D200023E059460598884701F01EF9012007B0A5
:103D3000BDE8F08F611BB94202DA504600F088F806
:103D40003DB172194146504600F0C6F85046FFF7A3
:103D500099FE5946059888471048016809B1002026
:103D600088475046FFF7B0FE3D44A542E2DB50468F
:103D7000FFF746FF002000F087F8A74206D0D9F8E9
:103D80000000806C10B1332107F0D6F801F0ECF898
:103D90000020CCE74C03002084030020D405002041
:103DA00038B505004FF0000411D0FFF735FE284666
:103DB000FEF7F6FE0090006800698068804703F017
:103DC000A5FA04466846FEF747FF01F0CDF8204605
:103DD00038BD38B504000ED0FFF71EFE2046FEF7B2
:103DE000DFFE00F1180400906846FEF735FF01F091
:103DF000BBF8204638BD002038BD000038B5044669
:103E00000025FFF709FE1CB908480068046E44B19C
:103E10002046FEF7C5FE0090B0F90A506846FEF74E
:103E20001BFF01F0A1F8284638BD00004C0300201C
:103E300070B505460024284608F05AF9641C18B1EC
:103E4000BDE8704000F07AB8052CF4DB70BD0000CE
:103E500038B50C46050004D10A480068056E002DEF
:103E60000FD0FFF7D9FD2846FEF79AFE0090B0F973
:103E70000A10A14200DD44816846FEF7EDFE01F024
:103E800073F838BD4C030020F8B50546FFF7C4FDB4
:103E9000104E3068046ECDB10CB100F0A7FC05F0F7
:103EA00063FC2846FEF77CFE009031680D660068D2
:103EB000FFF780F86846FEF7CFFE03F0C3F802F084
:103EC000DFFF00BF01F050F82046F8BD00F08EFC87
:103ED000F8E700004C0300207CB515460E460400B0
:103EE00004D115480068046E002C24D0FFF794FD1F
:103EF0002046FEF755FE2DB20090C58034B2848076
:103F000002F0BEFF0098406980B1FEF749FE009ABA
:103F10000190B2F908108180B2F90A20C28011B173
:103F20000AB10480458001A8FEF796FE6846FEF7B8
:103F300093FE01F019F87CBD4C03002001490A46AC
:103F400000F002B801F0FFFF7FB515460C460600F1
:103F50002DD0FFF761FD3046FEF722FE40F6FF71DF
:103F60000190CC4203D1B0F90440B0F90650028967
:103F7000611E1144ADF80840ADF80C104189681E6F
:103F80000844ADF80E00ADF80A5001A8FEF764FE33
:103F900002A806F03DFC06E02A462146304600F025
:103FA00049F906F0F7FB0028F6D100F0DDFF7FBDF0
:103FB0002DE9FF4FDFF8E8B083B01C46DBF80010B6
:103FC000DDE9106092464FF000084B7C42461299A2
:103FD000FEF7B2FF050060D028698068804703F0D3
:103FE00095F981460AFB09F1C91DCF08FEF712FEBB
:103FF000F10705D1C11700EB9170801000EB400074
:10400000002C09DC1FB11838B0FBF7F000E00020ED
:104010006442A04200DC0446F00707D10090DDE9CD
:1040200003012346524600F00DFF8046002C03DCBE
:104030002846FEF7BDFF30E004FB07F01830F1071B
:1040400002D0FEF7ABFC01E0FEF7B7FC06001CD087
:10405000FEF7A6FD01900560039981800499C18057
:10406000A0F808A04481C0F81480C0E9037901A831
:10407000FEF7F2FD1298AE602861DBF80000407C8C
:10408000A861304607B0BDE8F08F2846FEF790FFE4
:10409000B8F1000001D0FEF7AFFC0020F2E700000D
:1040A0004C0300202DE9F74F8EB0144689460E9838
:1040B000FEF776FD0990B0F908B0B0F90A60006823
:1040C000006940680C9009A8FEF7C6FD564D574F91
:1040D0002868407C57F82000C1688A6A0821904708
:1040E0000790182801D3202007902868407C57F8B3
:1040F00020000069069003C80B904D48814201D012
:10410000012000E000200A90002000F0CBFF0028F2
:104110007DD1286809EB0B01B0F90C20891A491EE2
:10412000002902DDABEB010500E05D46B0F90810A7
:10413000494505DDA1EB090189446D1A089101E0AB
:1041400000210891002D6BDDB0F90E20A119891A0C
:10415000491E002902DDA6EB010800E0B046B0F9D7
:104160000A00A04204DD061B3444A8EB060800E068
:104170000026B8F1000F53DD089801900DA95F46A5
:10418000DDF830A00E980091FFF723FE774300EB97
:10419000870101982B4601EB800200994846CDE942
:1041A00000A1214601F04EFA0090002838D00A986C
:1041B000E8B1DDE906322946009801F073F8B0B99C
:1041C0000698009FDA46D0F810C0BCF1000F05D069
:1041D00004235A4639463846E04708E00B993868C8
:1041E000884701C7AAF101005FEA000AF6D10099E9
:1041F0000020079ACDE90301059001200090CDE948
:10420000010221460346641C2A46484600E007E0B6
:1042100002F050F9A8F10100761C5FEA0008ABD16A
:1042200011B0BDE8F08F00004C03002064030020B3
:10423000176B0008F8B515460E460746FEF7B0FCAA
:10424000009000681621C068426A0020904704462A
:104250006846FEF701FD002C03D02A463146384659
:10426000A047F8BDF8B516460F46050012D0FEF778
:1042700097FC009044696846FEF7EEFC2846FFF77D
:104280008FFD0346082800DD2CB13246394628460A
:104290000DF074FCF8BD3246394628460DF00EFE8E
:1042A000F8BD000002480068407C00F003B8000040
:1042B0004C030020F8B51D49096809B1002200E04F
:1042C00002461B498D56012D2EDD1849143151F837
:1042D00022305B1C41F82230012B25D1A1F10803CB
:1042E0000026103953F8224051F8221053F822705A
:1042F0007F1C43F82270AF4201D143F8226053F88B
:1043000022708F42F2D03D46FEF7BCFE009000289E
:104310000AD0C0682121426A68469047030003D052
:104320002A46214600989847F8BD00005005002015
:104330008403002002480068407C00F003B80000BD
:104340004C03002038B51449096809B1002200E087
:1043500002461249895601291CDD0F49143151F8D2
:1043600022305B1E41F8223014D1083951F8224026
:10437000103141F82240FEF785FE0090002809D058
:10438000C0682221426A68469047020002D0214656
:104390000098904738BD000050050020840300209D
:1043A00010B5002821D009B30AB3B1F90040B2F921
:1043B00000309C4200DA23460380B1F90240B2F992
:1043C00002309C4200DA23464380B1F90440B2F93E
:1043D00004309C4200DD23468380B1F90610B2F917
:1043E0000620914200DC1146C18010BD11460A68CA
:1043F00002604968416010BD00280BD003880B445F
:104400000380838819448180418811444180C18898
:104410001144C1807047000070B50E4D0446D5E9C7
:104420000001884209D10C49884201D13C3000E0AA
:104430000C3807C884E8070006E090E80E0084E81E
:104440000E000BF095FD2860207A002800D0012096
:1044500070BD0000E8030020E41C01200448D0E9FE
:104460000010814201D101207047002070470000F8
:10447000E8030020054A10B5034911600DF00EFA5B
:10448000BDE8104000F0A0BA719B00087403002042
:1044900070B50025FFF7C0FA094CD4E9002082422C
:1044A0000AD0D2E9005610460BF06CFD2060314670
:1044B000284605F045FE012500F056FD284670BD52
:1044C000D80300202DE9FC41154DDDE908742D6865
:1044D000B5F90860864200DD3046B5F90C609642B9
:1044E00000DA3246824219DBB5F90A608E4200DDFD
:1044F0003146B5F90E509D4200DA2B468B420DDB5A
:1045000000E02C46E5682D6825B1042D02D0256811
:10451000002DF6D1CDE9007402F092FBBDE8FC81DC
:104520004C030020B0F90220B1F906309A4213DCA6
:10453000B1F90220B0F906309A420DDCB0F9002042
:10454000B1F904309A4207DCB1F90010B0F9040067
:10455000814201DC0120704700207047014602487B
:1045600070220068FBF776BE4C03002038B50224A9
:10457000009400F0BFF838BD2DE9F84F8046DDE922
:104580000BA40A9F1D461646894653EA070001D030
:104590001DB117B10020BDE8F88FFFF73DFA2346A3
:1045A00032464946D8F80000FFF7E0FF040021D06A
:1045B0002020FEF702FA060018D0FEF7F1FA00906C
:1045C000C0F80CA0C0F8008084610C49C0E90175F6
:1045D000098881836846FEF73FFB094A3146204639
:1045E00000F0E8F8304607F027FE18B9204600F042
:1045F00009F8002400F0B8FC2046CCE77C05002038
:104600005D32010838B5040020D0FFF705FA2046D6
:104610000DF0EEF920460DF061FA2046FEF7C0FAE3
:1046200000900068FEF706FA0098C068FEF7E4F90B
:104630000098C069FEF7E0F96846FEF70DFB2046DA
:10464000FEF7DAF9BDE8384000F08EBC38BD38B569
:1046500005004FF000040DD0FFF7DEF92846FEF705
:104660009FFA0090007CC0F340046846FEF7F4FA1D
:1046700000F07AFC204638BD2DE9F8430D465FEA8C
:1046800000084FF0010421D0FFF7C6F94046FEF7BD
:1046900087FA00904069078846886846FEF7DCFA8A
:1046A0002888B84210D16888B0420DD1E86830B18E
:1046B0002946404607F0E6FE040001D004E000244D
:1046C000294640460CF0C0FA00F04EFC2046BDE8FA
:1046D000F88370B515460E4604000AD0FFF79CF922
:1046E0002A46314620460CF073FDBDE8704000F0CC
:1046F0003BBC70BD2DE9F84304460088089F9146F5
:104700008846E8B36088D8B3E06818B180680028AC
:104710003BD002E0E088202836D107F001020021DA
:104720002348FEF709FC05002ED02088860060880B
:104730004643FFF771F906F12000FEF73EF9060047
:1047400025D03046AE60FEF72BFA00900782446118
:10475000A0F80480A0F80690238808EB0301491E06
:10476000018161884944491E418105606846FEF720
:1047700073FAE06878B12146304607F083FE00E026
:1047800002E040B100F0F0FB0020BDE8F8832846CD
:10479000FEF70EFCF6E7B80705D530460BF0D7FD5F
:1047A00030460CF085FF00F0DFFB3046EDE70000FF
:1047B0006CDE0308F8B514460D4606000CD0FFF772
:1047C0002BF93046FEF7ECF90090C0E90645684643
:1047D000FEF742FA00F0C8FBF8BD00000249702263
:1047E0000968FBF737BD00004C03002010B5FFF748
:1047F00013F902F0F1FA02F025FC04F087FEBDE89F
:10480000104000F0B1BB000070B50B4D04462868A5
:10481000467CFFF701F9022C09D22046FEF732FC54
:1048200028B128684474FFF7E1FF0448046000F0F1
:104830009BFB304670BD00004C0300209804002014
:1048400070B50C46054605F07BFC002805D12146D5
:104850002846BDE8704000F0C7B870BD10B50446EA
:10486000FFF7DAF8204602F0E1FABDE8104000F068
:104870007BBB10B50446FFF7CFF8204602F00EFBD5
:10488000BDE8104000F070BB10B50446FFF7C4F857
:1048900005496FF0704009680863204602F004FB88
:1048A000BDE8104000F060BB4C0300200149886067
:1048B000704700004003002010B50446FFF7ACF835
:1048C000204602F00DFB044600F04EFB204610BDD2
:1048D00070B50446FFF7A0F804480068C56904B144
:1048E000C46100F041FB284670BD00004C0300206D
:1048F00070B514460D460646FFF78EF82246294647
:10490000304602F04DFB044600F02EFB204670BD01
:1049100070B50546FFF780F803480068847E857609
:1049200000F022FB204670BD4C03002070B50C4601
:104930000546FFF771F809482246058008480480BB
:1049400008480068417C084850F82100C1680B6A9B
:1049500029469847BDE8704000F006BB8C03002054
:104960008E0300204C0300206403002070B5054630
:10497000FFF752F803480068047E057600F0F4FA69
:10498000204670BD4C03002070B50446FFF744F884
:1049900004480068B0F92C50848500F0E5FA2846F8
:1049A00070BD00004C03002070B50446FFF734F8DA
:1049B00004480068B0F92A50448500F0D5FA28462A
:1049C00070BD00004C03002002480068002800D0A1
:1049D00000477047B005002002498A6802B9886024
:1049E000FFF7F2BFD80300207CB50A4C0546CDE99D
:1049F00000016068019A6E46C0E9005221680BF020
:104A0000A9FA6060E16809B130468847A560FFF700
:104A1000DBFF7CBDD80300202DE9FC4198461646FB
:104A20000D460746FEF7F8FF1C20FDF7C6FF040001
:104A30002DD01C491A4808602046FEF7B1F80090B6
:104A400015B9FEF731FF054600980760C0E9046517
:104A5000A0F80C806846FEF7FFF820460BF082FCB9
:104A6000114DA86840B90120A86005F10C010F485C
:104A70000860084601F0A2F92046FEF791F801907F
:104A8000296849B181602C6001A8FEF7E5F800F0C3
:104A90006BFA2046BDE8FC8100212C608160F3E7C1
:104AA000D94A0008700300209C050020BD050108BC
:104AB00010B504000ED0FEF7AFFF20460CF006F84C
:104AC00020460DF017F82046FDF796FFBDE8104090
:104AD00000F04ABA10BD00002DE9F04188B0002571
:104AE000FEF79AFF184C676825E000BFFEF7DCFE72
:104AF00006466068FEF754F801904169891B002959
:104B000015DC61680296049101690391466866604C
:104B1000D0F8008001A8FEF79FF802A84146884718
:104B200066B160680125B84205D1002506E001A8FC
:104B3000FEF792F802E060680028D7D100F014FA7E
:104B400008B02846BDE8F0819C05002038B50C4629
:104B5000050011D0FEF760FF2846FEF721F800900F
:104B60008089204201D0012400E000246846FEF73D
:104B700073F800F0F9F900E00124204638BD38B59B
:104B800005004FF000040BD0FEF746FF2846FEF765
:104B900007F8009084696846FEF75EF800F0E4F9D3
:104BA000204638BD38B5040017D0FEF735FF204643
:104BB000FDF7F6FF0090FEF777FE01460098826948
:104BC000114441616846FEF747F820460CF092FF19
:104BD00020460BF0C7FB00F0C7F938BD38B50C46CE
:104BE00005000BD0FEF718FF2846FDF7D9FF00900F
:104BF00084616846FEF730F800F0B6F938BD000071
:104C000038B50546002028600648046844B12046AF
:104C1000FDF7C6FF0090006928606846FEF71CF8A3
:104C2000204638BD9C05002038B504004FF0000038
:104C30000D46086011D02046FDF7B2FF0090846851
:104C400044B16846FEF708F82046FDF7A9FF00903A
:104C5000006928606846FDF7FFFF204638BD000068
:104C600070B50C460546FEF7D7FE0548214600689C
:104C7000C26828469047044600F076F9204670BD89
:104C80005003002010B50446FEF7C6FE0448006835
:104C9000016820468847044600F066F9204610BDAA
:104CA0005003002010B50446FEF7B6FE0448006825
:104CB000416820468847044600F056F9204610BD5A
:104CC0005003002010B5FEF7A7FE04490248086013
:104CD000BDE8104000F048B9F0D3030850030020AD
:104CE0000149096889680847500300202DE9F0410F
:104CF000084E04460568306801682846884707461C
:104D00003068416828468847284420603846BDE816
:104D1000F0810000500300202DE9F04100250E46EF
:104D200080462C46064F06E0396808EB04004968C7
:104D3000884704446D1CA642F6DC2846BDE8F08195
:104D4000500300202DE9F0410C4606460025064F91
:104D500005E0386841683046884706440544641ECB
:104D6000F7D22846BDE8F081500300202DE9F0413C
:104D70001E46069C1746884605463A46A8687F1C8C
:104D80003346D0F804C041462846E047641EF4D1BB
:104D9000BDE8F08170B5B0F90040091BB0F90440DE
:104DA0008C422CDD00F11404B0F902500069521B52
:104DB00002FB0040CA1800EBE104521ED010B0EB19
:104DC000E10501F007034FF0FF0102F0070221FAAD
:104DD00003F0C2F1070201FA02F1CEB221780FD03E
:104DE00001436D1E04F8011B002D05DDFF2229463D
:104DF0002046FBF74FFA2C4420783043207070BDDA
:104E000030400143217070BD10B5B0F90030B0F9E9
:104E10000240C91A00F114030069121B02FB0030A2
:104E200000EBE10001F0070302788021D9400A433A
:104E3000027010BDB0F90610026951431430FBF73F
:104E400030BA00002DE9F843804602F10F0000114E
:104E5000470003FB07F01C46154689461430FDF752
:104E6000ACFD060018D0FEF7D7FD3046FDF798FEE2
:104E70000090A0F80080A0F802908580C4800749C7
:104E800081600121818107616846FDF7E5FE00F040
:104E90006BF83046BDE8F8830020FBE7E4F0030838
:104EA00070B5B0F90660B0F904400B6800F1140564
:104EB00096421BDD0069A34202FB005000EBE302B7
:104EC00014DA641EE010A0EBE30512F8010B03F006
:104ED0000704A040C4B206E045B1083312F8014B04
:104EE00023F007036D1E002CF6D004E0002070BDF7
:104EF0006006040E5B1C2006FAD5FF2C07D018466E
:104F000002E06406240E401C6606FAD400E0D81DB8
:104F1000C443640705D006E012F8014BFF2C09D109
:104F200008306D1EF8D5C01A401C0B6070BD6206BB
:104F3000140E401C2206FAD4F5E738B50546FEF7F4
:104F40006BFD2846FDF72CFE00908189491E0CB2AE
:104F500084816846FDF780FE14B92846FDF74CFDB4
:104F600000F002F838BD00000348C168491EC16066
:104F700001D100F08BB87047800500202DE9F04189
:104F800016460F4605460024FEF746FD32463946D2
:104F9000284600F051FF054408B1641CF6E7FFF70E
:104FA000E3FF2046BDE8F08110B54FF4004103480F
:104FB000FDF71AFD0248FFF779FC10BD5869002083
:104FC0000CDB030810B50446204613F0C1FF10BDEA
:104FD00010B51E2013F0BCFF10BD10B514F084FFF7
:104FE00010BD10B514F086FF10BD704710B501203C
:104FF00014F0ECFC1B4908600846006808B1012069
:1050000000E0002050B900BF102080F31188BFF3EA
:105010004F8FBFF36F8F00BF00BFFEE70322002159
:10502000012014F0E4FC104908600846006830B123
:1050300000231A4619460C48006814F01FFE0A485F
:10504000006808B1012000E0002050B900BF102026
:1050500080F31188BFF34F8FBFF36F8F00BF00BF86
:10506000FEE710BD980000209C00002010B5064807
:10507000006808B9FFF7BAFF00235A1E1946024814
:10508000006814F0E1FC10BD9800002010B500236A
:105090001A4619460248006814F0F0FD10BD0000E1
:1050A000980000200EB508B102AA00E000220023FB
:1050B00001A9684600F086FC0EBD0000074910B546
:1050C0000C7818B101200870801E03E000200870E1
:1050D0006FF07F4001F0A2F9204610BD860300204A
:1050E0002DE9F041984616460C4688B3FEF7D2FBF0
:1050F000074608F00300012825D0022817D0B4F98C
:10510000005000BFFEF798FB014608F00C00042891
:105110002BD00C281DD0B4F9020035807080EA191C
:10512000521E0844B280401EF080BDE8F081B4F900
:105130000400B4F90010401AC01B401C00EBD070F2
:1051400001EB6005DEE7B4F90400C51B6D1CD9E76F
:1051500010E0B4F90600B4F90220801A401A401C8D
:1051600000EBD07002EB6000D7E7B4F90600401AFC
:10517000401CD2E72068306060687060D5E70000AE
:1051800010B5082A0EDC0346012A18D0022A56D090
:10519000042A76D010F8042B03F8012B491EF9D10C
:1051A000012010BD102A08DC4FEA000230F8043B51
:1051B00022F8023B491EF9D1F2E7002010BD10F899
:1051C000042BD207120E491E34D010F8044B491E8E
:1051D00004F0010442EA84122CD010F8044B491E5A
:1051E00004F0010442EA441224D010F8044B491E92
:1051F00004F0010442EA04121CD010F8044B491ECA
:1052000004F0010442EAC40214D010F8044B491E11
:1052100004F0010442EA84020CD010F8044B491E49
:1052200004F0010442EA440204D010F8044B04F0F4
:105230000104224303F8012B0029C0D1B0E710F884
:10524000042B9207120E491E15D010F8044B491E6C
:1052500004F0030442EA04120DD010F8044B491E76
:1052600004F0030442EA840205D010F8044B04F071
:1052700003042243491E03F8012B0029DFD18FE7E5
:10528000FFE710F8042B1207120E491E05D010F884
:10529000044B04F00F042243491E03F8012B00299C
:1052A000EFD17DE738B50024009400F01DF838BD3B
:1052B0000B4810B58169002910D101218161FFF7E8
:1052C00073FEFDF733FB01F0CFFE054905481C31A5
:1052D0000860BDE81040084600F070BD10BD000039
:1052E00040030020210501082DE9F0410D460699F3
:1052F000044601B901461F68082A09DC0E46012A46
:105300001AD0022A5BD0042A7DD0082A13D18DE05E
:10531000102A07DCD3F810C00E46BCF1000F04D0F1
:10532000022389E00020BDE8F08101CCB84726F8CF
:10533000020B6D1EF9D189E001CCB847C0074FEAD6
:1053400010686D1E36D001CCB84748EA801000F0D6
:10535000FF086D1E2ED001CCB84748EA401000F07F
:10536000FF086D1E26D001CCB84748EA001000F0B7
:10537000FF086D1E1ED001CCB84748EAC00000F0FF
:10538000FF086D1E16D001CCB84748EA800000F037
:10539000FF086D1E0ED001CCB84748EA400000F06F
:1053A000FF086D1E06D001CCB84740EA080000F0A7
:1053B000FF086D1E06F8018B002DBDD146E001CC23
:1053C000B84780074FEA10686D1E16D001CCB84769
:1053D00048EA001000F0FF086D1E0ED001CCB8475F
:1053E00048EA800000F0FF086D1E06D001CCB847E7
:1053F00040EA080000F0FF086D1E06F8018B002D42
:10540000DDD123E0FFE701CCB84700074FEA106881
:105410006D1E06D001CCB84740EA080000F0FF0836
:105420006D1E06F8018B002DEDD10FE0D3F810C0F2
:10543000BCF1000F04D001232A462046E04705E0D6
:1054400001CCB84706F8010B6D1EF9D101206AE7BF
:105450007CB5064628480D46006868B1002005F076
:10546000D7F906E06A462946304606F079FF05F08E
:1054700091F90028F6D17CBD106800901F4C50684F
:1054800001902268BDF8000032F84C1F0844ADF8C6
:105490000000BDF8020091880844ADF80200BDF894
:1054A000040011880844ADF80400BDF80600918896
:1054B0000844ADF80600684605F0AAF90EE000BF02
:1054C0002068BDF800106A464184BDF8021081844E
:1054D0002946304606F044FF05F05CF90028EFD17C
:1054E000206830F8221F428D891A01804188C28DC0
:1054F000891A41807CBD0000880300204C030020F5
:105500002DE9FF4F85B09A4690460D46FEF794F977
:105510004FF00009DDF814B006464C4625B1286866
:1055200000906868019002E06846FEF75BF918F0A9
:105530000C0F02D05546002713E0BDF902402DE0C4
:1055400029467F1C059800F0CDFA01466D1A059892
:10555000FFF7F8FB05990844059005A800F006FB45
:1055600008B9002DECD108F00C00042804D008285C
:1055700002D00C2812D105E0BDF9060007FB160485
:10558000641C0BE0BDF90600BDF90210401A07FBD0
:105590001600401C00EBD07001EB60045546CDF8BE
:1055A00014B043E02946059800F09CFA07460146EE
:1055B000ED1B059800F06CFA18F003010ED00129DC
:1055C00039D002290DD1BDF90410BDF90020891A86
:1055D000091A01EBD17102EB610101E0BDF9001084
:1055E0008946174A401E484412683946A2F822905C
:1055F0009484ADF80C00A019401EADF80890ADF8E9
:105600000E00ADF80A4002AA0598FFF721FF3946BF
:105610000598FFF797FB059908440590FEF70CF9EC
:10562000044405A800F0A2FA002801D1002DB9D148
:1056300009B0BDE8F08FBDF90410091A491CCFE785
:105640004C0300202DE9FF4F8DB00020DDF86CA049
:10565000164600901D4604460246CAF8000008ABF4
:1056600003A902A800F0AEF918B1002011B0BDE8FE
:10567000F08F0898854200DD0546614F0B95614922
:105680003868407C51F82010049109690691FEF7B2
:105690006DF805903868407CFEF72EF95A4981462E
:1056A000884204D05949894501D0012000E00020FA
:1056B0000A9001CE1A9988478346000E079077D04A
:1056C000009870BB0D9800EB04084D480068B0F9D5
:1056D0000800404503DDA0EB0807804600E00027F6
:1056E0000298049900EB840000EB8700CDE90001EB
:1056F0000B990D98421809920E9B40461946521E6E
:10570000FEF7E0FE01200090059818280ADA0298BA
:10571000DDE9052300EB840000EB8700E91B00F0C6
:10572000AFF812E00A9880B1029800EB840000EB19
:1057300087070998A0EB080849463868884701C7D9
:10574000A8F101005FEA0008F6D13148C06980B3D2
:10575000DDE9020700EB840007EB8402CDE90202D9
:105760002B4C361F3046E4692B460299A047FF2197
:105770003068B1EB106F02D10298006804E0029A21
:105780001268B1EB126F01D1039A1060029806F112
:105790000406001D02900398001D03906D1EE7D1C2
:1057A0000397DAF8000040F00101CAF8001020E089
:1057B00021E0FFE70798FF2811D0C0F1FF0202980F
:1057C00050F82410584600F095FA039941F8240047
:1057D000DAF8000040F00101CAF8001005E0029874
:1057E000039950F8240041F82400641C6D1E7FF4D6
:1057F00060AF03983AE7039941F824B0E8E7000066
:105800004C03002064030020176B0008156B000890
:10581000F40400202DE9FF4F87B00C46DDE916980F
:10582000DDE914BA0546FEF7F7F81448099A01684D
:10583000C86C096D471985180E190A98ADF81070D3
:105840000C18ADF81450ADF81260ADF8164004A86D
:1058500004F0DEFF0BE0CDE90298CDE900BA234663
:105860002A463146384608F06FFF04F093FF0028BF
:10587000F1D1FFF779FB0BB0BDE8F08F4C030020AE
:105880002DE9F05F0C1E16DD5E68014600EB840515
:10589000082A12DC611E012A26D0022A47D0042AD7
:1058A0006AD0082A07D1071917F8010DB04745F843
:1058B000040D641EF8D1BDE8F09F102AFBDC5F697F
:1058C0003FB12246BC46BDE8F04F02235DF804EB31
:1058D000604701EB440700BF37F8020DB04745F8B9
:1058E000040D641EF8D1E6E700EBE10001F00707C4
:1058F00010F801A98146802020FA07F8B5F10405C7
:105900000AEA0800C7F10701C840B04745F8040992
:105910003FB14FEA48604FEA10687F1E641EEFD126
:10592000C9E719F801A907274FF00108F6E700EBCE
:10593000A10001F0030710F801A981467900C020F9
:1059400020FA01F84FF0060BB5F104050AEA080049
:10595000ABEB4701C840B04745F804093FB14FEAF7
:1059600088604FEA10687F1E641EEFD1A3E703270B
:1059700019F801A9B846F7E700EB6100012710F814
:1059800001A9A7438146B900F02020FA01F84FF0A1
:10599000040B2D1F0AEA0800ABEB8701C840B04793
:1059A00045F804093FB14FEA08704FEA10687F1EBE
:1059B000641EEFD17FE719F801A901274FF00F0806
:1059C000F6E700002DE9F047224C06461F46A06985
:1059D00090468946002540B90120A06104F12001CC
:1059E0001D480860084600F0E9F9606930B91B48B5
:1059F0000068606110B900F0F2FF606107B13860C3
:105A00004EB1A06830B960698000FDF73BF8A06036
:105A100000B901253060B9F1000F0AD0E06830B953
:105A200060698000FDF72EF8E06000B90125C9F833
:105A30000000B8F1000F0AD0206930B96069800019
:105A4000FDF720F8206100B90125C8F800002846BC
:105A5000BDE8F087F4040020810501087C030020E4
:105A600030B4024CA468A44630BC60472405002032
:105A700013460A461946014B5B6818472405002067
:105A800013460A461946014B1B6818472405002097
:105A900073B5124A01A9009812689047002400903B
:105AA000C8B10F4900250968C969496959B10A682F
:105AB0004AB1019990477CBD6846FFF717F9054642
:105AC000FDF76AFE04440198401E0190F4D5284673
:105AD00000F040F8044420467CBD0000840600200D
