:020000040800F2
:10000000C07E002031020008390200083B020008CF
:100010003D0200083F020008410200080000000005
:10002000000000000000000000000000990100082E
:100030004502000800000000DD010008112800084A
:100040004B0200084B0200084B0200084B0200085C
:100050004B0200084B0200084B0200082D1100085B
:100060004B020008451100084B0200084B02000833
:100070004B0200084B0200084B0200084B0200082C
:100080004B0200084B0200084B0200084B0200081C
:100090004B0200084B0200084B02000869110008DF
:1000A0004B0200084B0200084B0200084B020008FC
:1000B0004B0200084B0200084B0200084B020008EC
:1000C0004B0200084B0200084B0200084B020008DC
:1000D0004B020008212C00084B0200084B020008CC
:1000E000CD1000084B0200084B0200084B0200082C
:1000F0004B0200084B0200084B0200084B020008AC
:100100004B0200084B0200084B0200084B0200089B
:100110004B0200084B0200084B0200084B0200088B
:100120004B0200084B0200084B0200084B0200087B
:100130004B0200084B0200084B0200084B0200086B
:100140004B0200084B0200084B0200084B0200085B
:100150004B0200084B0200084B020008312C00083B
:100160004B0200084B0200084B0200084B0200083B
:100170004B0200084B0200084B0200084B0200082B
:100180004B020008DFF80CD000F0E4F8004800470C
:1001900083700008C07E0020224B19680868B0E810
:1001A000F00F80F30988BFF36F8F4FF0000080F3EA
:1001B00011884EF00D0E70470000000006480068E0
:1001C000006880F3088862B661B6BFF34F8FBFF353
:1001D0006F8F00DF00BF00BF08ED00E0EFF3098084
:1001E000BFF36F8F0F4B1A6820E9F00F106008B54E
:1001F0004FF0100080F31188BFF34F8FBFF36F8F64
:1002000008F060FC4FF0000080F31188BDE8084062
:1002100019680868B0E8F00F80F30988BFF36F8FA2
:10022000704700BF24000020EFF3058070470000F6
:100230000648804706480047FEE7FEE7FEE7FEE780
:10024000FEE7FEE7FEE7FEE7FEE7FEE745280008DB
:100250008501000810B5431A934209D28318881803
:1002600003E010F8011D03F8011D521EF9D210BD64
:1002700040EA01039B0703D009E008C9121F08C028
:10028000042AFAD203E011F8013B00F8013B521EA8
:10029000F9D210BDD2B201E000F8012B491EFBD209
:1002A00070470022F6E710B513460A460446194681
:1002B000FFF7F0FF204610BD421C10F8011B00297B
:1002C000FBD1801A704730B504460020034600E099
:1002D0005B1C934203D2E05CCD5C401BF8D030BD88
:1002E000034611F8012B00F8012B002AF9D118461A
:1002F00070472DE9F05F0546002092469B468846F0
:100300000646814640241BE0284641464746224691
:1003100000F041F853465A46C01A914110D3114695
:100320001846224600F028F82D1A67EB01084F46C0
:1003300022460120002100F01FF817EB00094E4172
:10034000201EA4F10104DFDC484631462A4643461C
:10035000BDE8F09F064C074D06E0E06840F0010361
:1003600094E8070098471034AC42F6D3FFF70EFF2D
:100370007C4603089C460308202A04DB203A00FA46
:1003800002F1002070479140C2F1200320FA03F3EC
:10039000194390407047202A04DB203A21FA02F0EA
:1003A0000021704721FA02F3D040C2F120029140AF
:1003B00008431946704770B58C1810F8015B15F0AA
:1003C000070301D110F8013B2A1106D110F8012BC7
:1003D00003E010F8016B01F8016B5B1EF9D12B07EC
:1003E00005D40023521E0DD401F8013BFAE710F8A2
:1003F000013BCB1A921C03E013F8015B01F8015B8F
:10040000521EF9D5A142D8D3002070BD21B1826817
:1004100042F00102826003E0826822F00102826001
:10042000704700000021084A1168084A1140D0E9CD
:1004300000231A4383681A43C3681A431143044ACA
:10044000C2F804137047000004230140E030FCFFB1
:100450000020014021B1826842F48072826003E092
:10046000826822F480728260704721B1826842F40F
:100470000072826003E0826822F40072826070473A
:1004800030B50246002000235068104C20400D7902
:100490000C6844EA05242043506090680C4C2040CE
:1004A000D1E903542C438D682C434D7944EA45042B
:1004B00020439060D06A20F470000C7D641EE4B28A
:1004C000234340EA0350D06230BD0000FFFEFFFC32
:1004D000FDF7FFC0F0B504460D4600200021092DB0
:1004E00011DDE068A5F10A0606EB4607072606FAC5
:1004F00007F18843A5F10A0606EB460603FA06F162
:100500000843E0600CE0206905EB4507072606FA82
:1005100007F1884305EB450603FA06F1084320611D
:10052000072A0FDA606B561E06EB86071F2606FAAF
:1005300007F18843561E06EB860605FA06F10843C6
:10054000606322E00D2A0FDA206BD61F06EB8607C8
:100550001F2606FA07F18843D61F06EB860605FA22
:1005600006F10843206310E0E06AA2F10D0606EBF5
:1005700086071F2606FA07F18843A2F10D0606EB4F
:10058000860605FA06F10843E062F0BD816841F095
:10059000804181607047000038B10849096841F422
:1005A0000001074AC2F8041306E00449096821F46F
:1005B0000001034AC2F804137047000004230140FD
:1005C0000020014010B5012008F0D6FC0149086068
:1005D00010BD0000A80000201CB50020012103462A
:1005E0008A02CDE9001018A11A4808F055FE1A48F1
:1005F000022100230A02CDE9001018A11B4808F0CF
:100600004BFE1B48052100234FF40072CDE900107A
:1006100018A11B4808F040FE1A48052100234FF49A
:100620000072CDE9001018A11B4808F035FE00202B
:10063000052103464FF40072CDE9001017A11A48B6
:1006400008F02AFE1CBD0000765461736B475549C3
:100650000000000055870008980000207654617360
:100660006B557365724B657949460000918B0008A4
:10067000A0000020765461736B53746172740000A3
:10068000018A0008A4000020765461736B41646302
:1006900050726F6300000000ED86000876546173AD
:1006A0006B54657374000000898E0008014609B917
:1006B0000B487047012901D10020FAE7022901D136
:1006C0000020F6E7032901D10020F2E7042901D137
:1006D0000020EEE7052901D10248EAE70020E8E71B
:1006E000205900204861002008B525208DF8000021
:1006F00000208DF8020001208DF80300684601F00B
:10070000FDF847208DF8000005208DF8020001203B
:100710008DF80300684601F0F1F808BD10B5ADF59D
:10072000825D002230A104A805F000FC04462CB133
:100730002E4850F824102EA002F0E6FE32A005F05C
:1007400003F804461CB932A002F0DEFE11E0082CCA
:1007500006D1264850F8241032A002F0D5FE08E059
:10076000224850F8241035A002F0CEFE0DF5825D2F
:1007700010BD39A004F0E8FF04461CB938A002F00F
:10078000C3FE0FE0082C06D1184850F8241039A0F9
:1007900002F0BAFE06E0154850F824103BA002F023
:1007A000B3FEE3E740A004F0CFFF04461CB942A02B
:1007B00002F0AAFE0FE0082C06D10C4850F82410D5
:1007C00043A002F0A1FE06E0084850F8241047A01C
:1007D00002F09AFECAE7002203A1104605F0A6FB2C
:1007E000044600BFC2E70000303A0000B00000201D
:1007F000B9D2D4D8CEC4BCFECFB5CDB3CAA7B0DC75
:1008000020282573290D0A002F4469723100000049
:10081000665F6D6B6469722044697231204F6B0DA5
:100820000A0000004469723120C4BFC2BCD2D1BEEC
:10083000ADB4E6D4DA282573290D0A00665F6D6B26
:10084000646972204469723120CAA7B0DC2028256F
:1008500073290D0A000000002F4469723200000065
:10086000665F6D6B6469722044697232204F6B0D54
:100870000A0000004469723220C4BFC2BCD2D1BE9B
:10088000ADB4E6D4DA282573290D0A00665F6D6BD6
:10089000646972204469723220CAA7B0DC2028251E
:1008A00073290D0A000000002F446972312F44693A
:1008B00072315F3100000000665F6D6B6469722009
:1008C000446972315F3120B3C9B9A60D0A00000036
:1008D000446972315F3120C4BFC2BCD2D1BEADB455
:1008E000E6D4DA20282573290D0A0000665F6D6BB7
:1008F00064697220446972315F3120CAA7B0DC207C
:10090000282573290D0A000010B5ADF5025D0022FF
:100910001EA141F25000684405F008FB04462CB1CA
:100920001B4850F824101BA002F0EEFD1FA101A8E7
:1009300005F0E0FB044644B1154850F824101CA013
:1009400002F0E2FD0DF5025D10BD0A221EA10AA80B
:1009500005F01AFB04466B4622221EA10AA805F0E8
:10096000D9FD04461CB925A002F0CEFD02E02AA064
:1009700002F0CAFD0AA804F0D7FE002203A1104627
:1009800005F0D4FA044600BFDCE70000303A00006E
:10099000B0000020B9D2D4D8CEC4BCFECFB5CDB300
:1009A000CAA7B0DC20282573290D0A00303A2F0091
:1009B000B4F2BFAAB8F9C4BFC2BCCAA7B0DC202831
:1009C0002573290D0A00000061726D666C792E7422
:1009D000787400004661744653205772697465202C
:1009E00044656D6F200D0A207777772E61726D66F2
:1009F0006C792E636F6D200D0A00000061726D66C8
:100A00006C792E74787420CEC4BCFED0B4C8EBB31D
:100A1000C9B9A60D0A00000061726D666C792E746A
:100A2000787420CEC4BCFED0B4C8EBCAA7B0DC0D2D
:100A30000A00000021B1026842F00102026003E0F6
:100A4000026822F0010202607047000010B5002227
:100A50000268134B1A40CC680B6823434C6923434C
:100A60008C692343CC6923430C6A23434C6A234398
:100A70008C6A23434C6B23438C6B23431A430260E1
:100A8000426922F00702D1E90B3423431A43426141
:100A90000B6943604B6883608B68C36010BD0000C6
:100AA0003F801CF030B591B0ADF5805D002253A1C0
:100AB00005A805F03BFA04462CB1514850F8241023
:100AC00050A002F021FD55A005F0CAFC04461CB957
:100AD00054A002F019FD0CE0042C04D14FA156A043
:100AE00002F012FD05E0464850F8241059A002F02B
:100AF0000BFD65A005F0B4FC04461CB966A002F02D
:100B000003FD0EE0042C01D0052C04D15EA14AA007
:100B100002F0FAFC05E03A4850F8241066A002F012
:100B2000F3FC3EA005F09CFC04461CB93DA002F07D
:100B3000EBFC0CE0042C04D138A13FA002F0E4FC53
:100B400005E02F4850F8241042A002F0DDFC6AA016
:100B500005F086FC04461CB969A002F0D5FC0CE047
:100B6000042C04D164A134A002F0CEFC05E024489A
:100B700050F8241068A002F0C7FC74A005F070FCC7
:100B800004461CB974A002F0BFFC0CE0042C04D194
:100B90006EA129A002F0B8FC05E0194850F8241015
:100BA00074A002F0B1FC00251CE02A467FA101A838
:100BB00002F0BAFC01A805F053FC044624B901A9CF
:100BC0007EA002F0A1FC0BE0042C04D101A980A0BE
:100BD00002F09AFC04E0224601A982A002F094FCF3
:100BE000681CC5B2142DE0DB002204A1104605F0FC
:100BF0009DF9044611B00DF5805D30BD303A00001E
:100C0000B0000020B9D2D4D8CEC4BCFECFB5CDB38D
:100C1000CAA7B0DC20282573290D0A002F44697269
:100C200031000000C9BEB3FDC4BFC2BC446972310B
:100C3000B3C9B9A60D0A0000C3BBD3D0B7A2CFD6A3
:100C4000CEC4BCFEBBF2C4BFC2BC203A25730D0AA1
:100C500000000000C9BEB3FD44697231CAA7B0DC10
:100C600028B4EDCEF3B4FAC2EB203D202573292041
:100C7000CEC4BCFED6BBB6C1BBF2C4BFC2BCB7C7F4
:100C8000BFD50D0A000000002F446972312F44695E
:100C900072315F3100000000C9BEB3FDD7D3C4BFBD
:100CA000C2BC2F446972312F446972315F31B3C9BC
:100CB000B9A60D0A00000000C9BEB3FDD7D3C4BF5A
:100CC000C2BC2F446972312F446972315F31CAA7A7
:100CD000B0DC28B4EDCEF3B4FAC2EB203D2025738E
:100CE0002920CEC4BCFED6BBB6C1BBF2C4BFC2BCB9
:100CF000B7C7BFD50D0A00002F446972320000004B
:100D0000C9BEB3FDC4BFC2BC204469723220B3C99E
:100D1000B9A60D0A00000000C9BEB3FD44697232D5
:100D200020CAA7B0DC28B4EDCEF3B4FAC2EB203D64
:100D30002025732920CEC4BCFED6BBB6C1BBF2C4ED
:100D4000BFC2BCB7C7BFD50D0A00000061726D6697
:100D50006C792E7478740000C9BEB3FDCEC4BCFE9D
:100D60002061726D666C792E74787420B3C9B9A64F
:100D70000D0A0000C9BEB3FD61726D666C792E74F8
:100D80007874CAA7B0DC28B4EDCEF3B4FAC2EB2075
:100D90003D2025732920CEC4BCFED6BBB6C1BBF214
:100DA000C4BFC2BCB7C7BFD50D0A0000537065658C
:100DB00064253032642E747874000000C9BEB3FD1F
:100DC000CEC4BCFE2573B3C9B9A60D0A000000004D
:100DD000C3BBD3D0B7A2CFD6CEC4BCFE3A25730DC9
:100DE0000A000000C9BEB3FD2573CEC4BCFECAA76D
:100DF000B0DC28B4EDCEF3B4FAC2EB203D2025647C
:100E00002920CEC4BCFED6BBB6C1BBF2C4BFC2BC97
:100E1000B7C7BFD50D0A000008B500F099F843E048
:100E200002F0CEFF6946002003F05AFF00283BD0B5
:100E30001EA002F069FB9DF80000303807282FD271
:100E4000DFE800F0040A10161C22280018A002F0A7
:100E50005BFB00F00DFA26E01BA002F055FB02F050
:100E6000CFF820E01EA002F04FFBFFF74DFD1AE087
:100E700021A002F049FB01F00FF914E024A002F0D8
:100E800043FBFFF74BFC0EE026A002F03DFBFFF713
:100E900009FE08E029A002F037FB02F09FF902E00A
:100EA00000F056F800BF00BFBAE700000D0A0000CE
:100EB000A1BE30202D2046696C65466F726D61744D
:100EC000A1BF0D0A00000000A1BE31202D205669EF
:100ED0006577526F6F74446972A1BF0D0A000000FC
:100EE000A1BE32202D204372656174654E65774640
:100EF000696C65A1BF0D0A00A1BE33202D2052658B
:100F0000616446696C6544617461A1BF0D0A0000AB
:100F1000A1BE34202D20437265617465446972A1BD
:100F2000BF0D0A00A1BE35202D2044656C65746597
:100F300044697246696C65A1BF0D0A00A1BE3620E6
:100F40002D20546573745370656564A1BF0D0A004C
:100F500010B50FA002F0D8FA1BA002F0D5FA25A018
:100F600002F0D2FA28A002F0CFFA30A002F0CCFAB8
:100F700036A002F0C9FA3DA002F0C6FA43A002F082
:100F8000C3FA46A002F0C0FA4AA002F0BDFA10BDB2
:100F90000D0A2D2D2D2D2D2D2D2D2D2D2D2D2D2DC4
:100FA0002D2D2D2D2D2D2D2D2D2D2D2D2D2D2D2D71
:100FB0002D2D2D2D2D2D2D2D2D2D2D2D2D2D2D2D61
:100FC0002D2D0D0A00000000B5DAD2BBB4CECAB98F
:100FD000D3C3C7EBD1A1D4F1C3FCC1EE30BDF8D06F
:100FE000D053504920466C617368B8F1CABDBBAF9D
:100FF0000D0A0000C7EBD1A1D4F1B2D9D7F7C3FCD9
:10100000C1EE3A0D0A00000030202D20B6D4535016
:10101000495F466C617368BDF8D0D0CEC4BCFECFCA
:10102000B5CDB3B8F1CABDBBAF0D0A0031202D203C
:10103000CFD4CABEB8F9C4BFC2BCCFC2B5C4CEC437
:10104000BCFEC1D0B1ED0D0A0000000032202D2001
:10105000B4B4BDA8D2BBB8F6D0C2CEC4BCFE6172D7
:101060006D666C792E7478740D0A000033202D2083
:10107000B6C161726D666C792E747874CEC4BCFE94
:10108000B5C4C4DAC8DD0D0A0000000034202D20EC
:10109000B4B4BDA8C4BFC2BC0D0A000035202D20C9
:1010A000C9BEB3FDCEC4BCFEBACDC4BFC2BC0D0A1E
:1010B0000000000036202D20B6C1D0B4CEC4BCFE46
:1010C000CBD9B6C8B2E2CAD40D0A000010B54FF4AD
:1010D000006000F06FF840B11348006820F4006031
:1010E00011490860C81400F05FF84FF4005000F098
:1010F00061F840B10C48006820F400500A490860CB
:10110000481400F051F84FF4004000F053F848B193
:101110000548006820F40040034908604FF400408F
:1011200000F042F810BD0000003C014010B5022064
:1011300000F040F820B103F08BFB022000F034F8FF
:1011400010BD000010B5082000F034F840B105488B
:10115000006820F0080003490860082000F024F827
:1011600010BD0000003C014010B5802000F022F8C6
:1011700040B10C48006820F080000A4908608020D7
:1011800000F012F84FF4807000F014F840B10548F8
:10119000006820F4807003490860881500F004F8A6
:1011A00010BD0000003C014001490860704700008C
:1011B000143C0140014600200022074B1B6803EA53
:1011C0000102054B14331B680B4013B10AB1012017
:1011D00000E0002070470000003C0140002123494E
:1011E0008279002A3AD00A46126803689A430B466D
:1011F0001A600A1D126803689A430B1D1A6002796F
:1012000011440A6803681A430A60184A08321268CF
:1012100003689A43154B08331A601A1D1268036855
:101220009A43124B0C331A604279102A0ED11A1FBE
:10123000126803681A430D4B08331A601A1D1268AE
:1012400003681A43094B0C331A600DE007494279D1
:1012500011440A6803681A430A6005E002791144E0
:101260000A6803689A430A6070470000003C014026
:1012700010B5ADF5825D00221EA104A804F056FE53
:10128000044634B11C4850F824101CA002F03CF96C
:1012900005E0194850F824101EA002F035F900228C
:1012A000114614A004F004FB044634B1124850F86F
:1012B00024101EA002F028F905E00F4850F8241071
:1012C0001FA002F021F900220AA1104604F02EFE10
:1012D000044634B1084850F824101EA002F014F956
:1012E00005E0054850F8241020A002F00DF90DF596
:1012F000825D10BD303A0000B0000020B9D2D4D8D1
:10130000CEC4BCFECFB5CDB3CAA7B0DC20282573B0
:10131000290D0A00B9D2D4D8CEC4BCFECFB5CDB306
:10132000B3C9B9A620282573290D0A00B8F1CABD92
:10133000BBAFCAA7B0DC20282573290D0A00000026
:10134000B8F1CABDBBAFB3C9B9A620282573290D12
:101350000A000000D0B6D4D8CEC4BCFECFB5CDB301
:10136000CAA7B0DC20282573290D0A00D0B6D4D82E
:10137000CEC4BCFECFB5CDB3B3C9B9A62028257362
:10138000290D0A00F0B50A4600210023002400BF01
:101390003DE0012505FA01F3156805EA03049C42C6
:1013A00034D105684F000326BE40B543056015796A
:1013B0004E00B5400668354305601579012D02D011
:1013C0001579022D16D185684F000326BE40B5431E
:1013D000856055794E00B54086683543856045681F
:1013E00001268E40B5434560456896798E40B6B279
:1013F00035434560C5684F000326BE40B543C56010
:10140000D5794E00B540C6683543C560491C1029E2
:10141000BFD3F0BDF0B5002300244D07ED0E02FA56
:1014200005F3CE1000F1200555F826504E07F70EB3
:101430000F26BE40B543CF1000F1200646F82750D6
:10144000CE1000F1200555F8265045EA0304CE10D1
:1014500000F1200545F82640F0BD0146086980B23C
:1014600070470246002013690B400BB1012000E0D9
:101470000020704741837047018370474161704786
:101480000AB1018300E041837047000000B587B0D6
:101490000121084600F07EFA0121102000F09AFA9E
:1014A000072209214948FFF7B5FF07220A214748CB
:1014B000FFF7B0FF00208DF81A0001208DF81B0007
:1014C00002208DF818000002059002208DF8190006
:1014D00005A93E48FFF756FF02208DF8180040028C
:1014E000059005A93948FFF74DFF4FF4E130019011
:1014F0000020ADF80800ADF80A00ADF80C00ADF81A
:1015000010000C20ADF80E0001A9314801F0FCFBE1
:10151000012240F225512E4801F0D1FB01212C4837
:1015200001F097FB40212A4801F08AFB01210420A9
:1015300000F030FA0121202000F04CFA08220621A8
:101540002448FFF767FF082207212248FFF762FFC0
:1015500000208DF81A0001208DF81B0002208DF864
:1015600018004020059002208DF8190005A919489F
:10157000FFF708FF02208DF818008020059005A9CC
:101580001448FFF7FFFE4FF4E13001900020ADF862
:101590000800ADF80A00ADF80C00ADF810000C2002
:1015A000ADF80E0001A90C4801F0AEFB012240F29B
:1015B0002551094801F083FB0121074801F049FB4F
:1015C0004021054801F03CFB07B000BD000002408F
:1015D00000100140000802400014014010B5112025
:1015E00001F018F8782002F07DFA362001F012F8A8
:1015F000002001F01FF83A2001F00CF8552001F00E
:1016000019F8B22001F006F80C2001F013F80C20B4
:1016100001F010F8002001F00DF8332001F00AF875
:10162000332001F007F8B72000F0F4FF352001F077
:1016300001F8BB2000F0EEFF2B2000F0FBFFC320E1
:1016400000F0E8FF172000F0F5FFC42000F0E2FFF3
:10165000202000F0EFFFC62000F0DCFF052000F0A6
:10166000E9FFD02000F0D6FFA42000F0E3FFA22085
:1016700000F0E0FF00F072FF132000F0CBFF20200D
:1016800000F0C8FF00F084FE044803880448028884
:101690000021084600F032FF10BD000006010020C6
:1016A0000401002010B5002000F08AFB00F00100CA
:1016B00008B1012010BD0020FCE710B5002000F0AB
:1016C0007FFB00F0020008B1012010BD0020FCE704
:1016D00010B500F055F820B100F05DF808B1012018
:1016E00010BD0020FCE710B500F034F820B100F088
:1016F0003CF808B1012010BD0020FCE710B5002027
:1017000000F05EFB00F0040008B1012010BD0020D5
:10171000FCE710B5002000F053FB00F0080008B112
:10172000012010BD0020FCE710B5002000F048FBB0
:1017300000F0100008B1012010BD0020FCE710B53A
:10174000002000F03DFB00F0200008B1012010BD9A
:101750000020FCE710B5002000F032FB00F0400054
:1017600008B1012010BD0020FCE710B5002000F0FA
:1017700027FB00F0800008B1012010BD0020FCE72D
:1017800010B5002000F01CFB00F4807008B10120AF
:1017900010BD0020FCE710B5002000F011FB00F4A4
:1017A000007008B1012010BD0020FCE710B5044610
:1017B000204600F09FFD10BD1CB50121022000F065
:1017C000E9F803208DF8050001208DF804000020C1
:1017D0008DF8060001208DF8070040F6FF7000909C
:1017E00069460C48FFF7CEFD4FF480710948FFF7BA
:1017F00043FE4FF400710748FFF73EFE4FF480614F
:101800000448FFF739FE4FF400610248FFF734FE49
:101810001CBD0000000402401CB50121042000F0A2
:10182000B9F84FF48050009001208DF80400032097
:101830008DF8050000208DF806008DF80700694638
:101840000D48FFF79FFD4FF480510B48FFF714FE42
:10185000012002F047F94FF480510748FFF70AFED4
:101860000A2002F03FF94FF480510348FFF704FECD
:10187000782002F037F91CBD0008024010B5FFF7D0
:101880009BFFFFF7C9FF00F089FD09490880084662
:10189000008847F28971884208D1022000F014F8CC
:1018A0000020FFF783FF322000F004F810BD000095
:1018B0000201002010B5044602480470204600F0E2
:1018C0000DF810BD0801002010B504460248047050
:1018D000204600F0D7FD10BD090100201CB50446CC
:1018E0004FF4FA60032382060421CDE90004024884
:1018F00002F0A8FE1CBD00000000024070B50021EF
:1019000000230F22C4781CB3174C246804F4E0644D
:10191000C4F5E064C4F30721C1F10404E3B20A4151
:1019200044789C40E1B28478144021430C07210E96
:101930000E4C05786155047804F01F050124AC4075
:1019400005786D11AD0005F1E025C5F8004109E00D
:10195000047804F01F050124AC40054D067876118B
:1019600045F8264070BD00000CED00E000E400E00A
:1019700080E100E002490143024A11607047000023
:101980000000FA050CED00E0014908627047000014
:1019900000000E4229B1064A12680243044B1A6045
:1019A00004E0034A12688243014B1A60704700004A
:1019B0003038024029B1064A12680243044B1A60CB
:1019C00004E0034A12688243014B1A60704700002A
:1019D0004038024029B1064A12680243044B1A609B
:1019E00004E0034A12688243014B1A60704700000A
:1019F000443802400348006840F0807001490860A4
:101A00007047000074380240F0B500210022002425
:101A1000022500260223324F3F6807F00C0121B156
:101A2000042905D0082937D105E02E4F076036E09C
:101A30002D4F076033E02A4F3F1F3F68C7F38056A2
:101A4000274F3F1F3F6807F03F036EB1264FB7FB9C
:101A5000F3F7DFF88CC0ACF1040CDCF800C0CCF379
:101A6000881C07FB0CF40CE01E4FB7FBF3F7DFF804
:101A700070C0ACF1040CDCF800C0CCF3881C07FB90
:101A80000CF4174F3F1F3F68C7F301477F1C7D00D1
:101A9000B4FBF5F7076002E0124F076000BF00BF1C
:101AA0000F4F3F6807F0F0010909104F7A5C076893
:101AB000D74047600A4F3F6807F4E051890A0B4F4F
:101AC0007A5C4768D7408760054F3F6807F46041FC
:101AD000490B064F7A5C4768D740C760F0BD0000ED
:101AE000083802400024F40040787D0114000020F2
:101AF00010B501460022002300204A11012A02D11C
:101B00000A4C236808E0022A03D1084C7034236889
:101B100002E0064C7434236801F01F020124944053
:101B20001C400CB1012000E0002010BD0038024034
:101B30000021094A11701170012802D0042808D12F
:101B400003E00121044A117004E00521024A1170EA
:101B500000E000BF00BF70477038024001490860D4
:101B6000704700003C0E4742002100F44072B2F57D
:101B7000407F08D1094A116821F4F811084A02404F
:101B80001143064A1160054A68321268C0F30B031C
:101B90001A43024B68331A6070470000083802404D
:101BA000FFFCFF0F014600BF080900EB8000420068
:101BB00001F00F001044C0B270470146002204E05B
:101BC000501CC2B2A1F10A00C1B20A29F8DA10070A
:101BD00041EA106070470000002101098AB242F01A
:101BE0008002044B1B6803F0800363EA0202014B8E
:101BF0001A6070470C28004008B5002200920020AF
:101C00000021104A126802F04002CAB9421E0D4B70
:101C10001A6000BF0B4A126802F04001009A521C81
:101C20000092009AB2F5803F01D00029F2D0054A17
:101C3000126802F040020AB1012002E0002000E038
:101C4000012008BD0C2800400348006820F08000F7
:101C500001490860704700000C28004070B5064636
:101C60000C4600250E4800680E4900EA0105280CC4
:101C7000E070C5F30420607005F03F00A070C5F36C
:101C8000423020705EB9E078FFF78CFFE07060783A
:101C9000FFF788FF6070A078FFF784FFA07070BD29
:101CA000042800403FFFFF0070B506460C460025A3
:101CB0000F4800680F4900EA0105C5F30540207090
:101CC000C5F30620607005F07F00A07005F4800069
:101CD000000CE0705EB92078FFF764FF2070607838
:101CE000FFF760FF6070A078FFF75CFFA07070BD29
:101CF000002800407F7F7F00CA22174B1A605322C2
:101D00001A6091B1144A1C3A126820F004031A4375
:101D1000114B1C3B1A60104A1C32126800F004037D
:101D20001A430D4B1C331A6011E00B4A1C3A12681F
:101D300020F004039A43084B1C3B1A60064A1C32ED
:101D4000126800F004039A43034B1C331A60FF220D
:101D5000014B1A60704700002428004030B504464B
:101D60000025CA201549086053200860FFF744FF8A
:101D700000B91DE011481C38006820F040000F49F0
:101D80001C39086008460068216808430B491C3963
:101D900008600A491439A068086008460068A188EC
:101DA00040EA0140054914390860FFF74DFF01255D
:101DB000FF2002490860284630BD0000242800406A
:101DC00008B501460020009004480090009800EB00
:101DD000810000900098006808BD00005028004075
:101DE0002DE9F04105460C46002600274DB96078E4
:101DF00000F01000102804D1607820F010000A30A4
:101E0000607005B908E06078FFF7CCFE0646A07860
:101E1000FFF7C8FE064600BF55B1E07800046178C0
:101E200040EA0120A1780843217840EA413611E0D8
:101E3000E078FFF7C2FE4FEA00486078FFF7BDFE8A
:101E400048EA0028A078FFF7B8FE48EA00082078A2
:101E500048EA4036CA200E49086053200860FFF760
:101E6000CBFE08B900270CE00A4830400849203969
:101E70000860FFF7E9FE00F07DF808B9002700E0F0
:101E80000127FF20024908603846BDE8F0810000C4
:101E9000242800403FFFFF002DE9F04105460C4695
:101EA000002600274DB92A48006800F0400000B124
:101EB00002E00020E07000BF0DE02548006800F05F
:101EC000400020B12078FFF76DFE064602E00020BA
:101ED000E07000BF00BF55B120780004617840EA8F
:101EE0000120A1780843E17840EA014611E020781A
:101EF000FFF763FE4FEA00486078FFF75EFE48EAAE
:101F00000028A078FFF759FE48EA0008E07848EA80
:101F10000046CA200E491C31086053200860FFF7B4
:101F20006BFE08B900270CE00A4830400849083920
:101F30000860FFF789FE00F01DF808B9002700E0EF
:101F40000127FF2002491C3108603846BDE8F081B6
:101F5000082800407F7F7F00CA21054A1160532175
:101F60001160034910390860FF21116070470000BB
:101F70002428004008B50022009200200021CA2237
:101F8000134B1A6053221A60114A183A126822F051
:101F9000A0020F4B183B1A6000BF0D4A183A126896
:101FA00002F02001009A521C0092009AB2F5004FF4
:101FB00001D00029F1D0064A183A126802F0200236
:101FC0000AB1012000E00020FF22014B1A6008BD89
:101FD00024280040CA210A4A11605321116008498F
:101FE0001C39096821F00701054A1C3A11601146A5
:101FF000096801431160FF21014A11607047000028
:102000002428004018B50146002300930022002038
:10201000CA23194C23605323236049B1164B1C3B40
:102020001B6843F48063144C1C3C236001201FE0B8
:10203000114B1C3B1B6823F480630F4C1C3C23603A
:1020400000BF0D4B183B1B6803F00402009B5B1C98
:102050000093009BB3F5803F01D0002AF1D0064BDE
:10206000183B1B6803F004030BB9002000E00120BB
:10207000FF23014C236018BD2428004008B500222E
:102080000092044A0092009A02EB80020092009AA9
:10209000116008BD5028004010B5ADF5045D002268
:1020A00023A141F2D000684403F040FF04462CB164
:1020B000204850F8241020A001F026FA24A121A8DD
:1020C00004F018F8044644B11A4850F8241021A02E
:1020D00001F01AFA0DF5045D10BD012223A12AA812
:1020E00003F052FF04461CB123A001F00DFAF1E702
:1020F00020AB7F2269462AA804F038F804462098CD
:1021000040B10020209A0DF80200694622A001F09B
:10211000FBF902E028A001F0F7F92AA803F004FB7C
:10212000002203A1104603F001FF044600BFD1E7DF
:10213000303A0000B0000020B9D2D4D8CEC4BCFEE2
:10214000CFB5CDB3CAA7B0DC282573290D0A00008E
:102150002F000000B4F2BFAAB8F9C4BFC2BCCAA71E
:10216000B0DC282573290D0A0000000061726D663D
:102170006C792E7478740000446F6E277420466961
:102180006E642046696C65203A2061726D666C79D8
:102190002E7478740D0A00000D0A61726D666C79F8
:1021A0002E74787420CEC4BCFEC4DAC8DD203A2078
:1021B0000D0A25730D0A00000D0A61726D666C79B7
:1021C0002E74787420CEC4BCFEC4DAC8DD203A2058
:1021D0000D0A000021B1028842F04002028004E0B2
:1021E00002884FF6BF731A400280704702460020F3
:1021F00013890B400BB1012000E00020704701461D
:10220000888970478181704710B50022028802F4E6
:1022100041520B884C8823438C882343CC8823432A
:102220000C8923434C8923438C892343CC89234342
:102230001A430280838B4FF2FF74234083830B8AFF
:10224000038210BD10B501F0BFFF01F0C7FB05F020
:102250007FFE10210848FFF70DF9042005F0F2FE7B
:1022600010210548FFF708F905F008FF002005F0E8
:10227000E7FF002010BD0000000002400246052AD2
:1022800014D2DFE802F0030A050F110000207047A6
:102290004FF4805008800020F9E74FF40060086098
:1022A0000020F4E70020F2E70020F0E70020EEE74E
:1022B00070B506460C4615462A032103304605F044
:1022C000F1FD002070BD002070472DE9F041074668
:1022D0000C461546002607E021034FF4805238468D
:1022E00005F0E4FE701CC6B2AE42F5D30020BDE896
:1022F000F081000070B50446234803882348028813
:102300000021084600F0FAF82C2000F083F91F485D
:1023100000881D4909884843C610002530E0201276
:1023200000F088F9E0B200F085F9201200F082F99F
:10233000E0B200F07FF9201200F07CF9E0B200F08A
:1023400079F9201200F076F9E0B200F073F920126A
:1023500000F070F9E0B200F06DF9201200F06AF9B7
:10236000E0B200F067F9201200F064F9E0B200F08A
:1023700061F9201200F05EF9E0B200F05BF96D1C2B
:10238000B542CCD370BD000006010020040100203E
:1023900010B5292000F03EF910BD000010B500F086
:1023A0005BF804460748844209D1FFF717F900207B
:1023B0000549087047F289700449088010BD4EF63F
:1023C000EE60FBE7528585000A0100200201002033
:1023D0007CB505460E46002401210220FFF7DAFAFB
:1023E00003208DF8050000208DF804008DF806000C
:1023F0008DF80700FF20009069461648FEF7C2FFDF
:102400004FF480711348FFF735F800BF0FE04FF429
:1024100080611048FFF72EF84FF480610D48FFF7F8
:102420002BF80C48FFF719F82855601CC4B2B442C9
:10243000EDDB4FF480710748FFF71EF801208DF89F
:1024400004008DF80700FF20009069460148FEF760
:1024500099FF7CBD0004024008B5002000900420D4
:1024600000F0D8F804216846FFF7B2FF9DF801009C
:1024700000049DF8021000EB01209DF803100844B1
:1024800008BD000010B50446362000F0C3F854B96A
:10249000A02000F0CFF8F020164908804FF4A0707B
:1024A0001549088025E0012C0AD1602000F0C2F80F
:1024B000F020104908804FF4A0700F49088018E000
:1024C000022C0AD1C02000F0B5F84FF4A0700949E1
:1024D0000880F020084908800BE0032C09D1002077
:1024E00000F0A8F84FF4A07002490880F0200249DB
:1024F000088010BD04010020060100202DE9F041F4
:1025000004460D4616461F462A2000F083F8200A8E
:1025100000F090F8E0B200F08DF8E119491EC1F327
:10252000072000F087F8E119491EC8B200F082F8D0
:102530002B2000F06FF8280A00F07CF8E8B200F0D9
:1025400079F8A919491EC1F3072000F073F8A919F9
:10255000491EC8B200F06EF8BDE8F08110B5E02069
:1025600000F058F8F02000F065F8002000F062F864
:102570000A2000F05FF8102000F05CF8122000F054
:1025800059F81B2000F056F8392000F053F8442089
:1025900000F050F8472000F04DF8282000F04AF8ED
:1025A000122000F047F8102000F044F8162000F048
:1025B00041F81B2000F03EF8E12000F02BF8F0205D
:1025C00000F038F8002000F035F80A2000F032F86A
:1025D000102000F02FF8112000F02CF81A2000F045
:1025E00029F83B2000F026F8342000F023F84E2094
:1025F00000F020F83A2000F01DF8172000F01AF83B
:10260000162000F017F8212000F014F8222000F026
:1026100011F810BD10B5044644F474410448FEF7A7
:102620002DFF44F47F410248FEF728FF10BD000053
:102630000004024010B5044644F476410448FEF715
:102640001DFF44F47F410248FEF718FF10BD000053
:102650000004024030B500228B071C0F0F2303FA41
:1026600004F20B4B8C1053F824309343084C8D101C
:1026700044F8253023468C1053F824308C07240F5F
:1026800000FA04F42343024C8D1044F8253030BD89
:10269000083801400EB50020029001900090584883
:1026A000006840F480305649086000BF5448006814
:1026B00000F4003001900298401C0290019818B973
:1026C0000298B0F5A06FF1D14D48006800F40030D9
:1026D00010B10120019001E0002001900198012833
:1026E00039D1474808300068454908310860084634
:1026F000006840F4004008600846006840F4A050BC
:1027000008604048091F0860081F006840F080709A
:10271000091F086000BF3A48006800F000700028F8
:10272000F9D040F203703849086035480830006835
:1027300020F003003249083108600846006840F084
:102740000200086000BF2E480830006800F00C004E
:102750000828F8D152E02A48006820F4803028493F
:10276000086000BF2648006800F002000090029850
:10277000401C0290009818B90298B0F5A06FF1D1F2
:102780001F48083000681E49083108600846006884
:1027900040F4004008600846006840F4A05008601B
:1027A0001A48091F08600846006820F48000086085
:1027B000081F006840F08070091F086000BF1048C3
:1027C000006800F000700028F9D040F203700E4954
:1027D00008600B480830006820F003000849083101
:1027E00008600846006840F00200086000BF044826
:1027F0000830006800F00C000828F8D10EBD000079
:1028000000380240193C4005003C0240103C0005E5
:1028100010B500BF102080F31188BFF34F8FBFF3B6
:102820006F8F00BF06F078FD18B14FF0805004495B
:10283000086000BF002080F3118800BF10BD0000B9
:1028400004ED00E010B51248006840F001001049A6
:10285000086000200E49083108600D4800680D49E5
:1028600008400B4908600C48091D0860081F0068F3
:1028700020F48020091F0860002005490C31086001
:10288000FFF708FF4FF000600449086010BD00002A
:1028900000380240FFFFF6FE1030002408ED00E093
:1028A00021B1028842F08002028004E002884FF6E3
:1028B0007F731A400280704721B1028842F0010202
:1028C000028004E002884FF6FE731A4002807047CF
:1028D00031B1B0F8442042F40042A0F8442005E0B1
:1028E000B0F84420C2F30E02A0F844207047000064
:1028F00070B5002400220023058C4FF6FE7635408B
:102900000584028C8388048B4FF68F752C40B51E8E
:102910002C400D882C43751E2A408D892A434D88F2
:102920002A43104DA84202D00F4DA84213D14FF6B2
:10293000F7752A40CD892A434FF6FB752A408D88CA
:102940002A434FF6FF652B404FF6FF552B400D8A6B
:102950002B434D8A2B43838004838D684563028417
:1029600070BD000000000140000401400A46002143
:10297000018B4FF6F7731940114301837047000034
:1029800070B5002400220023058C4FF6EF76354009
:102990000584028C8388048B48F6FF752C404FF623
:1029A000FF452C400D884FF6FF7606EA05252C439F
:1029B0004FF6DF752A408D8906EA05152A434D88B2
:1029C00006EA05152A43154DA84202D0144DA84227
:1029D0001DD14FF67F752A40CD894FF6FF7606EA66
:1029E00005152A434FF6BF752A408D8806EA05155E
:1029F0002A434FF6FF352B404FF2FF752B400D8ACF
:102A000006EA85052B434D8A06EA85052B4383801C
:102A100004838D688563028470BD0000000001405E
:102A2000000401400A460021018B4FF2FF73194058
:102A30004FF6FF7303EA0223194301837047000036
:102A400070B5002400220023058C4FF6FF66354048
:102A50000584028C8388848B4FF68F752C404FF64B
:102A6000FC752C400D882C434FF6FF552A408D896C
:102A70004FF6FF7606EA05252A434D8806EA052526
:102A80002A43154DA84202D0144DA8421DD14FF241
:102A9000FF752A40CD894FF6FF7606EA05252A43C1
:102AA0004FF6FF352A408D8806EA05252A434EF663
:102AB000FF752B404DF6FF752B400D8A06EA051574
:102AC0002B434D8A06EA05152B43838084838D684A
:102AD000C563028470BD0000000001400004014095
:102AE0000A460021818B4FF6F77319401143818309
:102AF0007047000070B5002200230024058C4EF6BC
:102B0000FF7635400584038C8488828B48F6FF75F8
:102B10002A404FF6FF452A400D884FF6FF7606EA19
:102B200005252A434DF6FF752B408D8906EA0535AC
:102B30002B434D8806EA05352B430A4DA84202D0A7
:102B4000094DA84208D14BF6FF752C400D8A4FF66F
:102B5000FF7606EA85152C43848082838D680564A0
:102B6000038470BD00000140000401400A460021BA
:102B7000818B4FF2FF7319404FF6FF7303EA022374
:102B800019438183704700210180418081808160E9
:102B90008181C18101824182704700000022028848
:102BA000184B98420ED0184B98420BD0B0F1804F82
:102BB00008D0164B984205D0154B984202D0154BC1
:102BC000984204D14FF68F731A404B881A43124B28
:102BD000984207D0114B984204D04FF6FF431A4059
:102BE0000B891A4302804B68C3620B880385054B2F
:102BF000984202D0044B984201D18B7A038601237C
:102C0000838270470000014000040140000400403E
:102C100000080040000C004000100040001400407C
:102C200010B5024800F004F910BD00002059002042
:102C300010B5024800F0FCF810BD0000486100200B
:102C400001F40072B2F5007F00D100BFCA430280D8
:102C5000704721B1828942F40052828104E0828966
:102C60004DF6FF731A408281704770B5024600240A
:102C700000230025002040F66A16B14200D100BFB3
:102C8000C1F3421501F01F03012606FA03F3012DDB
:102C900002D19689334006E0022D02D1168A3340D4
:102CA00001E0968A33400C12012606FA04F41688D5
:102CB000344013B10CB1012000E0002070BDF0B52C
:102CC0000346002400260025002040F66A17B9427A
:102CD00000D100BF1846C1F3421401F01F060127BE
:102CE00007FA06F5012C01D10C3004E0022C01D1C9
:102CF000103000E014301AB107682F43076002E07B
:102D00000768AF430760F0BD2DE9FF4705460E4653
:102D10000024A14600BFA046B08900B100BF2C8AA4
:102D200024F44054F08804432C82AC8941F20C60B6
:102D30008443B08831890843718908430443AC81D6
:102D4000AC8A24F44074B0890443AC826846FEF730
:102D50005BFE2048854202D01F48854202D1DDF843
:102D60000C9001E0DDF80890A88900F4004040B123
:102D700009EBC90000EB091031684900B0FBF1F71D
:102D800007E009EBC90000EB091031688900B0FBCE
:102D9000F1F76420B7FBF0F004012009642101FB86
:102DA0001078A88900F4004040B1322000EBC80040
:102DB000B0FBF1F000F00700044308E0322000EB24
:102DC00008106421B0FBF1F000F00F0004432C81E7
:102DD000BDE8FF87001001400014014001468888CB
:102DE000C0F308007047C1F308028280704770B5D5
:102DF00004460D4605F0A2FB668B05F0C9FB0EB933
:102E0000002070BD218BA068405C287005F096FB07
:102E1000208B401C80B22083E189884201DB0020A6
:102E20002083608B401E608305F0B2FB0120E8E741
:102E300070B5044640F225512068FFF716FFF8B13F
:102E40002068FFF7CBFFC5B2E18AA0684554E08A4D
:102E5000401C80B2E082E189884201DB0020E082F0
:102E6000608BE189884202DA608B401C6083608B52
:102E7000012804D1606A10B12846616A884700BF02
:102E800040F227712068FFF7F0FE08B3A08A60B90E
:102E9000002240F227712068FFF711FF012240F263
:102EA00026612068FFF70BFF37E0638A6268D15C18
:102EB0002068FFF798FF608A401C80B26082A18979
:102EC000884201DB00206082A08A401EA08224E0AC
:102ED00040F226612068FFF7C8FEF0B1A08A50B921
:102EE000002240F226612068FFF7E9FE206AA0B1C7
:102EF000206A804711E0638A6268D15C2068FFF72E
:102F000072FF608A401C80B26082A189884201DB26
:102F100000206082A08A401EA08270BDF8B50446E1
:102F20000E461746002525E00CE005F007FBA08AB9
:102F3000009005F02DFBA089BDF80010884200DD4F
:102F400001E000BFF1E700BF705D228A616888542C
:102F500005F0F4FA208A401C80B22082A1898842C0
:102F600001DB00202082A08A401CA08205F010FB1B
:102F7000681C85B2BD42D7DB012240F22771206870
:102F8000FFF79DFEF8BD0000154816490860164879
:102F90004860164888604FF480608881C8810020AE
:102FA00008824882C882088348838882C861086290
:102FB00048620F480F4908600F4848600F48886012
:102FC0004FF480608881C881002008824882C882CE
:102FD000088348838882C86108624862704700009D
:102FE000001001402059002048590020485D002071
:102FF00000140140486100207061002070650020CD
:1030000070B5ADF58C5D0025002239A154A802F001
:103010008DFF044634B1374850F8241036A000F034
:1030200073FA05E0334850F8241039A000F06CFA28
:103030003DA14BA803F05EF8044644B12D4850F87A
:1030400024103AA000F060FA0DF58C5D70BD03A964
:1030500049914FF480714A913AA000F055FA002549
:1030600000BF43A94BA803F073F9044614B99DF8B7
:10307000150100B924E09DF815012E2800D11DE0AE
:103080009DF8140100F0100028B19DF8141139A02A
:1030900000F03AFA04E09DF814113AA000F034FA76
:1030A0003CA0439900F030FA0DF215113BA000F05E
:1030B0002BFA3CA0499900F027FA00BF6D1CD0E71D
:1030C00000BF00220AA1104602F030FF044634B1CE
:1030D000084850F8241035A000F016FA05E005481D
:1030E00050F8241037A000F00FFA00BFACE7000042
:1030F000303A0000B0000020B9D2D4D8CEC4BCFE13
:10310000CFB5CDB3CAA7B0DC20282573290D0A009E
:10311000B9D2D4D8CEC4BCFECFB5CDB3B3C9B9A64D
:1031200020282573290D0A00303A2F00B4F2BFAAD7
:10313000B8F9C4BFC2BCCAA7B0DC20282573290DCA
:103140000A000000CAF4D0D4202020202020202013
:103150007C2020CEC4BCFEB4F3D0A1207C20B6CC11
:10316000CEC4BCFEC3FB207C20B3A4CEC4BCFEC333
:10317000FB0D0A002830782530326429C4BFC2BC58
:10318000202000002830782530326429CEC4BCFECF
:10319000202000002025313064000000202025730D
:1031A000207C0000202025730D0A0000D0B6D4D862
:1031B000CEC4BCFECFB5CDB3CAA7B0DC20282573E2
:1031C000290D0A00D0B6D4D8CEC4BCFECFB5CDB33D
:1031D000B3C9B9A620282573290D0A002DE9F05F8F
:1031E000ADF5035D4FF0000A002405E0302000EB50
:1031F000542070490855641CB4F5805FF6D3002252
:103200006DA141F29000684402F090FE05462DB198
:103210006A4850F825106AA000F076F96EA111A84E
:1032200002F068FF05464DB1644850F825106BA0C8
:1032300000F06AF90DF5035DBDE8F09F6D48027876
:103240000078401C6B4B18706BA10CA800F06CF957
:103250000A220CA91AA802F097FE05464FF4006254
:103260000CA969A000F050F900F0A6FD80460024EA
:1032700018E010AB4FF480524E491AA803F04AF9F7
:1032800005463DB9601C00F0070050B964A000F08D
:103290003BF906E04FF0010A0CA962A000F034F9F6
:1032A00003E0641CB4F5007FE3D300BF00F084FDAD
:1032B0008146BAF1000F0FD1A9EB08064FF4FA10BE
:1032C000B0FBF6FB8002B0FBF6F15B460A460B91C1
:1032D000314658A000F018F91AA802F025FA012288
:1032E0000CA91AA802F050FE054625B10CA95EA053
:1032F00000F00AF99EE74FF4006160A000F004F9C5
:1033000000F05AFD804600242EE010AB4FF48052AE
:1033100028491AA802F02AFF0546F5B9601C00F0FA
:10332000070010B93EA000F0EFF800270DE021489B
:10333000C05D302101EB5721884205D04FF0010AD2
:1033400054A000F0E1F803E07F1CB7F5805FEED3F6
:1033500000BFBAF1010F06D109E04FF0010A57A0F2
:1033600000F0D2F803E0641CB4F5007FCDD300BFB9
:1033700000F022FD8146BAF1000F0FD1A9EB08063B
:103380004FF4FA10B0FBF6FB8002B0FBF6F15B469F
:103390000A460B9131464FA000F0B6F81AA802F089
:1033A000C3F9002204A1104602F0C0FD054600BF8B
:1033B00040E7000020490020303A0000B000002023
:1033C000B9D2D4D8CEC4BCFECFB5CDB3CAA7B0DC79
:1033D00020282573290D0A002F000000B4F2BFAA8F
:1033E000B8F9C4BFC2BCCAA7B0DC20282573290D18
:1033F0000A0000000001002053706565642530322A
:10340000642E747874000000BFAACABCD0B4CEC4C5
:10341000BCFE25732025644B42202E2E2E0D0A0063
:103420002E0000002573CEC4BCFED0B4CAA7B0DC09
:103430000D0A00000D0A2020D0B4BAC4CAB1203A47
:103440002025646D73202020C6BDBEF9D0B4CBD931
:10345000B6C8203A202564422F53202825644B42C9
:103460002F53290D0A000000C3BBD3D0D5D2B5BD60
:10347000CEC4BCFE3A2025730D0A0000BFAACABC08
:10348000B6C1CEC4BCFE2025644B42202E2E2E0D8C
:103490000A0000005370656564312E74787420CE84
:1034A000C4BCFEB6C1B3C9B9A6A3ACB5ABCAC7CA42
:1034B000FDBEDDB3F6B4ED0D0A0000005370656586
:1034C00064312E74787420CEC4BCFEB6C1CAA7B0D5
:1034D000DC0D0A000D0A2020B6C1BAC4CAB1203AD8
:1034E0002025646D73202020C6BDBEF9B6C1CBD99E
:1034F000B6C8203A202564422F53202825644B4229
:103500002F53290D0A0000000FB4054B10B503A975
:10351000044A029800F02CF810BC5DF814FB00007F
:10352000BD6C0008540200200FB4084B10B504A96C
:1035300002AA039800F01CF8044602A9002000F03B
:1035400048FA204610BC5DF814FB0000D33900088F
:1035500002E008C8121F08C1002AFAD1704770475C
:10356000002001E001C1121F002AFBD170470000BA
:103570002DE9FF4F8DB00F460546002606E02528B1
:103580000BD0DDE90F1290476D1C761C28780028BF
:10359000F5D111B03046BDE8F08F0024A246A14617
:1035A0000122EC4900E0044315F8013F203B02FAF8
:1035B00003F00842F7D128782A2810D06FF02F02A4
:1035C0002878A0F13001092914D80AEB8A0102EB0E
:1035D000410144F0020400EB010A6D1CF0E701CF49
:1035E0005FEA000A03D544F40054CAF1000A44F02B
:1035F00002046D1C28782E2817D115F8010F44F00D
:1036000004042A280ED06FF02F022878A0F1300190
:1036100009290AD809EB890102EB410100EB0109F4
:103620006D1CF2E757F8049B6D1C28786C280FD0AE
:1036300006DC4C2817D068280DD06A2814D104E085
:10364000742810D07A280FD10DE044F400140AE059
:1036500044F4801401E044F440146978814202D1BA
:1036600004F580146D1C6D1C2A786E2A1FD00CDCAA
:10367000632A31D004DC002A8BD0582A11D1A3E070
:10368000642A68D0692A0CD165E0732A2ED004DC44
:103690006F2A73D0702A04D19BE0752A6FD0782AE4
:1036A0006ED01046DDE90F129047761C50E1C4F34E
:1036B0000250022806D0032809D0042801CF09D0DF
:1036C000066045E101CFF117C0E9006140E101CF9B
:1036D00006803DE106703BE117F8040B8DF8000011
:1036E00000208DF80100EB46012003E057F804BBF1
:1036F0004FF0FF3061074FF0000102D40DE008F1F8
:103700000101884649450FDA8045F8DB1BF80810AF
:103710000029F4D108E008F1010188468142FADB72
:103720001BF808100029F6D1DDE90F23AAEB0800E9
:103730008146214600F036F9304400EB080604E0EB
:10374000DDE90F121BF8010B9047B8F10108F7D221
:1037500021464846F7E00A21C4F302534FF0000B1C
:103760000891022B04D001CFC117032B09D00AE026
:10377000FF1D27F00707F7E8020108E032E01FE02D
:1037800020E000B2C117042B01D140B2C117031EC3
:1037900071F1000307DA4FF0000CD0EB0C006CEB7A
:1037A00001012D2302E0230504D52B238DF82430BD
:1037B000012303E0E30701D02023F7E7984658E010
:1037C0000A2110E010210EE010204FF0000B0890AD
:1037D0000CE010214FF0000B44F004044FF00809F6
:1037E000089103E008214FF0000B0891C4F3025345
:1037F000022B04D001CF0021032B06D006E0FF1DD1
:1038000027F00707F7E8020103E080B2042B00D19C
:10381000C0B24FF0000823072BD5702A07D0DDF87F
:1038200020C08CF0100C5CEA0B0C05D00EE040239D
:103830008DF82430012308E050EA010306D030233C
:103840008DF824308DF8252002239846DDF820C01D
:103850008CF0080C5CEA0B0C0BD150EA010301D18F
:10386000630706D530238DF824304FF00108A9F105
:103870000109582A04D038A20B9208AA0A920BE038
:103880003AA2F9E75B46089AFCF733FD0B9B9B5C79
:103890000A9A521E0A92137050EA0102F2D10A9853
:1038A000ADEB000000F1200B600702D524F480345A
:1038B00001E04FF00109D94502DDA9EB0B0000E062
:1038C000002000EB0B0141440890AAEB010AE00341
:1038D00006D4DDE90F232146504600F063F8064484
:1038E0004FF0000908E009A911F80900DDE90F12FD
:1038F000904709F10109761CC145F4DBE0030CD5C2
:10390000DDE90F232146504600F04CF8064404E060
:10391000DDE90F1230209047761C0899481E089068
:103920000029F5DC08E00A980A990078491C0A91F8
:10393000DDE90F129047761CBBF10001ABF1010BE2
:10394000F1DC21465046DDE90F2300F019F806446A
:103950006D1C1BE60928010030313233343536370F
:1039600038396162636465660000000030313233CB
:10397000343536373839414243444546000000006B
:103980002DE9F041044600251E461746880404D45C
:1039900005E039462020B0476D1C641EF9D5284645
:1039A000BDE8F0812DE9F041044600251E46904611
:1039B000C80301D5302700E02027880404D505E09E
:1039C00041463846B0476D1C641EF9D52846BDE80F
:1039D000F0810A68531C0B601070704700B585B009
:1039E00001210803FDF7F6FF0020ADF800004FF4B9
:1039F0008270ADF802000020ADF804000220ADF89E
:103A000006000120ADF808004002ADF80A000820C9
:103A1000ADF80C000020ADF80E000720ADF8100046
:103A200069460648FEF7F0FB00210448FEF7D2FB8A
:103A300001210248FEF7CEFB05B000BD0030014079
:103A40007CB505460C46284600F01CF906460121C7
:103A5000FDF7A0FF009401208DF8040000208DF8F0
:103A6000060002208DF8050069462846FDF78AFC0D
:103A70007CBD00002DE9FC4706460D4614469946DC
:103A8000304600F0FFF807460121FDF783FF00955F
:103A900002208DF8040000208DF8060002208DF829
:103AA000050001208DF8070069463046FDF76AFCE5
:103AB0000A48844202D10A4884420CD0204600F0D1
:103AC00033F80746284600F097F880463A464146C4
:103AD0003046FDF79FFCBDE8FC8700000010004069
:103AE0000014004010B504464FF47A7104FB01F055
:103AF00000F002F810BD000030B5084C63680021EA
:103B0000074C2468074DB4FBF5F404FB00F202E017
:103B1000024C6468E11A9142FAD330BD001000E013
:103B20000000002040420F0001461C48814201D1A4
:103B300001207047B1F1804F01D10120F9E7184809
:103B4000814201D10220F4E71648814201D10220CE
:103B5000EFE71548814201D10220EAE7134881428C
:103B600001D10320E5E71248814201D10320E0E7BB
:103B70001048814201D10320DBE70F48814201D187
:103B80000320D6E70D48814201D10920D1E70C4836
:103B9000814201D10920CCE70920CAE70000014099
:103BA0000004004000080040000C004000040140F8
:103BB000004001400044014000480140001800401E
:103BC000001C004000210B48007C0A4A527C9042B5
:103BD00001D1002070470748007C064A115C10465E
:103BE000007C401CC0B21074102801DB002010744F
:103BF0000846EFE7AC7A00200146012901D10020F8
:103C00007047022901D10120FAE7042901D10220DD
:103C1000F6E7082901D10320F2E7102901D1042099
:103C2000EEE7202901D10520EAE7402901D106204D
:103C3000E6E7802901D10720E2E7B1F5807F01D1D5
:103C40000820DDE7B1F5007F01D10920D8E7B1F503
:103C5000806F01D10A20D3E7B1F5006F01D10B20AD
:103C6000CEE7B1F5805F01D10C20C9E7B1F5005F67
:103C700001D10D20C4E7B1F5804F01D10E20BFE77F
:103C80000F20BDE701460020114A914201D10120D9
:103C90001CE0104A914201D1022017E00E4A9142E5
:103CA00001D1042012E00D4A914201D108200DE01B
:103CB0000B4A914201D1102008E00A4A914201D1F9
:103CC000202003E0084A914200D1402070470000C4
:103CD000000002400004024000080240000C0240C4
:103CE000001002400014024000180240014600206B
:103CF000244A914201D1012042E0234A914201D15C
:103D000002203DE0214A914202D14FF4803037E059
:103D10001F4A914202D14FF4003031E01D4A9142D6
:103D200002D14FF480202BE0B1F1804F01D101206E
:103D300026E0194A914201D1022021E0174A91421E
:103D400001D104201CE0164A914201D1082017E05D
:103D5000144A914201D1102012E0134A914201D13C
:103D600020200DE0114A914201D1402008E0104A84
:103D7000914201D1802003E00E4A914200D1881582
:103D80007047000000000140000401400040014075
:103D90000044014000480140000400400008004089
:103DA000000C0040001000400014004000180040CB
:103DB000001C00400020004010B505F09DFA10BD29
:103DC000704710B501210803FDF7E4FD4FF4407082
:103DD000FDF7D0FD00F0A2F8462000F01BFB00F03C
:103DE000B1F800F02FFA00F089F900F003F8FDF7C0
:103DF00045FD10BD00B59BB001214348FDF7CAFD4C
:103E000001210802FDF7E6FD0B20009003208DF84C
:103E1000040000208DF8070069463C48FDF7B2FA1F
:103E2000002002903A4803903A4804900020059000
:103E300004200690002007904FF480600890400016
:103E4000099080000A9040110B9040020C900020D5
:103E50000D9001200E9000200F90109002A92E4886
:103E6000FCF7F4FD01212C48FCF7E4FD0020119043
:103E700012901390149011A8FCF7D4FA002015901A
:103E800001208DF858008DF85900002017901990E6
:103E900004208DF8680015A91D484C38FCF7F0FA8D
:103EA00001211B484C38FCF7D5FA072301221021C9
:103EB00017484C38FCF70EFB072302220121144857
:103EC0004C38FCF707FB00230322194610484C38F6
:103ED000FCF700FB0723042203210D484C38FCF7B4
:103EE000F9FA0120FCF758FB012109484C38FCF78E
:103EF000BCFA012106484C38FCF788FA04484C38D3
:103F0000FCF744FB1BB000BD010040000000024074
:103F10004C20014014010020106402400748006852
:103F200040F0807005490860002005494860084657
:103F3000006840F00100086070470000FCED00E000
:103F4000001000E010B500F05DF800F02DF800F072
:103F500001F810BD0EB501218803FDF73BFD0121DD
:103F60000220FEF777FB0220019000208DF8080068
:103F70000C208DF8090001208DF80A0001A8FDF73A
:103F80002DF94FF44070FDF7F5FC07208DF8000087
:103F900003208DF801008DF8020001208DF8030048
:103FA0006846FDF7ABFC0EBD1CB501210420FDF7F2
:103FB000F1FC00208DF804008DF8070002208DF838
:103FC000050000208DF804000420009069460C488C
:103FD000FDF7D8F90220009069460948FDF7D2F9AB
:103FE00001208DF804008DF8070008200090694634
:103FF0000348FDF7C7F908210148FDF73DFA1CBD4C
:104000000008024010B500202E49087448748874D6
:10401000002435E005F070F904EB44012A4A02EB74
:10402000C101486004EB4400114601EBC000406848
:1040300004EB440102EBC10188604FF47A7004EB99
:10404000440102EBC101888140F6B83004EB440121
:1040500002EBC101C881002004EB440102EBC10165
:1040600008744FF4FA7004EB440102EBC10148827A
:10407000002004EB440102EBC1010875601CC4B2CE
:104080000C2CC7DB114810490860114888611148A1
:104090000863114888641148086611488867114808
:1040A000C1F890001048C1F8A8001048C1F8C0003D
:1040B0000F48C1F8D8000F48C1F8F0000E48C1F809
:1040C000080110BDAC7A00208C790020A5160008EC
:1040D000BB160008FD160008131700082917000872
:1040E0003F170008551700086B17000881170008D4
:1040F00097170008D1160008E71600083EB50024FF
:1041000001213048FDF756FC0120FDF73DFC012060
:10411000FDF756FE4AF2A551884239D07F20019022
:10412000FF200290002000906846FDF717FE012056
:10413000FDF7FEFC00BF4120FDF7DAFC0028FAD0B5
:104140004FF48070FDF710FD0120FDF707FDFDF72E
:1041500011FF0122114640F2E17000F00FF9002238
:104160003A21082000F038F90020FDF733FF40F233
:10417000FF70FDF7F1FE01218803FDF7BDFD012071
:10418000FDF740FF4AF2A5510120FDF777FF18E047
:1041900000BF2046611C8CB241F288318842F8DBB6
:1041A000FDF7E8FE4FF48040FDF716FD7B20FDF79C
:1041B0009FFC10B97A20FDF79BFCFDF71BFCFDF777
:1041C000D9FE3EBD000004101CB501210846FDF7D4
:1041D000E1FB052211461A48FDF71CF905220621CC
:1041E0001748FDF717F9052207211548FDF712F9C1
:1041F00002208DF804008DF8050000208DF80600DF
:1042000002208DF80700E020009069460C48FDF779
:10421000B9F81020009001208DF8040000208DF8DE
:10422000060002208DF8050000208DF80700694681
:104230000348FDF7A7F810210148FDF71DF91CBD43
:104240000000024010B5FEF79FFEFDF71FF9FCF7D6
:104250004BFA10BD0649497C054A50541146497C29
:10426000491CC9B25174102901DB002151747047F7
:10427000AC7A00202DE9F04F04460D461646032D7A
:104280000CDBAC46642094FBF0F800FB1840C2B293
:10429000642094FBF0F0C3B2374610E005F10C0047
:1042A00000F0FF0C601E4FF0640890FBF8F908FB6B
:1042B0001900C2B2601E90FBF8F0C3B237460CF191
:1042C00001094FF01A0A09FB0AF94FF00A0A99FB93
:1042D000FAF94FEAE27A02EB9A7A02EBAA0A4FEA7B
:1042E000E37B03EB9B7B0AEBAB0A4FF0020B0BFB70
:1042F00013AAD144B944A9F101090FFA89F109B906
:10430000072111E000290ADA48424FF0070890FB24
:10431000F8F908FB1900C0F1070001B204E007201A
:1043200091FBF0F800FB181111B90720BDE8F08FE0
:10433000C8B2FBE71CB501A90020FDF78FFC694658
:104340000020FDF7B1FC9DF8070000F5FA600A496E
:1043500008809DF8050088709DF80600C8709DF8DB
:104360000400C8719DF8000008719DF801004871B3
:104370009DF8020088711CBD0C010020F8B50446B0
:104380000D461646A4F5FA60632800DC00E0102014
:10439000C0B28DF80300012D03DB0C2D01DC284693
:1043A00000E001208DF80100012E03DB1F2E01DC4F
:1043B000304600E001208DF802009DF802209DF8B3
:1043C00001109DF80300FFF755FF8DF800006946C6
:1043D0000020FDF705FDF8BDF8B506460C4615466C
:1043E000172E01DC304600E008208DF800003B2C41
:1043F00001DC204600E000208DF801003B2D01DCAF
:10440000284600E000208DF8020069460020FDF7F4
:1044100043FDF8BD1CB504464FF4FA600423044A7A
:104420005115CDE90004034800F006F81CBD00005A
:1044300000040140000802402DE9F04F8BB0824695
:104440008B4614461D46DDE9146900200290B9F13F
:10445000000F02D0B9F1640F15D100212046FEF7FC
:104460002BFA59465046FFF7EBFAB9F1000F01D08D
:10447000012000E00020024659465046FDF700F8B2
:104480000BB0BDE8F08F2B46224659465046FFF749
:10449000F1FA664884420BD06548844208D06548EA
:1044A000844205D06448844202D06448844207D1E3
:1044B0002046FFF71BFC01210190FDF78BFA06E077
:1044C0002046FFF713FC01210190FDF773FA5748CE
:1044D00084420BD05648844208D05648844205D0C6
:1044E0005548844202D05548844203D15448D0F8FC
:1044F000008003E0524800684FEA5008642E0AD258
:1045000042F20F700290401CB8FBF0F0B0FBF6F0E6
:10451000401E87B213E040F6B830864209D26320CD
:1045200002906420B8FBF0F0B0FBF6F0401E87B2BA
:1045300005E000200290B8FBF6F0401E87B2099714
:104540000298ADF820000020ADF82800ADF8220058
:104550003648844202D03648844202D100208DF889
:104560002A0008A92046FEF719FB03A8FEF70BFB5B
:104570006020ADF80C000120ADF80E0009FB07F03B
:104580006421B0FBF1F005900220ADF81800274837
:10459000844202D02648844209D10420ADF810009C
:1045A0000020ADF81A00ADF81C00ADF81E00012D7A
:1045B00008D103A92046FEF79BF908212046FEF703
:1045C000D5F91FE0022D08D103A92046FEF7D8F93E
:1045D00008212046FEF726FA14E0032D08D103A98E
:1045E0002046FEF72DFA08212046FEF779FA09E069
:1045F000042D07D103A92046FEF77CFA08212046A6
:10460000FEF7B4FA01212046FEF74AF901212046BF
:10461000FEF752F90548844202D00548844203D18E
:1046200001212046FEF754F900BF29E700000140B0
:1046300000040140004001400044014000480140A6
:10464000000000202DE9F04F8BB082468B461446C7
:104650001D46DDE9146900200290B9F1000F02D077
:10466000B9F1640F15D100212046FEF725F959460E
:104670005046FFF7E5F9B9F1000F01D1012000E044
:104680000020024659465046FCF7FAFE0BB0BDE842
:10469000F08F2B46224659465046FFF7EBF9664805
:1046A00084420BD06548844208D06548844205D0D6
:1046B0006448844202D06448844207D12046FFF710
:1046C00015FB01210190FDF785F906E02046FFF773
:1046D0000DFB01210190FDF76DF9574884420BD085
:1046E0005648844208D05648844205D055488442F2
:1046F00002D05548844203D15448D0F8008003E0EA
:10470000524800684FEA5008642E0AD242F20F70F5
:104710000290401CB8FBF0F0B0FBF6F0401E87B2F0
:1047200013E040F6B830864209D26320029064203C
:10473000B8FBF0F0B0FBF6F0401E87B205E00020B9
:104740000290B8FBF6F0401E87B209970298ADF8C8
:1047500020000020ADF82800ADF822003648844241
:1047600002D03648844202D100208DF82A0008A9E0
:104770002046FEF713FA03A8FEF705FA6020ADF80D
:104780000C000120ADF80E0009FB07F06421B0FB1E
:10479000F1F005900220ADF818002748844202D0BD
:1047A0002648844209D10420ADF810000020ADF85D
:1047B0001A00ADF81C00ADF81E00012D08D103A9A8
:1047C0002046FEF795F808212046FEF7CFF81FE0B7
:1047D000022D08D103A92046FEF7D2F80821204671
:1047E000FEF720F914E0032D08D103A92046FEF7B7
:1047F00027F908212046FEF773F909E0042D07D1B7
:1048000003A92046FEF776F908212046FEF7AEF907
:1048100001212046FEF744F801212046FEF74CF81E
:104820000548844202D00548844203D10121204634
:10483000FEF74EF800BF29E70000014000040140E8
:1048400000400140004401400048014000000020B9
:104850002DE9F0410025002700240120B949087006
:1048600004F050FD07460821B748FCF705FE082173
:10487000B548FCF7FFFD0821B348FCF7FDFD00BF7C
:1048800027E005EB4500B14901EBC0060821AE4821
:10489000FCF7F0FD3220FFF72FF90821AA48FCF7BA
:1048A000EBFD0421A848FCF7DCFD30B10120A84055
:1048B000844300203074B76006E00120A840204304
:1048C00084B20120307477603220FFF715F9681C3C
:1048D000C5B20A2DD5DB002C60D100209C49088090
:1048E0009C480088002858D09A480088402808D062
:1048F000802818D0B0F5807F27D0B0F5007F48D150
:1049000035E09248D0F89810D0F89400081A40F694
:10491000B831884203D20320FFF79CFC02E0042058
:10492000FFF798FC35E08948D0F8B010D0F8AC001B
:10493000081A40F6B831884203D20520FFF78AFCF6
:1049400002E00620FFF786FC23E08048D0F8C8107C
:10495000D0F8C400081A40F6B831884203D20720C4
:10496000FFF778FC02E00820FFF774FC11E07748BD
:10497000D0F8E010D0F8DC00081A40F6B8318842D0
:1049800003D20920FFF766FC02E00A20FFF762FC71
:1049900000BF00BF00206F490880CDE0002C53DD30
:1049A000402C51DA6A480088012801D1022C1DD020
:1049B00067480088022801D1042C17D06448008879
:1049C000042801D1082C11D061480088082801D1A1
:1049D000102C0BD05E480088102801D1202C05D067
:1049E0005B480088202805D1012C03D10120FFF766
:1049F00031FC26E056480088012801D1202C1DD02A
:104A000053480088022801D1012C17D05048008853
:104A1000042801D1022C11D04D480088082801D16A
:104A2000042C0BD04A480088102801D1082C05D04E
:104A300047480088202804D1102C02D10220FFF71B
:104A400009FC4348048077E04248008810B9414897
:104A5000048071E03F480088402801D1802C05D0B7
:104A60003C48008880282BD1402C29D13748D0F8E9
:104A7000B010D0F8AC00814209D93448D0F8B01059
:104A8000D0F8AC00081A40F6B831884210D32F484D
:104A9000D0F89810D0F8940081420DD92B48D0F866
:104AA0009810D0F89400081A40F6B831884203D222
:104AB0000D20FFF7CFFB3CE00E20FFF7CBFB38E0EB
:104AC00024480088B0F5807F02D1B4F5007F07D07C
:104AD00020480088B0F5007F2BD1B4F5807F28D125
:104AE0001A48D0F8E010D0F8DC00814209D9174804
:104AF000D0F8E010D0F8DC00081A40F6B83188424F
:104B000010D31248D0F8C810D0F8C40081420DD993
:104B10000E48D0F8C810D0F8C400081A40F6B831D2
:104B2000884203D20B20FFF795FB02E00C20FFF731
:104B300091FB00200749088021460020FDF79EFADE
:104B4000BDE8F08150020020000802408C7900206E
:104B50004C0200204E02002070B504460D46002095
:104B60002071401EE0622946204602F0C2FA08B1D8
:104B7000032070BD94F82E1294F82F0241EA002011
:104B80004AF65521884201D00220F2E794F86900E4
:104B9000010694F8680041EA004194F8670041EA90
:104BA000002094F86610084320F07F400D498842A9
:104BB00001D10020DDE794F88500010694F8840017
:104BC00041EA004194F8830041EA002094F8821001
:104BD000084320F07F400349884201D10020C8E704
:104BE0000120C6E746415400024600E0521C1078FE
:104BF00010B110788842F9D11078704770B502462C
:104C00000D46506A031D10684089B5FBF0F0166828
:104C1000B678B0FBF6F400BF02CB09B9002070BD36
:104C20008C4200D202E0641A1B1DF5E700BF186831
:104C30002044F4E70246891E5069801E884201D84C
:104C4000002070479378906A01FB0300F9E70000A9
:104C50002DE9F04705460C46207820F04000401E24
:104C600000EB800101EBC00600274FF0010800BFF8
:104C70001A48C05D205C1949C95D2144497840EA61
:104C80000129B8F1000F10D0484601F08FFD804691
:104C9000FF2E07D23146761C35F8110001F086FD53
:104CA000404508D00020BDE8F0874FF6FF708145F1
:104CB00001D00020F7E7781C07460D28D8D32078CC
:104CC00000F0400038B1B8F1000F04D035F81600FC
:104CD00008B10020E7E70120E5E70000C4960008DE
:104CE00070B505460E462846FBF7E0FC04460CB9B5
:104CF000002070BD31462046FEF779F8F9E72DE92E
:104D0000F04105460E4617462846FBF7CFFC044601
:104D10000CB9BDE8F081E06908B1E06980473A4626
:104D200031462046FEF7FAF800BFF2E713B5044615
:104D3000012201A92046FFF7E2FF1CBD2DE9F04743
:104D400004468946B9F1000F06D1E76817B16069DA
:104D5000B84215D8012713E04946204602F01CF856
:104D60000646022E02D20120BDE8F087701C08B969
:104D70003046F9E76069B04201D93046F4E74F4662
:104D80003D4600BF6D1C6069A84204D80225BD42A3
:104D900001D90020E8E72946204601F0FDFF06463C
:104DA00006B909E0701C08B1012E01D13046DBE7DD
:104DB000BD42E7D10020D7E700BF6FF0704229461F
:104DC000204602F021FD8046B8F1000F08D1B9F16C
:104DD000000F05D02A464946204602F015FD8046C0
:104DE000B8F1000F0BD1E5602069401C78B1206953
:104DF000401E2061607940F00100607107E0B8F169
:104E0000010F02D14FF0FF3000E001200546284697
:104E1000AAE700002DE9F34F83B0814604980068AB
:104E2000019002E00198401C0190019800782F2821
:104E3000F8D0019800785C28F4D0D9F81CA000259F
:104E40002F4600BF38467F1C01990C5C202C03DBE9
:104E50002F2C01D05C2C00D132E0FF2D03D3062093
:104E600005B0BDE8F08FE4B2812C13DBE0B2FE2880
:104E700010DC38467F1C01990E5C06EB042084B2DE
:104E8000402E01DB7E2E05DD802E01DBFE2E01DDB6
:104E90000620E5E70121204601F04AFC04460CB952
:104EA0000620DDE7802C06DA214671A0FFF79CFE84
:104EB00008B10620D4E728466D1C2AF81040C1E747
:104EC00000BF0198C11904980160202C01DA042068
:104ED00000E00020804608E0681E3AF81040202CD0
:104EE00002D02E2C00D002E06D1E002DF4D100BFA8
:104EF0000DB90620B4E700202AF815000B22202166
:104F0000D9F8180002F0EBF8002700E07F1C3AF80F
:104F100017002028FAD03AF817002E28F6D00FB143
:104F200048F0030800E06D1E25B1681E3AF8100035
:104F30002E28F8D10020064602904FF0080B00BF43
:104F400038467F1C3AF8104004B963E0202C03D0A7
:104F50002E2C04D1AF4202D048F00308F0E70298AB
:104F6000584501D2AF4214D1BBF10B0F02D148F02A
:104F700003084FE0AF4201D048F00308AF4200D928
:104F800048E02F46082002904FF00B0BB006060EAB
:104F9000D6E7802C09DB204601F008FC00210090B8
:104FA00001F0C6FB044648F00208FF2C11DDABF10E
:104FB00001000299884204D848F00308CDF808B0EF
:104FC000BEE72212D9F818300298411C02911A54F7
:104FD00019E024B1214629A0FFF706FE18B15F248D
:104FE00048F003080FE0412C04DB5A2C02DC46F0A9
:104FF000020608E0612C06DB7A2C04DC46F0010690
:10500000A4F1200084B2D9F818300298411C029112
:105010001C5495E700BFD9F818000078E52803D1A3
:105020000520D9F818100870BBF1080F01D1B0069F
:10503000060E06F00C000C2803D006F0030003282F
:1050400001D148F0020808F0020058B906F0030048
:10505000012801D148F0100806F00C00042801D105
:1050600048F00808D9F8180080F80B800020F7E60F
:10507000222A3A3C3E3F7C7F000000002B2C3B3D27
:105080005B5D00002DE9F04104460E4600212046FC
:1050900000F065FA0546EDB9002700BF21692068D8
:1050A00002F027F8054605B113E060690078E528AD
:1050B00002D06069007820B9781C0746B04201D15F
:1050C00007E000270121204600F07FF80546002D6B
:1050D000E4D000BF042D00D107252846BDE8F081AB
:1050E0002DE9F04704460021204600F038FA074633
:1050F00017B13846BDE8F0874FF0FF09CA464FF6B2
:10510000FF70208400BF2169206801F0F2FF07468C
:1051100007B157E065692E780EB9042752E0E87AA6
:1051200000F03F08E52E05D008F0080040B1B8F1C6
:105130000F0F05D04FF0FF094FF6FF7020843AE0C3
:10514000B8F10F0F1CD1E06978B306F0400030B120
:1051500095F80DA026F04006B146E08820844E4523
:105160000AD1687B504507D12946E069FFF770FDF9
:1051700010B1A9F1010000E0FF2000F0FF091AE0E2
:10518000B9F1000F05D1284603F098F8504500D139
:1051900018E0A069C07A00F0010038B90B22284657
:1051A000A16901F07CFF08B90CE004E04FF0FF09B1
:1051B0004FF6FF7020840021204600F006F80746D5
:1051C000002FA0D000BF384694E72DE9F0410446F7
:1051D0008846E088461CB0B208B1206910B90420A6
:1051E000BDE8F08121684889C11700EBD161491100
:1051F000B6FBF1F201FB1261002972D12069401C5B
:105200002061E06828B920680089B04269D804208C
:10521000E6E721684889C11700EBD1614911B6FB67
:10522000F1F122689278521E1140002959D1E168AB
:10523000206801F0B1FD0546012D01D80220CFE71D
:10524000681C08B90120CBE720684069A84242D811
:10525000B8F1000F01D10420C2E7E1682068FFF730
:105260006DFD05460DB90720BAE7012D01D10220D9
:10527000B6E7681C08B90120B2E7206803F092F88D
:1052800008B10120ACE721684A8901F13000002112
:1052900001F025FF29462068FFF7CCFC2168C86291
:1052A00000270EE0012021680871206803F07AF8D9
:1052B00008B1012094E72068C06A401C2168C862D8
:1052C0007F1C20688078B842ECD82068C06AC01B78
:1052D0002168C86200BFE56029462068FFF7AAFC84
:1052E0002061E68021684889C11700EBD16149112E
:1052F000B6FBF1F201FB12612268303202EB411180
:10530000616100206CE72DE9F05F04468A464FF0AA
:10531000FF09CB4604274EE02169206801F0E9FE31
:10532000074607B14AE0666935780DB9042745E0BC
:10533000F07A00F03F08E52D09D02E2D07D0B8F106
:10534000080F01D1012000E00020504502D04FF0AD
:10535000FF0929E0B8F10F0F1AD105F0400030B174
:1053600096F80DB025F04005A946E08820844D450B
:105370000AD1707B584507D13146E06901F0D2FE71
:1053800010B1A9F1010000E0FF2000F0FF090BE0DF
:10539000B9F1000F04D1304602F090FF584502D019
:1053A0004FF6FF70208409E000212046FFF70DFF33
:1053B000074607B102E020690028ADD100BF0FB158
:1053C000002020613846BDE8F09F2DE9FE4F0446DD
:1053D000D4F81880D4F81C900C224146684601F09D
:1053E00071FE00BF9DF80B0000F0010020B300200B
:1053F00088F80B00E06101260CE033464A46694616
:10540000404601F065FC2046FFF76AFE054605B1FF
:1054100002E0761C642EF0D300BF642E02D1072078
:10542000BDE8FE8F042D01D02846F9E79DF80B005A
:1054300088F80B00C4F81C909DF80B0000F00200E7
:1054400060B1002600E0761C39F816000028FAD179
:1054500006F119000D21B0FBF1F700E001273946F4
:105460002046FFF70FFE054645BB781E071E25D0D8
:10547000E088C11B204600F072F80546F5B9A06926
:1054800002F01CFF824600BF2169206801F031FE56
:10549000054605B111E0FAB253466169E06901F0D1
:1054A00085FB01202168087100212046FFF78DFE51
:1054B000054615B9781E071EE6D100BFC5B921699A
:1054C000206801F016FE054695B92022002160698A
:1054D00001F005FE0B22D4E9050101F0F3FDA069FE
:1054E000C07A00F018006169087301202168087112
:1054F000284695E770B50446E688208C4FF6FF7283
:10550000904201D1304600E0208C0146204600F058
:1055100026F805460DBB00BF2169206801F0E9FDB2
:10552000054605B115E020220021606901F0D7FD94
:10553000E52061690870012021680871E088B042A7
:1055400000D306E000212046FFF73FFE0546002D70
:10555000E2D000BF042D00D10225284670BD2DE900
:10556000F04104460E46E680A568012D03D0206870
:105570004069A84202D80220BDE8F0812DB9206818
:105580000078032801D12068456A45B92068008960
:10559000B04201D80220EFE72068476A24E0216882
:1055A0004889C11700EBD16149112268927801FB4B
:1055B00002F812E02946206801F0EEFB0546681C5F
:1055C00008B90120D8E7022D03D320684069A8421A
:1055D00001D80220D0E7A6EB08064645EAD22946C4
:1055E0002068FFF727FB0746E5600FB90220C3E7F5
:1055F00021684889C11700EBD1614911B6FBF1F16F
:105600003944216121684889C11700EBD1614911F2
:10561000B6FBF1F201FB12612268303202EB41115C
:1056200061610020A8E710B5044614B9FCF70AFE32
:1056300010BD0120FCE770B504460D46164624B99E
:1056400031462846FCF71AFE70BD0420FCE72DE920
:10565000F04104460D4616461F4634B93A463146D7
:105660002846FCF725FEBDE8F0810420FBE770B575
:10567000044624B9FCF727FE0546284670BD0120E4
:10568000FCE72DE9F04104460D4616461F4634B9A5
:105690003A4631462846FCF718FEBDE8F081042062
:1056A000FBE700002DE9F04107463E4656B900BF32
:1056B000102080F31188BFF34F8FBFF36F8F00BFAF
:1056C00000BFFEE713480068864201D100241EE0B7
:1056D00002F034FF756902F05BFF0F4800688542F5
:1056E00003D00E480068854201D102240FE00C4827
:1056F000854205D1B06A08B9032408E0022406E017
:105700000848854200D00DB9042400E00124204659
:10571000BDE8F08124000020280000202C0000209B
:105720000C030020F802002070B50546284600F062
:105730003FFE044634B9284603F0ADFB04460CB9DD
:1057400000202860204670BD2DE9F1478DB001F0A2
:10575000BDFB064601220DA904A801F043F8054649
:10576000002D6FD101A80A9050480B9004A80D9904
:1057700001F05CFA054605B9082500BF042DF0D1FB
:1057800000210498FFF7DAFA0746002507B9072534
:10579000012F00D10225781C00B901251DB90498FC
:1057A00002F000FE0546002D5BD139460498FFF754
:1057B00041FA8146049800F130040498428900219E
:1057C000204601F08CFC0B222021204601F087FCB2
:1057D0002E2020701020E072A675310AE175310C80
:1057E0002176310E61763946204602F05FFD202297
:1057F000214604F1200001F065FC2E2084F82100F0
:10580000DDF818A004980078032804D10498406AB1
:10581000504500D1AA46514604F1200002F046FD51
:10582000049890F8028018E00498C0F82C9009F1D0
:105830000109012004990871049802F0B3FD05469E
:105840000DB10DE02DE0049842890021204601F0C1
:1058500046FCA8F1010000F0FF08B8F1000FE3D109
:1058600000BF1DB904A8FFF7B0FD054625B13946B4
:10587000049802F039F914E0099C1020E072A67532
:10588000310AE175310C2176310E617639462046B8
:1058900002F00CFD012004990871049802F01EFD2D
:1058A000054628460EB0BDE8F087000020470020DE
:1058B0002DE9F74F90B0924610A801F0ADFB0F9084
:1058C0000F98002803DA0B2013B0BDE8F08F119871
:1058D000012801DD1320F7E7AAF1010000EA0A0020
:1058E00008B11320F0E7F8490F9851F820500DB98E
:1058F0000C20E9E7002028700F98C0B20C9000201F
:105900000B900C98FFF78FFE0190019800F00100BA
:1059100008B10320D8E7019800F0040008B10A207C
:10592000D2E705F10A0202210C98FFF784FE38B98C
:105930006889B0F5805F03DC6889B0F5007F01DA23
:105940000120C1E700BF04AA01210C98FFF773FEF4
:1059500010B90498802801D20120B5E7119808B148
:10596000002000E03F2081460498A0EB090004904D
:10597000BAF1000F1AD16889C11700EBD151491251
:105980004FF4FA6292FBF1F1049AB2FBF1F10A9141
:105990004FF0000B01E00BF1010BCC4830F81B106D
:1059A0000A988142F7D8CA4830F81BA06889BAFB28
:1059B000F0FABAF1000F01D14FF0010ABAF1800FED
:1059C00001D94FF0800A0498B0FBFAF8012640F69E
:1059D000F670804500D302264FF6F670804500D35E
:1059E0000326032E0CD1082000EB880069890844A7
:1059F000401EB0FBF1F7202003900020029019E038
:105A0000012E05D108EB4800401C4008C01C02E0F4
:105A10004FEA4800001D074668893844401E6989DE
:105A2000B0FBF1F70120039068894FF48041B1FB8E
:105A3000F0F0029003984844079007983844069085
:105A4000029906980844059005985044A0EB090077
:105A50000499884201D90E2036E709AA03210C983F
:105A6000FFF7E9FD28B9099818B10998B0F5004F7A
:105A700001D901200990099905980844401E491E42
:105A80008843099009990598081A0990032E08D1AE
:105A900009990398084403900999079808440790C6
:105AA00001E009980744DDE90301081AC11B0298C7
:105AB000081AB0FBFAF8022E03D140F6F6708045C2
:105AC00005D3032E05D14FF6F670804501D20E2086
:105AD000FAE6032E02D10C200D9010E0012E06D123
