:020000040800F2
:100000002070012031020008FD670008114F000830
:100010009D6700085D0600089D8200080000000042
:10002000000000000000000000000000990100082E
:100030009907000800000000DD010008397A000877
:100040004B0200084B0200084B0200084B0200085C
:100050004B0200084B0200084B020008750800081C
:100060004B020008B50800084B0200084B020008CC
:100070004B0200084B0200084B0200084B0200082C
:100080004B0200084B0200084B0200084B0200081C
:100090004B0200084B0200084B020008DD08000874
:1000A0004B0200084B0200084B0200084B020008FC
:1000B0004B0200084B0200084B0200084B020008EC
:1000C0004B0200084B0200084B0200084B020008DC
:1000D0004B020008018000084B0200084B02000898
:1000E000150800084B0200084B0200084B020008EC
:1000F0004B0200084B0200084B0200084B020008AC
:100100004B0200084B0200084B0200084B0200089B
:100110004B0200084B0200084B0200084B0200088B
:100120004B0200084B0200084B0200084B0200087B
:100130004B0200084B0200084B0200084B0200086B
:100140004B0200084B0200084B0200084B0200085B
:100150004B0200084B0200084B0200081580000803
:100160004B0200084B0200084B0200084B0200083B
:100170004B0200084B0200084B0200084B0200082B
:100180004B020008DFF80CD000F014F900480047DB
:100190009139010820700120224B19680868B0E8E5
:1001A000F00F80F30988BFF36F8F4FF0000080F3EA
:1001B00011884EF00D0E70470000000006480068E0
:1001C000006880F3088862B661B6BFF34F8FBFF353
:1001D0006F8F00DF00BF00BF08ED00E0EFF3098084
:1001E000BFF36F8F0F4B1A6820E9F00F106008B54E
:1001F0004FF0100080F31188BFF34F8FBFF36F8F64
:1002000015F09AFA4FF0000080F31188BDE808401D
:1002100019680868B0E8F00F80F30988BFF36F8FA2
:10022000704700BF24000020EFF3058070470000F6
:100230000648804706480047FEE7FEE7FEE7FEE780
:10024000FEE7FEE7FEE7FEE7FEE7FEE7657A000869
:100250008501000810B5431A934209D28318881803
:1002600003E010F8011D03F8011D521EF9D210BD64
:1002700040EA01039B0703D009E008C9121F08C028
:10028000042AFAD203E011F8013B00F8013B521EA8
:10029000F9D210BDD2B201E000F8012B491EFBD209
:1002A00070470022F6E710B513460A460446194681
:1002B000FFF7F0FF204610BD10B5044604E00B78B0
:1002C00000F8013B03B1491C521EF8D2204610BD74
:1002D000421C10F8011B0029FBD1801A704730B571
:1002E00004460020034600E05B1C934203D2E05C1E
:1002F000CD5C401BF8D030BD10B5044600E0401C7A
:100300000378002BFBD100E0401C521E04D311F8EF
:10031000013B0370002BF7D100210170204610BD76
:10032000034611F8012B00F8012B002AF9D11846D9
:10033000704730B505460020034600E05B1C934241
:1003400005D2EC5CC85C201A01D1002CF6D130BD7E
:100350002DE9F05F0546002092469B4688460646FA
:10036000814640241BE0284641464746224600F08D
:1003700042F853465A46C01A914110D311461846C6
:10038000224600F029F82D1A67EB01084F46224655
:100390000120002100F020F817EB00094E41201E3B
:1003A000A4F10104DFDC484631462A464346BDE855
:1003B000F09F0000064C074D06E0E06840F00103A6
:1003C00094E8070098471034AC42F6D3FFF7DEFEFE
:1003D0004032030860320308202A04DB203A00FA86
:1003E00002F1002070479140C2F1200320FA03F38C
:1003F000194390407047202A04DB203A21FA02F08A
:100400000021704721FA02F3D040C2F1200291404E
:1004100008431946704770B58C1810F8015B15F049
:10042000070301D110F8013B2A1106D110F8012B66
:1004300003E010F8016B01F8016B5B1EF9D12B078B
:1004400005D40023521E0DD401F8013BFAE710F841
:10045000013BCB1A921C03E013F8015B01F8015B2E
:10046000521EF9D5A142D8D3002070BD0029816861
:1004700002D041F0010101E021F0010181607047EB
:10048000084B10B5D3F8042307490A40D0E90014FB
:100490002143D0E90240044321431143C3F804132C
:1004A00010BD000000200140E030FCFF0029816801
:1004B00002D041F4807101E021F4807181607047C5
:1004C0000029816802D041F4007101E021F400713B
:1004D0008160704730B542680F4B0C791A400B6849
:1004E00042EA04221343436082680C4B4D791A4060
:1004F000D1E9034323438C6844EA4504234313436F
:100500008360C26A097D22F47002491EC9B242EAC0
:100510000151C16230BD0000FFFEFFFCFDF7FFC0CE
:1005200070B5072609290AD9C568A1F10A0404EBA8
:100530004404A640B543A3401D43C56007E00569D8
:1005400001EB4104A640B543A3401D4305611F23B1
:10055000072A09D2446B521E02EB820293409C434D
:1005600091400C43446370BD0D2A09D2046BD21F25
:1005700002EB820293409C4391400C43046370BDA4
:10058000C46A0D3A02EB820293409C4391400C43B3
:10059000C46270BD816841F0804181607047000095
:1005A00006490028D1F8040302D040F4000001E01D
:1005B00020F40000C1F8040370470000002001404F
:1005C0002DE9FC41002503244FF480662B4632467A
:1005D00012A11348CDE9004515F03AFE0420114957
:1005E000C701CDE9000100233A460FA1124815F0DA
:1005F0002FFE0023324611A11348CDE9004515F026
:1006000027FE08480023001DCDE900403A460FA10F
:10061000114815F01DFEBDE8FC810000434C490067
:10062000A5510108D0000020765461736B557365A5
:10063000724B657949460000B957010876546173D9
:100640006B47554900000000095301087654617357
:100650006B5374617274000029560108FEE70000B4
:1006600030B587B00021059102910391049100916A
:1006700003460A46019112210F4801F07BFD044612
:1006800008F0F8FE0D49204608F0B3FD204608F0BA
:10069000D2F9054608F0EEFE0949284608F0A9FD02
:1006A000084908601D20029002A9284608F072FD42
:1006B00007B0204630BD0000C0790108F9070108E5
:1006C000AD080108BC02002030B587B000210591BB
:1006D000029103910491009103460A46019103217E
:1006E0000F4801F047FD044608F0C4FE0D492046BE
:1006F00008F07FFD204608F09EF9054608F0BAFE96
:100700000949284608F075FD084948601D200290F7
:1007100002A9284608F03EFD07B0204630BD000083
:1007200014AC020819080108810C0108C00200205D
:100730000029016802D041F0010101E021F001012E
:100740000160704730B50368124ACC6813400A68EC
:100750002243D1E905452C432243CC6922430C6A4C
:1007600022434C6A22438C6A22434C6B22438C6B9B
:1007700022431A430260426922F00703D1E90B24A5
:1007800022431A4342610A6942604A68826089686A
:10079000C16030BD3F801CF0704700007CB5002078
:1007A000194D009040F22771284607F04DFC174C78
:1007B00001280BD16A4601A9A06915F0ABFC0128FC
:1007C00004D19DF80410284607F0D0FC40F22551D2
:1007D000284607F039FC01280AD1284607F0C2FC58
:1007E0008DF8040000236A4601A9606915F0E6FB54
:1007F0000098002807D006494FF080500860BFF3EA
:100800004F8FBFF36F8F7CBD00100140D0000020E0
:1008100004ED00E070B54FF40065284600F084F860
:10082000134C30B1206820F400602060284600F0AE
:1008300075F84FF40055284600F076F830B120687E
:1008400020F400502060284600F068F84FF400457E
:10085000284600F069F8002808D0206820F40040FD
:1008600020602846BDE8704000F058B870BD000018
:10087000003C014008B5022000F056F8002813D0D3
:100880000020009009486946C06815F0F5FB009803
:1008900038B107494FF080500860BFF34F8FBFF366
:1008A0006F8F022000F03AF808BD0000D000002051
:1008B00004ED00E010B5082000F036F8002809D05B
:1008C0000548016821F008010160BDE810400820DA
:1008D00000F024B810BD0000003C014070B580203D
:1008E00000F022F80C4C30B1206820F0800020602D
:1008F000802000F013F84FF48075284600F014F8BB
:10090000002808D0206820F4807020602846BDE8C8
:10091000704000F003B870BD003C01400149086020
:1009200070470000143C0140064A0146002012684E
:10093000044B0A4014331B680B4202D0002A00D03B
:1009400001207047003C014030B51A4A83790168A4
:1009500053B313688B431360111D0B680468A343E2
:100960000B60017911440B68046823430B60114B41
:10097000083319680468A14319601C1D21680568C3
:10098000A94321604179102905D011440A68006803
:1009900002430A6030BD196802681143196021687A
:1009A00000680143216030BD0079104402688A4329
:1009B000026030BD003C01402DE9F047044640682C
:1009C0008EB00027804601F04FF90090B0F87CA06F
:1009D000D0F86890D0F88060D0F88850C06D00B131
:1009E0000768684601F0AAF905E06968204688476B
:1009F000002843D12D68002DF7D12068172853D047
:100A00000CDC0F283DD004DC0B2877D00D2825D135
:100A10008BE0112810D0142820D13BE0262846D0A6
:100A200004DC1E2851D0202818D18AE02A2816D0AC
:100A3000B0F5107F12D128E04046E56801F014F9C6
:100A40000290697A39B9297A012904D130F87C1FDA
:100A500041F48071018002A801F070F975E0404610
:100A600001F002F90090E16811B1C0F8841002E0D1
:100A7000D0F88400E060684601F060F90EB0BDE88F
:100A8000F087D7B34046B8475FE0214640460EF0B6
:100A9000C3FAF3E705A9404600F023FBE068069996
:100AA000016007994160E9E7C4F80C90E6E7E06867
:100AB0000228E3D1CDF83080E0680D9027200A901D
:100AC0000AA9A06809F0CCF9D8E7E068012804D0A9
:100AD0000021404600F0BBFAD0E7304608F061FA4A
:100AE00068B1304608F040FC304608F02BF998B168
:100AF0000121304607F080FC0EE026E02FE048465A
:100B000008F086FC0646404601F0AEF80090C0F8BA
:100B10008060684601F012F90121404600F097FA22
:100B2000002EABD10020E060A8E75FEA0A700CD489
:100B3000E068C06848B1007A38B1404608F014FC5B
:100B400003E0214640460EF023F82146404607F0D8
:100B5000BFFB002892D0204607F02CFE8EE74046CF
:100B600001F082F80090703000F0D8FF684673E71B
:100B7000F0B587B0B0F908400DF10C0C0C9E8769F8
:100B800045688CE8F000448A0025CDE90015029400
:100B9000B0F90C10B0F91050B0F90E40B0F90A00DD
:100BA000194410442B46224600F002F807B0F0BD6D
:100BB0002DE9F04F8BB09846DDE9155691468A46EF
:100BC0008346149F1A9C02F009F83348603445F4B8
:100BD0008055CDE90204CDE9007543464A465146A9
:100BE000584607F02FFD04004FD001F03DF83022A9
:100BF0000490179907F078FC04982822274934308C
:100C0000FFF728FB04981999244F4166A0F87C60EF
:100C10000026C0F88060C666083FC0F88860796822
:100C2000C16504A801F08AF805A9204600F059FA28
:100C30001B4841F2827103960094CDE90110BDF981
:100C40001E00BDF91A10BDF91C20431ABDF9180089
:100C50005B1C121A521C07F0F5FC064678684168C6
:100C600020468847204600F0FFFF0490866604A8CF
:100C700001F064F842F20400054202D1204607F078
:100C800047FE2046189900F009FA03F0E5F80BB08A
:100C90002046BDE8F08F0000B9090008B00300202D
:100CA0009B1200082DE9F041044694B0006800F062
:100CB000B7F908B1D94D01E0D84D2C356068152839
:100CC0001ED00CDC0B281FD004DC00287ED00528A9
:100CD0007DD12FE10E287BD01228F9D141E11628D1
:100CE00006D0172808D0182808D01C28F0D109E011
:100CF000E86914B0BDE8F081286AFAE7686AF8E7A5
:100D0000A86AF6E76869F4E720680B901C200C904D
:100D1000206800F0A9FF0390016D0BA888470646E4
:100D200003A801F00BF8022E0FDB95E807008DE811
:100D30000700D4E904023346A16903F09BFC206953
:100D40008719A069A0EB06082CE0286802F093FD43
:100D50002169E8690A18521E606901F0C7FCA2699E
:100D6000E869111A491C606901F0C0FCD4E9040764
:100D70007F1C394601F0E6FC3946A06901F0E2FC2F
:100D8000686802F078FD20693946401C01F0DAFC01
:100D9000A0693946401E01F0D5FCA0692769A0F181
:100DA0000208BF1C286802F066FD424639466069A9
:100DB00001F09CFC686802F05EFD606942463946BD
:100DC000401C01F093FC686A022802E015E1B0E0E3
:100DD00000E10BDDA86802F04EFD61696A6A881CBB
:100DE0008B180146424638465B1E27E0296AB1420D
:100DF00026DD6069022E074600F1020801DB374458
:100E000001E007F10207206901DB304401E000F155
:100E1000020022693B460A444146A2F1010201F068
:100E200061FD022E02DBA069821B01E0A269921E15
:100E3000A069E9693B46401A4146401C01F052FD59
:100E4000022E02DB6069064401E06669B61CE769B0
:100E500028687F1E02F00FFD3A463146206901F0F6
:100E6000F7FC3A463146A06901F0F2FCE769686890
:100E7000BF1E02F000FD20693A463146401C01F0D9
:100E8000E7FCA0693A463146401E01F0E1FCE86902
:100E9000022802DC286A022823DDA86A022802DD73
:100EA000E1690F1A01E0E769BF1EA86802F0E3FCE0
:100EB000E969022909DD20693B46421800F1020C6C
:100EC00031466046521E01F00DFD286A022808DDF9
:100ED000A269E8693B46101A3146401C921E01F097
:100EE00001FD286802F0C7FCD4E90620216901F061
:100EF000FDFB686802F0BFFCD4E906202169401EB2
:100F0000491C521E01F0F2FBA86A022811DDA169FA
:100F10002669E469A1F10208271AA41EB61C7F1CE9
:100F2000A86802F0A8FC234642463946304601F044
:100F3000D9FC71E0208A00B2ADF81400A18A09B290
:100F4000ADF81610228B12B2ADF81820A38B1BB28D
:100F5000ADF81A302C69ED68CDE9005401F08AFB38
:100F60005AE0208A298B0844ADF81400A08AADF815
:100F70001600208B298B401AADF81800A08BADF815
:100F80001A00206800F070FE0390006FF0B102209C
:100F900002F0E4FC039890F87C10C1F3C00100EB70
:100FA0008100006C02F067FC0398406B02F07AFC51
:100FB0000398006F00F058FE03990990B1F95A2088
:100FC00005A901F035FA09A800F0B8FE03A800F061
:100FD000B5FE21E0208AADF81400A08AADF8160015
:100FE000208BADF81800A08BADF81A00A86802F0AD
:100FF00042FC05A801F0A2FC0EE0206800F034FEDF
:10100000039030F85A1F41F00C01018003A800F052
:1010100095FE206808F02EFA00206AE638050020C8
:1010200038B505004FF000040FD001F0D7FD284679
:1010300000F01AFE009090F87C00000700D5012413
:10104000684600F07BFE02F007FF204638BD70B511
:101050000D46040009D001F0C1FD294620460EF0DE
:101060006FFCBDE8704002F0F7BE70BD022803D2ED
:10107000024A02EB8000416070470000B00300208C
:101080000149086070470000B0030020024AB2F92D
:101090002610D08408467047B00300207CB50D466A
:1010A00004001DD001F09AFD204600F0DDFD009007
:1010B000006F0190684600F041FE294601A803F048
:1010C00037FE58B1204600F0CFFD0090019901672E
:1010D000684600F033FE204607F008FF02F0BCFE31
:1010E0007CBD2DE9F34F85B000270C46B846059826
:1010F00000F0BAFD0090C06D0121856805982A684E
:10110000904782462A6803210598904704902A68F0
:1011100002210598904703902A680021059890477E
:101120000646009808F08CFB8346009808F08FFB79
:101130008146009890F83210890601D5B0F95880A0
:1011400000F036F805460098C06E10B107F0D2FDE9
:10115000074625806780A4F804A0049AABEB020040
:1011600006EB0802401E2A4420813A44E280039B99
:10117000A9EB0302521E6281A4F80CA02082701910
:10118000E681401E6082684600F0D8FDB4F90C008C
:101190000190B4F91000029002AA01A9059800F08C
:1011A00039F80198A0810298208207B0BDE8F08F3D
:1011B00010B50146002091F83220920607D5B1F90A
:1011C0005400002803D1486B01F02DFC801C10BD99
:1011D00070B58AB00C46054600F046FD0990C06D1A
:1011E000866809A800F0AAFD009534B1012C06D04C
:1011F000022C0BD0032C04D10AE0182000E01620AA
:1012000001907168684688470AB070BD1520F7E7FD
:101210001720F5E72DE9FC4117468846044600F003
:1012200023FD0090C16D056868468E6800F086FD5C
:1012300032680021204690470646204607F023FCEE
:1012400027E000BF00F010FD0190B0F900102AB2B5
:10125000B0F90430891A9A1AB0F90230A3EB254389
:10126000B34210D190F82800000605D538688842AE
:1012700009DB491E396006E0D8F80000904202DC24
:10128000521CC8F8002001A800F058FD204607F0C5
:101290009FFC0400D6D1BDE8FC812DE9F043044653
:1012A000406889B0054607F0A0FC814600F0DCFCF0
:1012B0000290D0F84880D0F88070466E02A800F006
:1012C0003DFD2068172853D008DC0E283AD00F289F
:1012D00011D014284CD015283DD149E01E281ED02D
:1012E0001F282AD0222840D0312834D10020E060A5
:1012F00009B0BDE8F0836FF070414046884503D0E7
:1013000004F094FF00F0F4FE002EF1D0D4E90212B4
:101310002068CDE90405CDE9061204A81FE0E068C5
:101320000028E5D02FB1AF4203D0384608F01CF8B2
:10133000DEE7284608F06CF8DAE72146484606F072
:10134000C7FFD5E7E0684168002904DD0068092887
:10135000EFD00A2805D05EB12046C4F80490B0470B
:10136000C6E7284608F063F8C2E7C4F80C80BFE778
:10137000204607F01FFABBE700487047806700204F
:1013800030B500231D46136019E0401C0478C4B139
:10139000202CFAD110F8014F9CB1202CFAD05B1C04
:1013A0008B420CD105461168491C116010F8011FD1
:1013B00009B12029F7D1106818B9002501E08B4246
:1013C000E4D3284630BD00002DE9F0472F4E0546F6
:1013D000914670688A4601244FF00008A0BB06F1D0
:1013E0000C0010E0006807683846FEF771FF0246FF
:1013F000A85C202800D020B939462846FEF799FF7E
:1014000028B17068406870600028EBD134E0D6F8ED
:1014100004C0DCF8000090F90C70002F10DB0020F5
:101420002A46014603E0202B18D00021521C1378D5
:10143000002BF8D109B1401E40B2B84200D00024C0
:10144000BCF1000F18D07CB170682A46494600688C
:1014500083685046984704000BD013E00029E5D17B
:10146000401C40B20121E1E74A4609495046FEF7D7
:1014700023FFC6F8048005E04A4606495046FEF7B9
:101480001BFF00242046BDE8F0870000A0000020DC
:10149000282A0308802A030870B5050011D0082007
:1014A00013F06CF8040014D013F08EFD0020C4E992
:1014B00000500C4801684C60046013F0A5FD012049
:1014C00070BD102080F31188BFF34F8FBFF36F8F73
:1014D000FEE7102080F31188BFF34F8FBFF36F8FAB
:1014E000FEE70000A000002038B5020A813AC3B22E
:1014F000C2EB421404EB8212C0B200EB42007F2B1D
:1015000002D2A0F1400189B2802B01D9413881B2C9
:101510004FF6FF7000EA4100044902220144684688
:1015200013F092FABDF8000038BD000000F0FD0194
:101530002DE9F0430446C56887B0904689460020EF
:1015400002F0A4F9064625B1287910B146F0020050
:1015500001E026F0020002F099F92069012558B156
:10156000D4E902128DE82600039563882288046876
:1015700041464846A0471EE0124F134B21463868AB
:101580001B68427CE068984730B9E088012801D0A8
:10159000002001E03868806BA288E388A16800958C
:1015A000CDE90410CDE902320195638822884146D5
:1015B000484604F0E7F907B03046BDE8F04302F0D2
:1015C00065B90000F0020020E802002010B50020FC
:1015D00002F046F96FF07F4002F04DF9012002F071
:1015E0009FF9002002F0AAF9002002F0B7F90020CC
:1015F00002F04CF90448006802F054F9BDE81040CC
:10160000002002F05FB90000EC020020F0B50022DB
:1016100001274FF0030C0B6807FA02F52B40AB4291
:101620002CD1066853000CFA03F4A64306600E7929
:10163000D0F800E09E4046EA0E0606600E79012EC4
:1016400001D0022E12D18668A64386604E79D0F86A
:1016500008E09E4046EA0E0686604668AE43466055
:1016600045688E799640B6B235434560C568A54356
:10167000C560CC799C40C3681C43C460521C102ACE
:10168000C9D3F0BD4B07DB0E9A40C90810B500EB7B
:101690008100016A0F249C40A1430162016A114349
:1016A000016210BD006980B27047024600201269D5
:1016B0000A4200D001207047418370470183704780
:1016C000416170470AB10183704741837047000050
:1016D0002DE9F04FDFF828B191B04FF0FF35DBF87E
:1016E0000030B3F922100691DE69B3F924A0F46941
:1016F000A189814206D8E289824203D3471AD4F8ED
:10170000008012E0D4E90181002970D00A88824269
:101710006DD84D8885426AD3801A82B2486800EB42
:101720008200B0F90070B0F90250781C5FD0307EB2
:10173000A27C014600FB02F9207CCDE90710B3F939
:101740002A60304604F0C2FDC0B20E90DBF80010F3
:1017500007FB0980A37C8A6B0127CDE90402CDE950
:101760000273C869089AC17E807ECDE90001DDE977
:101770000603514604F006F9681C18D046F0020032
:1017800004F0A4FDDBF80000A37C05FB0981826B5B
:10179000CDE90273CDE90412C069089AC17E807E4A
:1017A000CDE90001DDE90603514604F0EBF8DBF872
:1017B00000005D46C069417E007E814214D9022E40
:1017C00012D086F0040004F081FD2868C069027E12
:1017D000C37E857E02FB03A1437E089A069853448C
:1017E00002FB050204F060FA0E9804F06FFDDBF8CE
:1017F0000000627C418C1144418411B0BDE8F08F3F
:10180000F002002004480068C069C06909B1027C88
:101810000A60407C70470000F0020020022008802F
:101820007047C06982898A4202D8C2898A4210D22E
:10183000806880B102888A420DD843888B420AD3DF
:10184000406800EB8100A0EB8200B0F900000028A6
:1018500001DB012070470020704700002DE9F043B4
:101860002F4C034687B020681946B0F92A80C0691A
:10187000C06900F082F800284ED041680088181A2C
:1018800001EBC0054046AE7804F020FD814620689B
:101890006A680123816BCDE90236CDE90421C16973
:1018A000CB7E8A7ECDE900230B7EB0F924102A7806
:1018B000B0F9220004F066F82068C069477E067E11
:1018C000B7421DD9C07E47434643B8F1020F17D037
:1018D00001F07FF8804601F045F801F0CCFF216867
:1018E0002A78CB69B1F92200B1F92410DB7E02FB22
:1018F0000302CB19314404F0D7F9404601F0BBFF95
:10190000484604F0E3FC20686A78C369B0F9221005
:101910009B7E02FB0311418407B0BDE8F083000009
:10192000F002002030B50E4C05460B4620682946D3
:10193000C069C06900F021F8002810D04168008813
:1019400024682A1A0120E46900EBC200085CA47E26
:101950006043002B03D011F832106143196030BD91
:10196000F002002001200880704700B5C06900F037
:1019700004F8002800D0012000BD06E002888A4259
:1019800002D842888A4202D280680028F6D1704785
:1019900070B50025124C19E020691249C5EB0516F7
:1019A00000EBC60070220968001DFEF753FC206999
:1019B000002140F8361000EBC60000F10C018161F7
:1019C000011D0A1DC0E90F126D1C4164A06885420B
:1019D000E2DB01F003F9BDE8704002F03DBA00001F
:1019E000C8040020F002002070B50F490D480860BF
:1019F000084603F095F90C4C143CA068C0EB0010AD
:101A0000C500284600F098F82A460021206103F01E
:101A100000FA4FF0FF30206002F054FABDE8704049
:101A20000CF0CEBBE5EC0008DC040020F8B50C009F
:101A300005460FD001F0D2F8204600F017F8060056
:101A400010D000F011F9224600902DB12946FEF782
:101A500001FC04E00020F8BD002103F0DAF968463B
:101A600000F06CF902F0F8F93046F8BD10B504004A
:101A700009D001F0B3F8204608F02CFB044602F030
:101A8000EBF9204610BD002010BD38B5054601F029
:101A9000A5F82846FFF7EAFF040009D000F0E4F8B3
:101AA0002A460021009003F0B4F9684600F046F998
:101AB00002F0D2F9204638BD024A106021F003003E
:101AC00050607047945E012010B5040016D001F0FC
:101AD00085F80B48406B10F8341059B1022909D22F
:101AE000042101EBC4014158486808F063FA20461C
:101AF0000DF024FEBDE8104002F0AEB910BD0000AC
:101B0000D45D0120002805D0034AD16B016001B1EA
:101B10004860D06370470000D45D012010B50446D2
:101B200001F05CF82068FFF7CFFF00202060BDE8DF
:101B3000104002F091B900002DE9F04104460CF08C
:101B400059FD2848E41C24F00305016C2D1DA94211
:101B500000D90D46C46B13E054F8042CAA420ED1F0
:101B600084B1216809B162684A60616809B122687C
:101B70000A60C26BA24231D12168C1632EE02468A1
:101B8000002CE9D18046816BC0680F1857F8040C0F
:101B90003E1A306838B100200DF082FE57F8040C70
:101BA0003E1A3068D0B97068A84217DB3044441B35
:101BB0003046241D0DF02CFED8F80C10491BC8F837
:101BC0000C10D8F814102944C8F814107068401B81
:101BD00002D0314608F0EEF944F8045C2046BDE836
:101BE000F0810000D45D012010B500240CF002FD4E
:101BF0000C490F2001EBC002526C1AB101EBC0007E
:101C0000406C08E0401EF5D508E04168A14200D9CB
:101C10000C46806810B180680028F6D1A4F10C0051
:101C200010BD0000D45D0120034800680C38002876
:101C300000DC002070470000D45D0120002138B195
:101C40000449042202EBC000496B085841680C3972
:101C500008467047D45D012002488169491C8161B2
:101C600070470000D45D01200549CA69521CCA6151
:101C7000496B01EBC0010A78521C0A7000F076B87B
:101C8000D45D01207CB506460C460846FFF7EEFE03
:101C9000050020D0FEB13046FFF7D0FFA04200DAA9
:101CA000044600F09BFF2846FFF7DEFF0090304619
:101CB000FFF7DAFF0146019022460098FEF7CAFAC4
:101CC000684600F03BF801A800F038F83046FFF70E
:101CD000FBFE02F0C1F828467CBD000010B500F004
:101CE0007DFFFFF781FF64220849B0F5800F04D91A
:101CF00090FBF2F4086A444303E0096A4143B1FBF4
:101D0000F2F402F0A9F8204610BD0000D45D0120D5
:101D10000549102805D94A68B0EB520F02D3500884
:101D200000E0102088607047945E012002488169BD
:101D3000491E816170470000D45D01200A49026894
:101D40004B6B52F8082C03EBC2021378022B03D31F
:101D5000CB690BB15B1ECB611178491E117000215C
:101D60000160084670470000D45D0120002806D0BD
:101D70000349042202EBC000496B08580830704741
:101D8000D45D01202DE9FC414FF000060B465FEACF
:101D9000000834462BD032B111461846FFF746FEF4
:101DA000060000D101244046FFF75EFF009007883F
:101DB00045686846FFF7C2FFCCB9B9002846091D3F
:101DC000FFF760FF050015D0FFF74EFF019040F8C8
:101DD000276001A8FFF7B2FF4046FFF745FF0090DC
:101DE00045600188491C01806846FFF7A7FF20462F
:101DF000BDE8FC813046FFF767FE0124F7E70820C5
:101E0000FFF743BE7CB5050023D0FFF72DFF009000
:101E10004068C0B1FFF728FF0024019005E0019859
:101E200000EB8400FFF77AFE641C00980088A04253
:101E3000F5DC01A8FFF782FF0098001DFFF76EFE9A
:101E40000099002008806846FFF778FF2846FFF7D2
:101E50003BFE7CBD38B5002430B1FFF705FF009094
:101E600004886846FFF76AFF204638BD38B50D463E
:101E7000002448B1FFF7F8FE2946009000F018F85A
:101E800004466846FFF75AFF204638BD38B50D4670
:101E900001880024A94209D9406838B1FFF7E4FE5F
:101EA000009050F825406846FFF748FF204638BDAF
:101EB00010B50024FFF7EAFF10B1FFF7D5FE044686
:101EC000204610BD08B513460A46009069460248F0
:101ED00000F004F808BD00006F1F00083EB514466E
:101EE000029100906A461946204608F07FFC3EBDEC
:101EF00008B569460090024800F004F808BD0000EB
:101F00006F1F00081FB50123039101906A461A2133
:101F100001A800F093F810B1012004B010BD0098A2
:101F200012300090684602F0B8FEF6E708B5694640
:101F30000090024800F004F808BD00006F1F000880
:101F40001FB50123039101906A461A2101A800F0F0
:101F500075F810B1012004B010BD00981630009043
:101F6000684602F09AFE0028F5DA4042F3E700687E
:101F700018440860104670472DE9F8431D46DDE916
:101F800008461746884601236A46362100F056F86F
:101F900098BB684602F077FE8146009810300090AA
:101FA000684602F07AFEC8F80000684602F075FE46
:101FB00038600098801C0090684602F064FE28801B
:101FC000684602F06AFE306000980C300090684667
:101FD00002F063FE2A884FF48071082A13D005DCD2
:101FE0005AB1012A0AD0042A1ED109E0102A1ED0B3
:101FF000182A1CD0202A17D119E015E0022200E08F
:102000001022226000E02160A0B1206088420BDC39
:10201000A9F59A41423907D1306868B101280BD03F
:10202000022809D0032807D00120BDE8F88300204A
:102030002060EDE72068E9E70020F6E72DE9F041B0
:1020400017460D4604460BB100206060D4E901300C
:102050000A4626683946B047A84202D00120BDE8AA
:10206000F0816068284460600020F8E7F8B50D460C
:10207000074600240E4E16E000236A460421384627
:10208000FFF7DCFF08B10120F8BD00980278417825
:102090008378100440EA0120184303F065FC31689E
:1020A00041F82400641CAC42E6DB0020F8BD0000CF
:1020B0001005002010B5C2B2CBB2D21A00D55242E0
:1020C00093B25B43C0F30722C1F30724121B00D570
:1020D0005242000C92B2A0EB114002FB023200B25D
:1020E000002801DA404200B280B200FB002010BD9F
:1020F00010B50021084600F0ABFC43F6FF725042D9
:10210000BDE8104013460146AFF300802DE9FC41C5
:102110001C4615460E46074600F060FD042004F0FC
:10212000D5F880461248C068C16C006D0F44064463
:102130000D440444ADF80070ADF80450ADF80260F1
:10214000ADF80640684607F089FB07E023462A46BB
:102150003146384603F0A8FD07F034FB0028F5D1DE
:10216000404604F0B3F801F077FEBDE8FC810000C2
:10217000E40200202DE9F8431C00DDE9089816462A
:102180000F46054602D106F061FC044600962E6813
:1021900043464A4621462846B047060039D006F055
:1021A0004AFC8146698A304606F026F9304607F037
:1021B000D3F9484607F0D0F94FF000080CE000BF13
:1021C000CDF8008055F81CCF00231A464946284612
:1021D000E04700B307F0C0F97F1E002FF0DC1D219F
:1021E000484606F0E6FF601C12D000F0F7FC06F04F
:1021F00067FC30B1FFF7BAFD8469B44201D020001A
:10220000F8D1B44202D0304607F002F901F024FEC2
:102210003046BDE8F883304606F004FB0020F8E7BE
:102220002DE9F0411C4616460D460746022B02DBFF
:102230000020BDE8F0811C20FFF77EFC0028F8D0CC
:102240000DB105610AE0094A52F8241009B905E008
:1022500011460A68002AFBD10969016184618682FE
:10226000002101604160C0E90217E2E70803002095
:1022700070B51D46FFF7D4FF040009D000F00EF83A
:10228000E068006820B90348006800EB85008465B9
:10229000204670BDF0020020FFF734BC70B590B34B
:1022A0008269022A30DA1E4C54F8221019B944F817
:1022B000220032E019464B68002BFBD106E0CB68C8
:1022C000C5681B682D68AB4203DD09680029F6D19B
:1022D0001AE0C1B1CB68C6681B683668B3420CD13E
:1022E000838A012B05D008E01946DB681B68AB42E6
:1022F00003DB0B68002BF7D129B14B6833B11860B1
:102300004A68426004E0FFE7012070BD44F8220003
:102310004860884200D100210160002070BD0000AB
:102320000803002010B503E00468FFF7B7FF20465C
:102330000028F9D110BD0DF073BD00002DE9F0416A
:102340000026DFF834800D4F354600BF58F8254091
:1023500009E0E0680068385C20B120460DF060FDBF
:10236000266026462468002CF3D16D1C022DEDDB7F
:102370003046BDE8F08100000803002090AC020860
:10238000022801DB00207047054A52F8200004E0D3
:10239000C26812688A42F6D000680028F8D17047F7
:1023A00008030020022801DB00207047054951F88E
:1023B000200004E0C16809680029F6D00068002800
:1023C000F8D17047080300202DE9F041044601F0E0
:1023D00076FD06191EE000BF00F062FA052F00DD51
:1023E000052700F0FBFB11480568FFF735FC2C00C2
:1023F00017D000BF01F030FD641EFBD1384601F05C
:1024000059FD1DB100F0EAFB6D1EFBD1FFF78EFCFC
:1024100001F022FD01F053FD371A002FDCDCBDE88E
:10242000F081384601F046FDF0E70000D4040020BA
:1024300047F6FF73AFF300802DE9FC411F4690463D
:102440000D4606004FF000041AD000F0C7FB65B13E
:10245000284607F071F8040007D00246294668466E
:1024600002F025FB684607F067F83B4642462946DE
:10247000304601F067FF204607F05EF801F0ECFC03
:10248000BDE8FC812DE9FF4F87B0904689460700E3
:102490007DD000F0A3FBD9F80040D9F8045021B258
:1024A00028B2401A401C029000F0A0FA064618F02C
:1024B0000C0F1ED038460A9A029901F0D7FC08F09A
:1024C0000C01042904D0082902D00C2911D104E000
:1024D000291400FB1610401C09E02114C1EB254211
:1024E00000FB1620401C00EBD07001EB600060F395
:1024F0001F44484607F020F85FEA000B09D0024667
:10250000494604A8CDE9044502F0D1FA04A807F031
:1025100013F8A6F1010A38460A9A029902F048FC1B
:1025200003900AEB244060F31F45CDE9004538468F
:10253000039902F033FA18F003010ED001292CD0D0
:1025400002290ED1B9F90420B9F90010521A101A53
:1025500000EBD07001EB600001E0B9F80000ADF8CD
:1025600000006A463846039901F094FE38460A9AFC
:10257000029902F013FC074406EB244060F31F4469
:1025800038780028C7D1584606F0D6FF00E001E0B1
:1025900001F062FC0BB0BDE8F08FB9F80410081A26
:1025A000401CDCE77CB514460D46064600F016FBE1
:1025B00011480068C16C006D0D4404443188681EE8
:1025C0000844ADF80400ADF800507188601E08445E
:1025D000ADF80600ADF80240684607F03FF906E0A6
:1025E000224629463046FEF7A3FF07F0EBF8002805
:1025F000F6D101F031FC7CBDF00200202DE9F04F56
:1026000087B09B46DDE9109892460C46054600F0DF
:10261000E5FA16480168C86C096D47190E1900EBF8
:102620000A0501EB0B04ADF81070ADF81450ADF8CD
:102630001260ADF8164004A807F010F988B1DFF871
:1026400030B04FF0000ACDE90098CDE902BA2B4630
:102650002246394630460AF07FFA07F0B3F80028E0
:10266000F1D101F0F9FB07B0BDE8F08FF0020020D6
:10267000495C00082DE9F04F87B09B46DDE91098D2
:1026800092460C46054600F0A9FA16480168C86C47
:10269000096D47190E1900EB0A0501EB0B04ADF8A3
:1026A0001070ADF81450ADF81260ADF8164004A8E3
:1026B00007F0D4F888B1DFF830B04FF0010ACDE967
:1026C0000098CDE902BA23462A46314638460AF038
:1026D00043FA07F077F80028F1D101F0BDFB07B00D
:1026E000BDE8F08FF0020020895B00082DE9FC4175
:1026F00014460D46064600F071FA114F3968C86C51
:10270000096D054404440E44ADF80050ADF8044092
:10271000ADF80260ADF80660684607F09FF808E083
:10272000386822463146406E03682846984707F0CD
:1027300049F80028F4D101F08FFBBDE8FC810000CE
:10274000F00200207CB50C46064600F047FA0F4D1B
:102750002868C16C006D0E440444ADF80460ADF807
:102760000060ADF80640ADF80240684607F076F824
:1027700007E028682146406E42683046904707F0DF
:1027800021F80028F5D101F067FB7CBDF0020020A4
:102790002DE9FC411C4616460D46074600F01EFA80
:1027A0001A480168087ECA6C096D17440D440C4430
:1027B000401E391A1644ADF800103118ADF8041057
:1027C000291A2044ADF80600ADF80210684607F05B
:1027D00045F815E032462946384603F0D5F9324629
:1027E0002146384603F0D0F9621E691C384603F0D2
:1027F0002BFA621E691C304603F026FA06F0E2FF4F
:102800000028E7D101F028FBBDE8FC81F0020020A0
:1028100070B58EB015460E46044600F0DFF921462D
:1028200006A802F04CFABDF81A30642B0CD1002037
:1028300000900AAB01AA214606A801F00DFD2A4628
:10284000314601A8FFF7AEFE01F006FB0EB070BDE9
:102850007CB514460D46064600F0C0F90F480068E6
:10286000C16C006D0E4405440444ADF80060ADF841
:102870000460ADF80250ADF80640684606F0EEFF81
:1028800006E022462946304603F0DEF906F09AFFBC
:102890000028F6D101F0E0FA7CBD0000F002002033
:1028A00010B5002400E0012400F004F80028FAD15B
:1028B000204610BD094810B50068002410B18047BB
:1028C00000B1012406F036F800B101240448006884
:1028D00010B1804700B10124204610BD1403002030
:1028E000100300202DE9FC411C4615460E46074604
:1028F00000F074F910480068C16C006D0F44064484
:102900000D440444ADF80070ADF80450ADF8026019
:10291000ADF80640684606F0A1FF07E023462A46C8
:102920003146384603F0C0F906F04CFF0028F5D1D7
:1029300001F092FABDE8FC81F0020020B0F9063007
:10294000B0F90420B0F90210B0F90000FFF7CABFD7
:10295000034951F82000C1688A6A08211047000025
:102960000803002010B500F039F903F0D3F903F0A3
:102970006BFA044601F070FA204610BD10B504460B
:1029800000F02CF9054800210068C0694268204623
:102990009047044601F060FA204610BDF002002086
:1029A00070B50C46054600F019F906482146006846
:1029B000C069426828469047044601F04DFA204617
:1029C00070BD0000F0020020002801D006F010B811
:1029D000704710B500F002F903F0A4F903F034FADF
:1029E000044601F039FA204610BD000010B500F091
:1029F000F5F804480068C069447E01F02DFA2046CD
:102A000010BD0000F002002070B50C46054600F035
:102A1000E5F82146284602F007F8BDE8704001F0CD
:102A20001BBA01F04CBA017EC07E484370470000DB
:102A3000024951F82000006900687047080300202F
:102A4000024951F8200000694068704708030020DF
:102A500070B50D46044600F0C1F820460BF02AFC84
:102A6000044628460BF02EFC044301F0F5F92046FD
:102A700070BD0000134810B5016821F0010101602C
:102A800011480121816011490160006810498842A4
:102A900000D0FEE701F010FB0E492E20087001F077
:102AA00010FA0D480BF058FD10F058F804460021BC
:102AB000084600F015FF06F06FF9FEF769FF2046A3
:102AC00010BD0000002000E000300240C2A507F465
:102AD000CDB5E8B5E4020020F45E012010B5006831
:102AE0002A3807283AD2DFE800F00439392027399C
:102AF0002F00DA221A491BA00DF0EEFD1EA00DF0EA
:102B0000EBFD214C207848B100202070E06806F0F1
:102B100029F9A068BDE8104006F01EBD0120207014
:102B2000A06806F01FF9E068F4E7F2220C490DA056
:102B30000DF0D2FD15A00DE0F522094909A00DF018
:102B4000CBFD19A00DF0C8FDF722054905A00DF039
:102B5000C3FD1BA0BDE810400DF0BEBD10BD0000C0
:102B6000686901085B44454255475D5B25733A201F
:102B700025645D20000000004755495F4B45595FC3
:102B80004D656E75200D0A00A40200204755495F6F
:102B90004B45595F506C617950617573655F4C6F3F
:102BA0006E67200D0A0000004755495F4B45595F8D
:102BB000446972656374696F6E5F5570200D0A0019
:102BC0004755495F4B45595F446972656374696F46
:102BD0006E5F446F776E200D0A00000070B5184CD0
:102BE000E06820B101F069F96168884204D001F021
:102BF00093F901F062F96060E068401CE060012830
:102C00001CD10BF0DDFA05462068854216D000285D
:102C100013DBFFF793FB01462068C0EB001220692D
:102C200000EBC2025167C5EB0511064A00EBC1007B
:102C3000011D1160406FFFF775FB256070BD00003E
:102C4000C8040020F00200201CB5040004D10E4886
:102C50000068046E002C16D0FFF7C0FF2046FFF777
:102C600003F8009044696846FFF768F84CB12046C5
:102C7000FEF7FAFF019081688968884701A8FFF78D
:102C80005DF801F0E9F81CBDF002002001490A4698
:102C900000F002B801F0FFFF2DE9F04387B01546C0
:102CA0000C465FEA000846D0FFF798FF002000F0CE
:102CB000EDFD814621480068066E4046FEF7D4FFD0
:102CC00000900068806900F069FD074640F6FF70DB
:102CD000C44204D10098B0F90440B0F906500098FD
:102CE000611E0289ADF804401144ADF80810418915
:102CF000681E0844ADF80650ADF80A0005F00CFC5B
:102D00006846FFF71BF801A806F0A8FD06E02A4672
:102D10002146404600F0E6FB06F054FD0028F6D1BF
:102D2000384600F03BFD304600F0E8F9484600F038
:102D3000ADFD01F091F807B0BDE8F083F00200208E
:102D400038B50024009400F001F838BD2DE9FE4F9D
:102D5000984691468A46834600270C9EFFF73EFF21
:102D6000174818490068407C51F82040E16809681C
:102D7000042903D02468002CF8D100E014B9FFF72F
:102D800011FB04460121E068C26A20469047050015
:102D900011D02469A0688047401C02D10A4C46F03B
:102DA00001060096CDE9015443464A46514658462D
:102DB00000F038FA074601F04FF83846BDE8FE8FBC
:102DC000F0020020080300203CF602082DE9FE4F27
:102DD0009846DDE90D650C9F91468A46834600249E
:102DE0006DB1FFF7FBFE0097CDE9016543464A460A
:102DF0005146584600F016FA044601F02DF82046D8
:102E0000BDE8FE8F38B504001CD0FFF7E7FE0E4882
:102E10000068006EA04201D100F0B2FC2046FEF72F
:102E200023FF0090406908B100F0FFFF00980068A0
:102E3000FFF732FA6846FEF781FF2046FEF744FEB0
:102E400001F00AF838BD0000F00200202DE9FF4F24
:102E50000746464883B099460068DDF840B08A4688
:102E6000447C434800570128204606DD02F0AEFFAF
:102E70008046204602F0B6FF05E002F08FFF804654
:102E8000204602F091FF044617B302A901A8FFF7FC
:102E9000BBFDB7F90060002E00DA0026B7F902503A
:102EA000002D00DA00250199B7F904004144491EBC
:102EB0000BF020FD804602980119B7F90600491E63
:102EC0000BF018FDA8EB0602441B521C641C02E028
:102ED000002635464246B9F1000F01D1C4F1000980
:102EE000002A01DD002C03DC002007B0BDE8F08FD4
:102EF0004B4629463046CDF800B0FFF727FF5FEA82
:102F0000000909D000F0B4F88046484600F0F6F811
:102F10000027DFF860B01FE0514605988847012080
:102F2000E3E7E11B414502DA484600F0CBF83FB148
:102F3000EA193146484600F009F94846FFF784FE91
:102F4000514605988847DBF8001009B100208847F2
:102F50004846FFF79BFE4744A742E2DB4846FFF79F
:102F600051FF002000F0CAF8BEE70000F002002088
:102F7000280300201C05002038B505004FF0000490
:102F800011D0FFF72BFE2846FEF76EFE009000687A
:102F900000698068804703F041FB04466846FEF7FD
:102FA000CDFE00F059FF204638BD38B504000ED0E4
:102FB000FFF714FE2046FEF757FE00F118040090BC
:102FC0006846FEF7BBFE00F047FF204638BD0020F4
:102FD00038BD000038B504460025FFF7FFFD1CB9D9
:102FE00008480068046E44B12046FEF73DFE00909C
:102FF000B0F904506846FEF7A1FE00F02DFF284608
:1030000038BD0000F002002038B504460025FFF767
:10301000E5FD1CB908480068046E44B12046FEF77F
:1030200023FE0090B0F908506846FEF787FE00F0D6
:1030300013FF284638BD0000F002002038B50446D2
:103040000025FFF7CBFD1CB908480068046E44B1A9
:103050002046FEF709FE0090B0F906506846FEF7DC
:103060006DFE00F0F9FE284638BD0000F002002099
:1030700038B504460025FFF7B1FD1CB908480068C3
:10308000046E44B12046FEF7EFFD0090B0F90A50FF
:103090006846FEF753FE00F0DFFE284638BD00000C
:1030A000F002002070B505460024284607F098FA83
:1030B000641C18B1BDE8704000F07AB8052CF4DB50
:1030C00070BD000038B50C46050004D10A48006800
:1030D000056E002D0FD0FFF781FD2846FEF7C4FDD9
:1030E0000090B0F90A10A14200DD44816846FEF765
:1030F00025FE00F0B1FE38BDF0020020F8B505460F
:10310000FFF76CFD104E3068046ECDB10CB100F0CD
:1031100037FB05F03FFB2846FEF7A6FD009031681F
:103120000D660068FFF7BAF86846FEF707FE03F081
:1031300023F903F0A5F800BF00F08EFE2046F8BD8D
:1031400000F01EFBF8E70000F00200207CB51546F9
:103150000E46040004D115480068046E002C24D0EB
:10316000FFF73CFD2046FEF77FFD2DB20090C580A5
:1031700034B2848003F084F80098406980B1FEF78F
:1031800073FD009A0190B2F908108180B2F90A200B
:10319000C28011B10AB10480458001A8FEF7CEFDBE
:1031A0006846FEF7CBFD00F057FE7CBDF002002024
:1031B00001490A4600F002B801F0FFFF7FB515464D
:1031C0000C4606002DD0FFF709FD3046FEF74CFDFA
:1031D00040F6FF710190CC4203D1B0F90440B0F940
:1031E00006500289611E1144ADF80840ADF80C107C
:1031F0004189681E0844ADF80E00ADF80A5001A8D8
:10320000FEF79CFD02A806F029FB06E02A462146AF
:10321000304600F04FF906F0D5FA0028F6D100F05C
:103220001BFE7FBD2DE9FF4FDFF8E8B083B01C46E1
:10323000DBF80010DDE9106092464FF000084B7C8F
:1032400042461299FEF7ECFF050060D028698068BD
:10325000804703F0E3F981460AFB09F1C91DCF0855
:10326000FEF73CFDF10705D1C11700EB917080100E
:1032700000EB4000002C09DC1FB11838B0FBF7F060
:1032800000E000206442A04200DC0446F00707D1C1
:103290000090DDE903012346524600F04BFD8046D5
:1032A000002C03DC2846FEF7F7FF30E004FB07F0B4
:1032B0001830F10702D0FEF7D9FB01E0FEF7E5FB7D
:1032C00006001CD0FEF7D0FC0190056003998180B8
:1032D0000499C180A0F808A04481C0F81480C0E916
:1032E000037901A8FEF72AFD1298AE602861DBF889
:1032F0000000407CA861304607B0BDE8F08F28464A
:10330000FEF7CAFF5FEA080001D0FEF7DDFB0020F0
:10331000F2E70000F0020020014908607047000059
:103320001C0500202DE9F74F8EB0144689460E98F3
:10333000FEF79AFC0990B0F908B0B0F90A6000688D
:10334000006940680C9009A8FEF7F8FC564D574FED
:103350002868407C57F82000C1688A6A0821904795
:103360000790182801D3202007902868407C57F840
:1033700020000069069003C80B904D48814201D09F
:10338000012000E000200A90002000F0DFFD00286E
:103390007DD1286809EB0B01B0F90C20891A491E70
:1033A000002902DDABEB010500E05D46B0F9081035
:1033B000494505DDA1EB090189446D1A089101E039
:1033C00000210891002D6BDDB0F90E20A119891A9A
:1033D000491E002902DDA6EB010800E0B046B0F965
:1033E0000A00A04204DD061B3444A8EB060800E0F6
:1033F0000026B8F1000F53DD089801900DA95F4633
:10340000DDF830A00E980091FFF7CFFD774300EB79
:10341000870101982B4601EB800200994846CDE9CF
:1034200000A1214601F03EF80090002838D00A980B
:10343000E8B1DDE906322946009800F037FEB0B960
:103440000698009FDA46D0F810C0BCF1000F05D0F6
:1034500004235A4639463846E04708E00B99386855
:10346000884701C7AAF101005FEA000AF6D1009976
:103470000020079ACDE90301059001200090CDE9D5
:10348000010221460346641C2A46484600E007E044
:1034900002F078FAA8F10100761C5FEA0008ABD1CF
:1034A00011B0BDE8F08F0000F002002008030020FA
:1034B000675E0008F8B515460E460746FEF7D4FBD2
:1034C000009000681621C068426A002090470446B8
:1034D0006846FEF733FC002C03D02A4631463846B6
:1034E000A047F8BDF8B515460E460746FEF7BCFBEB
:1034F000009044696846FEF721FC3846FFF73CFD22
:103500000346082800DD2CB12A46314638460CF027
:10351000E5FCF8BD2A46314638460CF07FFEF8BD82
:1035200002480068407C00F003B80000F002002070
:10353000F8B51D49096809B1002200E002461B499F
:103540008D56012D2EDD1849143151F822305B1CA7
:1035500041F82230012B25D1A1F1080300261039B2
:1035600053F8224051F8221053F822707F1C43F880
:103570002270AF4201D143F8226053F822708F428B
:10358000F2D03D46FEF70EFF009000280AD0C0683A
:103590002121426A68469047030003D02A4621460B
:1035A00000989847F8BD000034030020280300204D
:1035B00002480068407C00F003B80000F0020020E0
:1035C00038B51449096809B1002200E002461249E1
:1035D000895601291CDD0F49143151F822305B1E38
:1035E00041F8223014D1083951F82240103141F805
:1035F0002240FEF7D7FE0090002809D0C0682221A3
:10360000426A68469047020002D0214600989047DF
:1036100038BD0000340300202803002010B5002826
:1036200021D009B30AB3B1F90040B2F900309C428D
:1036300000DA23460380B1F90240B2F902309C421D
:1036400000DA23464380B1F90440B2F904309C42C9
:1036500000DD23468380B1F90610B2F906209142BD
:1036600000DC1146C18010BD11460A68026049683D
:10367000416010BD00280BD003880B440380838871
:1036800019448180418811444180C1881144C1801E
:103690007047000070B50025FFF7A0FA094CD4E987
:1036A000002082420AD0D2E9005610460AF020FEDD
:1036B00020603146284605F097FC012500F0CCFB40
:1036C000284670BD580300202DE9FC41154DDDE969
:1036D00008742D68B5F90860864200DD3046B5F9FA
:1036E0000C60964200DA3246824219DBB5F90A6074
:1036F0008E4200DD3146B5F90E509D4200DA2B4670
:103700008B420DDB00E02C46E5682D6825B1042DC9
:1037100002D02568002DF6D1CDE9007402F094FCAA
:10372000BDE8FC81F0020020B0F90220B1F90630BA
:103730009A4213DCB1F90220B0F906309A420DDC4E
:10374000B0F90020B1F904309A4207DCB1F9001059
:10375000B0F90400814201DC01207047002070476D
:103760000146024870220068FCF774BDF002002098
:10377000024970220968FCF76DBD0000F0020020CC
:1037800010B5FFF72BFA02F02BFD02F0F5FD04F067
:10379000C3FEBDE8104000F05FBB000070B5094DEE
:1037A00004462868467CFFF719FA022C03D22868E1
:1037B0004474FFF7E5FF0448046000F04DFB304619
:1037C00070BD0000F00200203004002070B50C46EF
:1037D000054605F009FC002805D121462846BDE82C
:1037E000704000F0DBB870BD2DE9F041194E0500C6
:1037F00019493068194F407C51F820108C6917F82E
:10380000048003D00AF05CFE60B11FE00521FEF7E2
:10381000B7FD06001AD00020FFF77EFD3046FEF708
:103820008AFD12E030680521407CFEF7A9FD60B9F1
:10383000AFF24B00FFF770FD30680849407C18314B
:1038400051F8200008B1FEF729FD3D554046BDE87E
:10385000F0810000F002002008030020680300202F
:1038600010B50446FFF7BAF9204602F0DFFCBDE8C8
:10387000104000F0F1BA10B50446FFF7AFF920464A
:1038800002F00CFDBDE8104000F0E6BA10B50446A9
:10389000FFF7A4F9204602F019FD044600F0DCFA17
:1038A000204610BD70B50446FFF798F9044800683B
:1038B000C56904B1C46100F0CFFA284670BD0000AC
:1038C000F002002070B50546FFF788F9034800684C
:1038D000847E857600F0C0FA204670BDF00200209C
:1038E00070B50C460546FFF779F909482246058070
:1038F0000848048008480068417C084850F82100C6
:10390000C1680B6A29469847BDE8704000F0A4BA28
:103910003003002032030020F002002008030020C2
:1039200070B50546FFF75AF903480068047E05762E
:1039300000F092FA204670BDF002002070B50446F7
:10394000FFF74CF904480068B0F92C50848500F06A
:1039500083FA284670BD0000F002002070B50446CE
:10396000FFF73CF904480068B0F92A50448500F09C
:1039700073FA284670BD0000F0020020024800687B
:10398000002800D000477047F804002002498A68E8
:1039900002B98860FFF7F2BF580300207CB50A4CDB
:1039A0000546CDE900016068019A6E46C0E9005203
:1039B00021680AF08FFC6060E16809B130468847F1
:1039C000A560FFF7DBFF7CBD580300202DE9FC411B
:1039D000984616460D460746FFF700F91C20FEF7ED
:1039E00054F804002DD01C491A4808602046FEF700
:1039F0003BF9009015B9FFF714F8054600980760E9
:103A0000C0E90465A0F80C806846FEF797F92046E7
:103A10000AF084FE114DA86840B90120A86005F1A4
:103A20000C010F480860084601F07AF92046FEF7BD
:103A30001BF90190296849B181602C6001A8FEF74B
:103A40007DF900F009FA2046BDE8FC8100212C60D8
:103A50008160F3E78D3A000814030020E40400209D
:103A6000F9EC000810B504000ED0FFF7B7F82046B7
:103A70000BF0E8FE20460CF0ABF92046FEF724F8E8
:103A8000BDE8104000F0E8B910BD00002DE9F0419C
:103A900088B00025FFF7A2F8184C676825E000BF42
:103AA000FEF7BFFF06466068FEF7DEF80190416949
:103AB000891B002915DC6168029604910169039154
:103AC00046686660D0F8008001A8FEF737F902A8C2
:103AD0004146884766B160680125B84205D1002596
:103AE00006E001A8FEF72AF902E060680028D7D1B5
:103AF00000F0B2F908B02846BDE8F081E4040020E7
:103B000038B50C46050011D0FFF768F82846FEF7D7
:103B1000ABF800908089204201D0012400E000240D
:103B20006846FEF70BF900F097F900E00124204603
:103B300038BD38B5040017D0FFF750F82046FEF71F
:103B400093F80090FEF76DFF0146009882691144DA
:103B500041616846FEF7F2F820460CF039F920463C
:103B60000AF0DCFD00F078F938BD38B50C460500E8
:103B70000BD0FFF733F82846FEF776F80090846103
:103B80006846FEF7DBF800F067F938BD38B5054642
:103B9000002028600648046844B12046FEF764F817
:103BA0000090006928606846FEF7C8F8204638BDD6
:103BB000E404002038B504004FF000000D46086012
:103BC00011D02046FEF750F80090846844B1684652
:103BD000FEF7B4F82046FEF747F800900069286029
:103BE0006846FEF7ABF8204638BD000010B5FEF77A
:103BF000F5FF044902480860BDE8104000F02CB908
:103C0000E4AC0208F40200202DE9F041084E04461D
:103C1000056830680168284688470746306841686B
:103C200028468847284420603846BDE8F0810000D7
:103C3000F40200202DE9F0410C4606460025064F0F
:103C400005E0386841683046884706440544641EEC
:103C5000F7D22846BDE8F081F40200202DE9F041BA
:103C60001E46069C1746884605463A46A8687F1CAD
:103C70003346D0F804C041462846E047641EF4D1DC
:103C8000BDE8F08170B5B0F90040091BB0F90440FF
:103C90008C422CDD00F11404B0F902500069521B73
:103CA00002FB0040CA1800EBE104521ED010B0EB3A
:103CB000E10501F007034FF0FF0102F0070221FACE
:103CC00003F0C2F1070201FA02F1CEB221780FD05F
:103CD00001436D1E04F8011B002D05DDFF2229465E
:103CE0002046FCF7D7FA2C4420783043207070BD72
:103CF00030400143217070BD10B5B0F90030B0F90B
:103D00000240C91A00F114030069121B02FB0030C3
:103D100000EBE10001F0070302788021D9400A435B
:103D2000027010BDB0F90610026951431430FCF75F
:103D3000B8BA00002DE9F843804602F10F000011E7
:103D4000470003FB07F01C46154689461430FDF773
:103D50009CFE060018D0FEF741FF3046FDF784FFB9
:103D60000090A0F80080A0F802908580C4800749E8
:103D700081600121818107616846FDF7DFFF00F066
:103D80006BF83046BDE8F8830020FBE7BC29030848
:103D900070B5B0F90660B0F904400B6800F1140585
:103DA00096421BDD0069A34202FB005000EBE302D8
:103DB00014DA641EE010A0EBE30512F8010B03F027
:103DC0000704A040C4B206E045B1083312F8014B25
:103DD00023F007036D1E002CF6D004E0002070BD18
:103DE0006006040E5B1C2006FAD5FF2C07D018468F
:103DF00002E06406240E401C6606FAD400E0D81DDA
:103E0000C443640705D006E012F8014BFF2C09D12A
:103E100008306D1EF8D5C01A401C0B6070BD6206DC
:103E2000140E401C2206FAD4F5E738B50546FEF715
:103E3000D5FE2846FDF718FF00908189491E0CB277
:103E400084816846FDF77AFF14B92846FDF73CFEE9
:103E500000F002F838BD00000348C168491EC16087
:103E600001D100F069B87047C80400202DE9F04185
:103E700016460F4605460024FEF7B0FE3246394688
:103E8000284600F08BFF054408B1641CF6E7FFF7F5
:103E9000E3FF2046BDE8F08110B54FF4104104481F
:103EA000FDF70AFEBDE810408020FDF731BF00009D
:103EB000686D002011F002BA704712F0F5B912F0E7
:103EC00007BA704710B5012011F08EFE114C20602A
:103ED000B0B103220021012011F098FE606038B1DA
:103EE00000231A46194611F0B7FF606800280FD169
:103EF000102080F31188BFF34F8FBFF36F8FFEE761
:103F0000102080F31188BFF34F8FBFF36F8FFEE750
:103F100010BD0000C800002010B5064C206808B98C
:103F2000FFF7D0FF00232068BDE810405A1E194655
:103F300011F096BEC8000020034800231A46194617
:103F4000006811F089BF0000C80000200EB508B15C
:103F500002AA00E00022002301A9684600F0D0FC7C
:103F60000EBD0000074910B5CC6818B10120C8602B
:103F7000801E03E00020C8606FF07F4001F0ECFC81
:103F8000204610BD6803002010B5082A0EDC034649
:103F9000012A18D0022A56D0042A76D010F8042B11
:103FA00003F8012B491EF9D1012010BD102A08DCAD
:103FB0004FEA000230F8043B22F8023B491EF9D1D7
:103FC000F2E7002010BD10F8042BD207120E491E94
:103FD00034D010F8044B491E04F0010442EA841264
:103FE0002CD010F8044B491E04F0010442EA44129C
:103FF00024D010F8044B491E04F0010442EA0412D4
:104000001CD010F8044B491E04F0010442EAC4021B
:1040100014D010F8044B491E04F0010442EA840253
:104020000CD010F8044B491E04F0010442EA44028B
:1040300004D010F8044B04F00104224303F8012BD0
:104040000029C0D1B0E710F8042B9207120E491EC8
:1040500015D010F8044B491E04F0030442EA041280
:104060000DD010F8044B491E04F0030442EA840208
:1040700005D010F8044B04F003042243491E03F852
:10408000012B0029DFD18FE7FFE710F8042B12077F
:10409000120E491E05D010F8044B04F00F04224301
:1040A000491E03F8012B0029EFD17DE738B5002424
:1040B000009400F01DF838BD0B4810B58169002947
:1040C00010D101218161FFF7E7FEFDF78DFC02F0C1
:1040D00065F9054905481C310860BDE810400846EF
:1040E00000F01EBE10BD0000E402002025EC000818
:1040F0002DE9F0410D460699044601B901461F68B5
:10410000082A09DC0E46012A1AD0022A5BD0042AAA
:104110007DD0082A13D18DE0102A07DCD3F810C017
:104120000E46BCF1000F04D0022389E00020BDE858
:10413000F08101CCB84726F8020B6D1EF9D189E059
:1041400001CCB847C0074FEA10686D1E36D001CCCD
:10415000B84748EA801000F0FF086D1E2ED001CC51
:10416000B84748EA401000F0FF086D1E26D001CC89
:10417000B84748EA001000F0FF086D1E1ED001CCC1
:10418000B84748EAC00000F0FF086D1E16D001CC09
:10419000B84748EA800000F0FF086D1E0ED001CC41
:1041A000B84748EA400000F0FF086D1E06D001CC79
:1041B000B84740EA080000F0FF086D1E06F8018BC2
:1041C000002DBDD146E001CCB84780074FEA10680A
:1041D0006D1E16D001CCB84748EA001000F0FF0869
:1041E0006D1E0ED001CCB84748EA800000F0FF08F1
:1041F0006D1E06D001CCB84740EA080000F0FF0869
:104200006D1E06F8018B002DDDD123E0FFE701CC08
:10421000B84700074FEA10686D1E06D001CCB847BA
:1042200040EA080000F0FF086D1E06F8018B002D23
:10423000EDD10FE0D3F810C0BCF1000F04D0012382
:104240002A462046E04705E001CCB84706F8010BB6
:104250006D1EF9D101206AE730B54589039CD580F0
:1042600005899580858901EB85051035C2E90253E2
:1042700085881580C58855801461002B08D0827B05
:104280001A718089186008B1103100E0002199602E
:1042900030BD00007CB5064628480D46006868B170
:1042A000002005F0DBFA06E06A462946304606F0B3
:1042B00063FA05F087FA0028F6D17CBD10680090FB
:1042C0001F4C506801902268BDF8000032F84C1F66
:1042D0000844ADF80000BDF8020091880844ADF82C
:1042E0000200BDF8040011880844ADF80400BDF8D0
:1042F000060091880844ADF80600684605F0AEFA5D
:104300000EE000BF2068BDF800106A464184BDF889
:10431000021081842946304606F02EFA05F052FA42
:104320000028EFD1206830F8221F428D891A0180C1
:104330004188C28D891A41807CBD00002C03002079
:10434000F00200202DE9FF4F85B09A4690460D46B9
:10435000FEF74CFB4FF00009DDF814B006464C4662
:1043600025B1286800906868019002E06846FEF771
:104370002BFB18F00C0F02D05546002713E0BDF9B7
:1043800002402DE029467F1C059800F031FB0146D4
:104390006D1A0598FFF74EFC05990844059005A88D
:1043A00000F05CFB08B9002DECD108F00C000428EB
:1043B00004D0082802D00C2812D105E0BDF906006F
:1043C00007FB1604641C0BE0BDF90600BDF90210E2
:1043D000401A07FB1600401C00EBD07001EB600494
:1043E0005546CDF814B043E02946059800F000FB8F
:1043F00007460146ED1B059800F0D0FA18F00301BE
:104400000ED0012939D002290DD1BDF90410BDF912
:104410000020891A091A01EBD17102EB610101E058
:10442000BDF900108946174A401E484412683946B3
:10443000A2F822909484ADF80C00A019401EADF8AB
:104440000890ADF80E00ADF80A4002AA0598FFF7F3
:1044500021FF39460598FFF7EDFB059908440590C3
:10446000FEF7C4FA044405A800F0F8FA002801D1C8
:10447000002DB9D109B0BDE8F08FBDF90410091ABB
:10448000491CCFE7F002002049B1002802DAA0EB76
:10449000610001E000EB610090FBF1F0704700204B
:1044A000704700002DE9FF4F8DB00020DDF86CA0B3
:1044B000164600901D4604460246CAF8000008ABA6
:1044C00003A902A800F01CFA18B1002011B0BDE841
:1044D000F08F0898854200DD0546614F0B956149D4
:1044E0003868407C51F82010049109690691FEF764
:1044F0002FFA05903868407CFEF7A2FA5A498146A7
:10450000884204D05949894501D0012000E00020AB
:104510000A9001CE1A9988478346000E079077D0FB
:10452000009870BB0D9800EB04084D480068B0F986
:104530000800404503DDA0EB0807804600E00027A7
:104540000298049900EB840000EB8700CDE900019C
:104550000B990D98421809920E9B40461946521E1F
:10456000FFF7B2F801200090059818280ADA02989F
:10457000DDE9052300EB840000EB8700E91B00F078
:104580001DF912E00A9880B1029800EB840000EB5C
:1045900087070998A0EB080849463868884701C78B
:1045A000A8F101005FEA0008F6D13148C06980B384
:1045B000DDE9020700EB840007EB8402CDE902028B
:1045C0002B4C361F3046E4692B460299A047FF2149
:1045D0003068B1EB106F02D10298006804E0029AD3
:1045E0001268B1EB126F01D1039A1060029806F1C4
:1045F0000406001D02900398001D03906D1EE7D174
:104600000397DAF8000040F00101CAF8001020E03A
:1046100021E0FFE70798FF2811D0C0F1FF020298C0
:1046200050F82410584600F0D7FA039941F82400B6
:10463000DAF8000040F00101CAF8001005E0029825
:10464000039950F8240041F82400641C6D1E7FF487
:1046500060AF03983AE7039941F824B0E8E7000017
:10466000F002002008030020675E0008655E000875
:104670008C0400202DE9F04F85B09B46DDE90F87C3
:1046800092460C460546DDF83890FEF7A7FA154825
:104690000068C16C4E190D19016DABF1010001EB01
:1046A0000A04ADF810502044ADF80C60ADF81200CB
:1046B000ADF80E4003A805F0D1F80BE0CDF800905E
:1046C000CDE901875B4622462946304608F04BFC7F
:1046D00005F078F80028F1D1FFF7BEFB05B0BDE882
:1046E000F08F0000F0020020F0B500EB8103082AF3
:1046F0000ADC01254C1E092A10D2DFE802F00F1057
:10470000263E3E5555555500102A07DC00EB41006A
:10471000491E30F8022D43F8042DF9D1F0BD04F004
:104720000702C2F1070200EBE40005FA02F6047882
:104730003440D440521C43F8044DA0EBE20022F078
:1047400007042241491EF0D1F0BD04F0030200EB42
:10475000A400C2F1030203240578560004FA06F708
:104760003D40F540521C43F8045DA0EBA20022F04E
:1047700003052A41491EEFD1F0BD8D4300EB6400D3
:10478000C5F101020F240578960004FA06F73D40B2
:10479000F540521C43F8045DA0EB620022F00105D5
:1047A0002A41491EEFD1F0BD00EB0100491E10F86F
:1047B000012D43F8042DF9D1F0BD00002DE9F05F83
:1047C0000C1E16DD5E68014600EB8405082A12DC2B
:1047D000611E012A26D0022A47D0042A6AD0082A5C
:1047E00007D1071917F8010DB04745F8040D641EED
:1047F000F8D1BDE8F09F102AFBDC5F693FB122468B
:10480000BC46BDE8F04F02235DF804EB604701EBC6
:10481000440700BF37F8020DB04745F8040D641E89
:10482000F8D1E6E700EBE10001F0070710F801A975
:104830008146802020FA07F8B5F104050AEA08004D
:10484000C7F10701C840B04745F804093FB14FEA36
:1048500048604FEA10687F1E641EEFD1C9E719F85F
:1048600001A907274FF00108F6E700EBA10001F0CE
:10487000030710F801A981467900C02020FA01F849
:104880004FF0060BB5F104050AEA0800ABEB47014F
:10489000C840B04745F804093FB14FEA88604FEA85
:1048A00010687F1E641EEFD1A3E7032719F801A942
:1048B000B846F7E700EB6100012710F801A9A7430C
:1048C0008146B900F02020FA01F84FF0040B2D1FAB
:1048D0000AEA0800ABEB8701C840B04745F8040975
:1048E0003FB14FEA08704FEA10687F1E641EEFD197
:1048F0007FE719F801A901274FF00F08F6E700003C
:104900002DE9F047224C06461F46A069904689468D
:10491000002540B90120A06104F120011D48086074
:10492000084600F0FDF9606930B91B480068606115
:1049300010B901F036FA606107B138604EB1A06875
:1049400030B960698000FDF7F7F8A06000B9012573
:104950003060B9F1000F0AD0E06830B960698000BA
:10496000FDF7EAF8E06000B90125C9F80000B8F1E8
:10497000000F0AD0206930B960698000FDF7DCF8CB
:10498000206100B90125C8F800002846BDE8F0877D
:104990008C040020BDEC00082003002073B5124AEF
:1049A00001A900981268904700240090C8B10F49EF
:1049B00000250968C969496959B10A684AB101996C
:1049C00090477CBD6846FFF71FF90546FDF7D6FF07
:1049D00004440198401E0190F4D5284600F032F8B6
:1049E000044420467CBD0000B4050020F0020020F5
:1049F00073B50D460098002490B10A490968C96949
:104A0000496959B14A684AB1294690477CBD684610
:104A1000FFF7FAF820B10A2802D0641CAC42F6DB9A
:104A200020467CBDF0020020044AB2F9002002605A
:104A30000348B0F900000860704700003003002010
:104A40003203002038B5002469460094FDF7A8FF22
:104A50000099814200DD0C1A204638BD016811F82A
:104A6000012B12B10A2A02D002E001207047016036
:104A700000207047B0F90030B1F90020934200DA0D
:104A80000280B0F90230B1F90220934200DA42808C
:104A9000B0F90430B1F90420934200DD8280B0F90E
:104AA0000620B1F906108A4200DDC180704770B55A
:104AB000B1F90040B2F900309C4200DD234603808A
:104AC000B1F90250B2F90240A54200DD2C46448003
:104AD000B1F90460B2F90450AE4200DA354685807F
:104AE000B1F90610B2F90620914200DB1146C180EF
:104AF0009D4201DBA14201DA002070BD012070BDA2
:104B0000014602480068407C00F002B8F002002034
:104B10002DE9F843012604468946022857DADFF8D2
:104B2000B480080008F1040530D0012802D0022921
:104B30004DD116E055F8240088B92046FDF732FC27
:104B4000009010B3C0680D21426A68469047020089
:104B50003DD049460098904755F824000026401C57
:104B600033E02046FDF71EFC009070B1C0680D21B7
:104B7000426A68469047040029D0D8F8000000B186
:104B8000804749460098A047002620E055F82400B9
:104B9000012813D12046FDF705FC009070B1C068D4
:104BA0000D21426A68469047070007D0D8F80000F8
:104BB00000B1804749460098B847002655F82400C0
:104BC00008B1012100E00021401A45F824003046D8
:104BD000BDE8F883B404002070B5FF23B3EB116F78
:104BE00029D0C3B200F47F4500F47F04060E53437E
:104BF000554354435643C2F1FF00CAB202FB003290
:104C000001F47F4303FB005301F47F0505FB0044DF
:104C1000090E01FB0065C2F307204FF47F4101EA52
:104C20001322090201EA14214FF07F43104303EAE3
:104C300005430843184370BD2DE9F04F0646DDE9F2
:104C40000CB915460C4600208046584519D20B9FDA
:104C50004FF0FF0A01CE08CCAAEB106202FB09F26A
:104C6000B2FBFAF1CAB21946FFF7B6FF20F07F4057
:104C700001C57F1EEED1099804EB800408F1010004
:104C8000E2E7BDE8F08F016811F8012B11F8013B54
:104C9000016042EA032210467047016811F8012BB7
:104CA00011F8013B42EA032211F8023B42EA0342B7
:104CB00011F8013C016042EA03621046704713B5E7
:104CC000044601A8FFF7DFFF208001A8FFF7DBFF04
:104CD000608001A8FFF7D7FFA08001A8FFF7D3FFEE
:104CE000E08001A8FFF7CFFF208101A8FFF7CBFFED
:104CF000608101A8FFF7C7FFA08101A8FFF7C3FFEC
:104D0000E0811CBD0B88134403808B889B1A838031
:104D10004B8813444380C988891AC18070470000BA
:104D200002494A694260486170470000E40200207D
:104D30002DE9F8430768064688460025384600F006
:104D4000CBF840B3404600F0D7F8441C3846FCF797
:104D500075FF84420CD1F4B13846FCF785FF22463A
:104D600041460090FBF776FA6846FCF7E7FF11E052
:104D70002046FCF77BFE04000DD0FCF775FF414692
:104D80000090FBF7CDFA6846FCF7D8FF3046FCF7F9
:104D9000C5FE346001252846BDE8F88310B50446F9
:104DA00000F009F801462046BDE81040FEF742BF7A
:104DB00000230BF077B877B581B015460E466B46E9
:104DC00001980BF06FF8044601460198FEF732FF98
:104DD00001990844019001A8FEF716FF0A2802D0A5
:104DE000012D02D012E0641C10E020280ED1FDF746
:104DF000C5FD054607E02844009001A8641CFEF7A5
:104E000003FF202802D100988642F4DA04B020463D
:104E100070BD10B502E000F8011B521E0AB18307F5
:104E2000F9D1930818D001EB014402F0030204EB1E
:104E3000042406E010C01B1F10C040F8084B40F8C7
:104E4000044C042BF6DA01E010C05B1E002BFBD1F2
:104E500002E000F8011B521E002AFAD110BD10B565
:104E6000830702D520F8021B521E530811D001EB14
:104E70000144042B09DB10C01B1F10C0042B40F899
:104E8000084B40F8044CF6DA01E010C05B1E002B22
:104E9000FBD1D20700D0018010BD024600204FF0A8
:104EA00080414318934201D8D21A58184008890803
:104EB000F7D1704700B907A021B906A102E03AB1C5
:104EC000401C491C02780B789A42F8D001207047A8
:104ED000002070470000000038B50D46012448B19D
:104EE000FCF7C2FE29460090FFF7E4FF044668463F
:104EF000FCF724FF204638BD4FF0FF3128B100BF3A
:104F000010F8012B491C002AFAD10846704700000E
:104F1000114906A300201A5C8A800A885206FCD533
:104F2000401CC0B22A28F6D3FEE700000D0A456EE9
:104F300074657220486172644661756C745F486183
:104F40006E646C65722C2053797374656D204861B2
:104F50006C742E0D0A000000001001402DE9F04194
:104F60008AB017460D4606004FF0010433D0FDF716
:104F700035FE1B4800901B4801901B48CDE90205F7
:104F8000002005903046FCF76FFE0890D0F8845062
:104F900008A8FCF7D3FE2846FCF75CFF804638469D
:104FA000FBF796F900F11D0269462846FCF7EAFE78
:104FB00060B941462846FCF759FF0790394618303A
:104FC000FBF7AEF907A8FCF7B9FE0024304609F05C
:104FD000EBFBFEF741FF0AB02046BDE8F081000080
:104FE0006DC1000855CF000803DE000830B54568E4
:104FF0000446014685B0284603F06AF900280DD022
:105000002068112823D00BDC0B2814D00E283AD0AE
:105010000F2803D12146284609F0DAFE05B030BD3D
:10502000262835D0B0F5107FF8D1E1682846002950
:10503000F4D1032115E02846FCF716FE0090D0F8C5
:105040008400FCF7DFFE6846FCF778FEE6E7E068E0
:10505000417A49B10129E1D1007A0028DED102214B
:10506000284603F0B9FFD9E7017A0129D6D1D0E962
:105070000012284608F0CAFE010002D428460AF0B1
:10508000C7FD0121ECE72146284609F047FEC5E7A8
:10509000E068052805D00628C0D1284609F084FB21
:1050A000BCE72846FCF7E0FD0190284603F0D7FD59
:1050B0000146A068814206D102A903F0B8FD01991A
:1050C000039888630CE0284603F0B9FD0146A06808
:1050D000814205D102A903F0AAFD01990398486411
:1050E00001A8FCF72BFE284603F000FF0A21B7E7D2
:1050F000F0B587B0D0E90545260CB0F90870CDE9C8
:105100000565A4B2CDE903740025448A8DE8320018
:10511000B0F90C10B0F91050B0F90E40B0F90A0017
:10512000194410442B46224600F002F807B0F0BDA7
:105130002DE9F04F85B09846DDE90F7691468A4615
:1051400083460E9D149CFDF749FD1D486C34CDE946
:105150000204CDE9005743464A465146584603F0FB
:1051600071FA040026D0FCF74AFE05462046FCF7FB
:105170007BFD0490C0F884501022119903F0B4F91B
:10518000049810493822C1624FF0FF31C0F89010E6
:105190000D494C30FBF75EF80498129940F8881FCF
:1051A00013994160868104A8FCF7C8FD00212046C0
:1051B0000AF02EFDFEF750FE05B02046BDE8F08F48
:1051C000ED4F000888210308E003002038B50500F2
:1051D0004FF000040CD0FDF701FD2846FCF744FD1C
:1051E0000090D0F890406846FCF7A8FDFEF734FE2A
:1051F000204638BD38B50C46050011D0FDF7EEFC51
:105200002846FCF731FD0090C16CA14203D0C46474
:10521000284603F06BFE6846FCF790FDFEF71CFE87
:1052200038BDF8B514460D4606001AD0FDF7D6FC79
:105230003046FCF719FD009015B1012D0CD104E0AA
:10524000816EA14208D0846603E0C16EA14203D002
:10525000C466304603F04AFE6846FCF76FFDFEF771
:10526000FBFDF8BD38B50C46050011D0FDF7B6FCC6
:105270002846FCF7F9FC0090C16FA14203D0C46737
:10528000284603F033FE6846FCF758FDFEF7E4FDC0
:1052900038BDF8B514460D4606001AD0FDF79EFC41
:1052A0003046FCF7E1FC009015B1012D0CD104E073
:1052B000016FA14208D0046703E0416FA14203D00F
:1052C0004467304603F012FE6846FCF737FDFEF7F0
:1052D000C3FDF8BDF8B514460D46060015D0FDF720
:1052E0007DFC3046FCF7C0FC0090032D08D200EB9B
:1052F0008500C16DA14203D0C465304603F0F6FDC0
:105300006846FCF71BFDFEF7A7FDF8BD2DE9FF5F22
:10531000074640688246FCF7A7FC0390D0E90045A9
:10532000D0F88490D0F84080466B03A8FCF706FDC7
:105330003946504602F0CCFF002855D038680B287B
:105340006FD004DC032808D005284AD132E00F28AA
:105350004CD0B0F5107F44D137E0B9F1000F40D008
:105360004F4ED7F80C80706808B1B06828B900F0CB
:1053700025FD706000F02EFDB060D8F80010002907
:1053800002DD20B2401A15D4D8F80400002803DD4D
:10539000C0EB2442002A0DD4002904DA2AB2511AA3
:1053A0007268914206DC002809DAB168C0EB25403A
:1053B000884204DD0121504600F01AF911E0221460
:1053C00021B24846FDF7C2FE0BE0F86828B1007A2A
:1053D00008B1012102E0022100E00321504603F060
:1053E000FBFD384603F0E6F9BDE8FF9F5FEA0900E0
:1053F00003D000BFFDF7DCFEF6E7F00749D07007E9
:1054000010D5284A284901208DE8070021142AB226
:1054100020B2C1EB2543121A521C5B1CFDF7D6FCCF
:105420000AE03AE021142AB220B2C1EB2543121A55
:10543000521C5B1CFDF784FC04002AD05046FCF78C
:1054400013FC0390C0F8844003A8FCF777FCDFF856
:105450005C90D9F80000D0E902572046FDF74EFED7
:105460008346700706D54FF07F40FEF7F9F9FCF749
:105470003FFE02E02046FDF7E7FB504641468847E5
:105480005846FDF73BFED9F80000C0E90257204618
:10549000B0E7504641468847A6E700218BE7000069
:1054A000180400203CF602084C210308F0020020FA
:1054B000F0B51446D0E9056285B0B0F90850478AC6
:1054C0000296CDE90352CDE90017B0F90C10B0F9FE
:1054D0001050B0F90E20B0F90A00194420442B46B0
:1054E00000F002F805B0F0BD2DE9F04F87B081461D
:1054F000DDE911061C461546884640F00107DDF837
:1055000040B0DDF850A0FDF769FB300715D505A9BF
:10551000584603F083FABDF91800BDF914104FF096
:105520000008451ABDF91A00BDF91610C146441A03
:10553000641C47F4F0676D1C03E005B9012504B94C
:1055400001240AF15C00124ACDE90220CDE900B73E
:1055500023462A464146484603F074F8040011D019
:10556000FCF782FB04900022139902F0BDFF04991E
:10557000B0074E6301D5074800E00748086404A857
:10558000FCF7DCFBFEF768FC07B02046BDE8F08FB7
:105590000D53000899F5000897F20008F8B5144675
:1055A0000D4606001ED0002D1CD0002C1AD0FDF791
:1055B00015FB3046FCF758FB00900B49C464C0E96A
:1055C0000E510A4941646846FCF7B8FB0021304699
:1055D00000F00EF8304600F023F8304603F086FC69
:1055E000FEF73AFCF8BD000065CE0008DDDD0008DE
:1055F00038B50C46FCF738FB0090D0F88400FDF776
:1056000001FC00980025C0F884502CB9806D18B1B9
:10561000FEF728FA009885656846FCF78FFB38BDD1
:105620007FB50546FCF720FB009090F83460446C91
:105630006846FCF783FBF00608D502AA01A92846B4
:10564000A047DDE90112284603F052FF7FBD0000AC
:105650002DE9F047012186B0084601F013F9012138
:10566000102001F027F9494F072209213846FCF79D
:1056700009F807220A213846FCF704F8022500241D
:105680008DF8064001268DF8076028028DF8045039
:1056900000908DF8055069463846FBF7B7FF680261
:1056A00000908DF8045069463846FBF7AFFFDFF8ED
:1056B000E0904FF4E137ADF80C40ADF810404FF0FA
:1056C0000C080297ADF80E40ADF81440ADF812800A
:1056D00002A9484602F0F0FC40F2255A0122514648
:1056E000484602F0D0FC0121484602F09CFC4021D3
:1056F000484602F095FC0121042001F0C3F8012185
:10570000202001F0D7F8DFF88C90082206214846C7
:10571000FBF7B8FF082207214846FBF7B3FF8DF8D7
:1057200006408DF8076040208DF8045000908DF8F9
:10573000055069464846FBF769FF802000908DF8C8
:10574000045069464846FBF761FFADF80C40ADF8E0
:105750000E40ADF81040ADF814400F4C0297ADF874
:10576000128002A9204602F0A7FC012251462046E1
:1057700002F089FC0121204602F055FC4021204620
:1057800002F04EFC06B0BDE8F087000000000240C9
:1057900000100140000802400014014010B5112023
:1057A00002F088F878200BF0EBFD362002F082F84A
:1057B000002002F091F83A2002F07CF8552002F027
:1057C0008BF8B22002F076F80C2002F085F80C205D
:1057D00002F082F8002002F07FF8332002F07CF81B
:1057E000332002F079F8B72002F064F8352002F097
:1057F00073F8BB2002F05EF82B2002F06DF8C32096
:1058000002F058F8172002F067F8C42002F052F8AE
:10581000202002F061F8C62002F04CF8052002F0CA
:105820005BF8D02002F046F8A42002F055F8A22040
:1058300002F052F801F0E0FF132002F03BF82020C4
:1058400002F038F8292002F035F8054800210388D5
:1058500004480288BDE81040084601F0A1BF0000DE
:105860005A0100205801002010B5002001F0A6F9CF
:10587000C00700D0012010BD10B5002001F09EF936
:10588000800701D5012010BD002010BD10B500F02B
:105890004FF820B100F056F808B1012010BD0020EB
:1058A00010BD10B500F030F820B100F037F808B1A5
:1058B000012010BD002010BD10B5002001F07EF9C0
:1058C000400701D5012010BD002010BD10B50020FB
:1058D00001F074F9000701D5012010BD002010BDB2
:1058E00010B5002001F06AF9C00601D5012010BDF5
:1058F000002010BD10B5002001F060F9800601D530
:10590000012010BD002010BD10B5002001F056F997
:10591000400601D5012010BD002010BD10B50020AB
:1059200001F04CF9000601D5012010BD002010BD8A
:1059300010B5002001F042F9C00501D5012010BDCD
:10594000002010BD10B5002001F038F9800501D508
:10595000012010BD002010BD02490A6808601046F1
:1059600070470000080500200449054A0968497C81
:1059700052F821100969096808470000F002002068
:10598000080300202DE9F04F05468DB07B48DDF877
:1059900060901A9C00681E4617464FF0000A78B1C6
:1059A0001B9B199ACDF808900593CDE90324DDE9F6
:1059B0001623CDE90023046833463A46284680E0A2
:1059C000DDE9160201EB060805EB070C1043A8F110
:1059D0000108ACF1010C012806D0C9F108000590BE
:1059E000002002910990C6E065480268B2F90A30C9
:1059F000581A002806DD361A002E63DD1946199B59
:105A000000FB0344B2F90E00A8EB0000002802DD01
:105A1000361A002E56DDB2F90C00ACEB000000285F
:105A200000DD3F1AB2F908300020AB4235DD581BCB
:105A30003F1A4B46B9F1080F26D006DC012B0BD0DC
:105A4000022B11D0042B28D116E0102B1ED0182BBE
:105A50001FD0202B21D11CE020F0070304EBE00431
:105A60001D4400F0070018E020F0030304EBA0043D
:105A70001D4400F0030010E020F0010304EB60047B
:105A80001D4400F0010008E0044404E004EB40047D
:105A900001E004EB800405440020002F12DD1B9B75
:105AA000DDF864C0CDE90403CDE90069CDE902C4A5
:105AB000527C34483B4650F82200C26854680A467B
:105AC0002946A0470DB0BDE8F08F17990298084409
:105AD0000C902B49401E00900A68B2F90A308342AC
